:020000040800F2
:10000000C00A0020392F000805D3010805D30108D4
:10001000DDE0010805D3010805D3010805D3010877
:1000200005D3010805D3010805D3010805D301084C
:1000300005D3010805D30108D1CC010805D3010877
:1000400005D3010805D3010805D3010805D301082C
:1000500005D3010805D3010805D3010805D301081C
:1000600005D3010805D3010805D3010805D301080C
:1000700005D3010805D3010805D30108417B000819
:1000800005D3010805D3010805D3010805D30108EC
:1000900005D3010805D3010805D3010805D30108DC
:1000A00005D3010805D301080D33000805D3010865
:1000B00005D3010805D30108853400086134000820
:1000C00005D3010805D301085198010805D301089B
:1000D00045A20108835802087F580208399A01088E
:1000E0008F580208875802081DA201088B58020881
:1000F00085A20108917C0108F1A20108657E010832
:1001000005D3010805D3010805D3010805D301086B
:1001100005D3010805D3010805D3010805D301085B
:1001200005D3010805D3010805D3010805D301084B
:1001300005D3010805D3010805D3010805D301083B
:1001400005D3010805D3010805D30108000000000C
:10015000013800D0FCE77047002370B5404C0546DD
:100160008AB0E36318B1008823600DF053FA3D486C
:1001700024F0EBFE3C4E3D4B304633603C4B73600D
:1001800021F0EFFA0021304613F0DCFC32A3D3E972
:100190000023A062C4E9062321F0EEFAD4E9062385
:1001A000194310434FF0FF33C4E90601CDE90001C4
:1001B0004FF0FF32A06A24F031FF02224FF0FF31EE
:1001C000A06A24F030FF01200DF032F84FF40073E4
:1001D00000222849A06A24F07EFFB0F5007F38D1C4
:1001E00000239422CDE9073309933C23CDE9033260
:1001F00005939623A06A03A9069313F0BFFD35B3B8
:10020000287C0DF093FB0546F0B9A06A25F044F870
:100210000DF034FB0CF0EEFF20B14FF480700021A4
:100220000BF09CFD0CF0F6FF20B14FF400600021B4
:100230000BF094FD21F066FA012013F0D7FC0E4A72
:100240000E49A06A21F08BFA28460AB070BDFF2043
:10025000D7E70725F8E700BF0DD5015520000000BE
:10026000181D0020690345EC78340020C1D0000837
:100270006C3400206C320020071702084717020870
:100280002DE9F04F456A044610EE10AA2DED048BBF
:1002900093B057EC106BDDF88080BB460691099255
:1002A0000C9375B910201AF01BFF0246606220B94A
:1002B000A74BEA21A7481AF0A3FEC0E90155056043
:1002C000C560636A196851B15A680123204693409A
:1002D0004A608B601CF086F8636A00221A603B1E3D
:1002E000ADBF0023012223F0004BC8F800309A4B29
:1002F000B8BFC8F8002033EA0B031BD142F20F73DA
:100300000C9A1360CBF31303334300F08F85219BCA
:1003100063B9924B22E0924B01930833219A136008
:10032000019813B0BDEC048BBDE8F08F8B4B0193AB
:100330000333F3E700220023504659461AF076FCB7
:1003400080464BEC19AB58B101230C9A1360219BEA
:10035000002B00F0688583481860431E0193DFE797
:10036000CBF30A5510AA11A920464BEC10AB1CF098
:10037000BBFA08EE100A002D00F0828019EE903AC8
:100380005646A5F2FF35CDF83880C3F3130343F08A
:100390007F5747F440170022734B304639461AF016
:1003A00025F865A3D3E900231AF0D8F964A3D3E9AB
:1003B00000231AF01DF806460F4628461AF064F985
:1003C00061A3D3E900231AF0C9F902460B4630466F
:1003D00039461AF00DF806460F461AF059FC00226D
:1003E00000900023304639461AF02AFC50B100989C
:1003F0001AF04AF932463B461AF018FC10B9009B35
:10040000013B0093009B162B59D8009A574B03EBE6
:10041000C20351EC190BD3E900231AF011FC002898
:100420004FD0009B013B009300230B93109B5D1B5F
:100430006B1E059349BFC5F10103002304930023FC
:1004400054BF04930593009B002B3CDB059B009A53
:1004500013440A92059300230793069B092B00F28D
:100460008980052BC5BF043B002501250693069B0B
:10047000023B032B00F28980DFE803F02E3B395A60
:10048000DDE910531D4405F23243202BC6BFC3F1F2
:10049000400305F21240C3F1200305F1FF35C5BF4B
:1004A0000BFA03F326FA00F006FA03F018431AF0E9
:1004B000DBF801230646A1F1F8770E936BE70123E1
:1004C000B3E70B90B2E7049B009A9B1A0493534244
:1004D000079300230A93C0E700230893099B002B8E
:1004E00056DC01231A46CDE9023309920CE00123C0
:1004F000F3E70023099A0893009B13440293013306
:10050000012B0393B8BF01230022606A42600422DA
:1005100002F1140641689E423ED920461BF022FF9C
:10052000019000283CD1124B02464FF4D571C1E630
:100530000123DFE7AFF3008061436F63A787D23FFA
:10054000B3C8608B288AC63FFB799F501344D33FC2
:1005500002B8020819B802080000F07FFEB70208CE
:10056000F5B70208D2B702080000F83FB0B9020898
:1005700097B8020801250023089506934FF0FF3332
:100580000022CDE902331223AFE701230893F5E7F8
:10059000099BCDE90233B7E7013152004160B7E76B
:1005A000636A019A1A60039B0E2B00F29D80002D56
:1005B00000F09A80009B002B32DD03F00F03B64A57
:1005C00002EBC303D3E90089009BD8054FEA231748
:1005D00016D5B24B07F00F070325D3E9082351ECDA
:1005E000190B1AF0E5F982468B46AC4E57B94246D4
:1005F0004B46504659461AF0DBF982468B4628E0B6
:100600000225F2E7F90708D5404649460135D6E903
:1006100000231AF0A3F8804689467F100836E5E7E4
:1006200000F09B80009B02259C4F5E429A4B06F097
:100630000F02361103EBC20351EC190BD3E900236F
:100640001AF08CF8002382468B46002E7AD1002BBC
:10065000D3D10B9B002B00F082800022904B5046A0
:1006600059461AF0EDFA002879D0039B002B76D07A
:10067000029B002B36DD009B5046594600225F1E30
:10068000884B1AF06BF8013582468B46029E28464D
:10069000D04619F0F9FF52465B46D9461AF05EF88B
:1006A0000022814B19F0A4FE8246A1F1507B002E5E
:1006B00058D100227D4B4046494619F097FE5246DC
:1006C0005B46804689461AF0D9FA002840F09382AA
:1006D00052460BF10043404649461AF0B1FA002851
:1006E00040F087825BEC19AB119B002BC0F2488174
:1006F000009A0E2A00F34481674B03EBC203D3E94F
:100700000089099B002B80F2D580039B002B00F30E
:10071000D18040F06D820022644B404649461AF079
:100720001DF852465B461AF09FFA039E3746002892
:1007300040F043823123019D05F8013B009B0133CA
:1007400000933EE2F20705D50135D7E900231AF000
:1007500005F801237610083777E7022579E7009F2F
:10076000039E94E701994C4B314403EBC6030D9172
:10077000089953E90223002943D000204C491AF07C
:1007800017F952465B4619F031FE019D82468B46B1
:10079000494640461AF07CFA064619F075FF0246B3
:1007A00030360B464046494619F020FE52465B461D
:1007B00005F8016B804689461AF042FA002863D199
:1007C00042464B460020364919F010FE52465B4621
:1007D0001AF036FA002840F0B5800D9B9D4281D07A
:1007E0000022304B5046594619F0B8FF002282468D
:1007F0008B46404649462B4B19F0B0FF8046894650
:10080000C6E75046594619F0A9FF0D9B82468B4614
:10081000019D0F93494640461AF03AFA064619F0F0
:1008200033FF02460B4640464946303619F0DEFD9E
:100830000D9B05F8016B80469D4289464FF00002F2
:1008400024D11B4B5046594619F0D2FD02460B46A7
:10085000404649461AF012FA002873D152465B46C8
:100860000020134919F0C2FD02460B464046494696
:100870001AF0E6F900283FF435AF0F9D6B1E0F9379
:1008800015F8013C302BF8D0009749E0054B19F0E2
:1008900065FF80468946BDE7B0B9020888B90208FD
:1008A0000000F03F0000244000001C400000144005
:1008B0000000E03F56465F46019D42464B463046AB
:1008C00039461AF075F81AF0E3F9824619F0DCFEA1
:1008D00042464B4619F042FF024630460AF13006C6
:1008E0000B46394619F082FD05F8016B019E024660
:1008F000039F0B46AE1BB74235D119F079FD424636
:100900004B4606460F461AF0B9F9D0B942464B4657
:10091000304639461AF08AF910B11AF0010F10D199
:10092000204618EE101A1BF05DFD002300982B7076
:1009300001300C9B1860219B002B3FF4F1AC1D6033
:10094000EEE4009F2B461D4613F8012D392A06D1EF
:10095000019A9A42F7D13022019901370A701A7828
:1009600001321A7090E70022A44B19F0F7FE002222
:10097000002306460F461AF059F900289DD0CFE70C
:10098000089A002A00F0D580069A012A00F3B9805F
:100990000E9A002A00F0B18003F23343079E049DB3
:1009A000049A012120461A440492059A1A44059299
:1009B0001BF082FD0746002D0CDD059B002B09DD99
:1009C000AB42049AA8BF2B46D21AED1A0492059A9C
:1009D000D31A0593079B1BB3089B002B00F0AD8037
:1009E000002E13DD3946324620461BF023FE18EE5A
:1009F000102A0146074620461BF074FD804618EE7B
:100A0000101A204608EE108A1BF0ECFC079B9A1B7C
:100A100006D018EE101A20461BF00CFE08EE100A45
:100A2000012120461BF048FD0A9B0646002B40F39F
:100A300086801A46014620461BF0FCFD069B0646B2
:100A4000012B7FDD4FF00008336906EB8303186943
:100A500025F034FAC0F12000059B184410F01F0067
:100A600000F09180C0F12003042B40F38980C0F195
:100A70001C00049B054403440493059B0344059315
:100A8000049B002B07DD18EE101A1A4620461BF0B7
:100A90002BFE08EE100A059B002B05DD31461A4699
:100AA00020461BF021FE06460B9B002B6DD03146E5
:100AB00018EE100A25F051FA002866DA009B18EEAD
:100AC000101A0A222046013B009300231BF0ACFCC5
:100AD000089B08EE100A002B00F0AF810023394676
:100AE0000A2220461BF0A0FC029B0746002B00F3C5
:100AF0008D80069B022B50DC88E0109BC3F13603EF
:100B00004CE7039B5E1E079BB342B7BF079B9E1B30
:100B10000796F21ABFBF0A9B00269B180A93039BF5
:100B2000002BB7BFDDE90323DDE903359D1A002360
:100B300036E7079E049D089F3DE7079A69E7069BF5
:100B4000012B18DCBAF1000F15D1CBF3130393B9C5
:100B50002BF000431B0D1B0583B1049B4FF00108D4
:100B600001330493059B013305930A9B002B7FF40B
:100B70006BAF012070E74FF00008F6E79846F4E706
:100B80003FF47EAF18461C3073E7039B002B37DC25
:100B9000069B022B34DD039B0293029B6BB931460B
:100BA000052220461BF040FC0146064618EE100ABE
:100BB00025F0D3F900283FF7BDAD099B019DDB432C
:100BC00000934FF00008314620461BF00BFC002F2D
:100BD0003FF4A6AEB8F1000F05D0B84503D04146AA
:100BE00020461BF0FFFB394620461BF0FBFB97E637
:100BF00000263746E1E7009737469BE50000244092
:100C0000089B002B00F0CA80039B0293002D05DD9A
:100C100039462A4620461BF067FD0746B8F1000F0B
:100C20005BD0796820461BF09DFB054628B9874BB1
:100C3000024640F2EA21FFF73DBB3A6907F10C0199
:100C40000C300232920024F056FE01222946204642
:100C50001BF04AFD019BB846074603F10109DDE997
:100C60000123134405930AF001030493314618EE5F
:100C7000100A25F035F84146029000F1300A18EECE
:100C8000100A09F1FF3B25F068F93A460390314616
:100C900020461BF099FDC268054602BB014618EECE
:100CA000100A25F05AF902462946204607921BF001
:100CB00099FB4D46DDE9063243EA0201049B0B43F2
:100CC0000FD1BAF1390F2AD0039B002B02DD029B12
:100CD00003F1310A8BF800A075E73846BAE7012224
:100CE000E2E7039B002B04DB06990B4304990B43BB
:100CF00022D1002AEEDD18EE101A012220461BF048
:100D0000F3FC314608EE100A25F027F9002803DC31
:100D1000E0D11AF0010FDDD0BAF1390FD7D1392364
:100D20008BF800302B461D46013B15F8012C392A63
:100D300070D001321A7046E7002A07DDBAF1390F88
:100D4000EDD00AF101038BF800303CE7059B09F870
:100D500001AC994546D018EE101A00230A2220460D
:100D60001BF062FBB84508EE100A4FF000034FF08D
:100D70000A024146204606D11BF056FB8046074634
:100D800009F1010972E71BF04FFB39468046002349
:100D90000A2220461BF048FB0746F1E7039B02931B
:100DA000019D314618EE100A24F09AFF019B00F1D4
:100DB000300A05F801ABEA1A029B934209DD18EEEE
:100DC000101A00230A2220461BF02EFB08EE100A00
:100DD000E7E7029B4FF00008002BCCBF1D46012522
:100DE000019B1D4418EE101A012220461BF07CFCCA
:100DF000314608EE100A25F0B0F8002892DC02D146
:100E00001AF0010F8ED12B461D4613F8012D302A02
:100E1000FAD0D8E6019A9A4285D1009B013300931B
:100E200031231370CFE60A4BFFF798BA219B002BB2
:100E30007FF471AA074BFFF791BA029B002BAFDC3E
:100E4000069B022B3FF7A9AEAAE700BF97B802089E
:100E5000D1B70208F5B7020810B5054C237833B9AD
:100E6000044B13B1044800E000BF0123237010BD00
:100E7000681F00200000000090BB020808B5034B6B
:100E80001BB10349034800E000BF08BD000000009B
:100E90006C1F002090BB0208A3F5803A704700BF8A
:100EA000174B002B08BF134B9D46FFF7F5FF0021A2
:100EB0008B460F461348144A121A24F043FD0E4B7A
:100EC000002B00D098470D4B002B00D098470020F6
:100ED000002104000D000D48002802D00C4800E05D
:100EE00000BF1AF0D9F82000290000F045F91AF0E7
:100EF000ADF800BF00000800000000000000000086
:100F0000C00A0020A81C00206C3F00200000000048
:100F100000000000F0B50368884A23F47F4323F003
:100F20000703934204468FB07CD00ED802F17F4273
:100F3000934267D002F58022934200F08F80A2F5A1
:100F40001022934228D00FB0F0BD7D4A934200F0AA
:100F5000EF8002F51022934200F0BE80A2F182726F
:100F60009342F0D1B0F80550B0F80760B0F80970BE
:100F700032463B462946007900F066FD714B03205E
:100F800001937523CDE9036700936F4A6F4B704956
:100F9000029501F02BFBD6E76E4B032001933F2314
:100FA000694A6B490093694B01F020FB002109ABB2
:100FB000084607AA0EF0BEFE00B1FEE7664C2046CA
:100FC0000EF0B8FD00B1FEE7644D6548294600F01B
:100FD000B9FE634B02212A7820780EF0E5FD034626
:100FE00000B1FEE74FF4C8620090114620780EF081
:100FF000B9FD00B1FEE7022120780EF0FFFD0028C8
:10100000A1D0FEE7574B0320019364234E4A00937F
:101010004F494E4B01F0EAFA207B0FB0BDE8F0409B
:1010200000F004BD504B4A4901937D230320464AFA
:101030000093464B01F0DAFAA079474C00F02AFD04
:10104000022120780EF0C6FD00B1FEE702212078D3
:101050000EF0D4FD00283FF476AFFEE700210691A4
:10106000B0F8056009AD142206AB304600950EF0CD
:1010700003FE3E4B032001939823334A34490093E7
:101080000296324B01F0B2FA2A460A21BDF8183016
:10109000374801F05BFD252E10D0282E7FF453AF8A
:1010A0002379AAB28DF81C30B4F80530ADF81D30A4
:1010B000DDE90701069B00F0B3FF44E72379AAB2FC
:1010C0008DF81C30B4F80530ADF81D30DDE90701AE
:1010D000069B1BF070FF36E7B0F8055003891A4AEB
:1010E000CDE90253234B03200193BF2318490093FA
:1010F000164B01F07BFA252D09D0282D7FF423AF64
:10110000238983B10FB0BDE8F04000F031BF2389DF
:1011100023B10FB0BDE8F04000F0DABE0FB0BDE87B
:10112000F04000F0DBBE0FB0BDE8F04000F026BF9D
:1011300040680FB0BDE8F04000F010BDA00006010F
:10114000A00001035062020808620208CC62020893
:101150001162020815620208EE0E0020E539002037
:10116000C63900203D6202088662020899620208C0
:10117000A7620208AC62020807B51DF0CCFD002092
:1011800007F06AFB01F0B2FCFF21002001F0E6FB52
:10119000C321012001F0E2FBC321022001F0DEFBAC
:1011A0000321084601F0DAFB0321042001F0D6FBFD
:1011B00001F0B0FB1DF048F801213A2002F0B8FE22
:1011C000094B032001934B23084A09490093094B1B
:1011D00001F00CFA00F082FC00F07CF81DF041F800
:1011E00005F00AFEFAE700BFEF620208DB620208C0
:1011F000E5620208F862020808B50368074A23F4AA
:101200007F4323F00703934207D1052200211620D4
:10121000034B0EF063FD00B1FEE708BDA000010026
:10122000FD62020810B5234C03F0EAF803F0E8FA77
:10123000236F23F0070343F0030323671CF0CBF96C
:101240001D4B00209B6A9B075EBF01221B4B9A62CD
:10125000D4F8203123F0030343F00203C4F8203113
:10126000D4F8243123F0070343F00203C4F82431F7
:10127000D4F8403123F0030343F00203C4F84031B3
:10128000D4F8603123F0030343F00203C4F8603163
:10129000D4F8403223F0030343F00203C4F8403291
:1012A000D4F8003223F0070343F00203C4F80032FD
:1012B00010BD00BF0080005000C0005000E0005092
:1012C000024B0349186802F063BA00BFC00A00204D
:1012D000C40A0020002208B5044B1A7000F048F838
:1012E00000F08CFABDE8084000F01ABAE639002098
:1012F00007B504220E4B4FF47A701A6706F03CFAD9
:1013000000230146CDE900330A4A0B481CF01DFFBB
:1013100050B10A4B012001934FF4D473084A009353
:101320000849094B01F062F903B05DF804FB00BF06
:1013300000D00350F7CD0108302000206A66020873
:101340004A660208626602080A67020813460A46ED
:1013500001460248006802F0FDBB00BFC00A002041
:10136000024B0A460146186802F01ABCC00A002067
:1013700008B5042201230621002003F071FD01239A
:1013800004221846032103F06BFD012304221846B2
:10139000022103F065FD002302221846072103F015
:1013A0005FFD00221149072002F02EF8104B114971
:1013B0001860022000F0AEFB0F49012000F0AAFBEC
:1013C0000E49042000F0A6FB0D49032000F0A2FB0B
:1013D000092304220B490C481BF062FF08220B4B27
:1013E0001A671BF02FFD0A4B186008BD03CE0108D9
:1013F0002C20002085190008F112000809170008A8
:10140000C9140008E83900207020002000D00350E3
:101410008420002013B51C4680238DF8053000235E
:101420008DF8061040218DF807300B4B8DF8040025
:10143000104619640AB11BF0E7FC04210DEB010012
:10144000FFF78EFF14B120461BF0DEFC4022034B59
:101450001A6402B010BD00BF00E0035000D003507A
:1014600070B592B08DF80800A0200024169D8DF86C
:101470000900E6B2B01CB24212AE56FA80F019D89A
:101480000332D1B2002200F8402C40200C4A1064F4
:1014900023B1184601911BF0B7FC019902A8FFF790
:1014A0005FFF15B128461BF0AFFC4022054B1A64C4
:1014B00012B070BD0E5D013400F8406CD9E700BF7A
:1014C00000E0035000D0035030B52D4D01242B789F
:1014D0008BB0002B46D00D238DF808301E2302223E
:1014E00000936120002302A98DF80940FFF7B8FF9F
:1014F000032006F057FB1E230022A6213A20FFF707
:1015000089FF032006F04EFB61231E258DF808306D
:101510005423002402A903228DF80A3001200F234E
:1015200000958DF80940FFF79BFF032006F03AFB7A
:101530002246214601241F230520FFF76BFF0320CD
:1015400006F030FB1123022202A9172000958DF826
:1015500008408DF80940FFF783FF204606F022FB84
:101560000BB030BD0F228DF808201E2261200092A2
:1015700002A902228DF80940FFF772FF2C70B7E72D
:10158000E739002013B5134B14461A889B78ADF841
:1015900004208DF80630002340228DF801308DF8AC
:1015A00002300D4B8DF8000008461A6409B11BF09B
:1015B0002BFC0322684601A9FFF7C8FE14B12046A0
:1015C0001BF022FC4022054B1A649DF8060002B075
:1015D00010BD00BFD766020800E0035000D00350E2
:1015E0004022F0B5414B85B01A64022006F0DAFAC9
:1015F0000123002219460520FFF70CFF022006F008
:10160000D1FA012200210720FFF7BCFF0446022087
:1016100006F0C8FA012200210820FFF7B3FF04EB0F
:101620000020334C238801339BB20E2B23803CD106
:10163000304B1880032006F0B5FA06230022012162
:101640000420FFF7E7FE27880F2F2CD12A4B1E8896
:10165000032E28D1002430461E251C8006F0A2FA55
:101660002623012203A93A208DF80C3000953B4631
:10167000FFF7F6FE022006F095FA2B462246314689
:101680005020FFF7C7FE022006F08CFA2B462246B8
:10169000A6213A20FFF7BEFE0422184B1A67184A0B
:1016A0001268C3F8202405B0F0BDC3D90F23124A35
:1016B0002380138801339BB2022B01D81380B9E732
:1016C000032313800B4B03A91B880122C01A03902C
:1016D0000C481BF0EDFD0023CDE90033084A07213B
:1016E0001846126803F064FBA4E700BF00D0035063
:1016F0001E3900201C3900202039002000E0035052
:101700002C2000207020002010B5FFF769FF034B4C
:101710001B6813B1BDE81040184710BD28200020F9
:10172000402270B52E4B8CB01A64052006F03AFAB0
:1017300026238DF810300B231E268DF81130072339
:10174000032204A93A208DF8123000960F23FFF7E8
:1017500087FE052006F026FA03238DF81030392382
:101760008DF8133094238DF819307F230024012540
:101770000E2204A950208DF81C3000960F238DF8FE
:1017800011408DF812408DF814408DF815408DF8F9
:1017900016408DF817508DF818508DF81A408DF8B6
:1017A0001B508DF81D40FFF75BFE4FF47A7005F07B
:1017B000E3FF23460146CDE900440A4A0A481CF0EB
:1017C000C4FC58B1094B0290019340F2EB23284628
:1017D0000093074A074B084900F008FF0CB070BDA2
:1017E00000D00350FDCD0108082000208B660208C0
:1017F0004A660208EF6602086266020837B50422EC
:101800001E4B1A671BF01EFB1D4B1B68C01AB0F560
:101810007A7F07D21B4B584300F5742000F51070F7
:101820001BF0F2FA00240125CDE90045164A2B46AB
:1018300007211268204603F0BBFA44F6206005F049
:101840009BFF23460146CDE90044104A10481CF096
:10185000A0FC60B10F4B284601934FF4E4730E4A8D
:1018600000930E490E4B00F0C1FE03B030BD0D4A8F
:10187000107003B0BDE83040FFF752BF00D00350F6
:101880008420002018FCFFFF2C200020F1CD01084F
:1018900050200020AD6602084A660208626602080F
:1018A000FD660208E7390020402270B52E4B8CB04F
:1018B0001A64032006F076F926238DF810300B23E6
:1018C0001E268DF811300723032204A93A208DF833
:1018D000123000960F23FFF7C3FD032006F062F9D4
:1018E00003238DF8103039238DF8133094238DF8AD
:1018F00019307F23002401250E2204A950208DF8E1
:101900001C3000960F238DF811408DF812408DF891
:1019100014408DF815408DF816408DF817508DF84D
:1019200018508DF81A408DF81B508DF81D40FFF7A8
:1019300097FD4FF47A7005F01FFF23460146CDE96D
:1019400000440A4A0A481CF000FC58B1094B0290B6
:10195000019340F21F3328460093074A074B08497A
:1019600000F044FE0CB070BD00D00350FDCD010866
:10197000082000208B6602084A660208DA66020820
:101980006266020807B501230020CDE90003054A7D
:101990000721126803F00CFA03B05DF804EBFFF7BF
:1019A00083BF00BF2C20002000487047D8200020B3
:1019B0000D4B00211A4610B5147814B15488844296
:1019C00010D01631422902F12C02F5D10022012457
:1019D000197811B91C70588059700132032A03F12B
:1019E0002C03F5D110BD00BFD820002070B50646ED
:1019F0000025074C23782BB16388B34202D12046DF
:101A00001BF00FFA1635422D04F12C04F2D170BDF3
:101A1000D8200020044B187820B993F82C0008B97E
:101A200093F85800704700BFD8200020012208B565
:101A3000044B83F88B20FFF7BBFFBDE8084000F0A4
:101A4000EBB900BFD82000202DE9F04705460E462F
:101A5000174698464FF0010A0D4C04F1840923788B
:101A600063B16388AB4209D12846A680E780A4F819
:101A700008801BF0FEF930B184F801A02C344C45ED
:101A8000EDD1BDE8F087284600F0C6F9F6E700BFC3
:101A9000D820002010B504461BF02EFA2046FFF790
:101AA000A5FF0023054C84F88C301BF03FFAFFF7AC
:101AB000B1FF08B984F88B0010BD00BFD82000200A
:101AC00000231946044A01330A2BC2E9001102F12E
:101AD0000802F8D1704700BF8820002010B50C4CD8
:101AE000A8220021204623F02DFF20461BF099F963
:101AF00004F12C001BF095F904F158001BF091F94A
:101B0000FFF7DEFF01F0A8F9052384F8A23010BD2D
:101B1000D82000200123002230B503FA00F00E4B3C
:101B200053F83240844204D1012003EBC2035960D0
:101B300030BD01320A2AF3D10022074C256825B9AD
:101B4000656815B943F83200EEE701320A2A04F15C
:101B50000804F3D10020EBE78820002008B501231A
:101B6000002203FA00F0084B1968814204D1596839
:101B700011B18847012008BD01320A2A03F1080388
:101B8000F2D10020F7E700BF8820002007B54FF40E
:101B90007A7005F0F1FD00230146CDE90033094AD2
:101BA00009481CF0F6FA50B1084B0120019340F2AD
:101BB000D113074A00930749074B00F017FD03B004
:101BC0005DF804FB59CE0108A02100206A660208D6
:101BD0002667020845670208CE670208014805F03B
:101BE00021BD00BFA021002007B5124B124A01936E
:101BF0004FF4FF73114903200093114B00F0F6FCE2
:101C0000642005F0B9FD00230146CDE900330D4AFB
:101C10000D481CF09AFA50B10C4B0120019340F290
:101C20000323054A00930549054B00F0DFFC03B090
:101C30005DF804FB8867020826670208456702080A
:101C4000AB6702085FCE0108802100206A660208A7
:101C50003A4BF0B5B0FBF3F24FF4C87503FB12003A
:101C6000642640F2B273B2F5B77F4DD240F26D14E4
:101C7000A24213D19C0706D16425B3FBF5F405FB02
:101C80001434A4B254B94FF4C875B3FBF5F405FB92
:101C90001434A4B214B1002201339BB26424B3FB08
:101CA000F4F504FB15354FF4C874B3FBF4F604FBEC
:101CB00016360024DFF888E00B80ADB2B6B203F030
:101CC0000303012CA7B202D103B9A5BB9EB31EF832
:101CD00004C0944505D801340C2CA2EB0C02F0D1C1
:101CE00027460132CA704FF46162B0FBF2F302FB87
:101CF00013003C224B71B0FBF2F302FB13000137DF
:101D00008F708B71C871F0BD9C0705D1B3FBF6F4E1
:101D100006FB1434A4B22CB9B3FBF5F405FB143460
:101D2000A4B224B9A2F5B77201339BB29BE76FF45A
:101D3000B6773A44F8E74FF01D0CCAE7805101002E
:101D4000E567020838B50D46044688B3194801F026
:101D50003FF8184823F04DFF0923013063702070CD
:101D6000144823F046FF13490246A01C23F0C3FD8C
:101D7000104823F03EFF032241F61F01C0B2831C2E
:101D8000DBB2E2548318DBB2E254031DDBB2E15252
:101D9000831DDBB2E254FF22C31DDBB2E25440F2EA
:101DA000623200F10803DBB2E2520DB10A30287052
:101DB00038BD00BF0C3A0020004870472A3A002086
:101DC00010B5044C092104F1120000F069F8A4F8E0
:101DD0001B0010BD183A002000487047233A00202D
:101DE00010B5044C052104F10B0000F059F82082D5
:101DF00010BD00BF183A002000487047183A002074
:101E000010B5044C0921204600F04AF8A4F8090056
:101E100010BD00BF183A00202DE9F04F07460026FC
:101E20004FF02C084FF00109DFF870A085B0FFF7E4
:101E3000BBFD08FB06F4035D23B3FFF7B5FD2044AB
:101E40004388BB421ED1FFF7AFFD20444378CBB996
:101E500038461BF00EF80546D0B9FFF7A5FD04F192
:101E60000C0300EB030B41F2883005F085FC039076
:101E7000FFF79AFD52460319CDE9005558460399DC
:101E80001CF063F90136032ED1D105B0BDE8F08F07
:101E9000FFF78AFD204480F80190F3E7E7CE0108C0
:101EA00010B581B14FF6FF73084C0144884201D14F
:101EB000184610BD10F8012B5A40D2B234F8122047
:101EC00082EA1323F2E74FF6FF73F1E7F2670208A5
:101ED0000122014B1A707047753A00200022014B15
:101EE0001A707047753A002030B593B002AC84E8A0
:101EF00003008DF807301C238DF814300DF1070313
:101F0000CDF8173001230BAC214605A88DF815201C
:101F10008DF816301BF02FF807AD014620461BF058
:101F2000AEF92946204600F0BFFF95E80F0084E88F
:101F30000F000E4B1B78B3B1FFF736FD90F88C30D5
:101F40008BB1FFF731FD90F88B3063B1234610223F
:101F5000BDF809109DF808000DF0D6FEFFF724FD2E
:101F6000002380F88C3013B030BD00BF753A0020DC
:101F70000122014B1A707047763A00200022014B73
:101F80001A707047763A002082B070B58EB06C46F9
:101F900084E8030012A907AC81E80C0012A82146CE
:101FA0001BF0F0F8224683B206461021194800F0D3
:101FB000CDFD194B1B7863B9102103AD20461BF0F2
:101FC0005EF92946204600F06FFF95E80F0084E88F
:101FD0000F00124B1B78BBB1FFF7E6FC90F889307D
:101FE00093B1FFF7E1FC90F88B306BB1234632469A
:101FF000BDF801109DF800000DF086FE044618B9EA
:10200000FFF7D2FC80F889400EB0BDE8704002B006
:10201000704700BFF2690208773A0020763A002044
:102020002DE9F04F95B004AE86E80300114618463E
:1020300017461C461BF0D6F8002843D00122BE4BA1
:102040001A7017F0FF0600F09280012E257800F03C
:102050009180013EF6B204F101083B462246102170
:10206000B64800F073FDB64B0320019340F22713EE
:10207000B44A0093B449B54B029500F0B7FA1C235B
:102080008DF8383002231B2D8DF839508DF83A30F9
:1020900000F017817BD8042D00F062816ED8012DED
:1020A00000F097809D4200F09D8000258DF84F50F4
:1020B00014AB13E90F008DE80F00DDE90E23DDE915
:1020C000040130E0FFF798FE03798BB325462046E4
:1020D00006A900F0FFFE06AB0DF1280C1A4603CA54
:1020E000624528606960134605F10805F6D123783A
:1020F0007B2BA6D0FFF758FC90F88430002BA0D1A2
:102100001D238DF8383000238DF839308DF83A30A2
:102110008DF84F3014AB13E90F008DE80F00DDE9A7
:102120000E2396E80300FFF72FFF15B0BDE8F08FF0
:1021300022787A2AE4D1112F08D01C218DF8392079
:1021400003228DF838108DF83A20E1E7651C284607
:1021500006A900F0BFFE0AAE06AB1A4603CAB24299
:1021600028606960134605F10805F6D169E7B046B5
:10217000FF2572E74FF0000846466EE71A2D94D10E
:102180000F212046FFF78CFE88B3072327E07A2D26
:1021900000F09A8110D8612D00F00E81622D84D15B
:1021A000042E1BD898F80030012B00F07881032B07
:1021B00014D18DF83B3083E17B2D7FF476AF06217F
:1021C0002046FFF76DFE0546002800F0A08105239C
:1021D00005E0032E8DF83A507FF667AF03238DF8A4
:1021E0003A3062E7032301258DF838305EE7D4F8F2
:1021F0000160B4F80580E779647AFFF7EDFD857832
:10220000FFF7EAFDB5FA85F583786D09332B00D029
:102210000DB10423E3E7FFF7DFFD8378022B03D141
:1022200005238DF83A3041E7FFF7D6FD8378082B78
:1022300001D10623D3E707EE908A9FED457AF8EEA9
:10224000676AC6EE877A9FED437AF4EEC77AF1EEBD
:1022500010FA3FF52AAF9FED407AF4EEC77AF1EE1F
:1022600010FA3FF722AFFFF7B7FDA0F80380FFF7A2
:10227000C3FD0470FFF7A0FD0660FFF79DFD077228
:10228000FFF7AAFD33238370FFF7BAFDFFF798FD30
:10229000FFF7A6FD3946304600F04EF92F4B597A2C
:1022A0001A7A186842EA0122997A42EA014222F037
:1022B0007F42596800F038FDFFF768FC00F044FDEC
:1022C000F3E6FFF789FD83780F2B25D853B3013B45
:1022D0000E2B27D801A252F823F000BF13220008CA
:1022E00013220008252300081322000813220008E7
:1022F00025230008252300081322000825230008B1
:10230000252300082523000825230008252300088D
:102310001322000813220008222B3FF47AAF312B3E
:102320003FF477AFFFF758FD02238370FFF758FDA6
:10233000FFF754FCB9E600BF773A0020FC690208B9
:10234000276A0208056A02081D6A0208426A020832
:1023500000007A449A99993ECDCC8C3F783A00207F
:102360000C2F7FF63BAF07212046FFF799FD05466E
:1023700000287FF44EAFB4F80140FFF715FB90F84A
:10238000A330022B0DD0FFF70FFB90F8A330042BE6
:1023900007D0FFF709FB90F8A330052B01D00923E4
:1023A0003FE7FFF719FD8578002D7FF442AF173C1A
:1023B000C62C72D9082334E7102E3FF60FAF98F8D9
:1023C0000070032F21D0042F52D0012F7FF406AFCD
:1023D000B4F90350574EB4F90500B4F90710B4F935
:1023E0000920B4F90B30B4F80140F5800025708065
:1023F000318130460E21B4807281B3813580FFF780
:102400004FFD8DF83A70F08150E6607AA17A237B17
:1024100094F801A094F8029094F8038094F804E0F2
:1024200094F805C0A779E679257AE27AB4F80DB078
:10243000404C84F8200084F8211004F118000E218B
:1024400084F8233084F818A084F8199084F81A804E
:1024500084F81BE084F81CC06777A677E57784F8DA
:102460002220A4F824B0FFF71BFD0123E084B6E688
:1024700000256078A178E278A3882E4C84F82800A3
:1024800084F8291084F82A20062184F82B5004F1BE
:102490002800A385FFF704FDE0850123C1E60AAA11
:1024A0000DF13B030CAD144603CCAC4218605960EF
:1024B000224603F10803F6D12068186022791A71C8
:1024C00060238DF83830F0E5FFF796FC0579002D94
:1024D0007FF49FAEFFF790FC01230371FFF790FCA0
:1024E00004F110060AAA134620686168083403C381
:1024F000B4421A46F7D10DF1290000F0CDFCFFF7E8
:1025000053FA0A9BC3F30F23A0F88630C5E764880B
:10251000FFF74AFAB0F88630A3427FF47AAE102F64
:102520007FF45CAE01248DF83A40FFF73DFA80F865
:102530008440BBE52239002070B588B00D460646C0
:10254000FFF73AFC0660FFF737FC0572FFF738FC2F
:102550000023114C3046214663602360C4F80730E5
:10256000FFF776FBE37903200793A3790B4A0693E1
:1025700063790B490593E37865720493A378039319
:1025800023880293074B01933C230093064B00F0F2
:102590002DF808B070BD00BF783A0020566A0208D6
:1025A0006D6A0208766A0208A66A020838B5064C07
:1025B000012594F8F23023B11AF052FE84F8F45059
:1025C00038BD84F8F350FBE7C021002010B5064C5D
:1025D00094F8F2302BB11AF044FE002384F8F43062
:1025E00010BD84F8F330FBE7C02100202DE9F04F47
:1025F00007468FB0084699460D46924623F0F9FAF1
:102600000023052F8346CDE90A33CDE90C33089327
:10261000ADF8243017D9AB4B1C687CB94FF40F725E
:10262000A949AA4B0291AA49CDE90332CDE900217B
:102630002046A84AA849FFF7D9FFFEE74FF40F72DA
:10264000A249A148A047DFF8C88298F8F130002BD2
:1026500000F0178198F80030BB42C0F01281284684
:1026600000F0AEF9B842C0F00C81284608F1010133
:1026700023F0EEFA002800F004811AAB0793FFF76D
:1026800095FF98F8F540954E64B13146944A002084
:1026900000F026FB934B311853F82720044600F036
:1026A0001FFB04440121384600F0D8F938B18E4BA5
:1026B0002046311953F8272000F012FB0444022170
:1026C000384600F0CBF9D0B1204631192A4600F047
:1026D00007FBBBF10F0F04440BD82021CBF10F02F5
:1026E0000AA823F02FF9204631190AAA00F0F8FAB7
:1026F0000444204631197A4A00F0F2FA04441C21BD
:10270000384600F0ABF9002848D031192046774A06
:1027100000F0E6FA04210444384600F09FF990B135
:1027200000F0CCFA31190246204600F0D9FA1821FF
:102730000444384600F092F928B120463119684A1D
:1027400000F0CEFA04440821384600F087F990B131
:102750001AF088FD31190246204600F0C1FA102116
:102760000444384600F07AF928B1204631195C4A11
:1027700000F0B6FA04441021384600F06FF938B181
:102780001AF072FD31190246204600F0A9FA0444FD
:1027900020463119564A00F0A3FA0444E021384695
:1027A00000F05CF900284AD031192046514A00F067
:1027B00097FA20212518384600F050F990B1711988
:1027C0005246284600F08CFA40210544384600F075
:1027D00045F97419002857D0474A2846214600F089
:1027E0007FFA05448021384600F038F9B0B1052160
:1027F000189B424A08A819F0C3FA7119284608AA7A
:1028000000F06EFA40210544384600F027F928B15F
:1028100028467119324A00F063FA054440213846CF
:1028200000F01CF928B1284671194A4600F058FA00
:1028300005442846324A711900F052FA2C18C4F5A2
:1028400080613019079B199A19F0EEFA0444B4F527
:10285000806F21D80028B8BF4FF4806440F2FB336A
:10286000621DB2F5806F88BF1C4698F82030B3B166
:10287000002324491948335523F0EAF978B9FFF7C2
:10288000A5FE0FB0BDE8F08F8021384600F0E6F8D5
:102890000028A7D0124AA0E74FF48064DEE798F83A
:1028A000F5302BB120463119174A00F019FA0444CB
:1028B00031192046154A00F013FA211807481AF07A
:1028C000CAFCDCE7B8220020E46A0208F26B0208C6
:1028D000FE6A0208C46A0208DF6A0208833A00201E
:1028E000906B0208246C02083C6C0208206B020802
:1028F000226B0208256B0208276B0208296B02086D
:10290000706B0208E02100202D6B0208406A02086B
:10291000C02100201FB50B4B93F8F02072B10122AB
:1029200083F8F120084B03200293084B084A0193D7
:10293000F42308490093084BFFF758FE05B05DF8F3
:1029400004FB00BFC0210020326B0208396B020873
:10295000C46A0208DF6A0208D76B020870B505284E
:1029600004460D4686B017D90E4B1E687EB94FF44B
:102970009F720D490D4B02910D49CDE90332CDE90E
:10298000002130460B4A0C49FFF730FEFEE74FF4BA
:102990009F7206490448B047084B363443F8245028
:1029A00006B070BDB8220020E46A0208166C020866
:1029B000FE6A0208C46A0208DF6A0208C021002019
:1029C000F0B5074687B0B0B91D4B1B6873B94FF41B
:1029D000EF721C491C4B02911C49CDE90332CDE931
:1029E00000211B4A1B49FFF701FEFEE74FF4EF727F
:1029F000154914489847184D95F8F030EBB1FFF79A
:102A0000D5FD2E46002496F8513083B11E2238465B
:102A100006F1320123F0F5F848B904EB44142C44D4
:102A200094F83140FFF7D2FD204607B0F0BD0134E5
:102A3000052C06F12106E6D1F4E70524F4E700BFF2
:102A4000B82200205F6B0208FE6B0208FE6A0208D3
:102A5000C46A0208DF6A0208C021002070B5052898
:102A600004460D4686B017D9104B1E687EB940F259
:102A7000DB220F490F4B02910F49CDE90332CDE91B
:102A8000002130460D4A0E49FFF7B0FDFEE740F247
:102A9000DB2208490648B0470A4B363453F8243045
:102AA0001D4214BF0120002006B070BDB8220020D6
:102AB000E46A0208E26B0208FE6A0208C46A0208BD
:102AC000DF6A0208C0210020074B83F8F20050B1F2
:102AD00093F8F32093F8F43013B922B11AF0C0BB85
:102AE0000AB91AF0BEBB7047C0210020F8B5164DD8
:102AF00095F8F0302BBB1AF0ACFB0446F8B9012076
:102B0000FFF7E2FF4FF480730522A5F8F4302B465F
:102B10002646274685F8F34003F8322B18461F2235
:102B2000002122F00FFF03460136052E00F8017C3C
:102B3000C77703F12103F1D1012385F8F030204656
:102B4000F8BD0024FBE700BFC02100202DE9F04FB5
:102B50002DED028B00250F464F49984691F8F13034
:102B600087B008EE100ACDE9045503926BB10B78DB
:102B7000032B0AD9013123F06BF830B1FFF716FDB2
:102B8000464E454506D3FFF721FD07B0BDEC028B4D
:102B9000BDE8F08F7B19013BCDE900534FF4806114
:102BA00018EE103A30463E4A19F0EAF8B0F5806F58
:102BB00088BF4FF48060A946AA464FF0000B84B24C
:102BC000BBB25F45029324D820463119354A00F044
:102BD00087F84FF0000A0444DFF8DCB0A4B2029A90
:102BE0001FFA8AF39A423BD840F2FF33621CB2F5D7
:102BF000806F88BF1C462C4A3119204600F070F8BF
:102C0000204481B230461AF026FB029B2B449DB231
:102C1000B7E7D0451EDD039B082113F80A30234A8D
:102C200004A819F0ADF82046311904AA00F058F8AC
:102C30000BF1010320441FFA83FB5B0784B206D12A
:102C4000204631191A4A00F04BF8204484B20AF1A8
:102C5000010AB5E70822174904A822F0E6FFE2E7D7
:102C6000C84513DD039B082113F8093004A8A3F11C
:102C700020025F2A28BF2E235A4619F081F82046E9
:102C8000311904AA00F02CF80444A4B20AF1010A94
:102C900009F10109A3E700BFC0210020833A002009
:102CA000726B02088F6B0208406A0208886B020888
:102CB000906B02088E6B0208926B02087FB504F0DD
:102CC0003BFD6A4604F0C6FD009A044902A819F0CB
:102CD0008BF8002007B05DF804FB00BF546C0208BD
:102CE00070B529B92C210C4B0C4A0D4818F088F905
:102CF0003AB11446431A204614F8015B2DB9801AE4
:102D000070BD2D21074B054AEFE7CE18B6F5806F51
:102D1000F5D201F8015BEEE7576C0208806C0208FF
:102D20005B6C02087C6C02081FB501AC84E80700EC
:102D3000044B94E8070003C323F8022B120C1A700B
:102D400004B010BDC422002007B50D4B0D4A0193FD
:102D50007A23032000930C490C4BFFF747FC00201B
:102D60000B4B4FF40051186000F01AF84FF4E031AB
:102D70004FF4005003B05DF804EB00F011B800BF51
:102D8000AE6C02088C6C0208A66C0208BE6C0208CD
:102D9000D0220020014B1868704700BFD0220020CD
:102DA000F8B506460D460024084F3888B5FBF0F309
:102DB000A34201D80020F8BD7B68334404FB0030F7
:102DC0001AF054FA0028F6D10134EEE7D42200209C
:102DD0007FB5194D0646082105F12800FFF760F878
:102DE000044618B995F82830FF2B10D144F241233E
:102DF0002B854323114A6B85CDE900320120104B0E
:102E0000104A1149FFF7F2FB00230124AB85AB8D7B
:102E100030460E4A0E4918F0E7FF0E4B0120019391
:102E20004C23084A00930849054B0296FFF7DEFB46
:102E3000204604B070BD00BF22390020F06C0208AB
:102E40001F6D0208CC6C0208E76C02084A390020AA
:102E50000F6D0208196D020808B5502200200649BE
:102E60001AF008FA0023054843600360C0F80730F1
:102E7000BDE80840FFF7ACBF22390020EF0E00206C
:102E800008B50B46034909680144184622F033FD92
:102E9000002008BDE40A00204278024B9A730278B1
:102EA000DA737047FA0E002037B50446074D0191DA
:102EB0008022284606491AF0E0FE224601212846D3
:102EC000019B03B0BDE830401AF0F4BEE0220020C0
:102ED000FA0E002037B50446074D0191802228469E
:102EE00006491AF0E5FE224600212846019B03B060
:102EF000BDE830401AF0DEBEE0220020FA0E0020CD
:102F0000012208B5074B1A700022074B1A700422E1
:102F1000064B1A701F22064B1A7003F0E3FC054B98
:102F2000186008BD0A0F0020833E00200B0F002010
:102F30000C0F00200423002008B500F02DF8124BE0
:102F400012498B4212D30020114B12498B4218D3E5
:102F5000FDF7A6FF186850F82240586840F8224054
:102F6000013298688242F5D30C33EAE70022F8E791
:102F70001C6844F8220001325C68A242F8D308338E
:102F8000E4E70022F8E700BF98BB0208A4BB0208F0
:102F9000A4BB0208A4BB02084FF400414FF0FF306D
:102FA000114B124A10B59A60D3F8882042F470028F
:102FB000C3F888200E4A916601F1884101F500525C
:102FC00010660C4850660220C3F8D000BFF34F8F44
:102FD000BFF36F8F08244FF440330748C0F8804197
:102FE000D36004600B6110BD00ED00E0000000083C
:102FF000009000507FFF070000E100E0014B1868DF
:10300000704700BFEC0A0020084B1B6F03F007035A
:10301000022B04D0032B05D0012B05D0FEE7044B77
:1030200018687047034BFBE7034870470080005067
:10303000EC0A0020F00A0020002D310108B5FFF74E
:10304000E3FF054B1B6FC3F303330133B0FBF3F016
:10305000024B186008BD00BF00800050E80A002045
:103060000048704700B4C404014B1868704700BFA3
:10307000F00A0020054B1860054B1B6F03F0070397
:10308000032B01D1FFF7DABF704700BFF00A002021
:103090000080005000487047002D3101014B186836
:1030A000704700BFF40A002005490A681318054854
:1030B00083428CBF4FF0FF320B601046704700BF59
:1030C000F80A0020000001202DE9F04F9A46564BE7
:1030D00085B01B7806460F461546DDF83C909DF8F6
:1030E00044B0DDF85080002B00F08D80072A00F2FC
:1030F0008C800E9B002B00F08880B9F1000F00F04F
:103100008480129BB3F5006F7FDC012802D1109BF5
:10311000002B7AD0454B03EB05131B7B002B76D09D
:10312000434C10220021684622F00CFC04EB4514AD
:103130001022002F59D13946204622F003FC43F2D9
:1031400010036380BBF1000F03D1E37843F0030366
:10315000E370374A0E9B02EB451CCCE90193129BAE
:103160006901013BC3F30A009DF84C30012E03F0C6
:1031700003034FEA836343EA001E53582D48CDF8FA
:1031800000A000EA03004EEA0003535041D113238C
:103190000CF1100ECCF80C309CE80F008EE80F00FC
:1031A0006FF00301DCF81C20109B61F39F02012FDC
:1031B000CCF81C20CCF8143003D1CCF81890CCF803
:1031C00004300027194A290102EB051342F8018057
:1031D000159A28465A60694622469F605E7301F040
:1031E000B1FE384605B0BDE8F08F0021204622F040
:1031F000A9FB4FF444736380BBF1000FA9D1E378BE
:1032000043F03003A4E70C48ECE70C48EAE70C482D
:10321000E8E7B8F1000FD4D19CF8023068F304134A
:103220008CF80230CDE700BF843E00200823002048
:10323000882300200F80FFF3028000F0018000F05F
:10324000078000F038B5124B05461B78DBB1E0B1C2
:103250001AF0DDF90F4A00231146147B54B92B6094
:1032600001251A0101EB03131D738C501AF0D5F9D7
:10327000204638BD0133082B02F11002EDD11AF0BF
:10328000CCF90548F5E70548F3E70548F1E700BF45
:10329000843E002008230020048000F0028000F01B
:1032A000018000F0154B13B51868002301908DF8CC
:1032B00004301AF0ACF9124B1C7824B11AF0ADF9B5
:1032C000104802B010BD01221A701AF0A6F90E4B78
:1032D00001A81C731C7783F82C4083F83C4083F8CA
:1032E0004C4083F85C4083F86C4083F87C400823B2
:1032F0008DF8073001F0F4FD2046E2E72F6D02085B
:10330000843E0020038000F008230020204B2DE99C
:10331000F0471F6D5A6D1F4C174010D54FF00041FC
:103320001D4A1165D868C0F304200301E35804EB7B
:1033300000125BB3BDE8F047002152681847012630
:103340000025DFF85480DFF85490374217D0236807
:10335000C8F850609BB1A168284601316268A1603D
:103360009847637B012B0AD148B909EB45131A7BB7
:1033700060F341021A731A7F60F341021A77013534
:10338000082D4FEA460604F11004DED1BDE8F087AF
:10339000000004500823002000200450882300204F
:1033A00070B5044601250B4E04B970BD94FAA4F023
:1033B000B0FA80F005FA00F306EB001224EA0304E9
:1033C0005368002BF0D0117B11B191689847EBE75F
:1033D0009847E9E78824002008B51E2001F04EFA3E
:1033E00028B14FF08042074BC3F880211A601F209C
:1033F00001F044FA28B14FF00042024BC3F880219B
:103400001A6008BD00E100E0F8B505460F46164613
:103410001AF0FDF8104B05F0FC02D3F82414002339
:10342000EC1804F00304144321FA04FC1CF0010F0F
:1034300007D00133042BF3D1FF241AF0EEF8204615
:10344000F8BDFF2CF9D00122044B03EB0413C3E9B0
:1034500001761A73F1E700BF00C0035088240020F2
:10346000074BD3F82404D3F8202403F5005310406D
:1034700000F0553020F05020C3F82004FFF790BF33
:1034800000C00350074BD3F82404D3F8202403F5DD
:103490000053104000F0AA3020F0A020C3F8200410
:1034A000FFF77EBF00C00350024B1968024B18683B
:1034B0000FF05CBF000B0020FC0A002037B5920023
:1034C00004460D46019222F097FE431C0BD060B9D2
:1034D00029462046019A22F0FEF90028044808BF38
:1034E000002003B030BD0348FBE70348F9E700BF05
:1034F00010E000F021E000F024E000F010B50446F8
:1035000022F072FE431C10D088B901F011FE234650
:1035100020F003002044984201D1002010BD53F850
:10352000042B0132F7D00348F8E70348F6E70348D5
:10353000F4E700BF0EE000F021E000F024E000F02E
:1035400008B51AF05DF8014B186008BDC82C0020C2
:10355000014B18681AF058B8C82C002038B5054639
:10356000B0B1B9B1B2B1B2F5006F13DC1AF04FF8D7
:1035700095F84C3003F0FF041BB11AF04EF80648E2
:1035800038BD012385F84C301AF047F82046F7E79C
:103590000248F5E70248F3E7032000F0012000F0BD
:1035A000022000F02DE9F04F1E46002387B080F87E
:1035B0005430109B0446436390F85C308946924631
:1035C000C663002B38D14FF4406305686B614369D3
:1035D000092B03D905F12C08443506E00BBF05F192
:1035E000200805F1240838353C3567694FF0010B98
:1035F000082F94BF00270127204619F0C0FF134B66
:103600005246CDE90273216B4346A06A04940196A9
:10361000CDF800B019F0A0FE00232A46CDE903330F
:10362000CDE901674B46E16A606ACDF800B019F058
:1036300079FE07B0BDE8F08F012BFAD1006819F0D0
:10364000DFFE256805F13C08C6E700BF41D501084B
:103650002DE9F04716460022436390F85C3004469B
:10366000894686B080F85420C663002B38D14FF4C9
:10367000406305686B614369092B03D905F12C0888
:10368000443506E00BBF05F1200805F12408383564
:103690003C3567694FF0000A082F94BF00270127C7
:1036A000204619F06CFF134B216BCDE9027304F136
:1036B00038024346A06A04940196CDF800A019F0A0
:1036C0004BFE01232A460093CDE903AA4B46CDE9E0
:1036D0000167E16A606A19F025FE06B0BDE8F0876F
:1036E000012BFAD1006819F08BFE256805F13C0822
:1036F000C6E700BF41D5010801292DE9F84321D8CB
:103700001F4B204E1C68204FDFF88080803C14F156
:10371000800F01D1BDE8F883D4F800900521B145B0
:103720000CBF3D464546484619F0BAFF19F068FF00
:103730002B6843F018032B6019F066FFD4F8804023
:10374000803CE4E702390129E4D80D4B0D4E1C689A
:103750000D4FDFF83880803C14F1800FDAD02368F9
:10376000B3420CBF3D46454619F04AFF2B6823F093
:1037700018032B6019F048FFD4F88040803CEBE739
:103780007C2D00200000045A8CC403506CC40350EC
:103790002DE9F0436A4BD1F800908FB0994505466A
:1037A0000C460DF1180840F0E5804746654ECDF80F
:1037B00014800FCE0FC796E80F00103687E80F0071
:1037C0000FCE01AF0FC7002D00F0B780842200217B
:1037D000284622F0B7F823684B4510D05A4E5B4B71
:1037E0001B681BB95A495B4803F0E4FA574805F1D6
:1037F000800119F093FD30460FB0BDE8F0835422EC
:103800002B6001232A6527464FF48812DFF860E118
:1038100085F85C302E1DC5E90BE20FCF0FC697E887
:103820000F0086E80F00637E012B08BF8DF81D3066
:10383000A37E23B1012B69D104238DF81230227E9F
:10384000E368012A69D1444A93429CBF05238DF85D
:10385000353000238DF81130404B01213A2003937D
:1038600000F066FB0121286D00F062FB2369DA1F7E
:10387000092AB3D8063B8DF81030237E2BB9E37E9E
:10388000B3FA83F35B098DF81C300121284619F047
:10389000C2FD06460028A2D1237A227942EA0342D9
:1038A0002F4BC3F8A424617A627942EA0142C3F83B
:1038B0009C24A17AA27942EA0142C3F8A024E27EC4
:1038C000002A40F03181E17AE27942EA0142C3F80C
:1038D00090241D22C3F88C24206801A901F0C6F9A8
:1038E00019F095FE1F4B1A78DAB901221A7019F0F7
:1038F00094FE03F05DFEFFF7D5FC002105F12400E6
:10390000FFF7A0FC014678B1174E68E7022B94D070
:10391000032B7FF463AF06238FE700228DF834205A
:103920009BE719F07AFEE6E705F12800FFF78AFC2D
:10393000064600283FF453AFE6E70C4E4FE700BFC2
:103940000000045A586D0208022000F07C2D00206F
:10395000200B0020802D00203F4B4C0040420F00E8
:1039600000C00350853E0020092000F0012000F037
:103970000100110046466D4F0FCF0FC697E80700B4
:1039800086E80700002D00F0CD8084220021284623
:1039900021F0D8FF2368664A934240F090802822A5
:1039A0002A654FF480220026624FC5E90B722F462C
:1039B000A44647F8043BBCE80F000FC79CE80F0083
:1039C00087E80F00637E012B08BF8DF82630A37EA9
:1039D00033B1012B40F081804FF40073ADF82830F3
:1039E000237E0121012B03BF00238DF825304FF4E6
:1039F000E133E3683A20089300F09AFA0121286D38
:103A000000F096FA23691A1F0C2A5BD8033B414643
:103A100020688DF8243001F0C3FBA36923F47F03F1
:103A200023F47F4323B92A68936843F48033936077
:103A3000227A2379607943EA0243627AA17940EAE3
:103A40000240A27A94F81BC041EA02413A4A770147
:103A50003A4436B2BCF1000F49D11D277601C2F8B5
:103A60003476C2F84C3606F1A04303F57033C3F840
:103A70004406C3F84816E17AE37943EA0143C2F801
:103A800038360121284619F0C6FC064600287FF486
:103A9000B2AE19F0BCFD294B1A78BABB01221A70DC
:103AA00019F0BBFD03F084FDFFF7FCFB002105F1DD
:103AB0002400FFF7C7FB014658B3214E9BE6214A7D
:103AC000934201D0204E96E629222A654FF4A02287
:103AD0001E480126C5E90B0269E7022B02D14FF40B
:103AE00080737BE7032BEDD14FF4407376E71C2402
:103AF0007601C2F83446C2F84C3606F1A04303F50D
:103B00007033C3F84406C3F84816BAE719F085FDC8
:103B1000CAE705F12800FFF795FB064600283FF4A9
:103B20006AAECAE70A4E66E61C22D3E68C6D02082E
:103B300000C005500200040000C00350853E002074
:103B4000092000F000000650022000F002000500ED
:103B5000012000F07FB51546027F0446012A0E467B
:103B600013D01A460393FFF7F9FC60B97DB1094AF7
:103B700031462046039B00922A46FFF713FD20465C
:103B800019F0B4FCA06C04B070BD0348FBE7034817
:103B9000F9E700BFF7D30108082000F0022000F089
:103BA00070B5037F0446012B0D4616460DD0FFF776
:103BB000D5FC48B9324629462046054BFFF748FD5B
:103BC000204619F093FCA06C70BD0248FCE700BFD2
:103BD000F7D30108082000F0044BD3F88420D20664
:103BE000FBD4D3F88400C0F381107047004000502C
:103BF00038B5104B0546D3F820310C4603F00303CB
:103C0000022B0BD0032B0DD0012B0FD1FFF7F6F9B0
:103C1000052305B1286004B1236038BDFFF724FAFD
:103C20000323F6E7FFF736FA0223F2E70123002029
:103C3000EFE700BF0080005073B50D4600210E4B2A
:103C40000191D3F88041064604F00304012C09D009
:103C5000022C0CD00C460EB1019B336005B12C60D8
:103C600002B070BD01A8FFF7C3FF0F24F3E7FFF711
:103C700011FA0190EFE700BF0080005038B5184BF3
:103C80000546D3F824010C4600F00700062805D8A5
:103C9000DFE800F0230B131B1F0F1700002318464B
:103CA00005B1286004B1236038BDFFF7A7F90523EB
:103CB000F6E7FFF7A3F90623F2E7FFF7D5F90323A9
:103CC000EEE7FFF7D1F90423EAE7FFF7E3F9022370
:103CD000E6E719F018FB0723E2E70123E0E700BF5E
:103CE0000080005038B5104B0546D3F840310C46E3
:103CF00003F00303022B0BD0032B0DD0012B0FD1AC
:103D000019F003FB092305B1286004B1236038BD15
:103D1000FFF7C4F90823F6E719F0FAFA0B23F2E7E4
:103D200001230020EFE700BF0080005037B50C46AC
:103D30000021124B0191D3F88432054603F00303AE
:103D4000022B0ED0032B11D0012B14D101A8FFF7A9
:103D50004FFF0F230DB1019A2A6004B1236003B015
:103D600030BD01A8FFF7BEFF1023F3E7FFF792F97C
:103D700002230190EEE70123ECE700BF0080005032
:103D800038B5144B0546D3F800020C4600F0070086
:103D9000042804D8DFE800F01B0A0E1216000023E6
:103DA000184605B1286004B1236038BD19F0ADFA9A
:103DB0000923F6E7FFF772F90823F2E719F0A8FAEA
:103DC0000B23EEE7FFF73AF90E23800AE9E7012318
:103DD000E7E700BF0080005038B5104B0546D3F828
:103DE00040320C4603F00303022B0BD0032B0DD003
:103DF000012B0FD119F089FA092305B1286004B10C
:103E0000236038BDFFF74AF90823F6E719F080FA76
:103E10000B23F2E700231846EFE700BF00800050B5
:103E200038B5104B0546D3F860310C4603F0030358
:103E3000022B0BD0032B0DD0012B0FD119F065FAFB
:103E4000092305B1286004B1236038BDFFF726F9C6
:103E50000823F6E719F05CFA0B23F2E701230020B0
:103E6000EFE700BF0080005038B50C46054619F05A
:103E7000C7FB064B9A6A82EA040101EA0504544032
:103E80009C62BDE8384019F0BFBB00BF00C00050C5
:103E9000B0F5207F1FD009D8B0F5007F15D003D82A
:103EA00068B1B0F5C07F0AD000200CE0B0F5607FAB
:103EB000FAD10B4BD3F88000C0F3011003E0084B9C
:103EC000186FC0F3033001307047054BD3F89000F2
:103ED000C0F30460F7E7024B186FC0F38020F2E7ED
:103EE000008000504FF400320E4B014610B5002008
:103EF0009A66FFF7CDFF41F6713248430A490B4BF2
:103F000088428CBF4FF480100020DC69DA635A6865
:103F100022F4401202435A60E20344BF0022DA63F3
:103F200010BD00BF00900050005A62020000035014
:103F3000420910B510D0012A10D00B4B0B4C022AAD
:103F400018BF234600F01F0051B103F58053012232
:103F500002FA00F0186010BD1346F3E7044BF1E7D6
:103F600003F50053F3E700BF688000506082005003
:103F7000648000501FB5002280280446019200F0A2
:103F80000C8100F2BF803F2836D9A0F14D04142CDB
:103F900002D9019804B010BD142CFAD801A353F82B
:103FA00024F000BF23410008933F0008234100088C
:103FB0002341000823410008E7410008414100086F
:103FC000F1410008933F0008933F0008933F000829
:103FD000933F0008933F0008933F0008933F000879
:103FE0003B420008933F0008933F0008933F0008BE
:103FF00023410008234100083F28CAD801A353F8F1
:1040000020F000BF23410008933F0008933F0008C1
:10401000933F0008933F0008933F0008933F000838
:10402000933F0008933F0008933F0008933F000828
:10403000933F0008933F0008933F0008933F000818
:10404000933F0008933F0008933F0008933F000808
:10405000933F0008933F0008933F0008933F0008F8
:10406000933F0008933F0008933F0008933F0008E8
:10407000933F0008933F0008933F0008933F0008D8
:10408000933F000823410008B54100082341000880
:10409000B5410008E7410008E7410008E741000892
:1040A000E7410008B5410008B5410008FB410008A0
:1040B00041410008274200089141000841410008A1
:1040C000B5410008B5410008B5410008933F00081C
:1040D000933F0008933F0008933F0008933F000878
:1040E000933F0008933F000873410008B541000862
:1040F000B5410008B54100083B42000831420008C4
:10410000B5410008B0F5806F6DD024D8B0F5007FC0
:1041100047D009D8B0F5807F74D0B0F5C07F7FF468
:1041200038AFFEF78BFF3AE0B0F5607F48D03FF63E
:1041300030AFB0F5207F3DD0B0F5407F7FF429AFA0
:10414000FEF77CFF02464FF42070FFF7A1FEB2FBA2
:10415000F0F0400823E0B0F5C06F64D00ED8B0F5A1
:10416000A06F45D0B0F5B06F47D0B0F5906F7FF439
:1041700010AF002101A8FFF781FD0AE7B0F5E06F5D
:1041800056D0B0F5F06F58D0B0F5D06F7FF401AFD6
:10419000002101A8FFF7F4FDFBE6FEF735FF0190D3
:1041A000F7E6FEF731FF02462046FFF771FEB2FB4D
:1041B000F0F0F4E7FEF742FF02464FF42070F4E718
:1041C000204BD3F8803003F00303012B04D0022BE3
:1041D00006D04FF46070E8E7FEF716FF0246F8E7F6
:1041E000FEF70CFFFAE7002101A8FFF701FDD0E67A
:1041F000002101A8FFF79AFDCBE6002101A8FFF7F7
:104200001BFDC6E64FF0E02302921B695B0705D554
:10421000FEF714FF0290029B0193BAE603A902A8DD
:10422000FFF760FDF7E7002101A8FFF75BFDB0E6AF
:10423000002101A8FFF7D0FDABE6002101A8FFF7A0
:10424000EFFDA6E60080005008B58020FFF792FE43
:10425000034B98429EBF4FF48032024B1A6708BD51
:10426000005A620200A000501FB50023B0F5607F25
:10427000019300F0A88036D8522800F08B8016D821
:104280002D280BD823280ED9243809280BD8DFE88D
:1042900000F0818181810A0A7C0A438B3D280ED07F
:1042A0003E2800F0A680019805B05DF804FB802848
:1042B00053D009D8542800F097805C28F3D100200F
:1042C00001A9FFF7ADFDEEE7B0F5807FEBD10293DA
:1042D0004FF0E0231B695B0761D5FEF7AFFE0C23AF
:1042E0000393039B4DE0B0F5D06F5DD019D8B0F5C6
:1042F000A06F79D00AD8B0F5806F4BD0B0F5906F31
:10430000D1D1002001A9FFF7B9FCCCE7B0F5B06F1F
:104310003BD0B0F5C06FC6D1002001A9FFF7E2FC89
:10432000C1E7B0F5006FECD005D8B0F5E06F60D014
:10433000B0F5F06FC2E7B0F5086FB4D12F4BD3F8EA
:10434000003103F00303022B33D0032B35D0012BB4
:1043500037D1FEF789FE032313E0284B1B6F03F0D0
:104360000703013B032B9ED801A252F823F000BFA4
:10437000874300088143000857430008BF430008F3
:10438000052301938FE70223FBE7002001A9FFF734
:1043900053FC88E7002001A9FFF72AFC83E703A963
:1043A00002A8FFF79FFC9CE7002001A9FFF7E8FCAB
:1043B00079E7FEF773FE0823E3E718F0A4FF07236D
:1043C000DFE70123DDE70D4AD2F8802002F0030287
:1043D000012A05D0022AD4D1FEF710FE0623D0E729
:1043E000FEF712FE0D23CCE7002001A9FFF79EFC8B
:1043F00059E7002001A9FFF7EFFC54E700800050C7
:104400004FF40022034B5A66012203F580439A625F
:10441000704700BF0090005008B5FFF725FF08283F
:1044200011D00938012811D84FF40012094B4FF66A
:10443000FF705A6603F5D8335B6A13F0010F18BF9B
:104440004FF4FA7008BD044B1888FBE74FF6FF7075
:10445000F8E700BF00900050DC0E002070B5044665
:104460008020FFF701FF032800F082804FF4002234
:10447000444B02215A6645F60E03434AC2F8803087
:10448000424B9962012103F580539962936DD903E0
:10449000FCD4D4E900131B0543EA0163E17B94F8E3
:1044A00022500B43217B94F8236043EA0143617B54
:1044B00043EA0133A17B43EA811313619169D4E993
:1044C00004031B0643EA806301F000410B43A17E15
:1044D000E07E0B43217E43EA0143617E43EA0123F0
:1044E0009361E369126A002B0CBF0021082122F0BE
:1044F0000D0242EA030242EA8002234B42EA010231
:104500001A6294F820204FEA421232D1986A94F845
:10451000211020F0330042EA0112024342F001026E
:104520009A621B4A996D32EA0101FBD102221749B6
:104530008A621A659A6D5200FCD41869A26820F448
:10454000700040EA02504FF0004218610F4B9A6130
:104550001DB9022203F580539A6216B901220D4B50
:104560009A6294F824301BB1074B0B4AC3F88020A1
:1045700070BD996A21F0330131430A4342EA450292
:10458000EEE700BF0090005000C0005000D0005087
:104590000300014000E00050F1A7FFFF1E4B13B5E0
:1045A000996A9A6D12F4803F18BF01241B4A18BF04
:1045B0009462022494629B6DDB0303D5164A936DCB
:1045C0009C07FCD50222154B134C1A65A36D5B00AA
:1045D000FCD4134BA26993F9003022F47F02034408
:1045E000000222F47F4280B283F30803104340EAC2
:1045F0000340A06102200191FFF736FCA36D0199F1
:1046000013F4803F05D0012002B0BDE81040FFF751
:104610002BBC02B010BD00BF00C0005000D0005045
:10462000863E0020014B93F900007047863E002033
:1046300001221548154B816A9A62826D02F00302CD
:10464000032AFAD102229A621A650F4B9A6D520020
:10465000FCD40F4A986D32EA0000FBD101220B4BCB
:104660001A65A3F580539A6D9007FCD49A6D920752
:10467000FCD50222054B1A65034A936D9B07FCD5B6
:104680000320FFF7F1BB00BF00C0005000D0005076
:1046900003000100F0B5D0E901434FF480061A4A47
:1046A0004178057856664FF4D156022702F5B832A4
:1046B0005662164E4F2977604FF0010728BF4F21F1
:1046C00006F5805677601669F603FCD441EA0521A9
:1046D00051611B01417B43EA04230B43017B43EA05
:1046E00041039360C37B817B1B0143EA4113417CFF
:1046F0000B43017C43EA41035360837C13B16FF4A5
:10470000D1535362F0BD00BF009000500010025022
:10471000014B1880704700BFDC0E0020014B188051
:10472000704700BFDA0E0020B0F5207F10B50C46B0
:1047300057D008D8B0F5007F48D003D830B3B0F5D3
:10474000C07F23D010BDB0F5607FFBD129492A4836
:10475000D1F8FC2012F080721EBFD1F8FC3023F09B
:104760008073C1F8FC30D0F88030611E23F0300433
:1047700044EA0114C0F88040002AE3D01D4AD2F870
:10478000FC3043F08073C2F8FC30DBE718F010FF18
:1047900018F01CFF4FF48031184B174A1967136F3C
:1047A000611E23F4704444EA01341467FEF746FCAA
:1047B0000446FFF711FAC0F10201204618F000FF8D
:1047C00000F02EF8BDE81040FFF73EBD0A4A01395F
:1047D000D2F8903023F0F85444EA0164C2F89040D3
:1047E000B0E7054B013C196F21F4806141EA842454
:1047F0001C67A7E700ED00E000800050009000502B
:1048000008B50121022000F0B3F818F0D1FE18F02D
:10481000DDFE4FF48032014B1A6708BD0090005056
:1048200008B54FF4C070FFF7A5FBBDE80840044988
:1048300088428CBF022101214FF42070FFF774BF22
:1048400080F0FA020028ABBF00F16040054B00F594
:10485000614000F00F00ACBF90F80003185C000945
:10486000704700BF14ED00E0034B5868C0F3080028
:10487000003818BF0120704700ED00E0054B4209E9
:1048800053F8223000F01F0023FA00F0C04300F07C
:104890000100704700E100E0014608B5EFF3108326
:1048A000DB0702D50122104608BDFFF7E7FF0246ED
:1048B0000028F7D10846FFF7C5FF0146EFF3118343
:1048C00013B1B0EB131FEDD2074B5B68C3F30803C2
:1048D000002BE8D0103B58B2FFF7B4FF88428CBFE2
:1048E00000220122DFE700BF00ED00E0044A41782A
:1048F000536F23F4407343EA01235367704700BFAB
:10490000004000500A4A10B51369044643F00403FE
:10491000136102F06DFC18F083FE30BF18F081FEC9
:1049200002F088FC1CB9BDE81040FEF787BB10BD43
:1049300000ED00E0084A10B51369044643F0040393
:10494000136102F055FC30BF02F074FC1CB9BDE8E5
:104950001040FEF773BB10BD00ED00E0034A017983
:10496000D36E23F030030B43D366704700400050F2
:10497000F8B504461C4BD3F88420D106FBD4D3F8F9
:104980008430C3F381139C422CD0FEF73DFB012CF5
:10499000064602D1214618F013FE18F031FE4FF002
:1049A0000072124B07465A66204618F03DFE4FF43F
:1049B00080630D4D621E93402B676B6E9A0103D48A
:1049C000D5F884309B060AD5384618F01DFE022C17
:1049D00008D13046BDE8F840002118F0F1BDD5F807
:1049E0008430EAE7F8BD00BF00400050006000508E
:1049F00007B518B90191FEF707FB0199064B1B7823
:104A000043B1064B984205D8012003B05DF804EB92
:104A1000FFF7AEBF0220F8E7873E0020005A62028F
:104A20000278034B012100201A70FFF7E1BF00BF9D
:104A3000873E00204FF0004238B5254B5A664AF6B3
:104A4000CD33244AD2F89440C2F8903004F00104E7
:104A500048BB136C13F00103FBD15268D20709D491
:104A600000251CB11B4B1C4AC3F8902020F0F0FA23
:104A7000284638BD0121194A51601649184AC86BA9
:104A8000C50705D4934201D10725EAE70133F6E7CC
:104A90009342E5D1F8E70131D36B13F0080305D059
:104AA0008142F8D1F0E700210D48F5E78142EBD0D3
:104AB00020210A4A51630121A2F580525160054923
:104AC000074A486B8006E3D49342DDD00133F8E710
:104AD00000900050004009503254FFFF0060095020
:104AE00040420F004FF0004238B5184B184C5A6640
:104AF0004AF6CD33D4F89450C4F890304378154A30
:104B00005B0043F0010305F00105D363236CDB0771
:104B1000FCD46368827823F0700343EA0213636075
:104B2000C278437943EA0223E3600279837943EA56
:104B3000022323610078FFF77DFF15B1064BC4F80F
:104B4000903020F085FA012038BD00BF0090005061
:104B500000400950004000503254FFFF10B518F0DB
:104B600068FD202341F2020203610023C3608360D9
:104B700042614FF4A02207498361426200F500526E
:104B8000C36103628362C36243630365D1640363E9
:104B900010BD00BFFF3F0D03F8B50546144639B9F7
:104BA000304B984214BF08465420FFF7E3F9014602
:104BB000AB68D8072CD5B1FBF4F16E684C1E16F02B
:104BC000010623D02821284618F02FFDAB6C9A0748
:104BD00018D1AB6CDB0717D4AB6C13F0020F0CBF12
:104BE00000270627284618F024FD286920F07F407A
:104BF00040EA04642C61AEB139462846BDE8F8406D
:104C000018F04EBD0527EDE70927EBE73746ECE73F
:104C10006B68A86800F0E00040281BD003D8D8B12A
:104C200020281BD0F8BD60281AD08028FAD1012393
:104C300004FB03F24901B1FBF2F10B4A203928468B
:104C400002EAC102012118F0F0FC2A63BDE8F84035
:104C500018F0EBBC0623EBE71023E9E70823E7E7AE
:104C60000423E5E70000045AF8FF7F00436870B5AD
:104C700004460D460E691BB140F6FF7118F0D5FCD5
:104C80002046FFF76BFF22696B7BA97B22F087022E
:104C90000B43134343F08003236116B32A6923694E
:104CA000117823F0F8030B43117F43EAC113117904
:104CB00043EA4113517A43EA0113D17B43EA81135A
:104CC0002361E168D2E9053021F0F04121F470213F
:104CD00003430B43117B527B43EA812343EAC233F4
:104CE000E360A368EA7B23F00303134343F001036B
:104CF000A3602EB32A69A168538803F4C0430B4311
:104D0000A3605179A36843EA8123A3609379D079A2
:104D1000616A1B01000203F0700300F4E06021F4FB
:104D2000772121F4EE6103430B43117A527F09038B
:104D300001F4E04112040B4302F470221343636256
:104D400063692A7B23F00F0313436361B6B12B69B8
:104D50005A89A2615A7B3AB1134A944201BF9A7BA5
:104D6000124902F00F024A66DA7B3AB10E4A9442C7
:104D700001BF1B7C0D4A03F00F031366D5E9011236
:104D80002046FFF709FF0521204618F06CFC28217A
:104D900018F04BFC2B78A36318F047FCA36CDB43A3
:104DA00013F4405FFAD170BD0000045A0090035024
:104DB000072AF7B501F0030614461F464FF003011A
:104DC0002CD89500A94000FA05F21C48019118F072
:104DD0006CFC01991A4806FA05F218F066FC194BAA
:104DE00019499DF82000002F08BF1946012303FA36
:104DF00004F40C60154B1649002808BF0B461C60D4
:104E0000144B9DF82400C3F820441031A3F6DC3382
:104E1000002808BF0B461C6003B0F0BDA2F10805D6
:104E2000AD00A94000FA05F20B48019118F03DFCD5
:104E300001990A4806FA05F2CFE700BF00C4035003
:104E400008C4035010E4035010D4035014D403508A
:104E500014E4035000E0035004C403500CC4035096
:104E60002DE9F04105460F461E4690464AB1012302
:104E70003022194C8B4002FB00443EB304F58254AF
:104E800023600F21072F05EB450388BFA7F1080416
:104E90004FEA0313114895BFBC00A40004330C3340
:104EA00008FA04F2A140184418F0FFFBB8F1000F13
:104EB0000AD101213020084A01FA07F700FB052238
:104EC0003EB102F582521760BDE8F08104F501544D
:104ED000D6E702F50152F6E700C0035030C0035098
:104EE00010B5012104462020FFF722F801212120DE
:104EF000FFF71EF80122114B5A60227812069A60C1
:104F00006178A27842EA01429A61FF229A62002205
:104F10009A631A644FF000425A654FF0FF324FF027
:104F2000806103F500531A65054AC2F88011E378E1
:104F30001B01DBB282F81A33116010BD000004506F
:104F400000E100E02DE9F0410125C3B2D1F8008075
:104F500091F80AC00F7B91F80DE09D400C46CB7A8A
:104F60001C491D4E0D65810001F1A04101F588210C
:104F7000C1F80480302101FB00601B0543EA0C43AB
:104F800043EA475322F00302C0F860E0C3650267BA
:104F900018F03DFB736D2B437365237A13B1336CAB
:104FA0002B433364637A13B1B36B2B43B36322791E
:104FB000A37943EA0243074A93616179E37943EABB
:104FC000014306498B61044B55639D64BDE8F04184
:104FD00018F023BB002004500000045000100450BF
:104FE0004FF40032054B9A6641F6713203F51C33DB
:104FF000DA63012203F50053DA6070470090005035
:1050000041F671320121064BDA6303F50052D1609B
:105010000022DA634FF40032A3F518339A66704722
:1050200000000350CB784A7810B55B010C7843EA56
:1050300082030A79234343EA02130C22424302F11A
:10504000B0421363012C02BF8A78024B43F8202040
:1050500010BD00BFEC80035008B54FF0B0435A6854
:1050600002B960B15B680BB118F030FB4FF0B04192
:1050700030B10120074B586018F028FBC86008BD0C
:1050800018F024FB0223CB6018F020FB0122024B16
:105090005A60F4E700100058002000584FF0B04369
:1050A0005B6870B50BB118F011FB0121104B45780E
:1050B000596083780679002BC37814BF022400243A
:1050C000002B14BF042200224379DB0043EA0613BD
:1050D0002B43234313434FF0B0429360054B596079
:1050E0000378002B14BF0B460223D36070BD00BFB2
:1050F00000200058001000584FF48032084B5A66C8
:1051000003F5E6235B69C3F3461203F00F010A437C
:105110004280C3F30342C3F303334270037070470A
:1051200000900050014B986CD96C70470080E00FE4
:105130000120034B9B680A3303F01F03984070471C
:105140000080E00F012200F5805310B55A6040F650
:10515000AA6341F20502436100230E498360C365DF
:10516000C26000F500520361C361C36491640A49DF
:105170008365884202D0094CA04207D1884203656A
:1051800002D0064B984201D10023436501235360AE
:1051900010BD00BFFFFF010000C005500000065019
:1051A00038B50D46FFF7CEFF0122A97B00F58053ED
:1051B0005A602A8A8368002914BF4FF48061002155
:1051C00042F0010213432A7D0B43002A14BF4FF023
:1051D0000052002283608368044613438360AB7CE3
:1051E0005BB11D4AEB7C90422DD1A2F51032C2F882
:1051F0009031E36D43F08003E3652B7B2046D5E9D6
:10520000011243F48053E36018F068FA6B7B0BB132
:10521000102363616B7D1BB1A36843F48033A360EB
:10522000AB7D1BB1A36843F40043A360EB7D2A7EF2
:105230001B07120503F0E04302F4E0021343A365E9
:105240002B78636138BD054A904204BFA2F5203235
:10525000C2F8AC31CDE700BF00C0055000000650D9
:1052600038B50446054D1FF019FF0FCC0FC594E863
:10527000030085E80300002038BD00BF882D002012
:1052800047F6FF739A42F0B566D0012966D8344DCF
:10529000CF0015F8313005EBC100012B847813D114
:1052A0000025C3781B1B9D4202D3E018C0B2F0BD9D
:1052B000591B4668A3EB510136F911609642D4BFE1
:1052C0000D4601F1FF33EEE740680028EFD0B0F95A
:1052D0000030934204DBB0F902309342B8BF13466A
:1052E00082883D44FF2A19BFC8214FF0280CB0F92D
:1052F0000610B0F908C0A1EB03020CBF012600267E
:1053000092FBFCF26D78324412B2954201DD002A24
:1053100001DA6A1E12B24FF47A7700EBC206F18806
:10532000B668013213FB016112B221EAE1715C310E
:105330009542B1FBF7F104DD00EBC206B6888E4260
:10534000EBD200EBC20232F8040C884228BF0846B8
:10535000A04238BF2046A9E7FF20A8E70020A6E723
:10536000882D00200129F0B553D82B4800EBC1044B
:1053700010F83110636801290FD1E078A4789042C9
:1053800094BFC4EB0001C4EB0201001BCAB282420D
:10539000C8BF002233F91200F0BD002B39D0A1782C
:1053A000914202D3B3F90200F6E7E178B3F90000C5
:1053B0009142F1D999886478A1F1FF06013C7142CC
:1053C00003F10405E4B2714103F10C071FFA82FCFA
:1053D000CEB2B44216D805EBC1014FF47A756A43D8
:1053E000B1F902404968521A04EBD47102EB610230
:1053F00092FBF4F29042CFDBB3F902009042CBDC97
:1054000010B2C9E737F831E04E1CE645E3D3314628
:10541000DEE70248C0E700BF882D00200080FFFFC4
:1054200008B50448FFF71CFFBDE8084001201FF045
:1054300039BE00BFA86D020800487047DE0E00208C
:105440007FB51422002101A820F07CFA044B01A9A9
:105450004FF0FF3002931FF05BFE07B05DF804FBD6
:10546000006A180082B06B4683E80300034A93E8A1
:10547000030082E8030002B0704700BFA02D0020A7
:105480001B0603F0706300F00F000902034301F4F0
:105490007061120402F470220B431343014A13603B
:1054A000704700BF0020025C2DE9F04717460C460C
:1054B00088B029B10139B1F5806F01D301263FE0F1
:1054C000244AD66816F48036FBD140EA01212238FE
:1054D000112805D8204DC540ED4315F0010533D006
:1054E000012541F000413A0702F08052134319436D
:1054F000184B596025BB194A03AB10685168DFF897
:1055000060A003C30223CDE906350DF10C090DF1AE
:105510001408CDF8149098E80E00DAE90005A847C1
:105520000221484618F0D6FA0028F2D00F22E31CD8
:10553000009223F0030398E8070047B118F0EAF857
:10554000304608B0BDE8F08741F00341CBE718F0E2
:1055500044F9F5E70020025C014802002C6E0208C5
:10556000A02D00200122054B9A60DA68D203FCD4FA
:10557000D86820F00F000004000C70470020025C87
:10558000014B1868704700BF0040025C014B58682F
:10559000704700BF0010025C014B186B704700BFE2
:1055A0000010025C014B1868704700BF0010025CDD
:1055B000014B9860704700BF0010025C014B1864FB
:1055C000704700BF0010025C014B5864704700BF79
:1055D0000010025C014B5863704700BF0010025C72
:1055E0000022014B1A6070470010025C024A1368E7
:1055F00043F00103136070470010025C43F20402A1
:10560000014B1A60704700BF0010025C024A136829
:1056100043F03003136070470010025C044B1A68BB
:1056200042F480721A601A6822F480721A6070471D
:105630000010025C024A136843F4806313607047F1
:105640000010025C034A136823F4702343EA00400D
:10565000106070470010025C044B1A6902605A69BE
:1056600042609A698260DB69C36070470010025C27
:105670000268044B1A6142685A6182689A61C26882
:10568000DA6170470010025C024B1A6BD207FCD43F
:10569000186270470010025C024B186B00F00E009D
:1056A000704700BF0010025C82B01FB507930A9BD1
:1056B00004AC8B4228BF0B4604E907001048D10018
:1056C000079948BF03330160099948BF23F00303DA
:1056D00023F0704301F0E041194341F00051816033
:1056E000002102F0E042019C134343F00053C160EB
:1056F00004618361416304B0BDE8104002B07047AB
:105700000000025C3F22034B1A631022DA6103227D
:105710009A6370470000025C024AD36B9B07FCD47B
:10572000704700BF0000025C034B986A10F0240031
:1057300018BF0420704700BF0000025C08B5FFF7E7
:10574000F3FF064BDB6B23F47F4323F0EF030343AC
:105750001EBF0122024BC3F8FC2F08BD0000025CF3
:1057600000F0FF3F032208B5054B186019615A632A
:10577000FFF7C8FFFFF7D0FFBDE80840FFF7DEBF27
:105780000000025C42680346182A10B50AD0202A9D
:105790001DD0102A2BD1174AD2F80424D4010AD4E0
:1057A000012013E0134AD2F804249001F8D50A68C6
:1057B00042F008020A6010481A6882424FF0000066
:1057C0000ED10A6842F040020A60586010BD094AD2
:1057D000D2F804245201E3D50A6842F00402E9E752
:1057E000064CA242F2D10A6842F08002ECE70720A0
:1057F000ECE700BF0000025C883E0020893E0020EC
:105800000B4607B50749D1F80414C90708D500218C
:1058100000920246084600F043F803B05DF804FB2E
:105820000120FAE70000025C0B4607B50749D1F8F2
:105830000414C90708D5009201210246002000F097
:105840002FF803B05DF804FB0120FAE70000025CCA
:1058500013B5084CD4F80444E40508D50093134666
:105860000A460146002000F045F802B010BD0120B4
:10587000FBE700BF0000025C13B5084CD4F80444F9
:10588000E40508D5009313460A460146002000F0BF
:1058900055F802B010BD0120FBE700BF0000025C1C
:1058A000F0B51C465B6815468DB01A07129E1AD1DA
:1058B000CBB17268934216D10C4B0D4A53F821704C
:1058C00009AB07CA83E807001A462946CDE9053324
:1058D000CDE90333CDE90163009447F4807018F0FB
:1058E0001DF80DB0F0BD0720FBE700BF446E0208B5
:1058F000386E0208F0B516465A688DB0102A0D466B
:10590000129F15D17A68102A12D10A4A09AC07CA27
:1059100084E8070022462946CDE90547CDE903443E
:10592000CDE901440448009617F0F8FF0DB0F0BD32
:105930000720FBE7386E020830000100F0B516467C
:105940005A688DB0102A0D46129F15D17A68102A18
:1059500012D10A4A09AC07CA84E807002246294640
:10596000CDE90574CDE90344CDE90144044800962E
:1059700017F0D4FF0DB0F0BD0720FBE7386E02082A
:105980001000010070B598B0002843D02C4C08AD31
:105990000FCC0FC50FCC0FC50FCC0FC594E80F006F
:1059A00085E80F006D4604AE04F1100320340FCBE0
:1059B00085E80F0094E80F0086E80F00FFF72EFE41
:1059C0000420FFF73FFEFFF719FE3046FFF750FEB9
:1059D000002408AE56F8040B0134FFF755FE102CD6
:1059E000F8D1FFF7D3FD0328FBD90024FFF7F8FD1A
:1059F0002646FFF7C5FD55F8043B01365840042EF6
:105A000044EA0004F5D12CB1012206200D4B1A7096
:105A100018B070BDFFF702FE0820FFF7C9FD002097
:105A2000FFF7CCFD0720FFF7CFFD4FF40070FFF725
:105A3000D1FD0820FFF706FEFFF7D8FD0020E7E7BD
:105A4000206F02088B3E002008B5FFF7E7FD01221A
:105A5000014B1A7008BD00BF8A3E002030B589B0E6
:105A600005AC84E80700FFF797FDC30501D5FFF7F4
:105A7000EBFF0A4D2B781BB118F0C3F800232B70F5
:105A8000074B069AD3E901018DE8030002921B68D7
:105A900094E8070018F031F809B030BD8A3E0020C4
:105AA000806F02081FB518F0ACF8044630B101222F
:105AB00006240D4B1A70204604B010BDFFF760FDA0
:105AC0000090FFF75DFD0190FFF75AFD0290FFF790
:105AD00057FD03906846FFF7CBFDFFF7B5FFFFF7D3
