S01800004E6577474E5F325F4546523332424732372E733337F9
S31508000000C00A0020E9490008E1EC0108E1EC010812
S31508000010D1FA0108E1EC0108E1EC0108E1EC01087C
S31508000020E1EC0108E1EC0108E1EC0108E1EC01086A
S31508000030E1EC0108E1EC010877E50108E1EC0108CB
S31508000040E1EC0108E1EC0108E1EC0108E1EC01084A
S31508000050E1EC0108E1EC0108E1EC0108E1EC01083A
S31508000060E1EC0108E1EC0108E1EC0108E1EC01082A
S31508000070E1EC0108E1EC0108E1EC0108F195000862
S31508000080E1EC0108E1EC0108E1EC0108E1EC01080A
S31508000090E1EC0108E1EC0108E1EC0108E1EC0108FA
S315080000A0E1EC0108E1EC0108BD4D0008E1EC0108AE
S315080000B0E1EC0108E1EC0108354F0008114F000892
S315080000C0E1EC0108E1EC010815B00108E1EC0108D2
S315080000D009BA0108C9700208C5700208FDB101080D
S315080000E0D5700208CD700208E1B90108D17002087E
S315080000F049BA010855940108B5BA010829960108B4
S31508000100E1EC0108E1EC0108E1EC0108E1EC010889
S31508000110E1EC0108E1EC0108E1EC0108E1EC010879
S31508000120E1EC0108E1EC0108E1EC0108E1EC010869
S31508000130E1EC0108E1EC0108E1EC0108E1EC010859
S31508000140E1EC0108E1EC0108E1EC0108000000001F
S31508000150013800D0FCE7704713B5044610B90020F3
S3150800016002B010BD012310481A4601A91EF05EFD13
S315080001700028F4D001981BF059FE00224FF07C535A
S315080001801BF0CEFE06A3D3E900231BF0C9FE00220E
S31508000190064B1BF0C5FEC4E900010120E0E700BFDD
S315080001A0A4703D0AD7A3F23FA821002000005940B9
S315080001B010B52DED028B164B9FED168A1C78002381
S315080001C0154AD9B28C4215D8F0EEC87A17EE900ABD
S315080001D01BF04EFE0CA3D3E900231CF031F978B1CD
S315080001E074B107EE904AF8EE677A88EE270ABDECF6
S315080001F0028B10BDF2EC017A013338EE278AE0E76C
S315080002009FED040AF3E700BF1656E79EAF03D23CFC
S31508000210513B00200000000074220020000000006E
S31508000220002370B5404C05468AB0E36318B10088D0
S3150800023023600EF057FF3D4826F0AAFA3C4E3D4B88
S31508000240304633603C4B736022F085FF0021304610
S3150800025015F05AF832A3D3E90023A062C4E90623AD
S3150800026022F084FFD4E90623194310434FF0FF33E5
S31508000270C4E90601CDE900014FF0FF32A06A26F075
S31508000280F0FA02224FF0FF31A06A26F0EFFA0120B9
S315080002900EF036FD4FF4007300222849A06A26F0B6
S315080002A03DFBB0F5007F38D100239422CDE9073312
S315080002B009933C23CDE9033205939623A06A03A943
S315080002C0069315F03DF935B3287C0FF097F80546E7
S315080002D0F0B9A06A26F003FC0FF038F80EF0F2FC2D
S315080002E020B14FF4807000210DF0A0FA0EF0FAFC50
S315080002F020B14FF4006000210DF098FA22F0FCFEC0
S31508000300012015F055F80E4A0E49A06A22F021FF81
S3150800031028460AB070BDFF20D7E70725F8E700BFD3
S315080003200DD5015520000000501E0020690345EC3C
S31508000330A835002091EB00089C3500209C3300204E
S31508000340FB3002083B3102082DE9F04F456A0446A6
S3150800035010EE10AA2DED048B93B057EC106BDDF858
S315080003608080BB46069109920C9375B910201CF043
S3150800037009FB0246606220B9A74BEA21A7481CF090
S3150800038091FAC0E901550560C560636A196851B1FB
S315080003905A680123204693404A608B601DF074FC1E
S315080003A0636A00221A603B1EADBF0023012223F0B8
S315080003B0004BC8F800309A4BB8BFC8F8002033EA9B
S315080003C00B031BD142F20F730C9A1360CBF3130382
S315080003D0334300F08F85219B63B9924B22E0924B01
S315080003E001930833219A1360019813B0BDEC048B6E
S315080003F0BDE8F08F8B4B01930333F3E7002200230C
S31508000400504659461BF0F4FF80464BEC19AB58B1E1
S3150800041001230C9A1360219B002B00F06885834802
S315080004201860431E0193DFE7CBF30A5510AA11A9FA
S3150800043020464BEC10AB1DF0A9FE08EE100A002D65
S3150800044000F0828019EE903A5646A5F2FF35CDF8AF
S315080004503880C3F3130343F07F5747F4401700224D
S31508000460734B304639461BF0A3FB65A3D3E900233B
S315080004701BF056FD64A3D3E900231BF09BFB06463D
S315080004800F4628461BF0E2FC61A3D3E900231BF0C4
S3150800049047FD02460B46304639461BF08BFB06469F
S315080004A00F461BF0D7FF002200900023304639463E
S315080004B01BF0A8FF50B100981BF0C8FC32463B461B
S315080004C01BF096FF10B9009B013B0093009B162B6F
S315080004D059D8009A574B03EBC20351EC190BD3E9D1
S315080004E000231BF08FFF00284FD0009B013B009391
S315080004F000230B93109B5D1B6B1E059349BFC5F12B
S31508000500010300230493002354BF04930593009B1F
S31508000510002B3CDB059B009A13440A9205930023A3
S315080005200793069B092B00F28980052BC5BF043B60
S31508000530002501250693069B023B032B00F28980C2
S31508000540DFE803F02E3B395ADDE910531D4405F266
S315080005503243202BC6BFC3F1400305F21240C3F154
S31508000560200305F1FF35C5BF0BFA03F326FA00F0A1
S3150800057006FA03F018431BF059FC01230646A1F1BD
S31508000580F8770E936BE70123B3E70B90B2E7049B6A
S31508000590009A9B1A04935342079300230A93C0E7D1
S315080005A000230893099B002B56DC01231A46CDE944
S315080005B0023309920CE00123F3E70023099A089312
S315080005C0009B134402930133012B0393B8BF012305
S315080005D00022606A4260042202F1140641689E42C3
S315080005E03ED920461DF010FB019000283CD1124B45
S315080005F002464FF4D571C1E60123DFE7AFF3008069
S3150800060061436F63A787D23FB3C8608B288AC63F0A
S31508000610FB799F501344D33FC2DA0208D9DA02089D
S315080006200000F07FBEDA0208B5DA020892DA02089C
S315080006300000F83F70DC020857DB0208012500239A
S31508000640089506934FF0FF330022CDE902331223B3
S31508000650AFE701230893F5E7099BCDE90233B7E72E
S31508000660013152004160B7E7636A019A1A60039B39
S315080006700E2B00F29D80002D00F09A80009B002B27
S3150800068032DD03F00F03B64A02EBC303D3E9008950
S31508000690009BD8054FEA231716D5B24B07F00F076C
S315080006A00325D3E9082351EC190B1BF063FD824699
S315080006B08B46AC4E57B942464B46504659461BF0F8
S315080006C059FD82468B4628E00225F2E7F90708D548
S315080006D0404649460135D6E900231BF021FC8046F1
S315080006E089467F100836E5E700F09B80009B0225C7
S315080006F09C4F5E429A4B06F00F02361103EBC2037B
S3150800070051EC190BD3E900231BF00AFC002382469F
S315080007108B46002E7AD1002BD3D10B9B002B00F0F1
S3150800072082800022904B504659461BF06BFE0028EB
S3150800073079D0039B002B76D0029B002B36DD009BDD
S315080007405046594600225F1E884B1BF0E9FB0135CF
S3150800075082468B46029E2846D0461BF077FB5246B9
S315080007605B46D9461BF0DCFB0022814B1BF022FAC4
S315080007708246A1F1507B002E58D100227D4B40467F
S3150800078049461BF015FA52465B46804689461BF0D9
S3150800079057FE002840F0938252460BF1004340462C
S315080007A049461BF02FFE002840F087825BEC19AB08
S315080007B0119B002BC0F24881009A0E2A00F344814F
S315080007C0674B03EBC203D3E90089099B002B80F230
S315080007D0D580039B002B00F3D18040F06D82002268
S315080007E0644B404649461BF09BFB52465B461BF052
S315080007F01DFE039E3746002840F043823123019DA3
S3150800080005F8013B009B013300933EE2F20705D54C
S315080008100135D7E900231BF083FB0123761008373F
S3150800082077E7022579E7009F039E94E701994C4BE9
S31508000830314403EBC6030D91089953E902230029B5
S3150800084043D000204C491BF095FC52465B461BF0F2
S31508000850AFF9019D82468B46494640461BF0FAFD94
S3150800086006461BF0F3FA024630360B464046494622
S315080008701BF09EF952465B4605F8016B8046894691
S315080008801BF0C0FD002863D142464B46002036497E
S315080008901BF08EF952465B461BF0B4FD002840F06B
S315080008A0B5800D9B9D4281D00022304B504659465B
S315080008B01BF036FB002282468B46404649462B4BA8
S315080008C01BF02EFB80468946C6E7504659461BF064
S315080008D027FB0D9B82468B46019D0F934946404652
S315080008E01BF0B8FD06461BF0B1FA02460B46404619
S315080008F0494630361BF05CF90D9B05F8016B8046BE
S315080009009D4289464FF0000224D11B4B504659465A
S315080009101BF050F902460B46404649461BF090FD2F
S31508000920002873D152465B46002013491BF040F954
S3150800093002460B46404649461BF064FD00283FF434
S3150800094035AF0F9D6B1E0F9315F8013C302BF8D071
S31508000950009749E0054B1BF0E3FA80468946BDE758
S3150800096070DC020848DC02080000F03F0000244062
S3150800097000001C40000014400000E03F56465F4659
S31508000980019D42464B46304639461BF0F3FB1BF0A9
S3150800099061FD82461BF05AFA42464B461BF0C0FAE6
S315080009A0024630460AF130060B4639461BF000F976
S315080009B005F8016B019E0246039F0B46AE1BB74224
S315080009C035D11BF0F7F842464B4606460F461BF054
S315080009D037FDD0B942464B46304639461BF008FD2E
S315080009E010B11AF0010F10D1204618EE101A1DF09A
S315080009F04BF9002300982B7001300C9B1860219B43
S31508000A00002B3FF4F1AC1D60EEE4009F2B461D461B
S31508000A1013F8012D392A06D1019A9A42F7D13022C4
S31508000A20019901370A701A7801321A7090E7002284
S31508000A30A44B1BF075FA0022002306460F461BF04E
S31508000A40D7FC00289DD0CFE7089A002A00F0D58069
S31508000A50069A012A00F3B9800E9A002A00F0B1809E
S31508000A6003F23343079E049D049A012120461A4443
S31508000A700492059A1A4405921DF070F90746002D4E
S31508000A800CDD059B002B09DDAB42049AA8BF2B465B
S31508000A90D21AED1A0492059AD31A0593079B1BB32B
S31508000AA0089B002B00F0AD80002E13DD3946324638
S31508000AB020461DF011FA18EE102A01460746204670
S31508000AC01DF062F9804618EE101A204608EE108AC4
S31508000AD01DF0DAF8079B9A1B06D018EE101A204666
S31508000AE01DF0FAF908EE100A012120461DF036F924
S31508000AF00A9B0646002B40F386801A460146204686
S31508000B001DF0EAF9069B0646012B7FDD4FF000082B
S31508000B10336906EB8303186926F0F3FDC0F120005C
S31508000B20059B184410F01F0000F09180C0F12003C7
S31508000B30042B40F38980C0F11C00049B0544034440
S31508000B400493059B03440593049B002B07DD18EECD
S31508000B50101A1A4620461DF019FA08EE100A059BC7
S31508000B60002B05DD31461A4620461DF00FFA0646CB
S31508000B700B9B002B6DD0314618EE100A26F010FE9E
S31508000B80002866DA009B18EE101A0A222046013B56
S31508000B90009300231DF09AF8089B08EE100A002B14
S31508000BA000F0AF81002339460A2220461DF08EF850
S31508000BB0029B0746002B00F38D80069B022B50DC18
S31508000BC088E0109BC3F136034CE7039B5E1E079B28
S31508000BD0B342B7BF079B9E1B0796F21ABFBF0A9B75
S31508000BE000269B180A93039B002BB7BFDDE9032356
S31508000BF0DDE903359D1A002336E7079E049D089F05
S31508000C003DE7079A69E7069B012B18DCBAF1000F46
S31508000C1015D1CBF3130393B92BF000431B0D1B051A
S31508000C2083B1049B4FF0010801330493059B0133FC
S31508000C3005930A9B002B7FF46BAF012070E74FF0FA
S31508000C400008F6E79846F4E73FF47EAF18461C30EE
S31508000C5073E7039B002B37DC069B022B34DD039BD3
S31508000C600293029B6BB93146052220461DF02EF8E9
S31508000C700146064618EE100A26F092FD00283FF7B0
S31508000C80BDAD099B019DDB4300934FF0000831463B
S31508000C9020461CF0F9FF002F3FF4A6AEB8F1000F6E
S31508000CA005D0B84503D0414620461CF0EDFF39462D
S31508000CB020461CF0E9FF97E600263746E1E700974D
S31508000CC037469BE500002440089B002B00F0CA80AD
S31508000CD0039B0293002D05DD39462A4620461DF062
S31508000CE055F90746B8F1000F5BD0796820461CF025
S31508000CF08BFF054628B9874B024640F2EA21FFF7E3
S31508000D003DBB3A6907F10C010C300232920026F01D
S31508000D1015FA0122294620461DF038F9019BB846E6
S31508000D20074603F10109DDE90123134405930AF097
S31508000D3001030493314618EE100A26F0F4FB4146E7
S31508000D40029000F1300A18EE100A09F1FF3B26F06E
S31508000D5027FD3A460390314620461DF087F9C268BA
S31508000D60054602BB014618EE100A26F019FD024692
S31508000D702946204607921CF087FF4D46DDE90632D4
S31508000D8043EA0201049B0B430FD1BAF1390F2AD06B
S31508000D90039B002B02DD029B03F1310A8BF800A0AE
S31508000DA075E73846BAE70122E2E7039B002B04DB26
S31508000DB006990B4304990B4322D1002AEEDD18EE5F
S31508000DC0101A012220461DF0E1F8314608EE100AF5
S31508000DD026F0E6FC002803DCE0D11AF0010FDDD08E
S31508000DE0BAF1390FD7D139238BF800302B461D4677
S31508000DF0013B15F8012C392A70D001321A7046E7E2
S31508000E00002A07DDBAF1390FEDD00AF101038BF894
S31508000E1000303CE7059B09F801AC994546D018EE29
S31508000E20101A00230A2220461CF050FFB84508EE87
S31508000E30100A4FF000034FF00A024146204606D139
S31508000E401CF044FF8046074609F1010972E71CF0C9
S31508000E503DFF3946804600230A2220461CF036FF0D
S31508000E600746F1E7039B0293019D314618EE100AE7
S31508000E7026F059FB019B00F1300A05F801ABEA1A86
S31508000E80029B934209DD18EE101A00230A22204617
S31508000E901CF01CFF08EE100AE7E7029B4FF000085B
S31508000EA0002BCCBF1D460125019B1D4418EE101AC8
S31508000EB0012220461DF06AF8314608EE100A26F08F
S31508000EC06FFC002892DC02D11AF0010F8ED12B4656
S31508000ED01D4613F8012D302AFAD0D8E6019A9A420F
S31508000EE085D1009B0133009331231370CFE60A4B5B
S31508000EF0FFF798BA219B002B7FF471AA074BFFF7DF
S31508000F0091BA029B002BAFDC069B022B3FF7A9AEDA
S31508000F10AAE700BF57DB020891DA0208B5DA020829
S31508000F2010B5054C237833B9044B13B1044800E0D7
S31508000F3000BF0123237010BDA02000200000000080
S31508000F4050DE020808B5034B1BB10349034800E00D
S31508000F5000BF08BD00000000A420002050DE0208E3
S31508000F60A3F5803A704700BF174B002B08BF134BF9
S31508000F709D46FFF7F5FF00218B460F461348144A96
S31508000F80121A26F002F90E4B002B00D098470D4B8B
S31508000F90002B00D098470020002104000D000D48C2
S31508000FA0002802D00C4800E000BF1BF0C7FC200058
S31508000FB0290000F083F91BF09BFC00BF0000080025
S31508000FC00000000000000000C00A0020681D002084
S31508000FD0C4400020000000000000000070B503684F
S31508000FE0A94A23F47F4323F00703934204468EB0AD
S31508000FF000F08E800ED802F17F42934274D002F53B
S315080010008022934200F09980A2F5102293421AD0CA
S315080010100EB070BD9D4A934200F02F8102F5102252
S31508001020934200F0CA80A2F182729342F0D1B0F8DE
S315080010300930B0F80720B0F8051000790EB0BDE801
S31508001040704001F0C3B8924B032001934023914AA4
S3150800105091490093914B02F0FFFC002109AB084629
S3150800106007AA10F0A5FB00B1FEE78D4C204610F04C
S31508001070B3FA054600B1FEE78A4E8B48314601F0C1
S3150800108067FD894B29463278207810F0DFFA034647
S3150800109000B1FEE74FF4C86200901146207810F0C0
S315080010A0B3FA00B1FEE70221207810F0E5FA00B1A4
S315080010B0FEE701F00DF8044601F0A6FD94F8663047
S315080010C0837001F0A5FD01F089FD01F0B5FD0E2341
S315080010D0C37101F0B1FD0323037201F0ADFD0123D5
S315080010E0437101F0ADFD93E70E2200216F4826F00B
S315080010F04CF86E4803F0BAFB0E2200216B4B0B200E
S3150800110010F02AFB207B0EB0BDE8704001F036B81F
S31508001110807901F097F8624C624A0021624B127896
S31508001120207810F093FA00B1FEE70221207810F03B
S31508001130A3FA00283FF46CAFFEE700210691B0F849
S31508001140056009AD142206AB3046009510F0D2FAB8
S31508001150574B03200193B0234E4A4F4900930296FA
S315080011604E4B02F079FC2A460821BDF81830514842
S3150800117002F022FF252E11D02C2E7FF449AF2379B9
S31508001180BDF818208DF81C30B4F80530ADF81D30C0
S31508001190DDE907012B4601F0F7FF39E72379BDF8AA
S315080011A018208DF81C30B4F80530ADF81D30DDE98F
S315080011B007012B461DF030FB2AE7C379B0F8055026
S315080011C004930389334ACDE902533B4B0320019329
S315080011D0E02331490093314B02F03EFC252D1CD00B
S315080011E02C2D32D01D2D7FF413AFE379012B0BD1B3
S315080011F0238923B10EB0BDE8704001F0DDBD0EB005
S31508001200BDE8704001F0DEBD022B7FF401AF00F0AF
S315080012105FFF012380F84E30FAE6E379012B0BD104
S31508001220238923B10EB0BDE8704001F0C7BE0EB0E9
S31508001230BDE8704001F0C8BE022B7FF4E9AE00F0AD
S3150800124047FF012380F84C30E2E6E379012B0BD106
S31508001250238923B10EB0BDE8704001F009BF0EB076
S31508001260BDE8704001F00ABF022B7FF4D1AE00F052
S315080012702FFF012380F84D30CAE640680EB0BDE85E
S31508001280704001F063B800BFA0000601A00001038A
S315080012905D7A0208507A0208597A0208B67A020874
S315080012A01C0F0020293B00200A3B0020FC3A0020A6
S315080012B0857A020848850208937A020807B51EF05F
S315080012C0BDFC01213A2004F08BFB1FF01EFA00201A
S315080012D009F02AF802F040FEFF21002002F074FD12
S315080012E0C721012002F070FDC721022002F06CFD23
S315080012F00721032002F068FD0721042002F064FD9F
S3150800130002F03EFD0A4B032001934F23094A0A497E
S3150800131000930A4B02F0A0FB00F0F0FF00F06EF815
S3150800132001F0FEFA1EF097FC07F0BEFAFAE700BFD6
S31508001330D97A0208C57A0208CF7A0208E27A020840
S3150800134010B5234C04F0B4FD04F0B2FF236F23F06C
S31508001350070343F0030323671DF02BFE1D4B0020F4
S315080013609B6A9B075EBF01221B4B9A62D4F8203109
S3150800137023F0030343F00203C4F82031D4F82431E0
S3150800138023F0070343F00203C4F82431D4F84031AC
S3150800139023F0030343F00203C4F84031D4F8603164
S315080013A023F0030343F00203C4F86031D4F8403253
S315080013B023F0030343F00203C4F84032D4F80032A2
S315080013C023F0070343F00203C4F8003210BD00BF40
S315080013D00080005000C0005000E00050024B034956
S315080013E0186803F02DBF00BFC00A0020C40A0020F9
S315080013F0014B1878704700BF2A3B002007B5094BF8
S31508001400042001933923084A00930849084B02F03F
S3150800141023FB0022074B1A7003B05DF804EB00F0BB
S3150800142001B900BF8F7E0208767E02088B7E02080D
S31508001430BE7E02082A3B002007B5094B042001930B
S315080014405123084A08490093084B02F005FB00F0AF
S3150800145069F90022064B1A7003B05DF804FB00BF59
S31508001460987E0208767E02088B7E0208B57E020800
S315080014702A3B002007B5094B042001936723084A35
S3150800148008490093084B02F0E7FA00F00DFD012227
S31508001490064B1A7003B05DF804FB00BFA17E020874
S315080014A0767E02088B7E0208AB7E02082A3B002065
S315080014B038B50446054D2846FEF74EFE24B118B148
S315080014C0D5E90023C4E9002338BD00BF681D002004
S315080014D007B5084B04200193E523074A00930749FB
S315080014E0074B02F0B9FA022003B05DF804EB1DF0D1
S315080014F0F0B800BFE77E0208C77E0208DF7E020852
S315080015003D81020807B5084B04200193F523074AD5
S3150800151000930749074B02F09FFA032003B05DF8D2
S3150800152004EB1DF0D6B800BF047F0208C77E020888
S31508001530DF7E02080282020807B5084B04200193E1
S3150800154040F20713064A00930649074B02F084FA4D
S31508001550042003B05DF804EB1DF0BBB8227F020837
S31508001560C77E0208DF7E0208DF81020807B5144B32
S315080015701449019340F2A5130420134A0093134B10
S3150800158002F06AFA0422124B4FF47A701A6707F0CF
S315080015904BFE00230146CDE900330E4A0E481EF0E5
S315080015A0CEFA50B10D4B0120019340F2AD13064A15
S315080015B000930449054B02F04FFA03B05DF804FBAB
S315080015C0457F0208DF7E0208C77E02089A81020864
S315080015D000D003500515000868210020617F020825
S315080015E008B5054B1B682BB104481DF070FB003885
S315080015F018BF012008BD00BF60210020A8210020D7
S3150800160013460A4601460248006803F0FBBF00BFBE
S31508001610C00A0020024B0A460146186804F018B8AA
S31508001620C00A00207FB5304B304E01934FF48C73BF
S315080016302F4D304C2A46214600930420334602F0AB
S315080016400BFA012304220621002005F061F9012383
S3150800165004221846032105F05BF9012304221846E3
S31508001660022105F055F9002302221846072105F044
S315080016704FF900222049072003F01EFC1F4B2A467B
S3150800168018601F4B0825019340F227132146029044
S3150800169000930420334602F0DFF91A49032000F0CC
S315080016A009FE1949022000F005FE1849052000F038
S315080016B001FE174C1749042000F0FCFD04221649C8
S315080016C0092316481DF0AAFA04F500531D670120E0
S315080016D004F5805407F0BAFD25671DF001F8104B94
S315080016E0186004B070BD00BF827F0208D38102086B
S315080016F0C77E0208DF7E02089FE6010864210020F3
S315080017008E7F0208692000086D150008A1190008D7
S3150800171000C00350E51900082C3B0020A821002032
S31508001720BC21002013B50C4807F0D4FC0B4807F081
S31508001730D1FC00230A4C1846CDE90033226807215C
S3150800174005F08EF82268074BC3F8202408221A678A
S3150800175004221A6702B010BD8821002068210020E3
S315080017606421002000E0035013B51C4680238DF841
S31508001770053000238DF8061040218DF807300B4BF5
S315080017808DF80400104619640AB11CF08BFF042179
S315080017900DEB0100FFF73EFF14B120461CF082FF57
S315080017A04022034B1A6402B010BD00BF00E003508C
S315080017B000D0035070B592B08DF80800A020002420
S315080017C0169D8DF80900E6B2B01CB24212AE56FA62
S315080017D080F019D80332D1B2002200F8402C4020FC
S315080017E00C4A106423B1184601911CF05BFF01995D
S315080017F002A8FFF70FFF15B128461CF053FF402239
S31508001800054B1A6412B070BD0E5D013400F8406CC9
S31508001810D9E700BF00E0035000D0035013B5134BBF
S3150800182014461A889B78ADF804208DF806300023F4
S3150800183040228DF801308DF802300D4B8DF80000EE
S3150800184008461A6409B11CF02DFF0322684601A94F
S31508001850FFF7D6FE14B120461CF024FF4022054BA4
S315080018601A649DF8060002B010BD00BF1781020871
S3150800187000E0035000D003504022F0B5414B85B03C
S315080018801A64022007F0E6FE012300221946052005
S31508001890FFF76AFF022007F0DDFE0122002107207C
S315080018A0FFF7BCFF0446022007F0D4FE0122002100
S315080018B00820FFF7B3FF04EB0020334C23880133DD
S315080018C09BB20E2B23803CD1304B1880032007F0A7
S315080018D0C1FE0623002201210420FFF745FF2788C1
S315080018E00F2F2CD12A4B1E88032E28D100243046D0
S315080018F01E251C8007F0AEFE2623012203A93A20E6
S315080019008DF80C3000953B46FFF754FF022007F090
S31508001910A1FE2B46224631465020FFF725FF02201E
S3150800192007F098FE2B462246A6213A20FFF71CFF11
S315080019300422184B1A67184A1268C3F8202405B0FF
S31508001940F0BDC3D90F23124A2380138801339BB2F3
S31508001950022B01D81380B9E7032313800B4B03A985
S315080019601B880122C01A03900C481DF086F9002333
S31508001970CDE90033084A07211846126804F070FFBB
S31508001980A4E700BF00D003504E3A00204C3A00208E
S31508001990503A002000E0035064210020A8210020CE
S315080019A007B50B4B0420019340F22123094A0A4943
S315080019B000930A4B02F050F8FFF75EFF084B1B68CE
S315080019C01BB103B05DF804EB184703B05DF804FBE0
S315080019D0A67F0208C77E0208DF7E02087681020813
S315080019E0602100202DE9F041C24C8CB023780420F8
S315080019F00293C14BC14A019340F29A23C04900930E
S31508001A00C04B02F029F823780125002B00F0C68187
S31508001A100D238DF810301E23022200936120002327
S31508001A2004A98DF81150FFF7C5FE4FF4967007F01C
S31508001A3011FE1E230022A6213A20FFF795FE032059
S31508001A4007F008FE1E26612300254FF054080124DE
S31508001A5004A903228DF8103000960F2301208DF873
S31508001A6011508DF81280FFF7A5FE4FF4967007F017
S31508001A70F1FD2A4629461F230520FFF775FE4FF478
S31508001A80967007F0E7FD009604A911230222172095
S31508001A908DF810408DF81140FFF78CFE9A4B974A47
S31508001AA0019340F2C723964900930420954B01F011
S31508001AB0D3FF4FF4967007F0CDFD224629467320D2
S31508001AC0FFF7ACFE732302934FF433738F4E07462A
S31508001AD0009304208B4B894A8949019601F0BCFF83
S31508001AE08B4B864A019340F2CD2385490297009392
S31508001AF00420844B01F0B0FF4FF4967007F0AAFD5E
S31508001B00224629465320FFF789FE5323CDE9016370
S31508001B1040F2D2230746009304207A4B774A784945
S31508001B2001F09AFF7B4B754A019340F2D32374491F
S31508001B30029700930420734B01F08EFF4FF49670C2
S31508001B4007F088FD224629464046FFF767FE4FF410
S31508001B503673074600930420CDE90168694B674A46
S31508001B60674901F079FF6C4B644A019340F2D92327
S31508001B706349029700930420624B01F06DFF4FF40E
S31508001B80967007F067FD224629465920FFF746FE5C
S31508001B905923CDE9016340F2DE230746009304206A
S31508001BA0584B564A564901F057FF5C4B534A019326
S31508001BB040F2DF235249029700930420514B01F06B
S31508001BC04BFF4FF4967007F045FD224629465A20EA
S31508001BD0FFF724FE5A23CDE901634FF4397307460C
S31508001BE000930420474B454A454901F035FF4C4BC5
S31508001BF0424A019340F2E5234149029700930420A3
S31508001C00404B01F029FF4FF4967007F023FD22465A
S31508001C1029463A20FFF702FE3A23CDE9016340F24E
S31508001C20EA23074600930420364B344A344901F028
S31508001C3013FF3C4B314A019340F2EB23304902979C
S31508001C40009304202F4B01F007FF4FF4967007F01E
S31508001C5001FD224629462046FFF7E0FD4FF43C7376
S31508001C600746CDE9016400930420264B234A2449FC
S31508001C7001F0F2FE2C4B214A019340F2F123204950
S31508001C800297009304201F4B01F0E6FE4FF496706E
S31508001C9007F0E0FC224629465020FFF7BFFD5023F7
S31508001CA0CDE9016340F2F623074600930420154B5D
S31508001CB0124A134901F0D0FE1C4B104A019340F218
S31508001CC0F7230F490297009304200E4B01F0C4FE38
S31508001CD04FF4967007F0BEFC224629463B20FFF7D4
S31508001CE09DFD3B23CDE901634FF43F7307460093FF
S31508001CF004201DE02B3B0020BD7F0208C77E02089A
S31508001D00DF7E02085A810208DC7F0208F47F020897
S31508001D10FC7F0208108002081A8002082180020847
S31508001D20368002084C800208588002086C80020837
S31508001D30214B224A224901F08FFE224B1F4A01936A
S31508001D4040F2FD231E49009304201B4B029701F025
S31508001D5083FE4FF4967007F07DFC224629465520EF
S31508001D60FFF75CFD5523CDE9016340F202330446D3
S31508001D7000930420104B114A114901F06DFE124BD5
S31508001D800420019340F203330C4A00930C490A4B92
S31508001D90029401F061FE0CB0BDE8F0810F228DF8C7
S31508001DA010201E226120009204A902228DF81150EB
S31508001DB0FFF700FD257038E65A810208C77E02083B
S31508001DC0DF7E0208838002088B800208402270B5F5
S31508001DD02E4B8CB01A64052007F03CFC26238DF8A0
S31508001DE010300B231E268DF811300723032204A971
S31508001DF03A208DF8123000960F23FFF7DBFC4FF4DC
S31508001E00967007F027FC03238DF8103039238DF8D8
S31508001E10133094238DF819307F23002401250E22D0
S31508001E2004A950208DF81C3000960F238DF8114018
S31508001E308DF812408DF814408DF815408DF816402F
S31508001E408DF817508DF818508DF81A408DF81B50DC
S31508001E508DF81D40FFF7AEFC0A2007F0E5F923468A
S31508001E600146CDE900440A4A0A481DF068FE58B101
S31508001E70094B029001934FF44C7328460093074A86
S31508001E80074B084901F0E8FD0CB070BD00D00350BF
S31508001E90391500084021002093800208C77E0208F1
S31508001EA02F810208DF7E020830B52B4B85B00193DF
S31508001EB04FF4DE7304250420284A29490093294B48
S31508001EC001F0CAFD284B1D671CF00AFC274B1C684D
S31508001ED0041BB4F57A7F13D2254B284601934FF499
S31508001EE0E4731E4A00931E491E4B029401F0B4FD8A
S31508001EF02048604300F5742000F510701CF0D2FBF2
S31508001F0000240125CDE900451B4A2B460721126806
S31508001F10204604F0A5FC44F6206007F085F9234620
S31508001F200146CDE90044154A15481DF02CFE60B15E
S31508001F30144B284601934FF4E973084A009308495D
S31508001F40084B01F089FD05B030BD0F4B187005B080
S31508001F50BDE83040FFF73ABFB5800208C77E0208E1
S31508001F60DF7E02088D81020800D00350BC210020C4
S31508001F70C280020818FCFFFF64210020D114000863
S31508001F8088210020D08002082B3B0020402270B513
S31508001F902E4B8CB01A64032007F05CFB26238DF8C1
S31508001FA010300B231E268DF811300723032204A9AF
S31508001FB03A208DF8123000960F23FFF7FBFB03201B
S31508001FC007F048FB03238DF8103039238DF81330BA
S31508001FD094238DF819307F23002401250E2204A9A5
S31508001FE050208DF81C3000960F238DF811408DF87F
S31508001FF012408DF814408DF815408DF816408DF86E
S3150800200017508DF818508DF81A408DF81B508DF81A
S315080020101D40FFF7CFFB4FF47A7007F005F923460A
S315080020200146CDE900440A4A0A481DF088FD58B120
S31508002030094B029001934FF4597328460093074AB7
S31508002040074B084901F008FD0CB070BD00D00350DD
S31508002050391500084021002093800208C77E02082F
S315080020601A810208DF7E020807B50C4B042001938B
S3150800207040F293130A4A00930A490B4B01F0ECFC11
S3150800208000200123CDE90003084A0721126804F05D
S31508002090E7FB03B05DF804EBFFF778BFFA800208A8
S315080020A0C77E0208DF7E0208B68102086421002086
S315080020B0054A136818441060044A1378B3FA83F380
S315080020C05B091370704700BFC0210020503B0020F9
S315080020D000487047701D0020074B93F866002328B8
S315080020E005D80138202894BF002001207047A0F1A8
S315080020F03303584258417047701D00200F4B00218A
S315080021001A4610B51C7814B15C88844212D00C317A
S31508002110242903F11803F5D113782BB1137E53B193
S3150800212092F8303033B9022318214B43D11848802E
S315080021300121D15210BD0123F6E700BF701D002012
S3150800214038B5002405460748037823B14388AB42CF
S3150800215001D11CF0B4FA0C34242C00F11800F3D188
S3150800216038BD00BF701D0020034B187818B9187EBB
S3150800217008B993F830007047701D00201FB50E4B44
S3150800218004460193A9230D490290009303200C4BA2
S315080021900C4A01F061FC01220B4B204683F84F20C4
S315080021A040F20112A3F84C20FFF7A8FF04B0BDE8DF
S315080021B0104000F0CFBD00BF4082020839820208F5
S315080021C00183020820820208701D00202DE9F047CD
S315080021D086B0CDE904239846154BCDE90201019353
S315080021E0C723054600930E4617460320114B124A8D
S315080021F0124901F031FC4FF0010A114C04F148096B
S31508002200237863B16388AB4209D12846A680E78064
S31508002210A4F808801CF0A5FA38B184F801A018348F
S315080022204C45EDD106B0BDE8F08700F093FDF6E722
S3150800223064820208DC8202082082020839820208C7
S31508002240701D00201FB50F4B04460193EE230E4A5E
S315080022500E490290009303200D4B01F0FDFB20462A
S31508002260FFF76EFF00230B4C84F8503000F062FA3B
S3150800227000F064FDFFF778FF08B984F84F0004B052
S3150800228010BD00BF95820208208202083982020822
S31508002290BA820208701D002000231946044A013339
S315080022A00A2BC2E9001102F10802F8D1704700BFF3
S315080022B0C42100200123002230B503FA00F00E4B9A
S315080022C053F83240844204D1012003EBC20359601B
S315080022D030BD01320A2AF3D10022074C256825B9F8
S315080022E0656815B943F83200EEE701320A2A04F1A7
S315080022F00804F3D10020EBE7C421002010B5114CE7
S3150800230070220021204624F040FF20461CF0D7F911
S3150800231004F118001CF0D3F904F130001CF0CFF9D1
S31508002320FFF7BAFF01200849FFF7C4FF02F0ECFAED
S3150800233001F032FB012384F86630BDE8104002F054
S315080023401FB800BF701D0020652C000808B50123C2
S31508002350002203FA00F0084B1968814204D1596833
S3150800236011B18847012008BD01320A2A03F1080382
S31508002370F2D10020F7E700BFC421002005490B78F9
S31508002380132B06D8044A02EB830282ED000A0133B6
S315080023900B707047513B002074220020094B1B78B4
S315080023A0112B0CD8084A02EB830213B152F8041C0D
S315080023B011600133DBB2122B02F10402F5D1024897
S315080023C0704700BF513B0020742200200021034BB8
S315080023D050220348197024F0D8BE00BF513B002094
S315080023E07422002010B5064C2388B3F5E16F02D29B
S315080023F00133238010BD0520FFF75AFE0023F8E7B6
S31508002400523A00202DE9F04F664B674E1A788DB088
S31508002410B32A9CBFB4221A701B7832789A42C0F04D
S315080024209B80624FB7F80090B9F5D25F80F0908034
S31508002430FFF7B4FFFDF7BCFEBCEEC00A10EE103A7B
S315080024409DB25B4B00241D80FDF7B2FE0E2310EEF5
S31508002450100A8DF82030CDE90944ADF82C4019F062
S3150800246007FD0022534B19F05BFD1AF01BF8ADF877
S315080024702300284619F0DAFC00224F4B19F050FDCC
S315080024801AF010F80DF120080C21ADF82700404687
S31508002490ADF8219000F078FCBDF82730474A049340
S315080024A0BDF8233046490393BDF82130ADF82C001A
S315080024B00293444B03200193F4230093424B01F00B
S315080024C0CBFA404602F0A0F800F082FC002849D07A
S315080024D0FFF7FEFD90F84F30002B43D0FFF7F8FDCD
S315080024E01825A1464FF01D0A80F84E40FFF7F0FD6B
S315080024F005FB04FB10F80B30ABB1FFF7E9FD5844B8
S3150800250043888DF819A08DF818308DF81A900CAB01
S3150800251013E903000090ADF8041098E80C00DDE913
S31508002520060100F0D3FC0134032CDFD1FFF7D0FD00
S315080025303B88A0F86430FFF7CBFDB0F8644000F0A4
S3150800254063FB0134048000F063FB3B8801333B8066
S31508002550FFF73CFF002333703378013333700DB037
S31508002560BDE8F08F00F034FC50B9184B02200193F7
S315080025704FF48773114A00931149134B01F06CFA13
S31508002580FFF7A6FD90F84F30002BCFD1104B022055
S3150800259001934FF48973094A009309490A4B01F0DC
S315080025A05BFAC3E7523B0020533B0020563A002013
S315080025B0543A0020000024400000594022830208B3
S315080025C04183020852830208FE8402086D830208CA
S315080025D08883020807B54FF47A7006F025FE0023B3
S315080025E00146CDE90033094A09481DF0CCFA50B135
S315080025F0084B012001934FF4F773074A00930749E4
S31508002600074B01F029FA03B05DF804FBF5E601086B
S3150800261054220020617F02082283020841830208AF
S31508002620CE840208014806F055BD00BF542200209A
S3150800263013B51CF055F81E4A1368C31AB3F57A7F0A
S3150800264033DB1060FFF7CEFE1A4B1B88B3F5D25F5B
S3150800265011D3FFF741FD70B1174B032001934FF4D7
S31508002660D473164A16490093164B01F0F5F91CF077
S315080026704AF8FFF7D7FFFFF72FFDB0B1124C2368D2
S315080026800133236000F0A6FA2368436000F0A6FA37
S31508002690FEF7AEFE30B9FEF7EDFE02B0BDE810401B
S315080026A0FFF7B0BE1CF03EF8F7E702B010BD00BF5A
S315080026B0C8220020563A00209C830208228302087A
S315080026C041830208E5840208C422002007B5124B9C
S315080026D0124A019340F21B23114903200093114B20
S315080026E001F0BAF9642006F09FFD00230146CDE902
S315080026F000330D4A0D481DF022FA50B10C4B01204B
S3150800270001934FF40873054A00930549054B01F0F8
S31508002710A3F903B05DF804FBC2830208228302080A
S3150800272041830208AB840208FBE601083422002034
S31508002730617F0208014806F0CDBC00BF34220020A4
S31508002740F0B58BB0FFF7C4FC90F850306B4A029393
S315080027506B4B0320019340F23E236A4900936A4B70
S3150800276001F07AF9FFF7B4FC90F85060002E00F0FB
S315080027708380FFF7ADFCB0F85840FFF7A9FCB0F826
S3150800278056305E4ACDE90243604B5E49019340F2FA
S315080027904323032000935C4B01F05EF9FFF798FC96
S315080027A0B0F85840FFF794FCB0F85630A34206AC90
S315080027B064D9FFF78DFC2146B0F8520001F04EFEB1
S315080027C00546A8BBFFF784FC0346D0F85A0004AFB9
S315080027D0049093F85E308DF812508DF814301D234E
S315080027E08DF811300AAB13E903000090ADF8041018
S315080027F094E80C0097E8030000F068FB00F0E8FA9C
S3150800280018B3FFF765FC90F84F30F3B16EB1FFF7D8
S315080028105FFCB0F858300133A0F85830FFF758FC81
S31508002820B0F852300133A0F85230FFF74FFF23E0DB
S31508002830374B0320019340F25623304A009331491F
S31508002840314B01F009F90026D8E700F0C1FA044631
S31508002850FFF73EFC90F84F30003C03932D4B18BF12
S315080028600124019340F2662302200093234A264B53
S315080028702449029401F0F0F80BB0F0BD264B1F4A2C
S31508002880019340F26B2303201E4900931E4B01F06F
S31508002890E3F8AA2304AD032128468DF8103000F08A
S315080028A073FAADF81300FFF713FC0346D0F85A0085
S315080028B0069093F85E3023711D238DF81930002396
S315080028C08DF81A3094E8030095E80C0000F086FAB3
S315080028D0044660B1114B0290019340F27D2301201A
S315080028E00093064A084B074901F0B6F89DE7FFF73B
S315080028F021FFFFF7EDFB80F85040BDE72283020871
S31508002900E583020841830208868402080D840208CA
S31508002910138402082A8402084084020851840208A3
S3150800292007B511490820FFF7C5FC10490920FFF72C
S31508002930C1FC4FF4FA7006F077FC00230146CDE996
S3150800294000330B4A0B481DF0FAF850B10A4B012028
S31508002950019340F2DF23094A00930949094B01F024
S315080029607BF803B05DF804FB312600084127000810
S3150800297001E7010814220020617F02082283020869
S3150800298041830208708402082DE9F043002340F2CF
S31508002990B2714FF4C87C4FF06408028890F802E0E0
S315080029A0C77846798479C57991422FD3A2F2B27055
S315080029B0C11A4FF4B770584340F26D1303FB010078
S315080029C06421B2FBF1F301FB13234FF4C871B2FB88
S315080029D0F1FC01FB1C2C0121DFF87C809BB21FFA5D
S315080029E08CFC1FFA8EFE02F003028E4521D84FF4A6
S315080029F061627B1E1844C4EB04139B0002FB06337A
S31508002A00144A2B4402FB0030BDE8F083880705D141
S31508002A10B1FBF8F008FB101080B228B9B1FBFCF046
S31508002A200CFB101080B208B901339BB2013189B290
S31508002A30BAE702290AD102B913B9BCF1000F05D1C8
S31508002A401D30013189B208F10108CEE798F80090E7
S31508002A504844F6E780510100118502083A4BF0B563
S31508002A60B0FBF3F24FF4C87503FB1200642640F27C
S31508002A70B273B2F5B77F4DD240F26D14A24213D1AC
S31508002A809C0706D16425B3FBF5F405FB1434A4B200
S31508002A9054B94FF4C875B3FBF5F405FB1434A4B266
S31508002AA014B1002201339BB26424B3FBF4F504FB92
S31508002AB015354FF4C874B3FBF4F604FB1636002438
S31508002AC0DFF888E00B80ADB2B6B203F00303012C41
S31508002AD0A7B202D103B9A5BB9EB31EF804C094459C
S31508002AE005D801340C2CA2EB0C02F0D12746013292
S31508002AF0CA704FF46162B0FBF2F302FB13003C228A
S31508002B004B71B0FBF2F302FB130001378F708B7128
S31508002B10C871F0BD9C0705D1B3FBF6F406FB143467
S31508002B20A4B22CB9B3FBF5F405FB1434A4B224B94A
S31508002B30A2F5B77201339BB29BE76FF4B6773A44B6
S31508002B40F8E74FF01D0CCAE780510100118502080D
S31508002B5073B50D46044688B3194E304601F086FE15
S31508002B6002232370012363700623A3700B23E370EB
S31508002B7009232371336841F61F02C4F805307368C8
S31508002B800420C4F809303389A4F81120A4F80D30BC
S31508002B900323E3732374E374FF23237540F262333C
S31508002BA0A4F81530074B084A0193482307490093B0
S31508002BB0074B00F051FF0DB117232B7002B070BD03
S31508002BC0543B0020338502081D8502083982020815
S31508002BD04D85020800487047723B002010B5094C25
S31508002BE0092104F11203184600F0CEF804F1120385
S31508002BF0A4F81B000B22BDE81040002128200EF087
S31508002C00ABBD00BF603B0020004870476B3B00200F
S31508002C1010B5084C052104F10B03184600F0B4F86A
S31508002C2004F10B0320820722BDE810400021222070
S31508002C300EF092BD603B002000487047603B0020C4
S31508002C40074B0921184610B500F09EF8BDE810405C
S31508002C50034B0B22A3F80900002120200EF07CBDAF
S31508002C60603B00202DE9FF470025AA462C4FDFF8D8
S31508002C70C480DFF8C4901824FFF72AFA6C43065D6F
S31508002C805EB3FFF725FA204440881BF06AFD20BB97
S31508002C90FFF71EFA2044D0E90423052A73F100033E
S31508002CA033D3FFF715FA4FF6FF7320448078CDE942
S31508002CB001334FF4FA7364220093462107230EF07A
S31508002CC0EFFC48B16423CDE9017000934A464346B8
S31508002CD00120144900F0C0FEB2460135032DCAD1C1
S31508002CE0BAF1000F0ED0104B1B785BB14FF47A7017
S31508002CF006F09AFA00230146CDE900330B4A0C4840
S31508002D001CF001FF04B0BDE8F087FFF7E1F92044A5
S31508002D10D0E90432013342F10002C0E90432DBE7AC
S31508002D20A78502088E850208BD3B00205DE70108DD
S31508002D30CC220020CF8502086785020808B503481B
S31508002D4006F0C8F90022024B1A7008BDCC220020F2
S31508002D50BD3B002007B54FF47A7006F065FA0023EC
S31508002D600146CDE90033054A05481CF0E8FE012274
S31508002D70044B1A7003B05DF804FB00BF5DE7010859
S31508002D80CC220020BD3B002010B581B14FF6FF7361
S31508002D90084C0144884201D1184610BD10F8012B91
S31508002DA05A40D2B234F8122082EA1323F2E74FF6D9
S31508002DB0FF73F1E7F08502080122014B1A7070478C
S31508002DC0BE3B00200022014B1A707047BE3B002014
S31508002DD0014B1878704700BFBE3B0020F0B595B090
S31508002DE008AC84E80300314C06AD85E80C0023786E
S31508002DF053B92F4B01937723009301202D4B2E4A6D
S31508002E002E4900F029FE42E09DF82060BDF82170A9
S31508002E10FFF75EF990F84F30002B3AD095E803009B
S31508002E200FAC224605230F908DF840102448102138
S31508002E3001F0C2F8052128460BAD1BF0DEFE204640
S31508002E40294601F089FD95E80F0084E80F0023461E
S31508002E501022394630460EF095FC044650B9FFF765
S31508002E6037F980F85040FFF733F980F84D4020468F
S31508002E7015B0F0BD134B0290019372230120009305
S31508002E80CDE903670B4B0C4A0C4900F0E5FD012020
S31508002E90EEE72378002BACD0FFF71AF990F84F30FD
S31508002EA0002BF4D1084B01937B23A5E7BE3B0020FA
S31508002EB06D830208C3880208F0870208088802089A
S31508002EC012880208218802085488020882B070B560
S31508002ED090B004AC84E8030014A981E80C002F4BD9
S31508002EE01B780BB9012047E0FFF7F2F890F84F304E
S31508002EF0002BF7D00BAA144614AB16AE1546186865
S31508002F005968083303C5B3422A46F7D118682246DA
S31508002F1028609B880821AB8021480E2301F04CF8D5
S31508002F2007AD0E2114A81BF068FE2046294601F0BD
S31508002F3013FD95E80F0084E80F00224610230821A8
S31508002F40184801F039F823461022BDF811109DF8EB
S31508002F5010000EF017FC044698B9134B0320019392
S31508002F60A523124A12490093124B00F075FDFFF78C
S31508002F70AFF880F84D40204610B0BDE8704002B06A
S31508002F8070470D4B02900193AB2301200093074A2B
S31508002F90084B074900F060FDA4E700BFBE3B0020D0
S31508002FA0128802086888020880880208F0870208E2
S31508002FB008880208B4880208888802080122014B9A
S31508002FC01A707047BF3B00200022014B1A707047E9
S31508002FD0BF3B002070B596B006AC84E803008DF8B8
S31508002FE017301C2301260FAC21468DF8243009A87A
S31508002FF00DF117038DF82520CDF827308DF82660BA
S315080030001BF0EAFB0BAD014620461BF0F6FD2946F0
S31508003010204601F0A1FC95E80F0084E80F000F4B4D
S315080030201B78C3B1FFF754F890F84F309BB123468D
S315080030301022BDF819109DF818000EF0A3FB50B128
S31508003040074B02900193AB2330460093054A064B83
S31508003050064900F001FD16B070BD00BFBF3B002059
S3150800306088880208DA880208FC880208F2880208BA
S315080030700122014B1A707047C03B00200022014B09
S315080030801A707047C03B002082B070B592B004AC8D
S3150800309084E8030016A90BAC81E80C0016A82146A3
S315080030A01BF0A1FC224683B2054608212C4800F0F5
S315080030B083FF2C4B1B786BB907AD102120461BF0FC
S315080030C09CFD2946204601F047FC95E80F0010258F
S315080030D084E80F00244EABB222460821234800F0AC
S315080030E06BFF3378CBB9224B02200193D723214AB1
S315080030F000932149214B00F0AFFCFEF7E9FF90F859
S315080031004F301BBB1E4B02200193DB23194A009349
S3150800311019491A4B00F0A0FC18E0FEF7D9FF90F801
S315080031204F30C3B123462A46BDF811109DF810004A
S315080031300EF028FB50B1134B02900193D0230220C6
S3150800314000930C4A0D4B0C4900F086FC12B0BDE802
S31508003150704002B070473378002BCED1C3E700BF6A
S3150800316014890208C13B0020C03B00201E890208C2
S31508003170538902083189020849890208F28A020835
S315080031806E890208888802082DE9F04F2DED028B1A
S3150800319095B00DF1100888E8030011461846174641
S315080031A01C461BF050FC002844D0B64BB64A019387
S315080031B0F52304200093B549B54B00F04DFC0122D8
S315080031C0B44B1A7017F0FF0600F0B180012E25786F
S315080031D000F0B080013EF6B204F101093B462246F2
S315080031E00821AD4800F0E8FEAC4B032001934FF4EC
S315080031F0A073A54A0093A549A54B029500F02CFC9F
S315080032001C238DF8383002231B2D8DF839508DF884
S315080032103A3000F0028200F2AA80042D00F04182C2
S3150800322000F28C80012D00F01B819D4200F04A813E
S31508003230002556E1FFF700FD0579002D38D0984B9B
S3150800324025460193FF2304208F4A90490093904B0B
S3150800325000F002FC204606A901F094FB0AAE06AB74
S315080032601A4603CAB24228606960134605F1080582
S31508003270F6D123787B2BA5D0FEF72AFF90F84830A5
S31508003280002B9FD11D238DF8383000238DF8393057
S315080032908DF83A308DF84F3014AB13E90F008DE8EE
S315080032A00F00DDE90E2398E80300FFF7EDFE29E39A
S315080032B07C4B0420019340F21513734A009373491B
S315080032C0734B00F0C9FB26787A2EDBD1112F15D067
S315080032D0754B042001934FF494736B4A00936B4922
S315080032E06B4B00F0B9FB1C238DF8383003238DF89F
S315080032F039608DF83A308DF84F50CDE7631C1D467E
S31508003300184606A901F03EFB2B4606AA0AAE154644
S3150800331003CDB542186059602A4603F10803F6D171
S31508003320102322460821614800F046FE4AE7B146C6
S31508003330FF2553E74FF000094E464FE71A2D7FF455
S3150800334077AF5B4B0420019340F281134F490093FA
S315080033504D4A4F4B00F080FB0F212046FFF714FD26
S31508003360002800F0CA8007238DF83A3060E77A2DE6
S3150800337000F08A824ED8612D00F0CD81622D7FF44F
S3150800338057AF4C4B0420019340F2AD233E4A0093BD
S315080033903E493F4B00F060FB042E71D899F8002097
S315080033A0012A00F05282032A6AD1434B8DF83B204A
S315080033B093F818B093F819A093F81A9093F81B800D
S315080033C093F81CE093F81DC09F7FDE7F93F820508A
S315080033D093F8214093F8220093F823109B8C8DF8DC
S315080033E03CB08DF83DA08DF83E908DF83F808DF865
S315080033F040E08DF841C08DF842708DF843608DF835
S3150800340044508DF845408DF846008DF84710ADF8C4
S31508003410483035E27B2D7FF40BAF284B042001930F
S315080034204FF44773184A19490093194B00F014FBD7
S3150800343006212046FFF7A8FC0546002876D16488B1
S31508003440FEF746FEB0F84A30A34268D1102F17D1CE
S3150800345001248DF83A40FEF73BFE80F8484040E0EC
S31508003460174B0420019340F24F13074A009307496C
S31508003470074B00F0F1FA032E8DF83A507FF6D8AED6
S31508003480032371E7858902083189020849890208F8
S31508003490FC8A0208C13B0020DD890208E689020889
S315080034A09B890208AE890208C0890208CB890208EE
S315080034B04A8A0208C28A0208583A0020E28A0208A2
S315080034C0FF890208AE4B0420019340F27713AD4AF8
S315080034D00093AD49AD4B00F0BFFA032301258DF8E3
S315080034E038308DF84F5014AB13E90F008DE80F00F4
S315080034F0DDE90E23DDE90401D7E6D4F80160B4F866
S315080035000580E779657AFFF77FFB8078B0FA80F463
S31508003510FFF77AFB83786409332B00D00CB10423B8
S3150800352022E7FFF771FB8378022B01D105231BE7FE
S31508003530FFF76AFB8378082B01D1062314E707EE09
S31508003540908AB8EE677ADFED927A87EE278A18EEC8
S31508003550100A18F08DFC8F4BCDE9020101934FF448
S31508003560D47304200093874A884B874900F074FA7D
S31508003570DFED897AB4EEE78AF1EE10FA06D4DFEDCC
S31508003580877AB4EEE78AF1EE10FA0BDD844B022057
S3150800359001934FF4D6737B4A00937B497B4B00F02B
S315080035A05BFA45E6FFF730FB0123A0F803808DF8A8
S315080035B03A30FFF741FB2D010570FFF70BFB06605C
S315080035C0FFF708FB0772FEF783FD332380F86630A2
S315080035D0FEF77EFD0446FFF717FB94F86630837006
S315080035E0FFF72EFBFFF7FAFAFFF712FB39463046CC
S315080035F000F098F96B4B597A1A7A186842EA012250
S31508003600997A42EA014222F07F42596800F0C4FDE5
S3150800361000F0D2FDFEF7DEFF0AE6634B04200193B5
S315080036204FF4F273574A58490093584B00F014FA6E
S31508003630FFF7EAFA83780F2B24D84BB3013B0E2BFE
S3150800364026D801A252F823F01F3500081F350008B6
S31508003650913600081F3500081F3500089136000806
S31508003660913600081F350008913600089136000883
S315080036709136000891360008913600081F35000873
S315080036801F350008222B3FF44AAF312B3FF447AFD2
S31508003690FFF7BAFA02238370FFF7BAFAFEF7C2FFFA
S315080036A0C6E5424B2846019340F21723354A009354
S315080036B03549364B00F0D0F90C2F7FF6E1AE0721DD
S315080036C02046FFF761FB054600287FF428AFB4F8CB
S315080036D00140FEF7FDFC90F86730022B0FD0FEF78D
S315080036E0F7FC90F86730042B09D0FEF7F1FC90F848
S315080036F06730052B03D009238DF83A30F1E6FFF73A
S3150800370083FA8578002D7FF418AF173CC62C8CBF3A
S3150800371008230123F0E7264B0420019340F25723A0
S31508003720184A00931849194B00F096F9102E3FF6DF
S31508003730A7AE99F80060032E3ED0042E6FD0012E56
S315080037407FF49EAEB4F905001A4DB4F90370B4F9C6
S315080037500710B4F90920B4F90B30B4F801406880B1
S31508003760AC800024298128460E21EF806A81AB812E
S315080037702C80FFF709FB8DF83A60E88158E500BF11
S31508003780258A02083189020849890208FC8A020842
S3150800379000007A44618A02089A99993ECDCC8C3FFA
S315080037A06C8A0208C23B0020788A02088E8A0208C0
S315080037B0B38A0208583A0020607AA17A94F801A0E0
S315080037C094F8029094F8038094F804E094F805C0FD
S315080037D0A779E679257AE27A237BB4F80DB04C4CC2
S315080037E084F8200084F8211004F118000E2184F8CA
S315080037F018A084F8199084F81A8084F81BE084F8D5
S315080038001CC06777A677E57784F8222084F82330EA
S31508003810A4F824B0FFF7B8FAE0840123A4E5607899
S31508003820A178E278A3880024394D85F8280085F820
S31508003830291085F82A20062185F82B4005F128004D
S31508003840AB85FFF7A1FAE885E7E7314B8DF83B2012
S31508003850B3F90460B3F90650B3F90240B3F90800A6
S31508003860B3F90A10B3F90C30ADF83C60ADF83E5028
S31508003870ADF84040ADF84200ADF84410ADF846301A
S3150800388060238DF83830D3E4224B042001934FF49B
S315080038903C73214A21490093214B00F0DDF8FFF7DC
S315080038A0CBF90379002B7FF43AAEFFF7C5F901236C
S315080038B00371FFF7C5F904F110050AAA1346206833
S315080038C06168083403C3AC421A46F7D101238DF860
S315080038D03A3000238DF84F3014AB13E90F008DE80A
S315080038E00F00DDE90E2398E80300FFF7CDFB0DF185
S315080038F0290001F029F8FEF7EBFB0A9BC3F30F2317
S31508003900A0F84A3015B0BDEC028BBDE8F08F00BFB9
S31508003910583A0020D08A02083189020849890208E3
S31508003920FC8A020870B588B00D460646FFF752F9BC
S315080039300660FFF74FF90572FFF750F90023114C9F
S315080039403046214663602360C4F80730FFF786F8DF
S31508003950E37903200793A3790B4A069363790B4906
S315080039600593E37865720493A378039323880293F7
S31508003970074B01933C230093064B00F06DF808B003
S3150800398070BD00BFC23B0020108B0208278B0208BF
S31508003990308B02085E8B020870B56FF02F03002586
S315080039A00C4C2560237007236370EC236560C4F80C
S315080039B007506372FFF70EF906462046FEF7E4FF46
S315080039C03060FFF707F9637A0372FFF707F92846AD
S315080039D070BD00BFC23B002030B585B001AB83E89F
S315080039E007000C4C03CB1A889B786160A37222816E
S315080039F02060FFF7EFF805462046FEF7C5FF28606A
S31508003A00FFF7E8F8637A037205B0BDE83040FFF7C0
S31508003A10E5B800BFC23B002038B5064C012594F82E
S31508003A20F23023B11BF04DF884F8F45038BD84F811
S31508003A30F350FBE7EC22002010B5064C94F8F23060
S31508003A402BB11BF03FF8002384F8F43010BD84F83E
S31508003A50F330FBE7EC2200202DE9F04F07468FB044
S31508003A60084699460D46924623F0E6FC0023052FA4
S31508003A708346CDE90A33CDE90C330893ADF82430F3
S31508003A8017D9AB4B1C687CB94FF40F72A949AA4BDE
S31508003A900291AA49CDE90332CDE900212046A84A78
S31508003AA0A849FFF7D9FFFEE74FF40F72A249A148CC
S31508003AB0A047DFF8C88298F8F130002B00F017818C
S31508003AC098F80030BB42C0F01281284600F0AEF9E3
S31508003AD0B842C0F00C81284608F1010123F0DBFC4E
S31508003AE0002800F004811AAB0793FFF795FF98F8B2
S31508003AF0F540954E64B13146944A002000F028FB03
S31508003B00934B311853F82720044600F021FB044450
S31508003B100121384600F0D8F938B18E4B20463119C4
S31508003B2053F8272000F014FB04440221384600F01D
S31508003B30CBF9D0B1204631192A4600F009FBBBF172
S31508003B400F0F04440BD82021CBF10F020AA823F04B
S31508003B501CFB204631190AAA00F0FAFA044420464A
S31508003B6031197A4A00F0F4FA04441C21384600F068
S31508003B70ABF9002848D031192046774A00F0E8FA10
S31508003B8004210444384600F09FF990B100F0CCFABD
S31508003B9031190246204600F0DBFA1821044438465B
S31508003BA000F092F928B120463119684A00F0D0FA97
S31508003BB004440821384600F087F990B11AF083FFCB
S31508003BC031190246204600F0C3FA1021044438464B
S31508003BD000F07AF928B1204631195C4A00F0B8FAA3
S31508003BE004441021384600F06FF938B11AF06DFF19
S31508003BF031190246204600F0ABFA04442046311932
S31508003C00564A00F0A5FA0444E021384600F05CF96B
S31508003C1000284AD031192046514A00F099FA202145
S31508003C202518384600F050F990B1711952462846C1
S31508003C3000F08EFA40210544384600F045F974191B
S31508003C40002857D0474A2846214600F081FA0544FD
S31508003C508021384600F038F9B0B10521189B424A50
S31508003C6008A819F0DFFC7119284608AA00F070FAAE
S31508003C7040210544384600F027F928B1284671192D
S31508003C80324A00F065FA05444021384600F01CF92E
S31508003C9028B1284671194A4600F05AFA05442846BA
S31508003CA0324A711900F054FA2C18C4F5806130199B
S31508003CB0079B199A19F00AFD0444B4F5806F21D8B8
S31508003CC00028B8BF4FF4806440F2FB33621DB2F59A
S31508003CD0806F88BF1C4698F82030B3B1002324496A
S31508003CE01948335523F0D7FB78B9FFF7A5FE0FB06F
S31508003CF0BDE8F08F8021384600F0E6F80028A7D006
S31508003D00124AA0E74FF48064DEE798F8F5302BB145
S31508003D1020463119174A00F01BFA04443119204687
S31508003D20154A00F015FA211807481AF0C5FEDCE70F
S31508003D30E42300209C8B0208AA8C0208B68B020892
S31508003D407C8B0208978B0208CD3B0020488C020822
S31508003D50DC8C0208F48C0208D88B0208DA8B02087D
S31508003D60DD8B0208DF8B0208E18B0208288C02082B
S31508003D700C230020E58B02086ADA0208EC220020F0
S31508003D801FB50B4B93F8F02072B1012283F8F1208E
S31508003D90084B03200293084B084A0193F423084969
S31508003DA00093084BFFF758FE05B05DF804FB00BF0B
S31508003DB0EC220020EA8B0208F18B02087C8B0208B1
S31508003DC0978B02088F8C020870B5052804460D46A5
S31508003DD086B017D90E4B1E687EB94FF49F720D49EF
S31508003DE00D4B02910D49CDE90332CDE9002130464C
S31508003DF00B4A0C49FFF730FEFEE74FF49F7206495F
S31508003E000448B047084B363443F8245006B070BD12
S31508003E10E42300209C8B0208CE8C0208B68B02088D
S31508003E207C8B0208978B0208EC220020F0B5074627
S31508003E3087B0B0B91D4B1B6873B94FF4EF721C49B4
S31508003E401C4B02911C49CDE90332CDE900211B4ADE
S31508003E501B49FFF701FEFEE74FF4EF7215491448B8
S31508003E609847184D95F8F030EBB1FFF7D5FD2E467B
S31508003E70002496F8513083B11E22384606F13201E5
S31508003E8023F0E2FA48B904EB44142C4494F8314080
S31508003E90FFF7D2FD204607B0F0BD0134052C06F128
S31508003EA02106E6D1F4E70524F4E700BFE423002061
S31508003EB0178C0208B68C0208B68B02087C8B02089F
S31508003EC0978B0208EC22002070B5052804460D469B
S31508003ED086B017D9104B1E687EB940F2DB220F490F
S31508003EE00F4B02910F49CDE90332CDE90021304647
S31508003EF00D4A0E49FFF7B0FDFEE740F2DB220849FE
S31508003F000648B0470A4B363453F824301D4214BFCE
S31508003F100120002006B070BDE42300209C8B020817
S31508003F209A8C0208B68B02087C8B0208978B0208CB
S31508003F30EC220020074B83F8F20050B193F8F320E7
S31508003F4093F8F43013B922B11AF0BBBD0AB91AF0C6
S31508003F50B9BD7047EC220020F8B5164D95F8F0303B
S31508003F602BBB1AF0A7FD0446F8B90120FFF7E2FFBC
S31508003F704FF480730522A5F8F4302B4626462746CB
S31508003F8085F8F34003F8322B18461F22002123F048
S31508003F90FCF803460136052E00F8017CC77703F1C5
S31508003FA02103F1D1012385F8F0302046F8BD00241D
S31508003FB0FBE700BFEC2200202DE9F04F2DED028B28
S31508003FC000250F464F49984691F8F13087B008EE1C
S31508003FD0100ACDE9045503926BB10B78032B0AD965
S31508003FE0013123F058FA30B1FFF716FD464E454524
S31508003FF006D3FFF721FD07B0BDEC028BBDE8F08FB5
S315080040007B19013BCDE900534FF4806118EE103A55
S3150800401030463E4A19F006FBB0F5806F88BF4FF46C
S315080040208060A946AA464FF0000B84B2BBB25F4532
S31508004030029324D820463119354A00F089F84FF002
S31508004040000A0444DFF8DCB0A4B2029A1FFA8AF325
S315080040509A423BD840F2FF33621CB2F5806F88BFA4
S315080040601C462C4A3119204600F072F8204481B2C9
S3150800407030461AF021FD029B2B449DB2B7E7D04586
S315080040801EDD039B082113F80A30234A04A819F0F9
S31508004090C9FA2046311904AA00F05AF80BF10103AF
S315080040A020441FFA83FB5B0784B206D120463119E8
S315080040B01A4A00F04DF8204484B20AF1010AB5E71D
S315080040C00822174904A823F0D3F9E2E7C84513DD07
S315080040D0039B082113F8093004A8A3F120025F2ADC
S315080040E028BF2E235A4619F09DFA2046311904AAEC
S315080040F000F02EF80444A4B20AF1010A09F10109F4
S31508004100A3E700BFEC220020CD3B00202A8C020842
S31508004110478C02086ADA0208408C0208488C0208B2
S31508004120468C02084A8C020813B5074C05F05CF861
S315080041306A4605F0E7F82046009A044919F0A6FAF7
S31508004140204602B010BD00BFCD3F00200C8D0208EE
S3150800415070B529B92C210C4B0C4A0D4818F0A2FB56
S315080041603AB11446431A204614F8015B2DB9801A51
S3150800417070BD2D21074B054AEFE7CE18B6F5806FBF
S31508004180F5D201F8015BEEE70F8D0208388D0208BB
S31508004190138D0208348D02081FB501AC84E80700A8
S315080041A0044B94E8070003C323F8022B120C1A7079
S315080041B004B010BDF023002007B50D4B0D4A01933E
S315080041C07A23032000930C490C4BFFF745FC00208B
S315080041D00B4B4FF40051186000F00EFB4FF4E03122
S315080041E04FF4005003B05DF804EB00F005BB00BFC8
S315080041F0668D0208448D02085E8D0208858F0208C6
S31508004200002400202DE9F04F82468FB014201AF0C2
S315080042105EFC4FF4005500270646B5FBF0F5B84698
S315080042204FF6FF7BA84501D1012579E014223846CF
S3150800423004A900F005FBBDF810305B4512D10DF15D
S31508004240100C634614244FF0010913F8012B013CA6
S31508004250FF2A18BF4FF0000914F0FF04F5D1B9F191
S31508004260000F03D108F101083744DBE7D64604AD51
S31508004270BEE80F000FC5DEF80030ADF810402B6021
S3150800428014251CF8013B013D1C4415F0FF05A4B29A
S31508004290F7D1ADF8104000F0ABFA08FB06640288C7
S315080042A0B4FBF2F302FB1343ABB9B4F5005F3BD2A0
S315080042B000F09EFA0188204600F09EFA58B1284B75
S315080042C0029401934FF4BC7300930120254B264AB0
S315080042D02649FFF7C1FB1422384604A900F0A6FABE
S315080042E000282FD0B8F1000F1AD01422002109A8EF
S315080042F022F04BFF6FF0010000FB06441422204613
S3150800430009A900F093FA58B1194B012001934FF40B
S31508004310D373154A00931549124B0294FFF79CFB79
S3150800432028460FB0BDE8F08F00F062FA01882846EB
S3150800433000F062FA0028CED0094B029501934FF49B
S31508004340C373C1E70A4B0120019340F2B313064A2F
S3150800435000930649034B0297FFF77EFB4D46DFE7BE
S31508004360748D0208598F0208448D02085E8D020872
S315080043708F8D0208014B1868704700BF0024002083
S315080043802DE9F34100242D4EDFF8CC803460C8F8BF
S31508004390004000F025FA00F02BFA058800F028FA0C
S315080043A0007A284418F0EEFA054658B9244B01203D
S315080043B00193DF23234A00932349244BFFF74CFB41
S315080043C001242AE000F014FA037AE7B2BB420CD9BA
S315080043D000F00EFA027A0134B5FBF2F302FB13532E
S315080043E0002BEFD13D44C8F80050D8F80040002C07
S315080043F0E6D000F0FDF9164D02880021204622F08D
S31508004400C4FE28461AF0A5FB044650B96B68083561
S3150800441095E807003360FFF7DFFA204602B0BDE8EB
S31508004420F0810C4B01200193FE23064A00930649AE
S31508004430064BFFF711FB0024EFE700BF002400201E
S31508004440AC8D0208448D02085E8D0208788F02083A
S31508004450E8230020C58D0208FC230020F0B55D4B3B
S315080044608BB0019340F22A2304465B4A02900093DC
S3150800447003205A4B0D465A49FFF7EEFA0DF1120280
S31508004480204604A91AF042FB10201AF020FB044625
S3150800449000F0AEF9534B1E680388B3FBF4F3B6FB82
S315080044A0F3F203FB1263002B3DD1BDF8106000F058
S315080044B09FF90388BDF81200734303F5005304FB04
S315080044C000341022204606A900F0BAF9464B029499
S315080044D001934FF4FD73404A00930320434B404930
S315080044E0FFF7BAFA102306AA08214148FFF764FD28
S315080044F0102106A8FEF748FC00285DD17DB12A46A2
S3150800450006AB08AE1C4603CCB44210605160234685
S3150800451002F10802F6D120681060A38893808023F0
S3150800452000206B7154E0701E0DF1160205A91AF0F1
S31508004530EDFABDF81060BDF81430B34217D12D4A14
S31508004540BDF81230106806AE04FB0304234604F1D6
S315080045501007324618685968083303C2BB42164624
S31508004560F7D1254B0294019340F20B23B3E700F0F1
S315080045703FF90388BDF81200734303F5005304FBA3
S315080045800034234606AE04F1100732461868596807
S31508004590083303C2BB421646F7D1184B0E4A01939D
S315080045A040F21623032000930D49104B0294FFF79F
S315080045B053FA1023224697E7114B012001934FF433
S315080045C0E973054A009306490E4BFFF745FA0120A1
S315080045D00BB0F0BDE98D0208448D0208468F02082B
S315080045E05E8D020800240020FF8D02082A8F02082B
S315080045F048850208FC230020228E0208458E020800
S31508004600688E02080C8F02082DE9F043684D0446AF
S315080046102B688FB0B3F5D25F00F0C88010201AF06F
S3150800462056FA804600F0E4F806880AAA234604F1FA
S31508004630080CB6FBF8F61446174618685968083386
S3150800464003C763453A46F7D118680E2138609B8838
S315080046502046BB80FEF798FB0DF12602ADF8360022
S3150800466009A928681AF052FABDF8263003200493DF
S31508004670BDF824304F4A03932B684F4902934F4B9A
S315080046804F4F019340F2572300934E4BFFF7E4F93F
S315080046901023224608214C48FFF78EFCBDF8263029
S315080046A043B9D7F8009000F0A3F8FF2102884846DE
S315080046B022F06BFDBDF826003A680DF1380E08FBAE
S315080046C000229446234603CB7345CCF80000CCF869
S315080046D004101C460CF1080CF4D13C4B02920193D1
S315080046E040F2632303200093324A364B3249FFF7E0
S315080046F0B3F9BDF82630013EB34248D1BDF824606F
S3150800470000F076F8048800F073F8744304F5005452
S315080047100188204600F070F858B12D4B012001930E
S3150800472040F26D23234A00932349264B0294FFF750
S3150800473093F93968079100F05BF8079902882046D3
S3150800474000F074F858B1234B0120019340F2762308
S31508004750184A009318491B4B0294FFF77DF91E4827
S31508004760FFF750FD50B11D4B01934FF42073009392
S315080047700120144B0F4A1049FFF76EF900202B68E9
S31508004780154A01332B6053600FB0BDE8F08341F63C
S315080047903F232A689A42F1D10F48FFF733FD0028D4
S315080047A0ECD00E4B019340F28D23E0E70120EBE7B6
S315080047B000240020448D02085E8D0208908E0208AF
S315080047C0FC230020F98E020848850208B08E0208EC
S315080047D0748D0208BA8E0208E8230020D58E0208D6
S315080047E008B5024800F036F8C0B208BD0424002017
S315080047F00048704704240020F8B506460D460024F4
S31508004800094F3888B5FBF0F3A34201D80020F8BD5C
S315080048107B68334404FB00301AF0D7F910F0FF0028
S31508004820F5D10134EDE700BF0424002008B5034B99
S315080048305B6818441AF0CDF9C0B208BD04240020FC
S3150800484008B5034B5B6818441AF0CAF9C0B208BD2C
S315080048500424002004230372034B43604FF40053DF
S3150800486003800020704700BF00200A08F0B51D4DE0
S315080048700646082185B005F12800FEF785FA1A4F85
S31508004880044618B995F82830FF2B13D144F65A0375
S315080048902B8554236B853B784BB9144B0220019327
S315080048A04423134A00931349134BFFF7D5F80423FF
S315080048B00124AB85AB8D3046104A114918F0E6FE47
S315080048C03B7863B90F4B032001934F23084A0093A3
S315080048D00849094B0296FFF7BFF801233B702046AB
S315080048E005B0F0BD583A0020DD3F0020B78F02081A
S315080048F0938F0208AE8F0208E68F0208803A0020DE
S31508004900D68F0208E08F020808B550220020064913
S315080049101AF06EF90023054843600360C0F80730B3
S31508004920BDE80840FFF7A2BF583A00201D0F002037
S3150800493008B50B46034909680144184622F0FEFBF0
S31508004940002008BDE40A00204278024B9A730278D8
S31508004950DA737047280F002037B50446074D0191D2
S315080049608022284606491AF082FE22460121284658
S31508004970019B03B0BDE830401AF096BE1024002013
S31508004980280F002037B50446074D01918022284696
S3150800499006491AF087FE224600212846019B03B0E5
S315080049A0BDE830401AF080BE10240020280F0020F1
S315080049B0012208B5074B1A700022074B1A70042209
S315080049C0064B1A701F22064B1A7003F0E3FC054BC0
S315080049D0186008BD380F0020DE3F0020390F002080
S315080049E03A0F00203424002008B500F02DF8124BA9
S315080049F012498B4212D30020114B12498B4218D30D
S31508004A00FCF7B2FA186850F82240586840F8224075
S31508004A10013298688242F5D30C33EAE70022F8E7B8
S31508004A201C6844F8220001325C68A242F8D30833B5
S31508004A30E4E70022F8E700BF58DE020864DE020851
S31508004A4064DE020864DE02084FF400414FF0FF30CE
S31508004A50114B124A10B59A60D3F8882042F47002B6
S31508004A60C3F888200E4A916601F1884101F5005283
S31508004A7010660C4850660220C3F8D000BFF34F8F6B
S31508004A80BFF36F8F08244FF440330748C0F88041BE
S31508004A90D36004600B6110BD00ED00E00000000863
S31508004AA0009000507FFF070000E100E0014B186806
S31508004AB0704700BFEC0A0020084B1B6F03F0070382
S31508004AC0022B04D0032B05D0012B05D0FEE7044B9F
S31508004AD018687047034BFBE703487047008000508F
S31508004AE0EC0A0020F00A0020002D310108B5FFF776
S31508004AF0E3FF054B1B6FC3F303330133B0FBF3F03E
S31508004B00024B186008BD00BF00800050E80A00206C
S31508004B100048704700B4C404014B1868704700BFCA
S31508004B20F00A0020054B1860054B1B6F03F00703BE
S31508004B30032B01D1FFF7DABF704700BFF00A002048
S31508004B400080005000487047002D3101014B18685D
S31508004B50704700BFF40A002005490A68131805487B
S31508004B6083428CBF4FF0FF320B601046704700BF80
S31508004B70F80A0020000001202DE9F04F9A46564B0E
S31508004B8085B01B7806460F461546DDF83C909DF81D
S31508004B9044B0DDF85080002B00F08D80072A00F223
S31508004BA08C800E9B002B00F08880B9F1000F00F076
S31508004BB08480129BB3F5006F7FDC012802D1109B1D
S31508004BC0002B7AD0454B03EB05131B7B002B76D0C5
S31508004BD0434C10220021684622F0D7FA04EB45140C
S31508004BE01022002F59D13946204622F0CEFA43F238
S31508004BF010036380BBF1000F03D1E37843F003038E
S31508004C00E370374A0E9B02EB451CCCE90193129BD5
S31508004C106901013BC3F30A009DF84C30012E03F0ED
S31508004C2003034FEA836343EA001E53582D48CDF821
S31508004C3000A000EA03004EEA0003535041D11323B3
S31508004C400CF1100ECCF80C309CE80F008EE80F0023
S31508004C506FF00301DCF81C20109B61F39F02012F03
S31508004C60CCF81C20CCF8143003D1CCF81890CCF82A
S31508004C7004300027194A290102EB051342F801807E
S31508004C80159A28465A60694622469F605E7301F067
S31508004C90B1FE384605B0BDE8F08F0021204622F067
S31508004CA074FA4FF444736380BBF1000FA9D1E3781B
S31508004CB043F03003A4E70C48ECE70C48EAE70C4855
S31508004CC0E8E7B8F1000FD4D19CF8023068F3041372
S31508004CD08CF80230CDE700BFDF3F002038240020E3
S31508004CE0B82400200F80FFF3028000F0018000F056
S31508004CF0078000F038B5124B05461B78DBB1E0B1EA
S31508004D001AF073F90F4A00231146147B54B92B6025
S31508004D1001251A0101EB03131D738C501AF06BF968
S31508004D20204638BD0133082B02F11002EDD11AF0E6
S31508004D3062F90548F5E70548F3E70548F1E700BFD6
S31508004D40DF3F002038240020048000F0028000F0B5
S31508004D50018000F0154B13B51868002301908DF8F3
S31508004D6004301AF042F9124B1C7824B11AF043F9B0
S31508004D70104802B010BD01221A701AF03CF90E4B09
S31508004D8001A81C731C7783F82C4083F83C4083F8F1
S31508004D904C4083F85C4083F86C4083F87C400823D9
S31508004DA08DF8073001F0F4FD2046E2E7F68F020899
S31508004DB0DF3F0020038000F038240020204B2DE937
S31508004DC0F0471F6D5A6D1F4C174010D54FF0004124
S31508004DD01D4A1165D868C0F304200301E35804EBA3
S31508004DE000125BB3BDE8F047002152681847012658
S31508004DF00025DFF85480DFF85490374217D023682F
S31508004E00C8F850609BB1A168284601316268A16064
S31508004E109847637B012B0AD148B909EB45131A7BDE
S31508004E2060F341021A731A7F60F341021A7701355B
S31508004E30082D4FEA460604F11004DED1BDE8F087D6
S31508004E40000004503824002000200450B824002014
S31508004E5070B5044601250B4E04B970BD94FAA4F04A
S31508004E60B0FA80F005FA00F306EB001224EA030410
S31508004E705368002BF0D0117B11B191689847EBE786
S31508004E809847E9E7B825002008B51E2001F04EFA34
S31508004E9028B14FF08042074BC3F880211A601F20C3
S31508004EA001F044FA28B14FF00042024BC3F88021C2
S31508004EB01A6008BD00E100E0F8B505460F4616463B
S31508004EC01AF093F8104B05F0FC02D3F824140023CB
S31508004ED0EC1804F00304144321FA04FC1CF0010F37
S31508004EE007D00133042BF3D1FF241AF084F82046A7
S31508004EF0F8BDFF2CF9D00122044B03EB0413C3E9D8
S31508004F0001761A73F1E700BF00C00350B8250020E8
S31508004F10074BD3F82404D3F8202403F50053104094
S31508004F2000F0553020F05020C3F82004FFF790BF5A
S31508004F3000C00350074BD3F82404D3F8202403F504
S31508004F400053104000F0AA3020F0A020C3F8200437
S31508004F50FFF77EBF00C00350024B1968024B186862
S31508004F600FF0E6BD000B0020FC0A002037B59200C2
S31508004F7004460D46019222F05BFD431C0BD060B936
S31508004F8029462046019A22F0C9F80028044808BF95
S31508004F90002003B030BD0348FBE70348F9E700BF2C
S31508004FA010E000F021E000F024E000F010B504461F
S31508004FB022F046FD431C10D088B901F011FE2346A5
S31508004FC020F003002044984201D1002010BD53F878
S31508004FD0042B0132F7D00348F8E70348F6E70348FD
S31508004FE0F4E700BF0EE000F021E000F024E000F056
S31508004FF008B519F0F3FF014B186008BDF82D00201D
S31508005000014B186819F0EEBFF82D002038B5054693
S31508005010B0B1B9B1B2B1B2F5006F13DC19F0E5FF62
S3150800502095F84C3003F0FF041BB119F0E4FF06486D
S3150800503038BD012385F84C3019F0DDFF2046F7E727
S315080050400248F5E70248F3E7032000F0012000F0E4
S31508005050022000F02DE9F04F1E46002387B080F8A5
S315080050605430109B0446436390F85C308946924658
S31508005070C663002B38D14FF4406305686B614369FA
S31508005080092B03D905F12C08443506E00BBF05F1B9
S31508005090200805F1240838353C3567694FF0010BBF
S315080050A0082F94BF00270127204619F056FF134BF7
S315080050B05246CDE90273216B4346A06A04940196D1
S315080050C0CDF800B019F036FE00232A46CDE90333A1
S315080050D0CDE901674B46E16A606ACDF800B019F080
S315080050E00FFE07B0BDE8F08F012BFAD1006819F062
S315080050F075FE256805F13C08C6E700BF1DEF0108E7
S315080051002DE9F04716460022436390F85C300446C2
S31508005110894686B080F85420C663002B38D14FF4F0
S31508005120406305686B614369092B03D905F12C08AF
S31508005130443506E00BBF05F1200805F1240838358B
S315080051403C3567694FF0000A082F94BF00270127EE
S31508005150204619F002FF134B216BCDE9027304F1C7
S3150800516038024346A06A04940196CDF800A019F0C7
S31508005170E1FD01232A460093CDE903AA4B46CDE972
S315080051800167E16A606A19F0BBFD06B0BDE8F08701
S31508005190012BFAD1006819F021FE256805F13C08B3
S315080051A0C6E700BF1DEF010801292DE9F84321D8FC
S315080051B01F4B204E1C68204FDFF88080803C14F17E
S315080051C0800F01D1BDE8F883D4F800900521B145D8
S315080051D00CBF3D464546484619F050FF19F0FEFEFD
S315080051E02B6843F018032B6019F0FCFED4F88040B6
S315080051F0803CE4E702390129E4D80D4B0D4E1C68C2
S315080052000D4FDFF83880803C14F1800FDAD0236820
S31508005210B3420CBF3D46454619F0E0FE2B6823F025
S3150800522018032B6019F0DEFED4F88040803CEBE7CB
S31508005230AC2E00200000045A8CC403506CC40350E2
S315080052402DE9F0436A4BD1F800908FB09945054691
S315080052500C460DF1180840F0E5804746654ECDF836
S3150800526014800FCE0FC796E80F00103687E80F0098
S315080052700FCE01AF0FC7002D00F0B78084220021A2
S31508005280284621F082FF23684B4510D05A4E5B4BC7
S315080052901B681BB95A495B4803F0E4FA574805F1FD
S315080052A0800119F029FD30460FB0BDE8F08354227D
S315080052B02B6001232A6527464FF48812DFF860E140
S315080052C085F85C302E1DC5E90BE20FCF0FC697E8AF
S315080052D00F0086E80F00637E012B08BF8DF81D308E
S315080052E0A37E23B1012B69D104238DF81230227EC7
S315080052F0E368012A69D1444A93429CBF05238DF885
S31508005300353000238DF81130404B01213A200393A4
S3150800531000F066FB0121286D00F062FB2369DA1FA5
S31508005320092AB3D8063B8DF81030237E2BB9E37EC5
S31508005330B3FA83F35B098DF81C300121284619F06E
S3150800534058FD06460028A2D1237A227942EA03426A
S315080053502F4BC3F8A424617A627942EA0142C3F862
S315080053609C24A17AA27942EA0142C3F8A024E27EEB
S31508005370002A40F03181E17AE27942EA0142C3F833
S3150800538090241D22C3F88C24206801A901F0C6F9CF
S3150800539019F02BFE1F4B1A78DAB901221A7019F088
S315080053A02AFE03F05DFEFFF7D5FC002105F1240077
S315080053B0FFF7A0FC014678B1174E68E7022B94D098
S315080053C0032B7FF463AF06238FE700228DF8342082
S315080053D09BE719F010FEE6E705F12800FFF78AFCBF
S315080053E0064600283FF453AFE6E70C4E4FE700BFEA
S315080053F00000045A20900208022000F0AC2E00207B
S31508005400200B0020B02E00203F4B4C0040420F00DE
S3150800541000C00350E03F0020092000F0012000F002
S315080054200100110046466D4F0FCF0FC697E80700DB
S3150800543086E80700002D00F0CD808422002128464A
S3150800544021F0A3FE2368664A934240F09080282202
S315080054502A654FF480220026624FC5E90B722F4653
S31508005460A44647F8043BBCE80F000FC79CE80F00AA
S3150800547087E80F00637E012B08BF8DF82630A37ED0
S3150800548033B1012B40F081804FF40073ADF828301A
S31508005490237E0121012B03BF00238DF825304FF40D
S315080054A0E133E3683A20089300F09AFA0121286D5F
S315080054B000F096FA23691A1F0C2A5BD8033B41466B
S315080054C020688DF8243001F0C3FBA36923F47F0319
S315080054D023F47F4323B92A68936843F4803393609F
S315080054E0227A2379607943EA0243627AA17940EA0B
S315080054F00240A27A94F81BC041EA02413A4A77016F
