:020000040800F2
:10000000C00A0020391A0008C5AC0108C5AC0108B7
:10001000C7B90108C5AC0108C5AC0108C5AC0108E9
:10002000C5AC0108C5AC0108C5AC0108C5AC0108E8
:10003000C5AC0108C5AC010895AA0108C5AC01080A
:10004000C5AC0108C5AC0108C5AC0108C5AC0108C8
:10005000C5AC0108C5AC0108C5AC0108C5AC0108B8
:10006000C5AC0108C5AC0108C5AC0108C5AC0108A8
:10007000C5AC0108C5AC0108C5AC0108895E000823
:10008000C5AC0108C5AC0108C5AC0108C5AC010888
:10009000C5AC0108C5AC0108C5AC0108C5AC010878
:1000A000C5AC0108C5AC0108911C0008C5AC01082D
:1000B000C5AC0108C5AC0108B11D00088D1D0008C4
:1000C000C5AC0108C5AC0108A5780108C5AC01089C
:1000D00099820108F12F0208ED2F02088D7A01089C
:1000E000FD2F0208F52F020871820108F92F02087E
:1000F000D9820108E55C010845830108B95E010861
:10010000C5AC0108C5AC0108C5AC0108C5AC010807
:10011000C5AC0108C5AC0108C5AC0108C5AC0108F7
:10012000C5AC0108C5AC0108C5AC0108C5AC0108E7
:10013000C5AC0108C5AC0108C5AC0108C5AC0108D7
:10014000C5AC0108C5AC0108C5AC01080000000041
:1001500038B5274B274D586A80B218F0BFFA0022F5
:10016000254B1AF0E5F920A3D3E9002318F068F92C
:100170000022224B1AF0DCF918F01AFB0222204B65
:1001800028801A671AF076FE04460021012004F048
:100190008DFF20461AF072FE032001F0E7FBE0B16C
:1001A000184C194920681BF0CAFB1AF089FD1AF097
:1001B00088FDB5F900309FED157A07EE903AF8EE1C
:1001C000E77AC7EE877A17EE900A18F099FA024696
:1001D0000B4620680E491BF0B2FB01220D4B1A7032
:1001E00000220D4B1A7038BD000000000008494085
:1001F00000800450783700200000B03F00005940D4
:1002000000E0035060210020EB3702080000C842E4
:100210000A3C0208EE370020EF3700200000000003
:10022000002370B5404C05468AB0E36318B10088DE
:1002300023600BF0C1FA3D4822F03EFA3C4E3D4BA4
:10024000304633603C4B73601EF097FE0021304611
:1002500011F0A2FC32A3D3E90023A062C4E9062373
:100260001EF096FED4E90623194310434FF0FF33E6
:10027000C4E90601CDE900014FF0FF32A06A22F087
:1002800084FA02224FF0FF31A06A22F083FA0120A3
:100290000BF0A0F84FF4007300222849A06A22F066
:1002A000D1FAB0F5007F38D100239422CDE907338D
:1002B00009933C23CDE9033205939623A06A03A951
:1002C000069311F085FD35B3287C0BF001FC054643
:1002D000F0B9A06A22F097FB0BF0A2FB0BF05CF8E0
:1002E00020B14FF48070002109F00AFE0BF064F891
:1002F00020B14FF40060002109F002FE1EF00EFE56
:10030000012011F09DFC0E4A0E49A06A1EF033FE3A
:1003100028460AB070BDFF20D7E70725F8E700BFE1
:100320000DD5015520000000181D0020690345EC83
:10033000D432002065B20008C8320020C830002046
:100340001FEF01085FEF01082DE9F04F456A0446F1
:1003500010EE10AA2DED048B93B057EC106BDDF866
:100360008080BB46069109920C9375B9102018F055
:1003700017FC0246606220B9A74BEA21A7481AF091
:1003800037F8C0E901550560C560636A196851B165
:100390005A680123204693404A608B6019F048FB5D
:1003A000636A00221A603B1EADBF0023012223F0C6
:1003B000004BC8F800309A4BB8BFC8F8002033EAA9
:1003C0000B031BD142F20F730C9A1360CBF3130390
:1003D000334300F08F85219B63B9924B22E0924B0F
:1003E00001930833219A1360019813B0BDEC048B7C
:1003F000BDE8F08F8B4B01930333F3E7002200231A
:10040000504659461AF0FCFA80464BEC19AB58B1ED
:1004100001230C9A1360219B002B00F06885834810
:100420001860431E0193DFE7CBF30A5510AA11A908
:1004300020464BEC10AB19F07DFD08EE100A002DA4
:1004400000F0828019EE903A5646A5F2FF35CDF8BD
:100450003880C3F3130343F07F5747F4401700225B
:10046000734B3046394617F0EBFF65A3D3E9002301
:100470001AF05EF864A3D3E9002317F0E3FF064601
:100480000F46284618F02AF961A3D3E900231AF091
:100490004FF802460B463046394617F0D3FF064662
:1004A0000F4618F085F900220090002330463946A7
:1004B0001AF0B0FA50B1009818F010F932463B46E5
:1004C0001AF09EFA10B9009B013B0093009B162B7B
:1004D00059D8009A574B03EBC20351EC190BD3E9DF
:1004E00000231AF097FA00284FD0009B013B00939D
:1004F00000230B93109B5D1B6B1E059349BFC5F139
:10050000010300230493002354BF04930593009B2D
:10051000002B3CDB059B009A13440A9205930023B1
:100520000793069B092B00F28980052BC5BF043B6E
:10053000002501250693069B023B032B00F28980D0
:10054000DFE803F02E3B395ADDE910531D4405F274
:100550003243202BC6BFC3F1400305F21240C3F162
:10056000200305F1FF35C5BF0BFA03F326FA00F0AF
:1005700006FA03F0184318F0A1F801230646A1F18A
:10058000F8770E936BE70123B3E70B90B2E7049B78
:10059000009A9B1A04935342079300230A93C0E7DF
:1005A00000230893099B002B56DC01231A46CDE952
:1005B000023309920CE00123F3E70023099A089320
:1005C000009B134402930133012B0393B8BF012313
:1005D0000022606A4260042202F1140641689E42D1
:1005E0003ED9204619F0E4F9019000283CD1124B85
:1005F00002464FF4D571C1E60123DFE7AFF3008077
:1006000061436F63A787D23FB3C8608B288AC63F18
:10061000FB799F501344D33F89860208A0860208C5
:100620000000F07F858602087C8602085986020851
:100630000000F83F388802081E87020801250023C1
:10064000089506934FF0FF330022CDE902331223C1
:10065000AFE701230893F5E7099BCDE90233B7E73C
:10066000013152004160B7E7636A019A1A60039B47
:100670000E2B00F29D80002D00F09A80009B002B35
:1006800032DD03F00F03B64A02EBC303D3E900895E
:10069000009BD8054FEA231716D5B24B07F00F077A
:1006A0000325D3E9082351EC190B1AF06BF88246A5
:1006B0008B46AC4E57B942464B46504659461AF007
:1006C00061F882468B4628E00225F2E7F90708D553
:1006D000404649460135D6E9002319F029FF8046F6
:1006E00089467F100836E5E700F09B80009B0225D5
:1006F0009C4F5E429A4B06F00F02361103EBC20389
:1007000051EC190BD3E9002319F012FF00238246A4
:100710008B46002E7AD1002BD3D10B9B002B00F0FF
:1007200082800022904B504659461AF073F90028F7
:1007300079D0039B002B76D0029B002B36DD009BEB
:100740005046594600225F1E884B19F0F1FE0135D4
:1007500082468B46029E2846D04617F0BFFF52467F
:100760005B46D94619F0E4FE0022814B17F06AFE81
:100770008246A1F1507B002E58D100227D4B40468D
:10078000494617F05DFE52465B46804689461AF0A0
:100790005FF9002840F0938252460BF10043404637
:1007A00049461AF037F9002840F087825BEC19AB14
:1007B000119B002BC0F24881009A0E2A00F344815D
:1007C000674B03EBC203D3E90089099B002B80F23E
:1007D000D580039B002B00F3D18040F06D82002276
:1007E000644B4046494619F0A3FE52465B461AF058
:1007F00025F9039E3746002840F043823123019DAE
:1008000005F8013B009B013300933EE2F20705D55A
:100810000135D7E9002319F08BFE01237610083744
:1008200077E7022579E7009F039E94E701994C4BF7
:10083000314403EBC6030D91089953E902230029C3
:1008400043D000204C4919F09DFF52465B4617F0FB
:10085000F7FD019D82468B464946404617F0A8FFAA
:10086000064617F03BFF024630360B4640464946E7
:1008700017F0E6FD52465B4605F8016B8046894657
:100880001AF0C8F8002863D142464B46002036498A
:1008900017F0D6FD52465B461AF0BCF8002840F02F
:1008A000B5800D9B9D4281D00022304B5046594669
:1008B00019F03EFE002282468B46404649462B4BAD
:1008C00019F036FE80468946C6E75046594619F06B
:1008D0002FFE0D9B82468B46019D0F934946404655
:1008E00017F066FF064617F0F9FE02460B46404633
:1008F0004946303617F0A4FD0D9B05F8016B804684
:100900009D4289464FF0000224D11B4B5046594668
:1009100017F098FD02460B46404649461AF098F8F3
:10092000002873D152465B460020134917F088FD1A
:1009300002460B46404649461AF06CF800283FF440
:1009400035AF0F9D6B1E0F9315F8013C302BF8D07F
:10095000009749E0054B19F0EBFD80468946BDE75D
:1009600038880208108802080000F03F0000244088
:1009700000001C40000014400000E03F56465F4667
:10098000019D42464B463046394619F0FBFE17F0B2
:100990000FFF824617F0A2FE42464B4619F0C8FDF3
:1009A000024630460AF130060B46394617F048FD3C
:1009B00005F8016B019E0246039F0B46AE1BB74232
:1009C00035D117F03FFD42464B4606460F461AF01A
:1009D0003FF8D0B942464B46304639461AF010F837
:1009E00010B11AF0010F10D1204618EE101A19F0AC
:1009F0001FF8002300982B7001300C9B1860219B7E
:100A0000002B3FF4F1AC1D60EEE4009F2B461D4629
:100A100013F8012D392A06D1019A9A42F7D13022D2
:100A2000019901370A701A7801321A7090E7002292
:100A3000A44B19F07DFD0022002306460F4619F055
:100A4000DFFF00289DD0CFE7089A002A00F0D5806C
:100A5000069A012A00F3B9800E9A002A00F0B180AC
:100A600003F23343079E049D049A012120461A4451
:100A70000492059A1A44059219F044F80746002D8D
:100A80000CDD059B002B09DDAB42049AA8BF2B4669
:100A9000D21AED1A0492059AD31A0593079B1BB339
:100AA000089B002B00F0AD80002E13DD3946324646
:100AB000204619F0E5F818EE102A014607462046B0
:100AC00019F036F8804618EE101A204608EE108A03
:100AD00018F0AEFF079B9A1B06D018EE101A20469E
:100AE00019F0CEF808EE100A0121204619F00AF894
:100AF0000A9B0646002B40F386801A460146204694
:100B000019F0BEF8069B0646012B7FDD4FF000086A
:100B1000336906EB8303186922F002FDC0F120005F
:100B2000059B184410F01F0000F09180C0F12003D5
:100B3000042B40F38980C0F11C00049B054403444E
:100B40000493059B03440593049B002B07DD18EEDB
:100B5000101A1A46204619F0EDF808EE100A059B07
:100B6000002B05DD31461A46204619F0E3F806460B
:100B70000B9B002B6DD0314618EE100A22F01FFDA2
:100B8000002866DA009B18EE101A0A222046013B64
:100B90000093002318F06EFF089B08EE100A002B4C
:100BA00000F0AF81002339460A22204618F062FF88
:100BB000029B0746002B00F38D80069B022B50DC26
:100BC00088E0109BC3F136034CE7039B5E1E079B36
:100BD000B342B7BF079B9E1B0796F21ABFBF0A9B83
:100BE00000269B180A93039B002BB7BFDDE9032364
:100BF000DDE903359D1A002336E7079E049D089F13
:100C00003DE7079A69E7069B012B18DCBAF1000F54
:100C100015D1CBF3130393B92BF000431B0D1B0528
:100C200083B1049B4FF0010801330493059B01330A
:100C300005930A9B002B7FF46BAF012070E74FF008
:100C40000008F6E79846F4E73FF47EAF18461C30FC
:100C500073E7039B002B37DC069B022B34DD039BE1
:100C60000293029B6BB931460522204618F002FF21
:100C70000146064618EE100A22F0A1FC00283FF7B4
:100C8000BDAD099B019DDB4300934FF00008314649
:100C9000204618F0CDFE002F3FF4A6AEB8F1000FAD
:100CA00005D0B84503D04146204618F0C1FE39466C
:100CB000204618F0BDFE97E600263746E1E700978C
:100CC00037469BE500002440089B002B00F0CA80BB
:100CD000039B0293002D05DD39462A46204619F074
:100CE00029F80746B8F1000F5BD07968204618F064
:100CF0005FFE054628B9874B024640F2EA21FFF71E
:100D00003DBB3A6907F10C010C300232920022F02F
:100D10009BF901222946204619F00CF8019BB846A0
:100D2000074603F10109DDE90123134405930AF0A5
:100D300001030493314618EE100A22F0F5FA4146F9
:100D4000029000F1300A18EE100A09F1FF3B22F080
:100D500036FC3A4603903146204619F05BF8C268EB
:100D6000054602BB014618EE100A22F028FC024696
:100D700029462046079218F05BFE4D46DDE9063213
:100D800043EA0201049B0B430FD1BAF1390F2AD079
:100D9000039B002B02DD029B03F1310A8BF800A0BC
:100DA00075E73846BAE70122E2E7039B002B04DB34
:100DB00006990B4304990B4322D1002AEEDD18EE6D
:100DC000101A0122204618F0B5FF314608EE100A2D
:100DD00022F0F5FB002803DCE0D11AF0010FDDD092
:100DE000BAF1390FD7D139238BF800302B461D4685
:100DF000013B15F8012C392A70D001321A7046E7F0
:100E0000002A07DDBAF1390FEDD00AF101038BF8A2
:100E100000303CE7059B09F801AC994546D018EE37
:100E2000101A00230A22204618F024FEB84508EEC6
:100E3000100A4FF000034FF00A024146204606D147
:100E400018F018FE8046074609F1010972E718F00C
:100E500011FE3946804600230A22204618F00AFE79
:100E60000746F1E7039B0293019D314618EE100AF5
:100E700022F05AFA019B00F1300A05F801ABEA1A98
:100E8000029B934209DD18EE101A00230A22204625
:100E900018F0F0FD08EE100AE7E7029B4FF000089B
:100EA000002BCCBF1D460125019B1D4418EE101AD6
:100EB0000122204618F03EFF314608EE100A22F0CB
:100EC0007EFB002892DC02D11AF0010F8ED12B4656
:100ED0001D4613F8012D302AFAD0D8E6019A9A421D
:100EE00085D1009B0133009331231370CFE60A4B69
:100EF000FFF798BA219B002B7FF471AA074BFFF7ED
:100F000091BA029B002BAFDC069B022B3FF7A9AEE8
:100F1000AAE700BF1E870208588602087C860208DE
:100F200010B5054C237833B9044B13B1044800E0E5
:100F300000BF0123237010BD681F002000000000C7
:100F4000648A020808B5034B1BB10349034800E05B
:100F500000BF08BD000000006C1F0020648A02086A
:100F6000A3F5803A704700BF174B002B08BF134B07
:100F70009D46FFF7F5FF00218B460F461348144AA4
:100F8000121A22F088F80E4B002B00D098470D4B18
:100F9000002B00D098470020002104000D000D48D0
:100FA000002802D00C4800E000BF17F0D5FD20005B
:100FB000290000F0F5F917F0BBFD00BF00000800A4
:100FC0000000000000000000C00A0020A81C002053
:100FD000E43800200000000000000000F0B50368C5
:100FE0009C4A23F47F4323F007039342044685B0D1
:100FF00000F0548109D8984A934214D002F5A022F7
:10100000934200F0ED8005B0F0BD944A934200F0A9
:10101000FE8002F57B029342F5D1406805B0BDE841
:10102000F04000F009BC00210DF10E03084603AAB0
:101030000CF0D2FE054610B3894C8A4920681AF09C
:101040007EFC894920681AF07AFC19F039FE19F003
:1010500038FE864B864A00938649382320681AF06A
:101060006EFC85492B46854A20681AF068FC2846A4
:1010700000F0C2FC824920681AF061FCFEE7814E54
:1010800030460CF0F1FD054610B3754C75492068EB
:101090001AF055FC744920681AF051FC19F010FE42
:1010A00019F00FFE714B724A009372493C2320687D
:1010B0001AF045FC70492B46704A20681AF03FFC34
:1010C000284600F099FC6E4920681AF038FCFEE7CB
:1010D0006D4C6E48214600F0CFFB227802216B4B0D
:1010E00030780CF0FBFD044610B35D4D5D49286877
:1010F0001AF025FC5C4928681AF021FC19F0E0FD83
:1011000019F0DFFD594B5A4A00935A494323286886
:101110001AF015FC58492346584A28681AF00FFC63
:10112000204600F069FC564928681AF008FCFEE7E2
:101130004FF4C86200900346114630780CF0ACFDC5
:10114000054610B3464C474920681AF0F8FB46495B
:1011500020681AF0F4FB19F0B3FD19F0B2FD434B0F
:10116000434A009343494C2320681AF0E8FB424964
:101170002B46424A20681AF0E2FB284600F03CFC6D
:101180003F4920681AF0DBFBFEE7022130780CF0C3
:10119000CFFD054600283FF436AF314C3149206879
:1011A0001AF0CDFB304920681AF0C9FB19F088FD10
:1011B00019F087FD2D4B2E4A00932E4950232068AD
:1011C0001AF0BDFB2C492B462C4A20681AF0B7FBBD
:1011D000284600F011FC2A4920681AF0B0FBFEE70F
:1011E000032000F0C3FB60B11D4D294928681AF0A7
:1011F000A6FB19F065FD19F064FD264928681AF070
:101200009EFB207B05B0BDE8F04000F079BAB0F855
:101210000550B0F80760B0F80970324600793B46D7
:10122000294600F07BFA032000F0A0FB00283FF4E1
:10123000EAAE0B4C164920681AF081FB19F040FD0C
:1012400019F03FFD009733462A46134920681AF0EB
:1012500076FBD8E6A0000601A0000100A00006026F
:101260006021002002380208A83702084F3802081F
:10127000AD370208B6370208C5370208C237020880
:10128000DA370208EA0E0020ED370020CE370020C2
:10129000EB370208F037020804380208032000F098
:1012A00065FB60B1324D334928681AF048FB19F0EC
:1012B00007FD19F006FD304928681AF040FBA079B7
:1012C0002E4C00F051FA022120780CF01DFD05464D
:1012D00010B3274C2A4920681AF031FB29492068AD
:1012E0001AF02DFB19F0ECFC19F0EBFC264B274A09
:1012F000009327497A2320681AF021FB25492B46C1
:10130000254A20681AF01BFB284600F075FB23498C
:1013100020681AF014FBFEE7022120780CF008FD8B
:10132000054600283FF46FAE114C154920681AF0AD
:1013300006FB144920681AF002FB19F0C1FC19F0F1
:10134000C0FC114B114A009311497E2320681AF00A
:10135000F6FA10492B46104A20681AF0F0FA28468F
:1013600000F04AFB0D4920681AF0E9FAFEE700BFD9
:1013700060210020EB3702083B380208EA0E00200B
:1013800002380208A83702084F380208AD370208B1
:10139000B6370208C5370208C2370208DA37020832
:1013A00007B51AF0C3FB3A20012101F047F900F01C
:1013B000FFF900F00BF9032000F0D8FA60B10F4CF0
:1013C0000F4920681AF0BBFA19F07AFC19F079FC81
:1013D0000C4920681AF0B3FA42F2107004F0C0FB16
:1013E00000230146CDE90033074A08481AF043FBC1
:1013F0001AF0A9FB03F00EFFFAE700BF60210020FE
:10140000EB3702085E38020891AA0108841F002009
:10141000036837B523F47F43184A23F00703934248
:101420002AD1052200211620154B0CF0BFFC0546E1
:1014300010B3144C144920681AF081FA134920683B
:101440001AF07DFA19F03CFC19F03BFC104B114AE4
:1014500011490093206859231AF071FA0F492B465D
:101460000F4A20681AF06BFA284600F0C5FA0D49B9
:1014700020681AF064FAFEE703B030BDA000010056
:10148000683802086021002002380208A8370208E4
:10149000963802086E380208B6370208C5370208C7
:1014A000C2370208DA37020810B5234C01F02EFBD0
:1014B00001F02CFD236F23F0070343F003032367A0
:1014C00019F0C3FC1D4B00209B6A9B075EBF0122E5
:1014D0001B4B9A62D4F8203123F0030343F002033C
:1014E000C4F82031D4F8243123F0070343F0020379
:1014F000C4F82431D4F8403123F0030343F002034D
:10150000C4F84031D4F8603123F0030343F0020300
:10151000C4F86031D4F8403223F0030343F00203EF
:10152000C4F84032D4F8003223F0070343F002033A
:10153000C4F8003210BD00BF0080005000C0005051
:1015400000E00050024B0349186800F0E9BC00BFFE
:10155000C00A0020C40A002073B50126154C164AA3
:10156000236B1663002213F0010F144D626203D146
:10157000204619F0EDFC2E6363696B610125104B69
:10158000E5601D7019F076FC04462946284603F0F4
:101590008DFD204619F072FC3A2004F0E1FA002398
:1015A0000146CDE90033074A07481AF040FA02B075
:1015B00070BD00BF008004500090045000A0045093
:1015C000EF370020BBAB01082820002030B50024F5
:1015D000184B85B01C70184B012124201C7001F0A1
:1015E0002DF8234621460322012001F02BFF012183
:1015F00023460846042201F025FF012502220F4B55
:101600000F49C3F89C550420C3F8942500F0F0F866
:101610000C49052000F0ECF810222146684621F024
:101620003AFD694608488DF8045019F098FC05B059
:1016300030BD00BFEF370020EE37002000C0035060
:1016400059150008510100080080045007B5022216
:10165000074B14201A6704F083FA00230146CDE9F2
:101660000033044A04481AF0E2F903B05DF804FBC1
:1016700000D00350B5AB0108482000200048704757
:10168000B82000200D4B00211A4610B5147814B173
:101690005488844210D01631422902F12C02F5D12F
:1016A00000220124197811B91C7058805970013238
:1016B000032A03F12C03F5D110BD00BFB820002090
:1016C00070B506460025074C23782BB16388B342DA
:1016D00002D1204619F074FA1635422D04F12C047B
:1016E000F2D170BDB8200020044B187820B993F8CF
:1016F0002C0008B993F85800704700BFB8200020AC
:10170000012208B5044B83F88B20FFF7BBFFBDE82F
:10171000084000F0E7B800BFB82000202DE9F047EE
:1017200005460E46174698464FF0010A0D4C04F147
:101730008409237863B16388AB4209D12846A68027
:10174000E780A4F8088019F04CFA30B184F801A0C1
:101750002C344C45EDD1BDE8F087284600F0C2F8A6
:10176000F6E700BFB820002010B5044619F07BFA58
:101770002046FFF7A5FF0023054C84F88C3019F0B4
:101780008CFAFFF7B1FF08B984F88B0010BD00BFD9
:10179000B820002000231946044A01330A2BC2E96D
:1017A000001102F10802F8D1704700BF6820002044
:1017B00010B50D4CA8220021204621F06CFC2046DB
:1017C00019F0FEF904F12C0019F0FAF904F15800AF
:1017D00019F0F6F90548FFF7DDFF00F045F805239D
:1017E00084F8A23010BD00BFB8200020173C0208CA
:1017F0000123002230B503FA00F00E4B53F83240BB
:10180000844204D1012003EBC203596030BD013290
:101810000A2AF3D10022074C256825B9656815B955
:1018200043F83200EEE701320A2A04F10804F3D14A
:101830000020EBE76820002008B50123002203FA0E
:1018400000F0084B1968814204D1596811B18847EA
:10185000012008BD01320A2A03F10803F2D1002059
:10186000F7E700BF6820002001460C22014821F064
:1018700048BD00BFF037002038B50D46044670B3B0
:10188000174821F036FD0923013063702070144899
:1018900021F02FFD12490246A01C21F0D5FB104873
:1018A00021F027FD032241F61F01C0B2831CDBB2E9
:1018B000E2548318DBB2E254031DDBB2E152831D14
:1018C000DBB2E254FF22C31DDBB2E25440F26232CB
:1018D00000F10803DBB2E2520DB10A30287038BDC6
:1018E000F03700202DE9F04F074600264FF02C0876
:1018F0004FF00109DFF870A085B0FFF7BFFE08FBCD
:1019000006F4035D23B3FFF7B9FE20444388BB42CE
:101910001ED1FFF7B3FE20444378CBB9384619F007
:1019200060F90546D0B9FFF7A9FE04F10C0300EBFE
:10193000030B41F2883004F013F90390FFF79EFE89
:1019400052460319CDE90055584603991AF06FF82D
:101950000136032ED1D105B0BDE8F08FFFF78EFE22
:10196000204480F80190F3E755AC01080B4B024688
:101970001B788BB10A4B1B78834234BF00200120B7
:10198000084B1B783BB1084B1B7843FA02F212F06C
:10199000010F08BF002070470120F1E7EB0E002087
:1019A000EC0E0020FC370020ED0E0020012208B5CF
:1019B000074B1A700022074B1A700422064B1A704C
:1019C0001F22064B1A7003F09BF9054B186008BDE7
:1019D000EB0E0020FC370020EC0E0020ED0E002066
:1019E00060210020024B0349186819F0A8BF00BF0E
:1019F00060210020233C020870B50C4C0C490646BF
:101A0000206819F09CFF03F07BF90546206803F07D
:101A10006BF93046FFF7E6FF284603F065F92068CA
:101A20000449BDE8704019F08ABF00BF6021002062
:101A3000253C0208273C020808B500F02DF8124B9F
:101A400012498B4212D30020114B12498B4218D3FA
:101A5000FFF78AFA186850F82240586840F8224088
:101A6000013298688242F5D30C33EAE70022F8E7A6
:101A70001C6844F8220001325C68A242F8D30833A3
:101A8000E4E70022F8E700BF6C8A0208788A0208BF
:101A9000788A0208788A02084FF400414FF0FF303C
:101AA000114B124A10B59A60D3F8882042F47002A4
:101AB000C3F888200E4A916601F1884101F5005271
:101AC00010660C4850660220C3F8D000BFF34F8F59
:101AD000BFF36F8F08244FF440330748C0F88041AC
:101AE000D36004600B6110BD00ED00E00000000851
:101AF000009000507FFF070000E100E0014B1868F4
:101B0000704700BFE80A0020084B1B6F03F0070373
:101B1000022B04D0032B05D0012B05D0FEE7044B8C
:101B200018687047034BFBE703487047008000507C
:101B3000E80A0020EC0A0020002D310108B5FFF76B
:101B4000E3FF054B1B6FC3F303330133B0FBF3F02B
:101B5000024B186008BD00BF00800050E40A00205E
:101B60000048704700B4C404014B1868704700BFB8
:101B7000EC0A0020054B1860054B1B6F03F00703B0
:101B8000032B01D1FFF7DABF704700BFEC0A00203A
:101B90000080005000487047002D3101014B18684B
:101BA000704700BFF00A002005490A68131805486D
:101BB00083428CBF4FF0FF320B601046704700BF6E
:101BC000F40A00200000012038B5124B05461B78AE
:101BD000DBB1E0B119F055F90F4A00231146147B2F
:101BE00054B92B6001251A0101EB03131D738C50AE
:101BF00019F04DF9204638BD0133082B02F11002CF
:101C0000EDD119F044F90548F5E70548F3E7054833
:101C1000F1E700BFFD37002064210020048000F0C0
:101C2000028000F0018000F0154B13B51868002306
:101C300001908DF8043019F024F9124B1C7824B16E
:101C400019F025F9104802B010BD01221A7019F0E0
:101C50001EF90E4B01A81C731C7783F82C4083F8E7
:101C60003C4083F84C4083F85C4083F86C4083F838
:101C70007C4008238DF8073001F024FC2046E2E781
:101C80002A3C0208FD370020038000F06421002078
:101C9000204B2DE9F0471F6D5A6D1F4C174010D592
:101CA0004FF000411D4A1165D868C0F304200301BC
:101CB000E35804EB00125BB3BDE8F0470021526823
:101CC000184701260025DFF85480DFF8549037428A
:101CD00017D02368C8F850609BB1A168284601312D
:101CE0006268A1609847637B012B0AD148B909EB70
:101CF00045131A7B60F341021A731A7F60F34102A5
:101D00001A770135082D4FEA460604F11004DED19A
:101D1000BDE8F0870000045064210020002004503A
:101D2000E421002070B5044601250B4E04B970BDB6
:101D300094FAA4F0B0FA80F005FA00F306EB001272
:101D400024EA03045368002BF0D0117B11B1916891
:101D50009847EBE79847E9E7E422002008B51E2002
:101D600001F000F928B14FF08042074BC3F8802101
:101D70001A601F2001F0F6F828B14FF00042024B24
:101D8000C3F880211A6008BD00E100E0074BD3F8DA
:101D90002404D3F8202403F50053104000F05530FC
:101DA00020F05020C3F82004FFF7BCBF00C0035050
:101DB000074BD3F82404D3F8202403F50053104034
:101DC00000F0AA3020F0A020C3F82004FFF7AABF3B
:101DD00000C00350024B1968024B18680FF0F0BAAC
:101DE000FC0A0020F80A002037B5920004460D4690
:101DF000019221F0C9FC431C0BD060B92946204652
:101E0000019A21F011F90028044808BF002003B00E
:101E100030BD0348FBE70348F9E700BF10E000F0DE
:101E200021E000F024E000F010B5044621F0B4FCFD
:101E3000431C10D088B901F01FFC234620F003009A
:101E40002044984201D1002010BD53F8042B0132E8
:101E5000F7D00348F8E70348F6E70348F4E700BF84
:101E60000EE000F021E000F024E000F008B519F0E9
:101E700001F8014B186008BD242B0020014B1868A5
:101E800018F0FCBF242B002001292DE9F84321D8AC
:101E90001F4B204E1C68204FDFF88080803C14F1DF
:101EA000800F01D1BDE8F883D4F800900521B14539
:101EB0000CBF3D464546484619F02CF818F0DAFFAD
:101EC0002B6843F018032B6018F0D8FFD4F880403B
:101ED000803CE4E702390129E4D80D4B0D4E1C6823
:101EE0000D4FDFF83880803C14F1800FDAD0236882
:101EF000B3420CBF3D46454618F0BCFF2B6823F0AB
:101F000018032B6018F0BAFFD4F88040803CEBE750
:101F1000D82B00200000045A8CC403506CC403501A
:101F20002DE9F0436A4BD1F800908FB099450546F2
:101F30000C460DF1180840F0E5804746654ECDF897
:101F400014800FCE0FC796E80F00103687E80F00F9
:101F50000FCE01AF0FC7002D00F0B7808422002103
:101F6000284621F098F823684B4510D05A4E5B4B19
:101F70001B681BB95A495B4803F02AF9574805F119
:101F8000800118F0ABFE30460FB0BDE8F08354225C
:101F90002B6001232A6527464FF48812DFF860E1A1
:101FA00085F85C302E1DC5E90BE20FCF0FC697E810
:101FB0000F0086E80F00637E012B08BF8DF81D30EF
:101FC000A37E23B1012B69D104238DF81230227E28
:101FD000E368012A69D1444A93429CBF05238DF8E6
:101FE000353000238DF81130404B01213A20039306
:101FF00000F024FB0121286D00F020FB2369DA1F8B
:10200000092AB3D8063B8DF81030237E2BB9E37E26
:10201000B3FA83F35B098DF81C300121284618F0D0
:1020200096FE06460028A2D1237A227942EA03428C
:102030002F4BC3F8A424617A627942EA0142C3F8C3
:102040009C24A17AA27942EA0142C3F8A024E27E4C
:10205000002A40F03181E17AE27942EA0142C3F894
:1020600090241D22C3F88C24206801A901F048F9AE
:1020700018F007FF1F4B1A78DAB901221A7018F00E
:1020800006FF03F0A3FCFFF7CFFD002105F12400BC
:10209000FFF79AFD014678B1174E68E7022B94D0FE
:1020A000032B7FF463AF06238FE700228DF83420E3
:1020B0009BE718F0ECFEE6E705F12800FFF784FD4A
:1020C000064600283FF453AFE6E70C4E4FE700BF4B
:1020D0000000045A543C0208022000F0D82B0020D3
:1020E0001C0B0020DC2B00203F4B4C0040420F001B
:1020F00000C00350FE370020092000F0012000F04E
:102100000100110046466D4F0FCF0FC697E807003C
:1021100086E80700002D00F0CD80842200212846AB
:1021200020F0B9FF2368664A934240F0908028224D
:102130002A654FF480220026624FC5E90B722F46B4
:10214000A44647F8043BBCE80F000FC79CE80F000B
:1021500087E80F00637E012B08BF8DF82630A37E31
:1021600033B1012B40F081804FF40073ADF828307B
:10217000237E0121012B03BF00238DF825304FF46E
:10218000E133E3683A20089300F058FA0121286D02
:1021900000F054FA23691A1F0C2A5BD8033B41460E
:1021A00020688DF8243001F09FFAA36923F47F039F
:1021B00023F47F4323B92A68936843F48033936000
:1021C000227A2379607943EA0243627AA17940EA6C
:1021D0000240A27A94F81BC041EA02413A4A7701D0
:1021E0003A4436B2BCF1000F49D11D277601C2F83E
:1021F0003476C2F84C3606F1A04303F57033C3F8C9
:102200004406C3F84816E17AE37943EA0143C2F889
:1022100038360121284618F09AFD064600287FF43A
:10222000B2AE18F02EFE294B1A78BABB01221A70F2
:1022300018F02DFE03F0CAFBFFF7F6FC002105F1B4
:102240002400FFF7C1FC014658B3214E9BE6214A0A
:10225000934201D0204E96E629222A654FF4A0220F
:102260001E480126C5E90B0269E7022B02D14FF493
:1022700080737BE7032BEDD14FF4407376E71C248A
:102280007601C2F83446C2F84C3606F1A04303F595
:102290007033C3F84406C3F84816BAE718F0F7FDE0
:1022A000CAE705F12800FFF78FFC064600283FF437
:1022B0006AAECAE70A4E66E61C22D3E6883C0208EC
:1022C00000C005500200040000C00350FE3700208B
:1022D000092000F000000650022000F00200050076
:1022E000012000F0044BD3F88420D206FBD4D3F8AD
:1022F0008400C0F3811070470040005038B5104B87
:102300000546D3F820310C4603F00303022B0BD013
:10231000032B0DD0012B0FD1FFF7F0FB052305B1E7
:10232000286004B1236038BDFFF71EFC0323F6E7E5
:10233000FFF730FC0223F2E701230020EFE700BFA4
:102340000080005073B50D4600210E4B0191D3F86B
:102350008041064604F00304012C09D0022C0CD065
:102360000C460EB1019B336005B12C6002B070BD0C
:1023700001A8FFF7C3FF0F24F3E7FFF70BFC019061
:10238000EFE700BF0080005038B5184B0546D3F882
:1023900024010C4600F00700062805D8DFE800F00D
:1023A000230B131B1F0F17000023184605B12860CD
:1023B00004B1236038BDFFF7A1FB0523F6E7FFF763
:1023C0009DFB0623F2E7FFF7CFFB0323EEE7FFF7C2
:1023D000CBFB0423EAE7FFF7DDFB0223E6E718F077
:1023E00072FC0723E2E70123E0E700BF0080005012
:1023F00038B5104B0546D3F840310C4603F00303C3
:10240000022B0BD0032B0DD0012B0FD118F05DFC4C
:10241000092305B1286004B1236038BDFFF7BEFB76
:102420000823F6E718F054FC0B23F2E70123002001
:10243000EFE700BF0080005037B50C460021124B7B
:102440000191D3F88432054603F00303022B0ED02A
:10245000032B11D0012B14D101A8FFF74FFF0F233D
:102460000DB1019A2A6004B1236003B030BD01A808
:10247000FFF7BEFF1023F3E7FFF78CFB0223019069
:10248000EEE70123ECE700BF0080005038B5144BA5
:102490000546D3F800020C4600F00700042804D8D3
:1024A000DFE800F01B0A0E1216000023184605B1E3
:1024B000286004B1236038BD18F007FC0923F6E753
:1024C000FFF76CFB0823F2E718F002FC0B23EEE7A2
:1024D000FFF734FB0E23800AE9E70123E7E700BF9B
:1024E0000080005038B5104B0546D3F840320C46FA
:1024F00003F00303022B0BD0032B0DD0012B0FD1C4
:1025000018F0E3FB092305B1286004B1236038BD4E
:10251000FFF744FB0823F6E718F0DAFB0B23F2E79A
:1025200000231846EFE700BF0080005038B5104B7D
:102530000546D3F860310C4603F00303022B0BD0A1
:10254000032B0DD0012B0FD118F0BFFB092305B1D0
:10255000286004B1236038BDFFF720FB0823F6E7AD
:1025600018F0B6FB0B23F2E701230020EFE700BFD2
:102570000080005038B50C46054618F07BFC064B31
:102580009A6A82EA040101EA050454409C62BDE8AB
:10259000384018F073BC00BF00C00050B0F5207F79
:1025A0001FD009D8B0F5007F15D003D868B1B0F5B9
:1025B000C07F0AD000200CE0B0F5607FFAD10B4B51
:1025C000D3F88000C0F3011003E0084B186FC0F38C
:1025D000033001307047054BD3F89000C0F304601E
:1025E000F7E7024B186FC0F38020F2E7008000503D
:1025F0004FF400320E4B014610B500209A66FFF7EB
:10260000CDFF41F6713248430A490B4B88428CBFDB
:102610004FF480100020DC69DA635A6822F440121B
:1026200002435A60E20344BF0022DA6310BD00BFD8
:1026300000900050005A620200000350420910B599
:1026400010D0012A10D00B4B0B4C022A18BF234686
:1026500000F01F0051B103F58053012202FA00F08F
:10266000186010BD1346F3E7044BF1E703F5005380
:10267000F3E700BF68800050608200506480005023
:102680001FB5002280280446019200F00C8100F260
:10269000BF803F2836D9A0F14D04142C02D90198EF
:1026A00004B010BD142CFAD801A353F824F000BFD5
:1026B0002F2800089F2600082F2800082F28000830
:1026C0002F280008F32800084D280008FD280008DE
:1026D0009F2600089F2600089F2600089F260008C6
:1026E0009F2600089F2600089F260008472900080B
:1026F0009F2600089F2600089F2600082F28000814
:102700002F2800083F28CAD801A353F820F000BFA3
:102710002F2800089F2600089F2600089F260008F3
:102720009F2600089F2600089F2600089F26000875
:102730009F2600089F2600089F2600089F26000865
:102740009F2600089F2600089F2600089F26000855
:102750009F2600089F2600089F2600089F26000845
:102760009F2600089F2600089F2600089F26000835
:102770009F2600089F2600089F2600089F26000825
:102780009F2600089F2600089F2600089F26000815
:102790002F280008C12800082F280008C128000899
:1027A000F3280008F3280008F3280008F32800089D
:1027B000C1280008C1280008072900084D28000882
:1027C000332900089D2800084D280008C12800086A
:1027D000C1280008C12800089F2600089F2600087D
:1027E0009F2600089F2600089F2600089F260008B5
:1027F0009F2600087F280008C1280008C12800087B
:10280000C1280008472900083D290008C128000800
:10281000B0F5806F6DD024D8B0F5007F47D009D8CF
:10282000B0F5807F74D0B0F5C07F7FF438AFFFF78C
:1028300085F93AE0B0F5607F48D03FF630AFB0F5AB
:10284000207F3DD0B0F5407F7FF429AFFFF776F9C8
:1028500002464FF42070FFF7A1FEB2FBF0F04008F3
:1028600023E0B0F5C06F64D00ED8B0F5A06F45D0AE
:10287000B0F5B06F47D0B0F5906F7FF410AF002186
:1028800001A8FFF781FD0AE7B0F5E06F56D0B0F57B
:10289000F06F58D0B0F5D06F7FF401AF002101A8E0
:1028A000FFF7F4FDFBE6FFF72FF90190F7E6FFF7DE
:1028B0002BF902462046FFF771FEB2FBF0F0F4E779
:1028C000FFF73CF902464FF42070F4E7204BD3F8B1
:1028D000803003F00303012B04D0022B06D04FF409
:1028E0006070E8E7FFF710F90246F8E7FFF706F92E
:1028F000FAE7002101A8FFF701FDD0E6002101A8B9
:10290000FFF79AFDCBE6002101A8FFF71BFDC6E605
:102910004FF0E02302921B695B0705D5FFF70EF924
:102920000290029B0193BAE603A902A8FFF760FD9B
:10293000F7E7002101A8FFF75BFDB0E6002101A841
:10294000FFF7D0FDABE6002101A8FFF7EFFDA6E6FB
:102950000080005008B58020FFF792FE034B98429C
:102960009EBF4FF48032024B1A6708BD005A6202C4
:1029700000A000501FB50023B0F5607F019300F068
:10298000A88036D8522800F08B8016D82D280BD876
:1029900023280ED9243809280BD8DFE800F08181DC
:1029A00081810A0A7C0A438B3D280ED03E2800F024
:1029B000A680019805B05DF804FB802853D009D8A3
:1029C000542800F097805C28F3D1002001A9FFF77C
:1029D000ADFDEEE7B0F5807FEBD102934FF0E02341
:1029E0001B695B0761D5FFF7A9F80C230393039BD1
:1029F0004DE0B0F5D06F5DD019D8B0F5A06F79D0AB
:102A00000AD8B0F5806F4BD0B0F5906FD1D10020CF
:102A100001A9FFF7B9FCCCE7B0F5B06F3BD0B0F53A
:102A2000C06FC6D1002001A9FFF7E2FCC1E7B0F5F5
:102A3000006FECD005D8B0F5E06F60D0B0F5F06F66
:102A4000C2E7B0F5086FB4D12F4BD3F8003103F0D3
:102A50000303022B33D0032B35D0012B37D1FFF7E3
:102A600083F8032313E0284B1B6F03F00703013B9C
:102A7000032B9ED801A252F823F000BF932A00082E
:102A80008D2A0008632A0008CB2A00080523019339
:102A90008FE70223FBE7002001A9FFF753FC88E73B
:102AA000002001A9FFF72AFC83E703A902A8FFF78A
:102AB0009FFC9CE7002001A9FFF7E8FC79E7FFF7FE
:102AC0006DF80823E3E718F0FEF80723DFE701239A
:102AD000DDE70D4AD2F8802002F00302012A05D07A
:102AE000022AD4D1FFF70AF80623D0E7FFF70CF843
:102AF0000D23CCE7002001A9FFF79EFC59E7002039
:102B000001A9FFF7EFFC54E7008000504FF40022CA
:102B1000034B5A66012203F580439A62704700BF57
:102B20000090005008B5FFF725FF082811D009389C
:102B3000012811D84FF40012094B4FF6FF705A6666
:102B400003F5D8335B6A13F0010F18BF4FF4FA7026
:102B500008BD044B1888FBE74FF6FF70F8E700BF8D
:102B600000900050D80E002070B504468020FFF77A
:102B700001FF032800F082804FF40022444B022121
:102B80005A6645F60E03434AC2F88030424B9962BA
:102B9000012103F580539962936DD903FCD4D4E9E4
:102BA00000131B0543EA0163E17B94F822500B43B9
:102BB000217B94F8236043EA0143617B43EA0133BC
:102BC000A17B43EA811313619169D4E904031B06D5
:102BD00043EA806301F000410B43A17EE07E0B439A
:102BE000217E43EA0143617E43EA01239361E36965
:102BF000126A002B0CBF0021082122F00D0242EACC
:102C0000030242EA8002234B42EA01021A6294F86C
:102C100020204FEA421232D1986A94F8211020F015
:102C2000330042EA0112024342F001029A621B4A57
:102C3000996D32EA0101FBD1022217498A621A65B5
:102C40009A6D5200FCD41869A26820F4700040EA22
:102C500002504FF0004218610F4B9A611DB90222D9
:102C600003F580539A6216B901220D4B9A6294F8CB
:102C700024301BB1074B0B4AC3F8802070BD996A02
:102C800021F0330131430A4342EA4502EEE700BF37
:102C90000090005000C0005000D0005003000140E0
:102CA00000E00050F1A7FFFF1E4B13B5996A9A6D23
:102CB00012F4803F18BF01241B4A18BF94620224FB
:102CC00094629B6DDB0303D5164A936D9C07FCD57C
:102CD0000222154B134C1A65A36D5B00FCD4134BF9
:102CE000A26993F9003022F47F020344000222F427
:102CF0007F4280B283F30803104340EA0340A0619F
:102D000002200191FFF736FCA36D019913F4803F77
:102D100005D0012002B0BDE81040FFF72BBC02B087
:102D200010BD00BF00C0005000D00050FF37002091
:102D3000014B93F900007047FF370020012215482E
:102D4000154B816A9A62826D02F00302032AFAD15E
:102D500002229A621A650F4B9A6D5200FCD40F4AF8
:102D6000986D32EA0000FBD101220B4B1A65A3F5E6
:102D700080539A6D9007FCD49A6D9207FCD502227D
:102D8000054B1A65034A936D9B07FCD50320FFF79B
:102D9000F1BB00BF00C0005000D000500300010094
:102DA000F0B5D0E901434FF480061A4A417805781E
:102DB00056664FF4D156022702F5B8325662164EC7
:102DC0004F2977604FF0010728BF4F2106F5805645
:102DD00077601669F603FCD441EA052151611B01B5
:102DE000417B43EA04230B43017B43EA41039360A5
:102DF000C37B817B1B0143EA4113417C0B43017C74
:102E000043EA41035360837C13B16FF4D15353629F
:102E1000F0BD00BF0090005000100250014B188020
:102E2000704700BFD80E0020014B1880704700BFCC
:102E3000D60E0020B0F5207F10B50C4657D008D82C
:102E4000B0F5007F48D003D830B3B0F5C07F23D0B1
:102E500010BDB0F5607FFBD129492A48D1F8FC208C
:102E600012F080721EBFD1F8FC3023F08073C1F8DD
:102E7000FC30D0F88030611E23F0300444EA0114A5
:102E8000C0F88040002AE3D01D4AD2F8FC3043F05D
:102E90008073C2F8FC30DBE717F0C4FF17F0D0FFF7
:102EA0004FF48031184B174A1967136F611E23F4D2
:102EB000704444EA01341467FEF740FE0446FFF70D
:102EC00011FAC0F10201204617F0B4FF00F02EF80D
:102ED000BDE81040FFF73EBD0A4A0139D2F89030F4
:102EE00023F0F85444EA0164C2F89040B0E7054B7F
:102EF000013C196F21F4806141EA84241C67A7E733
:102F000000ED00E0008000500090005008B5012165
:102F1000022000F077F817F085FF17F091FF4FF4CB
:102F20008032014B1A6708BD0090005008B54FF47D
:102F3000C070FFF7A5FBBDE80840044988428CBF7C
:102F4000022101214FF42070FFF774BF80F0FA02D4
:102F5000034B5868C0F30800003818BF01207047C1
:102F600000ED00E0054B420953F8223000F01F004D
:102F700023FA00F0C04300F00100704700E100E0D8
:102F8000044A4178536F23F4407343EA01235367A3
:102F9000704700BF004000500A4A10B5136904464C
:102FA00043F00403136102F031FB17F073FF30BFED
:102FB00017F071FF02F04CFB1CB9BDE81040FEF7A2
:102FC000BDBD10BD00ED00E0084A10B51369044610
:102FD00043F00403136102F019FB30BF02F038FB29
:102FE0001CB9BDE81040FEF7A9BD10BD00ED00E022
:102FF000034A0179D36E23F030030B43D366704745
:1030000000400050F8B504461C4BD3F88420D1068C
:10301000FBD4D3F88430C3F381139C422CD0FEF749
:1030200073FD012C064602D1214617F003FF17F06D
:1030300021FF4FF00072124B07465A66204617F0E8
:103040002DFF4FF480630D4D621E93402B676B6E16
:103050009A0103D4D5F884309B060AD5384617F078
:103060000DFF022C08D13046BDE8F840002117F0D2
:10307000E1BED5F88430EAE7F8BD00BF004000505B
:103080000060005007B518B90191FEF73DFD0199A8
:10309000064B1B7843B1064B984205D8012003B07C
:1030A0005DF804EBFFF7AEBF0220F8E70038002020
:1030B000005A62020278034B012100201A70FFF7C8
:1030C000E1BF00BF003800204FF0004238B5254B6B
:1030D0005A664AF6CD33244AD2F89440C2F890306A
:1030E00004F0010448BB136C13F00103FBD15268D8
:1030F000D20709D400251CB11B4B1C4AC3F89020F1
:103100001FF05DFB284638BD0121194A5160164960
:10311000184AC86BC50705D4934201D10725EAE7D1
:103120000133F6E79342E5D1F8E70131D36B13F0B1
:10313000080305D08142F8D1F0E700210D48F5E7FA
:103140008142EBD020210A4A51630121A2F580522D
:1031500051600549074A486B8006E3D49342DDD0AD
:103160000133F8E700900050004009503254FFFF4F
:103170000060095040420F004FF0004238B5184B34
:10318000184C5A664AF6CD33D4F89450C4F89030AF
:103190004378154A5B0043F0010305F00105D36352
:1031A000236CDB07FCD46368827823F0700343EA66
:1031B00002136360C278437943EA0223E360027931
:1031C000837943EA022323610078FFF77DFF15B17D
:1031D000064BC4F890301FF0F2FA012038BD00BF52
:1031E0000090005000400950004000503254FFFF52
:1031F00010B517F058FE202341F2020203610023AC
:10320000C360836042614FF4A02207498361426238
:1032100000F50052C36103628362C36243630365C6
:10322000D164036310BD00BFFF3F0D03F8B5054631
:10323000144639B9304B984214BF08465420FFF762
:103240001FFA0146AB68D8072CD5B1FBF4F16E68C4
:103250004C1E16F0010623D02821284617F01FFE29
:10326000AB6C9A0718D1AB6CDB0717D4AB6C13F0BF
:10327000020F0CBF00270627284617F014FE286906
:1032800020F07F4040EA04642C61AEB13946284604
:10329000BDE8F84017F03EBE0527EDE70927EBE74C
:1032A0003746ECE76B68A86800F0E00040281BD0C8
:1032B00003D8D8B120281BD0F8BD60281AD08028A8
:1032C000FAD1012304FB03F24901B1FBF2F10B4AED
:1032D0002039284602EAC102012117F0E0FD2A63E5
:1032E000BDE8F84017F0DBBD0623EBE71023E9E764
:1032F0000823E7E70423E5E70000045AF8FF7F000E
:10330000436870B504460D460E691BB140F6FF7167
:1033100017F0C5FD2046FFF76BFF22696B7BA97B89
:1033200022F087020B43134343F08003236116B35B
:103330002A692369117823F0F8030B43117F43EACC
:10334000C113117943EA4113517A43EA0113D17B46
:1033500043EA81132361E168D2E9053021F0F041AD
:1033600021F4702103430B43117B527B43EA8123F9
:1033700043EAC233E360A368EA7B23F00303134309
:1033800043F00103A3602EB32A69A168538803F4B4
:10339000C0430B43A3605179A36843EA8123A36030
:1033A0009379D079616A1B01000203F0700300F485
:1033B000E06021F4772121F4EE6103430B43117A9D
:1033C000527F090301F4E04112040B4302F470221E
:1033D0001343636263692A7B23F00F031343636122
:1033E000B6B12B695A89A2615A7B3AB1134A944209
:1033F00001BF9A7B124902F00F024A66DA7B3AB1AA
:103400000E4A944201BF1B7C0D4A03F00F03136662
:10341000D5E901122046FFF709FF0521204617F0E4
:103420005CFD282117F03BFD2B78A36317F037FDD7
:10343000A36CDB4313F4405FFAD170BD0000045A63
:10344000009003502DE9F04105460F461E46904678
:103450004AB101233022194C8B4002FB00443EB399
:1034600004F5825423600F21072F05EB450388BF25
:10347000A7F108044FEA0313114895BFBC00A4004C
:1034800004330C3308FA04F2A140184417F047FD46
:10349000B8F1000F0AD101213020084A01FA07F7DC
:1034A00000FB05223EB102F582521760BDE8F081B3
:1034B00004F50154D6E702F50152F6E700C00350C7
:1034C00030C0035010B5012104462020FFF7B6F8A4
:1034D00001212120FFF7B2F80122114B5A60227816
:1034E00012069A606178A27842EA01429A61FF224C
:1034F0009A6200229A631A644FF000425A654FF0B4
:10350000FF324FF0806103F500531A65054AC2F897
:103510008011E3781B01DBB282F81A33116010BD11
:103520000000045000E100E04FF40032054B9A66C1
:1035300041F6713203F51C33DA63012203F50053BF
:10354000DA6070470090005041F671320121064B5D
:10355000DA6303F50052D1600022DA634FF40032DF
:10356000A3F518339A66704700000350CB784A7869
:1035700010B55B010C7843EA82030A79234343EADE
:1035800002130C22424302F1B0421363012C02BF2A
:103590008A78024B43F8202010BD00BFEC80035016
:1035A00008B54FF0B0435A6802B960B15B680BB11F
:1035B00017F0C6FC4FF0B04130B10120074B586006
:1035C00017F0BEFCC86008BD17F0BAFC0223CB6040
:1035D00017F0B6FC0122024B5A60F4E700100058C5
:1035E000002000584FF0B0435B6870B50BB117F086
:1035F000A7FC0121104B4578596083780679002B90
:10360000C37814BF02240024002B14BF042200221C
:103610004379DB0043EA06132B43234313434FF064
:10362000B0429360054B59600378002B14BF0B46E2
:103630000223D36070BD00BF002000580010005866
:103640004FF48032084B5A6603F5E6235B69C3F3F7
:10365000461203F00F010A434280C3F30342C3F34F
:10366000033342700370704700900050014B986C18
:10367000D96C70470080E00F0120034B9B680A3330
:1036800003F01F03984070470080E00F012200F50F
:10369000805310B55A6040F6AA6341F205024361B7
:1036A00000230E498360C365C26000F500520361C8
:1036B000C361C36491640A498365884202D0094C9E
:1036C000A04207D18842036502D0064B984201D13F
:1036D000002343650123536010BD00BFFFFF0100BD
:1036E00000C005500000065038B50D46FFF7CEFF6C
:1036F0000122A97B00F580535A602A8A8368002939
:1037000014BF4FF48061002142F0010213432A7D6F
:103710000B43002A14BF4FF00052002283608368DD
:10372000044613438360AB7C5BB11D4AEB7C904243
:103730002DD1A2F51032C2F89031E36D43F0800331
:10374000E3652B7B2046D5E9011243F48053E36007
:1037500017F059FC6B7B0BB1102363616B7D1BB1C0
:10376000A36843F48033A360AB7D1BB1A36843F42B
:103770000043A360EB7D2A7E1B07120503F0E043A4
:1037800002F4E0021343A3652B78636138BD054A58
:10379000904204BFA2F52032C2F8AC31CDE700BFA1
:1037A00000C005500000065038B50446054D1FF016
:1037B0002CF80FCC0FC594E8030085E80300002027
:1037C00038BD00BFE42B002047F6FF739A42F0B5E6
:1037D00066D0012966D8344DCF0015F8313005EB9D
:1037E000C100012B847813D10025C3781B1B9D4297
:1037F00002D3E018C0B2F0BD591B4668A3EB5101DB
:1038000036F911609642D4BF0D4601F1FF33EEE761
:1038100040680028EFD0B0F90030934204DBB0F9E3
:1038200002309342B8BF134682883D44FF2A19BF35
:10383000C8214FF0280CB0F90610B0F908C0A1EB70
:1038400003020CBF0126002692FBFCF26D78324485
:1038500012B2954201DD002A01DA6A1E12B24FF45B
:103860007A7700EBC206F188B668013213FB01617A
:1038700012B221EAE1715C319542B1FBF7F104DD4E
:1038800000EBC206B6888E42EBD200EBC20232F8E1
:10389000040C884228BF0846A04238BF2046A9E74A
:1038A000FF20A8E70020A6E7E42B00200129F0B5BF
:1038B00053D82B4800EBC10410F83110636801297C
:1038C0000FD1E078A478904294BFC4EB0001C4EB20
:1038D0000201001BCAB28242C8BF002233F91200A3
:1038E000F0BD002B39D0A178914202D3B3F9020088
:1038F000F6E7E178B3F900009142F1D9998864784C
:10390000A1F1FF06013C714203F10405E4B27141EB
:1039100003F10C071FFA82FCCEB2B44216D805EBB5
:10392000C1014FF47A756A43B1F902404968521AED
:1039300004EBD47102EB610292FBF4F29042CFDB14
:10394000B3F902009042CBDC10B2C9E737F831E09E
:103950004E1CE645E3D33146DEE70248C0E700BF30
:10396000E42B00200080FFFF08B50448FFF71CFF90
:10397000BDE8084001201EF04CBF00BFA43C020877
:1039800000487047DA0E00207FB51422002101A8FC
:103990001FF081FB044B01A94FF0FF3002931EF092
:1039A0006EFF07B05DF804FB006A180082B06B463A
:1039B00083E80300034A93E8030082E8030002B0AF
:1039C000704700BFFC2B00201B0603F0706300F063
:1039D0000F000902034301F47061120402F4702223
:1039E0000B431343014A1360704700BF0020025C81
:1039F0002DE9F04717460C4688B029B10139B1F5D9
:103A0000806F01D301263FE0244AD66816F4803641
:103A1000FBD140EA01212238112805D8204DC540AC
:103A2000ED4315F0010533D0012541F000413A077F
:103A300002F0805213431943184B596025BB194AB1
:103A400003AB10685168DFF860A003C30223CDE91F
:103A500006350DF10C090DF11408CDF8149098E815
:103A60000E00DAE90005A8470221484617F0C7FC16
:103A70000028F2D00F22E31C009223F0030398E801
:103A8000070047B117F0DBFA304608B0BDE8F08711
:103A900041F00341CBE717F035FBF5E70020025C6E
:103AA00001480200283D0208FC2B00200122054BA2
:103AB0009A60DA68D203FCD4D86820F00F000004C2
:103AC000000C70470020025C014B1868704700BF73
:103AD0000040025C014B5868704700BF0010025C58
:103AE000014B186B704700BF0010025C014B186857
:103AF000704700BF0010025C014B9860704700BF28
:103B00000010025C014B1864704700BF0010025C9B
:103B1000014B5864704700BF0010025C014B5863B2
:103B2000704700BF0010025C0022014B1A60704712
:103B30000010025C024A136843F0010313607047EF
:103B40000010025C43F20402014B1A60704700BF90
:103B50000010025C024A136843F0300313607047A0
:103B60000010025C044B1A6842F480721A601A68F2
:103B700022F480721A6070470010025C024A1368D7
:103B800043F48063136070470010025C034A1368BB
:103B900023F4702343EA0040106070470010025C79
:103BA000044B1A6902605A6942609A698260DB6953
:103BB000C36070470010025C0268044B1A614268DF
:103BC0005A6182689A61C268DA6170470010025CCB
:103BD000024B1A6BD207FCD4186270470010025CCB
:103BE000024B186B00F00E00704700BF0010025C23
:103BF00082B01FB507930A9B04AC8B4228BF0B46CB
:103C000004E907001048D100079948BF0333016059
:103C1000099948BF23F0030323F0704301F0E0410A
:103C2000194341F000518160002102F0E042019C03
:103C3000134343F00053C16004618361416304B0E6
:103C4000BDE8104002B070470000025C3F22034B09
:103C50001A631022DA6103229A6370470000025C43
:103C6000024AD36B9B07FCD4704700BF0000025C84
:103C7000034B986A10F0240018BF0420704700BF5F
:103C80000000025C08B5FFF7F3FF064BDB6B23F483
:103C90007F4323F0EF0303431EBF0122024BC3F80F
:103CA000FC2F08BD0000025C00F0FF3F032208B5B6
:103CB000054B186019615A63FFF7C8FFFFF7D0FF83
:103CC000BDE80840FFF7DEBF0000025C4268034623
:103CD000182A10B50AD0202A1DD0102A2BD1174A35
:103CE000D2F80424D4010AD4012013E0134AD2F8F4
:103CF00004249001F8D50A6842F008020A601048CE
:103D00001A6882424FF000000ED10A6842F0400269
:103D10000A60586010BD094AD2F804245201E3D564
:103D20000A6842F00402E9E7064CA242F2D10A68AE
:103D300042F08002ECE70720ECE700BF0000025CE5
:103D4000013800200238002013B5084CD4F8044490
:103D5000E40508D5009313460A460146002000F00A
:103D60001BF802B010BD0120FBE700BF0000025CA1
:103D700013B5084CD4F80444E40508D50093134661
:103D80000A460146002000F02BF802B010BD0120C9
:103D9000FBE700BF0000025CF0B516465A688DB024
:103DA000102A0D46129F15D17A68102A12D10A4A9C
:103DB00009AC07CA84E8070022462946CDE9054731
:103DC000CDE90344CDE901440448009617F03BFADD
:103DD0000DB0F0BD0720FBE7343D020830000100C4
:103DE000F0B516465A688DB0102A0D46129F15D1AF
:103DF0007A68102A12D10A4A09AC07CA84E8070077
:103E000022462946CDE90574CDE90344CDE90144B4
:103E10000448009617F017FA0DB0F0BD0720FBE735
:103E2000343D02081000010070B598B0002843D05E
:103E30002C4C08AD0FCC0FC50FCC0FC50FCC0FC548
:103E400094E80F0085E80F006D4604AE04F11003FE
:103E500020340FCB85E80F0094E80F0086E80F00B0
:103E6000FFF780FE0420FFF791FEFFF76BFE304660
:103E7000FFF7A2FE002408AE56F8040B0134FFF74A
:103E8000A7FE102CF8D1FFF725FE0328FBD900244C
:103E9000FFF74AFE2646FFF717FE55F8043B0136AA
:103EA0005840042E44EA0004F5D12CB1012206202A
:103EB0000D4B1A7018B070BDFFF754FE0820FFF7C5
:103EC0001BFE0020FFF71EFE0720FFF721FE4FF428
:103ED0000070FFF723FE0820FFF758FEFFF72AFEC9
:103EE0000020E7E7143E02080438002008B5FFF779
:103EF00039FE0122014B1A7008BD00BF03380020B3
:103F000030B589B005AC84E80700FFF7E9FDC305CB
:103F100001D5FFF7EBFF0A4D2B781BB117F006FB1D
:103F200000232B70074B069AD3E901018DE80300AB
:103F300002921B6894E8070017F074FA09B030BDCC
:103F400003380020743E02081FB517F0EFFA04464C
:103F500030B1012206240D4B1A70204604B010BD6A
:103F6000FFF7B2FD0090FFF7AFFD0190FFF7ACFD4A
:103F70000290FFF7A9FD03906846FFF71DFEFFF7CB
:103F8000B5FFFFF7E7FDFFF7F9FDE6E7043800208E
:103F900005289ABF014B185C00207047803E02083C
:103FA00030B5154B87B00293144B0390049346F63B
:103FB00011030D46059300F06DF91428044616D13F
:103FC000684617F087FB4FF0A843032202A95A6303
:103FD00019601D619A63DA6B9207FCD1142C02D12F
:103FE000684617F085FB00F089F9044601E00028D7
:103FF000E9D0204607B030BD042C0020040000208A
:104000002DE9F04FB1B005468C46E9466E4F3B9E18
:10401000DDF8F8E0409C07F1100AC8463868796876
:104020000837A8E803005745C146F6D10EEB020851
:10403000C8F1000909F00F09002E00F0AF807742A7
:1040400007F00F070121DDF8FCB0C4F1100ACDF82C
:1040500010B0059144F0005106914FEA0A2101F495
:10406000F85141F02101079106B96B460893002DE4
:1040700040F09680002C00F0938004AB0993002E52
:1040800000F0908046F000530A93002D40F08D80A0
:10409000002C14BF0123212343EA07230B9308A913
:1040A00042F00053CDF830C03D980D910E934FEA89
:1040B000092343F041030F93109002B10CA9002A89
:1040C00016BF00224FF00052412342EA0E02119126
:1040D000129213933C9B3D4A149310AB15933C4BA7
:1040E0000021169340F6110317933A4B002D08BF99
:1040F0001346189314AB1993374B10221A931123BC
:104100001B931CAB18461EF0C6FF01221D924AF0FD
:1041100080421E9200220346239205B9EB46102CE2
:1041200008BF01230DF1900A102200215046CDF85E
:1041300080B0219322941EF0AEFF002C37D020AB2C
:10414000002125938F4218BF534647F080422692A4
:104150003A9A2CA88A422892299313460CBF4FF012
:1041600080430B46102233432B912A931EF093FF7A
:10417000FEB95346C8442D932CA948F0804318A893
:104180002E93FFF70DFF30B92DB90346A34212D18C
:10419000002818BF2C2031B0BDE8F08F102751E760
:1041A00001236BE747F000536EE7212374E70123F7
:1041B000C6E728ABDEE703F1C0026A4412F8C02C60
:1041C00001331043E2E700BF863E0208983E020832
:1041D000100000209C3E020804000020F0B5C02919
:1041E0009FB0249E4FD0B1F5807F04D0802941D06C
:1041F00029201FB0F0BD40F2344440F21445002E97
:1042000008BF2C462127102501940124029603940F
:1042100004950597259F069706B102AC07940124E3
:10422000089509940A9221220B940C950D92174A35
:104230000AAC0E92164A0F94109242F61102119295
:10424000129313941495159201AA1692CBB112AB46
:104250001793042318931123199316AB1A901B93E9
:1042600040F61103C9081C911AA806A91D93FFF76F
:1042700097FEBEE7002E14BF4FF486644FF48264AD
:10428000C0E70EABE4E70F20B3E700BFA03E020893
:104290001000001038B5164B5A6E42F004025A66F0
:1042A000D3F8802242F00102C3F88022114B5B68F0
:1042B000C3F3080343B14FF0A842D36B13F0430F8D
:1042C000FBD11424204638BD4FF0A843DC6B14F01A
:1042D0004304FBD1084D2B681BB90421284602F08A
:1042E000CFF82B68013343F000432B60EAE700BFAF
:1042F0000080005000ED00E0042C0020014B002065
:104300005B68704700ED00E04FF40052034B002063
:104310009A660322C3F86022704700BF00900050E5
:1043200008B5FFF7E3FBC30708D5FFF759FC0628DC
:1043300004D00A28F5D1FFF7D9FDF2E74FF4005277
:10434000034B00209A660322C3F8602208BD00BF19
:1043500000A000504FF40052084B10B59A6603229B
:10436000C3F8602217F0D2F90446FFF7D9FF0028FE
:104370000CBF20466FF0920010BD00BF00900050AF
:1043800037B5154D2B782BBB0093144B019302AB23
:1043900013E90300FFF70AFB4FF40052104B9A6633
:1043A0000322C3F8602217F0B1F9044617F0E6F8CB
:1043B00040F0004016F015FFFFF7B2FF28B1002CC7
:1043C00008BF0446204603B030BD002CFAD10123BB
:1043D0002B70F7E70024F5E70538002095B50108B4
:1043E00000900050012300F01F02A0F506200949AB
:1043F000A0F550604009934051F820201A4341F83D
:104400002020054951F8202022EA030341F82030FA
:10441000704700BF082C00201C2C00200121A0F5B3
:1044200006230F4AA3F550635B0900F01F0001FA51
:1044300000F052F8231008430A4942F82300D1E95A
:104440000030034488680344C868096903445B1862
:1044500002BFC2E90033C2E902331361704700BFF3
:104460001C2C0020082C00202DE9F04FA9B002924E
:104470001D46DDE9326704460822CDE903014140CB
:1044800021FA02F34B40980702F1080218BF9B0083
:10449000202A1C44F4D18123B4FBF3F303EBC313B0
:1044A000E41A7A4B04F506241B7804F55064002BBB
:1044B00040D1FDF78FFC014620B16FF0910029B08B
:1044C000BDE8F08F4022059008A81EF0E4FD4022D0
:1044D000059918A81EF0DFFDDFF8C891DFF8C8A124
:1044E0004B4603F10F0B102208A9DAF80000CDF8B3
:1044F00000B005931DF027FF00220146059B09F13E
:1045000010090DF1200891424CD1CDF800B01022D5
:10451000DAF8000018A91DF01FFF4FF0000B03464A
:104520000DF160085B4549D1594B9945D8D101221D
:10453000564B1A704FF081084FF00009DFF868A160
:10454000A4F506235349A3F55062520951F82210ED
:1045500004F01F0C21FA0CF1C90744D44E4951F85C
:10456000220020FA0CF010F0010030D0B9F1000F59
:1045700008BFA146A3F6FF448123B4FBF3F303EB8A
:10458000C313E41A04F50624B8F1010804F55064D5
:10459000D6D1029BEBB1B9F1000F1AD0349BC3F80E
:1045A00000906DE058F8040BCDE906230591FFF764
:1045B00019FF069A079B05990132A4E758F8040BE6
:1045C00005930BF1010BFFF729FF059BAAE7029B5F
:1045D00013B96FF08B0072E7349BB9F1000F4ED026
:1045E000C3F800906BE70EB1002333600FB10023D6
:1045F0003B604FF0100B00232A462146DAF80000FA
:10460000CDF800B00DF04AF808BB0EB1C6F800B006
:104610002B68224A934224D166B15FB13B462146C2
:10462000DAF8000018AA0DF08DF880B93B683268FE
:104630009B1A3B60D5E90223DDE90310834208BFE2
:104640008A4216D0A4F50624A4F6FF4494E7144B3E
:10465000984206D01233984203D0133B9842E9D0D7
:104660002BE72146DAF800000DF0B2F80028E1D07F
:10467000AFE7029B13B16B68012B03D0349B1C6026
:1046800000201CE76FF0840019E700BF0638002007
:1046900000710800082C00201C2C0020105D175E03
:1046A000FFDF00F0006D0800F80A00202DE9F04F50
:1046B00087B08246894698461646DDF840B02AB152
:1046C000002B4ED040F26C739A424DD8BBF1010FD3
:1046D0004DD8002406F1100739460120059417F043
:1046E00054FA0546002845D021463A461EF0D3FC30
:1046F00005ABCDE9014300942B46012250464946C3
:10470000FFF7B2FE044680B110F18C0F08BF6FF0C6
:104710008D043A46002128461EF0BDFC284617F0BD
:1047200045FA204607B0BDE8F08F144BC5E902A951
:104730002B60C5F804B02EB13246414605F1100099
:104740001EF082FC0E483B462A46059900680CF094
:104750000DFF18B90598FFF745FEDAE76FF09104F1
:10476000D7E76FF08604DCE76FF09104D9E76FF0CC
:104770008504D6E76FF08C04D3E700BF105D175EA9
:10478000F80A00202DE9F0438DB08146DDE9147868
:104790000C4615461E469BB1B8F1000F05D16FF0CF
:1047A000860420460DB0BDE8F083002FF7D0B7F1A6
:1047B000005FF4D3C3F1005303F580339F42EED87A
:1047C0001022002108A81EF066FC002207AB02930D
:1047D00005AB019306AB21460093484608ABCDE9F3
:1047E0000522FFF741FE04460028DAD10599DEB123
:1047F000A94203D80029D2D115B1D0E70029FBD0B6
:10480000491BB14228BF3146069B0948C8F8001031
:1048100000913A46079900682B440CF03FFF0028AE
:1048200018BF6FF09104BCE7A942E9D2B7E700BF17
:10483000F80A002030B58DB00C4605461022002144
:1048400008A81EF028FC002207AB029305AB0193D9
:1048500006AB21460093284608ABCDE90522FFF7B9
:1048600003FE0446D0B9099B012B1AD0104B0799BF
:1048700018680CF0ADFFB8B9012207980D49A0F5F2
:104880000623A3F550635B0900F01F05AA4051F809
:1048900023506A4041F82320FFF7C0FD20460DB0A9
:1048A00030BD6FF08404F9E76FF09104F6E700BFC4
:1048B000F80A0020082C00202DE9F04389B00D46AD
:1048C00014461F46DDF8488020B96FF0860009B015
:1048D000BDE8F0830029F8D0002AF6D0B8F1000F27
:1048E000F3D0028802F44F43B3F5824F0CBF134656
:1048F0000023DBB202D06FF08500E8E7122B01D075
:10490000172BF8D122F0FF02B2F5E24F40D14288D6
:10491000C8F80020002A36D1E200C8F80020D8F8F4
:104920000020B2F5807FE6D1122B09BF384B002260
:104930001A681B6905EB040608BFD2180023184645
:10494000224412F801CD16F8011D0843B1EB0C0109
:104950000CBF4FF0FF3C4FF0000CB5420CEA0303D4
:1049600043EA0103EDD10028AFD0002BADDA109B54
:104970009C4249D82246294638461EF065FB119BC9
:1049800000201C60A3E70732B4EBD20FC7D09CE72E
:104990002A78042A99D1621ED2005208B2F5807F8B
:1049A000C8F80020A7D1122B05F1010318BF4FF062
:1049B00000094FF0400205934FF000030ABF144E68
:1049C0004E46D6F80C90CDE90623FFF79DFC002853
:1049D0007FF47DAFCDF80C90D8F800300733DB08BA
:1049E000029308AB13E903008DE80300059B96E8EA
:1049F000070016F065FD0646FFF792FC00287FF4DD
:104A000066AF002EB3D060E76FF089005FE700BFAC
:104A1000003E02082DE9F041069F0C461646054669
:104A200010B309B302B9FBB96288B3EBD20F4FEAF6
:104A3000D20819D34C22002128461EF02CFB0D4B26
:104A400027F47E129A4212D1204616F0A4FE0446A4
:104A500038B942463146281D1EF0F6FAC5F82480C2
:104A60002F602046BDE8F0816FF08604F9E76FF013
:104A70008504F6E70002C0032DE9F0410E46144616
:104A80000546002840D000293ED012B90020BDE8DC
:104A9000F08103681F4823F47E13834237D1AF6B44
:104AA000E7B1C7F1100807F128004245284404D2B5
:104AB0001EF0CAFA3C44AC63E8E742461EF0C4FA72
:104AC0001022103C3C19AA63E0D0284605F12801C9
:104AD00016F07DFE0028DAD14644A863102C0CD9CC
:104AE000671E27F00F073A463146284616F06FFE3C
:104AF0000028CCD1E41BC9D03E442246314605F102
:104B000028001EF0A1FAD6E76FF08600BFE76FF02D
:104B10008800BCE70002C0032DE9F04388461F4629
:104B200005468BB070B169B163B10368234923F4C2
:104B30007E1088423ED113F47C1FC3F3054604D097
:104B4000102E03D96FF086042AE0102696422BD847
:104B5000FFF7DAFB044618BBAB6B05F12802CDE981
:104B600001236B6A2A1DCDE904231023CDE9083007
:104B700007AB1A460390069005F13C0901A904A869
:104B8000CDF81C90FFF7F4F80546FFF7C9FB044683
:104B90006DB928B93246494640461EF055FA3E6086
:104BA00020460BB0BDE8F0836FF08904F8E76FF0A2
:104BB0009204F5E76FF08504F2E700BF0002C0033E
:104BC00007B5084B18689A889B7900906846ADF83D
:104BD00004208DF80630FEF7CFFA002003B05DF810
:104BE00004FB00BFA43E020813B50024064A684631
:104BF000536F43F00103536700948DF80440FEF7B0
:104C0000F7F9204602B010BD0040005030B58BB01F
:104C10006C46174D0FCD0FC40FCD0FC495E80300A0
:104C200084E80300134BD3F84C21120317D4D3F8B4
:104C30005041E4B28DF81940FEF77AF8204480F331
:104C400008008DF818000C48FCF794FF6846FDF743
:104C50008BFF3220FEF7E8F800200BB030BD074B89
:104C60001C884FF6FF739C4208BF8C24E2E700BF0C
:104C7000AC3E02080080E00F00F049020001E00FA6
:104C800030B5094D87B001AC0FCD0FC42B6801A81A
:104C900023603F238DF80530FEF782F83220FEF7BF
:104CA000BDF8002007B030BDD43E02086FF004020A
:104CB000502110B50A480B4C12F0800FD3B21BBF25
:104CC00003F00F03043BA3181B1802F101020CBFF1
:104CD00083F800131976432AEED1002010BD00BFDF
:104CE00000ED00E000E100E010B5044616F0C2F867
:104CF000024B1C6016F0C2F8002010BD302C0020C2
:104D000010B516F0B7F8034B1C6816F0B7F820463C
:104D100010BD00BF302C002013B5002301241A461B
:104D200019461846009401F04DFE002300941A46DF
:104D30001946184601F076FE0248FFF7D5FF00201D
:104D400002B010BD240B0020034B02221868002380
:104D50008068194614F080BB080C0020BFF35F8FF9
:104D6000074B5A6A22F480325A62D3F8942022F018
:104D70000102C3F89420BFF34F8FBFF36F8F7047CA
:104D800000ED00E070B52648264CFFF7E7FF8442AF
:104D900008BF4FF08043244A18BF20F01F03D2F809
:104DA000C01018BF203B21F0FF0141F0A001B3F17A
:104DB000005FC2F8C0100CD31C4D1D4E296843F093
:104DC0000103C2F898100131C2F89C60C2F8A0300B
:104DD0002960844210D01548164B0268124923F00E
:104DE0001F0343F00303C1F89820C1F89C30124B15
:104DF0000132C1F8A0300260BFF35F8F05220A4B79
:104E0000C3F894205A6A42F480325A62BFF34F8F3B
:104E1000BFF36F8FBFF34F8FBFF36F8F70BD00BFB6
:104E2000080F0020B810002000ED00E0342C002016
:104E300003000020D7100020E1FFFF3FF8B5144623
:104E4000FFF78CFF1F2C27D90027C2062A4D1CBF55
:104E500020F01F0020302A68CB06284B18BF21F015
:104E60001F01FCB2A24219D8D3F8C04020F01F00A5
:104E700024F47F4444F4807421F01F01C3F8C0403F
:104E800040F00300C3F8982041F003010132C3F859
:104E90009C00C3F8A0102A6000201AE0C3F89840D4
:104EA000D3F89C40D3F8A06024F01F04A04226F061
:104EB0001F0601D1B142EFD0B04201D8A14207D2C2
:104EC000D3F89840013724F0FF04C3F89840C8E7AE
:104ED0002820BFF35F8F0522084BC3F894205A6A3D
:104EE00042F480325A62BFF34F8FBFF36F8FBFF32C
:104EF0004F8FBFF36F8FF8BD342C002000ED00E022
:104F0000BFF34F8F0549064BCA6802F4E0621343B2
:104F1000CB60BFF34F8F00BFFDE700BF00ED00E0A7
:104F20000400FA05054B1A782AB95B78002B14BFE8
:104F30000220032070470120704700BF0F38002077
:104F40000329F8B598BF124B05460E468CBF0024C6
:104F50005C5C032805D8DFE800F002080B0E44F083
:104F600002040C4B1F684FB9F8BD44F00804F8E781
:104F700044F02004F5E744F08004F2E77B681A6807
:104F8000144203D0314628465B6898473F68EAE7F9
:104F9000E83E02085C2C002038B5104D2B78ABB1F0
:104FA0000F4C23781BB100F08BFB002323700020F3
:104FB00016F01AFD0B4C50B100F0D4FB0023012178
:104FC00020782B70FFF7BCFF0123237038BD01222E
:104FD000054B1A702278054B1A70F7E70E3800203F
:104FE00009380020073800200D3800201438002030
:104FF00010B515F03FFF064B04461B781BB1BDE80A
:10500000104015F03BBFFFF7C7FF2046F7E700BF92
:1050100008380020002814BF0121FF21074A137817
:105020000B44137008D0064B1B78012B04D9054B99
:105030001B780BB9FFF7B0BF704700BF0F380020D7
:10504000073800200D38002070B515F013FF124E00
:10505000054633789BB900F0B9FC044620B12846D8
:1050600015F00CFF204670BD0C4815F034FE00F022
:1050700025FF0B4B1C6000F06DFD0A4B186000F023
:1050800009FA16F0B3FC084B0024186001232846E7
:10509000337015F0F3FEE5E70A3800205C2C0020A1
:1050A000642C0020602C0020582C002000292DE9C1
:1050B000F34114BF0121FF21254A00F1FF30135CA9
:1050C0000B4413543AD0234E3178012936D9FFF7D7
:1050D00029FF0128044634D81F4F15F0CBFE3B783A
:1050E0001BB31E4D2B781BB901222A701C4A13706A
:1050F000DFF8708098F8003033B1019000F0E0FAEA
:105100000023019888F8003015F0B8FE012016F051
:105110006BFC15F0AFFE2B782BB1019000F022FB59
:10512000002301982B7000233B7015F0A7FE307808
:10513000A04203D02146FFF703FF347002B0BDE860
:10514000F0810329F3D10228F1D116F053FCEEE7E8
:105150000F380020073800200E38002008380020C3
:105160000D3800200938002010B5044615F082FEE5
:10517000002C14BF0121FF21064A13780B44DBB237
:105180001370B3FA83F3BDE81040034A5B09137050
:1051900015F074BE123800201138002068B515F0E3
:1051A00069FE094B06461B78012B04D815F066FEF4
:1051B0000025284668BD054B1D6800F01DFB054411
:1051C000304615F05BFEF4E707380020642C002021
:1051D00038B54160044615F04DFE054621460448A9
:1051E00015F07CFD2846BDE8384015F047BE00BFED
:1051F0005C2C0020054B1B685843054B00F57420C0
:1052000000F23F20B0FBF3F0704700BF602C00209D
:1052100040420F002DE9FF47EFF3108672B600E021
:1052200000BF15F09FFC002800F09B80704D714F6F
:105230002B7823B10020FFF7EDFE00232B70FFF742
:1052400071FE0446002800F09380841EE4B2012C15
:1052500040F29680FFF766FE0128804604D9664B2F
:105260001B780BB900F0BCF9644CDFF8B0912078E2
:10527000DFF8ACA140450AD0002389F800309AF845
:10528000003013B94146FFF75BFE84F8008099F8BF
:1052900000303BB12378022B04D1002389F8003081
:1052A0001DF0F1FBB8F1010F0FD9DFF84C8198F830
:1052B000003053B9524B1B7823B900F0FBF901229F
:1052C000504B1A70012388F80030207800F07EFAE5
:1052D0009AF8003013B14C4B1B78237000E000BFEC
:1052E00006B962B6EFF3108672B6484B1A7852B11F
:1052F00000221A70444B20781B78984203D1012178
:105300002170FFF71DFE384600F09AFB15F035FCC2
:10531000804600288CD1384F89F800003B789BB13B
:10532000DFF8E0908AF8000099F800301BB100F037
:10533000C7F989F80080002016F056FB00284ED0EF
:1053400000F010FA00233B702B7823B10020FFF708
:1053500061FE00232B7000212078FFF7F1FD002370
:10536000237000E000BF06B962B604B0BDE8F08764
:105370002B78002B3FF46EAFFFF74CFE2C7069E7E3
:10538000002003A900F0A0FB044600287FF462AFD0
:105390001F4B039A1B689A4205D80120FFF73AFE7B
:1053A00001232B7056E71B4BD3F8008000F024FA42
:1053B000039B80449845F0D200F036FA00280CBFD9
:1053C00000230423039943F00203CDE90043384648
:1053D0002346114AA1EB080116F00DFB3AE7012024
:1053E00000F0F4F906B962B6EFF3108672B6A2E7E0
:1053F00013380020382C00200E38002007380020F9
:105400001238002009380020143800200C38002001
:10541000582C0020642C0020F14F00081138002087
:105420000D38002010B515F025FD0022044B1C7826
:105430001A7015F023FD00F087FC2043C0B210BDA8
:105440000B38002073B5114E04463378834212D0D6
:1054500000238DF8043080B102238DF8053001A8B7
:10546000FDF78EFD0A4D402054B1FFF7C3FE2B68B7
:10547000181A2860347002B070BD8DF80500EEE790
:10548000FFF7B8FE2B681844F3E700BFEE0E0020CC
:10549000AC2C002073B5002401A88DF80440FDF762
:1054A00009FE2046FFF7CEFF414A4249136F4248AA
:1054B00003F007030B60D2F80011404D01F0030127
:1054C00001604FF400203E49032B48664FF4003042
:1054D000486601F598318969C1F3400129705ED0B1
:1054E000D2F8203103F00303981E43424341D2F81F
:1054F0002421344C02F00702022A08BF43F00103C2
:105500004FF4C8702370FFF775FE2F4B2F4A1860B9
:105510000A2316682E49013B13F0FF0341F8040BE0
:10552000F9D100EBC003304418442B781060294DAA
:105530006BB323781E4A3BB9D2F8003103F0030362
:10554000591E4B424B412370D2F8003103F0030344
:10555000022B26D0032B27D0012B18D1FCF704FBFC
:10556000A8B11D4B411EDC680023024608461946BF
:10557000C4F30B04194E013404EB8404E4FB06016C
:1055800013F03EF9FFF736FE2B68184428601F2001
:10559000FFF730FE2B681844286002B070BD01236D
:1055A000A5E7FCF7FBFADBE715F08DFBD8E700BFBA
:1055B00000800050742C0020682C00201638002039
:1055C0000090005019380020A82C00207C2C0020CE
:1055D000802C0020AC2C002000C0015040420F0065
:1055E000074A0849D2F8203103F003030B60D2F8D0
:1055F0002431054A03F00703136015F04DBC00BFCA
:10560000008000506C2C0020702C00200E4B1A786B
:10561000C2B100221A700D4B1A6F22F0070242F03D
:1056200001021A67D3F8202142F00302C3F82021B7
:10563000D3F8242122F0070242F00302C3F8242108
:10564000FCF77CBA704700BF17380020008000507C
:1056500008B5134B1B7813B3022016F052FAF0B1C1
:1056600000F064FAD8B10F4B9A6DD10302D5DA6D10
:10567000920714D49B6DDB0711D401220A4B1A70D8
:1056800016F01EFA094B0A4A1860136F23F007033D
:1056900043F003031367BDE80840FCF74FBA08BDA9
:1056A0001938002000C0005018380020782C002045
:1056B000008000500122014B1A70704717380020FB
:1056C000F8B51F4B1B78002B39D01E4C2378B3B98B
:1056D0001D4B9A6DD10302D5DA6D92072FD49B6DC5
:1056E000DB072CD416F0ECF9184B194A1860136F2D
:1056F00023F0070343F003031367FCF71FFA16F0C8
:10570000DFF9124B134D1B68134EC01A2B78134F41
:1057100056F8232046F82300111A3A681048521A06
:105720000A213A600932B2FBF1F20133DBB20260C6
:10573000B3FBF1F201FB12332B7000232370F8BD91
:10574000193800201838002000C00050782C0020A4
:105750000080005015380020802C00207C2C002078
:10576000A82C002008B515F098FB124B12491A6FAF
:10577000096822F007020A431A671049D3F820216A
:10578000096822F003020A43C3F820210C49D3F828
:105790002421096822F007020A43C3F82421094B97
:1057A0001B7813B10122084B9A62BDE80840FCF750
:1057B000C5B900BF00800050742C00206C2C002064
:1057C000702C00201938002000E0005002280AD078
:1057D00003280BD001280CD1064A136923F00403D7
:1057E000136130BF70470020FDF7D6BB0020FDF7E6
:1057F000EBBB704700ED00E0054B1B781BB1054B80
:105800001B6803EBD303044A10681844704700BFB9
:1058100019380020A82C0020AC2C00200122014BBC
:105820001A70704719380020014B1878704700BF74
:105830001938002010B516F051F90A4C0A4B1968B6
:105840002368C31A01B10BB9206010BD4A699A429E
:105850003ABF9B1A0022D21A4A6128BF00238968E6
:10586000F0E700BFB02C0020BC2C0020C38870B52E
:1058700004460D463BB9FFF791FC8542064602D22D
:1058800016F0A5F835460F4965610B68ABB90C6099
:10589000A36011E0AD1A9A68184665612AB11346F3
:1058A0005A69AA42F6D950B11A4613468460A360D9
:1058B00013B15969491B596170BD0020F0E70C60B4
:1058C000F5E700BFBC2C002038B5134D2B685B6991
:1058D00093B1124A022014681C4416F006F92046BF
:1058E00000F080FA00230E492A680B70D0888007E8
:1058F00009D501230B7038BD022016F0F6F80220FE
:1059000000F0BAFAEEE79268002AF4D05069034436
:10591000012BEBD9EFE700BFBC2C0020B02C0020FE
:105920001B38002070B516469DF81420C0E90336D8
:105930000271049ABDF818300260002204460D4638
:105940008260C38006BB16F0C9F82844A0613DB947
:10595000E368656113B120462168984796B13546E2
:1059600015F088FA0646FFF765FF29462046FFF73F
:105970007DFF074B1B68A34201D1FFF7A5FF30460F
:1059800015F07CFA002070BD16F0A8F83044DDE771
:10599000BC2C002000220C490B687BB183420AD149
:1059A00083687AB1936083681BB15A6941690A447C
:1059B0005A61002070471A469B68EEE70028EFD036
:1059C000022070470B60EEE7BC2C002070B515F08C
:1059D00058FA144E05463478FCB9134B1C60134B2F
:1059E0001C60134B1C8000F0BBF9012016F07DF801
:1059F00016F096F80F4B0246186020B9284615F0AD
:105A000046FA232070BD234640F2E7310A4812F0DF
:105A1000F7FE0A4B186001233370284615F037FA59
:105A20000020EFE71A380020BC2C0020B02C00200A
:105A30007A370020B82C002018FCFFFFB42C00207F
:105A40002DE9F0410546F8B115F014FA0F4F06465E
:105A5000FFF7F0FE2846D7F80080FFF79BFF0446CB
:105A600028B1304615F00AFA2046BDE8F081A84575
:105A70003B6803D123B1FFF727FFF2E7002BF0D1FA
:105A8000022000F0E1F9ECE72224EDE7BC2C002035
:105A900038B50C46054698B191B100230B7015F04E
:105AA000F0F90121074B1B680BB122781AB115F0F0
:105AB000EEF9002038BDAB4214BF9B682170F3E7BC
:105AC0002220F7E7BC2C00202DE9F041074688464C
:105AD00015F0D7F900260546124B1C6824B9284654
