S01800004E6577474E5F325F4546523332424732372E733337F9
S31508000000C00A0020C5090008C7890108C789010870
S31508000010A1980108C7890108C7890108C789010885
S31508000020C7890108C7890108C7890108C78901085E
S31508000030C78901082414020879880108C7890108B4
S31508000040C7890108C7890108C78901089D0E0008E4
S31508000050C7890108C7890108C7890108C78901082E
S31508000060C7890108C7890108C7890108C78901081E
S31508000070C7890108C7890108C7890108CD5300083F
S31508000080C7890108C78901082908000843890108A2
S31508000090C7890108C7890108C7890108C7890108EE
S315080000A0C7890108C78901087D130008C78901089F
S315080000B0C7890108C7890108C7890108C7890108CE
S315080000C0C7890108C7890108E56A0108C7890108BF
S315080000D0D9740108F10B0208ED0B0208CD6C010872
S315080000E0FD0B0208F50B0208B1740108F90B0208AA
S315080000F0197501081D4F010885750108F150010899
S31508000100C7890108C7890108C7890108C78901087D
S31508000110C7890108C7890108C7890108C78901086D
S31508000120C7890108C7890108C7890108C78901085D
S31508000130C7890108C7890108C7890108C78901084D
S31508000140C7890108C7890108C78901080000000096
S31508000150002370B5404C05468AB0E36318B10088A1
S3150800016023600AF09DFD3D4820F0A6F83C4E3D4B25
S31508000170304633603C4B73601CF0B5FD00213046B9
S3150800018010F016FE32A3D3E90023A062C4E90623C1
S315080001901CF0B4FDD4E90623194310434FF0FF338E
S315080001A0C4E90601CDE900014FF0FF32A06A20F04C
S315080001B0ECF802224FF0FF31A06A20F0EBF801209C
S315080001C00AF04CFB4FF4007300222849A06A20F07D
S315080001D039F9B0F5007F38D100239422CDE90733E9
S315080001E009933C23CDE9033205939623A06A03A914
S315080001F0069310F0F9FE35B3287C0AF0DDFE0546B5
S31508000200F0B9A06A20F0FFF90AF07EFE0AF008FBB2
S3150800021020B14FF48070002109F0D0F80AF010FBE5
S3150800022020B14FF40060002109F0C8F81CF02CFD3D
S31508000230012010F011FE0E4A0E49A06A1CF051FD6D
S3150800024028460AB070BDFF20D7E70725F8E700BFA4
S315080002500DD501552000000018190020690345EC4A
S315080002608C2B0020F1A60008802B00208029002076
S315080002708BCC0108CBCC010810B5054C237833B9D3
S31508000280044B13B1044800E000BF0123237010BDDE
S31508000290681B002000000000E85D020808B5034B53
S315080002A01BB10349034800E000BF08BD0000000079
S315080002B06C1B0020E85D0208A3F5803A704700BF72
S315080002C0174B002B08BF134B9D46FFF7F5FF002180
S315080002D08B460F461348144A121A20F0DCFC0E4BC4
S315080002E0002B00D098470D4B002B00D098470020D4
S315080002F0002104000D000D48002802D00C4800E03B
S3150800030000BF17F065FB2000290018F0ABFA17F0BC
S315080003104BFB00BF000008000000000000000000C2
S31508000320C00A0020A8180020F831002000000000AC
S315080003300000000003689E4A23F47F4323F0070366
S31508000340934273B500F0B98002F18072934200F0CF
S31508000350C980984A934240F02981974E30460CF05E
S3150800036013FE054610B3954C9549206819F0CFF849
S315080003709449206819F0CBF818F023FB18F022FBF3
S31508000380914B924A009392493823206819F0BFF896
S3150800039090492B46904A206819F0B9F8284600F08B
S315080003A0F1FA8E49206819F0B2F8FEE78C4C8D48B0
S315080003B0214600F06BFA227802218A4B30780CF03D
S315080003C01DFE044610B37D4D7D49286819F09FF837
S315080003D07C49286819F09BF818F0F3FA18F0F2FA35
S315080003E0794B7A4A00937A494023286819F08FF89E
S315080003F078492346784A286819F089F8204600F093
S31508000400C1FA7649286819F082F8FEE7A022034661
S315080004100090114630780CF0CFFD054610B3674CB6
S315080004206749206819F073F86649206819F06FF86B
S3150800043018F0C7FA18F0C6FA634B644A0093644981
S315080004404923206819F063F862492B46624A2068F6
S3150800045019F05DF8284600F095FA6049206819F009
S3150800046056F8FEE7022130780CF0F2FD0546002822
S3150800047000F09C80514C5249206819F048F85149BF
S31508000480206819F044F818F09CFA18F09BFA4E4BBD
S315080004904E4A00934E494D23206819F038F84D49C5
S315080004A02B464D4A206819F032F8284600F06AFAB9
S315080004B04A49206819F02BF8FEE7032000F01CFAD9
S315080004C0002873D03D4C4849206819F020F818F0E8
S315080004D078FA18F077FA4549206802B0BDE8704006
S315080004E019F015B8032000F007FA60B1334C3E49FD
S315080004F0206819F00CF818F064FA18F063FA3C4909
S31508000500206819F004F82C4C022120780CF08CFD98
S31508000510054610B3294C2A49206818F0F8FF2949DE
S31508000520206818F0F4FF18F04CFA18F04BFA264B2E
S31508000530264A009326497323206818F0E8FF2549C0
S315080005402B46254A206818F0E2FF284600F01AFADA
S315080005502249206818F0DBFFFEE7022120780CF01C
S3150800056077FD054610B3154C1549206818F0CFFFDE
S315080005701449206818F0CBFF18F023FA18F022FA6D
S31508000580114B124A009312497723206818F0BFFFCF
S3150800059010492B46104A206818F0B9FF284600F083
S315080005A0F1F90E49206818F0B2FFFEE702B070BDF7
S315080005B0A0000600A00001005E0D0020041C00201B
S315080005C02A100208D00F020840100208D50F0208A8
S315080005D0DE0F0208ED0F0208EA0F020802100208F1
S315080005E0E1300020C230002013100208181002085B
S315080005F02C100208036837B523F47F43184A23F002
S31508000600070393422AD1052200211620154B0CF028
S3150800061033FD054610B3144C1449206818F077FFCB
S315080006201349206818F073FF18F0CBF918F0CAF9C7
S31508000630104B114A114900932068592318F067FF97
S315080006400F492B460F4A206818F061FF284600F02C
S3150800065099F90D49206818F05AFFFEE703B030BD36
S31508000660A00001004F100208041C00202A100208EE
S31508000670D00F02087D10020855100208DE0F020886
S31508000680ED0F0208EA0F02080210020810B5234C03
S3150800069001F01CFB01F0CEFC236F23F0070343F0A7
S315080006A00303236718F050FA1D4B00209B6A9B072B
S315080006B05EBF01221B4B9A62D4F8203123F0030354
S315080006C043F00203C4F82031D4F8243123F0070399
S315080006D043F00203C4F82431D4F8403123F003036D
S315080006E043F00103C4F84031D4F8603123F0030322
S315080006F043F00103C4F86031D4F8403223F0030311
S3150800070043F00103C4F84032D4F8003223F007035B
S3150800071043F00103C4F8003210BD00BF008000504A
S3150800072000C0005000E0005030B51A4D95B00DAC31
S315080007300FCD0FC495E80700292384E80700002198
S31508000740154A09A8CDE90223144B1022CDE9043134
S315080007504FF48073069320F09EFA4FF4A021104BB5
S315080007600DAACDE9071312238DF8243013238DF82B
S3150800077025300C4B07A90A9320230B9301238DF8E8
S315080007803130094B0948009302AB03F017FD15B049
S3150800079030BD00BFF4130208000006500003010430
S315080007A024000650E2300020841B0020E01B0020B5
S315080007B0831E012B10B512D8012910D8114B04221B
S315080007C01B6C03210020C3F3C00301F097FD0E4BF9
S315080007D01B681868A8B1BDE81040436A18478B1E05
S315080007E0012B0CD801280CD8BDE810400022054B77
S315080007F003211B6C1046C3F3C00301F07FBD01291A
S31508000800E5D910BD00C00350C80A002008B5044940
S31508000810044803F0D7FFBDE80840FFF785BF00BFCF
S31508000820C00A0020D81B0020014818F0EFBF00BFFF
S31508000830E01B0020014B1A6A18681047E01B0020CD
S3150800084010B50C4C48220021204620F024FA2046F8
S3150800085018F0AEF804F10C0018F0AAF804F1180024
S3150800086018F0A6F8044800F009F8052384F8423081
S3150800087010BD00BF2C3000201014020801460C22BF
S31508000880014820F02EBA00BF0231002038B50D46C7
S31508000890044670B3174820F01CFA09230130637028
S315080008A02070144820F015FA12490246A01C20F0C0
S315080008B0CBF9104820F00DFA032241F61F01C0B209
S315080008C0831CDBB2E2548318DBB2E254031DDBB2AD
S315080008D0E152831DDBB2E254FF22C31DDBB2E254B0
S315080008E040F2623200F10803DBB2E2520DB10A307F
S315080008F0287038BD023100200B4B02461B788BB19D
S315080009000A4B1B78834234BF00200120084B1B7812
S315080009103BB1084B1B7843FA02F212F0010F08BFED
S31508000920002070470120F1E75F0D0020600D0020D0
S315080009300E310020610D0020012208B5074B1A7000
S315080009400022074B1A700422064B1A701F22064B08
S315080009501A7003F011FA054B186008BD5F0D0020E8
S315080009600E310020600D0020610D0020041C0020BF
S31508000970024B0349186818F0CABD00BF041C0020C2
S315080009801C14020870B50C4C0C490646206818F071
S31508000990BEFD03F0F1F90546206803F0E1F930469B
S315080009A0FFF7E6FF284603F0DBF920680449BDE8AF
S315080009B0704018F0ACBD00BF041C00201E140208CD
S315080009C02014020808B500F02DF8124B12498B4284
S315080009D012D30020114B12498B4218D3FFF770FC33
S315080009E0186850F82240586840F822400132986842
S315080009F08242F5D30C33EAE70022F8E71C6844F88C
S31508000A00220001325C68A242F8D30833E4E70022E8
S31508000A10F8E700BFF05D0208FC5D0208FC5D02080D
S31508000A20FC5D02084FF400414FF0FF30114B124AAB
S31508000A3010B59A60D3F8882042F47002C3F888206B
S31508000A400E4A916601F1884101F5005210660C487C
S31508000A5050660220C3F8D000BFF34F8FBFF36F8FE5
S31508000A6008244FF440330748C0F88041D360046037
S31508000A700B6110BD00ED00E000000008009000507A
S31508000A807FFF070000E100E0014B1868704700BFD0
S31508000A90D00A0020084B1B6F03F00703022B04D073
S31508000AA0032B05D0012B05D0FEE7044B18687047C9
S31508000AB0034BFBE70348704700800050D00A00202C
S31508000AC0D40A0020002D310108B5FFF7E3FF054BD6
S31508000AD01B6FC3F303330133B0FBF3F0024B18600B
S31508000AE008BD00BF00800050CC0A002000487047AF
S31508000AF000B4C404014B1868704700BFD40A00202C
S31508000B00054B1860054B1B6F03F00703032B01D138
S31508000B10FFF7DABF704700BFD40A002000800050F4
S31508000B2000487047002D3101014B1868704700BF17
S31508000B30D80A0020BFF34F8F0549064BCA6802F44E
S31508000B40E0621343CB60BFF34F8F00BFFDE700BFE2
S31508000B5000ED00E00400FA054FF000639B6A03F11C
S31508000B607842B2F5C04F03D21968064A914203D0BB
S31508000B700023037083607047012202709A689B699C
S31508000B804260F7E707B0CD5E73B55E4B04461A7848
S31508000B901AB102221A7002B070BDCDE900220028EF
S31508000BA0F9D001261E7017F0EBFF574D574B18600A
S31508000BB013F0A6FA2B785BB900F01AFC40B9544832
S31508000BC00823544A544900680FF026FE00B92E70CF
S31508000BD0524B5A6E62619B6E514AA3614FF40043B1
S31508000BE0936603F188435968E1614E499960196E25
S31508000BF02160596E6160D3F87011A160196CE160CB
S31508000C00596C21614849086C1864496C596401217A
S31508000C1051664FF4005191661A6E56044BD54349F6
S31508000C20CA68D407FCD45B6E9A0349D5404AD36B8D
S31508000C3013F0430FFBD13F4B1A68531C46D04FF4B1
S31508000C40001393403C4A136604233B4C23664FF437
S31508000C508063236617F0DFFE01300ED017F0DBFE47
S31508000C6040F20113984208D04FF4804323664FF4AC
S31508000C70004323661023C4F8703110232E4C6846AF
S31508000C8023664FF4005323664FF0804323664FF4E0
S31508000C90003301A9636617F09FFE009B2366019B3C
S31508000CA063662B78002B3FF476AF1A4B1A682266D8
S31508000CB05B6863666FE72149CA68D007FCD4B2E768
S31508000CC01F4AD36B13F0430FFBD1B4E71D4B1B78B8
S31508000CD0002BB9D14FF48072114B5A661A4A5268E2
S31508000CE01AB94FF40011144A11664FF400725A6685
S31508000CF0164B5B68002BA7D14FF480020E4B1A6681
S31508000D00A2E700BF113100200F310020301C00205F
S31508000D10E40A0020281C002000710800008000500A
S31508000D200090005055CEAC0000C0005400000440AE
S31508000D300000024CDC0A0020009000440000045029
S31508000D400000025C1031002000C00550000006506B
S31508000D50F8B5284D04462F78012F02D001232B70B1
S31508000D60F8BD0028FCD017F056FE0130224E0AD0F6
S31508000D7017F051FE40F20113984204D01F4A7766D5
S31508000D80D368DF07FCD44FF400531D49B366CA6B1A
S31508000D9012F04302FBD121681A4B1966616859663D
S31508000DA0A168C3F87011E168196421695964E16999
S31508000DB0C80748BF9A60144B1A6801320DD1134A06
S31508000DC0127852B912494968C90748BF1A60114AC8
S31508000DD05268D20744BF01221A6062690E4B5A66EE
S31508000DE0A2699A6613F094F90C4B186817F0CEFEB0
S31508000DF00023B4E7113100200090004000000440B1
S31508000E000000024C00800044DC0A0020103100205B
S31508000E1000C005500000065000800050301C00201D
S31508000E2038B54FF00064A36A03F17842B2F5C04FB3
S31508000E3022D21A68134B9A421ED1134D2B7813F0FF
S31508000E40FD0F1CD11148FFF79FFE08214FF4803390
S31508000E500F4A1048C2F88011C36011600E4A136128
S31508000E60A36ADB69984704460848FFF771FF0CB97F
S31508000E7001232B70204638BD4FF48174FAE700240D
S31508000E80F8E700BF07B0CD5E10310020081C00202F
S31508000E9000E100E000A000440090004413B51F4B99
S31508000EA01B7803B9FEE700231D4CCDE900336A46DB
S31508000EB008231C4920680FF0AFFCF0B91A4AD2F88B
S31508000EC04031D2F840211F2B4FF0010310D9203AA8
S31508000ED09340019A1343019308236A4611492068EF
S31508000EE00FF050FC4FF00053104A1A60FFF722FE2D
S31508000EF09340009A13430093EEE70D4B9842F1D1C5
S31508000F00094AD2F84031D2F840211F2B4FF001038D
S31508000F1002D9203A9340DEE79340ECE711310020EE
S31508000F20E40A002000710800008000440B020FF05C
S31508000F300BE000F005490A681318054883428CBF80
S31508000F404FF0FF320B601046704700BFE00A0020E2
S31508000F50000001202DE9F04F9A46564B85B01B78C4
S31508000F6006460F461546DDF83C909DF844B0DDF878
S31508000F705080002B00F08D80072A00F28C800E9B93
S31508000F80002B00F08880B9F1000F00F08480129BD6
S31508000F90B3F5006F7FDC012802D1109B002B7AD0B5
S31508000FA0454B03EB05131B7B002B76D0434C1022D5
S31508000FB0002168461FF06FFE04EB45141022002F2F
S31508000FC059D1394620461FF066FE43F21003638066
S31508000FD0BBF1000F03D1E37843F00303E370374A0C
S31508000FE00E9B02EB451CCCE90193129B6901013B60
S31508000FF0C3F30A009DF84C30012E03F003034FEAB1
S31508001000836343EA001E53582D48CDF800A000EA32
S3150800101003004EEA0003535041D113230CF1100E7E
S31508001020CCF80C309CE80F008EE80F006FF0030137
S31508001030DCF81C20109B61F39F02012FCCF81C20C2
S31508001040CCF8143003D1CCF81890CCF8043000272B
S31508001050194A290102EB051342F80180159A284618
S315080010605A60694622469F605E7301F0E5F9384684
S3150800107005B0BDE8F08F002120461FF00CFE4FF4A6
S3150800108044736380BBF1000FA9D1E37843F03003C2
S31508001090A4E70C48ECE70C48EAE70C48E8E7B8F19F
S315080010A0000FD4D19CF8023068F304138CF8023090
S315080010B0CDE700BF12310020341C0020B41C0020EC
S315080010C00F80FFF3028000F0018000F0078000F037
S315080010D038B5124B05461B78DBB1E0B117F050FD69
S315080010E00F4A00231146147B54B92B6001251A01B7
S315080010F001EB03131D738C5017F048FD204638BDCD
S315080011000133082B02F11002EDD117F03FFD054817
S31508001110F5E70548F3E70548F1E700BF1231002077
S31508001120341C0020048000F0028000F0018000F0EA
S3150800113013B517F025FD00230B4A147B7CB9013340
S31508001140082B02F11002F8D1019001F017F9074BAC
S3150800115001981C7017F01AFD204602B010BD17F052
S3150800116015FD0348F9E700BF341C002012310020A2
S31508001170058000F00D4B10B51B78044693B107287F
S3150800118012D817F0FDFC0A4B03EB04131A7B2AB19D
S3150800119000241C7317F0FAFC204610BD17F0F6FC65
S315080011A00448FAE70448F8E70448F6E7123100204D
S315080011B0341C0020068000F0028000F0018000F058
S315080011C0154B13B51868002301908DF8043017F0F5
S315080011D0D7FC124B1C7824B117F0D8FC104802B083
S315080011E010BD01221A7017F0D1FC0E4B01A81C7312
S315080011F01C7783F82C4083F83C4083F84C4083F8EE
S315080012005C4083F86C4083F87C4008238DF80730EF
S3150800121001F0E0F82046E2E77414020812310020D3
S31508001220038000F0341C00200A4A08B512785AB127
S3150800123007280BD8084A02EB00131B7B43B1002191
S3150800124001F0BAF8002008BD0448FCE70448FAE7AC
S315080012500448F8E712310020341C0020028000F010
S31508001260018000F0078000F00A4A08B512785AB1E2
S3150800127007280BD8084A02EB00131B7B43B1012150
S3150800128001F09AF8002008BD0448FCE70448FAE78C
S315080012900448F8E712310020341C0020028000F0D0
S315080012A0018000F0078000F00A4A08B5127852B1AA
S315080012B007280AD8084A02EB00131B7B3BB101F04A
S315080012C009F9002008BD0548FCE70548FAE705487E
S315080012D0F8E700BF12310020341C0020028000F01D
S315080012E0018000F0078000F00D4B1B7893B10728AA
S315080012F012D889B10B4B03EB00131B7B73B10A4B56
S315080013001A6D012303FA00F010401ABF00200B7073
S315080013100870704705487047054870470548704784
S3150800132012310020341C002000000450028000F016
S31508001330018000F0078000F00B4A10B512780C46C1
S3150800134062B107280CD859B1084A02EB00131B7B77
S3150800135043B101F0D1F82070002010BD0448FCE725
S315080013600448FAE70448F8E712310020341C002044
S31508001370028000F0018000F0078000F02DE9F843B4
S31508001380174B1F6D5B6D1F4000D5FEE70126002534
S31508001390144CDFF85480DFF85490374217D023688E
S315080013A0C8F850609BB1A168284601316268A160FF
S315080013B09847637B012B0AD148B909EB45131A7B79
S315080013C060F341021A731A7F60F341021A770135F6
S315080013D0082D4FEA460604F11004DED1BDE8F8836D
S315080013E000000450341C002000200450B41C0020C7
S315080013F0024B1968024B18680FF0EEB8E80A00208D
S31508001400E40A002037B5920004460D4601921FF003
S31508001410CFFD431C0BD060B929462046019A1FF020
S3150800142003FC0028044808BF002003B030BD034869
S31508001430FBE70348F9E700BF10E000F021E000F001
S3150800144024E000F010B504461FF0BAFD431C10D086
S3150800145088B901F011F9234620F003002044984288
S3150800146001D1002010BD53F8042B0132F7D00348F0
S31508001470F8E70348F6E70348F4E700BF0EE000F094
S3150800148021E000F024E000F008B517F072FB014BEC
S31508001490186008BDF4230020014B186817F06DBBCF
S315080014A0F4230020044BD3F88420D206FBD4D3F8C7
S315080014B08400C0F3811070470040005038B5104BC7
S315080014C00546D3F820310C4603F00303022B0BD054
S315080014D0032B0DD0012B0FD1FFF7D6FA052305B143
S315080014E0286004B1236038BDFFF704FB0323F6E741
S315080014F0FFF716FB0223F2E701230020EFE700BF00
S315080015000080005073B50D4600210E4B0191D3F8AB
S315080015108041064604F00304012C09D0022C0CD0A5
S315080015200C460EB1019B336005B12C6002B070BD4C
S3150800153001A8FFF7C3FF0F24F3E7FFF7F1FA0190BD
S31508001540EFE700BF0080005038B5184B0546D3F8C2
S3150800155024010C4600F00700062805D8DFE800F04D
S31508001560230B131B1F0F17000023184605B128600D
S3150800157004B1236038BDFFF787FA0523F6E7FFF7BE
S3150800158083FA0623F2E7FFF7B5FA0323EEE7FFF738
S31508001590B1FA0423EAE7FFF7C3FA0223E6E717F0EE
S315080015A013FA0723E2E70123E0E700BF00800050B3
S315080015B038B5104B0546D3F840310C4603F0030303
S315080015C0022B0BD0032B0DD0012B0FD117F0FEF9F0
S315080015D0092305B1286004B1236038BDFFF7A4FAD2
S315080015E00823F6E717F0F5F90B23F2E701230020A5
S315080015F0EFE700BF0080005037B50C460021124BBC
S315080016000191D3F88432054603F00303022B0ED06A
S31508001610032B11D0012B14D101A8FFF74FFF0F237D
S315080016200DB1019A2A6004B1236003B030BD01A848
S31508001630FFF7BEFF1023F3E7FFF772FA02230190C4
S31508001640EEE70123ECE700BF0080005038B5144BE5
S315080016500546D3F800020C4600F00700042804D813
S31508001660DFE800F01B0A0E1216000023184605B123
S31508001670286004B1236038BD17F0A8F90923F6E7F6
S31508001680FFF752FA0823F2E717F0A3F90B23EEE760
S31508001690FFF71AFA0E23800AE9E70123E7E700BFF6
S315080016A00080005038B5104B0546D3F840320C463A
S315080016B003F00303022B0BD0032B0DD0012B0FD104
S315080016C017F084F9092305B1286004B1236038BDF1
S315080016D0FFF72AFA0823F6E717F07BF90B23F2E758
S315080016E000231846EFE700BF0080005038B5104BBE
S315080016F00546D3F860310C4603F00303022B0BD0E2
S31508001700032B0DD0012B0FD117F060F9092305B172
S31508001710286004B1236038BDFFF706FA0823F6E708
S3150800172017F057F90B23F2E701230020EFE700BF74
S315080017300080005038B50C46054617F01AFA064BD5
S315080017409A6A82EA040101EA050454409C62BDE8EB
S31508001750384017F012BA00BF00C00050B0F5207F1D
S315080017601FD009D8B0F5007F15D003D868B1B0F5F9
S31508001770C07F0AD000200CE0B0F5607FFAD10B4B91
S31508001780D3F88000C0F3011003E0084B186FC0F3CC
S31508001790033001307047054BD3F89000C0F304605E
S315080017A0F7E7024B186FC0F38020F2E7008000507D
S315080017B04FF400320E4B014610B500209A66FFF72B
S315080017C0CDFF41F6713248430A490B4B88428CBF1C
S315080017D04FF480100020DC69DA635A6822F440125C
S315080017E002435A60E20344BF0022DA6310BD00BF19
S315080017F000900050005A620200000350420910B5DA
S3150800180010D0012A10D00B4B0B4C022A18BF2346C6
S3150800181000F01F0051B103F58053012202FA00F0CF
S31508001820186010BD1346F3E7044BF1E703F50053C0
S31508001830F3E700BF68800050608200506480005063
S315080018401FB5002280280446019200F00C8100F2A0
S31508001850BF803F2836D9A0F14D04142C02D901982F
S3150800186004B010BD142CFAD801A353F824F000BF15
S31508001870EF1900085F180008EF190008EF190008AB
S31508001880EF190008B31A00080D1A0008BD1A000857
S315080018905F1800085F1800085F1800085F1800083E
S315080018A05F1800085F1800085F180008071B000883
S315080018B05F1800085F1800085F180008EF1900088D
S315080018C0EF1900083F28CAD801A353F820F000BF33
S315080018D0EF1900085F1800085F1800085F1800086D
S315080018E05F1800085F1800085F1800085F180008EE
S315080018F05F1800085F1800085F1800085F180008DE
S315080019005F1800085F1800085F1800085F180008CD
S315080019105F1800085F1800085F1800085F180008BD
S315080019205F1800085F1800085F1800085F180008AD
S315080019305F1800085F1800085F1800085F1800089D
S315080019405F1800085F1800085F1800085F1800088D
S31508001950EF190008811A0008EF190008811A000813
S31508001960B31A0008B31A0008B31A0008B31A000815
S31508001970811A0008811A0008C71A00080D1A0008FB
S31508001980F31A00085D1A00080D1A0008811A0008E3
S31508001990811A0008811A00085F1800085F180008F5
S315080019A05F1800085F1800085F1800085F1800082D
S315080019B05F1800083F1A0008811A0008811A0008F3
S315080019C0811A0008071B0008FD1A0008811A00087A
S315080019D0B0F5806F6DD024D8B0F5007F47D009D810
S315080019E0B0F5807F74D0B0F5C07F7FF438AFFFF7CD
S315080019F06BF83AE0B0F5607F48D03FF630AFB0F507
S31508001A00207F3DD0B0F5407F7FF429AFFFF75CF823
S31508001A1002464FF42070FFF7A1FEB2FBF0F0400833
S31508001A2023E0B0F5C06F64D00ED8B0F5A06F45D0EE
S31508001A30B0F5B06F47D0B0F5906F7FF410AF0021C6
S31508001A4001A8FFF781FD0AE7B0F5E06F56D0B0F5BB
S31508001A50F06F58D0B0F5D06F7FF401AF002101A820
S31508001A60FFF7F4FDFBE6FFF715F80190F7E6FFF739
S31508001A7011F802462046FFF771FEB2FBF0F0F4E7D4
S31508001A80FFF722F802464FF42070F4E7204BD3F80C
S31508001A90803003F00303012B04D0022B06D04FF449
S31508001AA06070E8E7FEF7F6FF0246F8E7FEF7ECFF98
S31508001AB0FAE7002101A8FFF701FDD0E6002101A8F9
S31508001AC0FFF79AFDCBE6002101A8FFF71BFDC6E646
S31508001AD04FF0E02302921B695B0705D5FEF7F4FF7A
S31508001AE00290029B0193BAE603A902A8FFF760FDDC
S31508001AF0F7E7002101A8FFF75BFDB0E6002101A882
S31508001B00FFF7D0FDABE6002101A8FFF7EFFDA6E63B
S31508001B100080005008B58020FFF792FE034B9842DC
S31508001B209EBF4FF48032024B1A6708BD005A620204
S31508001B3000A000501FB50023B0F5607F019300F0A8
S31508001B40A88036D8522800F08B8016D82D280BD8B6
S31508001B5023280ED9243809280BD8DFE800F081811C
S31508001B6081810A0A7C0A438B3D280ED03E2800F064
S31508001B70A680019805B05DF804FB802853D009D8E3
S31508001B80542800F097805C28F3D1002001A9FFF7BC
S31508001B90ADFDEEE7B0F5807FEBD102934FF0E02381
S31508001BA01B695B0761D5FEF78FFF0C230393039B25
S31508001BB04DE0B0F5D06F5DD019D8B0F5A06F79D0EB
S31508001BC00AD8B0F5806F4BD0B0F5906FD1D1002010
S31508001BD001A9FFF7B9FCCCE7B0F5B06F3BD0B0F57B
S31508001BE0C06FC6D1002001A9FFF7E2FCC1E7B0F536
S31508001BF0006FECD005D8B0F5E06F60D0B0F5F06FA7
S31508001C00C2E7B0F5086FB4D12F4BD3F8003103F013
S31508001C100303022B33D0032B35D0012B37D1FEF724
S31508001C2069FF032313E0284B1B6F03F00703013BEF
S31508001C30032B9ED801A252F823F000BF531C0008BC
S31508001C404D1C0008231C00088B1C00080523019363
S31508001C508FE70223FBE7002001A9FFF753FC88E77B
S31508001C60002001A9FFF72AFC83E703A902A8FFF7CA
S31508001C709FFC9CE7002001A9FFF7E8FC79E7FEF73F
S31508001C8053FF0823E3E716F09FFE0723DFE7012348
S31508001C90DDE70D4AD2F8802002F00302012A05D0BA
S31508001CA0022AD4D1FEF7F0FE0623D0E7FEF7F2FEAD
S31508001CB00D23CCE7002001A9FFF79EFC59E7002079
S31508001CC001A9FFF7EFFC54E7008000504FF400220B
S31508001CD0034B5A66012203F580439A62704700BF98
S31508001CE00090005008B5FFF725FF082811D00938DD
S31508001CF0012811D84FF40012094B4FF6FF705A66A7
S31508001D0003F5D8335B6A13F0010F18BF4FF4FA7066
S31508001D1008BD044B1888FBE74FF6FF70F8E700BFCD
S31508001D20009000504C0D002070B504468020FFF747
S31508001D3001FF032800F082804FF40022444B022161
S31508001D405A6645F60E03434AC2F88030424B9962FA
S31508001D50012103F580539962936DD903FCD4D4E924
S31508001D6000131B0543EA0163E17B94F822500B43F9
S31508001D70217B94F8236043EA0143617B43EA0133FC
S31508001D80A17B43EA811313619169D4E904031B0615
S31508001D9043EA806301F000410B43A17EE07E0B43DA
S31508001DA0217E43EA0143617E43EA01239361E369A5
S31508001DB0126A002B0CBF0021082122F00D0242EA0C
S31508001DC0030242EA8002234B42EA01021A6294F8AD
S31508001DD020204FEA421232D1986A94F8211020F056
S31508001DE0330042EA0112024342F001029A621B4A98
S31508001DF0996D32EA0101FBD1022217498A621A65F6
S31508001E009A6D5200FCD41869A26820F4700040EA62
S31508001E1002504FF0004218610F4B9A611DB9022219
S31508001E2003F580539A6216B901220D4B9A6294F80B
S31508001E3024301BB1074B0B4AC3F8802070BD996A42
S31508001E4021F0330131430A4342EA4502EEE700BF77
S31508001E500090005000C0005000D000500300014020
S31508001E6000E00050F1A7FFFF1E4B13B5996A9A6D63
S31508001E7012F4803F18BF01241B4A18BF946202243B
S31508001E8094629B6DDB0303D5164A936D9C07FCD5BC
S31508001E900222154B134C1A65A36D5B00FCD4134B39
S31508001EA0A26993F9003022F47F020344000222F467
S31508001EB07F4280B283F30803104340EA0340A061DF
S31508001EC002200191FFF736FCA36D019913F4803FB8
S31508001ED005D0012002B0BDE81040FFF72BBC02B0C8
S31508001EE010BD00BF00C0005000D0005013310020C4
S31508001EF0014B93F900007047133100200122124864
S31508001F00124B816A9A62826D02F00302032AFAD1A1
S31508001F1002229A621A650C4B9A6D5000FCD4012075
S31508001F209A6D0A4A10659A6D9207FCD4064B9A6D0B
S31508001F309007FCD50220054A10659A6D9207FCD5D4
S31508001F400320FFF7F7BB00BF00C0005000D00050C9
S31508001F50014B1880704700BF4A0D0020B0F5207F5E
S31508001F6010B50C4657D008D8B0F5007F48D003D82E
S31508001F7030B3B0F5C07F23D010BDB0F5607FFBD17C
S31508001F8029492A48D1F8FC2012F080721EBFD1F8E0
S31508001F90FC3023F08073C1F8FC30D0F88030611E25
S31508001FA023F0300444EA0114C0F88040002AE3D044
S31508001FB01D4AD2F8FC3043F08073C2F8FC30DBE7E8
S31508001FC016F0AFFD16F0BBFD4FF48031184B174ADB
S31508001FD01967136F611E23F4704444EA01341467C9
S31508001FE0FEF772FD0446FFF75DFAC0F102012046CE
S31508001FF016F09FFD00F02EF8BDE81040FFF78ABDE9
S315080020000A4A0139D2F8903023F0F85444EA0164B8
S31508002010C2F89040B0E7054B013C196F21F4806186
S3150800202041EA84241C67A7E700ED00E00080005021
S315080020300090005008B50121022000F069F816F05A
S3150800204070FD16F07CFD4FF48032014B1A6708BD0F
S315080020500090005008B54FF4C070FFF7F1FBBDE8DB
S315080020600840044988428CBF022101214FF42070A0
S31508002070FFF774BF80F0FA02034B5868C0F30800F4
S31508002080003818BF0120704700ED00E0044A417887
S31508002090536F23F4407343EA01235367704700BF25
S315080020A0004000500A4A10B51369044643F0040379
S315080020B0136102F087FD16F06CFD30BF16F06AFD5D
S315080020C002F094FD1CB9BDE81040FEF7FDBC10BD3A
S315080020D000ED00E0084A10B51369044643F004030E
S315080020E0136102F06FFD30BF02F080FD1CB9BDE838
S315080020F01040FEF7E9BC10BD00ED00E0034A017987
S31508002100D36E23F030030B43D3667047004000506C
S31508002110F8B504461C4BD3F88420D106FBD4D3F873
S315080021208430C3F381139C422CD0FEF7B3FC012CF8
S31508002130064602D1214616F0FCFC16F01AFD4FF0B1
S315080021400072124B07465A66204616F026FD4FF4D3
S3150800215080630D4D621E93402B676B6E9A0103D404
S31508002160D5F884309B060AD5384616F006FD022CAB
S3150800217008D13046BDE8F840002116F0DABCD5F89B
S315080021808430EAE7F8BD00BF004000500060005008
S3150800219007B518B90191FEF77DFC0199064B1B7826
S315080021A043B1064B984205D8012003B05DF804EB0D
S315080021B0FFF7AEBF0220F8E714310020005A62028A
S315080021C00278034B012100201A70FFF7E1BF00BF18
S315080021D0143100204FF0004238B5254B5A664AF6AE
S315080021E0CD33244AD2F89440C2F8903004F0010462
S315080021F048BB136C13F00103FBD15268D20709D40C
S3150800220000251CB11B4B1C4AC3F890201EF0D7F8BA
S31508002210284638BD0121194A51601649184AC86B23
S31508002220C50705D4934201D10725EAE70133F6E746
S315080022309342E5D1F8E70131D36B13F0080305D0D3
S315080022408142F8D1F0E700210D48F5E78142EBD04D
S3150800225020210A4A51630121A2F58052516005499D
S31508002260074A486B8006E3D49342DDD00133F8E78A
S3150800227000900050004009503254FFFF006009509A
S3150800228040420F004FF0004238B5184B184C5A66BA
S315080022904AF6CD33D4F89450C4F890304378154AAA
S315080022A05B0043F0010305F00105D363236CDB07EC
S315080022B0FCD46368827823F0700343EA02136360F0
S315080022C0C278437943EA0223E3600279837943EAD1
S315080022D0022323610078FFF77DFF15B1064BC4F88A
S315080022E090301EF06CF8012038BD00BF00900050F9
S315080022F000400950004000503254FFFF2DE9F041DC
S3150800230005460F461E4690464AB101233022194C0F
S315080023108B4002FB00443EB304F5825423600F2130
S31508002320072F05EB450388BFA7F108044FEA0313F7
S31508002330114895BFBC00A40004330C3308FA04F214
S31508002340A140184416F02AFCB8F1000F0AD1012161
S315080023503020084A01FA07F700FB05223EB102F5CC
S3150800236082521760BDE8F08104F50154D6E702F5FC
S315080023700152F6E700C0035030C003504FF08062A8
S315080023800B4B10B5C3F88020BFF34F8FBFF36F8F89
S315080023900024FF22074B21465C6520209A625C6078
S315080023A0FFF72CFA2146BDE810402120FFF726BA90
S315080023B000E100E000000450044A054B002918BF5C
S315080023C01346012202FA00F01860704740200450B4
S315080023D04010045010B5012104462020FFF70EFADC
S315080023E001212120FFF70AFA0122114B5A602278AF
S315080023F012069A606178A27842EA01429A61FF223F
S315080024009A6200229A631A644FF000425A654FF0A6
S31508002410FF324FF0806103F500531A65054AC2F88A
S315080024208011E3781B01DBB282F81A33116010BD04
S315080024300000045000E100E02DE9F0410125C3B297
S31508002440D1F8008091F80AC00F7B91F80DE09D4005
S315080024500C46CB7A1C491D4E0D65810001F1A04141
S3150800246001F58821C1F80480302101FB00601B05B5
S3150800247043EA0C4343EA475322F00302C0F860E0FC
S31508002480C365026716F07CFB736D2B437365237A6D
S3150800249013B1336C2B433364637A13B1B36B2B4399
S315080024A0B3632279A37943EA0243074A93616179C0
S315080024B0E37943EA014306498B61044B55639D64FE
S315080024C0BDE8F04116F062BB00200450000004503D
S315080024D00010045010B50124C0B2844016F050FB19
S315080024E0044B5A6D22EA04025A659C62BDE8104004
S315080024F016F04CBB0000045010B50124C0B284404D
S3150800250016F03EFB074BDA6A224209D15B6B34EAC6
S3150800251003030CBF0124002416F038FB204610BD27
S315080025200024F9E7000004504FF40032054B9A6680
S3150800253041F6713203F51C33DA63012203F50053C1
S31508002540DA6070470090005041F671320121064B5F
S31508002550DA6303F50052D1600022DA634FF40032E1
S31508002560A3F518339A66704700000350CB784A786B
S3150800257010B55B010C7843EA82030A79234343EAE0
S3150800258002130C22424302F1B0421363012C02BF2C
S315080025908A78024B43F8202010BD00BFEC80035018
S315080025A008B54FF0B0435A6802B960B15B680BB121
S315080025B016F005FB4FF0B04130B10120074B5860CB
S315080025C016F0FDFAC86008BD16F0F9FA0223CB60CA
S315080025D016F0F5FA0122024B5A60F4E7001000588B
S315080025E0002000584FF0B0435B6870B50BB116F089
S315080025F0E6FA0121104B4578596083780679002B55
S31508002600C37814BF02240024002B14BF042200221E
S315080026104379DB0043EA06132B43234313434FF066
S31508002620B0429360054B59600378002B14BF0B46E4
S315080026300223D36070BD00BF002000580010005868
S315080026404FF48032084B5A6603F5E6235B69C3F3F9
S31508002650461203F00F010A434280C3F30342C3F351
S31508002660033342700370704700900050014B986C1A
S31508002670D96C70470080E00F0120034B9B680A3332
S3150800268003F01F03984070470080E00F70B50546B9
S3150800269016461C4621B94FF42070FFF7D1F80146BB
S315080026A0402C1BD003D8DCB1202C1BD070BD602C6D
S315080026B0FCD1042303FB06F2560806EB4113B3FBD1
S315080026C0F2F3094A203B02EAC303AA6822F0600231
S315080026D0AA60AA681443AC60EB61E7E70623E9E75A
S315080026E01023E7E70823E5E7F8FF7F00012200F556
S315080026F0805310B55A6040F6AA6341F20502436159
S3150800270000230E498360C365C26000F50052036169
S31508002710C361C36491640A498365884202D0094C3F
S31508002720A04207D18842036502D0064B984201D1E0
S31508002730002343650123536010BD00BFFFFF01005E
S3150800274000C005500000065070B50D46FFF7CEFFD5
S31508002750012300F580567360AB7C04461BB1836881
S3150800276043F080438360EB7C5BB1354A2B7D944212
S3150800277045D1A2F51032C2F89031E36D43F08003DB
S31508002780E3652A8A6B7B20461343EA891343E36091
S315080027902B7BD5E90112FFF779FF6B7D1BB1A36887
S315080027A043F48033A360AB7D1BB1A36843F40043B5
S315080027B0A360EB7D2A7E1B07120502F4E00203F0F4
S315080027C0E0431343A365697E1D4A8B1E012B1D4BEF
S315080027D01FD894421BD002F5804294420CBF0122B6
S315080027E04FF0FF3203EB4213022041F23462032911
S315080027F0985020D10423F3652B78636170BD124A83
S31508002800944204BFA2F52032C2F8AC31B5E70022E3
S31508002810E8E794420DD00C4A94420CBF01224FF0CF
S31508002820FF3203EB4213022042F234620129985028
S31508002830DFE70022F5E7042204F50053DA65DBE753
S3150800284000C0055000C003500000065038B50446C5
S31508002850054D1DF0DAFD0FCC0FC594E8030085E899
S315080028600300002038BD00BFA824002047F6FF73E8
S315080028709A42F0B566D0012966D8344DCF0015F8CE
S31508002880313005EBC100012B847813D10025C378BC
S315080028901B1B9D4202D3E018C0B2F0BD591B466807
S315080028A0A3EB510136F911609642D4BF0D4601F1EA
S315080028B0FF33EEE740680028EFD0B0F900309342C6
S315080028C004DBB0F902309342B8BF134682883D4410
S315080028D0FF2A19BFC8214FF0280CB0F90610B0F925
S315080028E008C0A1EB03020CBF0126002692FBFCF2EE
S315080028F06D78324412B2954201DD002A01DA6A1E69
S3150800290012B24FF47A7700EBC206F188B668013244
S3150800291013FB016112B221EAE1715C319542B1FB08
S31508002920F7F104DD00EBC206B6888E42EBD200EB67
S31508002930C20232F8040C884228BF0846A04238BFB3
S315080029402046A9E7FF20A8E70020A6E7A82400203C
S315080029500129F0B553D82B4800EBC10410F8311003
S31508002960636801290FD1E078A478904294BFC4EB3C
S315080029700001C4EB0201001BCAB28242C8BF002292
S3150800298033F91200F0BD002B39D0A178914202D359
S31508002990B3F90200F6E7E178B3F900009142F1D9FC
S315080029A099886478A1F1FF06013C714203F1040598
S315080029B0E4B2714103F10C071FFA82FCCEB2B442AD
S315080029C016D805EBC1014FF47A756A43B1F902408E
S315080029D04968521A04EBD47102EB610292FBF4F2D5
S315080029E09042CFDBB3F902009042CBDC10B2C9E7C4
S315080029F037F831E04E1CE645E3D33146DEE70248B8
S31508002A00C0E700BFA82400200080FFFF08B50448DF
S31508002A10FFF71CFFBDE8084001201DF0FABC00BF07
S31508002A209C140208004870474E0D00207FB51422FA
S31508002A30002101A81EF02FF9044B01A94FF0FF3021
S31508002A4002931DF01CFD07B05DF804FB006A180030
S31508002A5082B06B4683E80300034A93E8030082E8E2
S31508002A60030002B0704700BFC02400201B0603F015
S31508002A70706300F00F000902034301F47061120449
S31508002A8002F470220B431343014A1360704700BFD8
S31508002A900020025C2DE9F04717460C4688B029B19C
S31508002AA00139B1F5806F01D301263FE0244AD66883
S31508002AB016F48036FBD140EA01212238112805D8C0
S31508002AC0204DC540ED4315F0010533D0012541F0F1
S31508002AD000413A0702F0805213431943184B5960D4
S31508002AE025BB194A03AB10685168DFF860A003C319
S31508002AF00223CDE906350DF10C090DF11408CDF8C0
S31508002B00149098E80E00DAE90005A847022148461D
S31508002B1016F05DFA0028F2D00F22E31C009223F08B
S31508002B20030398E8070047B116F071F8304608B075
S31508002B30BDE8F08741F00341CBE716F0CBF8F5E79F
S31508002B400020025C0148020020150208C02400206B
S31508002B500122054B9A60DA68D203FCD4D86820F0C3
S31508002B600F000004000C70470020025C014B186837
S31508002B70704700BF0040025C014B5868704700BFB1
S31508002B800010025C014B186B704700BF0010025C16
S31508002B90014B1868704700BF0010025C014B986033
S31508002BA0704700BF0010025C014B1864704700BFF5
S31508002BB00010025C014B5864704700BF0010025CAD
S31508002BC0014B5863704700BF0010025C0022014B9E
S31508002BD01A6070470010025C024A136843F001034A
S31508002BE0136070470010025C43F20402014B1A603E
S31508002BF0704700BF0010025C024A136843F03003B6
S31508002C00136070470010025C044B1A6842F4807225
S31508002C101A601A6822F480721A6070470010025C03
S31508002C20024A136843F48063136070470010025C1D
S31508002C30034A136823F4702343EA00401060704780
S31508002C400010025C044B1A6902605A6942609A696C
S31508002C508260DB69C36070470010025C0268044B3F
S31508002C601A6142685A6182689A61C268DA61704775
S31508002C700010025C024B1A6BD207FCD4186270472C
S31508002C800010025C024B186B00F00E00704700BF84
S31508002C900010025C82B01FB507930A9B04AC8B42F6
S31508002CA028BF0B4604E907001048D100079948BF1A
S31508002CB003330160099948BF23F0030323F07043E7
S31508002CC001F0E041194341F000518160002102F012
S31508002CD0E042019C134343F00053C16004618361E1
S31508002CE0416304B0BDE8104002B070470000025CC2
S31508002CF03F22034B1A631022DA6103229A63704754
S31508002D000000025C024AD36B9B07FCD4704700BFE5
S31508002D100000025C034B986A10F0240018BF0420D8
S31508002D20704700BF0000025C08B5FFF7F3FF064BCB
S31508002D30DB6B23F47F4323F0EF0303431EBF01221B
S31508002D40024BC3F8FC2F08BD0000025C00F0FF3FF1
S31508002D50032208B5054B186019615A63FFF7C8FFC7
S31508002D60FFF7D0FFBDE80840FFF7DEBF0000025CB2
S31508002D7042680346182A10B50AD0202A1DD0102A00
S31508002D802BD1174AD2F80424D4010AD4012013E01F
S31508002D90134AD2F804249001F8D50A6842F00802CA
S31508002DA00A6010481A6882424FF000000ED10A687D
S31508002DB042F040020A60586010BD094AD2F804245D
S31508002DC05201E3D50A6842F00402E9E7064CA2423A
S31508002DD0F2D10A6842F08002ECE70720ECE700BF70
S31508002DE00000025C153100201631002013B5084C8E
S31508002DF0D4F80444E40508D5009313460A46014668
S31508002E00002000F01BF802B010BD0120FBE700BF50
S31508002E100000025C13B5084CD4F80444E40508D550
S31508002E20009313460A460146002000F02BF802B02C
S31508002E3010BD0120FBE700BF0000025CF0B5164696
S31508002E405A688DB0102A0D46129F15D17A68102A35
S31508002E5012D10A4A09AC07CA84E80700224629465D
S31508002E60CDE90547CDE90344CDE901440448009678
S31508002E7015F0D1FF0DB0F0BD0720FBE72C150208B1
S31508002E8030000100F0B516465A688DB0102A0D4676
S31508002E90129F15D17A68102A12D10A4A09AC07CAB4
S31508002EA084E8070022462946CDE90574CDE903449E
S31508002EB0CDE901440448009615F0ADFF0DB0F0BD0C
S31508002EC00720FBE72C1502081000010070B598B022
S31508002ED0002843D02C4C08AD0FCC0FC50FCC0FC51E
S31508002EE00FCC0FC594E80F0085E80F006D4604AEB9
S31508002EF004F1100320340FCB85E80F0094E80F0087
S31508002F0086E80F00FFF780FE0420FFF791FEFFF723
S31508002F106BFE3046FFF7A2FE002408AE56F8040BF7
S31508002F200134FFF7A7FE102CF8D1FFF725FE03287A
S31508002F30FBD90024FFF74AFE2646FFF717FE55F889
S31508002F40043B01365840042E44EA0004F5D12CB15E
S31508002F50012206200D4B1A7018B070BDFFF754FEFB
S31508002F600820FFF71BFE0020FFF71EFE0720FFF7CD
S31508002F7021FE4FF40070FFF723FE0820FFF758FEE6
S31508002F80FFF72AFE0020E7E70C1602081831002092
S31508002F9008B5FFF739FE0122014B1A7008BD00BFBC
S31508002FA01731002030B589B005AC84E80700FFF773
S31508002FB0E9FDC30501D5FFF7EBFF0A4D2B781BB1D9
S31508002FC016F09CF800232B70074B069AD3E90101EB
S31508002FD08DE8030002921B6894E8070016F00AF8C9
S31508002FE009B030BD173100206C1602081FB516F05F
S31508002FF085F8044630B1012206240D4B1A70204686
S3150800300004B010BDFFF7B2FD0090FFF7AFFD0190C9
S31508003010FFF7ACFD0290FFF7A9FD03906846FFF79E
S315080030201DFEFFF7B5FFFFF7E7FDFFF7F9FDE6E73A
S315080030301831002005289ABF014B185C00207047FC
S315080030407816020830B5154B87B00293144B0390D7
S31508003050049346F611030D46059300F06DF91428FE
S31508003060044616D1684616F01DF94FF0A843032208
S3150800307002A95A6319601D619A63DA6B9207FCD13B
S31508003080142C02D1684616F01BF900F089F904469B
S3150800309001E00028E9D0204607B030BDC82400204A
S315080030A0040000202DE9F04FB1B005468C46E946EC
S315080030B06E4F3B9EDDF8F8E0409C07F1100AC846C3
S315080030C0386879680837A8E803005745C146F6D135
S315080030D00EEB0208C8F1000909F00F09002E00F0EE
S315080030E0AF80774207F00F070121DDF8FCB0C4F185
S315080030F0100ACDF810B0059144F0005106914FEA38
S315080031000A2101F4F85141F02101079106B96B46ED
S315080031100893002D40F09680002C00F0938004ABB5
S315080031200993002E00F0908046F000530A93002D74
S3150800313040F08D80002C14BF0123212343EA072386
S315080031400B9308A942F00053CDF830C03D980D9175
S315080031500E934FEA092343F041030F93109002B1EF
S315080031600CA9002A16BF00224FF00052412342EA5A
S315080031700E021191129213933C9B3D4A149310AB85
S3150800318015933C4B0021169340F6110317933A4BBF
S31508003190002D08BF1346189314AB1993374B10220A
S315080031A01A9311231B931CAB18461DF074FD0122BC
S315080031B01D924AF080421E9200220346239205B9C8
S315080031C0EB46102C08BF01230DF1900A10220021AE
S315080031D05046CDF880B0219322941DF05CFD002C5A
S315080031E037D020AB002125938F4218BF534647F0AE
S315080031F0804226923A9A2CA88A4228922993134604
S315080032000CBF4FF080430B46102233432B912A9371
S315080032101DF041FDFEB95346C8442D932CA948F02C
S31508003220804318A82E93FFF70DFF30B92DB9034632
S31508003230A34212D1002818BF2C2031B0BDE8F08F68
S31508003240102751E701236BE747F000536EE7212368
S3150800325074E70123C6E728ABDEE703F1C0026A4438
S3150800326012F8C02C01331043E2E700BF7E160208AD
S315080032709016020810000020941602080400002088
S31508003280F0B5C0299FB0249E4FD0B1F5807F04D0F9
S31508003290802941D029201FB0F0BD40F2344440F2C5
S315080032A01445002E08BF2C46212710250194012419
S315080032B00296039404950597259F069706B102ACD6
S315080032C007940124089509940A9221220B940C95D7
S315080032D00D92174A0AAC0E92164A0F94109242F6AD
S315080032E011021192129313941495159201AA16922B
S315080032F0CBB112AB1793042318931123199316AB6A
S315080033001A901B9340F61103C9081C911AA806A91E
S315080033101D93FFF797FEBEE7002E14BF4FF4866491
S315080033204FF48264C0E70EABE4E70F20B3E700BFB3
S31508003330981602081000001038B5164B5A6E42F05F
S3150800334004025A66D3F8802242F00102C3F88022AA
S31508003350114B5B68C3F3080343B14FF0A842D36B24
S3150800336013F0430FFBD11424204638BD4FF0A84371
S31508003370DC6B14F04304FBD1084D2B681BB9042100
S31508003380284602F01FFB2B68013343F000432B60ED
S31508003390EAE700BF0080005000ED00E0C8240020E6
S315080033A0014B00205B68704700ED00E04FF40052C7
S315080033B0034B00209A660322C3F86022704700BFB9
S315080033C00090005008B5FFF7E3FBC30708D5FFF7E1
S315080033D059FC062804D00A28F5D1FFF7D9FDF2E7EB
S315080033E04FF40052034B00209A660322C3F860226A
S315080033F008BD00BF00A000504FF40052084B10B59E
S315080034009A660322C3F8602215F068FF0446FFF7A0
S31508003410D9FF00280CBF20466FF0920010BD00BFF0
S315080034200090005037B5154D2B782BBB0093144BE5
S31508003430019302AB13E90300FFF70AFB4FF40052AE
S31508003440104B9A660322C3F8602215F047FF04461C
S3150800345015F07CFE40F0004015F0ABFCFFF7B2FF1C
S3150800346028B1002C08BF0446204603B030BD002C06
S31508003470FAD101232B70F7E70024F5E7193100206C
S315080034806591010800900050012300F01F02A0F585
S3150800349006200949A0F550604009934051F82020BC
S315080034A01A4341F82020054951F8202022EA03034F
S315080034B041F82030704700BFCC240020E0240020CB
S315080034C00121A0F506230F4AA3F550635B0900F016
S315080034D01F0001FA00F052F8231008430A4942F87F
S315080034E02300D1E90030034488680344C8680969A1
S315080034F003445B1802BFC2E90033C2E90233136111
S31508003500704700BFE0240020CC2400202DE9F04FAE
S31508003510A9B002921D46DDE9326704460822CDE9C4
S315080035200301414021FA02F34B40980702F10802D1
S3150800353018BF9B00202A1C44F4D18123B4FBF3F363
S3150800354003EBC313E41A7A4B04F506241B7804F537
S315080035505064002B40D1FDF74BFF014620B16FF0B8
S31508003560910029B0BDE8F08F4022059008A81DF00B
S3150800357092FB4022059918A81DF08DFBDFF8C8912B
S31508003580DFF8C8A14B4603F10F0B102208A9DAF899
S315080035900000CDF800B005931CF0D5FC00220146CA
S315080035A0059B09F110090DF1200891424CD1CDF87F
S315080035B000B01022DAF8000018A91CF0CDFC4FF074
S315080035C0000B03460DF160085B4549D1594B9945F7
S315080035D0D8D10122564B1A704FF081084FF00009D6
S315080035E0DFF868A1A4F506235349A3F550625209EA
S315080035F051F8221004F01F0C21FA0CF1C90744D423
S315080036004E4951F8220020FA0CF010F0010030D093
S31508003610B9F1000F08BFA146A3F6FF448123B4FB06
S31508003620F3F303EBC313E41A04F50624B8F101080F
S3150800363004F55064D6D1029BEBB1B9F1000F1AD04C
S31508003640349BC3F800906DE058F8040BCDE90623C7
S315080036500591FFF719FF069A079B05990132A4E71A
S3150800366058F8040B05930BF1010BFFF729FF059B8F
S31508003670AAE7029B13B96FF08B0072E7349BB9F186
S31508003680000F4ED0C3F800906BE70EB100233360ED
S315080036900FB100233B604FF0100B00232A4621464A
S315080036A0DAF80000CDF800B00DF004F908BB0EB149
S315080036B0C6F800B02B68224A934224D166B15FB19E
S315080036C03B462146DAF8000018AA0DF047F980B9FA
S315080036D03B6832689B1A3B60D5E90223DDE9031093
S315080036E0834208BF8A4216D0A4F50624A4F6FF44EE
S315080036F094E7144B984206D01233984203D0133BF2
S315080037009842E9D02BE72146DAF800000DF06CF96B
S315080037100028E1D0AFE7029B13B16B68012B03D0F9
S31508003720349B1C6000201CE76FF0840019E700BF7B
S315080037301A31002000710800CC240020E024002063
S31508003740105D175EFFDF00F0006D0800E40A002038
S315080037502DE9F04F87B08246894698461646DDF829
S3150800376040B02AB1002B4ED040F26C739A424DD825
S31508003770BBF1010F4DD8002406F110073946012088
S31508003780059416F04CF90546002845D021463A46D8
S315080037901DF081FA05ABCDE9014300942B460122C1
S315080037A050464946FFF7B2FE044680B110F18C0F29
S315080037B008BF6FF08D043A46002128461DF06BFAC3
S315080037C0284616F03DF9204607B0BDE8F08F144BA1
S315080037D0C5E902A92B60C5F804B02EB132464146A8
S315080037E005F110001DF030FA0E483B462A460599A9
S315080037F000680CF0C7FF18B90598FFF745FEDAE729
S315080038006FF09104D7E76FF08604DCE76FF0910458
S31508003810D9E76FF08504D6E76FF08C04D3E700BFCD
S31508003820105D175EE40A00202DE9F0438DB081464D
S31508003830DDE914780C4615461E469BB1B8F1000F13
S3150800384005D16FF0860420460DB0BDE8F083002F41
S31508003850F7D0B7F1005FF4D3C3F1005303F5803313
S315080038609F42EED81022002108A81DF014FA002263
S3150800387007AB029305AB019306AB21460093484676
S3150800388008ABCDE90522FFF741FE04460028DAD148
S315080038900599DEB1A94203D80029D2D115B1D0E7DE
S315080038A00029FBD0491BB14228BF3146069B09486F
S315080038B0C8F8001000913A46079900682B440CF0A6
S315080038C0F9FF002818BF6FF09104BCE7A942E9D2B6
S315080038D0B7E700BFE40A002030B58DB00C460546B0
S315080038E01022002108A81DF0D6F9002207AB029382
S315080038F005AB019306AB21460093284608ABCDE9F4
S315080039000522FFF703FE0446D0B9099B012B1AD0FE
S31508003910104B079918680DF067F8B8B9012207988F
S315080039200D49A0F50623A3F550635B0900F01F05B2
S31508003930AA4051F823506A4041F82320FFF7C0FDFA
S3150800394020460DB030BD6FF08404F9E76FF091049E
S31508003950F6E700BFE40A0020CC2400202DE9F04356
S3150800396089B00D4614461F46DDF8488020B96FF029
S31508003970860009B0BDE8F0830029F8D0002AF6D001
S31508003980B8F1000FF3D0028802F44F43B3F5824F23
S315080039900CBF13460023DBB202D06FF08500E8E7C0
S315080039A0122B01D0172BF8D122F0FF02B2F5E24F05
S315080039B040D14288C8F80020002A36D1E200C8F86B
S315080039C00020D8F80020B2F5807FE6D1122B09BF77
S315080039D0384B00221A681B6905EB040608BFD21883
S315080039E000231846224412F801CD16F8011D084393
S315080039F0B1EB0C010CBF4FF0FF3C4FF0000CB54289
S31508003A000CEA030343EA0103EDD10028AFD0002BEB
S31508003A10ADDA109B9C4249D82246294638461DF005
S31508003A2013F9119B00201C60A3E70732B4EBD20FF1
S31508003A30C7D09CE72A78042A99D1621ED200520878
S31508003A40B2F5807FC8F80020A7D1122B05F1010333
S31508003A5018BF4FF000094FF0400205934FF00003DE
S31508003A600ABF144E4E46D6F80C90CDE90623FFF74A
S31508003A709DFC00287FF47DAFCDF80C90D8F8003077
S31508003A800733DB08029308AB13E903008DE803004C
S31508003A90059B96E8070015F0FBFA0646FFF792FC29
S31508003AA000287FF466AF002EB3D060E76FF0890078
S31508003AB05FE700BFF81502082DE9F041069F0C469E
S31508003AC01646054610B309B302B9FBB96288B3EBCB
S31508003AD0D20F4FEAD20819D34C22002128461DF0EE
S31508003AE0DAF80D4B27F47E129A4212D1204615F0C9
S31508003AF03AFC044638B942463146281D1DF0A4F85A
S31508003B00C5F824802F602046BDE8F0816FF0860452
S31508003B10F9E76FF08504F6E70002C0032DE9F041E6
S31508003B200E4614460546002840D000293ED012B954
S31508003B300020BDE8F08103681F4823F47E13834202
S31508003B4037D1AF6BE7B1C7F1100807F12800424536
S31508003B50284404D21DF078F83C44AC63E8E74246B2
S31508003B601DF072F81022103C3C19AA63E0D02846D2
S31508003B7005F1280115F013FC0028DAD14644A8639C
S31508003B80102C0CD9671E27F00F073A4631462846EF
S31508003B9015F005FC0028CCD1E41BC9D03E442246CA
S31508003BA0314605F128001DF04FF8D6E76FF086007C
S31508003BB0BFE76FF08800BCE70002C0032DE9F043B9
S31508003BC088461F4605468BB070B169B163B1036874
S31508003BD0234923F47E1088423ED113F47C1FC3F395
S31508003BE0054604D0102E03D96FF086042AE0102665
S31508003BF096422BD8FFF7DAFB044618BBAB6B05F1E8
S31508003C002802CDE901236B6A2A1DCDE90423102376
S31508003C10CDE9083007AB1A460390069005F13C0932
S31508003C2001A904A8CDF81C90FFF7F4F80546FFF79C
S31508003C30C9FB04466DB928B93246494640461DF0C7
S31508003C4003F83E6020460BB0BDE8F0836FF08904A8
S31508003C50F8E76FF09204F5E76FF08504F2E700BF26
S31508003C600002C00307B5084B18689A889B7900902C
S31508003C706846ADF804208DF80630FEF703FB0020F1
S31508003C8003B05DF804FB00BF9C16020813B50024B8
S31508003C90064A6846536F43F00103536700948DF84C
S31508003CA00440FEF72BFA204602B010BD0040005033
S31508003CB030B58BB06C46174D0FCD0FC40FCD0FC462
S31508003CC095E8030084E80300134BD3F84C2112034C
S31508003CD018D4D3F85041E4B28DF81940FEF708F924
S31508003CE0204480F308008DF818000C48FCF708FFFC
S31508003CF06846FEF719F84FF4FA70FEF729F900201E
S31508003D000BB030BD064B1C884FF6FF739C4208BFAC
S31508003D108C24E1E7A41602080080E00F00F04902AF
S31508003D200001E00F6FF00402502110B50A480B4C51
S31508003D3012F0800FD3B21BBF03F00F03043BA31886
S31508003D401B1802F101020CBF83F800131976432AE7
S31508003D50EED1002010BD00BF00ED00E000E100E05C
S31508003D6010B5044614F005FF024B1C6014F005FF5D
S31508003D70002010BDF424002010B514F0FAFE034B01
S31508003D801C6814F0FAFE204610BD00BFF42400207B
S31508003D9013B5002301241A4619461846009402F062
S31508003DA0B3F8002300941A461946184602F0DCF8C0
S31508003DB00248FFF7D5FF002002B010BD080B00200F
S31508003DC0034B0222186800238068194613F024BFA3
S31508003DD0E80B002030B51446054687B0104615F0A6
S31508003DE0F3FB6369024683423CBFD4E903315B189F
S31508003DF01B1A7BB10F49284603910021CDE90131F1
S31508003E00012304940093D4E9001314F03BFE002028
S31508003E1007B030BD0122627694F82D20002AF6D02C
S31508003E2084F835301321E369204698472046636AAB
S31508003E309847ECE7D53D00082DE9F04788B00446D9
S31508003E4088461746994614F09BFE8246002F7AD07C
S31508003E50237E03F0FF02002B00F0A280204615F017
S31508003E60B3FB6669B04205D1637ED4E903521544B3
S31508003E70AD1B01E0F9D9851BBD4228BF3D4614F0AC
S31508003E807FFE94F82D300646002B6DD12A46404613
S31508003E9061691CF0D9FE63692F462B44636121E0F2
S31508003EA0037803F0FD0111295BD1216B814205D10D
S31508003EB0A3F111014B424B4184F83430013F636949
S31508003EC0216B01328B4203F1010308BF236363614F
S31508003ED095426069E4D1D4E90323216B13449942DE
S31508003EE000D122630025D4E903236169134499426A
S31508003EF008BF6261207A6576FDF796F9204615F0C7
S31508003F0063FB6369834232D1257694F82D30E568E0
S31508003F10656103B125632046636A9847214B2A46A3
S31508003F200393002302932369216801930123207ACE
S31508003F3000930494636814F0A5FD207AFDF794F9BC
S31508003F40304614F023FE5046C9F8007014F01EFEE1
S31508003F50D9F80030002B0CBF1B20002008B0BDE8A4
S31508003F60F08708F8013BAAE72F460022B0E70123AD
S31508003F70207A23760DF11E01FDF7DEF99DF81E3035
S31508003F80002BDAD00DF11F01207AFDF7ADF99DF867
S31508003F901F100029D1D12246207AFFF71BFFCCE754
S31508003FA01746D0E7D53D0008002808DB012342095B
S31508003FB000F01F0003FA00F0014B43F82200704797
S31508003FC000E100E0002809DB0122430900F01F0098
S31508003FD002FA00F0024A603342F82300704700BF35
S31508003FE000E100E070B504460568FFF7C5FE8442A7
S31508003FF002D10020FFF7B4FE95F93600FFF7E2FF7D
S3150800400095F93630002B0DDB01215A0903F01F0301
S3150800401001FA03F31849203241F82230BFF34F8FD3
S31508004020BFF36F8F95F93700FFF7CCFF95F9373057
S31508004030002B0DDB01215A0903F01F0301FA03F3D4
S315080040400D49203241F82230BFF34F8FBFF36F8FEF
S31508004050287AFDF729F9287AFDF78CF8FDF768F82C
S3150800406000232846C4E90033C4E90433A360AB6AD5
S31508004070BDE87040184700BF00E100E02DE9F041B7
S315080040800C461546064686B04022002120461F46A5
S315080040901CF001FE95E8030000232A692376EB68E5
S315080040A084E80300C4E904232A7DE36084F82C200D
S315080040B0AA7D2363012384F8343084F835300C9BB9
S315080040C084F82D2023620D9BE76163620E9BA36231
S315080040D02B7A84F836306B7A84F837302D4B346077
S315080040E073602D4BB3602D4B33612D4B73612D4B94
S315080040F0F360FDF765F838B12B4B984204D01024CD
S31508004100204606B0BDE8F081002104F10800FCF75E
S31508004110DFFF07460028F2D14FF00108234B336230
S31508004120234B84F83C80B361224BF3619DF8403001
S3150800413084F8390084F83B309DF83C30204684F8F2
S315080041403A30697D84F8388015F04EFA95F90900F9
S31508004150FFF738FF95F90900FFF726FF164B049479
S31508004160CDE902732369CDE900836368E2682168B3
S31508004170207A14F087FC04460028C0D195F9080077
S31508004180FFF720FF95F90800FFF70EFF3046FFF707
S31508004190E7FDB5E739960108393E0008B7950108E5
S315080041A0BD950108E53F0008038000F08D950108DC
S315080041B0E9950108C3950108D53D00082DE9F041A8
S315080041C001271C465D4B86B002935D4B0C9D0193FF
S315080041D05C4B904600930A46CDE9037729465A4B2D
S315080041E0FFF74CFF0646002840F0818023683946D1
S315080041F02B6463683A206B64637A85F84930237ABE
S3150800420085F84830E37A85F84B30A37A85F84A3042
S31508004210637B85F84D30237B85F84C30E37B85F846
S315080042204F30A37B85F84E30FDF7E8FA3B4604226B
S31508004230617A207AFEF762F83B460222E17AA07A92
S31508004240FEF75CF839466068FDF7D8FA88F800602A
S3150800425041462068FEF778FA1421627C3B4B03EB53
S315080042604210C0F83416677A217A323241EA074199
S31508004270C0F84C16E07AA17A03EB421341EA0041F2
S31508004280596085F8506098F81930032B53D8DFE841
S3150800429003F01F02324D0123002785F85030002312
S315080042A00222617B207BFEF729F8617B227B637CF7
S315080042B042EA014241F23C615B0103F1A04303F586
S315080042C070335A500422236803F58053DA65AFB970
S315080042D0237A2A6C85F84830637A052185F84930AF
S315080042E0D36C206843F00403D36414F070FC3046A2
S315080042F006B0BDE8F081022385F850300023042279
S31508004300E17BA07BFDF7FAFF41F234620221637C70
S315080043105B0103F1A04303F570339950E17BA27B5F
S3150800432003F5B25342EA01421A60D1E70323012793
S3150800433085F85030B3E72326D9E700BF639701080D
S3150800434057970108EF970108E397010800C0035043
S31508004350BFF35F8F074B5A6A22F480325A62D3F84A
S31508004360942022F00102C3F89420BFF34F8FBFF3C5
S315080043706F8F704700ED00E070B52648264CFFF7B2
S31508004380E7FF844208BF4FF08043244A18BF20F055
S315080043901F03D2F8C01018BF203B21F0FF0141F0DF
S315080043A0A001B3F1005FC2F8C0100CD31C4D1D4E1E
S315080043B0296843F00103C2F898100131C2F89C60DD
S315080043C0C2F8A0302960844210D01548164B0268FE
S315080043D0124923F01F0343F00303C1F89820C1F8DC
S315080043E09C30124B0132C1F8A0300260BFF35F8FD8
S315080043F005220A4BC3F894205A6A42F480325A625C
S31508004400BFF34F8FBFF36F8FBFF34F8FBFF36F8F1E
S3150800441070BD00BF7C0D00202C0F002000ED00E0D1
S31508004420F8240020030000204B0F0020E1FFFF3F87
S31508004430F8B51446FFF78CFF1F2C27D90027C206AC
S315080044402A4D1CBF20F01F0020302A68CB06284BB7
S3150800445018BF21F01F01FCB2A24219D8D3F8C040F8
S3150800446020F01F0024F47F4444F4807421F01F01D7
S31508004470C3F8C04040F00300C3F8982041F0030198
S315080044800132C3F89C00C3F8A0102A6000201AE085
S31508004490C3F89840D3F89C40D3F8A06024F01F04D2
S315080044A0A04226F01F0601D1B142EFD0B04201D892
S315080044B0A14207D2D3F89840013724F0FF04C3F885
S315080044C09840C8E72820BFF35F8F0522084BC3F83A
S315080044D094205A6A42F480325A62BFF34F8FBFF370
S315080044E06F8FBFF34F8FBFF36F8FF8BDF82400208F
S315080044F000ED00E0BFF34F8F0549064BCA6802F48A
S31508004500E0621343CB60BFF34F8F00BFFDE700BFE8
S3150800451000ED00E00400FA05054B1A782AB95B7825
S31508004520002B14BF0220032070470120704700BFEC
S31508004530233100200329F8B598BF124B05460E46CD
S315080045408CBF00245C5C032805D8DFE800F002086D
S315080045500B0E44F002040C4B1F684FB9F8BD44F02B
S315080045600804F8E744F02004F5E744F08004F2E78D
S315080045707B681A68144203D0314628465B68984718
S315080045803F68EAE7CC1602082025002038B5104D0A
S315080045902B78ABB10F4C23781BB100F05DFB0023E1
S315080045A02370002015F08FF90B4C50B100F0A4FBD6
S315080045B00023012120782B70FFF7BCFF012323700D
S315080045C038BD0122054B1A702278054B1A70F7E799
S315080045D0223100201D3100201B310020213100200E
S315080045E02831002010B514F0C4FA064B04461B788F
S315080045F01BB1BDE8104014F0C0BAFFF7C7FF20464C
S31508004600F7E700BF1C310020002814BF0121FF2155
S31508004610074A13780B44137008D0064B1B78012BF6
S3150800462004D9054B1B780BB9FFF7B0BF704700BF1D
S31508004630233100201B3100202131002070B514F0F1
S3150800464098FA124E054633789BB900F073FC044677
S3150800465020B1284614F091FA204670BD0C4814F093
S315080046600AFA00F0CDFE0B4B1C6000F027FD0A4B42
S31508004670186000F009FA15F028F9084B00241860AC
S3150800468001232846337014F078FAE5E71E31002036
S315080046902025002028250020242500201C25002070
S315080046A000292DE9F34114BF0121FF21254A00F114
S315080046B0FF30135C0B4413543AD0234E317801294A
S315080046C036D9FFF729FF0128044634D81F4F14F0BE
S315080046D050FA3B781BB31E4D2B781BB901222A7062
S315080046E01C4A1370DFF8708098F8003033B10190D7
S315080046F000F0B2FA0023019888F8003014F03DFA69
S31508004700012015F0E0F814F034FA2B782BB101905B
S3150800471000F0F2FA002301982B7000233B7014F086
S315080047202CFA3078A04203D02146FFF703FF3470F5
S3150800473002B0BDE8F0810329F3D10228F1D115F0C2
S31508004740C8F8EEE7233100201B3100202231002073
S315080047501C310020213100201D31002010B50446EF
S3150800476014F007FA002C14BF0121FF21064A13781A
S315080047700B44DBB21370B3FA83F3BDE81040034A67
S315080047805B09137014F0F9B9263100202531002091
S3150800479068B514F0EEF9094B06461B78012B04D8C8
S315080047A014F0EBF90025284668BD054B1D6800F096
S315080047B0D7FA0544304614F0E0F9F4E71B31002037
S315080047C02825002038B54160044614F0D2F905467C
S315080047D02146044814F052F92846BDE8384014F03A
S315080047E0CCB900BF20250020054B1B685843054B54
S315080047F000F5742000F23F20B0FBF3F0704700BFCD
S315080048002425002040420F002DE9FF47EFF31086CC
S3150800481072B600E000BF14F09AF8002800F09B80FA
S31508004820704D714F2B7823B10020FFF7EDFE002362
S315080048302B70FFF771FE0446002800F09380841E53
S31508004840E4B2012C40F29680FFF766FE0128804606
S3150800485004D9664B1B780BB915F033F8644CDFF8AE
S31508004860B0912078DFF8ACA140450AD0002389F83A
S3150800487000309AF8003013B94146FFF75BFE84F81A
S31508004880008099F800303BB12378022B04D100232D
S3150800489089F800301BF0F7FEB8F1010F0FD9DFF8E1
S315080048A04C8198F8003053B9524B1B7823B900F065
S315080048B0CDF90122504B1A70012388F80030207870
S315080048C000F038FA9AF8003013B14C4B1B78237075
S315080048D000E000BF06B962B6EFF3108672B6484B21
S315080048E01A7852B100221A70444B20781B789842E5
S315080048F003D101212170FFF71DFE384600F054FB55
S3150800490014F030F8804600288CD1384F89F800001A
S315080049103B789BB1DFF8E0908AF8000099F8003000
S315080049201BB100F099F989F80080002014F0CBFF3C
S3150800493000284ED000F0E0F900233B702B7823B115
S315080049400020FFF761FE00232B7000212078FFF777
S31508004950F1FD0023237000E000BF06B962B604B07B
S31508004960BDE8F0872B78002B3FF46EAFFFF74CFEBF
S315080049702C7069E7002003A900F05AFB04460028BA
S315080049807FF462AF1F4B039A1B689A4205D8012031
S31508004990FFF73AFE01232B7056E71B4BD3F800802E
S315080049A000F0DEF9039B80449845F0D200F0F0F958
S315080049B000280CBF00230423039943F00203CDE922
S315080049C0004338462346114AA1EB080114F082FF3A
S315080049D03AE7012000F0AEF906B962B6EFF31086A1
S315080049E072B6A2E727310020FC24002022310020DD
S315080049F01B310020263100201D31002028310020DF
S31508004A00203100201C25002028250020E545000827
S31508004A10253100202131002010B514F0AAF8002213
S31508004A20044B1C781A7014F0A8F800F02FFC2043E9
S31508004A30C0B210BD1F31002073B5114E044633783D
S31508004A40834212D000238DF8043080B102238DF8FA
S31508004A50053001A8FDF71AFB0A4D402054B1FFF7AF
S31508004A60C3FE2B68181A2860347002B070BD8DF822
S31508004A700500EEE7FFF7B8FE2B681844F3E700BF1A
S31508004A80620D00206425002073B5002401A88DF866
S31508004A900440FDF795FB20464FF40024FFF7CCFFB2
S31508004AA03D493E4B0A6F3E4802F007021A60D1F8AC
S31508004AB02031D1F8241144664FF40034446600F5D9
S31508004AC098308069374DC0F34000032A01F007018A
S31508004AD0287058D003F00303981E43424341022925
S31508004AE008BF43F00103304C4FF4C8702370FFF73A
S31508004AF07BFE2E4B2E4A18600A2316682D49013B69
S31508004B0013F0FF0341F8040BF9D100EBC00330445E
S31508004B1018442B781060284D6BB323781E4A3BB98E
S31508004B20D2F8003103F00303591E4B424B41237060
S31508004B30D2F8003103F00303022B26D0032B27D02B
S31508004B40012B18D1FBF7D6FFA8B11C4B411EDC6818
S31508004B500023024608461946C4F30B04184E0134CE
S31508004B6004EB8404E4FB060112F086FDFFF73CFE25
S31508004B702B68184428601F20FFF736FE2B68184458
S31508004B80286002B070BD0123A9E7FBF7CDFFDBE77C
S31508004B9013F01AFFD8E700BF008000502C2500202C
S31508004BA0009000502A3100202D3100206025002079
S31508004BB034250020382500206425002000C0015037
S31508004BC040420F00074B1A7852B100221A70064A63
S31508004BD0136F23F0070343F001031367FBF774BF52
S31508004BE0704700BF2B3100200080005008B5124BDB
S31508004BF01B78FBB1022014F0CEFED8B100F04AFAB9
S31508004C00C0B10E4B9A6DD20302D5DB6D9B0711D44A
S31508004C1001220B4B1A7014F09DFE0A4B0A4A1860C3
S31508004C20136F23F0070343F003031367BDE8084037
S31508004C30FBF74ABF08BD00BF2D31002000C0005059
S31508004C402C31002030250020008000500122014B25
S31508004C501A7070472B310020F8B51E4B1B78002BB5
S31508004C6036D01D4C23789BB91C4B9A6DD20302D5BE
S31508004C70DB6D9B072CD414F06DFE194B194A18608E
S31508004C80136F23F0070343F003031367FBF71CFFB7
S31508004C9014F060FE124B144D1B68144EC01A2B7884
S31508004CA0134F56F8232046F82300111A3A6811487C
S31508004CB0521A0A213A600932B2FBF1F20133DBB229
S31508004CC00260B3FBF1F201FB12332B700023237051
S31508004CD0F8BD00BF2D3100202C31002000C0005047
S31508004CE0302500200080005029310020382500207A
S31508004CF0342500206025002008B513F04DFF094A29
S31508004D000949136F096823F007030B431367074B19
S31508004D101B7813B10122064B9A62BDE80840FBF7DF
S31508004D20D3BE00BF008000502C2500202D31002066
S31508004D3000E0005002280AD003280BD001280CD125
S31508004D40064A136923F00403136130BF7047002035
S31508004D50FDF7A8B90020FDF7BDB9704700ED00E0E2
S31508004D60054B1B781BB1054B1B6803EBD303044AA1
S31508004D7010681844704700BF2D31002060250020B8
S31508004D80642500200122014B1A7070472D3100203E
S31508004D90014B1878704700BF2D31002010B514F06C
S31508004DA0E7FD0A4C0A4B19682368C31A01B10BB907
S31508004DB0206010BD4A699A423ABF9B1A0022D21A4D
S31508004DC04A6128BF00238968F0E700BF68250020EC
S31508004DD074250020C38870B504460D463BB9FFF715
S31508004DE0D7FC8542064602D214F05EFD35460F49C9
S31508004DF065610B68ABB90C60A36011E0AD1A9A68DF
S31508004E00184665612AB113465A69AA42F6D950B1BD
S31508004E101A4613468460A36013B15969491B596140
S31508004E2070BD0020F0E70C60F5E700BF7425002090
S31508004E3038B5134D2B685B6993B1124A0220146882
S31508004E401C4414F09CFD204600F06EFA00230E491F
S31508004E502A680B70D088800709D501230B7038BDE6
S31508004E60022014F08CFD022000F0A8FAEEE7926802
S31508004E70002AF4D050690344012BEBD9EFE700BFB1
S31508004E8074250020682500202F31002070B51646AD
S31508004E909DF81420C0E903360271049ABDF818304B
S31508004EA00260002204460D468260C38006BB14F0E9
S31508004EB05FFD2844A0613DB9E368656113B12046EA
S31508004EC02168984796B1354613F053FE0646FFF714
S31508004ED065FF29462046FFF77DFF074B1B68A3425F
S31508004EE001D1FFF7A5FF304613F047FE002070BD3D
S31508004EF014F03EFD3044DDE77425002000220C49FD
S31508004F000B687BB183420AD183687AB19360836860
S31508004F101BB15A6941690A445A61002070471A460A
S31508004F209B68EEE70028EFD0022070470B60EEE79B
S31508004F307425002070B513F023FE144E0546347808
S31508004F40FCB9134B1C60134B1C60134B1C8000F000
S31508004F50A9F9012014F013FD14F02CFD0F4B02469D
S31508004F60186020B9284613F011FE232070BD234689
S31508004F7040F2E7310A4812F07FFB0A4B186001231A
S31508004F803370284613F002FE0020EFE72E3100208A
S31508004F907425002068250020743000207025002024
S31508004FA018FCFFFF6C2500202DE9F0410546F8B1F5
S31508004FB013F0DFFD0F4F0646FFF7F0FE2846D7F839
S31508004FC00080FFF79BFF044628B1304613F0D5FD55
S31508004FD02046BDE8F081A8453B6803D123B1FFF719
S31508004FE027FFF2E7002BF0D1022000F0CFF9ECE71B
S31508004FF02224EDE77425002038B50C46054698B1FD
S3150800500091B100230B7013F0BBFD0121074B1B6800
S315080050100BB122781AB113F0B9FD002038BDAB42A6
S3150800502014BF9B682170F3E72220F7E77425002058
S315080050302DE9F0410746884613F0A2FD00260546ED
S31508005040124B1C6824B9284613F0A0FD1B2016E055
S3150800505063691E44E388BB4215D114F089FC0C4CE5
S315080050602368C01AB0420CD214F082FC226832447B
S31508005070121A2846C8F8002013F088FD0020BDE85B
S31508005080F0810022F5E7A468DCE700BF742500205C
S315080050906825002008B5074B187848B114F05AFC63
S315080050A0054B1B689B69C01A02288CBF002001208B
S315080050B008BD00BF2F31002074250020014B186859
S315080050C0704700BF702500200C4B70B51B680D4655
S315080050D0834211D340F2E73100248C462146084B1F
S315080050E04FF47A721E680023E0FB06C1604612F090
S315080050F0C3FA2860204670BD2120FCE76C250020F5
S31508005100702500200F4B10B51A689AB14FF47A71C2
S31508005110531E1342A0FB01010ED1B2FA82F2C2F16C
S315080051201F04531CD243E04001FA03F3184321FA43
S3150800513002F20243104610BD002312F09DFA024601
S31508005140F8E700BF70250020C2072DE9F04704469E
S315080051500BD54B4A138801339BB21380FFF71EFE0B
S31508005160484B1B680BB1FFF763FEA30740F1858028
S3150800517013F006FD4FF0000980464D46FFF70EFE78
S315080051804F46404E34680CB163698BB100223E4BE2
S31508005190012D1A7003D119F0020F18BF1D70002CCB
S315080051A05BD0FFF745FE4046BDE8F04713F0EEBC7E
S315080051B023461A792179914288BF1C469B6813B108
S315080051C05A69002AF5D0404613F0E0FCD4F810904E
S315080051D0B9F1000F45D014F0CBFBA269A0EB020889
S315080051E04FEAE873C14577EB03033BDA23691344B7
S315080051F0A36101232269CAB1C3B9A38BB9EB080815
S3150800520033B1E28B13449BB2B3F57A7F1CD2E383A6
S3150800521013F0B6FC814641462046FFF7DBFDA3693D
S31508005220226948461344A36113F0B0FCE368B4F856
S315080052300690013513B120462168984713F0A0FC63
S315080052408046FFF7ABFD9DE7A3F57A73E383A36971
S3150800525018F1FF38013BA361DAE7022000F096F85F
S31508005260A1E7C84613F08CFC82462046FFF746FEA7
S31508005270504613F08BFC0023BCE7BDE8F08700BF5F
S3150800528074300020742500203031002010B513F04A
S3150800529077FC034B1C7813F079FC204610BD00BF41
S315080052A0303100201FB500241C4B012118689A884C
S315080052B00290D3F806009B7A00903E20ADF80C20A9
S315080052C08DF80430FCF79AFA02A88DF808408DF894
S315080052D00C40FDF787F9694601208DF80040FDF777
S315080052E045F94FF0B04240F2FF31936923F47F73DA
S315080052F023F0030393610A4B5961936A13F0080379
S31508005300FBD113620120FDF74BF94FF40042054B20
S31508005310C3F880211A6004B010BD00BFD016020879
S315080053200020005800E100E010B5044613F021FC07
S315080053304FF0B042936A1907FCD4136A116C52698C
S31508005340520604D4CA1A032A01D899420ED1E21A7F
S31508005350022A98BFDC1CB4F1FF3F38BF013C4FF06E
S31508005360B0431C649A6942F040029A6113F005FC46
S31508005370054A13783BB14FF0B041CB6B43F00203BB
S31508005380CB630023137010BD630D0020820700F065
S3150800539001030AD50121084A43F0400311704FF072
S315080053A0B041CA6B22F00302CA634FF0B0418A6962
S315080053B022EA03038B617047630D0020830742BF0F
S315080053C04022014B5A6170470010005810B513F07F
S315080053D0D7FB4FF0B04304465B695A06074A03F009
S315080053E0010003F0510348BF40F002005361FFF784
S315080053F0ABFE2046BDE8104013F0C8BB002000589D
S315080054000A4B10B5D3F8403203F00303013B012BD6
S315080054100BD813F0AEFB044601210220FFF740F932
S315080054202046BDE8104013F0A8BB10BD0080005010
S31508005430024A0349034800F0D7BD00BFDC1602083C
S315080054401C170208F41602080A4619B1024B002175
S315080054501B681847704700BF140B00200E4B03400B
S31508005460B3F1607F06D1B1F5885F14BF6FF086008F
S3150800547000207047B3F1707F0BD101F4E043B3F518
S31508005480005F06D111F4E06F0CBF6FF086000020B4
S3150800549070476FF0860070470000C07F8A42F8B5F3
S315080054A007460D4600F021819B4822F0FF01814204
S315080054B010D09A4C22F4FF7323F00103A34209D0BB
S315080054C0974B994206D0974922F47F7323F003033A
S315080054D08B4223D125F0FF01814210D08F4825F455
S315080054E0FF7323F00103834209D08D4B994206D0FE
S315080054F08C4925F47F7323F003038B420ED115F0F4
