:020000040800F2
:10000000C00A0020551F0008E7B50108E7B5010840
:100010007FC30108E7B50108E7B50108E7B50108A6
:10002000E7B50108E7B50108E7B50108E7B501083C
:10003000E7B50108E7B5010835B40108E7B50108DF
:10004000E7B50108E7B50108E7B50108E7B501081C
:10005000E7B50108E7B50108E7B50108E7B501080C
:10006000E7B50108E7B50108E7B50108E7B50108FC
:10007000E7B50108E7B50108E7B5010839690008E7
:10008000E7B50108E7B50108E7B50108E7B50108DC
:10009000E7B50108E7B50108E7B50108E7B50108CC
:1000A000E7B50108E7B5010829230008E7B501080D
:1000B000E7B50108E7B50108A12400087D24000880
:1000C000E7B50108E7B50108A9810108E7B501080E
:1000D0009D8B0108FB380208F7380208918301085C
:1000E00007390208FF380208758B01080339020836
:1000F000DD8B0108E9650108498C0108BD6701082D
:10010000E7B50108E7B50108E7B50108E7B501085B
:10011000E7B50108E7B50108E7B50108E7B501084B
:10012000E7B50108E7B50108E7B50108E7B501083B
:10013000E7B50108E7B50108E7B50108E7B501082B
:10014000E7B50108E7B50108E7B5010800000000C0
:100150002DE9F84340247E4E7E4D01213464052074
:100160002C641BF004FA01201BF0F4F9C82034645D
:100170001BF0F0F92C64072001F0E4FA0746012097
:100180001BF0E8F9C82034641BF0E4F92C64082063
:1001900001F0D8FA054601201BF0DCF934646E4EFC
:1001A00007EB0525338803449BB20D2B338010D811
:1001B000032001F069FE60B1684C694920681CF0B9
:1001C0009AF81BF00EFA1BF00DFA664920681CF035
:1001D00092F833880E2B72D14024634B5D4FC820B8
:1001E000DFF898911D801BF0B5F93C64DFF8608161
:1001F0003A2099F800101BF0BAF91E201BF0AAF95A
:10020000C820C8F840401BF0A5F90B213B203C64F6
:100210001BF0ADF91F201BF09DF9C820C8F8404025
:100220001BF098F90D2161203C641BF0A0F91F2000
:100230001BF090F9C820C8F840401BF08BF93C64D3
:1002400099F800103A2041F080011BF090F91E202F
:100250001BF080F94FF49670C8F840401BF07AF913
:100260003C64612001F06EFA0446032001F00CFEAC
:1002700068B13A4F3A4938681CF03DF81BF0B1F9C3
:100280001BF0B0F96122394938681CF034F80320BA
:1002900001F0FAFD68B1314F314938681CF02BF894
:1002A0001BF09FF91BF09EF92246314938681CF07B
:1002B00022F801201BF04EF94022254B1A643388A6
:1002C0000E2B2BD90F233380274B03201E8801F0E0
:1002D000DBFD18B3214C224920681CF00CF81BF000
:1002E00080F91BF07FF9A81B18F07AFE00224FF06E
:1002F0007C531AF0C7FD14A3D3E900231AF0C2FD02
:1003000000221C4B1AF0BEFD18F0D4FE18F07AFE45
:1003100002460B46206818491BF0EDFF40240C4DA7
:1003200001201BF017F9C8202C641BF013F9094BAE
:1003300004201C6401211BF01AF901201BF00AF9AA
:100340002C64BDE8F88300BFA4703D0AD7A3F23F38
:1003500000D0035000E003501A360020082000208F
:10036000F340020817450208183600201A45020813
:1003700023450208000059402C450208EE0E0020DB
:10038000002370B5404C05468AB0E36318B100887D
:1003900023600BF069FF3D4822F013FE3C4E3D4BBD
:1003A000304633603C4B73601FF09EFA00213046AC
:1003B00012F074F832A3D3E90023A062C4E9062343
:1003C0001FF09DFAD4E90623194310434FF0FF3381
:1003D000C4E90601CDE900014FF0FF32A06A22F026
:1003E00059FE02224FF0FF31A06A22F058FE012090
:1003F0000BF048FD4FF4007300222849A06A22F058
:10040000A6FEB0F5007F38D100239422CDE9073352
:1004100009933C23CDE9033205939623A06A03A9EF
:10042000069312F057F935B3287C0CF0A9F805466D
:10043000F0B9A06A22F06CFF0CF04AF80BF004FD52
:1004400020B14FF4807000210AF0B2FA0BF00CFDDD
:1004500020B14FF4006000210AF0AAFA1FF015FA4B
:10046000012012F06FF80E4A0E49A06A1FF03AFA06
:1004700028460AB070BDFF20D7E70725F8E700BF80
:100480000DD5015520000000181D0020690345EC22
:100490007C31002015BD000870310020702F002035
:1004A0008DF80108CDF801082DE9F04F456A0446A2
:1004B00010EE10AA2DED048B93B057EC106BDDF805
:1004C0008080BB46069109920C9375B9102019F0F3
:1004D00011F80246606220B9A74BEA21A7481AF03A
:1004E00031FCC0E901550560C560636A196851B106
:1004F0005A680123204693404A608B6019F042FFFE
:10050000636A00221A603B1EADBF0023012223F064
:10051000004BC8F800309A4BB8BFC8F8002033EA47
:100520000B031BD142F20F730C9A1360CBF313032E
:10053000334300F08F85219B63B9924B22E0924BAD
:1005400001930833219A1360019813B0BDEC048B1A
:10055000BDE8F08F8B4B01930333F3E700220023B8
:10056000504659461AF0F6FE80464BEC19AB58B18E
:1005700001230C9A1360219B002B00F068858348AF
:100580001860431E0193DFE7CBF30A5510AA11A9A7
:1005900020464BEC10AB1AF077F908EE100A002D4C
:1005A00000F0828019EE903A5646A5F2FF35CDF85C
:1005B0003880C3F3130343F07F5747F440170022FA
:1005C000734B3046394618F0BDFB65A3D3E90023D1
:1005D0001AF058FC64A3D3E9002318F0B5FB0646D3
:1005E0000F46284618F0FCFC61A3D3E900231AF05B
:1005F00049FC02460B463046394618F0A5FB064634
:100600000F461AF0EFFE00220090002330463946D4
:100610001AF0AAFE50B1009818F0E2FC32463B46B0
:100620001AF098FE10B9009B013B0093009B162B1B
:1006300059D8009A574B03EBC20351EC190BD3E97D
:1006400000231AF091FE00284FD0009B013B00933D
:1006500000230B93109B5D1B6B1E059349BFC5F1D7
:10066000010300230493002354BF04930593009BCC
:10067000002B3CDB059B009A13440A920593002350
:100680000793069B092B00F28980052BC5BF043B0D
:10069000002501250693069B023B032B00F289806F
:1006A000DFE803F02E3B395ADDE910531D4405F213
:1006B0003243202BC6BFC3F1400305F21240C3F101
:1006C000200305F1FF35C5BF0BFA03F326FA00F04E
:1006D00006FA03F0184318F073FC01230646A1F153
:1006E000F8770E936BE70123B3E70B90B2E7049B17
:1006F000009A9B1A04935342079300230A93C0E77E
:1007000000230893099B002B56DC01231A46CDE9F0
:10071000023309920CE00123F3E70023099A0893BE
:10072000009B134402930133012B0393B8BF0123B1
:100730000022606A4260042202F1140641689E426F
:100740003ED9204619F0DEFD019000283CD1124B25
:1007500002464FF4D571C1E60123DFE7AFF3008015
:1007600061436F63A787D23FB3C8608B288AC63FB7
:10077000FB799F501344D33F6D9002088490020888
:100780000000F07F69900208609002083D90020826
:100790000000F83F20920208029102080125002380
:1007A000089506934FF0FF330022CDE90233122360
:1007B000AFE701230893F5E7099BCDE90233B7E7DB
:1007C000013152004160B7E7636A019A1A60039BE6
:1007D0000E2B00F29D80002D00F09A80009B002BD4
:1007E00032DD03F00F03B64A02EBC303D3E90089FD
:1007F000009BD8054FEA231716D5B24B07F00F0719
:100800000325D3E9082351EC190B1AF065FC824645
:100810008B46AC4E57B942464B46504659461AF0A5
:100820005BFC82468B4628E00225F2E7F90708D5F3
:10083000404649460135D6E900231AF023FB80469D
:1008400089467F100836E5E700F09B80009B022573
:100850009C4F5E429A4B06F00F02361103EBC20327
:1008600051EC190BD3E900231AF00CFB002382464C
:100870008B46002E7AD1002BD3D10B9B002B00F09E
:1008800082800022904B504659461AF06DFD002898
:1008900079D0039B002B76D0029B002B36DD009B8A
:1008A0005046594600225F1E884B1AF0EBFA01357C
:1008B00082468B46029E2846D04618F091FB52464F
:1008C0005B46D9461AF0DEFA0022814B18F03CFA5A
:1008D0008246A1F1507B002E58D100227D4B40462C
:1008E000494618F02FFA52465B46804689461AF070
:1008F00059FD002840F0938252460BF100434046D8
:1009000049461AF031FD002840F087825BEC19ABB4
:10091000119B002BC0F24881009A0E2A00F34481FB
:10092000674B03EBC203D3E90089099B002B80F2DC
:10093000D580039B002B00F3D18040F06D82002214
:10094000644B404649461AF09DFA52465B461AF0FF
:100950001FFD039E3746002840F043823123019D4E
:1009600005F8013B009B013300933EE2F20705D5F9
:100970000135D7E900231AF085FA012376100837EC
:1009800077E7022579E7009F039E94E701994C4B96
:10099000314403EBC6030D91089953E90223002962
:1009A00043D000204C491AF097FB52465B4618F0A2
:1009B000C9F9019D82468B46494640461AF012FD10
:1009C000064618F00DFB024630360B4640464946B7
:1009D00018F0B8F952465B4605F8016B8046894627
:1009E0001AF0C2FC002863D142464B46002036492B
:1009F00018F0A8F952465B461AF0B6FC002840F001
:100A0000B5800D9B9D4281D00022304B5046594607
:100A10001AF038FA002282468B46404649462B4B54
:100A20001AF030FA80468946C6E7504659461AF011
:100A300029FA0D9B82468B46019D0F9349464046FD
:100A40001AF0D0FC064618F0CBFA02460B46404698
:100A50004946303618F076F90D9B05F8016B804653
:100A60009D4289464FF0000224D11B4B5046594607
:100A700018F06AF902460B46404649461AF092FCC5
:100A8000002873D152465B460020134918F05AF9EA
:100A900002460B46404649461AF066FC00283FF4E1
:100AA00035AF0F9D6B1E0F9315F8013C302BF8D01E
:100AB000009749E0054B1AF0E5F980468946BDE705
:100AC00020920208F89102080000F03F0000244044
:100AD00000001C40000014400000E03F56465F4606
:100AE000019D42464B46304639461AF0F5FA1AF057
:100AF00079FC824618F074FA42464B461AF0C2F965
:100B0000024630460AF130060B46394618F01AF90B
:100B100005F8016B019E0246039F0B46AE1BB742D0
:100B200035D118F011F942464B4606460F461AF0E9
:100B300039FCD0B942464B46304639461AF00AFCD9
:100B400010B11AF0010F10D1204618EE101A19F04A
:100B500019FC002300982B7001300C9B1860219B1E
:100B6000002B3FF4F1AC1D60EEE4009F2B461D46C8
:100B700013F8012D392A06D1019A9A42F7D1302271
:100B8000019901370A701A7801321A7090E7002231
:100B9000A44B1AF077F90022002306460F461AF0FC
:100BA000D9FB00289DD0CFE7089A002A00F0D58015
:100BB000069A012A00F3B9800E9A002A00F0B1804B
:100BC00003F23343079E049D049A012120461A44F0
:100BD0000492059A1A44059219F03EFC0746002D2E
:100BE0000CDD059B002B09DDAB42049AA8BF2B4608
:100BF000D21AED1A0492059AD31A0593079B1BB3D8
:100C0000089B002B00F0AD80002E13DD39463246E4
:100C1000204619F0DFFC18EE102A01460746204650
:100C200019F030FC804618EE101A204608EE108AA3
:100C300019F0A8FB079B9A1B06D018EE101A204645
:100C400019F0C8FC08EE100A0121204619F004FC36
:100C50000A9B0646002B40F386801A460146204632
:100C600019F0B8FC069B0646012B7FDD4FF000080B
:100C7000336906EB8303186923F0D7F8C0F120002D
:100C8000059B184410F01F0000F09180C0F1200374
:100C9000042B40F38980C0F11C00049B05440344ED
:100CA0000493059B03440593049B002B07DD18EE7A
:100CB000101A1A46204619F0E7FC08EE100A059BA8
:100CC000002B05DD31461A46204619F0DDFC0646AC
:100CD0000B9B002B6DD0314618EE100A23F0F4F870
:100CE000002866DA009B18EE101A0A222046013B03
:100CF0000093002319F068FB089B08EE100A002BF4
:100D000000F0AF81002339460A22204619F05CFB2F
:100D1000029B0746002B00F38D80069B022B50DCC4
:100D200088E0109BC3F136034CE7039B5E1E079BD4
:100D3000B342B7BF079B9E1B0796F21ABFBF0A9B21
:100D400000269B180A93039B002BB7BFDDE9032302
:100D5000DDE903359D1A002336E7079E049D089FB1
:100D60003DE7079A69E7069B012B18DCBAF1000FF3
:100D700015D1CBF3130393B92BF000431B0D1B05C7
:100D800083B1049B4FF0010801330493059B0133A9
:100D900005930A9B002B7FF46BAF012070E74FF0A7
:100DA0000008F6E79846F4E73FF47EAF18461C309B
:100DB00073E7039B002B37DC069B022B34DD039B80
:100DC0000293029B6BB931460522204619F0FCFACA
:100DD0000146064618EE100A23F076F800283FF781
:100DE000BDAD099B019DDB4300934FF000083146E8
:100DF000204619F0C7FA002F3FF4A6AEB8F1000F55
:100E000005D0B84503D04146204619F0BBFA394613
:100E1000204619F0B7FA97E600263746E1E7009733
:100E200037469BE500002440089B002B00F0CA8059
:100E3000039B0293002D05DD39462A46204619F012
:100E400023FC0746B8F1000F5BD07968204619F003
:100E500059FA054628B9874B024640F2EA21FFF7C6
:100E60003DBB3A6907F10C010C300232920022F0CE
:100E700070FD01222946204619F006FC019BB84668
:100E8000074603F10109DDE90123134405930AF044
:100E900001030493314618EE100A22F0CAFE4146BF
:100EA000029000F1300A18EE100A09F1FF3B23F01E
:100EB0000BF83A4603903146204619F055FCC268BB
:100EC000054602BB014618EE100A22F0FDFF02465D
:100ED00029462046079219F055FA4D46DDE90632BB
:100EE00043EA0201049B0B430FD1BAF1390F2AD018
:100EF000039B002B02DD029B03F1310A8BF800A05B
:100F000075E73846BAE70122E2E7039B002B04DBD2
:100F100006990B4304990B4322D1002AEEDD18EE0B
:100F2000101A0122204619F0AFFB314608EE100AD4
:100F300022F0CAFF002803DCE0D11AF0010FDDD057
:100F4000BAF1390FD7D139238BF800302B461D4623
:100F5000013B15F8012C392A70D001321A7046E78E
:100F6000002A07DDBAF1390FEDD00AF101038BF841
:100F700000303CE7059B09F801AC994546D018EED6
:100F8000101A00230A22204619F01EFAB84508EE6E
:100F9000100A4FF000034FF00A024146204606D1E6
:100FA00019F012FA8046074609F1010972E719F0B3
:100FB0000BFA3946804600230A22204619F004FA2B
:100FC0000746F1E7039B0293019D314618EE100A94
:100FD00022F02FFE019B00F1300A05F801ABEA1A5E
:100FE000029B934209DD18EE101A00230A222046C4
:100FF00019F0EAF908EE100AE7E7029B4FF0000843
:10100000002BCCBF1D460125019B1D4418EE101A74
:101010000122204619F038FB314608EE100A22F072
:1010200053FF002892DC02D11AF0010F8ED12B461B
:101030001D4613F8012D302AFAD0D8E6019A9A42BB
:1010400085D1009B0133009331231370CFE60A4B07
:10105000FFF798BA219B002B7FF471AA074BFFF78B
:1010600091BA029B002BAFDC069B022B3FF7A9AE87
:10107000AAE700BF029102083C90020860900208B3
:1010800010B5054C237833B9044B13B1044800E084
:1010900000BF0123237010BD681F00200000000066
:1010A0004C94020808B5034B1BB10349034800E008
:1010B00000BF08BD000000006C1F00204C94020817
:1010C000A3F5803A704700BF174B002B08BF134BA6
:1010D0009D46FFF7F5FF00218B460F461348144A43
:1010E000121A22F05DFC0E4B002B00D098470D4BDE
:1010F000002B00D098470020002104000D000D486F
:10110000002802D00C4800E000BF18F0CFF9200002
:10111000290000F0CFF918F0B5F900BF0000080071
:101120000000000000000000C00A0020A81C0020F1
:10113000CC37002000000000000000007FB50368ED
:10114000AA4A23F47F4323F00703934200F011815E
:1011500009D8A74A934219D002F5A022934200F081
:10116000F28004B070BDA34A9342FAD1032000F08C
:101170008BFE0028F5D0A04CA04920681BF0BBF8DE
:101180001AF02FFA1AF02EFA9D49ECE000210DF129
:101190000E03084603AA0DF00FFB054610B3964C4C
:1011A000984920681BF0A7F8974920681BF0A3F81E
:1011B0001AF017FA1AF016FA944B954A00939549CB
:1011C000372320681BF097F893492B46934A2068F1
:1011D0001BF091F8284600F09DFE914920681BF015
:1011E0008AF8FEE78F4E30460DF058FA054610B3E8
:1011F000814C844920681BF07EF8834920681BF0ED
:101200007AF81AF0EEF91AF0EDF9804B804A009363
:1012100080493B2320681BF06EF87F492B467F4AAC
:1012200020681BF068F8284600F074FE7C492068AE
:101230001BF061F8FEE77C4C7C48214600F0EEFD97
:1012400022780221794B30780DF062FA044610B30F
:10125000694D6C4928681BF04EF86B4928681BF0F3
:101260004AF81AF0BEF91AF0BDF9684B684A0093C3
:101270006849432328681BF03EF867492346674ABC
:1012800028681BF038F8204600F044FE64492868BE
:101290001BF031F8FEE74FF4C86203460090114698
:1012A00030780DF013FA054610B3534C55492068B9
:1012B0001BF021F8544920681BF01DF81AF091F931
:1012C0001AF090F9514B524A009352494C2320682E
:1012D0001BF011F850492B46504A20681BF00BF8C0
:1012E000284600F017FE4E4920681BF004F8FEE780
:1012F000022130780DF036FA054600283FF431AF70
:101300003D4C404920681AF0F6FF3F4920681AF02A
:10131000F2FF1AF066F91AF065F93C4B3C4A00936B
:101320003C49502320681AF0E6FF3B492B463B4AD4
:1013300020681AF0E0FF284600F0ECFD38492068EC
:101340001AF0D9FFFEE7032000F09EFD00283FF4CD
:1013500008AF294C294920681AF0CDFF1AF041F94D
:101360001AF040F93249206804B0BDE870401AF024
:10137000C2BF032000F088FD60B11F4C1F492068E8
:101380001AF0B9FF1AF02DF91AF02CF92949206842
:101390001AF0B1FF234C022120780DF0CFF9054659
:1013A000002849D0144C174920681AF0A4FF1649A8
:1013B00020681AF0A0FF1AF014F91AF013F9134B71
:1013C000134A009313497B2320681AF094FF1249B3
:1013D0002B46124A20681AF08EFF284600F09AFD2C
:1013E0000F4920681AF087FFFEE700BFA000060142
:1013F000A0000100A000060208200020F34002081F
:101400000C41020848450208B04002083E4102086B
:10141000B5400208BE400208CD400208CA4002089A
:10142000E2400208EA0E0020D7360020B83600203D
:10143000F84002082A410208022120780DF092F9B2
:10144000054600283FF48DAE114C124920681AF071
:1014500052FF114920681AF04EFF1AF0C2F81AF034
:10146000C1F80E4B0E4A00930E497F2320681AF0F4
:1014700042FF0D492B460D4A20681AF03CFF2846D2
:1014800000F048FD0A4920681AF035FFFEE700BF6A
:101490000820002048450208B04002083E410208EA
:1014A000B5400208BE400208CD400208CA4002080A
:1014B000E240020808B51AF0F0FF3A20012101F0DD
:1014C00045FD032000F0E0FC60B10B4C0B492068A7
:1014D0001AF011FF1AF085F81AF084F8084920680C
:1014E0001AF009FF00F0B2F800F072FC1AF0E2FF07
:1014F00004F0FAFBFAE700BF08200020F3400208DE
:101500004D410208036837B523F47F43184A23F09E
:10151000070393422AD1052200211620154B0DF016
:1015200035F9054610B3144C144920681AF0E3FE4F
:10153000134920681AF0DFFE1AF053F81AF052F837
:10154000104B114A11490093206859231AF0D3FE19
:101550000F492B460F4A20681AF0CDFE284600F0AE
:10156000D9FC0D4920681AF0C6FEFEE703B030BD75
:10157000A00001005641020808200020484502084A
:10158000B0400208844102085C410208BE400208E3
:10159000CD400208CA400208E240020810B5234CC0
:1015A00001F03CFF02F03AF9236F23F0070343F008
:1015B000030323671AF080F91D4B00209B6A9B07E9
:1015C0005EBF01221B4B9A62D4F8203123F0030343
:1015D00043F00203C4F82031D4F8243123F0070388
:1015E00043F00203C4F82431D4F8403123F003035C
:1015F00043F00203C4F84031D4F8603123F0030310
:1016000043F00203C4F86031D4F8403223F00303FE
:1016100043F00203C4F84032D4F8003223F0070349
:1016200043F00203C4F8003210BD00BF0080005038
:1016300000C0005000E00050024B0349186801F060
:10164000B5B800BFC00A0020C40A002010B500F0E1
:1016500041F8032000F018FC60B1114C11492068DA
:101660001AF049FE19F0BDFF19F0BCFF0E492068C1
:101670001AF041FE00F082F8032000F005FC70B182
:10168000074C084920681AF036FE19F0AAFF19F035
:10169000A9FF20680549BDE810401AF02CBE10BD16
:1016A00008200020F3400208F6440208044502081E
:1016B00013460A4601460248006801F059BA00BFC5
:1016C000C00A0020024B0A460146186801F076BAAB
:1016D000C00A002013B5012304220621002002F0D5
:1016E000CDFB012304221846032102F0C7FB01238E
:1016F00004221846022102F0C1FB08230F4C4FF4CC
:101700007A7023670423236719F024FF0023022241
:101710001846072102F0B2FB00220949072000F019
:1017200081FE0123024600200721CDE9000302F0DB
:101730004DFB0723C4F8243402B010BD00D0035081
:101740005101000807B50C4B8DF800001A889B78F2
:1017500068468DF806300023ADF8042001A9032265
:101760008DF801308DF80230FFF7A2FF9DF80600DA
:1017700003B05DF804FB00BF054602082DE9F04305
:101780004024C64DC64E89B04FF49670DFF848939A
:101790002C6419F0DFFE0F20346419F0DBFE99F899
:1017A000003003228DF800300B238DF80130072321
:1017B00069463A208DF8023019F0ECFE1E2019F02F
:1017C000C9FE4FF496702C6419F0C4FE0F203464E7
:1017D00019F0C0FEB34A0023127801278DF80320C8
:1017E0008DF80520B04A4FF003081278AF498DF804
:1017F0000920AF4A0978127850208DF80A207F22FC
:101800008DF804108DF80C2069460E228DF80130F9
:101810008DF802308DF806308DF80D308DF800808F
:101820008DF807708DF808708DF80B7019F0B2FE06
:101830001E2019F08FFE42F210702C6419F08AFEFF
:101840000F2302223464694661208DF800308DF840
:10185000017019F09FFE1E2019F07CFE4FF4967067
:101860002C6419F077FE346499F800103A2041F0A6
:10187000800119F07CFE1E2019F06CFE40462C649D
:1018800000F002FB60B18B4C8B4920681AF033FDED
:1018900019F0A7FE19F0A6FE884920681AF02BFD62
:1018A00040247F4E4FF4967019F054FE0F2034649C
:1018B00019F050FE824B00271B7803228DF8003070
:1018C0005423764D694601208DF802308DF8017061
:1018D00019F060FE1E2019F03DFE4FF496702C6446
:1018E00019F038FE39460520346419F040FE1F20F7
:1018F00019F030FE4FF496702C6419F02BFE112075
:10190000346419F027FE01230222172069468DF85E
:1019100000308DF8013019F03DFE1E2019F01AFE3E
:1019200003202C6400F0B0FA60B1624C6249206878
:101930001AF0E1FC19F055FE19F054FE61492068D7
:101940001AF0D9FC4FF4967019F004FE4022544B63
:1019500073201A64FFF7F6FE0446032000F094FAA1
:1019600068B1544D544928681AF0C5FC19F039FE85
:1019700019F038FE7322544928681AF0BCFC032081
:1019800000F082FA68B14B4D4B4928681AF0B3FC5D
:1019900019F027FE19F026FE22464C4928681AF055
:1019A000AAFC4021012019F0D5FD3C4B4FF4967064
:1019B000196419F0CFFD3A4B53201964FFF7C2FEAA
:1019C0000446032000F060FA68B13A4D3A492868AD
:1019D0001AF091FC19F005FE19F004FE53223A4961
:1019E00028681AF088FC032000F04EFA68B1314DE7
:1019F000314928681AF07FFC19F0F3FD19F0F2FD67
:101A00002246334928681AF076FC4021012019F05B
:101A1000A1FD224B4FF49670196419F09BFD204BE9
:101A200054201964FFF78EFE0446032000F02CFAC0
:101A300068B1204D204928681AF05DFC19F0D1FDED
:101A400019F0D0FD5422204928681AF054FC0320D4
:101A500000F01AFA68B1174D174928681AF04BFCC4
:101A600019F0BFFD19F0BEFD22461A4928681AF088
:101A700042FC4021012019F06DFD084B4FF4967097
:101A8000196419F067FD064B59201964FFF75AFED7
:101A90000446032000F0F8F970B31FE000D00350B3
:101AA00000E00350EC0E0020EB0E0020D9360020A1
:101AB000D836002008200020F340020832450208F2
:101AC000ED0E00204A4502081A4502086445020846
:101AD0007945020884450208EE0E0020B04DB14958
:101AE00028681AF008FC19F07CFD19F07BFD5922DA
:101AF000AD4928681AF0FFFB032000F0C5F968B172
:101B0000A74DA84928681AF0F6FB19F06AFD19F0EC
:101B100069FD2246A54928681AF0EDFB4021012005
:101B200019F018FDA24B4FF49670196419F012FDCC
:101B3000A04B5A201964FFF705FE0446032000F06D
:101B4000A3F968B1964D974928681AF0D4FB19F0AB
:101B500048FD19F047FD5A22934928681AF0CBFB3B
:101B6000032000F091F968B18D4D8E4928681AF074
:101B7000C2FB19F036FD19F035FD22468E49286862
:101B80001AF0B9FB4021012019F0E4FC884B4FF416
:101B90009670196419F0DEFC864B3A201964FFF741
:101BA000D1FD0446032000F06FF968B17C4D7D49FA
:101BB00028681AF0A0FB19F014FD19F013FD3A2261
:101BC000794928681AF097FB032000F05DF968B1A5
:101BD000734D744928681AF08EFB19F002FD19F054
:101BE00001FD2246754928681AF085FB4021012035
:101BF00019F0B0FC6E4B4FF49670196419F0AAFC02
:101C00006C4B01201964FFF79DFD0446032000F092
:101C10003BF968B1624D634928681AF06CFB19F012
:101C2000E0FC19F0DFFC01225F4928681AF063FB31
:101C3000032000F029F968B1594D5A4928681AF073
:101C40005AFB19F0CEFC19F0CDFC22465C492868FD
:101C50001AF051FB4021012019F07CFC544B4FF449
:101C60009670196419F076FC524B50201964FFF7F6
:101C700069FD0446032000F007F968B1484D494961
:101C800028681AF038FB19F0ACFC19F0ABFC5022B4
:101C9000454928681AF02FFB032000F0F5F868B1D9
:101CA0003F4D404928681AF026FB19F09AFC19F0BC
:101CB00099FC2246434928681AF01DFB4021012067
:101CC00019F048FC3A4B4FF49670196419F042FC35
:101CD000384B3B201964FFF735FD0446032000F024
:101CE000D3F868B12E4D2F4928681AF004FB19F07B
:101CF00078FC19F077FC3B222B4928681AF0FBFA94
:101D0000032000F0C1F868B1254D264928681AF073
:101D1000F2FA19F066FC19F065FC22462A49286897
:101D20001AF0E9FA4021012019F014FC204B4FF47D
:101D30009670196419F00EFC1E4B55201964FFF7BC
:101D400001FD0446032000F09FF868B1144D1549C9
:101D500028681AF0D0FA19F044FC19F043FC552217
:101D6000114928681AF0C7FA032000F08DF868B10D
:101D70000B4D0C4928681AF0BEFA19F032FC19F024
:101D800031FC2246114928681AF0B5FA012019F0F1
:101D9000E1FB4022064B1A6409B0BDE8F08300BFA6
:101DA00008200020F34002081A4502088C4502086A
:101DB00000D0035000E00350A2450208B9450208D4
:101DC000C6450208DB450208F3450208FC45020847
:101DD00010B50C4C48220021204621F0E1FD2046A0
:101DE00019F0F6FB04F10C0019F0F2FB04F11800F5
:101DF00019F0EEFB044800F009F8052384F842309E
:101E000010BD00BF1C3600200846020801460C2207
:101E1000014821F0FBBE00BFDA36002038B50D4680
:101E2000044670B3174821F0E9FE092301306370BE
:101E30002070144821F0E2FE12490246A01C21F055
:101E400088FD104821F0DAFE032241F61F01C0B2DE
:101E5000831CDBB2E2548318DBB2E254031DDBB215
:101E6000E152831DDBB2E254FF22C31DDBB2E25418
:101E700040F2623200F10803DBB2E2520DB10A30E7
:101E8000287038BDDA3600200B4B02461B788BB128
:101E90000A4B1B78834234BF00200120084B1B787B
:101EA0003BB1084B1B7843FA02F212F0010F08BF56
:101EB000002070470120F1E7EF0E0020F00E002017
:101EC000E6360020F10E0020012208B5074B1A70FB
:101ED0000022074B1A700422064B1A701F22064B71
:101EE0001A7003F077FC054B186008BDEF0E002058
:101EF000E6360020F00E0020F10E00200820002021
:101F0000024B034918681AF0F6B900BF08200020F8
:101F10001446020870B50C4C0C49064620681AF0AD
:101F2000EAF903F057FC0546206803F047FC304609
:101F3000FFF7E6FF284603F041FC20680449BDE8AE
:101F400070401AF0D8B900BF0820002016460208D9
:101F50001846020808B500F02DF8124B12498B42C2
:101F600012D30020114B12498B4218D3FFF7ACF863
:101F7000186850F82240586840F8224001329868AA
:101F80008242F5D30C33EAE70022F8E71C6844F8F4
:101F9000220001325C68A242F8D30833E4E7002251
:101FA000F8E700BF549402086094020860940208A5
:101FB000609402084FF400414FF0FF30114B124A79
:101FC00010B59A60D3F8882042F47002C3F88820D4
:101FD0000E4A916601F1884101F5005210660C48E5
:101FE00050660220C3F8D000BFF34F8FBFF36F8F4E
:101FF00008244FF440330748C0F88041D3600460A0
:102000000B6110BD00ED00E00000000800900050E2
:102010007FFF070000E100E0014B1868704700BF38
:10202000E80A0020084B1B6F03F00703022B04D0C3
:10203000032B05D0012B05D0FEE7044B1868704731
:10204000034BFBE70348704700800050E80A00207C
:10205000EC0A0020002D310108B5FFF7E3FF054B26
:102060001B6FC3F303330133B0FBF3F0024B186073
:1020700008BD00BF00800050E40A002000487047FF
:1020800000B4C404014B1868704700BFEC0A00207C
:10209000054B1860054B1B6F03F00703032B01D1A1
:1020A000FFF7DABF704700BFEC0A00200080005045
:1020B00000487047002D3101014B1868704700BF80
:1020C000F00A002005490A681318054883428CBFAE
:1020D0004FF0FF320B601046704700BFF40A00203B
:1020E000000001202DE9F04F9A46564B85B01B7831
:1020F00006460F461546DDF83C909DF844B0DDF8E5
:102100005080002B00F08D80072A00F28C800E9BFF
:10211000002B00F08880B9F1000F00F08480129B42
:10212000B3F5006F7FDC012802D1109B002B7AD021
:10213000454B03EB05131B7B002B76D0434C102241
:102140000021684621F02CFC04EB45141022002FDE
:1021500059D13946204621F023FC43F21003638015
:10216000BBF1000F03D1E37843F00303E370374A78
:102170000E9B02EB451CCCE90193129B6901013BCC
:10218000C3F30A009DF84C30012E03F003034FEA1D
:10219000836343EA001E53582D48CDF800A000EA9F
:1021A00003004EEA0003535041D113230CF1100EEB
:1021B000CCF80C309CE80F008EE80F006FF00301A4
:1021C000DCF81C20109B61F39F02012FCCF81C202F
:1021D000CCF8143003D1CCF81890CCF80430002798
:1021E000194A290102EB051342F80180159A284685
:1021F0005A60694622469F605E7301F0B1FE384620
:1022000005B0BDE8F08F0021204621F0C9FB4FF456
:1022100044736380BBF1000FA9D1E37843F030032E
:10222000A4E70C48ECE70C48EAE70C48E8E7B8F10B
:10223000000FD4D19CF8023068F304138CF80230FC
:10224000CDE700BFE73600200C2000208C200020C6
:102250000F80FFF3028000F0018000F0078000F0A3
:1022600038B5124B05461B78DBB1E0B119F040FBE5
:102270000F4A00231146147B54B92B6001251A0123
:1022800001EB03131D738C5019F038FB204638BD49
:102290000133082B02F11002EDD119F02FFB054894
:1022A000F5E70548F3E70548F1E700BFE73600200A
:1022B0000C200020048000F0028000F0018000F07B
:1022C000154B13B51868002301908DF8043019F0F0
:1022D0000FFB124B1C7824B119F010FB104802B010
:1022E00010BD01221A7019F009FB0E4B01A81C73D6
:1022F0001C7783F82C4083F83C4083F84C4083F8EB
:102300005C4083F86C4083F87C4008238DF80730EC
:1023100001F0F4FD2046E2E71B460208E736002004
:10232000038000F00C200020204B2DE9F0471F6DAA
:102330005A6D1F4C174010D54FF000411D4A1165D2
:10234000D868C0F304200301E35804EB00125BB328
:10235000BDE8F04700215268184701260025DFF844
:102360005480DFF85490374217D02368C8F8506083
:102370009BB1A168284601316268A1609847637BE0
:10238000012B0AD148B909EB45131A7B60F34102CE
:102390001A731A7F60F341021A770135082D4FEA4C
:1023A000460604F11004DED1BDE8F08700000450B9
:1023B0000C200020002004508C20002070B5044622
:1023C00001250B4E04B970BD94FAA4F0B0FA80F068
:1023D00005FA00F306EB001224EA03045368002B0D
:1023E000F0D0117B11B191689847EBE79847E9E786
:1023F0008C21002008B51E2001F04EFA28B14FF0C4
:102400008042074BC3F880211A601F2001F044FA74
:1024100028B14FF00042024BC3F880211A6008BD7A
:1024200000E100E0F8B505460F46164619F060FADF
:10243000104B05F0FC02D3F824140023EC1804F030
:102440000304144321FA04FC1CF0010F07D00133EC
:10245000042BF3D1FF2419F051FA2046F8BDFF2CCC
:10246000F9D00122044B03EB0413C3E901761A737C
:10247000F1E700BF00C003508C210020074BD3F8C8
:102480002404D3F8202403F50053104000F0553005
:1024900020F05020C3F82004FFF790BF00C0035085
:1024A000074BD3F82404D3F8202403F5005310403D
:1024B00000F0AA3020F0A020C3F82004FFF77EBF70
:1024C00000C00350024B1968024B18680FF0FABBAA
:1024D000FC0A0020F80A002037B5920004460D4699
:1024E000019221F0D5FD431C0BD060B9294620464E
:1024F000019A21F01EFA0028044808BF002003B00A
:1025000030BD0348FBE70348F9E700BF10E000F0E7
:1025100021E000F024E000F010B5044621F0C0FDF9
:10252000431C10D088B901F011FE234620F00300AF
:102530002044984201D1002010BD53F8042B0132F1
:10254000F7D00348F8E70348F6E70348F4E700BF8D
:102550000EE000F021E000F024E000F008B519F0F2
:10256000C0F9014B186008BDCC290020014B186848
:1025700019F0BBB9CC29002038B50546B0B1B9B1C6
:10258000B2B1B2F5006F13DC19F0B2F995F84C3026
:1025900003F0FF041BB119F0B1F9064838BD01235F
:1025A00085F84C3019F0AAF92046F7E70248F5E71C
:1025B0000248F3E7032000F0012000F0022000F0C1
:1025C0002DE9F04F1E46002387B080F85430109B51
:1025D0000446436390F85C3089469246C663002BFC
:1025E00038D14FF4406305686B614369092B03D907
:1025F00005F12C08443506E00BBF05F1200805F174
:10260000240838353C3567694FF0010B082F94BF1B
:1026100000270127204619F023F9134B5246CDE934
:102620000273216B4346A06A04940196CDF800B072
:1026300019F003F800232A46CDE90333CDE90167F9
:102640004B46E16A606ACDF800B018F0DCFF07B0D5
:10265000BDE8F08F012BFAD1006819F042F8256827
:1026600005F13C08C6E700BF23B801082DE9F04793
:1026700016460022436390F85C300446894686B0D3
:1026800080F85420C663002B38D14FF440630568AE
:102690006B614369092B03D905F12C08443506E029
:1026A0000BBF05F1200805F1240838353C35676972
:1026B0004FF0000A082F94BF00270127204619F089
:1026C000CFF8134B216BCDE9027304F13802434676
:1026D000A06A04940196CDF800A018F0AEFF012383
:1026E0002A460093CDE903AA4B46CDE90167E16A8A
:1026F000606A18F088FF06B0BDE8F087012BFAD1B8
:10270000006818F0EEFF256805F13C08C6E700BF39
:1027100023B8010801292DE9F84321D81F4B204E89
:102720001C68204FDFF88080803C14F1800F01D1BD
:10273000BDE8F883D4F800900521B1450CBF3D46B3
:102740004546484619F01DF919F0CBF82B6843F0BF
:1027500018032B6019F0C9F8D4F88040803CE4E7F6
:1027600002390129E4D80D4B0D4E1C680D4FDFF8DE
:102770003880803C14F1800FDAD02368B3420CBF5C
:102780003D46454619F0ADF82B6823F018032B6041
:1027900019F0ABF8D4F88040803CEBE7802A0020A9
:1027A0000000045A8CC403506CC403502DE9F0435C
:1027B0006A4BD1F800908FB0994505460C460DF153
:1027C000180840F0E5804746654ECDF814800FCEDE
:1027D0000FC796E80F00103687E80F000FCE01AF45
:1027E0000FC7002D00F0B78084220021284621F079
:1027F000D7F823684B4510D05A4E5B4B1B681BB96A
:102800005A495B4803F04EFA574805F1800118F029
:10281000F6FE30460FB0BDE8F08354222B60012352
:102820002A6527464FF48812DFF860E185F85C30AE
:102830002E1DC5E90BE20FCF0FC697E80F0086E803
:102840000F00637E012B08BF8DF81D30A37E23B1DE
:10285000012B69D104238DF81230227EE368012A0E
:1028600069D1444A93429CBF05238DF8353000233B
:102870008DF81130404B01213A20039300F066FBA4
:102880000121286D00F062FB2369DA1F092AB3D801
:10289000063B8DF81030237E2BB9E37EB3FA83F329
:1028A0005B098DF81C300121284618F025FF0646EB
:1028B0000028A2D1237A227942EA03422F4BC3F89F
:1028C000A424617A627942EA0142C3F89C24A17A85
:1028D000A27942EA0142C3F8A024E27E002A40F035
:1028E0003181E17AE27942EA0142C3F890241D2263
:1028F000C3F88C24206801A901F0C6F918F0F8FF8C
:102900001F4B1A78DAB901221A7018F0F7FF03F09A
:10291000C7FDFFF7D5FC002105F12400FFF7A0FC5F
:10292000014678B1174E68E7022B94D0032B7FF451
:1029300063AF06238FE700228DF834209BE718F061
:10294000DDFFE6E705F12800FFF78AFC06460028D0
:102950003FF453AFE6E70C4E4FE700BF0000045AC8
:1029600044460208022000F0802A00201C0B0020B0
:10297000842A00203F4B4C0040420F0000C003500F
:10298000E8360020092000F0012000F001001100CD
:1029900046466D4F0FCF0FC697E8070086E8070041
:1029A000002D00F0CD8084220021284620F0F8FF81
:1029B0002368664A934240F0908028222A654FF4AB
:1029C00080220026624FC5E90B722F46A44647F8C5
:1029D000043BBCE80F000FC79CE80F0087E80F001E
:1029E000637E012B08BF8DF82630A37E33B1012B07
:1029F00040F081804FF40073ADF82830237E012130
:102A0000012B03BF00238DF825304FF4E133E36839
:102A10003A20089300F09AFA0121286D00F096FA06
:102A200023691A1F0C2A5BD8033B414620688DF8A6
:102A3000243001F0C3FBA36923F47F0323F47F4315
:102A400023B92A68936843F480339360227A237908
:102A5000607943EA0243627AA17940EA0240A27AAD
:102A600094F81BC041EA02413A4A77013A4436B22F
:102A7000BCF1000F49D11D277601C2F83476C2F8A7
:102A80004C3606F1A04303F57033C3F84406C3F88F
:102A90004816E17AE37943EA0143C2F83836012166
:102AA000284618F029FE064600287FF4B2AE18F03A
:102AB0001FFF294B1A78BABB01221A7018F01EFFAB
:102AC00003F0EEFCFFF7FCFB002105F12400FFF70B
:102AD000C7FB014658B3214E9BE6214A934201D0E1
:102AE000204E96E629222A654FF4A0221E48012690
:102AF000C5E90B0269E7022B02D14FF480737BE733
:102B0000032BEDD14FF4407376E71C247601C2F815
:102B10003446C2F84C3606F1A04303F57033C3F8CF
:102B20004406C3F84816BAE718F0E8FECAE705F10C
:102B30002800FFF795FB064600283FF46AAECAE777
:102B40000A4E66E61C22D3E67846020800C005500D
:102B50000200040000C00350E8360020092000F005
:102B600000000650022000F002000500012000F0E5
:102B70007FB51546027F0446012A0E4613D01A4639
:102B80000393FFF7F9FC60B97DB1094A314620464D
:102B9000039B00922A46FFF713FD204618F017FE0C
:102BA000A06C04B070BD0348FBE70348F9E700BF21
:102BB000D9B60108082000F0022000F070B5037FAC
:102BC0000446012B0D4616460DD0FFF7D5FC48B93B
:102BD000324629462046054BFFF748FD204618F0AF
:102BE000F6FDA06C70BD0248FCE700BFD9B6010835
:102BF000082000F0044BD3F88420D206FBD4D3F88D
:102C00008400C0F3811070470040005038B5104B6D
:102C10000546D3F820310C4603F00303022B0BD0FA
:102C2000032B0DD0012B0FD1FFF7F6F9052305B1CA
:102C3000286004B1236038BDFFF724FA0323F6E7C8
:102C4000FFF736FA0223F2E701230020EFE700BF87
:102C50000080005073B50D4600210E4B0191D3F852
:102C60008041064604F00304012C09D0022C0CD04C
:102C70000C460EB1019B336005B12C6002B070BDF3
:102C800001A8FFF7C3FF0F24F3E7FFF711FA019044
:102C9000EFE700BF0080005038B5184B0546D3F869
:102CA00024010C4600F00700062805D8DFE800F0F4
:102CB000230B131B1F0F17000023184605B12860B4
:102CC00004B1236038BDFFF7A7F90523F6E7FFF746
:102CD000A3F90623F2E7FFF7D5F90323EEE7FFF7A1
:102CE000D1F90423EAE7FFF7E3F90223E6E718F056
:102CF0007BFC0723E2E70123E0E700BF00800050F0
:102D000038B5104B0546D3F840310C4603F00303A9
:102D1000022B0BD0032B0DD0012B0FD118F066FC2A
:102D2000092305B1286004B1236038BDFFF7C4F959
:102D30000823F6E718F05DFC0B23F2E701230020DF
:102D4000EFE700BF0080005037B50C460021124B62
:102D50000191D3F88432054603F00303022B0ED011
:102D6000032B11D0012B14D101A8FFF74FFF0F2324
:102D70000DB1019A2A6004B1236003B030BD01A8EF
:102D8000FFF7BEFF1023F3E7FFF792F9022301904C
:102D9000EEE70123ECE700BF0080005038B5144B8C
:102DA0000546D3F800020C4600F00700042804D8BA
:102DB000DFE800F01B0A0E1216000023184605B1CA
:102DC000286004B1236038BD18F010FC0923F6E731
:102DD000FFF772F90823F2E718F00BFC0B23EEE77C
:102DE000FFF73AF90E23800AE9E70123E7E700BF7E
:102DF0000080005038B5104B0546D3F840320C46E1
:102E000003F00303022B0BD0032B0DD0012B0FD1AA
:102E100018F0ECFB092305B1286004B1236038BD2C
:102E2000FFF74AF90823F6E718F0E3FB0B23F2E774
:102E300000231846EFE700BF0080005038B5104B64
:102E40000546D3F860310C4603F00303022B0BD088
:102E5000032B0DD0012B0FD118F0C8FB092305B1AE
:102E6000286004B1236038BDFFF726F90823F6E790
:102E700018F0BFFB0B23F2E701230020EFE700BFB0
:102E80000080005038B50C46054618F02AFD064B68
:102E90009A6A82EA040101EA050454409C62BDE892
:102EA000384018F022BD00BF00C00050B0F5207FB0
:102EB0001FD009D8B0F5007F15D003D868B1B0F5A0
:102EC000C07F0AD000200CE0B0F5607FFAD10B4B38
:102ED000D3F88000C0F3011003E0084B186FC0F373
:102EE000033001307047054BD3F89000C0F3046005
:102EF000F7E7024B186FC0F38020F2E70080005024
:102F00004FF400320E4B014610B500209A66FFF7D1
:102F1000CDFF41F6713248430A490B4B88428CBFC2
:102F20004FF480100020DC69DA635A6822F4401202
:102F300002435A60E20344BF0022DA6310BD00BFBF
:102F400000900050005A620200000350420910B580
:102F500010D0012A10D00B4B0B4C022A18BF23466D
:102F600000F01F0051B103F58053012202FA00F076
:102F7000186010BD1346F3E7044BF1E703F5005367
:102F8000F3E700BF6880005060820050648000500A
:102F90001FB5002280280446019200F00C8100F247
:102FA000BF803F2836D9A0F14D04142C02D90198D6
:102FB00004B010BD142CFAD801A353F824F000BFBC
:102FC0003F310008AF2F00083F3100083F310008B3
:102FD0003F310008033200085D3100080D3200085F
:102FE000AF2F0008AF2F0008AF2F0008AF2F000849
:102FF000AF2F0008AF2F0008AF2F0008573200088E
:10300000AF2F0008AF2F0008AF2F00083F31000896
:103010003F3100083F28CAD801A353F820F000BF71
:103020003F310008AF2F0008AF2F0008AF2F000876
:10303000AF2F0008AF2F0008AF2F0008AF2F0008F8
:10304000AF2F0008AF2F0008AF2F0008AF2F0008E8
:10305000AF2F0008AF2F0008AF2F0008AF2F0008D8
:10306000AF2F0008AF2F0008AF2F0008AF2F0008C8
:10307000AF2F0008AF2F0008AF2F0008AF2F0008B8
:10308000AF2F0008AF2F0008AF2F0008AF2F0008A8
:10309000AF2F0008AF2F0008AF2F0008AF2F000898
:1030A0003F310008D13100083F310008D13100081C
:1030B000033200080332000803320008033200081C
:1030C000D1310008D1310008173200085D31000805
:1030D00043320008AD3100085D310008D1310008ED
:1030E000D1310008D1310008AF2F0008AF2F000800
:1030F000AF2F0008AF2F0008AF2F0008AF2F000838
:10310000AF2F00088F310008D1310008D1310008FD
:10311000D1310008573200084D320008D131000883
:10312000B0F5806F6DD024D8B0F5007F47D009D8B6
:10313000B0F5807F74D0B0F5C07F7FF438AFFEF774
:103140008BFF3AE0B0F5607F48D03FF630AFB0F586
:10315000207F3DD0B0F5407F7FF429AFFEF77CFFA4
:1031600002464FF42070FFF7A1FEB2FBF0F04008DA
:1031700023E0B0F5C06F64D00ED8B0F5A06F45D095
:10318000B0F5B06F47D0B0F5906F7FF410AF00216D
:1031900001A8FFF781FD0AE7B0F5E06F56D0B0F562
:1031A000F06F58D0B0F5D06F7FF401AF002101A8C7
:1031B000FFF7F4FDFBE6FEF735FF0190F7E6FEF7BB
:1031C00031FF02462046FFF771FEB2FBF0F0F4E754
:1031D000FEF742FF02464FF42070F4E7204BD3F88D
:1031E000803003F00303012B04D0022B06D04FF4F0
:1031F0006070E8E7FEF716FF0246F8E7FEF70CFFFF
:10320000FAE7002101A8FFF701FDD0E6002101A89F
:10321000FFF79AFDCBE6002101A8FFF71BFDC6E6EC
:103220004FF0E02302921B695B0705D5FEF714FF00
:103230000290029B0193BAE603A902A8FFF760FD82
:10324000F7E7002101A8FFF75BFDB0E6002101A828
:10325000FFF7D0FDABE6002101A8FFF7EFFDA6E6E2
:103260000080005008B58020FFF792FE034B984283
:103270009EBF4FF48032024B1A6708BD005A6202AB
:1032800000A000501FB50023B0F5607F019300F04F
:10329000A88036D8522800F08B8016D82D280BD85D
:1032A00023280ED9243809280BD8DFE800F08181C3
:1032B00081810A0A7C0A438B3D280ED03E2800F00B
:1032C000A680019805B05DF804FB802853D009D88A
:1032D000542800F097805C28F3D1002001A9FFF763
:1032E000ADFDEEE7B0F5807FEBD102934FF0E02328
:1032F0001B695B0761D5FEF7AFFE0C230393039BAD
:103300004DE0B0F5D06F5DD019D8B0F5A06F79D091
:103310000AD8B0F5806F4BD0B0F5906FD1D10020B6
:1033200001A9FFF7B9FCCCE7B0F5B06F3BD0B0F521
:10333000C06FC6D1002001A9FFF7E2FCC1E7B0F5DC
:10334000006FECD005D8B0F5E06F60D0B0F5F06F4D
:10335000C2E7B0F5086FB4D12F4BD3F8003103F0BA
:103360000303022B33D0032B35D0012B37D1FEF7CB
:1033700089FE032313E0284B1B6F03F00703013B77
:10338000032B9ED801A252F823F000BFA3330008FC
:103390009D33000873330008DB33000805230193D5
:1033A0008FE70223FBE7002001A9FFF753FC88E722
:1033B000002001A9FFF72AFC83E703A902A8FFF771
:1033C0009FFC9CE7002001A9FFF7E8FC79E7FEF7E6
:1033D00073FE0823E3E718F007F90723DFE701236B
:1033E000DDE70D4AD2F8802002F00302012A05D061
:1033F000022AD4D1FEF710FE0623D0E7FEF712FE14
:103400000D23CCE7002001A9FFF79EFC59E700201F
:1034100001A9FFF7EFFC54E7008000504FF40022B1
:10342000034B5A66012203F580439A62704700BF3E
:103430000090005008B5FFF725FF082811D0093883
:10344000012811D84FF40012094B4FF6FF705A664D
:1034500003F5D8335B6A13F0010F18BF4FF4FA700D
:1034600008BD044B1888FBE74FF6FF70F8E700BF74
:1034700000900050D80E002070B504468020FFF761
:1034800001FF032800F082804FF40022444B022108
:103490005A6645F60E03434AC2F88030424B9962A1
:1034A000012103F580539962936DD903FCD4D4E9CB
:1034B00000131B0543EA0163E17B94F822500B43A0
:1034C000217B94F8236043EA0143617B43EA0133A3
:1034D000A17B43EA811313619169D4E904031B06BC
:1034E00043EA806301F000410B43A17EE07E0B4381
:1034F000217E43EA0143617E43EA01239361E3694C
:10350000126A002B0CBF0021082122F00D0242EAB2
:10351000030242EA8002234B42EA01021A6294F853
:1035200020204FEA421232D1986A94F8211020F0FC
:10353000330042EA0112024342F001029A621B4A3E
:10354000996D32EA0101FBD1022217498A621A659C
:103550009A6D5200FCD41869A26820F4700040EA09
:1035600002504FF0004218610F4B9A611DB90222C0
:1035700003F580539A6216B901220D4B9A6294F8B2
:1035800024301BB1074B0B4AC3F8802070BD996AE9
:1035900021F0330131430A4342EA4502EEE700BF1E
:1035A0000090005000C0005000D0005003000140C7
:1035B00000E00050F1A7FFFF1E4B13B5996A9A6D0A
:1035C00012F4803F18BF01241B4A18BF94620224E2
:1035D00094629B6DDB0303D5164A936D9C07FCD563
:1035E0000222154B134C1A65A36D5B00FCD4134BE0
:1035F000A26993F9003022F47F020344000222F40E
:103600007F4280B283F30803104340EA0340A06185
:1036100002200191FFF736FCA36D019913F4803F5E
:1036200005D0012002B0BDE81040FFF72BBC02B06E
:1036300010BD00BF00C0005000D00050E93600208F
:10364000014B93F900007047E9360020012215482C
:10365000154B816A9A62826D02F00302032AFAD145
:1036600002229A621A650F4B9A6D5200FCD40F4ADF
:10367000986D32EA0000FBD101220B4B1A65A3F5CD
:1036800080539A6D9007FCD49A6D9207FCD5022264
:10369000054B1A65034A936D9B07FCD50320FFF782
:1036A000F1BB00BF00C0005000D00050030001007B
:1036B000F0B5D0E901434FF480061A4A4178057805
:1036C00056664FF4D156022702F5B8325662164EAE
:1036D0004F2977604FF0010728BF4F2106F580562C
:1036E00077601669F603FCD441EA052151611B019C
:1036F000417B43EA04230B43017B43EA410393608C
:10370000C37B817B1B0143EA4113417C0B43017C5A
:1037100043EA41035360837C13B16FF4D153536286
:10372000F0BD00BF0090005000100250014B188007
:10373000704700BFD80E0020014B1880704700BFB3
:10374000D60E0020B0F5207F10B50C4657D008D813
:10375000B0F5007F48D003D830B3B0F5C07F23D098
:1037600010BDB0F5607FFBD129492A48D1F8FC2073
:1037700012F080721EBFD1F8FC3023F08073C1F8C4
:10378000FC30D0F88030611E23F0300444EA01148C
:10379000C0F88040002AE3D01D4AD2F8FC3043F044
:1037A0008073C2F8FC30DBE718F073F818F07FF88C
:1037B0004FF48031184B174A1967136F611E23F4B9
:1037C000704444EA01341467FEF746FC0446FFF7F0
:1037D00011FAC0F10201204618F063F800F02EF84B
:1037E000BDE81040FFF73EBD0A4A0139D2F89030DB
:1037F00023F0F85444EA0164C2F89040B0E7054B66
:10380000013C196F21F4806141EA84241C67A7E719
:1038100000ED00E0008000500090005008B501214C
:10382000022000F0B3F818F034F818F040F84FF424
:103830008032014B1A6708BD0090005008B54FF464
:10384000C070FFF7A5FBBDE80840044988428CBF63
:10385000022101214FF42070FFF774BF80F0FA02BB
:103860000028ABBF00F16040054B00F5614000F05F
:103870000F00ACBF90F80003185C0009704700BF50
:1038800014ED00E0034B5868C0F30800003818BF7F
:103890000120704700ED00E0054B420953F822304B
:1038A00000F01F0023FA00F0C04300F00100704751
:1038B00000E100E0014608B5EFF31083DB0702D515
:1038C0000122104608BDFFF7E7FF02460028F7D1A6
:1038D0000846FFF7C5FF0146EFF3118313B1B0EBC4
:1038E000131FEDD2074B5B68C3F30803002BE8D02E
:1038F000103B58B2FFF7B4FF88428CBF0022012270
:10390000DFE700BF00ED00E0044A4178536F23F485
:10391000407343EA01235367704700BF00400050E3
:103920000A4A10B51369044643F00403136102F018
:10393000D7FB17F0E6FF30BF17F0E4FF02F0F2FB11
:103940001CB9BDE81040FEF787BB10BD00ED00E0DC
:10395000084A10B51369044643F00403136102F0EA
:10396000BFFB30BF02F0DEFB1CB9BDE81040FEF724
:1039700073BB10BD00ED00E0034A0179D36E23F064
:1039800030030B43D366704700400050F8B504463F
:103990001C4BD3F88420D106FBD4D3F88430C3F376
:1039A00081139C422CD0FEF73DFB012C064602D130
:1039B000214617F076FF17F094FF4FF00072124B7C
:1039C00007465A66204617F0A0FF4FF480630D4D5E
:1039D000621E93402B676B6E9A0103D4D5F8843036
:1039E0009B060AD5384617F080FF022C08D13046D6
:1039F000BDE8F840002117F054BFD5F88430EAE75D
:103A0000F8BD00BF004000500060005007B518B975
:103A10000191FEF707FB0199064B1B7843B1064B5A
:103A2000984205D8012003B05DF804EBFFF7AEBF64
:103A30000220F8E7EA360020005A62020278034BBF
:103A4000012100201A70FFF7E1BF00BFEA36002015
:103A50004FF0004238B5254B5A664AF6CD33244A1A
:103A6000D2F89440C2F8903004F0010448BB136CC3
:103A700013F00103FBD15268D20709D400251CB111
:103A80001B4B1C4AC3F890201FF01EFB284638BD74
:103A90000121194A51601649184AC86BC50705D457
:103AA000934201D10725EAE70133F6E79342E5D1D6
:103AB000F8E70131D36B13F0080305D08142F8D148
:103AC000F0E700210D48F5E78142EBD020210A4ABA
:103AD00051630121A2F5805251600549074A486BA4
:103AE0008006E3D49342DDD00133F8E70090005024
:103AF000004009503254FFFF0060095040420F005F
:103B00004FF0004238B5184B184C5A664AF6CD3380
:103B1000D4F89450C4F890304378154A5B0043F0D1
:103B2000010305F00105D363236CDB07FCD4636854
:103B3000827823F0700343EA02136360C27843790A
:103B400043EA0223E3600279837943EA0223236193
:103B50000078FFF77DFF15B1064BC4F890301FF0D9
:103B6000B3FA012038BD00BF00900050004009505A
:103B7000004000503254FFFF10B517F0CBFE202359
:103B800041F2020203610023C360836042614FF48B
:103B9000A02207498361426200F50052C3610362BB
:103BA0008362C36243630365D164036310BD00BFD6
:103BB000FF3F0D03F8B50546144639B9304B98421E
:103BC00014BF08465420FFF7E3F90146AB68D80755
:103BD0002CD5B1FBF4F16E684C1E16F0010623D013
:103BE0002821284617F092FEAB6C9A0718D1AB6CCF
:103BF000DB0717D4AB6C13F0020F0CBF00270627AE
:103C0000284617F087FE286920F07F4040EA0464C8
:103C10002C61AEB139462846BDE8F84017F0B1BE78
:103C20000527EDE70927EBE73746ECE76B68A8685F
:103C300000F0E00040281BD003D8D8B120281BD0CA
:103C4000F8BD60281AD08028FAD1012304FB03F2C2
:103C50004901B1FBF2F10B4A2039284602EAC102C0
:103C6000012117F053FE2A63BDE8F84017F04EBE5D
:103C70000623EBE71023E9E70823E7E70423E5E75A
:103C80000000045AF8FF7F00436870B504460D46F3
:103C90000E691BB140F6FF7117F038FE2046FFF7A2
:103CA0006BFF22696B7BA97B22F087020B431343D6
:103CB00043F08003236116B32A692369117823F046
:103CC000F8030B43117F43EAC113117943EA41130F
:103CD000517A43EA0113D17B43EA81132361E168FE
:103CE000D2E9053021F0F04121F4702103430B4368
:103CF000117B527B43EA812343EAC233E360A3682A
:103D0000EA7B23F00303134343F00103A3602EB3C4
:103D10002A69A168538803F4C0430B43A360517917
:103D2000A36843EA8123A3609379D079616A1B0178
:103D3000000203F0700300F4E06021F4772121F425
:103D4000EE6103430B43117A527F090301F4E04112
:103D500012040B4302F470221343636263692A7BEB
:103D600023F00F0313436361B6B12B695A89A26133
:103D70005A7B3AB1134A944201BF9A7B124902F02E
:103D80000F024A66DA7B3AB10E4A944201BF1B7CAD
:103D90000D4A03F00F031366D5E901122046FFF721
:103DA00009FF0521204617F0CFFD282117F0AEFDB1
:103DB0002B78A36317F0AAFDA36CDB4313F4405FD9
:103DC000FAD170BD0000045A00900350072AF7B5DD
:103DD00001F0030614461F464FF003012CD895004E
:103DE000A94000FA05F21C48019117F0CFFD019996
:103DF0001A4806FA05F217F0C9FD194B19499DF842
:103E00002000002F08BF1946012303FA04F40C60B8
:103E1000154B1649002808BF0B461C60144B9DF833
:103E20002400C3F820441031A3F6DC33002808BF77
:103E30000B461C6003B0F0BDA2F10805AD00A9401F
:103E400000FA05F20B48019117F0A0FD01990A480C
:103E500006FA05F2CFE700BF00C4035008C40350C0
:103E600010E4035010D4035014D4035014E403504E
:103E700000E0035004C403500CC403502DE9F0418A
:103E800005460F461E4690464AB101233022194C82
:103E90008B4002FB00443EB304F5825423600F21A3
:103EA000072F05EB450388BFA7F108044FEA03136A
:103EB000114895BFBC00A40004330C3308FA04F287
:103EC000A140184417F062FDB8F1000F0AD101219A
:103ED0003020084A01FA07F700FB05223EB102F53F
:103EE00082521760BDE8F08104F50154D6E702F56F
:103EF0000152F6E700C0035030C0035010B5012155
:103F000004462020FFF722F801212120FFF71EF8A8
:103F10000122114B5A60227812069A606178A278C9
:103F200042EA01429A61FF229A6200229A631A646D
:103F30004FF000425A654FF0FF324FF0806103F5B9
:103F400000531A65054AC2F88011E3781B01DBB201
:103F500082F81A33116010BD0000045000E100E047
:103F60002DE9F0410125C3B2D1F8008091F80AC0D3
:103F70000F7B91F80DE09D400C46CB7A1C491D4EFD
:103F80000D65810001F1A04101F58821C1F804808F
:103F9000302101FB00601B0543EA0C4343EA475311
:103FA00022F00302C0F860E0C365026717F0A0FCCE
:103FB000736D2B437365237A13B1336C2B433364D6
:103FC000637A13B1B36B2B43B3632279A37943EACA
:103FD0000243074A93616179E37943EA0143064961
:103FE0008B61044B55639D64BDE8F04117F086BCBE
:103FF0000020045000000450001004504FF4003220
:10400000054B9A6641F6713203F51C33DA630122DF
:1040100003F50053DA6070470090005041F67132AA
:104020000121064BDA6303F50052D1600022DA6306
:104030004FF40032A3F518339A667047000003501E
:10404000CB784A7810B55B010C7843EA82030A7991
:10405000234343EA02130C22424302F1B0421363AA
:10406000012C02BF8A78024B43F8202010BD00BF0C
:10407000EC80035008B54FF0B0435A6802B960B104
:104080005B680BB117F093FC4FF0B04130B10120E9
:10409000074B586017F08BFCC86008BD17F087FC11
:1040A0000223CB6017F083FC0122024B5A60F4E735
:1040B00000100058002000584FF0B0435B6870B506
:1040C0000BB117F074FC0121104B457859608378CF
:1040D0000679002BC37814BF02240024002B14BFE0
:1040E000042200224379DB0043EA06132B432343D7
:1040F00013434FF0B0429360054B59600378002B97
:1041000014BF0B460223D36070BD00BF00200058CF
:10411000001000584FF48032084B5A6603F5E6232E
:104120005B69C3F3461203F00F010A434280C3F3F5
:104130000342C3F303334270037070470090005092
:10414000014B986CD96C70470080E00F0120034B45
:104150009B680A3303F01F03984070470080E00F0C
:10416000012200F5805310B55A6040F6AA6341F26F
:104170000502436100230E498360C365C26000F5F8
:1041800000520361C361C36491640A498365884234
:1041900002D0094CA04207D18842036502D0064BE9
:1041A000984201D1002343650123536010BD00BF35
:1041B000FFFF010000C005500000065038B50D4655
:1041C000FFF7CEFF0122A97B00F580535A602A8AAF
:1041D0008368002914BF4FF48061002142F001027E
:1041E00013432A7D0B43002A14BF4FF000520022D4
:1041F00083608368044613438360AB7C5BB11D4AD4
:10420000EB7C90422DD1A2F51032C2F89031E36DD3
:1042100043F08003E3652B7B2046D5E9011243F48C
:104220008053E36017F0CBFB6B7B0BB11023636112
:104230006B7D1BB1A36843F48033A360AB7D1BB1DE
:10424000A36843F40043A360EB7D2A7E1B0712059D
:1042500003F0E04302F4E0021343A3652B786361AB
:1042600038BD054A904204BFA2F52032C2F8AC31F5
:10427000CDE700BF00C005500000065038B5044629
:10428000054D1EF047FF0FCC0FC594E8030085E8ED
:104290000300002038BD00BF8C2A002047F6FF73C2
:1042A0009A42F0B566D0012966D8344DCF0015F892
:1042B000313005EBC100012B847813D10025C37880
:1042C0001B1B9D4202D3E018C0B2F0BD591B4668CB
:1042D000A3EB510136F911609642D4BF0D4601F1AE
:1042E000FF33EEE740680028EFD0B0F9003093428A
:1042F00004DBB0F902309342B8BF134682883D44D4
:10430000FF2A19BFC8214FF0280CB0F90610B0F9E8
:1043100008C0A1EB03020CBF0126002692FBFCF2B1
:104320006D78324412B2954201DD002A01DA6A1E2C
:1043300012B24FF47A7700EBC206F188B668013208
:1043400013FB016112B221EAE1715C319542B1FBCC
:10435000F7F104DD00EBC206B6888E42EBD200EB2B
:10436000C20232F8040C884228BF0846A04238BF77
:104370002046A9E7FF20A8E70020A6E78C2A002016
:104380000129F0B553D82B4800EBC10410F83110C7
:10439000636801290FD1E078A478904294BFC4EB00
:1043A0000001C4EB0201001BCAB28242C8BF002256
:1043B00033F91200F0BD002B39D0A178914202D31D
:1043C000B3F90200F6E7E178B3F900009142F1D9C0
:1043D00099886478A1F1FF06013C714203F104055C
:1043E000E4B2714103F10C071FFA82FCCEB2B44271
:1043F00016D805EBC1014FF47A756A43B1F9024052
:104400004968521A04EBD47102EB610292FBF4F298
:104410009042CFDBB3F902009042CBDC10B2C9E787
:1044200037F831E04E1CE645E3D33146DEE702487B
:10443000C0E700BF8C2A00200080FFFF08B50448B9
:10444000FFF71CFFBDE8084001201EF067BE00BF5B
:104450009446020800487047DA0E00207FB5142207
:10446000002101A81FF09CFA044B01A94FF0FF3076
:1044700002931EF089FE07B05DF804FB006A180085
:1044800082B06B4683E80300034A93E8030082E8A6
:10449000030002B0704700BFA42A00201B0603F0EF
:1044A000706300F00F000902034301F4706112040D
:1044B00002F470220B431343014A1360704700BF9C
:1044C0000020025C2DE9F04717460C4688B029B160
:1044D0000139B1F5806F01D301263FE0244AD66847
:1044E00016F48036FBD140EA01212238112805D884
:1044F000204DC540ED4315F0010533D0012541F0B5
:1045000000413A0702F0805213431943184B596097
:1045100025BB194A03AB10685168DFF860A003C3DC
:104520000223CDE906350DF10C090DF11408CDF883
:10453000149098E80E00DAE90005A84702214846E1
:1045400017F039FC0028F2D00F22E31C009223F070
:10455000030398E8070047B117F04DFA304608B05A
:10456000BDE8F08741F00341CBE717F0A7FAF5E784
:104570000020025C0148020018470208A42A00201B
:104580000122054B9A60DA68D203FCD4D86820F087
:104590000F000004000C70470020025C014B1868FB
:1045A000704700BF0040025C014B5868704700BF75
:1045B0000010025C014B186B704700BF0010025CDA
:1045C000014B1868704700BF0010025C014B9860F7
:1045D000704700BF0010025C014B1864704700BFB9
:1045E0000010025C014B5864704700BF0010025C71
:1045F000014B5863704700BF0010025C0022014B62
:104600001A6070470010025C024A136843F001030D
:10461000136070470010025C43F20402014B1A6001
:10462000704700BF0010025C024A136843F0300379
:10463000136070470010025C044B1A6842F48072E9
:104640001A601A6822F480721A6070470010025CC7
:10465000024A136843F48063136070470010025CE1
:10466000034A136823F4702343EA00401060704744
:104670000010025C044B1A6902605A6942609A6930
:104680008260DB69C36070470010025C0268044B03
:104690001A6142685A6182689A61C268DA61704739
:1046A0000010025C024B1A6BD207FCD418627047F0
:1046B0000010025C024B186B00F00E00704700BF48
:1046C0000010025C82B01FB507930A9B04AC8B42BA
:1046D00028BF0B4604E907001048D100079948BFDE
:1046E00003330160099948BF23F0030323F07043AB
:1046F00001F0E041194341F000518160002102F0D6
:10470000E042019C134343F00053C16004618361A4
:10471000416304B0BDE8104002B070470000025C85
:104720003F22034B1A631022DA6103229A63704717
:104730000000025C024AD36B9B07FCD4704700BFA9
:104740000000025C034B986A10F0240018BF04209C
:10475000704700BF0000025C08B5FFF7F3FF064B8F
:10476000DB6B23F47F4323F0EF0303431EBF0122DF
:10477000024BC3F8FC2F08BD0000025C00F0FF3FB5
:10478000032208B5054B186019615A63FFF7C8FF8B
:10479000FFF7D0FFBDE80840FFF7DEBF0000025C76
:1047A00042680346182A10B50AD0202A1DD0102AC4
:1047B0002BD1174AD2F80424D4010AD4012013E0E3
:1047C000134AD2F804249001F8D50A6842F008028E
:1047D0000A6010481A6882424FF000000ED10A6841
:1047E00042F040020A60586010BD094AD2F8042421
:1047F0005201E3D50A6842F00402E9E7064CA242FE
:10480000F2D10A6842F08002ECE70720ECE700BF33
:104810000000025CEB360020EC36002013B5084C9B
:10482000D4F80444E40508D5009313460A4601462B
:10483000002000F01BF802B010BD0120FBE700BF14
:104840000000025C13B5084CD4F80444E40508D514
:10485000009313460A460146002000F02BF802B0F0
:1048600010BD0120FBE700BF0000025CF0B516465A
:104870005A688DB0102A0D46129F15D17A68102AF9
:1048800012D10A4A09AC07CA84E807002246294621
:10489000CDE90547CDE90344CDE90144044800963C
:1048A00017F0ADF90DB0F0BD0720FBE72447020873
:1048B00030000100F0B516465A688DB0102A0D463A
:1048C000129F15D17A68102A12D10A4A09AC07CA78
:1048D00084E8070022462946CDE90574CDE9034462
:1048E000CDE901440448009617F089F90DB0F0BDF8
:1048F0000720FBE7244702081000010070B598B0BC
:10490000002843D02C4C08AD0FCC0FC50FCC0FC5E1
:104910000FCC0FC594E80F0085E80F006D4604AE7C
:1049200004F1100320340FCB85E80F0094E80F004A
:1049300086E80F00FFF780FE0420FFF791FEFFF7E7
:104940006BFE3046FFF7A2FE002408AE56F8040BBB
:104950000134FFF7A7FE102CF8D1FFF725FE03283E
:10496000FBD90024FFF74AFE2646FFF717FE55F84D
:10497000043B01365840042E44EA0004F5D12CB122
:10498000012206200D4B1A7018B070BDFFF754FEBF
:104990000820FFF71BFE0020FFF71EFE0720FFF791
:1049A00021FE4FF40070FFF723FE0820FFF758FEAA
:1049B000FFF72AFE0020E7E704480208EE36002051
:1049C00008B5FFF739FE0122014B1A7008BD00BF80
:1049D000ED36002030B589B005AC84E80700FFF75C
:1049E000E9FDC30501D5FFF7EBFF0A4D2B781BB19D
:1049F00017F078FA00232B70074B069AD3E90101D0
:104A00008DE8030002921B6894E8070017F0E6F9AE
:104A100009B030BDED360020644802081FB517F01C
:104A200061FA044630B1012206240D4B1A7020466B
:104A300004B010BDFFF7B2FD0090FFF7AFFD01908D
:104A4000FFF7ACFD0290FFF7A9FD03906846FFF762
:104A50001DFEFFF7B5FFFFF7E7FDFFF7F9FDE6E7FE
:104A6000EE36002005289ABF014B185C00207047E5
:104A70007048020830B5154B87B00293144B039071
:104A8000049346F611030D46059300F06DF91428C2
:104A9000044616D1684617F0F9FA4FF0A8430322EE
:104AA00002A95A6319601D619A63DA6B9207FCD1FF
:104AB000142C02D1684617F0F7FA00F089F9044681
:104AC00001E00028E9D0204607B030BDAC2A002024
:104AD000040000202DE9F04FB1B005468C46E946B0
:104AE0006E4F3B9EDDF8F8E0409C07F1100AC84687
:104AF000386879680837A8E803005745C146F6D1F9
:104B00000EEB0208C8F1000909F00F09002E00F0B1
:104B1000AF80774207F00F070121DDF8FCB0C4F148
:104B2000100ACDF810B0059144F0005106914FEAFB
:104B30000A2101F4F85141F02101079106B96B46B1
:104B40000893002D40F09680002C00F0938004AB79
:104B50000993002E00F0908046F000530A93002D38
:104B600040F08D80002C14BF0123212343EA07234A
:104B70000B9308A942F00053CDF830C03D980D9139
:104B80000E934FEA092343F041030F93109002B1B3
:104B90000CA9002A16BF00224FF00052412342EA1E
:104BA0000E021191129213933C9B3D4A149310AB49
:104BB00015933C4B0021169340F6110317933A4B83
:104BC000002D08BF1346189314AB1993374B1022CE
:104BD0001A9311231B931CAB18461EF0E1FE012211
:104BE0001D924AF080421E9200220346239205B98C
:104BF000EB46102C08BF01230DF1900A1022002172
:104C00005046CDF880B0219322941EF0C9FE002CAE
:104C100037D020AB002125938F4218BF534647F071
:104C2000804226923A9A2CA88A42289229931346C7
:104C30000CBF4FF080430B46102233432B912A9335
:104C40001EF0AEFEFEB95346C8442D932CA948F081
:104C5000804318A82E93FFF70DFF30B92DB90346F6
:104C6000A34212D1002818BF2C2031B0BDE8F08F2C
:104C7000102751E701236BE747F000536EE721232C
:104C800074E70123C6E728ABDEE703F1C0026A44FC
:104C900012F8C02C01331043E2E700BF7648020847
:104CA00088480208100000208C48020804000020F8
:104CB000F0B5C0299FB0249E4FD0B1F5807F04D0BD
:104CC000802941D029201FB0F0BD40F2344440F289
:104CD0001445002E08BF2C462127102501940124DD
:104CE0000296039404950597259F069706B102AC9A
:104CF00007940124089509940A9221220B940C959B
:104D00000D92174A0AAC0E92164A0F94109242F670
:104D100011021192129313941495159201AA1692EE
:104D2000CBB112AB1793042318931123199316AB2D
:104D30001A901B9340F61103C9081C911AA806A9E2
:104D40001D93FFF797FEBEE7002E14BF4FF4866455
:104D50004FF48264C0E70EABE4E70F20B3E700BF77
:104D6000904802081000001038B5164B5A6E42F0F9
:104D700004025A66D3F8802242F00102C3F880226E
:104D8000114B5B68C3F3080343B14FF0A842D36BE8
:104D900013F0430FFBD11424204638BD4FF0A84335
:104DA000DC6B14F04304FBD1084D2B681BB90421C4
:104DB000284602F0BDF82B68013343F000432B6016
:104DC000EAE700BF0080005000ED00E0AC2A0020C0
:104DD000014B00205B68704700ED00E04FF400528B
:104DE000034B00209A660322C3F86022704700BF7D
:104DF0000090005008B5FFF7E3FBC30708D5FFF7A5
:104E000059FC062804D00A28F5D1FFF7D9FDF2E7AE
:104E10004FF40052034B00209A660322C3F860222D
:104E200008BD00BF00A000504FF40052084B10B561
:104E30009A660322C3F8602217F044F90446FFF78C
:104E4000D9FF00280CBF20466FF0920010BD00BFB4
:104E50000090005037B5154D2B782BBB0093144BA9
:104E6000019302AB13E90300FFF70AFB4FF4005272
:104E7000104B9A660322C3F8602217F023F9044608
:104E800017F058F840F0004016F087FEFFF7B2FF29
:104E900028B1002C08BF0446204603B030BD002CCA
:104EA000FAD101232B70F7E70024F5E7EF36002055
:104EB0004DBF010800900050012300F01F02A0F533
:104EC00006200949A0F550604009934051F8202080
:104ED0001A4341F82020054951F8202022EA030313
:104EE00041F82030704700BFB02A0020C42A0020BB
:104EF0000121A0F506230F4AA3F550635B0900F0DA
:104F00001F0001FA00F052F8231008430A4942F842
:104F10002300D1E90030034488680344C868096964
:104F200003445B1802BFC2E90033C2E902331361D4
:104F3000704700BFC42A0020B02A00202DE9F04F9E
:104F4000A9B002921D46DDE9326704460822CDE988
:104F50000301414021FA02F34B40980702F1080295
:104F600018BF9B00202A1C44F4D18123B4FBF3F327
:104F700003EBC313E41A7A4B04F506241B7804F5FB
:104F80005064002B40D1FDF79DFA014620B16FF02F
:104F9000910029B0BDE8F08F4022059008A81EF0CE
:104FA000FFFC4022059918A81EF0FAFCDFF8C89112
:104FB000DFF8C8A14B4603F10F0B102208A9DAF85D
:104FC0000000CDF800B005931DF042FE002201461E
:104FD000059B09F110090DF1200891424CD1CDF843
:104FE00000B01022DAF8000018A91DF03AFE4FF0C8
:104FF000000B03460DF160085B4549D1594B9945BB
:10500000D8D10122564B1A704FF081084FF0000999
:10501000DFF868A1A4F506235349A3F550625209AD
:1050200051F8221004F01F0C21FA0CF1C90744D4E6
:105030004E4951F8220020FA0CF010F0010030D057
:10504000B9F1000F08BFA146A3F6FF448123B4FBCA
:10505000F3F303EBC313E41A04F50624B8F10108D3
:1050600004F55064D6D1029BEBB1B9F1000F1AD010
:10507000349BC3F800906DE058F8040BCDE906238B
:105080000591FFF719FF069A079B05990132A4E7DE
:1050900058F8040B05930BF1010BFFF729FF059B53
:1050A000AAE7029B13B96FF08B0072E7349BB9F14A
:1050B000000F4ED0C3F800906BE70EB100233360B1
:1050C0000FB100233B604FF0100B00232A4621460E
:1050D000DAF80000CDF800B00CF062FF08BB0EB1AA
:1050E000C6F800B02B68224A934224D166B15FB162
:1050F0003B462146DAF8000018AA0CF0A5FF80B95B
:105100003B6832689B1A3B60D5E90223DDE9031056
:10511000834208BF8A4216D0A4F50624A4F6FF44B1
:1051200094E7144B984206D01233984203D0133BB5
:105130009842E9D02BE72146DAF800000CF0CAFFCC
:105140000028E1D0AFE7029B13B16B68012B03D0BD
:10515000349B1C6000201CE76FF0840019E700BF3F
:10516000F036002000710800B02A0020C42A002078
:10517000105D175EFFDF00F0006D0800F80A0020E8
:105180002DE9F04F87B08246894698461646DDF8ED
:1051900040B02AB1002B4ED040F26C739A424DD8E9
:1051A000BBF1010F4DD8002406F11007394601204C
:1051B000059417F0A1F90546002845D021463A4646
:1051C0001EF0EEFB05ABCDE9014300942B46012216
:1051D00050464946FFF7B2FE044680B110F18C0FED
:1051E00008BF6FF08D043A46002128461EF0D8FB18
:1051F000284617F092F9204607B0BDE8F08F144B0F
:10520000C5E902A92B60C5F804B02EB1324641466B
:1052100005F110001EF09DFB0E483B462A460599FD
:1052200000680CF025FE18B90598FFF745FEDAE78F
:105230006FF09104D7E76FF08604DCE76FF091041C
:10524000D9E76FF08504D6E76FF08C04D3E700BF91
:10525000105D175EF80A00202DE9F0438DB08146FD
:10526000DDE914780C4615461E469BB1B8F1000FD7
:1052700005D16FF0860420460DB0BDE8F083002F05
:10528000F7D0B7F1005FF4D3C3F1005303F58033D7
:105290009F42EED81022002108A81EF081FB0022B8
:1052A00007AB029305AB019306AB2146009348463A
:1052B00008ABCDE90522FFF741FE04460028DAD10C
:1052C0000599DEB1A94203D80029D2D115B1D0E7A2
:1052D0000029FBD0491BB14228BF3146069B094833
:1052E000C8F8001000913A46079900682B440CF06A
:1052F00057FE002818BF6FF09104BCE7A942E9D21D
:10530000B7E700BFF80A002030B58DB00C4605465F
:105310001022002108A81EF043FB002207AB0293D5
:1053200005AB019306AB21460093284608ABCDE9B7
:105330000522FFF703FE0446D0B9099B012B1AD0C2
:10534000104B079918680CF0C5FEB8B901220798F0
:105350000D49A0F50623A3F550635B0900F01F0576
:10536000AA4051F823506A4041F82320FFF7C0FDBE
:1053700020460DB030BD6FF08404F9E76FF0910462
:10538000F6E700BFF80A0020B02A00202DE9F0431C
:1053900089B00D4614461F46DDF8488020B96FF0ED
:1053A000860009B0BDE8F0830029F8D0002AF6D0C5
:1053B000B8F1000FF3D0028802F44F43B3F5824FE7
:1053C0000CBF13460023DBB202D06FF08500E8E784
:1053D000122B01D0172BF8D122F0FF02B2F5E24FC9
:1053E00040D14288C8F80020002A36D1E200C8F82F
:1053F0000020D8F80020B2F5807FE6D1122B09BF3B
:10540000384B00221A681B6905EB040608BFD21846
:1054100000231846224412F801CD16F8011D084356
:10542000B1EB0C010CBF4FF0FF3C4FF0000CB5424C
:105430000CEA030343EA0103EDD10028AFD0002BAF
:10544000ADDA109B9C4249D82246294638461EF0C8
:1054500080FA119B00201C60A3E70732B4EBD20F47
:10546000C7D09CE72A78042A99D1621ED20052083C
:10547000B2F5807FC8F80020A7D1122B05F10103F7
:1054800018BF4FF000094FF0400205934FF00003A2
:105490000ABF144E4E46D6F80C90CDE90623FFF70E
:1054A0009DFC00287FF47DAFCDF80C90D8F800303B
:1054B0000733DB08029308AB13E903008DE8030010
:1054C000059B96E8070016F0D7FC0646FFF792FC0E
:1054D00000287FF466AF002EB3D060E76FF089003C
:1054E0005FE700BFF04702082DE9F041069F0C4638
:1054F0001646054610B309B302B9FBB96288B3EB8F
:10550000D20F4FEAD20819D34C22002128461EF0B0
:1055100047FA0D4B27F47E129A4212D1204616F01C
:1055200016FE044638B942463146281D1EF011FACF
:10553000C5F824802F602046BDE8F0816FF0860416
:10554000F9E76FF08504F6E70002C0032DE9F041AA
:105550000E4614460546002840D000293ED012B918
:105560000020BDE8F08103681F4823F47E138342C6
:1055700037D1AF6BE7B1C7F1100807F128004245FA
:10558000284404D21EF0E5F93C44AC63E8E7424607
:105590001EF0DFF91022103C3C19AA63E0D0284627
:1055A00005F1280116F0EFFD0028DAD14644A86382
:1055B000102C0CD9671E27F00F073A4631462846B3
:1055C00016F0E1FD0028CCD1E41BC9D03E442246B0
:1055D000314605F128001EF0BCF9D6E76FF08600D1
:1055E000BFE76FF08800BCE70002C0032DE9F0437D
:1055F00088461F4605468BB070B169B163B1036838
:10560000234923F47E1088423ED113F47C1FC3F358
:10561000054604D0102E03D96FF086042AE0102628
:1056200096422BD8FFF7DAFB044618BBAB6B05F1AB
:105630002802CDE901236B6A2A1DCDE9042310233A
:10564000CDE9083007AB1A460390069005F13C09F6
:1056500001A904A8CDF81C90FFF7F4F80546FFF760
:10566000C9FB04466DB928B93246494640461EF08A
:1056700070F93E6020460BB0BDE8F0836FF08904FE
:10568000F8E76FF09204F5E76FF08504F2E700BFEA
:105690000002C00307B5084B18689A889B790090F0
:1056A0006846ADF804208DF80630FEF729FA002090
:1056B00003B05DF804FB00BF9448020813B5002452
:1056C000064A6846536F43F00103536700948DF810
:1056D0000440FEF751F9204602B010BD00400050D2
:1056E00030B58BB06C46174D0FCD0FC40FCD0FC426
:1056F00095E8030084E80300134BD3F84C21120310
:1057000017D4D3F85041E4B28DF81940FDF798FF53
:10571000204480F308008DF818000C48FCF7B8FC12
:105720006846FDF7A9FE3220FEF706F800200BB010
:1057300030BD074B1C884FF6FF739C4208BF8C247A
:10574000E2E700BF9C4802080080E00F00F0490239
:105750000001E00F30B5094D87B001AC0FCD0FC48B
:105760002B6801A823603F238DF80530FDF7A0FFCB
:105770003220FDF7DBFF002007B030BDC44802082F
:105780006FF00402502110B50A480B4C12F0800F44
:10579000D3B21BBF03F00F03043BA3181B1802F185
:1057A00001020CBF83F800131976432AEED10020C2
:1057B00010BD00BF00ED00E000E100E010B50446C0
:1057C00016F08FF8024B1C6016F08FF8002010BD09
:1057D000D82A002010B516F084F8034B1C6816F088
:1057E00084F8204610BD00BFD82A002013B500233E
:1057F00001241A4619461846009401F03BFE002386
:1058000000941A461946184601F064FE0248FFF754
:10581000D5FF002002B010BD240B0020034B022254
:10582000186800238068194614F0C0BA080C0020DC
:10583000BFF35F8F074B5A6A22F480325A62D3F863
:10584000942022F00102C3F89420BFF34F8FBFF3DE
:105850006F8F704700ED00E070B52648264CFFF7CB
:10586000E7FF844208BF4FF08043244A18BF20F06E
:105870001F03D2F8C01018BF203B21F0FF0141F0F8
:10588000A001B3F1005FC2F8C0100CD31C4D1D4E37
:10589000296843F00103C2F898100131C2F89C60F6
:1058A000C2F8A0302960844210D01548164B026817
:1058B000124923F01F0343F00303C1F89820C1F8F5
:1058C0009C30124B0132C1F8A0300260BFF35F8FF1
:1058D00005220A4BC3F894205A6A42F480325A6275
:1058E000BFF34F8FBFF36F8FBFF34F8FBFF36F8F38
:1058F00070BD00BF0C0F0020BC10002000ED00E0C8
:10590000DC2A002003000020DB100020E1FFFF3F25
:10591000F8B51446FFF78CFF1F2C27D90027C206C5
:105920002A4D1CBF20F01F0020302A68CB06284BD0
:1059300018BF21F01F01FCB2A24219D8D3F8C04011
:1059400020F01F0024F47F4444F4807421F01F01F0
:10595000C3F8C04040F00300C3F8982041F00301B1
:105960000132C3F89C00C3F8A0102A6000201AE09E
:10597000C3F89840D3F89C40D3F8A06024F01F04EB
:10598000A04226F01F0601D1B142EFD0B04201D8AB
:10599000A14207D2D3F89840013724F0FF04C3F89E
:1059A0009840C8E72820BFF35F8F0522084BC3F853
:1059B00094205A6A42F480325A62BFF34F8FBFF389
:1059C0006F8FBFF34F8FBFF36F8FF8BDDC2A0020BE
:1059D00000ED00E0BFF34F8F0549064BCA6802F4A3
:1059E000E0621343CB60BFF34F8F00BFFDE700BF02
:1059F00000ED00E00400FA05054B1A782AB95B783F
:105A0000002B14BF0220032070470120704700BF05
:105A1000F93600200329F8B598BF124B05460E460B
:105A20008CBF00245C5C032805D8DFE800F0020886
:105A30000B0E44F002040C4B1F684FB9F8BD44F044
:105A40000804F8E744F02004F5E744F08004F2E7A6
:105A50007B681A68144203D0314628465B68984731
:105A60003F68EAE7D8480208042B002038B5104DFB
:105A70002B78ABB10F4C23781BB100F08BFB0023CC
:105A80002370002016F08CFC0B4C50B100F0D4FBBE
:105A90000023012120782B70FFF7BCFF0123237026
:105AA00038BD0122054B1A702278054B1A70F7E7B2
:105AB000F8360020F3360020F1360020F7360020BB
:105AC000FE36002010B515F00CFF064B04461B787F
:105AD0001BB1BDE8104015F008BFFFF7C7FF204617
