S01800004E6577474E5F325F4546523332424732372E733337F9
S31508000000C00A002099210008CDB80108CDB801081A
S3150800001065C60108CDB80108CDB80108CDB80108F4
S31508000020CDB80108CDB80108CDB80108CDB801088A
S31508000030CDB80108CDB8010851B70108CDB80108F7
S31508000040CDB80108CDB80108CDB80108CDB801086A
S31508000050CDB80108CDB80108CDB80108CDB801085A
S31508000060CDB80108CDB80108CDB80108CDB801084A
S31508000070CDB80108CDB80108CDB80108D96B00087C
S31508000080CDB80108CDB80108CDB80108CDB801082A
S31508000090CDB80108CDB80108CDB80108CDB801081A
S315080000A0CDB80108CDB801086D250008CDB80108FE
S315080000B0CDB80108CDB80108E5260008C126000814
S315080000C0CDB80108CDB80108C5840108CDB8010826
S315080000D0B98E0108313C02082D3C0208AD8601089C
S315080000E03D3C0208353C0208918E0108393C02085D
S315080000F0F98E010805690108658F0108D96A0108A2
S31508000100CDB80108CDB80108CDB80108CDB80108A9
S31508000110CDB80108CDB80108CDB80108CDB8010899
S31508000120CDB80108CDB80108CDB80108CDB8010889
S31508000130CDB80108CDB80108CDB80108CDB8010879
S31508000140CDB80108CDB80108CDB8010800000000F7
S31508000150013800D0FCE770472DE9FF4140225C4B8F
S3150800016002201A6406F06AFD0123002219460520BA
S3150800017001F0C8FA022006F061FD012200210720DD
S3150800018001F01AFB0446022006F058FD0122002160
S31508000190082001F011FB4F4D04EB00242B88013396
S315080001A09BB20E2B2B803FD14B4B1C80032006F0B5
S315080001B045FD062300220121042001F0A3FAB5F823
S315080001C00080B8F10F0F2CD1444B1E88032E28D17E
S315080001D000241E25424F30461C8006F02FFD43465C
S315080001E0012239463A20009501F0B2FA022006F0BB
S315080001F025FD2B4622463146502001F083FA02207F
S3150800020006F01CFD39782B4622463A2041F080013B
S3150800021001F078FA0422334B1A67334A1268C3F896
S31508000220202404B0BDE8F081C0D90F232B4A2B80C7
S31508000230138801339BB2022B01D81380B6E7032734
S31508000240DFF894801780B8F80000201A19F056F8DD
S3150800025000224FF07C531AF0A3FF1BA3D3E9002317
S315080002601AF09EFF0022214B1AF09AFF19F0B0F8F7
S315080002700646384601F02AFFB0B11D4F1D493868B9
S315080002801CF0ACF91BF020FB1BF01FFBB8F8003084
S315080002903046039319F044F8CDE900012246039B42
S315080002A0154938681CF09AF90122144B07211E607B
S315080002B0134B1A700023CDE900330B4A184612680F
S315080002C003F0A6FE72E700BFA4703D0AD7A3F23F6B
S315080002D000D0035092360020903600209436002035
S315080002E0EE0E002000E003500820002000005940D0
S315080002F0802000202B4402085D4802082C2000209C
S315080003005437002000000000002370B5404C054615
S315080003108AB0E36318B1008823600CF017F93D48EA
S3150800032022F0EAFF3C4E3D4B304633603C4B73604F
S315080003301FF075FC0021304612F03EFA32A3D3E9CD
S315080003400023A062C4E906231FF074FCD4E906233F
S31508000350194310434FF0FF33C4E90601CDE9000104
S315080003604FF0FF32A06A23F030F802224FF0FF3137
S31508000370A06A23F02FF801200BF0F6FE4FF4007365
S3150800038000222849A06A23F07DF8B0F5007F38D10D
S3150800039000239422CDE9073309933C23CDE90332A0
S315080003A005939623A06A03A9069312F021FB35B399
S315080003B0287C0CF057FA0546F0B9A06A23F043F9F1
S315080003C00CF0F8F90BF0B2FE20B14FF48070002162
S315080003D00AF060FC0BF0BAFE20B14FF40060002171
S315080003E00AF058FC1FF0ECFB012012F039FA0E4A0D
S315080003F00E49A06A1FF011FC28460AB070BDFF20FE
S31508000400D7E70725F8E700BF0DD5015520000000FE
S31508000410181D0020690345ECF4310020F9BF0008D7
S31508000420E8310020E82F0020C3FB010803FC01087F
S315080004302DE9F04F456A044610EE10AA2DED048BFF
S3150800044093B057EC106BDDF88080BB460691099295
S315080004500C9375B9102019F0DBF90246606220B9D1
S31508000460A74BEA21A7481AF0FBFDC0E9015505602C
S31508000470C560636A196851B15A68012320469340DA
S315080004804A608B601AF00CF9636A00221A603B1EF8
S31508000490ADBF0023012223F0004BC8F800309A4B69
S315080004A0B8BFC8F8002033EA0B031BD142F20F731A
S315080004B00C9A1360CBF31303334300F08F85219B0B
S315080004C063B9924B22E0924B01930833219A136049
S315080004D0019813B0BDEC048BBDE8F08F8B4B0193EC
S315080004E00333F3E700220023504659461BF0C0F8B1
S315080004F080464BEC19AB58B101230C9A1360219B2B
S31508000500002B00F0688583481860431E0193DFE7D7
S31508000510CBF30A5510AA11A920464BEC10AB1AF0DA
S3150800052041FB08EE100A002D00F0828019EE903A81
S315080005305646A5F2FF35CDF83880C3F3130343F0CA
S315080005407F5747F440170022734B3046394618F058
S3150800055087FD65A3D3E900231AF022FE64A3D3E935
S31508000560002318F07FFD06460F46284618F0C6FEFB
S3150800057061A3D3E900231AF013FE02460B46304660
S31508000580394618F06FFD06460F461BF0B9F80022EB
S3150800059000900023304639461BF074F850B1009895
S315080005A018F0ACFE32463B461BF062F810B9009BC9
S315080005B0013B0093009B162B59D8009A574B03EB27
S315080005C0C20351EC190BD3E900231BF05BF8002892
S315080005D04FD0009B013B009300230B93109B5D1BA0
S315080005E06B1E059349BFC5F101030023049300233D
S315080005F054BF04930593009B002B3CDB059B009A94
S3150800060013440A92059300230793069B092B00F2CD
S315080006108980052BC5BF043B002501250693069B4B
S31508000620023B032B00F28980DFE803F02E3B395AA0
S31508000630DDE910531D4405F23243202BC6BFC3F132
S31508000640400305F21240C3F1200305F1FF35C5BF8B
S315080006500BFA03F326FA00F006FA03F0184318F02B
S315080006603DFE01230646A1F1F8770E936BE70123B9
S31508000670B3E70B90B2E7049B009A9B1A0493534284
S31508000680079300230A93C0E700230893099B002BCE
S3150800069056DC01231A46CDE9023309920CE0012300
S315080006A0F3E70023099A0893009B13440293013346
S315080006B0012B0393B8BF01230022606A426004221B
S315080006C002F1140641689E423ED9204619F0A8FF59
S315080006D0019000283CD1124B02464FF4D571C1E671
S315080006E00123DFE7AFF3008061436F63A787D23F3B
S315080006F0B3C8608B288AC63FFB799F501344D33F03
S31508000700F59302080C9402080000F07FF1930208A2
S31508000710E8930208C59302080000F83FA895020866
S315080007208A94020801250023089506934FF0FF33A3
S315080007300022CDE902331223AFE701230893F5E738
S31508000740099BCDE90233B7E7013152004160B7E7AB
S31508000750636A019A1A60039B0E2B00F29D80002D96
S3150800076000F09A80009B002B32DD03F00F03B64A97
S3150800077002EBC303D3E90089009BD8054FEA231788
S3150800078016D5B24B07F00F070325D3E9082351EC1A
S31508000790190B1AF02FFE82468B46AC4E57B94246C5
S315080007A04B46504659461AF025FE82468B4628E0A7
S315080007B00225F2E7F90708D5404649460135D6E944
S315080007C000231AF0EDFC804689467F100836E5E7D7
S315080007D000F09B80009B02259C4F5E429A4B06F0D8
S315080007E00F02361103EBC20351EC190BD3E90023B0
S315080007F01AF0D6FC002382468B46002E7AD1002BAF
S31508000800D3D10B9B002B00F082800022904B5046E0
S3150800081059461AF037FF002879D0039B002B76D06B
S31508000820029B002B36DD009B5046594600225F1E70
S31508000830884B1AF0B5FC013582468B46029E28463F
S31508000840D04618F05BFD52465B46D9461AF0A8FC1E
S315080008500022814B18F006FC8246A1F1507B002E3F
S3150800086058D100227D4B4046494618F0F9FB5246BE
S315080008705B46804689461AF023FF002840F093829B
S3150800088052460BF10043404649461AF0FBFE002843
S3150800089040F087825BEC19AB119B002BC0F24881B4
S315080008A0009A0E2A00F34481674B03EBC203D3E98F
S315080008B00089099B002B80F2D580039B002B00F34F
S315080008C0D18040F06D820022644B404649461AF0BA
S315080008D067FC52465B461AF0E9FE039E3746002837
S315080008E040F043823123019D05F8013B009B01330B
S315080008F000933EE2F20705D50135D7E900231AF041
S315080009004FFC01237610083777E7022579E7009F21
S31508000910039E94E701994C4B314403EBC6030D91B2
S31508000920089953E90223002943D000204C491AF0BC
S3150800093061FD52465B4618F093FB019D82468B4645
S31508000940494640461AF0DCFE064618F0D7FC024631
S3150800095030360B464046494618F082FB52465B46FF
S3150800096005F8016B804689461AF08CFE002863D18B
S3150800097042464B460020364918F072FB52465B4603
S315080009801AF080FE002840F0B5800D9B9D4281D06C
S315080009900022304B504659461AF002FC0022824685
S315080009A08B46404649462B4B1AF0FAFB8046894649
S315080009B0C6E7504659461AF0F3FB0D9B82468B460E
S315080009C0019D0F93494640461AF09AFE064618F0CE
S315080009D095FC02460B4640464946303618F040FB21
S315080009E00D9B05F8016B80469D4289464FF0000233
S315080009F024D11B4B5046594618F034FB02460B4689
S31508000A00404649461AF05CFE002873D152465B46BA
S31508000A100020134918F024FB02460B464046494677
S31508000A201AF030FE00283FF435AF0F9D6B1E0F936A
S31508000A3015F8013C302BF8D0009749E0054B1AF021
S31508000A40AFFB80468946BDE7A8950208809502084F
S31508000A500000F03F0000244000001C400000144045
S31508000A600000E03F56465F46019D42464B463046EB
S31508000A7039461AF0BFFC1AF043FE824618F03EFCCF
S31508000A8042464B461AF08CFB024630460AF13006BF
S31508000A900B46394618F0E4FA05F8016B019E024642
S31508000AA0039F0B46AE1BB74235D118F0DBFA424618
S31508000AB04B4606460F461AF003FED0B942464B4649
S31508000AC0304639461AF0D4FD10B11AF0010F10D18C
S31508000AD0204618EE101A19F0E3FD002300982B7033
S31508000AE001300C9B1860219B002B3FF4F1AC1D6074
S31508000AF0EEE4009F2B461D4613F8012D392A06D130
S31508000B00019A9A42F7D13022019901370A701A7868
S31508000B1001321A7090E70022A44B1AF041FB00221A
S31508000B20002306460F461AF0A3FD00289DD0CFE7FE
S31508000B30089A002A00F0D580069A012A00F3B9809F
S31508000B400E9A002A00F0B18003F23343079E049DF3
S31508000B50049A012120461A440492059A1A440592D9
S31508000B6019F008FE0746002D0CDD059B002B09DD54
S31508000B70AB42049AA8BF2B46D21AED1A0492059ADC
S31508000B80D31A0593079B1BB3089B002B00F0AD8077
S31508000B90002E13DD39463246204619F0A9FE18EE16
S31508000BA0102A01460746204619F0FAFD804618EE37
S31508000BB0101A204608EE108A19F072FD079B9A1B38
S31508000BC006D018EE101A204619F092FE08EE100A02
S31508000BD00121204619F0CEFD0A9B0646002B40F35C
S31508000BE086801A460146204619F082FE069B06466E
S31508000BF0012B7FDD4FF00008336906EB8303186984
S31508000C0023F0AEFAC0F12000059B184410F01F002F
S31508000C1000F09180C0F12003042B40F38980C0F1D5
S31508000C201C00049B054403440493059B0344059355
S31508000C30049B002B07DD18EE101A1A46204619F0F9
S31508000C40B1FE08EE100A059B002B05DD31461A4653
S31508000C50204619F0A7FE06460B9B002B6DD03146A1
S31508000C6018EE100A23F0CBFA002866DA009B18EE75
S31508000C70101A0A222046013B0093002319F032FD80
S31508000C80089B08EE100A002B00F0AF8100233946B6
S31508000C900A22204619F026FD029B0746002B00F380
S31508000CA08D80069B022B50DC88E0109BC3F136032F
S31508000CB04CE7039B5E1E079BB342B7BF079B9E1B71
S31508000CC00796F21ABFBF0A9B00269B180A93039B36
S31508000CD0002BB7BFDDE90323DDE903359D1A0023A1
S31508000CE036E7079E049D089F3DE7079A69E7069B36
S31508000CF0012B18DCBAF1000F15D1CBF3130393B906
S31508000D002BF000431B0D1B0583B1049B4FF0010814
S31508000D1001330493059B013305930A9B002B7FF44B
S31508000D206BAF012070E74FF00008F6E79846F4E746
S31508000D303FF47EAF18461C3073E7039B002B37DC65
S31508000D40069B022B34DD039B0293029B6BB931464B
S31508000D500522204619F0C6FC0146064618EE100A7A
S31508000D6023F04DFA00283FF7BDAD099B019DDB43F3
S31508000D7000934FF000083146204619F091FC002FE9
S31508000D803FF4A6AEB8F1000F05D0B84503D04146EA
S31508000D90204619F085FC3946204619F081FC97E66D
S31508000DA000263746E1E7009737469BE500002440D2
S31508000DB0089B002B00F0CA80039B0293002D05DDDB
S31508000DC039462A46204619F0EDFD0746B8F1000FC8
S31508000DD05BD07968204619F023FC054628B9874B6D
S31508000DE0024640F2EA21FFF73DBB3A6907F10C01DA
S31508000DF00C300232920022F047FF01222946204693
S31508000E0019F0D0FD019BB846074603F10109DDE953
S31508000E100123134405930AF001030493314618EE9F
S31508000E20100A23F0A1F84146029000F1300A18EEA4
S31508000E30100A09F1FF3B23F0E2F93A4603903146DE
S31508000E40204619F01FFEC268054602BB014618EE89
S31508000E50100A23F0D4F9024629462046079219F0CB
S31508000E601FFC4D46DDE9063243EA0201049B0B43AB
S31508000E700FD1BAF1390F2AD0039B002B02DD029B52
S31508000E8003F1310A8BF800A075E73846BAE7012264
S31508000E90E2E7039B002B04DB06990B4304990B43FB
S31508000EA022D1002AEEDD18EE101A0122204619F08A
S31508000EB079FD314608EE100A23F0A1F9002803DC73
S31508000EC0E0D11AF0010FDDD0BAF1390FD7D13923A5
S31508000ED08BF800302B461D46013B15F8012C392AA4
S31508000EE070D001321A7046E7002A07DDBAF1390FC9
S31508000EF0EDD00AF101038BF800303CE7059B09F8B1
S31508000F0001AC994546D018EE101A00230A2220464D
S31508000F1019F0E8FBB84508EE100A4FF000034FF049
S31508000F200A024146204606D119F0DCFB80460746F0
S31508000F3009F1010972E719F0D5FB39468046002305
S31508000F400A22204619F0CEFB0746F1E7039B0293D7
S31508000F50019D314618EE100A23F006F8019B00F1B0
S31508000F60300A05F801ABEA1A029B934209DD18EE2E
S31508000F70101A00230A22204619F0B4FB08EE100ABC
S31508000F80E7E7029B4FF00008002BCCBF1D46012562
S31508000F90019B1D4418EE101A0122204619F002FD85
S31508000FA0314608EE100A23F02AF9002892DC02D10D
S31508000FB01AF0010F8ED12B461D4613F8012D302A43
S31508000FC0FAD0D8E6019A9A4285D1009B013300935C
S31508000FD031231370CFE60A4BFFF798BA219B002BF3
S31508000FE07FF471AA074BFFF791BA029B002BAFDC7F
S31508000FF0069B022B3FF7A9AEAAE700BF8A94020810
S31508001000C4930208E893020810B5054C237833B94F
S31508001010044B13B1044800E000BF0123237010BD40
S31508001020681F002000000000D497020808B5034B8B
S315080010301BB10349034800E000BF08BD00000000DB
S315080010406C1F0020D4970208A3F5803A704700BFAA
S31508001050174B002B08BF134B9D46FFF7F5FF0021E2
S315080010608B460F461348144A121A22F034FE0E4BCA
S31508001070002B00D098470D4B002B00D09847002036
S31508001080002104000D000D48002802D00C4800E09D
S3150800109000BF18F099FB2000290000F0DDF918F0D0
S315080010A07FFB00BF000008000000000000000000F1
S315080010B0C00A0020A81C00204838002000000000B4
S315080010C0000000007FB50368924A23F47F4323F0AB
S315080010D00703934200F0428109D88F4A934214D0FD
S315080010E002F5A022934200F0ED8004B070BD8B4A51
S315080010F0934200F0FD8002F57B029342F5D14068E9
S3150800110004B0BDE8704000F08FBF00210DF10E035A
S31508001110084603AA0DF0DEFC054610B3804C81494B
S3150800112020681BF05BFA804920681BF057FA1AF012
S31508001130CBFB1AF0CAFB7D4B7D4A00937D493823C9
S3150800114020681BF04BFA7C492B467C4A20681BF02A
S3150800115045FA284601F000F8794920681BF03EFA5E
S31508001160FEE7784E30460DF027FC054610B36C4C6A
S315080011706C4920681BF032FA6B4920681BF02EFA7E
S315080011801AF0A2FB1AF0A1FB684B694A0093694959
S315080011903C2320681BF022FA67492B46674A2068D9
S315080011A01BF01CFA284600F0D7FF654920681BF09B
S315080011B015FAFEE7644C6548214600F051FF22788F
S315080011C00221624B30780DF031FC044610B3544DC1
S315080011D0544928681BF002FA534928681BF0FEF99F
S315080011E01AF072FB1AF071FB504B514A00935149A1
S315080011F0442328681BF0F2F94F4923464F4A2868CA
S315080012001BF0ECF9204600F0A7FF4D4928681BF0B3
S31508001210E5F9FEE74FF4C8620346009011463078B8
S315080012200DF0E2FB054610B33D4C3E4920681BF025
S31508001230D5F93D4920681BF0D1F91AF045FB1AF09B
S3150800124044FB3A4B3A4A00933A494D2320681BF02F
S31508001250C5F939492B46394A20681BF0BFF9284693
S3150800126000F07AFF364920681BF0B8F9FEE702213C
S3150800127030780DF005FC054600283FF436AF284CBB
S31508001280284920681BF0AAF9274920681BF0A6F907
S315080012901AF01AFB1AF019FB244B254A0093254924
S315080012A0512320681BF09AF923492B46234A2068C4
S315080012B01BF094F9284600F04FFF214920681BF0DF
S315080012C08DF9FEE7032000F001FF00283FF40DAF7B
S315080012D0134C1F4920681BF081F91AF0F5FA1AF029
S315080012E0F4FA1C49206804B0BDE870401BF076B9D2
S315080012F0032000F0EBFE00283FF4F7AE084C144933
S3150800130020681BF06BF91AF0DFFA1AF0DEFA1249B8
S31508001310E8E700BFA0000601A0000100A000060241
S3150800132080200020A5480208E843020876440208FF
S31508001330ED430208F643020805440208024402087F
S315080013401A440208EA0E00205137002032370020DE
S315080013502B4402083044020844440208032000F0E3
S31508001360B5FE60B1304C314920681BF037F91AF0E8
S31508001370ABFA1AF0AAFA2E4920681BF02FF92D4C61
S31508001380022120780DF068FB054610B3264C2A4941
S3150800139020681BF023F9294920681BF01FF91AF069
S315080013A093FA1AF092FA264B264A009326497C238A
S315080013B020681BF013F925492B46254A20681BF09F
S315080013C00DF9284600F0C8FE224920681BF006F9E8
S315080013D0FEE7022120780DF053FB054600283FF46E
S315080013E084AE114C144920681BF0F8F8134920689C
S315080013F01BF0F4F81AF068FA1AF067FA104B114A5B
S3150800140000931149802320681BF0E8F80F492B4602
S315080014100F4A20681BF0E2F8284600F09DFE0D49A9
S3150800142020681BF0DBF8FEE7802000202B4402082A
S3150800143062440208EA0E0020A5480208E8430208AA
S3150800144076440208ED430208F643020805440208FA
S31508001450024402081A44020808B51BF0B9F93A20F2
S31508001460012101F095FE00F09DFD1AF001FA032016
S3150800147000F02CFE60B1094C094920681BF0AEF853
S315080014801AF022FA1AF021FA064920681BF0A6F883
S315080014901BF0ABF904F04AFDFAE700BF80200020F4
S315080014A02B44020885440208036837B523F47F43B2
S315080014B0184A23F0070393422AD105220021162051
S315080014C0154B0DF0F1FA054610B3144C1449206873
S315080014D01BF084F8134920681BF080F81AF0F4F919
S315080014E01AF0F3F9104B114A114900932068592351
S315080014F01BF074F80F492B460F4A20681BF06EF84C
S31508001500284600F029FE0D4920681BF067F8FEE71B
S3150800151003B030BDA00001008F44020880200020DF
S31508001520A5480208E8430208BD4402089544020893
S31508001530F643020805440208024402081A4402084F
S3150800154010B5234C02F08CF802F08AFA236F23F0C8
S31508001550070343F0030323671AF021FB1D4B002002
S315080015609B6A9B075EBF01221B4B9A62D4F8203107
S3150800157023F0030343F00203C4F82031D4F82431DE
S3150800158023F0070343F00203C4F82431D4F84031AA
S3150800159023F0030343F00203C4F84031D4F8603162
S315080015A023F0030343F00203C4F86031D4F8403251
S315080015B023F0030343F00203C4F84032D4F80032A0
S315080015C023F0070343F00203C4F8003210BD00BF3E
S315080015D00080005000C0005000E00050024B034954
S315080015E0186801F005BA00BFC00A0020C40A002026
S315080015F013460A4601460248006801F0DBBB00BFF5
S31508001600C00A0020024B0A460146186801F0F8BBDA
S31508001610C00A002008B5042201230621002002F092
S315080016204FFD012304221846032102F049FD012338
S3150800163004221846022102F043FD0023022218461E
S31508001640072102F03DFD00220849072001F00CF8A9
S31508001650074B08491860012000F0C4FC022006491F
S3150800166000F0C0FC0022054B1A7008BD89B80108B5
S3150800167008200020251F00081518000854370020E8
S315080016800822194B13B51A6704224FF47A701A67A1
S3150800169005F004F900240123CDE90043134A072184
S315080016A02046126802F0B4FC23464FF42021CDE907
S315080016B000440F4A0F481BF030F898B1032000F099
S315080016C005FD78B10C4C0D4920681AF087FF1AF011
S315080016D0FBF81AF0FAF80A49206802B0BDE810408B
S315080016E01AF07CBF02B010BD00D0035008200020BD
S315080016F083B801080C200020802000202B44020813
S315080017003248020813B51C4680238DF8053000239D
S315080017108DF8061040218DF807300B4B8DF8040024
S31508001720104619640AB11AF0B2F804210DEB01004B
S31508001730FFF768FF14B120461AF0A9F84022034BB8
S315080017401A6402B010BD00BF00E0035000D0035079
S3150800175070B592B08DF80800A0200024169D8DF86B
S315080017600900E6B2B01CB24212AE56FA80F019D899
S315080017700332D1B2002200F8402C40200C4A1064F3
S3150800178023B1184601911AF082F8019902A8FFF7C9
S3150800179039FF15B128461AF07AF84022054B1A6423
S315080017A012B070BD0E5D013400F8406CD9E700BF79
S315080017B000E0035000D0035013B5134B14461A88A3
S315080017C09B78ADF804208DF80630002340228DF86A
S315080017D001308DF802300D4B8DF8000008461A646A
S315080017E009B11AF054F80322684601A9FFF700FF69
S315080017F014B120461AF04BF84022054B1A649DF89E
S31508001800060002B010BD00BF8A49020800E0035076
S3150800181000D0035010B5032000F058FC60B1084C06
S31508001820084920681AF0DAFE1AF04EF81AF04DF850
S31508001830054920681AF0D2FEBDE81040FEF78CBCB8
S31508001840802000202B4402087748020840222DE910
S31508001850F041C64BDFF850838AB01A644FF496708D
S3150800186005F0ECF998F800301E258DF808300B23A2
S315080018708DF809300723032202A93A208DF80A3089
S3150800188000950F23FFF764FF4FF4967005F0D6F91D
S31508001890B74B00241B7801268DF80B30B54B032770
S315080018A01B780E228DF80C30B34B02A91B785020FA
S315080018B08DF81130B14B8DF808701B7800958DF8AE
S315080018C012307F238DF814300F238DF809408DF8D8
S315080018D00A408DF80D408DF80E408DF80F608DF892
S315080018E010608DF813608DF81540FFF731FF0A2058
S315080018F004F0D4FF0F23022202A961208DF80830D4
S31508001900009523468DF80960FFF722FF4FF496707D
S3150800191005F094F998F800103A202B46224641F033
S315080019208001FFF7EFFE384600F0D0FB60B1944C1B
S31508001930944920681AF052FE19F0C6FF19F0C5FF3F
S31508001940914920681AF04AFE4FF4967005F076F928
S315080019508E4B1E241B7800258DF80830542303224D
S3150800196002A901208DF80A3000940F238DF809503A
S31508001970FFF7EEFE4FF4967005F060F91F232A462E
S3150800198029460520FFF7BEFE4FF4967005F056F976
S31508001990012317208DF808308DF80930022211230B
S315080019A0009402A9FFF7D4FE032000F08FFB60B174
S315080019B0734C744920681AF011FE19F085FF19F066
S315080019C084FF734920681AF009FE4FF4967005F0F3
S315080019D035F9012200217320FFF7EEFE04460320A5
S315080019E000F074FB68B1664D664928681AF0F6FD82
S315080019F019F06AFF19F069FF7322664928681AF018
S31508001A00EDFD032000F062FB68B15D4D5D49286875
S31508001A101AF0E4FD19F058FF19F057FF22465E49FF
S31508001A2028681AF0DBFD4FF4967005F007F90122D5
S31508001A3000215320FFF7C0FE0446032000F046FBB2
S31508001A4068B14F4D4F4928681AF0C8FD19F03CFF98
S31508001A5019F03BFF53224F4928681AF0BFFD0320AF
S31508001A6000F034FB68B1464D464928681AF0B6FDC1
S31508001A7019F02AFF19F029FF2246484928681AF062
S31508001A80ADFD4FF4967005F0D9F8012200215420D7
S31508001A90FFF792FE0446032000F018FB68B1384DA4
S31508001AA0384928681AF09AFD19F00EFF19F00DFF4B
S31508001AB05422384928681AF091FD032000F006FBE5
S31508001AC068B12F4D2F4928681AF088FD19F0FCFED9
S31508001AD019F0FBFE2246324928681AF07FFD4FF4BA
S31508001AE0967005F0ABF8012200215920FFF764FE35
S31508001AF00446032000F0EAFA68B1214D2149286816
S31508001B001AF06CFD19F0E0FE19F0DFFE59222149A2
S31508001B1028681AF063FD032000F0D8FA68B1184D5A
S31508001B20184928681AF05AFD19F0CEFE19F0CDFEAC
S31508001B3022461C4928681AF051FD4FF4967005F0A4
S31508001B407DF8012200215A20FFF736FE04460320BD
S31508001B5000F0BCFA70B30A4D0A4928681AF03EFD2F
S31508001B6019F0B2FE19F0B1FE5A221FE000D0035058
S31508001B70EC0E002053370020EB0E002052370020D1
S31508001B80802000202B4402088F480208ED0E002012
S31508001B90A7480208C1480208CA480208DF480208DE
S31508001BA0EA480208F2480208EE0E00207F49286833
S31508001BB01AF014FD032000F089FA68B17C4D7D49BE
S31508001BC028681AF00BFD19F07FFE19F07EFE2246F2
S31508001BD0794928681AF002FD4FF4967005F02EF838
S31508001BE0012200213A20FFF7E7FD0446032000F012
S31508001BF06DFA68B16E4D6F4928681AF0EFFC19F056
S31508001C0063FE19F062FE3A22684928681AF0E6FC73
S31508001C10032000F05BFA68B1654D664928681AF03A
S31508001C20DDFC19F051FE19F050FE2246634928687A
S31508001C301AF0D4FC4FF4967005F000F80122002142
S31508001C401046FFF7B9FD0446032000F03FFA68B1D5
S31508001C50574D584928681AF0C1FC19F035FE19F095
S31508001C6034FE0122514928681AF0B8FC032000F016
S31508001C702DFA68B14E4D4F4928681AF0AFFC19F095
S31508001C8023FE19F022FE22464D4928681AF0A6FCC2
S31508001C904FF4967004F0D2FF012200215020FFF77E
S31508001CA08BFD0446032000F011FA68B1404D414906
S31508001CB028681AF093FC19F007FE19F006FE502260
S31508001CC03A4928681AF08AFC032000F0FFF968B13F
S31508001CD0374D384928681AF081FC19F0F5FD19F0D6
S31508001CE0F4FD2246374928681AF078FC4FF49670B6
S31508001CF004F0A4FF012200213B20FFF75DFD044606
S31508001D00032000F0E3F968B1294D2A4928681AF03A
S31508001D1065FC19F0D9FD19F0D8FD3B22234928683E
S31508001D201AF05CFC032000F0D1F968B1204D214976
S31508001D3028681AF053FC19F0C7FD19F0C6FD2246AB
S31508001D40214928681AF04AFC4FF4967004F076FF89
S31508001D50012200215520FFF72FFD0446032000F03D
S31508001D60B5F968B1124D134928681AF037FC19F00D
S31508001D70ABFD19F0AAFD55220C4928681AF02EFC6D
S31508001D80032000F0A3F968B1094D0A4928681AF03A
S31508001D9025FC19F099FD19F098FD22460B4928688B
S31508001DA01AF01CFC0AB0BDE8F08100BFC148020861
S31508001DB0802000202B440208084902081F4902080F
S31508001DC02C49020841490208594902086249020891
S31508001DD040222DE9F0434C4BDFF844918BB01A644E
S31508001DE0032004F02BFF99F800301E268DF80830E2
S31508001DF00B238DF80930072302A903228DF80A3030
S31508001E003A200F230096FFF7A3FC032004F016FFE1
S31508001E103E4B00241B7801258DF80B303C4B0327DD
S31508001E201B784FF00F088DF80C303A4B02A91B7837
S31508001E300E228DF81130384B50201B7800968DF8FD
S31508001E4012307F238DF814300F238DF808708DF823
S31508001E5009408DF80A408DF80D408DF80E408DF832
S31508001E600F508DF810508DF813508DF81540FFF768
S31508001E706FFC0A2004F012FD234602A90222612003
S31508001E8000968DF808808DF80950FFF761FC3846F2
S31508001E9004F0D4FE99F800103346224641F080013A
S31508001EA03A20FFF72FFC384604F0C8FE1B4B3A468B
S31508001EB01B7802A98DF80830542328468DF80A3075
S31508001EC0009643468DF80940FFF742FC384604F071
S31508001ED0B5FE224621461F230520FFF713FC384688
S31508001EE004F0ACFE1123022202A9172000968DF8F1
S31508001EF008508DF80950FFF72BFC284604F09EFE83
S31508001F000BB0BDE8F08300BF00D00350EC0E0020F4
S31508001F1053370020EB0E002052370020ED0E00202C
S31508001F20EE0E002013B5032000F0D0F860B1114C76
S31508001F30114920681AF052FB19F0C6FC19F0C5FCC5
S31508001F400E4920681AF04AFB04220D4B4FF47A70AA
S31508001F501A6704F0A3FC00200123CDE90003094A0F
S31508001F600721126802F054F802B0BDE81040FFF7E6
S31508001F702FBF00BF802000202B4402086B490208AF
S31508001F8000D003500820002000231946044A0133D4
S31508001F900A2BC2E9001102F10802F8D1704700BF06
S31508001FA03020002010B50D4C48220021204621F093
S31508001FB092FE204619F078FC04F10C0019F074FC26
S31508001FC004F1180019F070FC0548FFF7DDFF00F072
S31508001FD03FF8052384F8423010BD00BF963600202E
S31508001FE08D490208002230B50E4B53F83240844220
S31508001FF004D1012003EBC203596030BD01320A2A1D
S31508002000F3D10022074C256825B9656815B943F848
S315080020103200EEE701320A2A04F10804F3D100205F
S31508002020EBE700BF30200020002208B5074B1968EF
S31508002030814204D1596811B18847012008BD01328F
S315080020400A2A03F10803F2D10020F7E7302000201E
S3150800205001460C22014821F074BF00BF5537002005
S3150800206038B50D46044670B3174821F062FF0923B8
S31508002070013063702070144821F05BFF1249024654
S31508002080A01C21F001FE104821F053FF032241F65F
S315080020901F01C0B2831CDBB2E2548318DBB2E254E0
S315080020A0031DDBB2E152831DDBB2E254FF22C31DDE
S315080020B0DBB2E25440F2623200F10803DBB2E252CC
S315080020C00DB10A30287038BD553700200B4B024633
S315080020D01B788BB10A4B1B78834234BF0020012042
S315080020E0084B1B783BB1084B1B7843FA02F212F0F7
S315080020F0010F08BF002070470120F1E7EF0E00200E
S31508002100F00E002061370020F10E0020012208B5EC
S31508002110074B1A700022074B1A700422064B1A70D6
S315080021201F22064B1A7003F077FC054B186008BD92
S31508002130EF0E002061370020F00E0020F10E00207F
S3150800214080200020024B034918681AF047BA00BFDE
S31508002150802000209949020870B50C4C0C490646A7
S3150800216020681AF03BFA03F057FC0546206803F08E
S3150800217047FC3046FFF7E6FF284603F041FC206897
S315080021800449BDE870401AF029BA00BF8020002033
S315080021909B4902089D49020808B500F02DF8124B24
S315080021A012498B4212D30020114B12498B4218D385
S315080021B0FEF74EFF186850F82240586840F822404B
S315080021C0013298688242F5D30C33EAE70022F8E731
S315080021D01C6844F8220001325C68A242F8D308332E
S315080021E0E4E70022F8E700BFDC970208E897020850
S315080021F0E8970208E89702084FF400414FF0FF30CD
S31508002200114B124A10B59A60D3F8882042F470022E
S31508002210C3F888200E4A916601F1884101F50052FB
S3150800222010660C4850660220C3F8D000BFF34F8FE3
S31508002230BFF36F8F08244FF440330748C0F8804136
S31508002240D36004600B6110BD00ED00E000000008DB
S31508002250009000507FFF070000E100E0014B18687E
S31508002260704700BFE80A0020084B1B6F03F00703FE
S31508002270022B04D0032B05D0012B05D0FEE7044B17
S3150800228018687047034BFBE7034870470080005007
S31508002290E80A0020EC0A0020002D310108B5FFF7F6
S315080022A0E3FF054B1B6FC3F303330133B0FBF3F0B6
S315080022B0024B186008BD00BF00800050E40A0020E9
S315080022C00048704700B4C404014B1868704700BF43
S315080022D0EC0A0020054B1860054B1B6F03F007033B
S315080022E0032B01D1FFF7DABF704700BFEC0A0020C5
S315080022F00080005000487047002D3101014B1868D6
S31508002300704700BFF00A002005490A6813180548F7
S3150800231083428CBF4FF0FF320B601046704700BFF8
S31508002320F40A0020000001202DE9F04F9A46564B8A
S3150800233085B01B7806460F461546DDF83C909DF895
S3150800234044B0DDF85080002B00F08D80072A00F29B
S315080023508C800E9B002B00F08880B9F1000F00F0EE
S315080023608480129BB3F5006F7FDC012802D1109B95
S31508002370002B7AD0454B03EB05131B7B002B76D03D
S31508002380434C10220021684621F0A5FC04EB4514B5
S315080023901022002F59D13946204621F09CFC43F2E1
S315080023A010036380BBF1000F03D1E37843F0030306
S315080023B0E370374A0E9B02EB451CCCE90193129B4E
S315080023C06901013BC3F30A009DF84C30012E03F066
S315080023D003034FEA836343EA001E53582D48CDF89A
S315080023E000A000EA03004EEA0003535041D113232C
S315080023F00CF1100ECCF80C309CE80F008EE80F009C
S315080024006FF00301DCF81C20109B61F39F02012F7B
S31508002410CCF81C20CCF8143003D1CCF81890CCF8A2
S3150800242004300027194A290102EB051342F80180F6
S31508002430159A28465A60694622469F605E7301F0DF
S31508002440B1FE384605B0BDE8F08F0021204621F0E0
S3150800245042FC4FF444736380BBF1000FA9D1E378C3
S3150800246043F03003A4E70C48ECE70C48EAE70C48CD
S31508002470E8E7B8F1000FD4D19CF8023068F30413EA
S315080024808CF80230CDE700BF623700208420002098
S31508002490042100200F80FFF3028000F0018000F085
S315080024A0078000F038B5124B05461B78DBB1E0B162
S315080024B019F091FB0F4A00231146147B54B92B607F
S315080024C001251A0101EB03131D738C5019F089FBC2
S315080024D0204638BD0133082B02F11002EDD119F060
S315080024E080FB0548F5E70548F3E70548F1E700BF2F
S315080024F06237002084200020048000F0028000F06B
S31508002500018000F0154B13B51868002301908DF86B
S31508002510043019F060FB124B1C7824B119F061FBEA
S31508002520104802B010BD01221A7019F05AFB0E4B62
S3150800253001A81C731C7783F82C4083F83C4083F869
S315080025404C4083F85C4083F86C4083F87C40082351
S315080025508DF8073001F0F4FD2046E2E7A0490208AD
S3150800256062370020038000F084200020204B2DE9EC
S31508002570F0471F6D5A6D1F4C174010D54FF000419C
S315080025801D4A1165D868C0F304200301E35804EB1B
S3150800259000125BB3BDE8F0470021526818470126D0
S315080025A00025DFF85480DFF85490374217D02368A7
S315080025B0C8F850609BB1A168284601316268A160DD
S315080025C09847637B012B0AD148B909EB45131A7B57
S315080025D060F341021A731A7F60F341021A770135D4
S315080025E0082D4FEA460604F11004DED1BDE8F0874F
S315080025F000000450842000200020045004210020FC
S3150800260070B5044601250B4E04B970BD94FAA4F0C2
S31508002610B0FA80F005FA00F306EB001224EA030488
S315080026205368002BF0D0117B11B191689847EBE7FE
S315080026309847E9E70422002008B51E2001F04EFA63
S3150800264028B14FF08042074BC3F880211A601F203B
S3150800265001F044FA28B14FF00042024BC3F880213A
S315080026601A6008BD00E100E0F8B505460F461646B3
S3150800267019F0B1FA104B05F0FC02D3F82414002324
S31508002680EC1804F00304144321FA04FC1CF0010FAF
S3150800269007D00133042BF3D1FF2419F0A2FA204600
S315080026A0F8BDFF2CF9D00122044B03EB0413C3E950
S315080026B001761A73F1E700BF00C003500422002018
S315080026C0074BD3F82404D3F8202403F5005310400D
S315080026D000F0553020F05020C3F82004FFF790BFD3
S315080026E000C00350074BD3F82404D3F8202403F57D
S315080026F00053104000F0AA3020F0A020C3F82004B0
S31508002700FFF77EBF00C00350024B1968024B1868DA
S315080027100FF066BCFC0A0020F80A002037B59200C4
S3150800272004460D46019221F057FE431C0BD060B9B2
S3150800273029462046019A21F097FA0028044808BF3E
S31508002740002003B030BD0348FBE70348F9E700BFA4
S3150800275010E000F021E000F024E000F010B5044697
S3150800276021F032FE431C10D088B901F011FE234631
S3150800277020F003002044984201D1002010BD53F8F0
S31508002780042B0132F7D00348F8E70348F6E7034875
S31508002790F4E700BF0EE000F021E000F024E000F0CE
S315080027A008B519F011FA014B186008BD442A002033
S315080027B0014B186819F00CBA442A002038B50546AA
S315080027C0B0B1B9B1B2B1B2F5006F13DC19F003FAC2
S315080027D095F84C3003F0FF041BB119F002FA0648CD
S315080027E038BD012385F84C3019F0FBF92046F7E788
S315080027F00248F5E70248F3E7032000F0012000F05D
S31508002800022000F02DE9F04F1E46002387B080F81D
S315080028105430109B0446436390F85C3089469246D0
S31508002820C663002B38D14FF4406305686B61436972
S31508002830092B03D905F12C08443506E00BBF05F131
S31508002840200805F1240838353C3567694FF0010B37
S31508002850082F94BF00270127204619F074F9134B57
S315080028605246CDE90273216B4346A06A0494019649
S31508002870CDF800B019F054F800232A46CDE9033301
S31508002880CDE901674B46E16A606ACDF800B019F0F8
S315080028902DF807B0BDE8F08F012BFAD1006819F0C2
S315080028A093F8256805F13C08C6E700BF09BB01088F
S315080028B02DE9F04716460022436390F85C3004463B
S315080028C0894686B080F85420C663002B38D14FF469
S315080028D0406305686B614369092B03D905F12C0828
S315080028E0443506E00BBF05F1200805F12408383504
S315080028F03C3567694FF0000A082F94BF0027012767
S31508002900204619F020F9134B216BCDE9027304F127
S3150800291038024346A06A04940196CDF800A018F040
S31508002920FFFF01232A460093CDE903AA4B46CDE9CA
S315080029300167E16A606A18F0D9FF06B0BDE8F0875A
S31508002940012BFAD1006819F03FF8256805F13C0813
S31508002950C6E700BF09BB010801292DE9F84321D8BC
S315080029601F4B204E1C68204FDFF88080803C14F1F6
S31508002970800F01D1BDE8F883D4F800900521B14550
S315080029800CBF3D464546484619F06EF919F01CF944
S315080029902B6843F018032B6019F01AF9D4F8804015
S315080029A0803CE4E702390129E4D80D4B0D4E1C683A
S315080029B00D4FDFF83880803C14F1800FDAD0236899
S315080029C0B3420CBF3D46454619F0FEF82B6823F086
S315080029D018032B6019F0FCF8D4F88040803CEBE72C
S315080029E0F82A00200000045A8CC403506CC4035013
S315080029F02DE9F0436A4BD1F800908FB0994505460A
S31508002A000C460DF1180840F0E5804746654ECDF8AE
S31508002A1014800FCE0FC796E80F00103687E80F0010
S31508002A200FCE01AF0FC7002D00F0B780842200211A
S31508002A30284621F050F923684B4510D05A4E5B4B77
S31508002A401B681BB95A495B4803F04EFA574805F10B
S31508002A50800118F047FF30460FB0BDE8F0835422D6
S31508002A602B6001232A6527464FF48812DFF860E1B8
S31508002A7085F85C302E1DC5E90BE20FCF0FC697E827
S31508002A800F0086E80F00637E012B08BF8DF81D3006
S31508002A90A37E23B1012B69D104238DF81230227E3F
S31508002AA0E368012A69D1444A93429CBF05238DF8FD
S31508002AB0353000238DF81130404B01213A2003931D
S31508002AC000F066FB0121286D00F062FB2369DA1F1E
S31508002AD0092AB3D8063B8DF81030237E2BB9E37E3E
S31508002AE0B3FA83F35B098DF81C300121284618F0E8
S31508002AF076FF06460028A2D1237A227942EA0342C3
S31508002B002F4BC3F8A424617A627942EA0142C3F8DA
S31508002B109C24A17AA27942EA0142C3F8A024E27E63
S31508002B20002A40F03181E17AE27942EA0142C3F8AB
S31508002B3090241D22C3F88C24206801A901F0C6F947
S31508002B4019F049F81F4B1A78DAB901221A7019F0E8
S31508002B5048F803F0C7FDFFF7D5FC002105F124006E
S31508002B60FFF7A0FC014678B1174E68E7022B94D010
S31508002B70032B7FF463AF06238FE700228DF83420FA
S31508002B809BE719F02EF8E6E705F12800FFF78AFC1F
S31508002B90064600283FF453AFE6E70C4E4FE700BF62
S31508002BA00000045AC8490208022000F0F82A00204A
S31508002BB01C0B0020FC2A00203F4B4C0040420F0013
S31508002BC000C0035063370020092000F0012000F000
S31508002BD00100110046466D4F0FCF0FC697E8070054
S31508002BE086E80700002D00F0CD80842200212846C3
S31508002BF021F071F82368664A934240F090802822B3
S31508002C002A654FF480220026624FC5E90B722F46CB
S31508002C10A44647F8043BBCE80F000FC79CE80F0022
S31508002C2087E80F00637E012B08BF8DF82630A37E48
S31508002C3033B1012B40F081804FF40073ADF8283092
S31508002C40237E0121012B03BF00238DF825304FF485
S31508002C50E133E3683A20089300F09AFA0121286DD7
S31508002C6000F096FA23691A1F0C2A5BD8033B4146E3
S31508002C7020688DF8243001F0C3FBA36923F47F0391
S31508002C8023F47F4323B92A68936843F48033936017
S31508002C90227A2379607943EA0243627AA17940EA83
S31508002CA00240A27A94F81BC041EA02413A4A7701E7
S31508002CB03A4436B2BCF1000F49D11D277601C2F855
S31508002CC03476C2F84C3606F1A04303F57033C3F8E0
S31508002CD04406C3F84816E17AE37943EA0143C2F8A1
S31508002CE038360121284618F07AFE064600287FF471
S31508002CF0B2AE18F070FF294B1A78BABB01221A70C7
S31508002D0018F06FFF03F0EEFCFFF7FCFB002105F15E
S31508002D102400FFF7C7FB014658B3214E9BE6214A1C
S31508002D20934201D0204E96E629222A654FF4A02226
S31508002D301E480126C5E90B0269E7022B02D14FF4AA
S31508002D4080737BE7032BEDD14FF4407376E71C24A1
S31508002D507601C2F83446C2F84C3606F1A04303F5AC
S31508002D607033C3F84406C3F84816BAE718F039FFB3
S31508002D70CAE705F12800FFF795FB064600283FF449
S31508002D806AAECAE70A4E66E61C22D3E6FC49020882
S31508002D9000C005500200040000C00350633700203D
S31508002DA0092000F000000650022000F0020005008D
S31508002DB0012000F07FB51546027F0446012A0E461B
S31508002DC013D01A460393FFF7F9FC60B97DB1094A97
S31508002DD031462046039B00922A46FFF713FD2046FC
S31508002DE018F068FEA06C04B070BD0348FBE7034802
S31508002DF0F9E700BFBFB90108082000F0022000F07B
S31508002E0070B5037F0446012B0D4616460DD0FFF715
S31508002E10D5FC48B9324629462046054BFFF748FDFA
S31508002E20204618F047FEA06C70BD0248FCE700BFBC
S31508002E30BFB90108082000F0044BD3F88420D20655
S31508002E40FBD4D3F88400C0F38110704700400050CB
S31508002E5038B5104B0546D3F820310C4603F003036A
S31508002E60022B0BD0032B0DD0012B0FD1FFF7F6F950
S31508002E70052305B1286004B1236038BDFFF724FA9D
S31508002E800323F6E7FFF736FA0223F2E701230020C9
S31508002E90EFE700BF0080005073B50D4600210E4BCA
S31508002EA00191D3F88041064604F00304012C09D0A9
S31508002EB0022C0CD00C460EB1019B336005B12C6078
S31508002EC002B070BD01A8FFF7C3FF0F24F3E7FFF7B1
S31508002ED011FA0190EFE700BF0080005038B5184B93
S31508002EE00546D3F824010C4600F00700062805D845
S31508002EF0DFE800F0230B131B1F0F170000231846EB
S31508002F0005B1286004B1236038BDFFF7A7F905238A
S31508002F10F6E7FFF7A3F90623F2E7FFF7D5F9032348
S31508002F20EEE7FFF7D1F90423EAE7FFF7E3F902230F
S31508002F30E6E718F0CCFC0723E2E70123E0E700BF49
S31508002F400080005038B5104B0546D3F840310C4682
S31508002F5003F00303022B0BD0032B0DD0012B0FD14B
S31508002F6018F0B7FC092305B1286004B1236038BD01
S31508002F70FFF7C4F90823F6E718F0AEFC0B23F2E7CF
S31508002F8001230020EFE700BF0080005037B50C464C
S31508002F900021124B0191D3F88432054603F003034E
S31508002FA0022B0ED0032B11D0012B14D101A8FFF749
S31508002FB04FFF0F230DB1019A2A6004B1236003B0B5
S31508002FC030BD01A8FFF7BEFF1023F3E7FFF792F91C
S31508002FD002230190EEE70123ECE700BF00800050D2
S31508002FE038B5144B0546D3F800020C4600F0070026
S31508002FF0042804D8DFE800F01B0A0E121600002386
S31508003000184605B1286004B1236038BD18F061FC84
S315080030100923F6E7FFF772F90823F2E718F05CFCD4
S315080030200B23EEE7FFF73AF90E23800AE9E70123B7
S31508003030E7E700BF0080005038B5104B0546D3F8C7
S3150800304040320C4603F00303022B0BD0032B0DD0A2
S31508003050012B0FD118F03DFC092305B1286004B1F6
S31508003060236038BDFFF74AF90823F6E718F034FC61
S315080030700B23F2E700231846EFE700BF0080005055
S3150800308038B5104B0546D3F860310C4603F00303F8
S31508003090022B0BD0032B0DD0012B0FD118F019FCE6
S315080030A0092305B1286004B1236038BDFFF726F966
S315080030B00823F6E718F010FC0B23F2E7012300209B
S315080030C0EFE700BF0080005038B50C46054618F0FB
S315080030D07BFD064B9A6A82EA040101EA050454401C
S315080030E09C62BDE8384018F073BD00BF00C00050B0
S315080030F0B0F5207F1FD009D8B0F5007F15D003D8CA
S3150800310068B1B0F5C07F0AD000200CE0B0F5607F4A
S31508003110FAD10B4BD3F88000C0F3011003E0084B3B
S31508003120186FC0F3033001307047054BD3F8900091
S31508003130C0F30460F7E7024B186FC0F38020F2E78C
S31508003140008000504FF400320E4B014610B50020A7
S315080031509A66FFF7CDFF41F6713248430A490B4B91
S3150800316088428CBF4FF480100020DC69DA635A6805
S3150800317022F4401202435A60E20344BF0022DA6393
S3150800318010BD00BF00900050005A620200000350B4
S31508003190420910B510D0012A10D00B4B0B4C022A4D
S315080031A018BF234600F01F0051B103F580530122D2
S315080031B002FA00F0186010BD1346F3E7044BF1E776
S315080031C003F50053F3E700BF6880005060820050A3
S315080031D0648000501FB5002280280446019200F042
S315080031E00C8100F2BF803F2836D9A0F14D04142C7B
S315080031F002D9019804B010BD142CFAD801A353F8CB
S3150800320024F000BF83330008F33100088333000835
S31508003210833300088333000847340008A1330008C5
S3150800322051340008F3310008F3310008F33100087F
S31508003230F3310008F3310008F3310008F3310008D0
S315080032409B340008F3310008F3310008F331000815
S3150800325083330008833300083F28CAD801A353F8EC
S3150800326020F000BF83330008F3310008F33100086B
S31508003270F3310008F3310008F3310008F331000890
S31508003280F3310008F3310008F3310008F331000880
S31508003290F3310008F3310008F3310008F331000870
S315080032A0F3310008F3310008F3310008F331000860
S315080032B0F3310008F3310008F3310008F331000850
S315080032C0F3310008F3310008F3310008F331000840
S315080032D0F3310008F3310008F3310008F331000830
S315080032E0F3310008833300081534000883330008D7
S315080032F015340008473400084734000847340008E6
S315080033004734000815340008153400085B340008F3
S31508003310A133000887340008F1330008A1330008F8
S31508003320153400081534000815340008F331000870
S31508003330F3310008F3310008F3310008F3310008CF
S31508003340F3310008F3310008D333000815340008B8
S3150800335015340008153400089B3400089134000819
S3150800336015340008B0F5806F6DD024D8B0F5007F0D
S3150800337047D009D8B0F5807F74D0B0F5C07F7FF408
S3150800338038AFFEF78BFF3AE0B0F5607F48D03FF6DE
S3150800339030AFB0F5207F3DD0B0F5407F7FF429AF40
S315080033A0FEF77CFF02464FF42070FFF7A1FEB2FB42
S315080033B0F0F0400823E0B0F5C06F64D00ED8B0F541
S315080033C0A06F45D0B0F5B06F47D0B0F5906F7FF4D9
S315080033D010AF002101A8FFF781FD0AE7B0F5E06FFD
S315080033E056D0B0F5F06F58D0B0F5D06F7FF401AF76
S315080033F0002101A8FFF7F4FDFBE6FEF735FF019073
S31508003400F7E6FEF731FF02462046FFF771FEB2FBEC
S31508003410F0F0F4E7FEF742FF02464FF42070F4E7B7
S31508003420204BD3F8803003F00303012B04D0022B82
S3150800343006D04FF46070E8E7FEF716FF0246F8E795
S31508003440FEF70CFFFAE7002101A8FFF701FDD0E619
S31508003450002101A8FFF79AFDCBE6002101A8FFF796
S315080034601BFDC6E64FF0E02302921B695B0705D5F4
S31508003470FEF714FF0290029B0193BAE603A902A87D
S31508003480FFF760FDF7E7002101A8FFF75BFDB0E64F
S31508003490002101A8FFF7D0FDABE6002101A8FFF740
S315080034A0EFFDA6E60080005008B58020FFF792FEE3
S315080034B0034B98429EBF4FF48032024B1A6708BDF1
S315080034C0005A620200A000501FB50023B0F5607FC5
S315080034D0019300F0A88036D8522800F08B8016D8C1
S315080034E02D280BD823280ED9243809280BD8DFE82D
S315080034F000F0818181810A0A7C0A438B3D280ED01F
S315080035003E2800F0A680019805B05DF804FB8028E7
S3150800351053D009D8542800F097805C28F3D10020AE
S3150800352001A9FFF7ADFDEEE7B0F5807FEBD1029379
S315080035304FF0E0231B695B0761D5FEF7AFFE0C234E
S315080035400393039B4DE0B0F5D06F5DD019D8B0F565
S31508003550A06F79D00AD8B0F5806F4BD0B0F5906FD0
S31508003560D1D1002001A9FFF7B9FCCCE7B0F5B06FBF
S315080035703BD0B0F5C06FC6D1002001A9FFF7E2FC29
S31508003580C1E7B0F5006FECD005D8B0F5E06F60D0B4
S31508003590B0F5F06FC2E7B0F5086FB4D12F4BD3F88A
S315080035A0003103F00303022B33D0032B35D0012B54
S315080035B037D1FEF789FE032313E0284B1B6F03F070
S315080035C00703013B032B9ED801A252F823F000BF44
S315080035D0E7350008E1350008B73500081F3600084A
S315080035E0052301938FE70223FBE7002001A9FFF7D4
S315080035F053FC88E7002001A9FFF72AFC83E703A903
S3150800360002A8FFF79FFC9CE7002001A9FFF7E8FC4A
S3150800361079E7FEF773FE0823E3E718F058F907235E
S31508003620DFE70123DDE70D4AD2F8802002F0030226
S31508003630012A05D0022AD4D1FEF710FE0623D0E7C8
S31508003640FEF712FE0D23CCE7002001A9FFF79EFC2A
S3150800365059E7002001A9FFF7EFFC54E70080005066
S315080036604FF40022034B5A66012203F580439A62FF
S31508003670704700BF0090005008B5FFF725FF0828DF
S3150800368011D00938012811D84FF40012094B4FF60A
S31508003690FF705A6603F5D8335B6A13F0010F18BF3B
S315080036A04FF4FA7008BD044B1888FBE74FF6FF7015
S315080036B0F8E700BF00900050D80E002070B5044609
S315080036C08020FFF701FF032800F082804FF40022D4
S315080036D0444B02215A6645F60E03434AC2F8803027
S315080036E0424B9962012103F580539962936DD90380
S315080036F0FCD4D4E900131B0543EA0163E17B94F883
S3150800370022500B43217B94F8236043EA0143617BF3
S3150800371043EA0133A17B43EA811313619169D4E932
S3150800372004031B0643EA806301F000410B43A17EB4
S31508003730E07E0B43217E43EA0143617E43EA01238F
S315080037409361E369126A002B0CBF0021082122F05D
S315080037500D0242EA030242EA8002234B42EA0102D0
S315080037601A6294F820204FEA421232D1986A94F8E5
S31508003770211020F0330042EA0112024342F001020E
S315080037809A621B4A996D32EA0101FBD10222174956
S315080037908A621A659A6D5200FCD41869A26820F4E8
S315080037A0700040EA02504FF0004218610F4B9A61D0
S315080037B01DB9022203F580539A6216B901220D4BF0
S315080037C09A6294F824301BB1074B0B4AC3F8802041
S315080037D070BD996A21F0330131430A4342EA450232
S315080037E0EEE700BF0090005000C0005000D0005027
S315080037F00300014000E00050F1A7FFFF1E4B13B580
S31508003800996A9A6D12F4803F18BF01241B4A18BFA3
S315080038109462022494629B6DDB0303D5164A936D6A
S315080038209C07FCD50222154B134C1A65A36D5B0049
S31508003830FCD4134BA26993F9003022F47F020344A7
S31508003840000222F47F4280B283F30803104340EA61
S315080038500340A06102200191FFF736FCA36D019990
S3150800386013F4803F05D0012002B0BDE81040FFF7F1
S315080038702BBC02B010BD00BF00C0005000D00050E5
S3150800388064370020014B93F9000070476437002025
S3150800389001221548154B816A9A62826D02F003026D
S315080038A0032AFAD102229A621A650F4B9A6D5200C0
S315080038B0FCD40F4A986D32EA0000FBD101220B4B6B
S315080038C01A65A3F580539A6D9007FCD49A6D9207F2
S315080038D0FCD50222054B1A65034A936D9B07FCD556
S315080038E00320FFF7F1BB00BF00C0005000D0005016
S315080038F003000100F0B5D0E901434FF480061A4AE7
S315080039004178057856664FF4D156022702F5B83243
S315080039105662164E4F2977604FF0010728BF4F2190
S3150800392006F5805677601669F603FCD441EA052148
S3150800393051611B01417B43EA04230B43017B43EAA4
S3150800394041039360C37B817B1B0143EA4113417C9E
S315080039500B43017C43EA41035360837C13B16FF444
S31508003960D1535362F0BD00BF0090005000100250C2
S31508003970014B1880704700BFD80E0020014B1880F5
S31508003980704700BFD60E0020B0F5207F10B50C4654
S3150800399057D008D8B0F5007F48D003D830B3B0F573
S315080039A0C07F23D010BDB0F5607FFBD129492A48D6
S315080039B0D1F8FC2012F080721EBFD1F8FC3023F03B
S315080039C08073C1F8FC30D0F88030611E23F03004D3
S315080039D044EA0114C0F88040002AE3D01D4AD2F810
S315080039E0FC3043F08073C2F8FC30DBE718F0C4F80B
S315080039F018F0D0F84FF48031184B174A1967136F2F
S31508003A00611E23F4704444EA01341467FEF746FC49
S31508003A100446FFF711FAC0F10201204618F0B4F87F
S31508003A2000F02EF8BDE81040FFF73EBD0A4A0139FE
S31508003A30D2F8903023F0F85444EA0164C2F8904072
S31508003A40B0E7054B013C196F21F4806141EA8424F3
S31508003A501C67A7E700ED00E00080005000900050CA
S31508003A6008B50121022000F0B3F818F085F818F01F
S31508003A7091F84FF48032014B1A6708BD0090005048
S31508003A8008B54FF4C070FFF7A5FBBDE80840044928
S31508003A9088428CBF022101214FF42070FFF774BFC2
S31508003AA080F0FA020028ABBF00F16040054B00F534
S31508003AB0614000F00F00ACBF90F80003185C0009E5
S31508003AC0704700BF14ED00E0034B5868C0F30800C8
S31508003AD0003818BF0120704700ED00E0054B420989
S31508003AE053F8223000F01F0023FA00F0C04300F01C
S31508003AF00100704700E100E0014608B5EFF31083C6
S31508003B00DB0702D50122104608BDFFF7E7FF02468C
S31508003B100028F7D10846FFF7C5FF0146EFF31183E2
S31508003B2013B1B0EB131FEDD2074B5B68C3F3080361
S31508003B30002BE8D0103B58B2FFF7B4FF88428CBF81
S31508003B4000220122DFE700BF00ED00E0044A4178C9
S31508003B50536F23F4407343EA01235367704700BF4A
S31508003B60004000500A4A10B51369044643F004039E
S31508003B70136102F0D7FB18F037F830BF18F035F8A4
S31508003B8002F0F2FB1CB9BDE81040FEF787BB10BD7A
S31508003B9000ED00E0084A10B51369044643F0040333
S31508003BA0136102F0BFFB30BF02F0DEFB1CB9BDE8B3
S31508003BB01040FEF773BB10BD00ED00E0034A017923
S31508003BC0D36E23F030030B43D36670470040005092
S31508003BD0F8B504461C4BD3F88420D106FBD4D3F899
S31508003BE08430C3F381139C422CD0FEF73DFB012C95
S31508003BF0064602D1214617F0C7FF17F0E5FF4FF03A
S31508003C000072124B07465A66204617F0F1FF4FF42A
S31508003C1080630D4D621E93402B676B6E9A0103D429
S31508003C20D5F884309B060AD5384617F0D1FF022C02
S31508003C3008D13046BDE8F840002117F0A5BFD5F8F1
S31508003C408430EAE7F8BD00BF00400050006000502D
S31508003C5007B518B90191FEF707FB0199064B1B78C2
S31508003C6043B1064B984205D8012003B05DF804EB32
S31508003C70FFF7AEBF0220F8E765370020005A620258
S31508003C800278034B012100201A70FFF7E1BF00BF3D
S31508003C90653700204FF0004238B5254B5A664AF67C
S31508003CA0CD33244AD2F89440C2F8903004F0010487
S31508003CB048BB136C13F00103FBD15268D20709D431
S31508003CC000251CB11B4B1C4AC3F890201FF097FB1C
S31508003CD0284638BD0121194A51601649184AC86B49
S31508003CE0C50705D4934201D10725EAE70133F6E76C
S31508003CF09342E5D1F8E70131D36B13F0080305D0F9
S31508003D008142F8D1F0E700210D48F5E78142EBD072
S31508003D1020210A4A51630121A2F5805251600549C2
S31508003D20074A486B8006E3D49342DDD00133F8E7AF
S31508003D3000900050004009503254FFFF00600950BF
S31508003D4040420F004FF0004238B5184B184C5A66DF
S31508003D504AF6CD33D4F89450C4F890304378154ACF
S31508003D605B0043F0010305F00105D363236CDB0711
S31508003D70FCD46368827823F0700343EA0213636015
S31508003D80C278437943EA0223E3600279837943EAF6
S31508003D90022323610078FFF77DFF15B1064BC4F8AF
S31508003DA090301FF02CFB012038BD00BF009000505A
S31508003DB000400950004000503254FFFF10B517F07C
S31508003DC01CFF202341F2020203610023C3608360C3
S31508003DD042614FF4A02207498361426200F500520E
S31508003DE0C36103628362C36243630365D164036389
S31508003DF010BD00BFFF3F0D03F8B50546144639B997
S31508003E00304B984214BF08465420FFF7E3F90146A1
S31508003E10AB68D8072CD5B1FBF4F16E684C1E16F0CA
S31508003E20010623D02821284617F0E3FEAB6C9A0733
S31508003E3018D1AB6CDB0717D4AB6C13F0020F0CBFB1
S31508003E4000270627284617F0D8FE286920F07F4065
S31508003E5040EA04642C61AEB139462846BDE8F8400C
S31508003E6017F002BF0527EDE70927EBE73746ECE72A
S31508003E706B68A86800F0E00040281BD003D8D8B1CA
S31508003E8020281BD0F8BD60281AD08028FAD1012333
S31508003E9004FB03F24901B1FBF2F10B4A203928462B
S31508003EA002EAC102012117F0A4FE2A63BDE8F84020
S31508003EB017F09FBE0623EBE71023E9E70823E7E799
S31508003EC00423E5E70000045AF8FF7F00436870B54D
S31508003ED004460D460E691BB140F6FF7117F089FEC0
S31508003EE02046FFF76BFF22696B7BA97B22F08702CE
S31508003EF00B43134343F08003236116B32A692369EE
S31508003F00117823F0F8030B43117F43EAC1131179A3
S31508003F1043EA4113517A43EA0113D17B43EA8113F9
S31508003F202361E168D2E9053021F0F04121F47021DE
S31508003F3003430B43117B527B43EA812343EAC23393
S31508003F40E360A368EA7B23F00303134343F001030A
S31508003F50A3602EB32A69A168538803F4C0430B43B0
S31508003F60A3605179A36843EA8123A3609379D07942
S31508003F70616A1B01000203F0700300F4E06021F49B
S31508003F80772121F4EE6103430B43117A527F09032B
S31508003F9001F4E04112040B4302F4702213436362F6
S31508003FA063692A7B23F00F0313436361B6B12B6958
S31508003FB05A89A2615A7B3AB1134A944201BF9A7B45
S31508003FC0124902F00F024A66DA7B3AB10E4A944267
S31508003FD001BF1B7C0D4A03F00F031366D5E90112D6
S31508003FE02046FFF709FF0521204617F020FE282165
S31508003FF017F0FFFD2B78A36317F0FBFDA36CDB43DB
S3150800400013F4405FFAD170BD0000045A00900350C3
S31508004010072AF7B501F0030614461F464FF00301B9
S315080040202CD89500A94000FA05F21C48019117F012
S3150800403020FE01991A4806FA05F217F01AFE194BDE
S3150800404019499DF82000002F08BF1946012303FAD5
S3150800405004F40C60154B1649002808BF0B461C6073
S31508004060144B9DF82400C3F820441031A3F6DC3322
S31508004070002808BF0B461C6003B0F0BDA2F1080576
S31508004080AD00A94000FA05F20B48019117F0F1FDC1
S3150800409001990A4806FA05F2CFE700BF00C40350A3
S315080040A008C4035010E4035010D4035014D403502A
S315080040B014E4035000E0035004C403500CC4035036
S315080040C02DE9F04105460F461E4690464AB10123A2
S315080040D03022194C8B4002FB00443EB304F582544F
S315080040E023600F21072F05EB450388BFA7F10804B6
S315080040F04FEA0313114895BFBC00A40004330C33E0
S3150800410008FA04F2A140184417F0B3FDB8F1000FFD
S315080041100AD101213020084A01FA07F700FB0522D7
S315080041203EB102F582521760BDE8F08104F50154EC
S31508004130D6E702F50152F6E700C0035030C0035037
S3150800414010B5012104462020FFF722F8012121207D
S31508004150FFF71EF80122114B5A60227812069A6060
S315080041606178A27842EA01429A61FF229A620022A5
S315080041709A631A644FF000425A654FF0FF324FF0C7
S31508004180806103F500531A65054AC2F88011E37881
S315080041901B01DBB282F81A33116010BD000004500F
S315080041A000E100E02DE9F0410125C3B2D1F8008015
S315080041B091F80AC00F7B91F80DE09D400C46CB7A2A
S315080041C01C491D4E0D65810001F1A04101F58821AC
S315080041D0C1F80480302101FB00601B0543EA0C434B
S315080041E043EA475322F00302C0F860E0C36502675A
S315080041F017F0F1FC736D2B437365237A13B1336C97
S315080042002B433364637A13B1B36B2B43B3632279BD
S31508004210A37943EA0243074A93616179E37943EA5A
S31508004220014306498B61044B55639D64BDE8F04123
S3150800423017F0D7BC002004500000045000100450AA
S315080042404FF40032054B9A6641F6713203F51C337A
S31508004250DA63012203F50053DA60704700900050D4
S3150800426041F671320121064BDA6303F50052D1603B
S315080042700022DA634FF40032A3F518339A667047C2
S3150800428000000350CB784A7810B55B010C7843EAF6
S3150800429082030A79234343EA02130C22424302F1BA
S315080042A0B0421363012C02BF8A78024B43F82020E0
S315080042B010BD00BFEC80035008B54FF0B0435A68F4
S315080042C002B960B15B680BB117F0E4FC4FF0B0417E
S315080042D030B10120074B586017F0DCFCC86008BDF8
S315080042E017F0D8FC0223CB6017F0D4FC0122024B4E
S315080042F05A60F4E700100058002000584FF0B04309
S315080043005B6870B50BB117F0C5FC0121104B4578F9
S31508004310596083780679002BC37814BF02240024D9
S31508004320002B14BF042200224379DB0043EA06135C
S315080043302B43234313434FF0B0429360054B596018
S315080043400378002B14BF0B460223D36070BD00BF51
S3150800435000200058001000584FF48032084B5A6667
S3150800436003F5E6235B69C3F3461203F00F010A431C
S315080043704280C3F30342C3F30333427003707047AA
S3150800438000900050014B986CD96C70470080E00F84
S315080043900120034B9B680A3303F01F0398407047BC
S315080043A00080E00F012200F5805310B55A6040F6F0
S315080043B0AA6341F20502436100230E498360C3657F
S315080043C0C26000F500520361C361C36491640A497F
S315080043D08365884202D0094CA04207D1884203650A
S315080043E002D0064B984201D100234365012353604E
S315080043F010BD00BFFFFF010000C0055000000650B9
S3150800440038B50D46FFF7CEFF0122A97B00F580538C
S315080044105A602A8A8368002914BF4FF480610021F4
S3150800442042F0010213432A7D0B43002A14BF4FF0C2
S315080044300052002283608368044613438360AB7C82
S315080044405BB11D4AEB7C90422DD1A2F51032C2F821
S315080044509031E36D43F08003E3652B7B2046D5E975
S31508004460011243F48053E36017F01CFC6B7B0BB11D
S31508004470102363616B7D1BB1A36843F48033A3608B
S31508004480AB7D1BB1A36843F40043A360EB7D2A7E92
S315080044901B07120503F0E04302F4E0021343A36589
S315080044A02B78636138BD054A904204BFA2F52032D5
S315080044B0C2F8AC31CDE700BF00C005500000065079
S315080044C038B50446054D1EF0C0FF0FCC0FC594E85D
S315080044D0030085E80300002038BD00BF042B002038
S315080044E047F6FF739A42F0B566D0012966D8344D6F
S315080044F0CF0015F8313005EBC100012B847813D1B4
S315080045000025C3781B1B9D4202D3E018C0B2F0BD3C
S31508004510591B4668A3EB510136F911609642D4BF80
S315080045200D4601F1FF33EEE740680028EFD0B0F9F9
S315080045300030934204DBB0F902309342B8BF134609
S3150800454082883D44FF2A19BFC8214FF0280CB0F9CC
S315080045500610B0F908C0A1EB03020CBF012600261D
S3150800456092FBFCF26D78324412B2954201DD002AC4
S3150800457001DA6A1E12B24FF47A7700EBC206F188A6
S31508004580B668013213FB016112B221EAE1715C31AE
S315080045909542B1FBF7F104DD00EBC206B6888E4200
S315080045A0EBD200EBC20232F8040C884228BF084658
S315080045B0A04238BF2046A9E7FF20A8E70020A6E7C3
S315080045C0042B00200129F0B553D82B4800EBC10471
S315080045D010F83110636801290FD1E078A478904269
S315080045E094BFC4EB0001C4EB0201001BCAB28242AD
S315080045F0C8BF002233F91200F0BD002B39D0A178CC
S31508004600914202D3B3F90200F6E7E178B3F9000064
S315080046109142F1D999886478A1F1FF06013C71426B
S3150800462003F10405E4B2714103F10C071FFA82FC99
S31508004630CEB2B44216D805EBC1014FF47A756A4377
S31508004640B1F902404968521A04EBD47102EB6102CF
S3150800465092FBF4F29042CFDBB3F902009042CBDC36
S3150800466010B2C9E737F831E04E1CE645E3D33146C8
S31508004670DEE70248C0E700BF042B00200080FFFFEA
S3150800468008B50448FFF71CFFBDE8084001201EF0E6
S31508004690E0BE00BF184A020800487047DA0E00203C
S315080046A07FB51422002101A81FF015FB044B01A9B0
S315080046B04FF0FF3002931EF002FF07B05DF804FBCF
S315080046C0006A180082B06B4683E80300034A93E841
S315080046D0030082E8030002B0704700BF1C2B0020CD
S315080046E01B0603F0706300F00F000902034301F490
S315080046F07061120402F470220B431343014A1360DB
S31508004700704700BF0020025C2DE9F04717460C46AB
S3150800471088B029B10139B1F5806F01D301263FE090
S31508004720244AD66816F48036FBD140EA012122389D
S31508004730112805D8204DC540ED4315F0010533D0A5
S31508004740012541F000413A0702F08052134319430C
S31508004750184B596025BB194A03AB10685168DFF836
S3150800476060A003C30223CDE906350DF10C090DF14E
S315080047701408CDF8149098E80E00DAE90005A84761
S315080047800221484617F08AFC0028F2D00F22E31CC3
S31508004790009223F0030398E8070047B117F09EFA42
S315080047A0304608B0BDE8F08741F00341CBE717F083
S315080047B0F8FAF5E70020025C014802009C4A020864
S315080047C01C2B00200122054B9A60DA68D203FCD420
S315080047D0D86820F00F000004000C70470020025C27
S315080047E0014B1868704700BF0040025C014B5868CF
S315080047F0704700BF0010025C014B186B704700BF82
S315080048000010025C014B1868704700BF0010025C7C
S31508004810014B9860704700BF0010025C014B18649A
S31508004820704700BF0010025C014B5864704700BF18
S315080048300010025C014B5863704700BF0010025C11
S315080048400022014B1A6070470010025C024A136886
S3150800485043F00103136070470010025C43F2040240
S31508004860014B1A60704700BF0010025C024A1368C9
S3150800487043F03003136070470010025C044B1A685B
S3150800488042F480721A601A6822F480721A607047BD
S315080048900010025C024A136843F480631360704791
S315080048A00010025C034A136823F4702343EA0040AD
S315080048B0106070470010025C044B1A6902605A695E
S315080048C042609A698260DB69C36070470010025CC7
S315080048D00268044B1A6142685A6182689A61C26822
S315080048E0DA6170470010025C024B1A6BD207FCD4DF
S315080048F0186270470010025C024B186B00F00E003D
S31508004900704700BF0010025C82B01FB507930A9B70
S3150800491004AC8B4228BF0B4604E907001048D100B7
S31508004920079948BF03330160099948BF23F0030379
S3150800493023F0704301F0E041194341F000518160D2
S31508004940002102F0E042019C134343F00053C1608A
S3150800495004618361416304B0BDE8104002B070474A
S315080049600000025C3F22034B1A631022DA6103221D
S315080049709A6370470000025C024AD36B9B07FCD41B
S31508004980704700BF0000025C034B986A10F02400D1
S3150800499018BF0420704700BF0000025C08B5FFF787
S315080049A0F3FF064BDB6B23F47F4323F0EF0303434C
S315080049B01EBF0122024BC3F8FC2F08BD0000025C93
S315080049C000F0FF3F032208B5054B186019615A63CA
S315080049D0FFF7C8FFFFF7D0FFBDE80840FFF7DEBFC7
S315080049E00000025C42680346182A10B50AD0202A3D
S315080049F01DD0102A2BD1174AD2F80424D4010AD480
S31508004A00012013E0134AD2F804249001F8D50A6865
S31508004A1042F008020A6010481A6882424FF0000005
S31508004A200ED10A6842F040020A60586010BD094A71
S31508004A30D2F804245201E3D50A6842F00402E9E7F1
S31508004A40064CA242F2D10A6842F08002ECE707203F
S31508004A50ECE700BF0000025C6637002067370020DD
S31508004A6013B5084CD4F80444E40508D50093134656
S31508004A700A460146002000F01BF802B010BD0120CE
S31508004A80FBE700BF0000025C13B5084CD4F80444E9
S31508004A90E40508D5009313460A460146002000F0AF
S31508004AA02BF802B010BD0120FBE700BF0000025C36
S31508004AB0F0B516465A688DB0102A0D46129F15D1C4
S31508004AC07A68102A12D10A4A09AC07CA84E807008C
S31508004AD022462946CDE90547CDE90344CDE90144F7
S31508004AE00448009617F0FEF90DB0F0BD0720FBE765
S31508004AF0A84A020830000100F0B516465A688DB07B
S31508004B00102A0D46129F15D17A68102A12D10A4A20
S31508004B1009AC07CA84E8070022462946CDE9057488
S31508004B20CDE90344CDE901440448009617F0DAF9C3
S31508004B300DB0F0BD0720FBE7A84A020810000100E7
S31508004B4070B598B0002843D02C4C08AD0FCC0FC5D3
S31508004B500FCC0FC50FCC0FC594E80F0085E80F00E2
S31508004B606D4604AE04F1100320340FCB85E80F0020
S31508004B7094E80F0086E80F00FFF780FE0420FFF791
S31508004B8091FEFFF76BFE3046FFF7A2FE002408AE43
S31508004B9056F8040B0134FFF7A7FE102CF8D1FFF7DF
S31508004BA025FE0328FBD90024FFF74AFE2646FFF711
S31508004BB017FE55F8043B01365840042E44EA000413
S31508004BC0F5D12CB1012206200D4B1A7018B070BD14
S31508004BD0FFF754FE0820FFF71BFE0020FFF71EFE16
S31508004BE00720FFF721FE4FF40070FFF723FE082089
S31508004BF0FFF758FEFFF72AFE0020E7E7884B020872
S31508004C006937002008B5FFF739FE0122014B1A70F3
S31508004C1008BD00BF6837002030B589B005AC84E808
S31508004C200700FFF7E9FDC30501D5FFF7EBFF0A4DBE
S31508004C302B781BB117F0C9FA00232B70074B069A7D
S31508004C40D3E901018DE8030002921B6894E8070086
S31508004C5017F037FA09B030BD68370020E84B02086C
S31508004C601FB517F0B2FA044630B1012206240D4BDF
S31508004C701A70204604B010BDFFF7B2FD0090FFF78A
S31508004C80AFFD0190FFF7ACFD0290FFF7A9FD039079
S31508004C906846FFF71DFEFFF7B5FFFFF7E7FDFFF7CD
S31508004CA0F9FDE6E76937002005289ABF014B185C2D
S31508004CB000207047F44B020830B5154B87B00293B5
S31508004CC0144B0390049346F611030D46059300F022
S31508004CD06DF91428044616D1684617F04AFB4FF0BA
S31508004CE0A843032202A95A6319601D619A63DA6B05
S31508004CF09207FCD1142C02D1684617F048FB00F045
S31508004D0089F9044601E00028E9D0204607B030BDFD
S31508004D10242B0020040000202DE9F04FB1B00546F1
S31508004D208C46E9466E4F3B9EDDF8F8E0409C07F15D
S31508004D30100AC846386879680837A8E8030057454E
S31508004D40C146F6D10EEB0208C8F1000909F00F09B1
S31508004D50002E00F0AF80774207F00F070121DDF83B
S31508004D60FCB0C4F1100ACDF810B0059144F000511A
S31508004D7006914FEA0A2101F4F85141F02101079101
S31508004D8006B96B460893002D40F09680002C00F07B
S31508004D90938004AB0993002E00F0908046F00053F0
S31508004DA00A93002D40F08D80002C14BF0123212387
S31508004DB043EA07230B9308A942F00053CDF830C005
S31508004DC03D980D910E934FEA092343F041030F9343
S31508004DD0109002B10CA9002A16BF00224FF000520B
S31508004DE0412342EA0E021191129213933C9B3D4ACB
S31508004DF0149310AB15933C4B0021169340F6110300
S31508004E0017933A4B002D08BF1346189314AB199302
S31508004E10374B10221A9311231B931CAB18461EF00E
S31508004E205AFF01221D924AF080421E920022034632
S31508004E30239205B9EB46102C08BF01230DF1900A01
S31508004E40102200215046CDF880B0219322941EF0FE
S31508004E5042FF002C37D020AB002125938F4218BF84
S31508004E60534647F0804226923A9A2CA88A422892BC
S31508004E70299313460CBF4FF080430B461022334349
S31508004E802B912A931EF027FFFEB95346C8442D934B
S31508004E902CA948F0804318A82E93FFF70DFF30B9C8
S31508004EA02DB90346A34212D1002818BF2C2031B0D1
S31508004EB0BDE8F08F102751E701236BE747F0005351
S31508004EC06EE7212374E70123C6E728ABDEE703F183
S31508004ED0C0026A4412F8C02C01331043E2E700BF4F
S31508004EE0FA4B02080C4C020810000020104C02086D
S31508004EF004000020F0B5C0299FB0249E4FD0B1F51C
S31508004F00807F04D0802941D029201FB0F0BD40F20F
S31508004F10344440F21445002E08BF2C46212710259C
S31508004F20019401240296039404950597259F0697F4
S31508004F3006B102AC07940124089509940A92212225
S31508004F400B940C950D92174A0AAC0E92164A0F94BA
S31508004F50109242F611021192129313941495159217
S31508004F6001AA1692CBB112AB1793042318931123F7
S31508004F70199316AB1A901B9340F61103C9081C9196
S31508004F801AA806A91D93FFF797FEBEE7002E14BFC1
S31508004F904FF486644FF48264C0E70EABE4E70F2053
S31508004FA0B3E700BF144C02081000001038B5164BC2
S31508004FB05A6E42F004025A66D3F8802242F0010281
S31508004FC0C3F88022114B5B68C3F3080343B14FF063
S31508004FD0A842D36B13F0430FFBD11424204638BDE7
S31508004FE04FF0A843DC6B14F04304FBD1084D2B6843
S31508004FF01BB90421284602F00DF92B68013343F04A
S3150800500000432B60EAE700BF0080005000ED00E097
S31508005010242B0020014B00205B68704700ED00E060
S315080050204FF40052034B00209A660322C3F860220D
S31508005030704700BF0090005008B5FFF7E3FBC307B1
S3150800504008D5FFF759FC062804D00A28F5D1FFF73A
S31508005050D9FDF2E74FF40052034B00209A6603226B
S31508005060C3F8602208BD00BF00A000504FF40052EC
S31508005070084B10B59A660322C3F8602217F095F913
S315080050800446FFF7D9FF00280CBF20466FF09200B0
S3150800509010BD00BF0090005037B5154D2B782BBBBF
S315080050A00093144B019302AB13E90300FFF70AFBC5
S315080050B04FF40052104B9A660322C3F8602217F089
S315080050C074F9044617F0A9F840F0004016F0D8FE27
S315080050D0FFF7B2FF28B1002C08BF0446204603B0EC
S315080050E030BD002CFAD101232B70F7E70024F5E731
S315080050F06A37002033C2010800900050012300F0EF
S315080051001F02A0F506200949A0F550604009934002
S3150800511051F820201A4341F82020054951F820204B
S3150800512022EA030341F82030704700BF282B0020ED
S315080051303C2B00200121A0F506230F4AA3F5506356
S315080051405B0900F01F0001FA00F052F8231008432B
S315080051500A4942F82300D1E9003003448868034429
S31508005160C868096903445B1802BFC2E90033C2E98B
S3150800517002331361704700BF3C2B0020282B002008
S315080051802DE9F04FA9B002921D46DDE932670446C3
S315080051900822CDE90301414021FA02F34B40980762
S315080051A002F1080218BF9B00202A1C44F4D181236F
S315080051B0B4FBF3F303EBC313E41A7A4B04F50624A2
S315080051C01B7804F55064002B40D1FDF79DFA014683
S315080051D020B16FF0910029B0BDE8F08F402205900C
S315080051E008A81EF078FD4022059918A81EF073FD40
S315080051F0DFF8C891DFF8C8A14B4603F10F0B102260
S3150800520008A9DAF80000CDF800B005931DF0BBFE3A
S3150800521000220146059B09F110090DF1200891426B
S315080052204CD1CDF800B01022DAF8000018A91DF00C
S31508005230B3FE4FF0000B03460DF160085B4549D1FC
S31508005240594B9945D8D10122564B1A704FF081080F
S315080052504FF00009DFF868A1A4F506235349A3F522
S315080052605062520951F8221004F01F0C21FA0CF171
S31508005270C90744D44E4951F8220020FA0CF010F020
S31508005280010030D0B9F1000F08BFA146A3F6FF44CC
S315080052908123B4FBF3F303EBC313E41A04F50624E2
S315080052A0B8F1010804F55064D6D1029BEBB1B9F107
S315080052B0000F1AD0349BC3F800906DE058F8040B21
S315080052C0CDE906230591FFF719FF069A079B05996D
S315080052D00132A4E758F8040B05930BF1010BFFF70D
S315080052E029FF059BAAE7029B13B96FF08B0072E7AB
S315080052F0349BB9F1000F4ED0C3F800906BE70EB19E
S31508005300002333600FB100233B604FF0100B0023DE
S315080053102A462146DAF80000CDF800B00CF0CEFF98
S3150800532008BB0EB1C6F800B02B68224A934224D1B6
S3150800533066B15FB13B462146DAF8000018AA0DF0BF
S3150800534011F880B93B6832689B1A3B60D5E902239D
S31508005350DDE90310834208BF8A4216D0A4F5062465
S31508005360A4F6FF4494E7144B984206D012339842A9
S3150800537003D0133B9842E9D02BE72146DAF8000020
S315080053800DF036F80028E1D0AFE7029B13B16B6841
S31508005390012B03D0349B1C6000201CE76FF08400AF
S315080053A019E700BF6B37002000710800282B002082
S315080053B03C2B0020105D175EFFDF00F0006D080033
S315080053C0F80A00202DE9F04F87B0824689469846AC
S315080053D01646DDF840B02AB1002B4ED040F26C7369
S315080053E09A424DD8BBF1010F4DD8002406F110079B
S315080053F039460120059417F01AFA0546002845D0C3
S3150800540021463A461EF067FC05ABCDE901430094F8
S315080054102B46012250464946FFF7B2FE044680B1A4
S3150800542010F18C0F08BF6FF08D043A46002128460C
S315080054301EF051FC284617F00BFA204607B0BDE8C7
S31508005440F08F144BC5E902A92B60C5F804B02EB13C
S315080054503246414605F110001EF016FC0E483B4642
S315080054602A46059900680CF091FE18B90598FFF7C9
S3150800547045FEDAE76FF09104D7E76FF08604DCE7BC
S315080054806FF09104D9E76FF08504D6E76FF08C04C6
S31508005490D3E700BF105D175EF80A00202DE9F04338
S315080054A08DB08146DDE914780C4615461E469BB13B
S315080054B0B8F1000F05D16FF0860420460DB0BDE89F
S315080054C0F083002FF7D0B7F1005FF4D3C3F1005390
S315080054D003F580339F42EED81022002108A81EF05B
S315080054E0FAFB002207AB029305AB019306AB2146F4
S315080054F00093484608ABCDE90522FFF741FE04466E
