:020000040800F2
:10000000C00A00203D40000823E3010823E3010863
:1000100013F1010823E3010823E3010823E30108A6
:1000200023E3010823E3010823E3010823E3010894
:1000300023E3010823E30108F5DB010823E30108BA
:1000400023E3010823E3010823E3010823E3010874
:1000500023E3010823E3010823E3010823E3010864
:1000600023E3010823E3010823E3010823E3010854
:1000700023E3010823E3010823E301080D8C0008B2
:1000800023E3010823E3010823E3010823E3010834
:1000900023E3010823E3010823E3010823E3010824
:1000A00023E3010823E301081144000823E30108C6
:1000B00023E3010823E3010889450008654500089A
:1000C00023E3010823E3010895A6010823E30108BF
:1000D00089B0010805670208016702087DA80108C8
:1000E000116702080967020861B001080D6702087C
:1000F000C9B00108D58A010835B10108A98C0108E9
:1001000023E3010823E3010823E3010823E30108B3
:1001100023E3010823E3010823E3010823E30108A3
:1001200023E3010823E3010823E3010823E3010893
:1001300023E3010823E3010823E3010823E3010883
:1001400023E3010823E3010823E301080000000082
:10015000013800D0FCE7704713B5044610B9002001
:1001600002B010BD012318481A460DF106011EF019
:100170007EF80028F3D0BDF806001BF097F90022A6
:10018000124B1BF00DFA0CA3D3E900231BF050F81F
:100190000BA3D3E900231BF02DFB00220C4B1BF01B
:1001A000FFF900220A4B1BF0FBF9C4E90001012012
:1001B000D6E700BFAFF30080B5B4B4B4B434814027
:1001C00000000000D0126341442100200020DC3FE9
:1001D00000408F400000000010B52DED028B164B43
:1001E0009FED168A1C780023154AD9B28C4215D887
:1001F000F0EEC87A17EE900A1BF07AF90CA3D3E957
:1002000000231BF05DFC78B174B107EE904AF8EE64
:10021000677A88EE270ABDEC028B10BDF2EC017AFA
:10022000013338EE278AE0E79FED040AF3E700BFC9
:100230001656E79EAF03D23CD43A002000000000DF
:100240001022002000000000002370B5404C05463D
:100250008AB0E36318B1008823600EF051FA3D487C
:1002600025F0B4FD3C4E3D4B304633603C4B736053
:1002700022F08FFA0021304614F086FB32A3D3E936
:100280000023A062C4E9062322F08EFAD4E90623F3
:10029000194310434FF0FF33C4E90601CDE90001D3
:1002A0004FF0FF32A06A25F0FAFD02224FF0FF3135
:1002B000A06A25F0F9FD01200EF030F84FF400732C
:1002C00000222849A06A25F047FEB0F5007F38D10A
:1002D00000239422CDE9073309933C23CDE903326F
:1002E00005939623A06A03A9069314F069FC35B31D
:1002F000287C0EF091FB0546F0B9A06A25F00DFFB1
:100300000EF032FB0DF0ECFF20B14FF480700021B5
:100310000CF09AFD0DF0F4FF20B14FF400600021C5
:100320000CF092FD22F006FA012014F081FB0E4A37
:100330000E49A06A22F02BFA28460AB070BDFF20B1
:10034000D7E70725F8E700BF0DD5015520000000CD
:10035000501E0020690345EC44350020ADE1000843
:100360003835002038330020372702087727020865
:100370002DE9F04F456A044610EE10AA2DED048BCE
:1003800093B057EC106BDDF88080BB460691099264
:100390000C9375B910201BF035FE0246606220B93F
:1003A000A74BEA21A7481BF0BDFDC0E90155056038
:1003B000C560636A196851B15A68012320469340A9
:1003C0004A608B601CF0A0FF636A00221A603B1E2B
:1003D000ADBF0023012223F0004BC8F800309A4B38
:1003E000B8BFC8F8002033EA0B031BD142F20F73E9
:1003F0000C9A1360CBF31303334300F08F85219BDA
:1004000063B9924B22E0924B01930833219A136017
:10041000019813B0BDEC048BBDE8F08F8B4B0193BA
:100420000333F3E700220023504659461BF020FB1C
:1004300080464BEC19AB58B101230C9A1360219BF9
:10044000002B00F0688583481860431E0193DFE7A6
:10045000CBF30A5510AA11A920464BEC10AB1DF0A6
:10046000D5F908EE100A002D00F0828019EE903ABE
:100470005646A5F2FF35CDF83880C3F3130343F099
:100480007F5747F440170022734B304639461AF025
:10049000CFFE65A3D3E900231BF082F864A3D3E960
:1004A00000231AF0C7FE06460F4628461BF00EF83A
:1004B00061A3D3E900231BF073F802460B463046D4
:1004C00039461AF0B7FE06460F461BF003FB002222
:1004D00000900023304639461BF0D4FA50B1009802
:1004E0001AF0F4FF32463B461BF0C2FA10B9009BEB
:1004F000013B0093009B162B59D8009A574B03EBF6
:10050000C20351EC190BD3E900231BF0BBFA0028FE
:100510004FD0009B013B009300230B93109B5D1B6E
:100520006B1E059349BFC5F101030023049300230B
:1005300054BF04930593009B002B3CDB059B009A62
:1005400013440A92059300230793069B092B00F29C
:100550008980052BC5BF043B002501250693069B1A
:10056000023B032B00F28980DFE803F02E3B395A6F
:10057000DDE910531D4405F23243202BC6BFC3F101
:10058000400305F21240C3F1200305F1FF35C5BF5A
:100590000BFA03F326FA00F006FA03F018431AF0F8
:1005A00085FF01230646A1F1F8770E936BE701233F
:1005B000B3E70B90B2E7049B009A9B1A0493534253
:1005C000079300230A93C0E700230893099B002B9D
:1005D00056DC01231A46CDE9023309920CE00123CF
:1005E000F3E70023099A0893009B13440293013315
:1005F000012B0393B8BF01230022606A42600422EA
:1006000002F1140641689E423ED920461CF03CFE91
:10061000019000283CD1124B02464FF4D571C1E63F
:100620000123DFE7AFF3008061436F63A787D23F09
:10063000B3C8608B288AC63FFB799F501344D33FD1
:1006400012CD020829CD02080000F07F0ECD02086D
:1006500005CD0208E2CC02080000F83FC0CE020837
:10066000A7CD020801250023089506934FF0FF331C
:100670000022CDE902331223AFE701230893F5E707
:10068000099BCDE90233B7E7013152004160B7E77A
:10069000636A019A1A60039B0E2B00F29D80002D65
:1006A00000F09A80009B002B32DD03F00F03B64A66
:1006B00002EBC303D3E90089009BD8054FEA231757
:1006C00016D5B24B07F00F070325D3E9082351ECE9
:1006D000190B1BF08FF882468B46AC4E57B9424639
:1006E0004B46504659461BF085F882468B4628E01B
:1006F0000225F2E7F90708D5404649460135D6E913
:1007000000231AF04DFF804689467F100836E5E742
:1007100000F09B80009B02259C4F5E429A4B06F0A6
:100720000F02361103EBC20351EC190BD3E900237E
:100730001AF036FF002382468B46002E7AD1002B1A
:10074000D3D10B9B002B00F082800022904B5046AF
:1007500059461BF097F9002879D0039B002B76D0DF
:10076000029B002B36DD009B5046594600225F1E3F
:10077000884B1AF015FF013582468B46029E2846AB
:10078000D0461AF0A3FE52465B46D9461AF008FF3F
:100790000022814B1AF04EFD8246A1F1507B002EC3
:1007A00058D100227D4B404649461AF041FD524641
:1007B0005B46804689461BF083F9002840F093820F
:1007C00052460BF10043404649461BF05BF90028B6
:1007D00040F087825BEC19AB119B002BC0F2488183
:1007E000009A0E2A00F34481674B03EBC203D3E95E
:1007F0000089099B002B80F2D580039B002B00F31E
:10080000D18040F06D820022644B404649461AF088
:10081000C7FE52465B461BF049F9039E3746002847
:1008200040F043823123019D05F8013B009B0133D9
:1008300000933EE2F20705D50135D7E900231AF00F
:10084000AFFE01237610083777E7022579E7009F8E
:10085000039E94E701994C4B314403EBC6030D9181
:10086000089953E90223002943D000204C491AF08B
:10087000C1FF52465B461AF0DBFC019D82468B4667
:10088000494640461BF026F906461AF01FFE02466E
:1008900030360B46404649461AF0CAFC52465B4683
:1008A00005F8016B804689461BF0ECF8002863D1FF
:1008B00042464B46002036491AF0BAFC52465B4687
:1008C0001BF0E0F8002840F0B5800D9B9D4281D0E0
:1008D0000022304B504659461AF062FE00228246F2
:1008E0008B46404649462B4B1AF05AFE80468946B5
:1008F000C6E7504659461AF053FE0D9B82468B467A
:10090000019D0F93494640461BF0E4F806461AF055
:10091000DDFD02460B464046494630361AF088FC5B
:100920000D9B05F8016B80469D4289464FF0000201
:1009300024D11B4B504659461AF07CFC02460B460C
:10094000404649461BF0BCF8002873D152465B462E
:10095000002013491AF06CFC02460B4640464946FB
:100960001BF090F800283FF435AF0F9D6B1E0F93DE
:1009700015F8013C302BF8D0009749E0054B1AF0F0
:100980000FFE80468946BDE7C0CE020898CE020819
:100990000000F03F0000244000001C400000144014
:1009A0000000E03F56465F46019D42464B463046BA
:1009B00039461AF01FFF1BF08DF882461AF086FDAB
:1009C00042464B461AF0ECFD024630460AF130062C
:1009D0000B4639461AF02CFC05F8016B019E0246C5
:1009E000039F0B46AE1BB74235D11AF023FC42469B
:1009F0004B4606460F461BF063F8D0B942464B46BD
:100A0000304639461BF034F810B11AF0010F10D1FE
:100A1000204618EE101A1CF077FC002300982B706B
:100A200001300C9B1860219B002B3FF4F1AC1D6042
:100A3000EEE4009F2B461D4613F8012D392A06D1FE
:100A4000019A9A42F7D13022019901370A701A7837
:100A500001321A7090E70022A44B1AF0A1FD002287
:100A6000002306460F461BF003F800289DD0CFE771
:100A7000089A002A00F0D580069A012A00F3B9806E
:100A80000E9A002A00F0B18003F23343079E049DC2
:100A9000049A012120461A440492059A1A440592A8
:100AA0001CF09CFC0746002D0CDD059B002B09DD8E
:100AB000AB42049AA8BF2B46D21AED1A0492059AAB
:100AC000D31A0593079B1BB3089B002B00F0AD8046
:100AD000002E13DD3946324620461CF03DFD18EE4F
:100AE000102A0146074620461CF08EFC804618EE70
:100AF000101A204608EE108A1CF006FC079B9A1B71
:100B000006D018EE101A20461CF026FD08EE100A3A
:100B1000012120461CF062FC0A9B0646002B40F394
:100B200086801A46014620461CF016FD069B0646A6
:100B3000012B7FDD4FF00008336906EB8303186952
:100B400026F0FDF8C0F12000059B184410F01F00AE
:100B500000F09180C0F12003042B40F38980C0F1A4
:100B60001C00049B054403440493059B0344059324
:100B7000049B002B07DD18EE101A1A4620461CF0C5
:100B800045FD08EE100A059B002B05DD31461A468F
:100B900020461CF03BFD06460B9B002B6DD03146DA
:100BA00018EE100A26F01AF9002866DA009B18EEF3
:100BB000101A0A222046013B009300231CF0C6FBBA
:100BC000089B08EE100A002B00F0AF810023394685
:100BD0000A2220461CF0BAFB029B0746002B00F3BA
:100BE0008D80069B022B50DC88E0109BC3F13603FE
:100BF0004CE7039B5E1E079BB342B7BF079B9E1B40
:100C00000796F21ABFBF0A9B00269B180A93039B04
:100C1000002BB7BFDDE90323DDE903359D1A00236F
:100C200036E7079E049D089F3DE7079A69E7069B04
:100C3000012B18DCBAF1000F15D1CBF3130393B9D4
:100C40002BF000431B0D1B0583B1049B4FF00108E3
:100C500001330493059B013305930A9B002B7FF41A
:100C60006BAF012070E74FF00008F6E79846F4E715
:100C70003FF47EAF18461C3073E7039B002B37DC34
:100C8000069B022B34DD039B0293029B6BB931461A
:100C9000052220461CF05AFB0146064618EE100AB3
:100CA00026F09CF800283FF7BDAD099B019DDB4372
:100CB00000934FF00008314620461CF025FB002F22
:100CC0003FF4A6AEB8F1000F05D0B84503D04146B9
:100CD00020461CF019FB394620461CF015FB97E610
:100CE00000263746E1E7009737469BE500002440A1
:100CF000089B002B00F0CA80039B0293002D05DDAA
:100D000039462A4620461CF081FC0746B8F1000F00
:100D10005BD0796820461CF0B7FA054628B9874BA6
:100D2000024640F2EA21FFF73DBB3A6907F10C01A8
:100D30000C300232920025F01FFD01222946204688
:100D40001CF064FC019BB846074603F10109DDE98C
:100D50000123134405930AF001030493314618EE6E
:100D6000100A25F0FEFE4146029000F1300A18EE0E
:100D7000100A09F1FF3B26F031F83A46039031465C
:100D800020461CF0B3FCC268054602BB014618EEC3
:100D9000100A26F023F802462946204607921CF046
:100DA000B3FA4D46DDE9063243EA0201049B0B43E8
:100DB0000FD1BAF1390F2AD0039B002B02DD029B21
:100DC00003F1310A8BF800A075E73846BAE7012233
:100DD000E2E7039B002B04DB06990B4304990B43CA
:100DE00022D1002AEEDD18EE101A012220461CF056
:100DF0000DFC314608EE100A25F0F0FF002803DC58
:100E0000E0D11AF0010FDDD0BAF1390FD7D1392373
:100E10008BF800302B461D46013B15F8012C392A72
:100E200070D001321A7046E7002A07DDBAF1390F97
:100E3000EDD00AF101038BF800303CE7059B09F87F
:100E400001AC994546D018EE101A00230A2220461C
:100E50001CF07CFAB84508EE100A4FF000034FF082
:100E60000A024146204606D11CF070FA8046074629
:100E700009F1010972E71CF069FA3946804600233E
:100E80000A2220461CF062FA0746F1E7039B029310
:100E9000019D314618EE100A25F063FE019B00F11A
:100EA000300A05F801ABEA1A029B934209DD18EEFD
:100EB000101A00230A2220461CF048FA08EE100AF5
:100EC000E7E7029B4FF00008002BCCBF1D46012531
:100ED000019B1D4418EE101A012220461CF096FBBF
:100EE000314608EE100A25F079FF002892DC02D185
:100EF0001AF0010F8ED12B461D4613F8012D302A12
:100F0000FAD0D8E6019A9A4285D1009B013300932A
:100F100031231370CFE60A4BFFF798BA219B002BC1
:100F20007FF471AA074BFFF791BA029B002BAFDC4D
:100F3000069B022B3FF7A9AEAAE700BFA7CD020888
:100F4000E1CC020805CD020810B5054C237833B971
:100F5000044B13B1044800E000BF0123237010BD0F
:100F6000A020002000000000A0D0020808B5034B1C
:100F70001BB10349034800E000BF08BD00000000AA
:100F8000A4200020A0D00208A3F5803A704700BF3B
:100F9000174B002B08BF134B9D46FFF7F5FF0021B1
:100FA0008B460F461348144A121A25F00CFC0E4BC0
:100FB000002B00D098470D4B002B00D09847002005
:100FC000002104000D000D48002802D00C4800E06C
:100FD00000BF1AF0F3FF2000290000F0ABF91AF06F
:100FE000C7FF00BF00000800000000000000000074
:100FF000C00A0020681D00204840002000000000BA
:1010000000000000F0B50368B04A23F47F4323F0EA
:101010000703934204468FB000F0A7800FD802F177
:101020007F42934200F0838002F58022934200F0D9
:10103000BB80A2F51022934228D00FB0F0BDA44A85
:10104000934200F0718102F51022934200F0EC808F
:10105000A2F182729342F0D1B0F80550B0F8076067
:10106000B0F8097032463B462946007900F006FC8C
:10107000984B032001939223CDE903670093964A8E
:10108000964B9749029502F01BF8D6E7954B032043
:1010900001934023904A92490093904B02F010F83C
:1010A000002109AB084607AA0FF0C2FE00B1FEE717
:1010B0008D4C20460FF0BAFD054600B1FEE78B4E81
:1010C0008B48314601F0A0F8894B294632782078C8
:1010D0000FF0E6FD034600B1FEE74FF4C862009052
:1010E000114620780FF0BAFD00B1FEE7022120780A
:1010F0000FF0ECFD00B1FEE700F05CFB044601F0F0
:10110000E7F894F86630837001F0E6F801F0CAF869
:1011100001F0F6F80E23C37101F0F2F80323037215
:1011200001F0EEF80123437101F0EEF885E7714B11
:10113000032001937A23684A00936949674B01F0C1
:10114000BFFF0E2200216C4825F03DFB6A4802F0EB
:10115000C1FE0E220021684B0B200FF027FE207BE2
:101160000FB0BDE8F04000F077BB644B5A4A0193E2
:101170009B235B4903200093584B01F0A1FFA0790A
:1011800000F0A0FB584C594A0021594B12782078A6
:101190000FF086FD00B1FEE7022120780FF096FDEA
:1011A00000283FF44AAFFEE700210691B0F8056041
:1011B00009AD142206AB304600950FF0C5FD504B2B
:1011C00003200193B623444A454900930296434BBA
:1011D00001F076FF2A460821BDF81830494802F090
:1011E0001FFA232E11D02A2E7FF427AF2379BDF8C2
:1011F00018208DF81C30B4F80530ADF81D30DDE94D
:1012000007012B4601F0F2FA17E72379BDF8182001
:101210008DF81C30B4F80530ADF81D30DDE907015C
:101220002B461CF01AFE08E7C379B0F8055004936A
:101230000389294ACDE90253334B03200193E62366
:1012400027490093254B01F03BFF232D1CD02A2D6D
:1012500032D01B2D7FF4F1AEE379012B0BD1238922
:1012600023B10FB0BDE8F04001F00AB90FB0BDE8FE
:10127000F04001F00BB9022B7FF4DFAE00F09AFAD8
:10128000012380F84E30D8E6E379012B0BD1238976
:1012900023B10FB0BDE8F04001F0CCB90FB0BDE80C
:1012A000F04001F0CDB9022B7FF4C7AE00F082FA16
:1012B000012380F84C30C0E6E379012B2BD1238940
:1012C00023B30FB0BDE8F04001F004BAA00006015E
:1012D000A0000103D0700208887002084A71020859
:1012E0009170020895700208F80E0020BF3A0020A5
:1012F000A03A0020BD700208923A00200671020850
:101300001971020820780208277102080FB0BDE8A1
:10131000F04001F0E5B9022B7FF48FAE00F04AFAFD
:10132000012380F84D3088E640680FB0BDE8F040FA
:1013300000F036BB07B51DF09FFF01213A2003F0F6
:1013400079FE1EF000FD002008F0FCFA02F038F9EA
:10135000FF21002002F06CF8C721012002F068F89C
:10136000C721022002F064F80721032002F060F890
:101370000721042002F05CF802F036F80A4B032043
:1013800001934F23094A0A4900930A4B01F098FE42
:1013900000F0DEFA00F084F800F01EFE1DF079FF88
:1013A00006F0ACFDFAE700BF6D7102085971020842
:1013B000637102087671020808B50368074A23F4CE
:1013C0007F4323F00703934207D105220021162013
:1013D000034B0FF0EBFC00B1FEE708BDA0000100DD
:1013E0007B71020810B5234C04F08CF804F08AFAE3
:1013F000236F23F0070343F0030323671DF0FAF87C
:101400001D4B00209B6A9B075EBF01221B4B9A620B
:10141000D4F8203123F0030343F00203C4F8203151
:10142000D4F8243123F0070343F00203C4F8243135
:10143000D4F8403123F0030343F00203C4F84031F1
:10144000D4F8603123F0030343F00203C4F86031A1
:10145000D4F8403223F0030343F00203C4F84032CF
:10146000D4F8003223F0070343F00203C4F800323B
:1014700010BD00BF0080005000C0005000E00050D0
:10148000024B0349186803F005BA00BFC00A0020E8
:10149000C40A0020014B1878704700BFC03A0020F2
:1014A00007B5094B042001933923084A00930849E2
:1014B000084B01F005FE0022074B1A7003B05DF8DF
:1014C00004EB00F087B800BF05750208EC74020851
:1014D0000175020834750208C03A002007B5094BAF
:1014E000042001935123084A08490093084B01F056
:1014F000E7FD1CF016FC0022064B1A7003B05DF8E5
:1015000004FB00BF0E750208EC74020801750208A6
:101510002B750208C03A002007B5094B042001933F
:101520006623084A08490093084B01F0C9FD00F002
:10153000F9F80122064B1A7003B05DF804FB00BFF6
:1015400017750208EC74020801750208217502087B
:10155000C03A002038B50446054D2846FEF7FCFD8C
:1015600024B118B1D5E90023C4E9002338BD00BF78
:10157000681D002008B503481CF0CAFE003818BFDB
:10158000012008BD4421002073B508260F4C00F04F
:101590007F0004F500558DF804008DF80510FA2041
:1015A0002E6407F065FB0A4B01A90222186803F0BC
:1015B00079FB202304F5805426642B640023022247
:1015C0000621184604F0CEFC02B070BD00C00350E6
:1015D000C00A002010B5012304220321002004F0DA
:1015E000C1FC002302221846072104F0BBFC0121A4
:1015F0004420FFF7C9FF00220849072002F086FFB8
:10160000074B08491860052000F07EF9BDE810403E
:1016100009230222044905481CF021BE1DDD0108F2
:101620005821002081160008C13A002044210020E2
:10163000002313B5ADF80430FF2360F07F000C46A3
:101640008DF800008DF8013011B10822094B1A64A1
:10165000FA2007F00DFB084802236946006801AA3A
:1016600003F0FAFA14B10822044B1A649DF805003D
:1016700002B010BD00E00350C00A002000D00350AB
:101680002DE9FF411F4B0320019340F203131E4A33
:1016900000931E491E4B01F013FD12240825DFF8AC
:1016A00080801C4FFA20C8F8405007F0E1FA002172
:1016B0004020FFF7BDFFF8B100214220FFF7B8FF3F
:1016C000002106464120FFF7B3FF00EB0620ADF8EE
:1016D0000E00012238460DF10E011CF0EFFD013C19
:1016E0000D4B14F0FF041D64DCD10C4B1B6833B1AF
:1016F00004B0BDE8F0411847074B1D64F5E704B09E
:10170000BDE8F081627502083D750208587502084F
:101710007C7502084421002000D0035040210020A5
:1017200000E0035007B501211320FFF72DFF07212B
:101730001420FFF729FF4B211520FFF725FF0F216C
:101740001620FFF721FF4E211720FFF71DFF042170
:101750001A20FFF719FF3E210020FFF715FF642133
:101760001120FFF711FF01210020FFF761FF012188
:101770001120FFF75DFF00200123CDE90003044A9B
:101780000721126804F096FB03B05DF804FB00BF6C
:1017900058210020054A136818441060044A137841
:1017A000B3FA83F35B091370704700BF5C2100201C
:1017B000D33A002000487047701D0020074B93F873
:1017C0006600232805D80138202894BF0020012076
:1017D0007047A0F13303584258417047701D0020F4
:1017E0000D4B00211A4610B5147814B15488844268
:1017F00010D00C31242902F11802F5D10022012465
:10180000197811B91C70588059700132032A03F1FC
:101810001803F5D110BD00BF701D002038B500249D
:1018200005460748037823B14388AB4201D11CF039
:101830007CFA0C34242C00F11800F3D138BD00BF21
:10184000701D0020034B187818B9187E08B993F85A
:1018500030007047701D0020012208B5064B83F848
:101860004F2040F20112A3F84C20FFF7B9FFBDE86A
:10187000084000F0D3BD00BF701D00202DE9F047E7
:1018800005460E46174698464FF0010A0C4C04F1E7
:101890004809237863B16388AB4209D12846A68002
:1018A000E780A4F808801CF07DFA30B184F801A02C
:1018B00018344C45EDD1BDE8F08700F0AFFDF7E7F7
:1018C000701D002010B5FFF7A9FF0023064C84F817
:1018D000503000F07BFB00F095FDFFF7B3FF08B937
:1018E00084F84F0010BD00BF701D00200023194672
:1018F000044A01330A2BC2E9001102F10802F8D1AF
:10190000704700BF602100200123002230B503FA98
:1019100000F00E4B53F83240844204D1012003EB17
:10192000C203596030BD01320A2AF3D10022074CAC
:10193000256825B9656815B943F83200EEE701322C
:101940000A2A04F10804F3D10020EBE7602100200B
:1019500010B5114C70220021204624F034FF20469F
:101960001CF0E3F904F118001CF0DFF904F1300079
:101970001CF0DBF9FFF7BAFF01200849FFF7C4FFAD
:1019800002F0ECFA01F03CFB052384F86630BDE878
:10199000104002F029B800BF701D00202D23000860
:1019A00008B50123002203FA00F0084B19688142B0
:1019B00004D1596811B18847012008BD01320A2AB3
:1019C00003F10803F2D10020F7E700BF60210020F7
:1019D00005490B78132B06D8044A02EB830282EDEB
:1019E000000A01330B707047D43A00201022002007
:1019F000094B1B78112B0CD8084A02EB830213B158
:101A000052F8041C11600133DBB2122B02F1040204
:101A1000F5D10248704700BFD43A002010220020C0
:101A20000021034B50220348197024F0CCBE00BFA4
:101A3000D43A00201022002010B5064C2388B3F5BC
:101A4000E16F02D20133238010BD0520FFF7A2FE13
:101A50000023F8E7E839002070B5124C124D134E00
:101A600086B01CF059F908B906B070BD04A8FFF79C
:101A700071FD0028F8D0DDE90423CDE9022340F20E
:101A80005D133246009303202B460949019401F06F
:101A900017FBDDE904011AF065F800EE100AFFF704
:101AA00097FFDEE7C6750208C07702089675020840
:101AB000B57502082DE9F04F794B7A4F1A788DB041
:101AC000B32A9CBFB4221A701B783A789A42C0F0AD
:101AD000C080754E3388B3F5D25F80F0B680FFF7D3
:101AE00087FF724B04460193D82303200093704A6A
:101AF000704B714901F0E4FA0025DFF8D8A1DFF856
:101B0000B491DFF8AC8154F8040B19F0F1FCDB233D
:101B1000CDE90401CDE901A5009342464B460320DF
:101B20006549013501F0CCFA122DECD1FEF754FBDA
:101B3000BCEEC00A10EE103A9DB2604B00241D802E
:101B4000FEF74AFB0E2310EE100A8DF82030CDE987
:101B50000944ADF82C4019F0CBFC0022584B19F089
:101B60001FFD19F0DFFFADF82300284619F09EFC99
:101B70000022544B19F014FD19F0D4FF0DF1200888
:101B800033880C21ADF827004046ADF8213000F035
:101B90005FFCBDF82730464A0493BDF82330464920
:101BA0000393BDF82130ADF82C000293464B03207F
:101BB0000193F42300933F4B01F082FA404602F078
:101BC00057F800F069FC002849D0FFF7F3FD90F8C2
:101BD0004F30002B43D0FFF7EDFD1825A1464FF005
:101BE0001B0A80F84E40FFF7E5FD05FB04FB10F8EB
:101BF0000B30ABB1FFF7DEFD584443888DF819A0D8
:101C00008DF818308DF81A900CAB13E90300009092
:101C1000ADF8041098E80C00DDE9060100F08EFC38
:101C20000134032CDFD1FFF7C5FD3388A0F8643001
:101C3000FFF7C0FDB0F8644000F04AFB01340480B7
:101C400000F04AFB338801333380FFF7E9FE0023BD
:101C50003B703B7801333B700DB0BDE8F08F00F076
:101C60001BFC50B9194B022001934FF48773104AA3
:101C7000009311490F4B01F023FAFFF79BFD90F8F9
:101C80004F30002BCFD1124B022001934FF48973B8
:101C9000074A00930849074B01F012FAC3E700BF57
:101CA000D53A0020D63A0020EC390020F875020819
:101CB00096750208AD770208B5750208EA3900206A
:101CC00000002440000059401576020830760208D2
:101CD0004B7602080976020807B54FF47A7006F0D1
:101CE000CDFD00230146CDE90033094A09481DF026
:101CF00068FA50B1084B012001934FF4F773074A7B
:101D000000930749074B01F0DBF903B05DF804FBD2
:101D100061DD0108F02100205F7602089675020857
:101D2000B57502087D770208014806F0FDBC00BFCA
:101D3000F021002013B51CF009F81E4A1368C31ADD
:101D4000B3F57A7F33DB1060FFF776FE1A4B1B8802
:101D5000B3F5D25F11D3FFF731FD70B1174B0320FC
:101D600001934FF4D473164A16490093164B01F0B1
:101D7000A7F91BF0FEFFFFF7D7FFFFF71FFDB0B17C
:101D8000124C23680133236000F088FA2368436013
:101D900000F088FAFFF77EFB30B9FFF7BDFB02B019
:101DA000BDE81040FFF786BEFFF756FEF7E702B02A
:101DB00010BD00BF64220020EC39002080760208AC
:101DC00096750208B5750208947702086022002013
:101DD00007B5124B124A019340F21B23114903200D
:101DE0000093114B01F06CF9642006F047FD0023CD
:101DF0000146CDE900330D4A0D481DF0BEF950B142
:101E00000C4B012001934FF40873054A00930549D8
:101E1000054B01F055F903B05DF804FBA676020806
:101E200096750208B57502085A77020867DD010841
:101E3000D02100205F760208F0B58BB0FFF7BAFC26
:101E400090F850305A4A02935A4B0320019340F2C3
:101E50003E2359490093594B01F032F9FFF7AAFC90
:101E600090F85060002E00F0A180FFF7A3FCB0F8BE
:101E70005840FFF79FFCB0F856304D4ACDE9024379
:101E80004F4B4D49019340F24323032000934B4BAA
:101E900001F016F9FFF78EFCB0F85840FFF78AFC06
:101EA000B0F85630A34206AC54D9FFF783FC214664
:101EB000B0F8520001F006FE054600283DD1FFF7BC
:101EC00079FC0346D0F85A0004AF049093F85E30D2
:101ED0008DF812508DF814301B238DF811300AAB99
:101EE00013E903000090ADF8041094E80C0097E8A3
:101EF000030000F023FB00F0CFFA002856D0FFF7D4
:101F000059FC90F84D30002B50D0FFF753FC90F85F
:101F10004F30002B4AD06EB1FFF74CFCB0F8583070
:101F20000133A0F85830FFF745FCB0F852300133C8
:101F3000A0F85230FFF74CFF38E0224B032001930A
:101F400040F256231A4A00931B491C4B01F0B8F883
:101F50000026D0E71C4B164A019340F2672303206A
:101F600015490093154B01F0ABF8AA2304AD0321EA
:101F700028468DF8103000F06BFAADF81300FFF72B
:101F800019FC0346D0F85A00069093F85E3023718E
:101F90001B238DF8193000238DF81A3094E80300C4
:101FA00095E80C0000F07EFA0028C3D10BB0F0BD1C
:101FB00096750208C9760208B575020835770208D9
:101FC000F1760208F77602080E770208014806F05B
:101FD000ABBB00BFD021002007B511490820FFF797
:101FE00093FC10490920FFF78FFC4FF4FA7006F0BC
:101FF00045FC00230146CDE900330B4A0B481DF098
:10200000BCF850B10A4B0120019340F2D223094A97
:1020100000930949094B01F053F803B05DF804FB44
:10202000351D0008391E00086DDD0108B0210020B3
:102030005F76020896750208B57502081F770208D8
:102040002DE9F043002340F2B2714FF4C87C4FF009
:102050006408028890F802E0C77846798479C579E7
:1020600091422FD3A2F2B270C11A4FF4B770584305
:1020700040F26D1303FB01006421B2FBF1F301FB9D
:1020800013234FF4C871B2FBF1FC01FB1C2C01219E
:10209000DFF87C809BB21FFA8CFC1FFA8EFE02F0E8
:1020A00003028E4521D84FF461627B1E1844C4EBB5
:1020B00004139B0002FB0633144A2B4402FB00303E
:1020C000BDE8F083880705D1B1FBF8F008FB1010DC
:1020D00080B228B9B1FBFCF00CFB101080B208B93B
:1020E00001339BB2013189B2BAE702290AD102B9A0
:1020F00013B9BCF1000F05D11D30013189B208F1CF
:102100000108CEE798F800904844F6E780510100B6
:10211000E27702083A4BF0B5B0FBF3F24FF4C87522
:1021200003FB1200642640F2B273B2F5B77F4DD2C2
:1021300040F26D14A24213D19C0706D16425B3FB73
:10214000F5F405FB1434A4B254B94FF4C875B3FBCD
:10215000F5F405FB1434A4B214B1002201339BB290
:102160006424B3FBF4F504FB15354FF4C874B3FBDA
:10217000F4F604FB16360024DFF888E00B80ADB2DD
:10218000B6B203F00303012CA7B202D103B9A5BB79
:102190009EB31EF804C0944505D801340C2CA2EB64
:1021A0000C02F0D127460132CA704FF46162B0FBD5
:1021B000F2F302FB13003C224B71B0FBF2F302FB83
:1021C000130001378F708B71C871F0BD9C0705D16A
:1021D000B3FBF6F406FB1434A4B22CB9B3FBF5F44C
:1021E00005FB1434A4B224B9A2F5B77201339BB233
:1021F0009BE76FF4B6773A44F8E74FF01D0CCAE757
:1022000080510100E277020873B50D460446B0B371
:102210001C4E304601F05EFE0223237001236370E2
:102220000623A3700B23E370092323713368032073
:10223000C4F805307368E074C4F809303389E0737A
:10224000A4F80D3041F61F03A4F81130FF232375C5
:1022500040F26233A4F815300B4B207401934823ED
:102260000A4A0B4900930B4B00F02AFF1723224622
:102270000821094801F0D4F90DB117232B7002B0E1
:1022800070BD00BFD73A00200B780208EE77020835
:10229000047802082E780208257802080048704762
:1022A000F53A002010B5094C092104F11203184633
:1022B00000F0CEF804F11203A4F81B000B22BDE8D5
:1022C0001040002126200EF071BD00BFE33A00202F
:1022D00000487047EE3A002010B5084C052104F183
:1022E0000B03184600F0B4F804F10B032082072218
:1022F000BDE81040002120200EF058BDE33A002038
:1023000000487047E33A0020074B0921184610B5F2
:1023100000F09EF8BDE81040034B0B22A3F8090023
:1023200000211E200EF042BDE33A00202DE9FF47B8
:102330000025AA462C4FDFF8C480DFF8C49018248B
:10234000FFF738FA6C43065D5EB3FFF733FA2044BB
:1023500040881BF027FD20BBFFF72CFA2044D0E972
:102360000423052A73F1000333D3FFF723FA4FF652
:10237000FF7320448078CDE901334FF4FA7364226F
:102380000093462107230EF0B5FC48B16423CDE944
:10239000017000934A4643460120144900F090FE24
:1023A000B2460135032DCAD1BAF1000F0ED0104B41
:1023B0001B785BB14FF47A7006F060FA0023014697
:1023C000CDE900330B4A0C481CF0BBFE04B0BDE85D
:1023D000F087FFF7EFF92044D0E90432013342F1EE
:1023E0000002C0E90432DBE7887802086F7802084F
:1023F000403B00209FDD010868220020B0780208E1
:102400004878020808B5034806F08EF90022024B0E
:102410001A7008BD68220020403B002007B54FF429
:102420007A7006F02BFA00230146CDE90033054A05
:1024300005481CF0A2FE0122044B1A7003B05DF89F
:1024400004FB00BF9FDD010868220020403B002004
:1024500010B581B14FF6FF73084C0144884201D199
:10246000184610BD10F8012B5A40D2B234F8122091
:1024700082EA1323F2E74FF6FF73F1E7D078020800
:102480000122014B1A707047413B00200022014B92
:102490001A707047413B0020014B1878704700BF0D
:1024A000413B002030B58FB06D4602AC84E803009C
:1024B00085E80C001F4B1B780BB9012038E0FFF7B3
:1024C00079F990F84D30002BF7D0FFF773F990F8B9
:1024D0004F30002BF1D095E8030009AC22460523CC
:1024E00009908DF828101448102101F099F8052161
:1024F000284605AD1BF0A2FE2046294601F056FDF8
:1025000095E80F0084E80F0023461022BDF809105B
:102510009DF808000EF076FC04460028CDD1FFF7A8
:1025200049F980F85040FFF745F980F84D402046C2
:102530000FB030BD413B0020D07A020882B070B5A8
:1025400090B004AC84E8030014A981E80C00314B7E
:102550001B780BB901204BE0FFF72CF990F84F30B6
:10256000002BF7D00BAA144614AB16AE154618680C
:102570005968083303C5B3422A46F7D11868224682
:1025800028609B880821AB8023480E2301F048F87F
:1025900007AD0E2114A81BF051FE2046294601F07C
:1025A00005FD95E80F0084E80F002246102308215E
:1025B0001A4801F035F823461022BDF811109DF895
:1025C00010000EF009FC0446B8B9154B154A0193EA
:1025D0009923154903200093144B00F071FDFFF778
:1025E000E9F880F85040FFF7E5F880F84D402046C4
:1025F00010B0BDE8704002B070470D4B02900193DF
:10260000A02301200093074A084B074900F058FD1A
:10261000A0E700BF413B0020D07A0208DF7A020821
:10262000197B0208F77A02080F7B02084D7B02082B
:10263000217B02080122014B1A707047423B0020A7
:102640000022014B1A707047423B002030B593B016
:1026500002AC84E803008DF807301C238DF8143099
:102660000DF10703CDF8173001230BAC214605A867
:102670008DF815208DF816301BF0CFFB07AD014605
:1026800020461BF0DBFD2946204601F08FFC95E833
:102690000F0084E80F000E4B1B78B3B1FFF78AF8E8
:1026A00090F850308BB1FFF785F890F84F3063B158
:1026B00023461022BDF809109DF808000EF08CFB8F
:1026C000FFF778F8002380F8503013B030BD00BF1A
:1026D000423B00200122014B1A707047433B00200F
:1026E0000022014B1A707047433B002082B070B546
:1026F00092B004AC84E8030016A90BAC81E80C008E
:1027000016A821461BF090FC224683B205460821FC
:102710002C4800F085FF2C4B1B786BB907AD1021BE
:1027200020461BF08BFD2946204601F03FFC95E832
:102730000F00102584E80F00244EABB2224608217A
:10274000234800F06DFF3378CBB9224B0220019370
:10275000D723214A00932149214B00F0B1FCFFF718
:1027600029F890F84F301BBB1E4B02200193DB234E
:10277000194A009319491A4B00F0A2FC18E0FFF720
:1027800019F890F84F30C3B123462A46BDF811100E
:102790009DF810000EF020FB50B1134B02900193F6
:1027A000D023022000930C4A0D4B0C4900F088FC0A
:1027B00012B0BDE8704002B070473378002BCED124
:1027C000C3E700BF5C7B0208443B0020433B002082
:1027D000667B02089B7B0208797B0208917B0208DA
:1027E0003A7D0208B67B0208217B02082DE9F04FF2
:1027F0002DED028B95B00DF1100888E8030011460D
:10280000184617461C461BF03FFC002844D0B64B28
:10281000B64A0193F52304200093B549B54B00F067
:102820004FFC0122B44B1A7017F0FF0600F0B18084
:10283000012E257800F0B080013EF6B204F10109C6
:102840003B4622460821AD4800F0EAFEAC4B03208F
:1028500001934FF4A073A54A0093A549A54B029597
:1028600000F02EFC1C238DF8383002231B2D8DF830
:1028700039508DF83A3000F0038200F2AA80042D1E
:1028800000F0438200F28C80012D00F01B819D42FC
:1028900000F04A81002556E1FFF732FD0579002D51
:1028A00038D0984B25460193FF2304208F4A904946
:1028B0000093904B00F004FC204606A901F08CFB2D
:1028C0000AAE06AB1A4603CAB242286069601346D4
:1028D00005F10805F6D123787B2BA5D0FEF76AFF1A
:1028E00090F84830002B9FD11D238DF838300023FD
:1028F0008DF839308DF83A308DF84F3014AB13E93C
:102900000F008DE80F00DDE90E2398E80300FFF7C4
:10291000EDFE2BE37C4B0420019340F21513734A28
:1029200000937349734B00F0CBFB26787A2EDBD1F2
:10293000112F15D0754B042001934FF494736B4AFB
:1029400000936B496B4B00F0BBFB1C238DF83830B8
:1029500003238DF839608DF83A308DF84F50CDE76C
:10296000631C1D46184606A901F036FB2B4606AA35
:102970000AAE154603CDB542186059602A4603F1E8
:102980000803F6D1102322460821614800F048FED2
:102990004AE7B146FF2553E74FF000094E464FE79F
:1029A0001A2D7FF477AF5B4B0420019340F2811323
:1029B0004F4900934D4A4F4B00F082FB0F212046B8
:1029C000FFF746FD002800F0CA8007238DF83A3053
:1029D00060E77A2D00F08C824ED8612D00F0CF8117
:1029E000622D7FF457AF4C4B0420019340F2AD238E
:1029F0003E4A00933E493F4B00F062FB042E71D8E3
:102A000099F80020012A00F05482032A6AD1434B2E
:102A10008DF83B2093F818B093F819A093F81A900A
:102A200093F81B8093F81CE093F81DC09F7FDE7F16
:102A300093F8205093F8214093F8220093F8231044
:102A40009B8C8DF83CB08DF83DA08DF83E908DF8B4
:102A50003F808DF840E08DF841C08DF842708DF8D0
:102A600043608DF844508DF845408DF846008DF850
:102A70004710ADF8483037E27B2D7FF40BAF284B81
:102A8000042001934FF44773184A19490093194BD6
:102A900000F016FB06212046FFF7DAFC0546002869
:102AA00077D16488FEF786FEB0F84A30A34269D138
:102AB000102F17D101248DF83A40FEF77BFE80F8E5
:102AC000484040E0174B0420019340F24F13074A5F
:102AD00000930749074B00F0F3FA032E8DF83A50A4
:102AE0007FF6D8AE032371E7CD7B0208797B02081D
:102AF000917B0208447D0208443B0020257C0208AB
:102B00002E7C0208E37B0208F67B0208087C0208A0
:102B1000137C0208927C02080A7D0208EE3900202C
:102B20002A7D0208477C0208AF4B0420019340F243
:102B30007713AE4A0093AE49AE4B00F0C1FA0323BF
:102B400001258DF838308DF84F5014AB13E90F0084
:102B50008DE80F00DDE90E23DDE90401D7E6D4F8A6
:102B60000150B4F80570E67994F80980FFF7B0FBDE
:102B70008078B0FA80F4FFF7ABFB83786409332BDD
:102B800000D00CB1042321E7FFF7A2FB8378022BCE
:102B900001D105231AE7FFF79BFB8378082B01D1AE
:102BA000062313E707EE907AB8EE677ADFED927AA4
:102BB00087EE278A18EE100A18F09AFC8F4BCDE9A1
:102BC000020101934FF4D47304200093874A894B88
:102BD000874900F075FADFED8A7AB4EEE78AF1EE04
:102BE00010FA06D4DFED877AB4EEE78AF1EE10FA38
:102BF0000BDD854B022001934FF4D6737B4A009383
:102C00007B497C4B00F05CFA44E6FFF761FB012353
:102C1000A0F803708DF83A30FFF772FB80F800805F
:102C2000FFF73CFB0560FFF739FB0672FEF7C2FDBC
:102C3000332380F86630FEF7BDFD0446FFF748FBFE
:102C400094F866308370FFF75FFBFFF72BFBFFF70D
:102C500043FB3146284600F099F96C4B597A1A7AB1
:102C6000186842EA0122997A42EA014222F07F4240
:102C7000596800F0C5FD00F0D3FDFFF72DF809E617
:102C8000634B042001934FF4F273584A5849009360
:102C9000584B00F015FAFFF71BFB83780F2B25D854
:102CA00053B3013B0E2B27D801A252F823F000BFEB
:102CB000852B0008852B0008F92C0008852B0008BF
:102CC000852B0008F92C0008F92C0008852B00083A
:102CD000F92C0008F92C0008F92C0008F92C000840
:102CE000F92C0008852B0008852B0008222B3FF4C7
:102CF00049AF312B3FF446AFFFF7EAFA0223837066
:102D0000FFF7EAFAFFF710F8C4E5424B28460193B3
:102D100040F21723354A00933549364B00F0D0F97D
:102D20000C2F7FF6DFAE07212046FFF791FB05460B
:102D300000287FF427AFB4F80140FEF73BFD90F880
:102D40006730022B0FD0FEF735FD90F86730042B6B
:102D500009D0FEF72FFD90F86730052B03D009232B
:102D60008DF83A30EFE6FFF7B3FA8578002D7FF45F
:102D700017AF173CC62C8CBF08230123F0E7264B66
:102D80000420019340F25723184A00931849194B25
:102D900000F096F9102E3FF6A5AE99F80060032ECC
:102DA0003ED0042E6FD0012E7FF49CAEB4F9050006
:102DB0001A4DB4F90370B4F90710B4F90920B4F945
:102DC0000B30B4F801406880AC800024298128468B
:102DD0000E21EF806A81AB812C80FFF739FB8DF8E3
:102DE0003A60E88156E500BF6D7C0208797B0208F5
:102DF000917B0208447D020800007A44A97C020805
:102E00009A99993ECDCC8C3FB47C0208453B00207A
:102E1000C07C0208D67C0208FB7C0208EE39002048
:102E2000607AA17A94F801A094F8029094F8038053
:102E300094F804E094F805C0A779E679257AE27A57
:102E4000237BB4F80DB04C4C84F8200084F821109A
:102E500004F118000E2184F818A084F8199084F861
:102E60001A8084F81BE084F81CC06777A677E577A2
:102E700084F8222084F82330A4F824B0FFF7E8FA7D
:102E8000E0840123A2E56078A178E278A388002499
:102E9000394D85F8280085F8291085F82A20062163
:102EA00085F82B4005F12800AB85FFF7D1FAE885BE
:102EB000E7E7314B8DF83B20B3F90460B3F90650D6
:102EC000B3F90240B3F90800B3F90A10B3F90C30B2
:102ED000ADF83C60ADF83E50ADF84040ADF8420072
:102EE000ADF84410ADF8463060238DF83830D1E4A9
:102EF000224B042001934FF43C73214A2149009353
:102F0000214B00F0DDF8FFF7FBF90379002B7FF48C
:102F100039AEFFF7F5F901230371FFF7F5F904F175
:102F200010050AAA134620686168083403C3AC423E
:102F30001A46F7D101238DF83A3000238DF84F302F
:102F400014AB13E90F008DE80F00DDE90E2398E8BC
:102F50000300FFF7CBFB0DF1290001F01FF8FEF78E
:102F600029FC0A9BC3F30F23A0F84A3015B0BDEC2F
:102F7000028BBDE8F08F00BFEE390020187D0208FB
:102F8000797B0208917B0208447D020870B588B005
:102F90000D460646FFF782F90660FFF77FF90572D6
:102FA000FFF780F90023114C30462146636023600F
:102FB000C4F80730FFF7AEF8E37903200793A3794D
:102FC0000B4A069363790B490593E3786572049382
:102FD000A378039323880293074B01933C23009328
:102FE000064B00F06DF808B070BD00BF453B0020F7
:102FF000587D02086F7D0208787D0208A67D0208D0
:1030000070B56FF02F0300250C4C2560237007234B
:103010006370EC236560C4F807506372FFF73EF9F4
:1030200006462046FFF70CF83060FFF737F9637A61
:103030000372FFF737F9284670BD00BF453B0020FB
:1030400030B585B001AB83E807000C4C03CB1A8880
:103050009B786160A37222812060FFF71FF905460B
:103060002046FEF7EDFF2860FFF718F9637A037238
:1030700005B0BDE83040FFF715B900BF453B002063
:1030800038B5064C012594F8F23023B11BF03AF81C
:1030900084F8F45038BD84F8F350FBE78822002010
:1030A00010B5064C94F8F2302BB11BF02CF800232D
:1030B00084F8F43010BD84F8F330FBE78822002058
:1030C0002DE9F04F07468FB0084699460D469246C7
:1030D00023F0D0FC0023052F8346CDE90A33CDE948
:1030E0000C330893ADF8243017D9AB4B1C687CB96E
:1030F0004FF40F72A949AA4B0291AA49CDE90332B4
:10310000CDE900212046A84AA849FFF7D9FFFEE7EC
:103110004FF40F72A249A148A047DFF8C88298F87F
:10312000F130002B00F0178198F80030BB42C0F05E
:103130001281284600F0AEF9B842C0F00C81284652
:1031400008F1010123F0C5FC002800F004811AAB4E
:103150000793FFF795FF98F8F540954E64B1314617
:10316000944A002000F028FB934B311853F8272095
:10317000044600F021FB04440121384600F0D8F950
:1031800038B18E4B2046311953F8272000F014FB3C
:1031900004440221384600F0CBF9D0B12046311961
:1031A0002A4600F009FBBBF10F0F04440BD8202185
:1031B000CBF10F020AA823F006FB204631190AAA18
:1031C00000F0FAFA0444204631197A4A00F0F4FA81
:1031D00004441C21384600F0ABF9002848D03119CE
:1031E0002046774A00F0E8FA04210444384600F00B
:1031F0009FF990B100F0CCFA31190246204600F058
:10320000DBFA18210444384600F092F928B1204630
:103210003119684A00F0D0FA04440821384600F019
:1032200087F990B11AF070FF31190246204600F07C
:10323000C3FA10210444384600F07AF928B1204638
:1032400031195C4A00F0B8FA04441021384600F005
:103250006FF938B11AF05AFF31190246204600F0D2
:10326000ABFA044420463119564A00F0A5FA04444A
:10327000E021384600F05CF900284AD03119204698
:10328000514A00F099FA20212518384600F050F9EB
:1032900090B171195246284600F08EFA402105443B
:1032A000384600F045F97419002857D0474A284697
:1032B000214600F081FA05448021384600F038F9B3
:1032C000B0B10521189B424A08A819F0EBFC71190E
:1032D000284608AA00F070FA40210544384600F05C
:1032E00027F928B128467119324A00F065FA0544D9
:1032F0004021384600F01CF928B1284671194A4689
:1033000000F05AFA05442846324A711900F054FA7E
:103310002C18C4F580613019079B199A19F016FD15
:103320000444B4F5806F21D80028B8BF4FF48064FE
:1033300040F2FB33621DB2F5806F88BF1C4698F8DF
:103340002030B3B1002324491948335523F0C1FB81
:1033500078B9FFF7A5FE0FB0BDE8F08F80213846A1
:1033600000F0E6F80028A7D0124AA0E74FF48064E6
:10337000DEE798F8F5302BB120463119174A00F0F6
:103380001BFA044431192046154A00F015FA211899
:1033900007481AF0B2FEDCE780230020E47D020833
:1033A000F07E0208FE7D0208C47D0208DF7D02086F
:1033B000503B00208E7E0208247F02083C7F0208DA
:1033C000207E0208227E0208257E02080776020877
:1033D000277E02086E7E0208A82200202B7E0208AB
:1033E000BACC0208882200201FB50B4B93F8F020BE
:1033F00072B1012283F8F120084B03200293084B9D
:10340000084A0193F42308490093084BFFF758FE3C
:1034100005B05DF804FB00BF88220020307E020862
:10342000377E0208C47D0208DF7D0208D57E0208CF
:1034300070B5052804460D4686B017D90E4B1E6898
:103440007EB94FF49F720D490D4B02910D49CDE9A4
:103450000332CDE9002130460B4A0C49FFF730FE1C
:10346000FEE74FF49F7206490448B047084B3634D4
:1034700043F8245006B070BD80230020E47D02088C
:10348000147F0208FE7D0208C47D0208DF7D020869
:1034900088220020F0B5074687B0B0B91D4B1B68E5
:1034A00073B94FF4EF721C491C4B02911C49CDE9D2
:1034B0000332CDE900211B4A1B49FFF701FEFEE75D
:1034C0004FF4EF72154914489847184D95F8F030AD
:1034D000EBB1FFF7D5FD2E46002496F8513083B1AD
:1034E0001E22384606F1320123F0CCFA48B904EB2B
:1034F00044142C4494F83140FFF7D2FD204607B025
:10350000F0BD0134052C06F12106E6D1F4E70524CF
:10351000F4E700BF802300205D7E0208FC7E0208E5
:10352000FE7D0208C47D0208DF7D0208882200209B
:1035300070B5052804460D4686B017D9104B1E6895
:103540007EB940F2DB220F490F4B02910F49CDE9C2
:103550000332CDE9002130460D4A0E49FFF7B0FD98
:10356000FEE740F2DB2208490648B0470A4B3634F2
:1035700053F824301D4214BF0120002006B070BD56
:1035800080230020E47D0208E07E0208FE7D020820
:10359000C47D0208DF7D020888220020074B83F8E3
:1035A000F20050B193F8F32093F8F43013B922B13C
:1035B0001AF0A8BD0AB91AF0A6BD704788220020EB
:1035C000F8B5164D95F8F0302BBB1AF094FD044673
:1035D000F8B90120FFF7E2FF4FF480730522A5F848
:1035E000F4302B462646274685F8F34003F8322B65
:1035F00018461F22002123F0E6F803460136052E67
:1036000000F8017CC77703F12103F1D1012385F88C
:10361000F0302046F8BD0024FBE700BF88220020E0
:103620002DE9F04F2DED028B00250F464F499846AE
:1036300091F8F13087B008EE100ACDE904550392F5
:103640006BB10B78032B0AD9013123F042FA30B168
:10365000FFF716FD464E454506D3FFF721FD07B09F
:10366000BDEC028BBDE8F08F7B19013BCDE9005327
:103670004FF4806118EE103A30463E4A19F012FBC2
:10368000B0F5806F88BF4FF48060A946AA464FF01E
:10369000000B84B2BBB25F45029324D82046311997
:1036A000354A00F089F84FF0000A0444DFF8DCB036
:1036B000A4B2029A1FFA8AF39A423BD840F2FF332F
:1036C000621CB2F5806F88BF1C462C4A3119204617
:1036D00000F072F8204481B230461AF00EFD029BD1
:1036E0002B449DB2B7E7D0451EDD039B082113F89C
:1036F0000A30234A04A819F0D5FA2046311904AA41
:1037000000F05AF80BF1010320441FFA83FB5B071A
:1037100084B206D1204631191A4A00F04DF82044EF
:1037200084B20AF1010AB5E70822174904A823F078
:10373000BDF9E2E7C84513DD039B082113F8093002
:1037400004A8A3F120025F2A28BF2E235A4619F0AD
:10375000A9FA2046311904AA00F02EF80444A4B2B4
:103760000AF1010A09F10109A3E700BF882200203C
:10377000503B0020707E02088D7E0208BACC020801
:10378000867E02088E7E02088C7E0208907E0208E9
:1037900013B5074C05F052F86A4605F0C1F820460B
:1037A000009A044919F0B2FA204602B010BD00BFD9
:1037B000503F0020547F020870B529B92C210C4BD2
:1037C0000C4A0D4818F0AEFB3AB11446431A204695
:1037D00014F8015B2DB9801A70BD2D21074B054AE5
:1037E000EFE7CE18B6F5806FF5D201F8015BEEE792
:1037F000577F0208807F02085B7F02087C7F0208F7
:103800001FB501AC84E80700044B94E8070003C32C
:1038100023F8022B120C1A7004B010BD8C23002068
:1038200007B50D4B0D4A01937A23032000930C49F1
:103830000C4BFFF745FC00200B4B4FF40051186078
:1038400000F00EFB4FF4E0314FF4005003B05DF890
:1038500004EB00F005BB00BFAE7F02088C7F0208BE
:10386000A67F0208CD8102089C2300202DE9F04F9D
:1038700082468FB014201AF04BFC4FF400550027FD
:103880000646B5FBF0F5B8464FF6FF7BA84501D1DB
:10389000012579E01422384604A900F005FBBDF8A3
:1038A00010305B4512D10DF1100C634614244FF01B
:1038B000010913F8012B013CFF2A18BF4FF0000942
:1038C00014F0FF04F5D1B9F1000F03D108F101089C
:1038D0003744DBE7D64604ADBEE80F000FC5DEF87F
:1038E0000030ADF810402B6014251CF8013B013D61
:1038F0001C4415F0FF05A4B2F7D1ADF8104000F05C
:10390000ABFA08FB06640288B4FBF2F302FB134334
:10391000ABB9B4F5005F3BD200F09EFA01882046B7
:1039200000F09EFA58B1284B029401934FF4BC73F7
:1039300000930120254B264A2649FFF7C1FB14229C
:10394000384604A900F0A6FA00282FD0B8F1000FDD
:103950001AD01422002109A822F035FF6FF00100CF
:1039600000FB06441422204609A900F093FA58B13E
:10397000194B012001934FF4D373154A0093154955
:10398000124B0294FFF79CFB28460FB0BDE8F08F66
:1039900000F062FA0188284600F062FA0028CED0D2
:1039A000094B029501934FF4C373C1E70A4B012001
:1039B000019340F2B313064A00930649034B029762
:1039C000FFF77EFB4D46DFE7BC7F0208A1810208BE
:1039D0008C7F0208A67F0208D77F0208014B186877
:1039E000704700BF9C2300202DE9F34100242D4E99
:1039F000DFF8CC803460C8F8004000F025FA00F011
:103A00002BFA058800F028FA007A284418F0FAFA10
:103A1000054658B9244B01200193DF23234A009324
:103A20002349244BFFF74CFB01242AE000F014FA51
:103A3000037AE7B2BB420CD900F00EFA027A0134E5
:103A4000B5FBF2F302FB1353002BEFD13D44C8F852
:103A50000050D8F80040002CE6D000F0FDF9164DDB
:103A600002880021204622F0AEFE28461AF092FB82
:103A7000044650B96B68083595E807003360FFF7D6
:103A8000DFFA204602B0BDE8F0810C4B0120019323
:103A9000FE23064A00930649064BFFF711FB00245C
:103AA000EFE700BF9C230020F47F02088C7F020810
:103AB000A67F0208C0810208842300200D8002082E
:103AC00098230020F0B55D4B8BB0019340F22A2380
:103AD00004465B4A0290009303205A4B0D465A4914
:103AE000FFF7EEFA0DF11202204604A91AF02FFB9F
:103AF00010201AF00DFB044600F0AEF9534B1E687F
:103B00000388B3FBF4F3B6FBF3F203FB1263002B61
:103B10003DD1BDF8106000F09FF90388BDF8120098
:103B2000734303F5005304FB00341022204606A91A
:103B300000F0BAF9464B029401934FF4FD73404AEA
:103B400000930320434B4049FFF7BAFA102306AA1B
:103B500008214148FFF764FD102106A8FEF778FC14
:103B600000285DD17DB12A4606AB08AE1C4603CCC9
:103B7000B44210605160234602F10802F6D1206879
:103B80001060A3889380802300206B7154E0701E26
:103B90000DF1160205A91AF0DAFABDF81060BDF8A9
:103BA0001430B34217D12D4ABDF81230106806AE5A
:103BB00004FB0304234604F11007324618685968D1
:103BC000083303C2BB421646F7D1254B029401933A
:103BD00040F20B23B3E700F03FF90388BDF8120071
:103BE000734303F5005304FB0034234606AE04F18F
:103BF0001007324618685968083303C2BB4216469C
:103C0000F7D1184B0E4A019340F21623032000937C
:103C10000D49104B0294FFF753FA1023224697E701
:103C2000114B012001934FF4E973054A00930649B3
:103C30000E4BFFF745FA01200BB0F0BD31800208B2
:103C40008C7F02088E810208A67F02089C23002038
:103C50004780020872810208207802089823002019
:103C60006A8002088D800208B08002085481020830
:103C70002DE9F043684D04462B688FB0B3F5D25F51
:103C800000F0C88010201AF043FA804600F0E4F8F3
:103C900006880AAA234604F1080CB6FBF8F6144677
:103CA000174618685968083303C763453A46F7D181
:103CB00018680E2138609B882046BB80FEF7C8FB41
:103CC0000DF12602ADF8360009A928681AF03FFA6E
:103CD000BDF8263003200493BDF824304F4A0393E7
:103CE0002B684F4902934F4B4F4F019340F257239C
:103CF00000934E4BFFF7E4F91023224608214C486D
:103D0000FFF78EFCBDF8263043B9D7F8009000F0DD
:103D1000A3F8FF210288484622F055FDBDF8260091
:103D20003A680DF1380E08FB00229446234603CB77
:103D30007345CCF80000CCF804101C460CF1080CBC
:103D4000F4D13C4B0292019340F263230320009391
:103D5000324A364B3249FFF7B3F9BDF82630013EFF
:103D6000B34248D1BDF8246000F076F8048800F032
:103D700073F8744304F500540188204600F070F88D
:103D800058B12D4B0120019340F26D23234A00933B
:103D90002349264B0294FFF793F93968079100F005
:103DA0005BF807990288204600F074F858B1234B5D
:103DB0000120019340F27623184A009318491B4BC7
:103DC0000294FFF77DF91E48FFF750FD50B11D4BDF
:103DD00001934FF4207300930120144B0F4A1049B4
:103DE000FFF76EF900202B68154A01332B605360F2
:103DF0000FB0BDE8F08341F63F232A689A42F1D123
:103E00000F48FFF733FD0028ECD00E4B019340F232
:103E10008D23E0E70120EBE79C2300208C7F020844
:103E2000A67F0208D880020898230020418102085A
:103E300020780208F8800208BC7F0208028102088C
:103E4000842300201D81020808B5024800F036F8DE
:103E5000C0B208BDA023002000487047A023002066
:103E6000F8B506460D460024094F3888B5FBF0F337
:103E7000A34201D80020F8BD7B68334404FB003026
:103E80001AF0C4F910F0FF00F5D10134EDE700BFDE
:103E9000A023002008B5034B5B6818441AF0BAF958
:103EA000C0B208BDA023002008B5034B5B681844CE
:103EB0001AF0B7F9C0B208BDA02300200423037292
:103EC000034B43604FF4005303800020704700BF52
:103ED00000200A087FB5194D0646082105F1280083
:103EE000FEF7B6FA044618B995F82830FF2B11D121
:103EF00044F65A032B8554236B85114B0120019303
:103F00004323104A00931049104BFFF7D9F80223BE
:103F10000124AB85AB8D30460D4A0E4918F0F6FEF4
:103F20000D4B012001934C23064A00930649074B91
:103F30000296FFF7C5F8204604B070BDEE390020A8
:103F4000FF810208DB810208F68102082E82020846
:103F5000163A00201E8202082882020808B5502264
:103F6000002006491AF065F9002305484360036004
:103F7000C0F80730BDE80840FFF7ACBFEE390020BD
:103F8000F90E002008B50B4603490968014418469C
:103F900022F0F2FB002008BDE40A00204278024B28
:103FA0009A730278DA737047040F002037B504461D
:103FB000074D01918022284606491AF079FE2246D3
:103FC00001212846019B03B0BDE830401AF08DBEA8
:103FD000AC230020040F002037B50446074D0191A3
:103FE0008022284606491AF07EFE224600212846F5
:103FF000019B03B0BDE830401AF077BEAC2300202F
:10400000040F0020012208B5074B1A700022074B4D
:104010001A700422064B1A701F22064B1A7003F006
:10402000E3FC054B186008BD140F0020603F002022
:10403000150F0020160F0020D023002008B500F037
:104040002DF8124B12498B4212D30020114B12490A
:104050008B4218D3FCF79CFF186850F82240586830
:1040600040F82240013298688242F5D30C33EAE7E7
:104070000022F8E71C6844F8220001325C68A24282
:10408000F8D30833E4E70022F8E700BFA8D002081D
:10409000B4D00208B4D00208B4D002084FF40041F2
:1040A0004FF0FF30114B124A10B59A60D3F88820B8
:1040B00042F47002C3F888200E4A916601F18841EB
:1040C00001F5005210660C4850660220C3F8D0007B
:1040D000BFF34F8FBFF36F8F08244FF4403307486F
:1040E000C0F88041D36004600B6110BD00ED00E0BA
:1040F00000000008009000507FFF070000E100E092
:10410000014B1868704700BFEC0A0020084B1B6F7A
:1041100003F00703022B04D0032B05D0012B05D09D
:10412000FEE7044B18687047034BFBE703487047F2
:1041300000800050EC0A0020F00A0020002D310120
:1041400008B5FFF7E3FF054B1B6FC3F303330133E0
:10415000B0FBF3F0024B186008BD00BF00800050B8
:10416000E80A00200048704700B4C404014B1868F6
:10417000704700BFF00A0020054B1860054B1B6F0D
:1041800003F00703032B01D1FFF7DABF704700BF2D
:10419000F00A00200080005000487047002D3101D7
:1041A000014B1868704700BFF40A002005490A68EF
:1041B0001318054883428CBF4FF0FF320B60104646
:1041C000704700BFF80A0020000001202DE9F04FE1
:1041D0009A46564B85B01B7806460F461546DDF8C5
:1041E0003C909DF844B0DDF85080002B00F08D80AD
:1041F000072A00F28C800E9B002B00F08880B9F11A
:10420000000F00F08480129BB3F5006F7FDC012863
:1042100002D1109B002B7AD0454B03EB05131B7B7F
:10422000002B76D0434C10220021684622F0CBFAB6
:1042300004EB45141022002F59D13946204622F0B4
:10424000C2FA43F210036380BBF1000F03D1E3789D
:1042500043F00303E370374A0E9B02EB451CCCE9A5
:104260000193129B6901013BC3F30A009DF84C3096
:10427000012E03F003034FEA836343EA001E535801
:104280002D48CDF800A000EA03004EEA0003535089
:1042900041D113230CF1100ECCF80C309CE80F0028
:1042A0008EE80F006FF00301DCF81C20109B61F317
:1042B0009F02012FCCF81C20CCF8143003D1CCF88D
:1042C0001890CCF804300027194A290102EB051395
:1042D00042F80180159A28465A60694622469F6036
:1042E0005E7301F0B1FE384605B0BDE8F08F0021E5
:1042F000204622F068FA4FF444736380BBF1000F4C
:10430000A9D1E37843F03003A4E70C48ECE70C486C
:10431000EAE70C48E8E7B8F1000FD4D19CF8023086
:1043200068F304138CF80230CDE700BF613F002032
:10433000D4230020542400200F80FFF3028000F0DB
:10434000018000F0078000F038B5124B05461B785D
:10435000DBB1E0B11AF06AF90F4A00231146147B71
:1043600054B92B6001251A0101EB03131D738C5006
:104370001AF062F9204638BD0133082B02F1100211
:10438000EDD11AF059F90548F5E70548F3E7054876
:10439000F1E700BF613F0020D4230020048000F03B
:1043A000028000F0018000F0154B13B5186800235F
:1043B00001908DF804301AF039F9124B1C7824B1B1
:1043C0001AF03AF9104802B010BD01221A701AF022
:1043D00033F90E4B01A81C731C7783F82C4083F82B
:1043E0003C4083F84C4083F85C4083F86C4083F891
:1043F0007C4008238DF8073001F0F4FD2046E2E709
:104400003E820208613F0020038000F0D423002098
:10441000204B2DE9F0471F6D5A6D1F4C174010D5EA
:104420004FF000411D4A1165D868C0F30420030114
:10443000E35804EB00125BB3BDE8F047002152687B
:10444000184701260025DFF85480DFF854903742E2
:1044500017D02368C8F850609BB1A1682846013185
:104460006268A1609847637B012B0AD148B909EBC8
:1044700045131A7B60F341021A731A7F60F34102FD
:104480001A770135082D4FEA460604F11004DED1F3
:10449000BDE8F08700000450D42300200020045021
:1044A0005424002070B5044601250B4E04B970BD9C
:1044B00094FAA4F0B0FA80F005FA00F306EB0012CB
:1044C00024EA03045368002BF0D0117B11B19168EA
:1044D0009847EBE79847E9E75425002008B51E20E8
:1044E00001F04EFA28B14FF08042074BC3F880210B
:1044F0001A601F2001F044FA28B14FF00042024B2D
:10450000C3F880211A6008BD00E100E0F8B5054657
:104510000F4616461AF08AF8104B05F0FC02D3F845
:1045200024140023EC1804F00304144321FA04FCBF
:104530001CF0010F07D00133042BF3D1FF241AF034
:104540007BF82046F8BDFF2CF9D00122044B03EB89
:104550000413C3E901761A73F1E700BF00C00350EA
:1045600054250020074BD3F82404D3F8202403F566
:104570000053104000F0553020F05020C3F82004C4
:10458000FFF790BF00C00350074BD3F82404D3F8C3
:10459000202403F50053104000F0AA3020F0A020A2
:1045A000C3F82004FFF77EBF00C00350024B196818
:1045B000024B18680FF0FCBD000B0020FC0A002025
:1045C00037B5920004460D46019222F04DFD431C82
:1045D0000BD060B929462046019A22F0BDF8002888
:1045E000044808BF002003B030BD0348FBE7034880
:1045F000F9E700BF10E000F021E000F024E000F057
:1046000010B5044622F038FD431C10D088B901F0E3
:1046100011FE234620F003002044984201D10020DF
:1046200010BD53F8042B0132F7D00348F8E70348D4
:10463000F6E70348F4E700BF0EE000F021E000F0E9
:1046400024E000F008B519F0EAFF014B186008BD3E
:10465000942D0020014B186819F0E5BF942D00201F
:1046600038B50546B0B1B9B1B2B1B2F5006F13DCDF
:1046700019F0DCFF95F84C3003F0FF041BB119F082
:10468000DBFF064838BD012385F84C3019F0D4FF14
:104690002046F7E70248F5E70248F3E7032000F079
:1046A000012000F0022000F02DE9F04F1E4600230B
:1046B00087B080F85430109B0446436390F85C3018
:1046C00089469246C663002B38D14FF44063056893
:1046D0006B614369092B03D905F12C08443506E0C9
:1046E0000BBF05F1200805F1240838353C35676912
:1046F0004FF0010B082F94BF00270127204619F027
:104700004DFF134B5246CDE90273216B4346A06A1D
:1047100004940196CDF800B019F02DFE00232A462E
:10472000CDE90333CDE901674B46E16A606ACDF814
:1047300000B019F006FE07B0BDE8F08F012BFAD1EA
:10474000006819F06CFE256805F13C08C6E700BF5B
:104750005FE501082DE9F04716460022436390F813
:104760005C300446894686B080F85420C663002B2E
:1047700038D14FF4406305686B614369092B03D955
:1047800005F12C08443506E00BBF05F1200805F1C2
:10479000240838353C3567694FF0000A082F94BF6C
:1047A00000270127204619F0F9FE134B216BCDE9B4
:1047B000027304F138024346A06A04940196CDF8CE
:1047C00000A019F0D8FD01232A460093CDE903AAE1
:1047D0004B46CDE90167E16A606A19F0B2FD06B0A7
:1047E000BDE8F087012BFAD1006819F018FE2568A2
:1047F00005F13C08C6E700BF5FE5010801292DE986
:10480000F84321D81F4B204E1C68204FDFF88080D2
:10481000803C14F1800F01D1BDE8F883D4F80090FA
:104820000521B1450CBF3D464546484619F047FFB6
:1048300019F0F5FE2B6843F018032B6019F0F3FE16
:10484000D4F88040803CE4E702390129E4D80D4BDC
:104850000D4E1C680D4FDFF83880803C14F1800F3E
:10486000DAD02368B3420CBF3D46454619F0D7FE67
:104870002B6823F018032B6019F0D5FED4F8804084
:10488000803CEBE7482E00200000045A8CC4035003
:104890006CC403502DE9F0436A4BD1F800908FB0FF
:1048A000994505460C460DF1180840F0E58047464D
:1048B000654ECDF814800FCE0FC796E80F00103666
:1048C00087E80F000FCE01AF0FC7002D00F0B780B3
:1048D00084220021284621F076FF23684B4510D022
:1048E0005A4E5B4B1B681BB95A495B4803F0E4FA0C
:1048F000574805F1800119F020FD30460FB0BDE8A2
:10490000F08354222B6001232A6527464FF4881236
:10491000DFF860E185F85C302E1DC5E90BE20FCFB2
:104920000FC697E80F0086E80F00637E012B08BFD3
:104930008DF81D30A37E23B1012B69D104238DF89E
:104940001230227EE368012A69D1444A93429CBF17
:1049500005238DF8353000238DF81130404B0121AF
:104960003A20039300F066FB0121286D00F062FB02
:104970002369DA1F092AB3D8063B8DF81030237E4D
:104980002BB9E37EB3FA83F35B098DF81C30012168
:10499000284619F04FFD06460028A2D1237A227935
:1049A00042EA03422F4BC3F8A424617A627942EAB7
:1049B0000142C3F89C24A17AA27942EA0142C3F8D9
:1049C000A024E27E002A40F03181E17AE27942EAD5
:1049D0000142C3F890241D22C3F88C24206801A949
:1049E00001F0C6F919F022FE1F4B1A78DAB901223C
:1049F0001A7019F021FE03F05DFEFFF7D5FC0021CF
:104A000005F12400FFF7A0FC014678B1174E68E7D6
:104A1000022B94D0032B7FF463AF06238FE7002291
:104A20008DF834209BE719F007FEE6E705F1280032
:104A3000FFF78AFC064600283FF453AFE6E70C4E2A
:104A40004FE700BF0000045A68820208022000F00D
:104A5000482E0020200B00204C2E00203F4B4C0005
:104A600040420F0000C00350623F0020092000F0C8
:104A7000012000F00100110046466D4F0FCF0FC618
:104A800097E8070086E80700002D00F0CD8084221B
:104A90000021284621F097FE2368664A934240F0A1
:104AA000908028222A654FF480220026624FC5E9B3
:104AB0000B722F46A44647F8043BBCE80F000FC713
:104AC0009CE80F0087E80F00637E012B08BF8DF87C
:104AD0002630A37E33B1012B40F081804FF4007368
:104AE000ADF82830237E0121012B03BF00238DF870
:104AF00025304FF4E133E3683A20089300F09AFA46
:104B00000121286D00F096FA23691A1F0C2A5BD840
:104B1000033B414620688DF8243001F0C3FBA369B4
:104B200023F47F0323F47F4323B92A68936843F473
:104B300080339360227A2379607943EA0243627A70
:104B4000A17940EA0240A27A94F81BC041EA0241EE
:104B50003A4A77013A4436B2BCF1000F49D11D27D9
:104B60007601C2F83476C2F84C3606F1A04303F55C
:104B70007033C3F84406C3F84816E17AE37943EA90
:104B80000143C2F838360121284619F053FC064685
:104B900000287FF4B2AE19F049FD294B1A78BABB50
:104BA00001221A7019F048FD03F084FDFFF7FCFBA9
:104BB000002105F12400FFF7C7FB014658B3214E41
:104BC0009BE6214A934201D0204E96E629222A658F
:104BD0004FF4A0221E480126C5E90B0269E7022B0B
:104BE00002D14FF480737BE7032BEDD14FF4407378
:104BF00076E71C247601C2F83446C2F84C3606F13A
:104C0000A04303F57033C3F84406C3F84816BAE767
:104C100019F012FDCAE705F12800FFF795FB0646DB
:104C200000283FF46AAECAE70A4E66E61C22D3E6C5
:104C30009C82020800C005500200040000C003501E
:104C4000623F0020092000F000000650022000F022
:104C500002000500012000F07FB51546027F0446E2
:104C6000012A0E4613D01A460393FFF7F9FC60B9E8
:104C70007DB1094A31462046039B00922A46FFF740
:104C800013FD204619F041FCA06C04B070BD034830
:104C9000FBE70348F9E700BF15E40108082000F02E
:104CA000022000F070B5037F0446012B0D46164626
:104CB0000DD0FFF7D5FC48B9324629462046054BB2
:104CC000FFF748FD204619F020FCA06C70BD02489B
:104CD000FCE700BF15E40108082000F0044BD3F8FE
:104CE0008420D206FBD4D3F88400C0F3811070472F
:104CF0000040005038B5104B0546D3F820310C4623
:104D000003F00303022B0BD0032B0DD0012B0FD18B
:104D1000FFF7F6F9052305B1286004B1236038BD1B
:104D2000FFF724FA0323F6E7FFF736FA0223F2E748
:104D300001230020EFE700BF0080005073B50D464F
:104D400000210E4B0191D3F88041064604F0030484
:104D5000012C09D0022C0CD00C460EB1019B336003
:104D600005B12C6002B070BD01A8FFF7C3FF0F248E
:104D7000F3E7FFF711FA0190EFE700BF0080005062
:104D800038B5184B0546D3F824010C4600F007004F
:104D9000062805D8DFE800F0230B131B1F0F1700B0
:104DA0000023184605B1286004B1236038BDFFF721
:104DB000A7F90523F6E7FFF7A3F90623F2E7FFF7C4
:104DC000D5F90323EEE7FFF7D1F90423EAE7FFF76C
:104DD000E3F90223E6E719F0A5FA0723E2E7012346
:104DE000E0E700BF0080005038B5104B0546D3F80F
:104DF00040310C4603F00303022B0BD0032B0DD0E4
:104E0000012B0FD119F090FA092305B1286004B1E4
:104E1000236038BDFFF7C4F90823F6E719F087FAD5
:104E20000B23F2E701230020EFE700BF00800050D2
:104E300037B50C460021124B0191D3F88432054658
:104E400003F00303022B0ED0032B11D0012B14D13E
:104E500001A8FFF74FFF0F230DB1019A2A6004B19B
:104E6000236003B030BD01A8FFF7BEFF1023F3E7B6
:104E7000FFF792F902230190EEE70123ECE700BF70
:104E80000080005038B5144B0546D3F800020C469C
:104E900000F00700042804D8DFE800F01B0A0E1217
:104EA00016000023184605B1286004B1236038BD00
:104EB00019F03AFA0923F6E7FFF772F90823F2E747
:104EC00019F035FA0B23EEE7FFF73AF90E23800AC3
:104ED000E9E70123E7E700BF0080005038B5104B39
:104EE0000546D3F840320C4603F00303022B0BD0E7
:104EF000032B0DD0012B0FD119F016FA092305B1A0
:104F0000286004B1236038BDFFF74AF90823F6E7AB
:104F100019F00DFA0B23F2E700231846EFE700BF64
:104F20000080005038B5104B0546D3F860310C4670
:104F300003F00303022B0BD0032B0DD0012B0FD159
:104F400019F0F2F9092305B1286004B1236038BDD6
:104F5000FFF726F90823F6E719F0E9F90B23F2E742
:104F600001230020EFE700BF0080005038B50C4659
:104F7000054619F054FB064B9A6A82EA040101EADD
:104F8000050454409C62BDE8384019F04CBB00BF9A
:104F900000C00050B0F5207F1FD009D8B0F5007FC9
:104FA00015D003D868B1B0F5C07F0AD000200CE05E
:104FB000B0F5607FFAD10B4BD3F88000C0F301103D
:104FC00003E0084B186FC0F3033001307047054B06
:104FD000D3F89000C0F30460F7E7024B186FC0F3FA
:104FE0008020F2E7008000504FF400320E4B014663
:104FF00010B500209A66FFF7CDFF41F671324843A5
:105000000A490B4B88428CBF4FF480100020DC69AA
:10501000DA635A6822F4401202435A60E20344BF42
:105020000022DA6310BD00BF00900050005A6202F7
:1050300000000350420910B510D0012A10D00B4BCC
:105040000B4C022A18BF234600F01F0051B103F594
:105050008053012202FA00F0186010BD1346F3E7F6
:10506000044BF1E703F50053F3E700BF68800050FD
:1050700060820050648000501FB5002280280446E2
:10508000019200F00C8100F2BF803F2836D9A0F1D8
:105090004D04142C02D9019804B010BD142CFAD878
:1050A00001A353F824F000BF2752000897500008CE
:1050B000275200082752000827520008EB52000828
:1050C00045520008F5520008975000089750000814
:1050D0009750000897500008975000089750000814
:1050E000975000083F530008975000089750000859
:1050F0009750000827520008275200083F28CAD8B6
:1051000001A353F820F000BF275200089750000871
:1051100097500008975000089750000897500008D3
:1051200097500008975000089750000897500008C3
:1051300097500008975000089750000897500008B3
:1051400097500008975000089750000897500008A3
:105150009750000897500008975000089750000893
:105160009750000897500008975000089750000883
:105170009750000897500008975000089750000873
:10518000975000089750000827520008B9520008AD
:1051900027520008B9520008EB520008EB520008F1
:1051A000EB520008EB520008B9520008B95200084F
:1051B000FF520008455200082B5300089552000882
:1051C00045520008B9520008B9520008B952000807
:1051D0009750000897500008975000089750000813
:1051E0009750000897500008975000087752000821
:1051F000B9520008B9520008B95200083F530008DC
:1052000035530008B9520008B0F5806F6DD024D82E
:10521000B0F5007F47D009D8B0F5807F74D0B0F5E5
:10522000C07F7FF438AFFEF78BFF3AE0B0F5607FC8
:1052300048D03FF630AFB0F5207F3DD0B0F5407F8D
:105240007FF429AFFEF77CFF02464FF42070FFF792
:10525000A1FEB2FBF0F0400823E0B0F5C06F64D0CF
:105260000ED8B0F5A06F45D0B0F5B06F47D0B0F50F
:10527000906F7FF410AF002101A8FFF781FD0AE7CE
:10528000B0F5E06F56D0B0F5F06F58D0B0F5D06FF4
:105290007FF401AF002101A8FFF7F4FDFBE6FEF764
:1052A00035FF0190F7E6FEF731FF02462046FFF793
:1052B00071FEB2FBF0F0F4E7FEF742FF02464FF456
:1052C0002070F4E7204BD3F8803003F00303012B68
:1052D00004D0022B06D04FF46070E8E7FEF716FF0B
:1052E0000246F8E7FEF70CFFFAE7002101A8FFF7F6
:1052F00001FDD0E6002101A8FFF79AFDCBE60021D1
:1053000001A8FFF71BFDC6E64FF0E02302921B69E0
:105310005B0705D5FEF714FF0290029B0193BAE6E6
:1053200003A902A8FFF760FDF7E7002101A8FFF736
:105330005BFDB0E6002101A8FFF7D0FDABE6002140
:1053400001A8FFF7EFFDA6E60080005008B5802019
:10535000FFF792FE034B98429EBF4FF48032024B00
:105360001A6708BD005A620200A000501FB5002352
:10537000B0F5607F019300F0A88036D8522800F085
:105380008B8016D82D280BD823280ED9243809282D
:105390000BD8DFE800F0818181810A0A7C0A438B07
:1053A0003D280ED03E2800F0A680019805B05DF89B
:1053B00004FB802853D009D8542800F097805C283B
:1053C000F3D1002001A9FFF7ADFDEEE7B0F5807F36
:1053D000EBD102934FF0E0231B695B0761D5FEF729
:1053E000AFFE0C230393039B4DE0B0F5D06F5DD06F
:1053F00019D8B0F5A06F79D00AD8B0F5806F4BD02E
:10540000B0F5906FD1D1002001A9FFF7B9FCCCE72E
:10541000B0F5B06F3BD0B0F5C06FC6D1002001A988
:10542000FFF7E2FCC1E7B0F5006FECD005D8B0F5AE
:10543000E06F60D0B0F5F06FC2E7B0F5086FB4D19F
:105440002F4BD3F8003103F00303022B33D0032B8F
:1054500035D0012B37D1FEF789FE032313E0284B0B
:105460001B6F03F00703013B032B9ED801A252F8E8
:1054700023F000BF8B540008855400085B540008DB
:10548000C3540008052301938FE70223FBE70020A4
:1054900001A9FFF753FC88E7002001A9FFF72AFCC8
:1054A00083E703A902A8FFF79FFC9CE7002001A95E
:1054B000FFF7E8FC79E7FEF773FE0823E3E718F04F
:1054C00031FF0723DFE70123DDE70D4AD2F8802013
:1054D00002F00302012A05D0022AD4D1FEF710FE01
:1054E0000623D0E7FEF712FE0D23CCE7002001A92A
:1054F000FFF79EFC59E7002001A9FFF7EFFC54E7F6
:10550000008000504FF40022034B5A66012203F53D
:1055100080439A62704700BF0090005008B5FFF7C3
:1055200025FF082811D00938012811D84FF400129E
:10553000094B4FF6FF705A6603F5D8335B6A13F0D8
:10554000010F18BF4FF4FA7008BD044B1888FBE731
:105550004FF6FF70F8E700BF00900050E60E002005
:1055600070B504468020FFF701FF032800F0828019
:105570004FF40022444B02215A6645F60E03434A7B
:10558000C2F88030424B9962012103F58053996241
:10559000936DD903FCD4D4E900131B0543EA0163DE
:1055A000E17B94F822500B43217B94F8236043EA7B
:1055B0000143617B43EA0133A17B43EA8113136119
:1055C0009169D4E904031B0643EA806301F00041BA
:1055D0000B43A17EE07E0B43217E43EA0143617EC3
:1055E00043EA01239361E369126A002B0CBF002197
:1055F000082122F00D0242EA030242EA8002234B14
:1056000042EA01021A6294F820204FEA421232D193
:10561000986A94F8211020F0330042EA0112024304
:1056200042F001029A621B4A996D32EA0101FBD1F4
:10563000022217498A621A659A6D5200FCD41869D1
:10564000A26820F4700040EA02504FF00042186156
:105650000F4B9A611DB9022203F580539A6216B965
:1056600001220D4B9A6294F824301BB1074B0B4A70
:10567000C3F8802070BD996A21F0330131430A4399
:1056800042EA4502EEE700BF0090005000C0005023
:1056900000D000500300014000E00050F1A7FFFFE0
:1056A0001E4B13B5996A9A6D12F4803F18BF0124FE
:1056B0001B4A18BF9462022494629B6DDB0303D5DE
:1056C000164A936D9C07FCD50222154B134C1A65A4
:1056D000A36D5B00FCD4134BA26993F9003022F454
:1056E0007F020344000222F47F4280B283F3080366
:1056F000104340EA0340A06102200191FFF736FC0D
:10570000A36D019913F4803F05D0012002B0BDE8DC
:105710001040FFF72BBC02B010BD00BF00C000500E
:1057200000D00050633F0020014B93F90000704708
:10573000633F002001221548154B816A9A62826DF1
:1057400002F00302032AFAD102229A621A650F4B71
:105750009A6D5200FCD40F4A986D32EA0000FBD1DA
:1057600001220B4B1A65A3F580539A6D9007FCD468
:105770009A6D9207FCD50222054B1A65034A936D78
:105780009B07FCD50320FFF7F1BB00BF00C0005012
:1057900000D0005003000100F0B5D0E901434FF400
:1057A00080061A4A4178057856664FF4D15602278A
:1057B00002F5B8325662164E4F2977604FF0010756
:1057C00028BF4F2106F5805677601669F603FCD492
:1057D00041EA052151611B01417B43EA04230B434C
:1057E000017B43EA41039360C37B817B1B0143EA56
:1057F0004113417C0B43017C43EA41035360837CAA
:1058000013B16FF4D1535362F0BD00BF009000504C
:1058100000100250014B1880704700BFE60E0020B8
:10582000014B1880704700BFE40E0020B0F5207FC8
:1058300010B50C4657D008D8B0F5007F48D003D833
:1058400030B3B0F5C07F23D010BDB0F5607FFBD181
:1058500029492A48D1F8FC2012F080721EBFD1F8E5
:10586000FC3023F08073C1F8FC30D0F88030611E2A
:1058700023F0300444EA0114C0F88040002AE3D049
:105880001D4AD2F8FC3043F08073C2F8FC30DBE7ED
:1058900018F09DFE18F0A9FE4FF48031184B174AFE
:1058A0001967136F611E23F4704444EA01341467CE
:1058B000FEF746FC0446FFF711FAC0F1020120464C
:1058C00018F08DFE00F02EF8BDE81040FFF73EBD49
:1058D0000A4A0139D2F8903023F0F85444EA0164BE
:1058E000C2F89040B0E7054B013C196F21F480618C
:1058F00041EA84241C67A7E700ED00E00080005027
:105900000090005008B50121022000F0B3F818F013
:105910005EFE18F06AFE4FF48032014B1A6708BD34
:105920000090005008B54FF4C070FFF7A5FBBDE82C
:105930000840044988428CBF022101214FF42070A5
:10594000FFF774BF80F0FA020028ABBF00F160409F
:10595000054B00F5614000F00F00ACBF90F800036C
:10596000185C0009704700BF14ED00E0034B586855
:10597000C0F30800003818BF0120704700ED00E0B8
:10598000054B420953F8223000F01F0023FA00F0C3
:10599000C04300F00100704700E100E0014608B597
:1059A000EFF31083DB0702D50122104608BDFFF795
:1059B000E7FF02460028F7D10846FFF7C5FF01467A
:1059C000EFF3118313B1B0EB131FEDD2074B5B68FC
:1059D000C3F30803002BE8D0103B58B2FFF7B4FF25
:1059E00088428CBF00220122DFE700BF00ED00E00B
:1059F000044A4178536F23F4407343EA0123536709
:105A0000704700BF004000500A4A10B513690446B1
:105A100043F00403136102F06DFC18F010FE30BF78
:105A200018F00EFE02F088FC1CB9BDE81040FEF72D
:105A300087BB10BD00ED00E0084A10B513690446AD
:105A400043F00403136102F055FC30BF02F074FC14
:105A50001CB9BDE81040FEF773BB10BD00ED00E0BF
:105A6000034A0179D36E23F030030B43D3667047AA
:105A700000400050F8B504461C4BD3F88420D106F2
:105A8000FBD4D3F88430C3F381139C422CD0FEF7AF
:105A90003DFB012C064602D1214618F0A0FD18F06E
:105AA000BEFD4FF00072124B07465A66204618F0B2
:105AB000CAFD4FF480630D4D621E93402B676B6EE1
:105AC0009A0103D4D5F884309B060AD5384618F0DD
:105AD000AAFD022C08D13046BDE8F840002118F09C
