:020000040800F2
:10000000C00A0020F51D000841B8010841B80108E8
:10001000D7C4010841B8010841B8010841B8010836
:1000200041B8010841B8010841B8010841B80108C8
:1000300041B8010841B80108F1B5010841B801080B
:1000400041B8010841B8010841B8010841B80108A8
:1000500041B8010841B8010841B8010841B8010898
:1000600041B8010841B8010841B8010841B8010888
:1000700041B8010841B8010841B80108D16700083A
:1000800041B8010841B8010841B8010841B8010868
:1000900041B8010841B8010841B8010841B8010858
:1000A00041B8010841B80108C921000841B8010858
:1000B00041B8010841B80108412300081D23000888
:1000C00041B8010841B80108B582010841B80108EA
:1000D000A98C0108BB3A0208B73A02089D840108BE
:1000E000C73A0208BF3A0208818C0108C33A0208E5
:1000F000E98C0108F5660108558D0108C9680108F9
:1001000041B8010841B8010841B8010841B80108E7
:1001100041B8010841B8010841B8010841B80108D7
:1001200041B8010841B8010841B8010841B80108C7
:1001300041B8010841B8010841B8010841B80108B7
:1001400041B8010841B8010841B8010800000000A9
:10015000013800D0FCE770472DE9F047344B90B0F0
:100160000193BC2304200093324A334B334906AD3C
:1001700001F04CFB2F460024402001F03BF970B108
:10018000422001F037F90646412001F033F90134ED
:10019000E4B200EB0620142C27F8020BECD100246B
:1001A0004FF000080026DFF8A490254F35F802AB89
:1001B000504618F08BFF42464B4619F001F818A341
:1001C000D3E9002318F044FE17A3D3E9002319F064
:1001D00021F932463B4618F0F3FF32463B4618F011
:1001E000EFFF184BCDE904010193D223CDE9024A78
:1001F00000930420104B0F4A1049013401F006FB14
:10020000122CD3D1104B04200193D423094A00931C
:100210000A49094B01F0FAFA10B0BDE8F08700BFB7
:10022000B5B4B4B4B434814000000000D0126341CE
:10023000B4480208FE470208FB48020819480208B1
:1002400000408F40CE480208E84802080020DC3F0A
:10025000002370B5404C05468AB0E36318B10088AE
:1002600023600BF0B1FF3D4822F08BFF3C4E3D4B2D
:10027000304633603C4B73601FF0E4FB0021304696
:1002800012F092F932A3D3E90023A062C4E9062355
:100290001FF0E3FBD4E90623194310434FF0FF336B
:1002A000C4E90601CDE900014FF0FF32A06A22F057
:1002B000D1FF02224FF0FF31A06A22F0D0FF0120CF
:1002C0000BF090FD4FF4007300222849A06A23F040
:1002D0001EF8B0F5007F38D100239422CDE9073312
:1002E00009933C23CDE9033205939623A06A03A921
:1002F000069312F075FA35B3287C0CF0F1F8054638
:10030000F0B9A06A23F0E4F80CF092F80BF04CFD81
:1003100020B14FF4807000210AF0FAFA0BF054FD7E
:1003200020B14FF4006000210AF0F2FA1FF05BFBED
:10033000012012F08DF90E4A0E49A06A1FF080FBD1
:1003400028460AB070BDFF20D7E70725F8E700BFB1
:100350000DD5015520000000181D0020690345EC53
:100360007033002075BC0008643300206431002025
:10037000E9F9010829FA01082DE9F04F456A044618
:1003800010EE10AA2DED048B93B057EC106BDDF836
:100390008080BB46069109920C9375B9102019F024
:1003A00049FB0246606220B9A74BEA21A74819F031
:1003B000D1FAC0E901550560C560636A196851B199
:1003C0005A680123204693404A608B601AF0D0FBA4
:1003D000636A00221A603B1EADBF0023012223F096
:1003E000004BC8F800309A4BB8BFC8F8002033EA79
:1003F0000B031BD142F20F730C9A1360CBF3130360
:10040000334300F08F85219B63B9924B22E0924BDE
:1004100001930833219A1360019813B0BDEC048B4B
:10042000BDE8F08F8B4B01930333F3E700220023E9
:10043000504659461BF094F880464BEC19AB58B126
:1004400001230C9A1360219B002B00F068858348E0
:100450001860431E0193DFE7CBF30A5510AA11A9D8
:1004600020464BEC10AB1AF005FE08EE100A002DEA
:1004700000F0828019EE903A5646A5F2FF35CDF88D
:100480003880C3F3130343F07F5747F4401700222B
:10049000734B3046394618F0DBFC65A3D3E90023E3
:1004A00018F08EFE64A3D3E9002318F0D3FC0646AF
:1004B0000F46284618F01AFE61A3D3E9002318F06E
:1004C0007FFE02460B463046394618F0C3FC06460E
:1004D0000F4619F087F80022009000233046394675
:1004E0001BF048F850B1009818F000FE32463B4629
:1004F0001BF036F810B9009B013B0093009B162BB4
:1005000059D8009A574B03EBC20351EC190BD3E9AE
:1005100000231BF02FF800284FD0009B013B0093D5
:1005200000230B93109B5D1B6B1E059349BFC5F108
:10053000010300230493002354BF04930593009BFD
:10054000002B3CDB059B009A13440A920593002381
:100550000793069B092B00F28980052BC5BF043B3E
:10056000002501250693069B023B032B00F28980A0
:10057000DFE803F02E3B395ADDE910531D4405F244
:100580003243202BC6BFC3F1400305F21240C3F132
:10059000200305F1FF35C5BF0BFA03F326FA00F07F
:1005A00006FA03F0184318F091FD01230646A1F165
:1005B000F8770E936BE70123B3E70B90B2E7049B48
:1005C000009A9B1A04935342079300230A93C0E7AF
:1005D00000230893099B002B56DC01231A46CDE922
:1005E000023309920CE00123F3E70023099A0893F0
:1005F000009B134402930133012B0393B8BF0123E3
:100600000022606A4260042202F1140641689E42A0
:100610003ED920461AF06CFA019000283CD1124BCA
:1006200002464FF4D571C1E60123DFE7AFF3008046
:1006300061436F63A787D23FB3C8608B288AC63FE8
:10064000FB799F501344D33FD2950208E9950208E5
:100650000000F07FCE950208C5950208A295020819
:100660000000F83F809702086796020801250023E2
:10067000089506934FF0FF330022CDE90233122391
:10068000AFE701230893F5E7099BCDE90233B7E70C
:10069000013152004160B7E7636A019A1A60039B17
:1006A0000E2B00F29D80002D00F09A80009B002B05
:1006B00032DD03F00F03B64A02EBC303D3E900892E
:1006C000009BD8054FEA231716D5B24B07F00F074A
:1006D0000325D3E9082351EC190B18F09BFE824641
:1006E0008B46AC4E57B942464B465046594618F0D9
:1006F00091FE82468B4628E00225F2E7F90708D5ED
:10070000404649460135D6E9002318F059FD804698
:1007100089467F100836E5E700F09B80009B0225A4
:100720009C4F5E429A4B06F00F02361103EBC20358
:1007300051EC190BD3E9002318F042FD0023824647
:100740008B46002E7AD1002BD3D10B9B002B00F0CF
:1007500082800022904B504659461AF00BFF002829
:1007600079D0039B002B76D0029B002B36DD009BBB
:100770005046594600225F1E884B18F021FD013576
:1007800082468B46029E2846D04618F0AFFC524661
:100790005B46D94618F014FD0022814B18F05AFB35
:1007A0008246A1F1507B002E58D100227D4B40465D
:1007B000494618F04DFB52465B46804689461AF082
:1007C000F7FE002840F0938252460BF1004340466A
:1007D00049461AF0CFFE002840F087825BEC19AB47
:1007E000119B002BC0F24881009A0E2A00F344812D
:1007F000674B03EBC203D3E90089099B002B80F20E
:10080000D580039B002B00F3D18040F06D82002245
:10081000644B4046494618F0D3FC52465B461AF0FA
:10082000BDFE039E3746002840F043823123019DE0
:1008300005F8013B009B013300933EE2F20705D52A
:100840000135D7E9002318F0BBFC012376100837E7
:1008500077E7022579E7009F039E94E701994C4BC7
:10086000314403EBC6030D91089953E90223002993
:1008700043D000204C4918F0CDFD52465B4618F09D
:10088000E7FA019D82468B464946404618F0AAFE8B
:10089000064618F02BFC024630360B4640464946C9
:1008A00018F0D6FA52465B4605F8016B8046894639
:1008B0001AF060FE002863D142464B4600203649BC
:1008C00018F0C6FA52465B461AF054FE002840F073
:1008D000B5800D9B9D4281D00022304B5046594639
:1008E00018F06EFC002282468B46404649462B4B50
:1008F00018F066FC80468946C6E75046594618F00F
:100900005FFC0D9B82468B46019D0F9349464046F6
:1009100018F068FE064618F0E9FB02460B46404612
:100920004946303618F094FA0D9B05F8016B804665
:100930009D4289464FF0000224D11B4B5046594638
:1009400018F088FA02460B46404649461AF030FE37
:10095000002873D152465B460020134918F078FAFC
:1009600002460B46404649461AF004FE00283FF472
:1009700035AF0F9D6B1E0F9315F8013C302BF8D04F
:10098000009749E0054B18F01BFC80468946BDE7FF
:1009900080970208589702080000F03F00002440AA
:1009A00000001C40000014400000E03F56465F4637
:1009B000019D42464B463046394618F02BFD18F053
:1009C00011FE824618F092FB42464B4618F0F8FBA7
:1009D000024630460AF130060B46394618F038FA1E
:1009E00005F8016B019E0246039F0B46AE1BB74202
:1009F00035D118F02FFA42464B4606460F461AF0FC
:100A0000D7FDD0B942464B46304639461AF0A8FDCC
:100A100010B11AF0010F10D1204618EE101A1AF07A
:100A2000A7F8002300982B7001300C9B1860219BC5
:100A3000002B3FF4F1AC1D60EEE4009F2B461D46F9
:100A400013F8012D392A06D1019A9A42F7D13022A2
:100A5000019901370A701A7801321A7090E7002262
:100A6000A44B18F0ADFB0022002306460F461AF0F7
:100A700077FD00289DD0CFE7089A002A00F0D580A6
:100A8000069A012A00F3B9800E9A002A00F0B1807C
:100A900003F23343079E049D049A012120461A4421
:100AA0000492059A1A4405921AF0CCF80746002DD4
:100AB0000CDD059B002B09DDAB42049AA8BF2B4639
:100AC000D21AED1A0492059AD31A0593079B1BB309
:100AD000089B002B00F0AD80002E13DD3946324616
:100AE00020461AF06DF918EE102A014607462046F6
:100AF0001AF0BEF8804618EE101A204608EE108A4A
:100B00001AF036F8079B9A1B06D018EE101A2046EA
:100B10001AF056F908EE100A012120461AF092F850
:100B20000A9B0646002B40F386801A460146204663
:100B30001AF046F9069B0646012B7FDD4FF00008B0
:100B4000336906EB8303186923F0C1FAC0F1200072
:100B5000059B184410F01F0000F09180C0F12003A5
:100B6000042B40F38980C0F11C00049B054403441E
:100B70000493059B03440593049B002B07DD18EEAB
:100B8000101A1A4620461AF075F908EE100A059B4D
:100B9000002B05DD31461A4620461AF06BF9064651
:100BA0000B9B002B6DD0314618EE100A23F0DEFAB5
:100BB000002866DA009B18EE101A0A222046013B34
:100BC0000093002319F0F6FF089B08EE100A002B93
:100BD00000F0AF81002339460A22204619F0EAFFCF
:100BE000029B0746002B00F38D80069B022B50DCF6
:100BF00088E0109BC3F136034CE7039B5E1E079B06
:100C0000B342B7BF079B9E1B0796F21ABFBF0A9B52
:100C100000269B180A93039B002BB7BFDDE9032333
:100C2000DDE903359D1A002336E7079E049D089FE2
:100C30003DE7079A69E7069B012B18DCBAF1000F24
:100C400015D1CBF3130393B92BF000431B0D1B05F8
:100C500083B1049B4FF0010801330493059B0133DA
:100C600005930A9B002B7FF46BAF012070E74FF0D8
:100C70000008F6E79846F4E73FF47EAF18461C30CC
:100C800073E7039B002B37DC069B022B34DD039BB1
:100C90000293029B6BB931460522204619F08AFF68
:100CA0000146064618EE100A23F060FA00283FF7C6
:100CB000BDAD099B019DDB4300934FF00008314619
:100CC000204619F055FF002F3FF4A6AEB8F1000FF3
:100CD00005D0B84503D04146204619F049FF3946B2
:100CE000204619F045FF97E600263746E1E70097D2
:100CF00037469BE500002440089B002B00F0CA808B
:100D0000039B0293002D05DD39462A4620461AF042
:100D1000B1F80746B8F1000F5BD07968204619F0AA
:100D2000E7FE054628B9874B024640F2EA21FFF765
:100D30003DBB3A6907F10C010C300232920022F0FF
:100D4000F6FE0122294620461AF094F8019BB84687
:100D5000074603F10109DDE90123134405930AF075
:100D600001030493314618EE100A23F0C2F84146FD
:100D7000029000F1300A18EE100A09F1FF3B23F04F
:100D8000F5F93A460390314620461AF0E3F8C26876
:100D9000054602BB014618EE100A23F0E7F90246A9
:100DA00029462046079219F0E3FE4D46DDE906325A
:100DB00043EA0201049B0B430FD1BAF1390F2AD049
:100DC000039B002B02DD029B03F1310A8BF800A08C
:100DD00075E73846BAE70122E2E7039B002B04DB04
:100DE00006990B4304990B4322D1002AEEDD18EE3D
:100DF000101A012220461AF03DF8314608EE100A7A
:100E000023F0B4F9002803DCE0D11AF0010FDDD0A3
:100E1000BAF1390FD7D139238BF800302B461D4654
:100E2000013B15F8012C392A70D001321A7046E7BF
:100E3000002A07DDBAF1390FEDD00AF101038BF872
:100E400000303CE7059B09F801AC994546D018EE07
:100E5000101A00230A22204619F0ACFEB84508EE0D
:100E6000100A4FF000034FF00A024146204606D117
:100E700019F0A0FE8046074609F1010972E719F052
:100E800099FE3946804600230A22204619F092FE38
:100E90000746F1E7039B0293019D314618EE100AC5
:100EA00023F027F8019B00F1300A05F801ABEA1A9C
:100EB000029B934209DD18EE101A00230A222046F5
:100EC00019F078FE08EE100AE7E7029B4FF00008E1
:100ED000002BCCBF1D460125019B1D4418EE101AA6
:100EE0000122204619F0C6FF314608EE100A23F011
:100EF0003DF9002892DC02D11AF0010F8ED12B4669
:100F00001D4613F8012D302AFAD0D8E6019A9A42EC
:100F100085D1009B0133009331231370CFE60A4B38
:100F2000FFF798BA219B002B7FF471AA074BFFF7BC
:100F300091BA029B002BAFDC069B022B3FF7A9AEB8
:100F4000AAE700BF67960208A1950208C5950208A6
:100F500010B5054C237833B9044B13B1044800E0B5
:100F600000BF0123237010BD681F00200000000097
:100F70006099020808B5034B1BB10349034800E020
:100F800000BF08BD000000006C1F0020609902082F
:100F9000A3F5803A704700BF174B002B08BF134BD7
:100FA0009D46FFF7F5FF00218B460F461348144A74
:100FB000121A22F0E3FD0E4B002B00D098470D4B88
:100FC000002B00D098470020002104000D000D48A0
:100FD000002802D00C4800E000BF18F007FD2000F8
:100FE000290000F0C1F818F0DBFC00BF0000080089
:100FF0000000000000000000C00A0020A81C002023
:10100000CC3D00200000000000000000F0B50368A7
:10101000494A23F47F4323F007039342044689B0EF
:101020006DD008D8454A934212D002F5A0229342CF
:101030003BD009B0F0BD424A934246D002F57B0254
:101040009342F6D1406809B0BDE8F04000F02CBBF7
:1010500000210DF11E03084607AA0DF0C5FB00B1E3
:10106000FEE7384C20460DF007FB00B1FEE7364D99
:101070003648294600F030FB344B02212A7820788C
:101080000DF034FB034600B1FEE74FF4C862009058
:10109000114620780DF008FB00B1FEE70221207810
:1010A0000DF04EFB0028C4D0FEE7294B032001932E
:1010B0005923284A00932849284B00F0A7FB207B9E
:1010C00009B0BDE8F04000F057BAB0F80550B0F8EC
:1010D0000760B0F8097032463B462946007900F0B7
:1010E00059FA1F4B032001936A23CDE9036700934C
:1010F000184A1A4B1849029500F088FB99E7194BDA
:101100001549019372230320124A0093134B00F0F8
:101110007DFBA0790B4C00F063FA022120780DF0E2
:10112000FBFA00B1FEE7022120780DF009FB002850
:101130003FF47FAFFEE700BFA0000601A000010062
:10114000A0000602EE0E0020D7380020B83800209C
:101150002844020818440208214402088444020872
:101160003B4402087144020807B51BF042FA1BF029
:1011700043FF002006F04AF900F0CAFDFF210020DD
:1011800000F0FEFCC321012000F0FAFCC321022084
:1011900000F0F6FC0321084600F0F2FC03210420D5
:1011A00000F0EEFC00F0C8FC01213A2001F01EFE28
:1011B000094B032001934B23084A09490093094B2B
:1011C00000F024FB00F030FA1AF09FFA1BF01EFA30
:1011D00004F0C4FCFAE700BFA244020893440208EA
:1011E0009D440208AB44020808B50368074A23F48B
:1011F0007F4323F00703934207D1052200211620E5
:10120000034B0DF0DBFA00B1FEE708BDA0000100C2
:10121000B044020810B5234C02F050F802F04EFA28
:10122000236F23F0070343F0030323671AF071FCD5
:101230001D4B00209B6A9B075EBF01221B4B9A62DD
:10124000D4F8203123F0030343F00203C4F8203123
:10125000D4F8243123F0070343F00203C4F8243107
:10126000D4F8403123F0030343F00203C4F84031C3
:10127000D4F8603123F0030343F00203C4F8603173
:10128000D4F8403223F0030343F00203C4F84032A1
:10129000D4F8003223F0070343F00203C4F800320D
:1012A00010BD00BF0080005000C0005000E00050A2
:1012B000024B0349186801F0C9B900BFC00A0020F9
:1012C000C40A002007B5084B042001938423074A71
:1012D00000930749074B00F099FA032003B05DF82B
:1012E00004EB1AF023BA00BF23480208FE470208A5
:1012F00019480208254902087FB51A4B1A4E019376
:1013000037231A4D1A4C2A462146009304203346AF
:1013100000F07CFA012304220321002002F0FEFCED
:10132000002302221846072102F0F8FC002211498E
:10133000072000F0C7FF104B2A4618600F4B2146CC
:1013400001934123029000930420334600F05EFA9B
:101350000B49032000F084F900220A4B1A7004B0F4
:1013600070BD00BF3E48020867490208FE470208F8
:1013700019480208C5120008082000204D4802083C
:1013800059010008D838002030B5144B87B00193BC
:1013900054230D460446CDE90201114A1149009338
:1013A0000420114B00F032FA8DF81550082504F096
:1013B0007F048DF814400D4C4FF49B7004F50053DE
:1013C0001D6405F037FA0A4B0222186805A901F0DE
:1013D00045FB04F58054256407B030BD6A48020817
:1013E000FE470208194802085349020800C003508A
:1013F000C00A0020002370B586B0ADF8143060F04C
:101400007F038DF81030FF2308260446124D8DF817
:10141000113005F500531E644FF49B7005F00AFA75
:101420000E4805AA04A9022305F58055006801F0BD
:10143000EFFA2E649DF815300420CDE90243084BE5
:10144000084A0193742308490093084B00F0DEF921
:101450009DF8150006B070BD00C00350C00A002002
:101460008C480208FE470208194802084049020851
:1014700007B51B4B1B4A01939423042000931A4980
:101480001A4B00F0C3F901211320FFF77DFF07215C
:101490001420FFF779FF4B211520FFF775FF0F216F
:1014A0001620FFF771FF4E211720FFF76DFF122165
:1014B0001A20FFF769FF3E210020FFF765FF642136
:1014C0001120FFF761FF00200123CDE90003084A46
:1014D0000721126802F0CAFB03B05DF804FB00BFED
:1014E000EB480208FE47020819480208154902089D
:1014F00008200020004870475C2000200D4B002190
:101500001A4610B5147814B15488844210D016319C
:10151000422902F12C02F5D100220124197811B9D7
:101520001C70588059700132032A03F12C03F5D145
:1015300010BD00BF5C20002070B506460025074C9A
:1015400023782BB16388B34202D120461AF0E4F825
:101550001635422D04F12C04F2D170BD5C20002020
:10156000044B187820B993F82C0008B993F8580068
:10157000704700BF5C200020012208B5044B83F8AF
:101580008B20FFF7BBFFBDE8084000F0DBB800BFD1
:101590005C2000202DE9F04705460E461746984688
:1015A0004FF0010A0D4C04F18409237863B163887C
:1015B000AB4209D12846A680E780A4F808801AF03B
:1015C000BCF830B184F801A02C344C45EDD1BDE815
:1015D000F087284600F0B6F8F6E700BF5C20002050
:1015E00010B504461AF0EBF82046FFF7A5FF0023DC
:1015F000054C84F88C301AF0FCF8FFF7B1FF08B9FD
:1016000084F88B0010BD00BF5C2000200023194629
:10161000044A01330A2BC2E9001102F10802F8D191
:10162000704700BF0C20002010B50C4CA8220021F0
:10163000204622F0A3FA20461AF06EF804F12C009E
:101640001AF06AF804F158001AF066F8FFF7DEFFA6
:1016500000F0B2FB052384F8A23010BD5C2000200E
:101660000123002230B503FA00F00E4B53F832404C
:10167000844204D1012003EBC203596030BD013222
:101680000A2AF3D10022074C256825B9656815B9E7
:1016900043F83200EEE701320A2A04F10804F3D1DC
:1016A0000020EBE70C20002008B50123002203FAFC
:1016B00000F0084B1968814204D1596811B188477C
:1016C000012008BD01320A2A03F10803F2D10020EB
:1016D000F7E700BF0C20002038B50D46044670B374
:1016E000174822F0A2FB09230130637020701448D0
:1016F00022F09BFB12490246A01C22F018FA104867
:1017000022F093FB032241F61F01C0B2831CDBB21F
:10171000E2548318DBB2E254031DDBB2E152831DB5
:10172000DBB2E254FF22C31DDBB2E25440F262326C
:1017300000F10803DBB2E2520DB10A30287038BD67
:10174000D93800202DE9F04F074600264FF02C082D
:101750004FF00109DFF870A085B0FFF7CBFE08FB62
:1017600006F4035D23B3FFF7C5FE20444388BB4264
:101770001ED1FFF7BFFE20444378CBB9384619F09D
:10178000DCFF0546D0B9FFF7B5FE04F10C0300EB12
:10179000030B41F2883004F087FE0390FFF7AAFEA6
:1017A00052460319CDE90055584603991AF0C7FE71
:1017B0000136032ED1D105B0BDE8F08FFFF79AFEB8
:1017C000204480F80190F3E7ADB7010838B5064C26
:1017D000012594F8F23023B11AF025F884F8F4507A
:1017E00038BD84F8F350FBE70421002010B5064C07
:1017F00094F8F2302BB11AF017F8002384F8F43083
:1018000010BD84F8F330FBE7042100202DE9F04FF0
:1018100007468FB0084699460D46924622F005FBD2
:101820000023052F8346CDE90A33CDE90C33089315
:10183000ADF8243017D9AB4B1C687CB94FF40F724C
:10184000A949AA4B0291AA49CDE90332CDE9002169
:101850002046A84AA849FFF7D9FFFEE74FF40F72C8
:10186000A249A148A047DFF8CC8298F8F130002BBC
:1018700000F0178198F80030BB42C0F01281284672
:1018800000F0B0F9B842C0F00C81284608F101011F
:1018900022F0E7FA002800F004811AAB0793FFF763
:1018A00095FF98F8F540954E64B13146944A002072
:1018B00000F05EFA934B311853F82720044600F0ED
:1018C00057FA04440121384600F0DAF938B18E4B5A
:1018D0002046311953F8272000F04AFA0444022127
:1018E000384600F0CDF9D0B1204631192A4600F033
:1018F0003FFABBF10F0F04440BD82021CBF10F02AC
:101900000AA822F03BF9204631190AAA00F030FA61
:101910000444204631197D4A00F02AFA04441C216F
:10192000384600F0ADF9002848D031192046784AF1
:1019300000F01EFA04210444384600F0A1F990B1E9
:1019400019F073FF31190246204600F011FA1821F0
:101950000444384600F094F928B1204631196B4A06
:1019600000F006FA04440821384600F089F990B1E5
:1019700019F05DFF31190246204600F0F9F91021F7
:101980000444384600F07CF928B1204631195F4AFA
:1019900000F0EEF904441021384600F071F938B136
:1019A00019F047FF31190246204600F0E1F90444DE
:1019B00020463119574A00F0DBF90444E02138464B
:1019C00000F05EF900284AD031192046524A00F052
:1019D000CFF920212518384600F052F990B171193D
:1019E0005246284600F0C4F940210544384600F02C
:1019F00047F97419002857D0484A2846214600F074
:101A0000B7F905448021384600F03AF9B0B1052114
:101A1000189B434A08A818F099FD7119284608AA8E
:101A200000F0A6F940210544384600F029F928B114
:101A300028467119354A00F09BF905444021384683
:101A400000F01EF928B1284671194A4600F090F9B5
:101A500005442846334A711900F08AF92C18C4F558
:101A600080613019079B199A18F0A4FD0444B4F55D
:101A7000806F21D80028B8BF4FF4806440F2FB3358
:101A8000621DB2F5806F88BF1C4698F82030B3B154
:101A9000002325491948335522F0E3F978B9FFF7B7
:101AA000A5FE0FB0BDE8F08F8021384600F0E8F8C1
:101AB0000028A7D0154AA0E74FF48064DEE798F825
:101AC000F5302BB120463119184A00F051F9044481
:101AD00031192046164A00F04BF92118074819F031
:101AE0009DFEDCE7FC210020964902087C4A0208A2
:101AF000B04902087649020891490208E5380020F9
:101B0000D2490208B04A0208C84A0208849502086D
:101B1000D3490208D5490208D8490208DA4902081F
:101B2000DC490208234A020824210020E049020877
:101B30007A950208042100201FB50B4B93F8F02082
:101B400072B1012283F8F120084B03200293084B65
:101B5000084A0193F42308490093084BFFF756FE07
:101B600005B05DF804FB00BF04210020E549020830
:101B7000EC4902087649020891490208614A0208C4
:101B800070B5052804460D4686B017D90E4B1E6861
:101B90007EB94FF49F720D490D4B02910D49CDE96D
:101BA0000332CDE9002130460B4A0C49FFF72EFEE7
:101BB000FEE74FF49F7206490448B047084B36349D
:101BC00043F8245006B070BDFC210020964902085D
:101BD000A04A0208B0490208764902089149020861
:101BE00004210020F0B5074687B0B0B91D4B1B6833
:101BF00073B94FF4EF721C491C4B02911C49CDE99B
:101C00000332CDE900211B4A1B49FFF7FFFDFEE728
:101C10004FF4EF72154914489847184D95F8F03075
:101C2000EBB1FFF7D3FD2E46002496F8513083B177
:101C30001E22384606F1320122F0FFF848B904EBC3
:101C400044142C4494F83140FFF7D0FD204607B0EF
:101C5000F0BD0134052C06F12106E6D1F4E7052498
:101C6000F4E700BFFC210020124A0208884A02085B
:101C7000B04902087649020891490208042100206F
:101C800070B5052804460D4686B017D9104B1E685E
:101C90007EB940F2DB220F490F4B02910F49CDE98B
:101CA0000332CDE9002130460D4A0E49FFF7AEFD63
:101CB000FEE740F2DB2208490648B0470A4B3634BB
:101CC00053F824301D4214BF0120002006B070BD1F
:101CD000FC210020964902086C4A0208B04902081B
:101CE000764902089149020804210020074B83F835
:101CF000F20050B193F8F32093F8F43013B922B105
:101D000019F091BD0AB919F08FBD70470421002068
:101D1000F8B5164D95F8F0302BBB19F07DFD044653
:101D2000F8B90120FFF7E2FF4FF480730522A5F810
:101D3000F4302B462646274685F8F34003F8322B2D
:101D400018461F22002121F019FF03460136052EF7
:101D500000F8017CC77703F12103F1D1012385F855
:101D6000F0302046F8BD0024FBE700BF042100202E
:101D700070B529B92C210C4B0C4A0D4817F0EAFD1F
:101D80003AB11446431A204614F8015B2DB9801A63
:101D900070BD2D21074B054AEFE7CE18B6F5806FD1
:101DA000F5D201F8015BEEE7E04A0208094B0208B0
:101DB000E44A0208054B0208502208B500200549F4
:101DC00019F039FD0022044B5A601A60C3F807204D
:101DD00008BD00BF14380020EF0E002008B50B46E8
:101DE000034909680144184621F0A1FE002008BDFE
:101DF000E40A002008B500F02DF8124B12498B427E
:101E000012D30020114B12498B4218D3FFF7C4F8AC
:101E1000186850F82240586840F82240013298680B
:101E20008242F5D30C33EAE70022F8E71C6844F855
:101E3000220001325C68A242F8D30833E4E70022B2
:101E4000F8E700BF689902087499020874990208BB
:101E5000749902084FF400414FF0FF30114B124AC1
:101E600010B59A60D3F8882042F47002C3F8882035
:101E70000E4A916601F1884101F5005210660C4846
:101E800050660220C3F8D000BFF34F8FBFF36F8FAF
:101E900008244FF440330748C0F88041D360046001
:101EA0000B6110BD00ED00E0000000080090005044
:101EB0007FFF070000E100E0014B1868704700BF9A
:101EC000EC0A0020084B1B6F03F00703022B04D021
:101ED000032B05D0012B05D0FEE7044B1868704793
:101EE000034BFBE70348704700800050EC0A0020DA
:101EF000F00A0020002D310108B5FFF7E3FF054B84
:101F00001B6FC3F303330133B0FBF3F0024B1860D4
:101F100008BD00BF00800050E80A0020004870475C
:101F200000B4C404014B1868704700BFF00A0020D9
:101F3000054B1860054B1B6F03F00703032B01D102
:101F4000FFF7DABF704700BFF00A002000800050A2
:101F500000487047002D3101014B1868704700BFE1
:101F6000F40A002005490A681318054883428CBF0B
:101F70004FF0FF320B601046704700BFF80A002098
:101F8000000001202DE9F04F9A46564B85B01B7892
:101F900006460F461546DDF83C909DF844B0DDF846
:101FA0005080002B00F08D80072A00F28C800E9B61
:101FB000002B00F08880B9F1000F00F08480129BA4
:101FC000B3F5006F7FDC012802D1109B002B7AD083
:101FD000454B03EB05131B7B002B76D0434C1022A3
:101FE0000021684621F0CAFD04EB45141022002FA1
:101FF00059D13946204621F0C1FD43F210036380D8
:10200000BBF1000F03D1E37843F00303E370374AD9
:102010000E9B02EB451CCCE90193129B6901013B2D
:10202000C3F30A009DF84C30012E03F003034FEA7E
:10203000836343EA001E53582D48CDF800A000EA00
:1020400003004EEA0003535041D113230CF1100E4C
:10205000CCF80C309CE80F008EE80F006FF0030105
:10206000DCF81C20109B61F39F02012FCCF81C2090
:10207000CCF8143003D1CCF81890CCF804300027F9
:10208000194A290102EB051342F80180159A2846E6
:102090005A60694622469F605E7301F0B1FE384681
:1020A00005B0BDE8F08F0021204621F067FD4FF418
:1020B00044736380BBF1000FA9D1E37843F0300390
:1020C000A4E70C48ECE70C48EAE70C48E8E7B8F16D
:1020D000000FD4D19CF8023068F304138CF802305E
:1020E000CDE700BFE53C0020002200208022002038
:1020F0000F80FFF3028000F0018000F0078000F005
:1021000038B5124B05461B78DBB1E0B119F01DFD67
:102110000F4A00231146147B54B92B6001251A0184
:1021200001EB03131D738C5019F015FD204638BDCB
:102130000133082B02F11002EDD119F00CFD054816
:10214000F5E70548F3E70548F1E700BFE53C002067
:1021500000220020048000F0028000F0018000F0E6
:10216000154B13B51868002301908DF8043019F051
:10217000ECFC124B1C7824B119F0EDFC104802B0B5
:1021800010BD01221A7019F0E6FC0E4B01A81C7359
:102190001C7783F82C4083F83C4083F84C4083F84C
:1021A0005C4083F86C4083F87C4008238DF807304E
:1021B00001F0F4FD2046E2E7154B0208E53C002063
:1021C000038000F000220020204B2DE9F0471F6D16
:1021D0005A6D1F4C174010D54FF000411D4A116534
:1021E000D868C0F304200301E35804EB00125BB38A
:1021F000BDE8F04700215268184701260025DFF8A6
:102200005480DFF85490374217D02368C8F85060E4
:102210009BB1A168284601316268A1609847637B41
:10222000012B0AD148B909EB45131A7B60F341022F
:102230001A731A7F60F341021A770135082D4FEAAD
:10224000460604F11004DED1BDE8F087000004501A
:1022500000220020002004508022002070B5044697
:1022600001250B4E04B970BD94FAA4F0B0FA80F0C9
:1022700005FA00F306EB001224EA03045368002B6E
:10228000F0D0117B11B191689847EBE79847E9E7E7
:102290008023002008B51E2001F04EFA28B14FF02F
:1022A0008042074BC3F880211A601F2001F044FAD6
:1022B00028B14FF00042024BC3F880211A6008BDDC
:1022C00000E100E0F8B505460F46164619F03DFC62
:1022D000104B05F0FC02D3F824140023EC1804F092
:1022E0000304144321FA04FC1CF0010F07D001334E
:1022F000042BF3D1FF2419F02EFC2046F8BDFF2C4F
:10230000F9D00122044B03EB0413C3E901761A73DD
:10231000F1E700BF00C0035080230020074BD3F833
:102320002404D3F8202403F50053104000F0553066
:1023300020F05020C3F82004FFF790BF00C00350E6
:10234000074BD3F82404D3F8202403F5005310409E
:1023500000F0AA3020F0A020C3F82004FFF77EBFD1
:1023600000C00350024B1968024B18680FF030BDD3
:10237000000B0020FC0A002037B5920004460D46F1
:10238000019222F039F8431C0BD060B9294620464F
:10239000019A21F0BCFB0028044808BF002003B0CC
:1023A00030BD0348FBE70348F9E700BF10E000F049
:1023B00021E000F024E000F010B5044622F024F8FB
:1023C000431C10D088B901F011FE234620F0030011
:1023D0002044984201D1002010BD53F8042B013253
:1023E000F7D00348F8E70348F6E70348F4E700BFEF
:1023F0000EE000F021E000F024E000F008B519F054
:102400009DFB014B186008BDC02B0020014B1868D4
:1024100019F098BBC02B002038B50546B0B1B9B152
:10242000B2B1B2F5006F13DC19F08FFB95F84C30A8
:1024300003F0FF041BB119F08EFB064838BD0123E1
:1024400085F84C3019F087FB2046F7E70248F5E79E
:102450000248F3E7032000F0012000F0022000F022
:102460002DE9F04F1E46002387B080F85430109BB2
:102470000446436390F85C3089469246C663002B5D
:1024800038D14FF4406305686B614369092B03D968
:1024900005F12C08443506E00BBF05F1200805F1D5
:1024A000240838353C3567694FF0010B082F94BF7D
:1024B00000270127204619F000FB134B5246CDE9B7
:1024C0000273216B4346A06A04940196CDF800B0D4
:1024D00019F0E0F900232A46CDE90333CDE901677D
:1024E0004B46E16A606ACDF800B019F0B9F907B05F
:1024F000BDE8F08F012BFAD1006819F01FFA2568AA
:1025000005F13C08C6E700BF7DBA01082DE9F04798
:1025100016460022436390F85C300446894686B034
:1025200080F85420C663002B38D14FF4406305680F
:102530006B614369092B03D905F12C08443506E08A
:102540000BBF05F1200805F1240838353C356769D3
:102550004FF0000A082F94BF00270127204619F0EA
:10256000ACFA134B216BCDE9027304F138024346F8
:10257000A06A04940196CDF800A019F08BF901230C
:102580002A460093CDE903AA4B46CDE90167E16AEB
:10259000606A19F065F906B0BDE8F087012BFAD141
:1025A000006819F0CBF9256805F13C08C6E700BFC3
:1025B0007DBA010801292DE9F84321D81F4B204E8F
:1025C0001C68204FDFF88080803C14F1800F01D11F
:1025D000BDE8F883D4F800900521B1450CBF3D4615
:1025E0004546484619F0FAFA19F0A8FA2B6843F064
:1025F00018032B6019F0A6FAD4F88040803CE4E779
:1026000002390129E4D80D4B0D4E1C680D4FDFF83F
:102610003880803C14F1800FDAD02368B3420CBFBD
:102620003D46454619F08AFA2B6823F018032B60C3
:1026300019F088FAD4F88040803CEBE7742C002035
:102640000000045A8CC403506CC403502DE9F043BD
:102650006A4BD1F800908FB0994505460C460DF1B4
:10266000180840F0E5804746654ECDF814800FCE3F
:102670000FC796E80F00103687E80F000FCE01AFA6
:102680000FC7002D00F0B78084220021284621F0DA
:1026900075FA23684B4510D05A4E5B4B1B681BB92B
:1026A0005A495B4803F038FA574805F1800119F0A0
:1026B000D3F830460FB0BDE8F08354222B600123DD
:1026C0002A6527464FF48812DFF860E185F85C3010
:1026D0002E1DC5E90BE20FCF0FC697E80F0086E865
:1026E0000F00637E012B08BF8DF81D30A37E23B140
:1026F000012B69D104238DF81230227EE368012A70
:1027000069D1444A93429CBF05238DF8353000239C
:102710008DF81130404B01213A20039300F066FB05
:102720000121286D00F062FB2369DA1F092AB3D862
:10273000063B8DF81030237E2BB9E37EB3FA83F38A
:102740005B098DF81C300121284619F002F9064674
:102750000028A2D1237A227942EA03422F4BC3F800
:10276000A424617A627942EA0142C3F89C24A17AE6
:10277000A27942EA0142C3F8A024E27E002A40F096
:102780003181E17AE27942EA0142C3F890241D22C4
:10279000C3F88C24206801A901F0C6F919F0D5F915
:1027A0001F4B1A78DAB901221A7019F0D4F903F024
:1027B000B1FDFFF7D5FC002105F12400FFF7A0FCD7
:1027C000014678B1174E68E7022B94D0032B7FF4B3
:1027D00063AF06238FE700228DF834209BE719F0C2
:1027E000BAF9E6E705F12800FFF78AFC064600285B
:1027F0003FF453AFE6E70C4E4FE700BF0000045A2A
:10280000404B0208022000F0742C0020200B002016
:10281000782C00203F4B4C0040420F0000C003507A
:10282000E63C0020092000F0012000F0010011002A
:1028300046466D4F0FCF0FC697E8070086E80700A2
:10284000002D00F0CD8084220021284621F096F949
:102850002368664A934240F0908028222A654FF40C
:1028600080220026624FC5E90B722F46A44647F826
:10287000043BBCE80F000FC79CE80F0087E80F007F
:10288000637E012B08BF8DF82630A37E33B1012B68
:1028900040F081804FF40073ADF82830237E012191
:1028A000012B03BF00238DF825304FF4E133E3689B
:1028B0003A20089300F09AFA0121286D00F096FA68
:1028C00023691A1F0C2A5BD8033B414620688DF808
:1028D000243001F0C3FBA36923F47F0323F47F4377
:1028E00023B92A68936843F480339360227A23796A
:1028F000607943EA0243627AA17940EA0240A27A0F
:1029000094F81BC041EA02413A4A77013A4436B290
:10291000BCF1000F49D11D277601C2F83476C2F808
:102920004C3606F1A04303F57033C3F84406C3F8F0
:102930004816E17AE37943EA0143C2F838360121C7
:10294000284619F006F8064600287FF4B2AE19F0C2
:10295000FCF8294B1A78BABB01221A7019F0FBF85F
:1029600003F0D8FCFFF7FCFB002105F12400FFF782
:10297000C7FB014658B3214E9BE6214A934201D042
:10298000204E96E629222A654FF4A0221E480126F1
:10299000C5E90B0269E7022B02D14FF480737BE794
:1029A000032BEDD14FF4407376E71C247601C2F877
:1029B0003446C2F84C3606F1A04303F57033C3F831
:1029C0004406C3F84816BAE719F0C5F8CAE705F196
:1029D0002800FFF795FB064600283FF46AAECAE7D9
:1029E0000A4E66E61C22D3E6744B020800C005506E
:1029F0000200040000C00350E63C0020092000F063
:102A000000000650022000F002000500012000F046
:102A10007FB51546027F0446012A0E4613D01A469A
:102A20000393FFF7F9FC60B97DB1094A31462046AE
:102A3000039B00922A46FFF713FD204618F0F4FF8F
:102A4000A06C04B070BD0348FBE70348F9E700BF82
:102A500033B90108082000F0022000F070B5037FB0
:102A60000446012B0D4616460DD0FFF7D5FC48B99C
:102A7000324629462046054BFFF748FD204618F010
:102A8000D3FFA06C70BD0248FCE700BF33B901085A
:102A9000082000F0044BD3F88420D206FBD4D3F8EE
:102AA0008400C0F3811070470040005038B5104BCF
:102AB0000546D3F820310C4603F00303022B0BD05C
:102AC000032B0DD0012B0FD1FFF7F6F9052305B12C
:102AD000286004B1236038BDFFF724FA0323F6E72A
:102AE000FFF736FA0223F2E701230020EFE700BFE9
:102AF0000080005073B50D4600210E4B0191D3F8B4
:102B00008041064604F00304012C09D0022C0CD0AD
:102B10000C460EB1019B336005B12C6002B070BD54
:102B200001A8FFF7C3FF0F24F3E7FFF711FA0190A5
:102B3000EFE700BF0080005038B5184B0546D3F8CA
:102B400024010C4600F00700062805D8DFE800F055
:102B5000230B131B1F0F17000023184605B1286015
:102B600004B1236038BDFFF7A7F90523F6E7FFF7A7
:102B7000A3F90623F2E7FFF7D5F90323EEE7FFF702
:102B8000D1F90423EAE7FFF7E3F90223E6E718F0B7
:102B900058FE0723E2E70123E0E700BF0080005072
:102BA00038B5104B0546D3F840310C4603F003030B
:102BB000022B0BD0032B0DD0012B0FD118F043FEAD
:102BC000092305B1286004B1236038BDFFF7C4F9BB
:102BD0000823F6E718F03AFE0B23F2E70123002062
:102BE000EFE700BF0080005037B50C460021124BC4
:102BF0000191D3F88432054603F00303022B0ED073
:102C0000032B11D0012B14D101A8FFF74FFF0F2385
:102C10000DB1019A2A6004B1236003B030BD01A850
:102C2000FFF7BEFF1023F3E7FFF792F902230190AD
:102C3000EEE70123ECE700BF0080005038B5144BED
:102C40000546D3F800020C4600F00700042804D81B
:102C5000DFE800F01B0A0E1216000023184605B12B
:102C6000286004B1236038BD18F0EDFD0923F6E7B4
:102C7000FFF772F90823F2E718F0E8FD0B23EEE7FF
:102C8000FFF73AF90E23800AE9E70123E7E700BFDF
:102C90000080005038B5104B0546D3F840320C4642
:102CA00003F00303022B0BD0032B0DD0012B0FD10C
:102CB00018F0C9FD092305B1286004B1236038BDAF
:102CC000FFF74AF90823F6E718F0C0FD0B23F2E7F7
:102CD00000231846EFE700BF0080005038B5104BC6
:102CE0000546D3F860310C4603F00303022B0BD0EA
:102CF000032B0DD0012B0FD118F0A5FD092305B131
:102D0000286004B1236038BDFFF726F90823F6E7F1
:102D100018F09CFD0B23F2E701230020EFE700BF32
:102D20000080005038B50C46054618F007FF064BEA
:102D30009A6A82EA040101EA050454409C62BDE8F3
:102D4000384018F0FFBE00BF00C00050B0F5207F33
:102D50001FD009D8B0F5007F15D003D868B1B0F501
:102D6000C07F0AD000200CE0B0F5607FFAD10B4B99
:102D7000D3F88000C0F3011003E0084B186FC0F3D4
:102D8000033001307047054BD3F89000C0F3046066
:102D9000F7E7024B186FC0F38020F2E70080005085
:102DA0004FF400320E4B014610B500209A66FFF733
:102DB000CDFF41F6713248430A490B4B88428CBF24
:102DC0004FF480100020DC69DA635A6822F4401264
:102DD00002435A60E20344BF0022DA6310BD00BF21
:102DE00000900050005A620200000350420910B5E2
:102DF00010D0012A10D00B4B0B4C022A18BF2346CF
:102E000000F01F0051B103F58053012202FA00F0D7
:102E1000186010BD1346F3E7044BF1E703F50053C8
:102E2000F3E700BF6880005060820050648000506B
:102E30001FB5002280280446019200F00C8100F2A8
:102E4000BF803F2836D9A0F14D04142C02D9019837
:102E500004B010BD142CFAD801A353F824F000BF1D
:102E6000DF2F00084F2E0008DF2F0008DF2F00089B
:102E7000DF2F0008A3300008FD2F0008AD30000848
:102E80004F2E00084F2E00084F2E00084F2E00082E
:102E90004F2E00084F2E00084F2E0008F730000874
:102EA0004F2E00084F2E00084F2E0008DF2F00087D
:102EB000DF2F00083F28CAD801A353F820F000BF35
:102EC000DF2F00084F2E00084F2E00084F2E00085D
:102ED0004F2E00084F2E00084F2E00084F2E0008DE
:102EE0004F2E00084F2E00084F2E00084F2E0008CE
:102EF0004F2E00084F2E00084F2E00084F2E0008BE
:102F00004F2E00084F2E00084F2E00084F2E0008AD
:102F10004F2E00084F2E00084F2E00084F2E00089D
:102F20004F2E00084F2E00084F2E00084F2E00088D
:102F30004F2E00084F2E00084F2E00084F2E00087D
:102F4000DF2F000871300008DF2F00087130000803
:102F5000A3300008A3300008A3300008A330000805
:102F60007130000871300008B7300008FD2F0008EC
:102F7000E33000084D300008FD2F000871300008D4
:102F800071300008713000084F2E00084F2E0008E5
:102F90004F2E00084F2E00084F2E00084F2E00081D
:102FA0004F2E00082F3000087130000871300008E3
:102FB00071300008F7300008ED300008713000086B
:102FC000B0F5806F6DD024D8B0F5007F47D009D818
:102FD000B0F5807F74D0B0F5C07F7FF438AFFEF7D6
:102FE0008BFF3AE0B0F5607F48D03FF630AFB0F5E8
:102FF000207F3DD0B0F5407F7FF429AFFEF77CFF06
:1030000002464FF42070FFF7A1FEB2FBF0F040083B
:1030100023E0B0F5C06F64D00ED8B0F5A06F45D0F6
:10302000B0F5B06F47D0B0F5906F7FF410AF0021CE
:1030300001A8FFF781FD0AE7B0F5E06F56D0B0F5C3
:10304000F06F58D0B0F5D06F7FF401AF002101A828
:10305000FFF7F4FDFBE6FEF735FF0190F7E6FEF71C
:1030600031FF02462046FFF771FEB2FBF0F0F4E7B5
:10307000FEF742FF02464FF42070F4E7204BD3F8EE
:10308000803003F00303012B04D0022B06D04FF451
:103090006070E8E7FEF716FF0246F8E7FEF70CFF60
:1030A000FAE7002101A8FFF701FDD0E6002101A801
:1030B000FFF79AFDCBE6002101A8FFF71BFDC6E64E
:1030C0004FF0E02302921B695B0705D5FEF714FF62
:1030D0000290029B0193BAE603A902A8FFF760FDE4
:1030E000F7E7002101A8FFF75BFDB0E6002101A88A
:1030F000FFF7D0FDABE6002101A8FFF7EFFDA6E644
:103100000080005008B58020FFF792FE034B9842E4
:103110009EBF4FF48032024B1A6708BD005A62020C
:1031200000A000501FB50023B0F5607F019300F0B0
:10313000A88036D8522800F08B8016D82D280BD8BE
:1031400023280ED9243809280BD8DFE800F0818124
:1031500081810A0A7C0A438B3D280ED03E2800F06C
:10316000A680019805B05DF804FB802853D009D8EB
:10317000542800F097805C28F3D1002001A9FFF7C4
:10318000ADFDEEE7B0F5807FEBD102934FF0E02389
:103190001B695B0761D5FEF7AFFE0C230393039B0E
:1031A0004DE0B0F5D06F5DD019D8B0F5A06F79D0F3
:1031B0000AD8B0F5806F4BD0B0F5906FD1D1002018
:1031C00001A9FFF7B9FCCCE7B0F5B06F3BD0B0F583
:1031D000C06FC6D1002001A9FFF7E2FCC1E7B0F53E
:1031E000006FECD005D8B0F5E06F60D0B0F5F06FAF
:1031F000C2E7B0F5086FB4D12F4BD3F8003103F01C
:103200000303022B33D0032B35D0012B37D1FEF72C
:1032100089FE032313E0284B1B6F03F00703013BD8
:10322000032B9ED801A252F823F000BF43320008BE
:103230003D320008133200087B3200080523019359
:103240008FE70223FBE7002001A9FFF753FC88E783
:10325000002001A9FFF72AFC83E703A902A8FFF7D2
:103260009FFC9CE7002001A9FFF7E8FC79E7FEF747
:1032700073FE0823E3E718F0E4FA0723DFE70123EE
:10328000DDE70D4AD2F8802002F00302012A05D0C2
:10329000022AD4D1FEF710FE0623D0E7FEF712FE75
:1032A0000D23CCE7002001A9FFF79EFC59E7002081
:1032B00001A9FFF7EFFC54E7008000504FF4002213
:1032C000034B5A66012203F580439A62704700BFA0
:1032D0000090005008B5FFF725FF082811D00938E5
:1032E000012811D84FF40012094B4FF6FF705A66AF
:1032F00003F5D8335B6A13F0010F18BF4FF4FA706F
:1033000008BD044B1888FBE74FF6FF70F8E700BFD5
:1033100000900050DC0E002070B504468020FFF7BE
:1033200001FF032800F082804FF40022444B022169
:103330005A6645F60E03434AC2F88030424B996202
:10334000012103F580539962936DD903FCD4D4E92C
:1033500000131B0543EA0163E17B94F822500B4301
:10336000217B94F8236043EA0143617B43EA013304
:10337000A17B43EA811313619169D4E904031B061D
:1033800043EA806301F000410B43A17EE07E0B43E2
:10339000217E43EA0143617E43EA01239361E369AD
:1033A000126A002B0CBF0021082122F00D0242EA14
:1033B000030242EA8002234B42EA01021A6294F8B5
:1033C00020204FEA421232D1986A94F8211020F05E
:1033D000330042EA0112024342F001029A621B4AA0
:1033E000996D32EA0101FBD1022217498A621A65FE
:1033F0009A6D5200FCD41869A26820F4700040EA6B
:1034000002504FF0004218610F4B9A611DB9022221
:1034100003F580539A6216B901220D4B9A6294F813
:1034200024301BB1074B0B4AC3F8802070BD996A4A
:1034300021F0330131430A4342EA4502EEE700BF7F
:103440000090005000C0005000D000500300014028
:1034500000E00050F1A7FFFF1E4B13B5996A9A6D6B
:1034600012F4803F18BF01241B4A18BF9462022443
:1034700094629B6DDB0303D5164A936D9C07FCD5C4
:103480000222154B134C1A65A36D5B00FCD4134B41
:10349000A26993F9003022F47F020344000222F46F
:1034A0007F4280B283F30803104340EA0340A061E7
:1034B00002200191FFF736FCA36D019913F4803FC0
:1034C00005D0012002B0BDE81040FFF72BBC02B0D0
:1034D00010BD00BF00C0005000D00050E73C0020ED
:1034E000014B93F900007047E73C0020012215488A
:1034F000154B816A9A62826D02F00302032AFAD1A7
:1035000002229A621A650F4B9A6D5200FCD40F4A40
:10351000986D32EA0000FBD101220B4B1A65A3F52E
:1035200080539A6D9007FCD49A6D9207FCD50222C5
:10353000054B1A65034A936D9B07FCD50320FFF7E3
:10354000F1BB00BF00C0005000D0005003000100DC
:10355000F0B5D0E901434FF480061A4A4178057866
:1035600056664FF4D156022702F5B8325662164E0F
:103570004F2977604FF0010728BF4F2106F580568D
:1035800077601669F603FCD441EA052151611B01FD
:10359000417B43EA04230B43017B43EA41039360ED
:1035A000C37B817B1B0143EA4113417C0B43017CBC
:1035B00043EA41035360837C13B16FF4D1535362E8
:1035C000F0BD00BF0090005000100250014B188069
:1035D000704700BFDC0E0020014B1880704700BF11
:1035E000DA0E0020B0F5207F10B50C4657D008D871
:1035F000B0F5007F48D003D830B3B0F5C07F23D0FA
:1036000010BDB0F5607FFBD129492A48D1F8FC20D4
:1036100012F080721EBFD1F8FC3023F08073C1F825
:10362000FC30D0F88030611E23F0300444EA0114ED
:10363000C0F88040002AE3D01D4AD2F8FC3043F0A5
:103640008073C2F8FC30DBE718F050FA18F05CFA2F
:103650004FF48031184B174A1967136F611E23F41A
:10366000704444EA01341467FEF746FC0446FFF751
:1036700011FAC0F10201204618F040FA00F02EF8CD
:10368000BDE81040FFF73EBD0A4A0139D2F890303C
:1036900023F0F85444EA0164C2F89040B0E7054BC7
:1036A000013C196F21F4806141EA84241C67A7E77B
:1036B00000ED00E0008000500090005008B50121AE
:1036C000022000F0B3F818F011FA18F01DFA4FF4C8
:1036D0008032014B1A6708BD0090005008B54FF4C6
:1036E000C070FFF7A5FBBDE80840044988428CBFC5
:1036F000022101214FF42070FFF774BF80F0FA021D
:103700000028ABBF00F16040054B00F5614000F0C0
:103710000F00ACBF90F80003185C0009704700BFB1
:1037200014ED00E0034B5868C0F30800003818BFE0
:103730000120704700ED00E0054B420953F82230AC
:1037400000F01F0023FA00F0C04300F001007047B2
:1037500000E100E0014608B5EFF31083DB0702D576
:103760000122104608BDFFF7E7FF02460028F7D107
:103770000846FFF7C5FF0146EFF3118313B1B0EB25
:10378000131FEDD2074B5B68C3F30803002BE8D08F
:10379000103B58B2FFF7B4FF88428CBF00220122D1
:1037A000DFE700BF00ED00E0044A4178536F23F4E7
:1037B000407343EA01235367704700BF0040005045
:1037C0000A4A10B51369044643F00403136102F07A
:1037D000C1FB18F0C3F930BF18F0C1F902F0DCFBEF
:1037E0001CB9BDE81040FEF787BB10BD00ED00E03E
:1037F000084A10B51369044643F00403136102F04C
:10380000A9FB30BF02F0C8FB1CB9BDE81040FEF7B1
:1038100073BB10BD00ED00E0034A0179D36E23F0C5
:1038200030030B43D366704700400050F8B50446A0
:103830001C4BD3F88420D106FBD4D3F88430C3F3D7
:1038400081139C422CD0FEF73DFB012C064602D191
:10385000214618F053F918F071F94FF00072124B2D
:1038600007465A66204618F07DF94FF480630D4DE7
:10387000621E93402B676B6E9A0103D4D5F8843097
:103880009B060AD5384618F05DF9022C08D130465F
:10389000BDE8F840002118F031B9D5F88430EAE7E6
:1038A000F8BD00BF004000500060005007B518B9D7
:1038B0000191FEF707FB0199064B1B7843B1064BBC
:1038C000984205D8012003B05DF804EBFFF7AEBFC6
:1038D0000220F8E7E83C0020005A62020278034B1D
:1038E000012100201A70FFF7E1BF00BFE83C002073
:1038F0004FF0004238B5254B5A664AF6CD33244A7C
:10390000D2F89440C2F8903004F0010448BB136C24
:1039100013F00103FBD15268D20709D400251CB172
:103920001B4B1C4AC3F890201FF0AEFC284638BD44
:103930000121194A51601649184AC86BC50705D4B8
:10394000934201D10725EAE70133F6E79342E5D137
:10395000F8E70131D36B13F0080305D08142F8D1A9
:10396000F0E700210D48F5E78142EBD020210A4A1B
:1039700051630121A2F5805251600549074A486B05
:103980008006E3D49342DDD00133F8E70090005085
:10399000004009503254FFFF0060095040420F00C0
:1039A0004FF0004238B5184B184C5A664AF6CD33E2
:1039B000D4F89450C4F890304378154A5B0043F033
:1039C000010305F00105D363236CDB07FCD46368B6
:1039D000827823F0700343EA02136360C27843796C
:1039E00043EA0223E3600279837943EA02232361F5
:1039F0000078FFF77DFF15B1064BC4F890301FF03B
:103A000043FC012038BD00BF009000500040095029
:103A1000004000503254FFFF10B518F0A8F82023E2
:103A200041F2020203610023C360836042614FF4EC
:103A3000A02207498361426200F50052C36103621C
:103A40008362C36243630365D164036310BD00BF37
:103A5000FF3F0D03F8B50546144639B9304B98427F
:103A600014BF08465420FFF7E3F90146AB68D807B6
:103A70002CD5B1FBF4F16E684C1E16F0010623D074
:103A80002821284618F06FF8AB6C9A0718D1AB6C58
:103A9000DB0717D4AB6C13F0020F0CBF002706270F
:103AA000284618F064F8286920F07F4040EA046452
:103AB0002C61AEB139462846BDE8F84018F08EB802
:103AC0000527EDE70927EBE73746ECE76B68A868C1
:103AD00000F0E00040281BD003D8D8B120281BD02C
:103AE000F8BD60281AD08028FAD1012304FB03F224
:103AF0004901B1FBF2F10B4A2039284602EAC10222
:103B0000012118F030F82A63BDE8F84018F02BB80E
:103B10000623EBE71023E9E70823E7E70423E5E7BB
:103B20000000045AF8FF7F00436870B504460D4654
:103B30000E691BB140F6FF7118F015F82046FFF72B
:103B40006BFF22696B7BA97B22F087020B43134337
:103B500043F08003236116B32A692369117823F0A7
:103B6000F8030B43117F43EAC113117943EA411370
:103B7000517A43EA0113D17B43EA81132361E1685F
:103B8000D2E9053021F0F04121F4702103430B43C9
:103B9000117B527B43EA812343EAC233E360A3688B
:103BA000EA7B23F00303134343F00103A3602EB326
:103BB0002A69A168538803F4C0430B43A360517979
:103BC000A36843EA8123A3609379D079616A1B01DA
:103BD000000203F0700300F4E06021F4772121F487
:103BE000EE6103430B43117A527F090301F4E04174
:103BF00012040B4302F470221343636263692A7B4D
:103C000023F00F0313436361B6B12B695A89A26194
:103C10005A7B3AB1134A944201BF9A7B124902F08F
:103C20000F024A66DA7B3AB10E4A944201BF1B7C0E
:103C30000D4A03F00F031366D5E901122046FFF782
:103C400009FF0521204617F0ACFF282117F08BFF54
:103C50002B78A36317F087FFA36CDB4313F4405F5B
:103C6000FAD170BD0000045A00900350072AF7B53E
:103C700001F0030614461F464FF003012CD89500AF
:103C8000A94000FA05F21C48019117F0ACFF019918
:103C90001A4806FA05F217F0A6FF194B19499DF8C4
:103CA0002000002F08BF1946012303FA04F40C601A
:103CB000154B1649002808BF0B461C60144B9DF895
:103CC0002400C3F820441031A3F6DC33002808BFD9
:103CD0000B461C6003B0F0BDA2F10805AD00A94081
:103CE00000FA05F20B48019117F07DFF01990A488F
:103CF00006FA05F2CFE700BF00C4035008C4035022
:103D000010E4035010D4035014D4035014E40350AF
:103D100000E0035004C403500CC403502DE9F041EB
:103D200005460F461E4690464AB101233022194CE3
:103D30008B4002FB00443EB304F5825423600F2104
:103D4000072F05EB450388BFA7F108044FEA0313CB
:103D5000114895BFBC00A40004330C3308FA04F2E8
:103D6000A140184417F03FFFB8F1000F0AD101211C
:103D70003020084A01FA07F700FB05223EB102F5A0
:103D800082521760BDE8F08104F50154D6E702F5D0
:103D90000152F6E700C0035030C0035010B50121B6
:103DA00004462020FFF722F801212120FFF71EF80A
:103DB0000122114B5A60227812069A606178A2782B
:103DC00042EA01429A61FF229A6200229A631A64CF
:103DD0004FF000425A654FF0FF324FF0806103F51B
:103DE00000531A65054AC2F88011E3781B01DBB263
:103DF00082F81A33116010BD0000045000E100E0A9
:103E00002DE9F0410125C3B2D1F8008091F80AC034
:103E10000F7B91F80DE09D400C46CB7A1C491D4E5E
:103E20000D65810001F1A04101F58821C1F80480F0
:103E3000302101FB00601B0543EA0C4343EA475372
:103E400022F00302C0F860E0C365026717F07DFE50
:103E5000736D2B437365237A13B1336C2B43336437
:103E6000637A13B1B36B2B43B3632279A37943EA2B
:103E70000243074A93616179E37943EA01430649C2
:103E80008B61044B55639D64BDE8F04117F063BE40
:103E90000020045000000450001004504FF4003281
:103EA000054B9A6641F6713203F51C33DA63012241
:103EB00003F50053DA6070470090005041F671320C
:103EC0000121064BDA6303F50052D1600022DA6368
:103ED0004FF40032A3F518339A6670470000035080
:103EE000CB784A7810B55B010C7843EA82030A79F3
:103EF000234343EA02130C22424302F1B04213630C
:103F0000012C02BF8A78024B43F8202010BD00BF6D
:103F1000EC80035008B54FF0B0435A6802B960B165
:103F20005B680BB117F070FE4FF0B04130B101206B
:103F3000074B586017F068FEC86008BD17F064FEB4
:103F40000223CB6017F060FE0122024B5A60F4E7B7
:103F500000100058002000584FF0B0435B6870B567
:103F60000BB117F051FE0121104B45785960837851
:103F70000679002BC37814BF02240024002B14BF41
:103F8000042200224379DB0043EA06132B43234338
:103F900013434FF0B0429360054B59600378002BF8
:103FA00014BF0B460223D36070BD00BF0020005831
:103FB000001000584FF48032084B5A6603F5E62390
:103FC0005B69C3F3461203F00F010A434280C3F357
:103FD0000342C3F3033342700370704700900050F4
:103FE000014B986CD96C70470080E00F0120034BA7
:103FF0009B680A3303F01F03984070470080E00F6E
:10400000012200F5805310B55A6040F6AA6341F2D0
:104010000502436100230E498360C365C26000F559
:1040200000520361C361C36491640A498365884295
:1040300002D0094CA04207D18842036502D0064B4A
:10404000984201D1002343650123536010BD00BF96
:10405000FFFF010000C005500000065038B50D46B6
:10406000FFF7CEFF0122A97B00F580535A602A8A10
:104070008368002914BF4FF48061002142F00102DF
:1040800013432A7D0B43002A14BF4FF00052002235
:1040900083608368044613438360AB7C5BB11D4A35
:1040A000EB7C90422DD1A2F51032C2F89031E36D35
:1040B00043F08003E3652B7B2046D5E9011243F4EE
:1040C0008053E36017F0A8FD6B7B0BB11023636195
:1040D0006B7D1BB1A36843F48033A360AB7D1BB140
:1040E000A36843F40043A360EB7D2A7E1B071205FF
:1040F00003F0E04302F4E0021343A3652B7863610D
:1041000038BD054A904204BFA2F52032C2F8AC3156
:10411000CDE700BF00C005500000065038B504468A
:10412000054D1FF0D7F80FCC0FC594E8030085E8C4
:104130000300002038BD00BF802C002047F6FF732D
:104140009A42F0B566D0012966D8344DCF0015F8F3
:10415000313005EBC100012B847813D10025C378E1
:104160001B1B9D4202D3E018C0B2F0BD591B46682C
:10417000A3EB510136F911609642D4BF0D4601F10F
:10418000FF33EEE740680028EFD0B0F900309342EB
:1041900004DBB0F902309342B8BF134682883D4435
:1041A000FF2A19BFC8214FF0280CB0F90610B0F94A
:1041B00008C0A1EB03020CBF0126002692FBFCF213
:1041C0006D78324412B2954201DD002A01DA6A1E8E
:1041D00012B24FF47A7700EBC206F188B66801326A
:1041E00013FB016112B221EAE1715C319542B1FB2E
:1041F000F7F104DD00EBC206B6888E42EBD200EB8D
:10420000C20232F8040C884228BF0846A04238BFD8
:104210002046A9E7FF20A8E70020A6E7802C002081
:104220000129F0B553D82B4800EBC10410F8311028
:10423000636801290FD1E078A478904294BFC4EB61
:104240000001C4EB0201001BCAB28242C8BF0022B7
:1042500033F91200F0BD002B39D0A178914202D37E
:10426000B3F90200F6E7E178B3F900009142F1D921
:1042700099886478A1F1FF06013C714203F10405BD
:10428000E4B2714103F10C071FFA82FCCEB2B442D2
:1042900016D805EBC1014FF47A756A43B1F90240B3
:1042A0004968521A04EBD47102EB610292FBF4F2FA
:1042B0009042CFDBB3F902009042CBDC10B2C9E7E9
:1042C00037F831E04E1CE645E3D33146DEE70248DD
:1042D000C0E700BF802C00200080FFFF08B5044825
:1042E000FFF71CFFBDE8084001201EF0F7BF00BF2C
:1042F000904B020800487047DE0E00207FB5142264
:10430000002101A81FF03AFC044B01A94FF0FF3037
:1043100002931FF019F807B05DF804FB006A18005B
:1043200082B06B4683E80300034A93E8030082E807
:10433000030002B0704700BF982C00201B0603F05A
:10434000706300F00F000902034301F4706112046E
:1043500002F470220B431343014A1360704700BFFD
:104360000020025C2DE9F04717460C4688B029B1C1
:104370000139B1F5806F01D301263FE0244AD668A8
:1043800016F48036FBD140EA01212238112805D8E5
:10439000204DC540ED4315F0010533D0012541F016
:1043A00000413A0702F0805213431943184B5960F9
:1043B00025BB194A03AB10685168DFF860A003C33E
:1043C0000223CDE906350DF10C090DF11408CDF8E5
:1043D000149098E80E00DAE90005A8470221484643
:1043E00017F016FE0028F2D00F22E31C009223F0F3
:1043F000030398E8070047B117F02AFC304608B0DD
:10440000BDE8F08741F00341CBE717F084FCF5E706
:104410000020025C01480200144C0208982C002085
:104420000122054B9A60DA68D203FCD4D86820F0E8
:104430000F000004000C70470020025C014B18685C
:10444000704700BF0040025C014B5868704700BFD6
:104450000010025C014B186B704700BF0010025C3B
:10446000014B1868704700BF0010025C014B986058
:10447000704700BF0010025C014B1864704700BF1A
:104480000010025C014B5864704700BF0010025CD2
:10449000014B5863704700BF0010025C0022014BC3
:1044A0001A6070470010025C024A136843F001036F
:1044B000136070470010025C43F20402014B1A6063
:1044C000704700BF0010025C024A136843F03003DB
:1044D000136070470010025C044B1A6842F480724B
:1044E0001A601A6822F480721A6070470010025C29
:1044F000024A136843F48063136070470010025C43
:10450000034A136823F4702343EA004010607047A5
:104510000010025C044B1A6902605A6942609A6991
:104520008260DB69C36070470010025C0268044B64
:104530001A6142685A6182689A61C268DA6170479A
:104540000010025C024B1A6BD207FCD41862704751
:104550000010025C024B186B00F00E00704700BFA9
:104560000010025C82B01FB507930A9B04AC8B421B
:1045700028BF0B4604E907001048D100079948BF3F
:1045800003330160099948BF23F0030323F070430C
:1045900001F0E041194341F000518160002102F037
:1045A000E042019C134343F00053C1600461836106
:1045B000416304B0BDE8104002B070470000025CE7
:1045C0003F22034B1A631022DA6103229A63704779
:1045D0000000025C024AD36B9B07FCD4704700BF0B
:1045E0000000025C034B986A10F0240018BF0420FE
:1045F000704700BF0000025C08B5FFF7F3FF064BF1
:10460000DB6B23F47F4323F0EF0303431EBF012240
:10461000024BC3F8FC2F08BD0000025C00F0FF3F16
:10462000032208B5054B186019615A63FFF7C8FFEC
:10463000FFF7D0FFBDE80840FFF7DEBF0000025CD7
:1046400042680346182A10B50AD0202A1DD0102A25
:104650002BD1174AD2F80424D4010AD4012013E044
:10466000134AD2F804249001F8D50A6842F00802EF
:104670000A6010481A6882424FF000000ED10A68A2
:1046800042F040020A60586010BD094AD2F8042482
:104690005201E3D50A6842F00402E9E7064CA2425F
:1046A000F2D10A6842F08002ECE70720ECE700BF95
:1046B0000000025CE93C0020EA3C002013B5084CF5
:1046C000D4F80444E40508D5009313460A4601468D
:1046D000002000F01BF802B010BD0120FBE700BF76
:1046E0000000025C13B5084CD4F80444E40508D576
:1046F000009313460A460146002000F02BF802B052
:1047000010BD0120FBE700BF0000025CF0B51646BB
:104710005A688DB0102A0D46129F15D17A68102A5A
:1047200012D10A4A09AC07CA84E807002246294682
:10473000CDE90547CDE90344CDE90144044800969D
:1047400017F08AFB0DB0F0BD0720FBE7204C0208F4
:1047500030000100F0B516465A688DB0102A0D469B
:10476000129F15D17A68102A12D10A4A09AC07CAD9
:1047700084E8070022462946CDE90574CDE90344C3
:10478000CDE901440448009617F066FB0DB0F0BD7A
:104790000720FBE7204C02081000010070B598B01C
:1047A000002843D02C4C08AD0FCC0FC50FCC0FC543
:1047B0000FCC0FC594E80F0085E80F006D4604AEDE
:1047C00004F1100320340FCB85E80F0094E80F00AC
:1047D00086E80F00FFF780FE0420FFF791FEFFF749
:1047E0006BFE3046FFF7A2FE002408AE56F8040B1D
:1047F0000134FFF7A7FE102CF8D1FFF725FE0328A0
:10480000FBD90024FFF74AFE2646FFF717FE55F8AE
:10481000043B01365840042E44EA0004F5D12CB183
:10482000012206200D4B1A7018B070BDFFF754FE20
:104830000820FFF71BFE0020FFF71EFE0720FFF7F2
:1048400021FE4FF40070FFF723FE0820FFF758FE0B
:10485000FFF72AFE0020E7E7004D0208EC3C0020AD
:1048600008B5FFF739FE0122014B1A7008BD00BFE1
:10487000EB3C002030B589B005AC84E80700FFF7B9
:10488000E9FDC30501D5FFF7EBFF0A4D2B781BB1FE
:1048900017F055FC00232B70074B069AD3E9010152
:1048A0008DE8030002921B6894E8070017F0C3FB31
:1048B00009B030BDEB3C0020604D02081FB517F079
:1048C0003EFC044630B1012206240D4B1A702046EE
:1048D00004B010BDFFF7B2FD0090FFF7AFFD0190EF
:1048E000FFF7ACFD0290FFF7A9FD03906846FFF7C4
:1048F0001DFEFFF7B5FFFFF7E7FDFFF7F9FDE6E760
:10490000EC3C002005289ABF014B185C0020704742
:104910006C4D020830B5154B87B00293144B0390D1
:10492000049346F611030D46059300F06DF9142823
:10493000044616D1684617F0D6FC4FF0A843032270
:1049400002A95A6319601D619A63DA6B9207FCD160
:10495000142C02D1684617F0D4FC00F089F9044603
:1049600001E00028E9D0204607B030BDA02C00208F
:10497000040000202DE9F04FB1B005468C46E94611
:104980006E4F3B9EDDF8F8E0409C07F1100AC846E8
:10499000386879680837A8E803005745C146F6D15A
:1049A0000EEB0208C8F1000909F00F09002E00F013
:1049B000AF80774207F00F070121DDF8FCB0C4F1AA
:1049C000100ACDF810B0059144F0005106914FEA5D
:1049D0000A2101F4F85141F02101079106B96B4613
:1049E0000893002D40F09680002C00F0938004ABDB
:1049F0000993002E00F0908046F000530A93002D9A
:104A000040F08D80002C14BF0123212343EA0723AB
:104A10000B9308A942F00053CDF830C03D980D919A
:104A20000E934FEA092343F041030F93109002B114
:104A30000CA9002A16BF00224FF00052412342EA7F
:104A40000E021191129213933C9B3D4A149310ABAA
:104A500015933C4B0021169340F6110317933A4BE4
:104A6000002D08BF1346189314AB1993374B10222F
:104A70001A9311231B931CAB18461FF07FF80122D9
:104A80001D924AF080421E9200220346239205B9ED
:104A9000EB46102C08BF01230DF1900A10220021D3
:104AA0005046CDF880B0219322941FF067F8002C77
:104AB00037D020AB002125938F4218BF534647F0D3
:104AC000804226923A9A2CA88A4228922993134629
:104AD0000CBF4FF080430B46102233432B912A9397
:104AE0001FF04CF8FEB95346C8442D932CA948F04A
:104AF000804318A82E93FFF70DFF30B92DB9034658
:104B0000A34212D1002818BF2C2031B0BDE8F08F8D
:104B1000102751E701236BE747F000536EE721238D
:104B200074E70123C6E728ABDEE703F1C0026A445D
:104B300012F8C02C01331043E2E700BF724D0208A7
:104B4000844D020810000020884D02080400002057
:104B5000F0B5C0299FB0249E4FD0B1F5807F04D01E
:104B6000802941D029201FB0F0BD40F2344440F2EA
:104B70001445002E08BF2C4621271025019401243E
:104B80000296039404950597259F069706B102ACFB
:104B900007940124089509940A9221220B940C95FC
:104BA0000D92174A0AAC0E92164A0F94109242F6D2
:104BB00011021192129313941495159201AA169250
:104BC000CBB112AB1793042318931123199316AB8F
:104BD0001A901B9340F61103C9081C911AA806A944
:104BE0001D93FFF797FEBEE7002E14BF4FF48664B7
:104BF0004FF48264C0E70EABE4E70F20B3E700BFD9
:104C00008C4D02081000001038B5164B5A6E42F059
:104C100004025A66D3F8802242F00102C3F88022CF
:104C2000114B5B68C3F3080343B14FF0A842D36B49
:104C300013F0430FFBD11424204638BD4FF0A84396
:104C4000DC6B14F04304FBD1084D2B681BB9042125
:104C5000284602F0DBF82B68013343F000432B6059
:104C6000EAE700BF0080005000ED00E0A02C00202B
:104C7000014B00205B68704700ED00E04FF40052EC
:104C8000034B00209A660322C3F86022704700BFDE
:104C90000090005008B5FFF7E3FBC30708D5FFF706
:104CA00059FC062804D00A28F5D1FFF7D9FDF2E710
:104CB0004FF40052034B00209A660322C3F860228F
:104CC00008BD00BF00A000504FF40052084B10B5C3
:104CD0009A660322C3F8602217F021FB0446FFF70F
:104CE000D9FF00280CBF20466FF0920010BD00BF16
:104CF0000090005037B5154D2B782BBB0093144B0B
:104D0000019302AB13E90300FFF70AFB4FF40052D3
:104D1000104B9A660322C3F8602217F000FB04468A
:104D200017F035FA40F0004017F064F8FFF7B2FFD3
:104D300028B1002C08BF0446204603B030BD002C2B
:104D4000FAD101232B70F7E70024F5E7ED3C0020B2
:104D5000A7C1010800900050012300F01F02A0F538
:104D600006200949A0F550604009934051F82020E1
:104D70001A4341F82020054951F8202022EA030374
:104D800041F82030704700BFA42C0020B82C002030
:104D90000121A0F506230F4AA3F550635B0900F03B
:104DA0001F0001FA00F052F8231008430A4942F8A4
:104DB0002300D1E90030034488680344C8680969C6
:104DC00003445B1802BFC2E90033C2E90233136136
:104DD000704700BFB82C0020A42C00202DE9F04F14
:104DE000A9B002921D46DDE9326704460822CDE9EA
:104DF0000301414021FA02F34B40980702F10802F7
:104E000018BF9B00202A1C44F4D18123B4FBF3F388
:104E100003EBC313E41A7A4B04F506241B7804F55C
:104E20005064002B40D1FDF79DFA014620B16FF090
:104E3000910029B0BDE8F08F4022059008A81EF02F
:104E40009DFE4022059918A81EF098FEDFF8C89133
:104E5000DFF8C8A14B4603F10F0B102208A9DAF8BE
:104E60000000CDF800B005931DF0D2FF00220146EE
:104E7000059B09F110090DF1200891424CD1CDF8A4
:104E800000B01022DAF8000018A91DF0CAFF4FF098
:104E9000000B03460DF160085B4549D1594B99451C
:104EA000D8D10122564B1A704FF081084FF00009FB
:104EB000DFF868A1A4F506235349A3F5506252090F
:104EC00051F8221004F01F0C21FA0CF1C90744D448
:104ED0004E4951F8220020FA0CF010F0010030D0B9
:104EE000B9F1000F08BFA146A3F6FF448123B4FB2C
:104EF000F3F303EBC313E41A04F50624B8F1010835
:104F000004F55064D6D1029BEBB1B9F1000F1AD071
:104F1000349BC3F800906DE058F8040BCDE90623EC
:104F20000591FFF719FF069A079B05990132A4E73F
:104F300058F8040B05930BF1010BFFF729FF059BB4
:104F4000AAE7029B13B96FF08B0072E7349BB9F1AB
:104F5000000F4ED0C3F800906BE70EB10023336012
:104F60000FB100233B604FF0100B00232A4621466F
:104F7000DAF80000CDF800B00DF098F808BB0EB1DB
:104F8000C6F800B02B68224A934224D166B15FB1C3
:104F90003B462146DAF8000018AA0DF0DBF880B98C
:104FA0003B6832689B1A3B60D5E90223DDE90310B8
:104FB000834208BF8A4216D0A4F50624A4F6FF4413
:104FC00094E7144B984206D01233984203D0133B17
:104FD0009842E9D02BE72146DAF800000DF000F9FD
:104FE0000028E1D0AFE7029B13B16B68012B03D01F
:104FF000349B1C6000201CE76FF0840019E700BFA1
:10500000EE3C002000710800A42C0020B82C0020E9
:10501000105D175EFFDF00F0006D0800FC0A002045
:105020002DE9F04F87B08246894698461646DDF84E
:1050300040B02AB1002B4ED040F26C739A424DD84A
:10504000BBF1010F4DD8002406F1100739460120AD
:10505000059417F0FDFA0546002845D021463A464A
:105060001EF08CFD05ABCDE9014300942B460122D7
:1050700050464946FFF7B2FE044680B110F18C0F4E
:1050800008BF6FF08D043A46002128461EF076FDD9
:10509000284617F0EEFA204607B0BDE8F08F144B13
:1050A000C5E902A92B60C5F804B02EB132464146CD
:1050B00005F110001EF03BFD0E483B462A460599BF
:1050C00000680CF05BFF18B90598FFF745FEDAE7BA
:1050D0006FF09104D7E76FF08604DCE76FF091047E
:1050E000D9E76FF08504D6E76FF08C04D3E700BFF3
:1050F000105D175EFC0A00202DE9F0438DB081465B
:10510000DDE914780C4615461E469BB1B8F1000F38
:1051100005D16FF0860420460DB0BDE8F083002F66
:10512000F7D0B7F1005FF4D3C3F1005303F5803338
:105130009F42EED81022002108A81EF01FFD002279
:1051400007AB029305AB019306AB2146009348469B
:1051500008ABCDE90522FFF741FE04460028DAD16D
:105160000599DEB1A94203D80029D2D115B1D0E703
:105170000029FBD0491BB14228BF3146069B094894
:10518000C8F8001000913A46079900682B440CF0CB
:105190008DFF002818BF6FF09104BCE7A942E9D247
:1051A000B7E700BFFC0A002030B58DB00C460546BD
:1051B0001022002108A81EF0E1FC002207AB029398
:1051C00005AB019306AB21460093284608ABCDE919
:1051D0000522FFF703FE0446D0B9099B012B1AD024
:1051E000104B079918680CF0FBFFB8B9012207981B
:1051F0000D49A0F50623A3F550635B0900F01F05D8
:10520000AA4051F823506A4041F82320FFF7C0FD1F
:1052100020460DB030BD6FF08404F9E76FF09104C3
:10522000F6E700BFFC0A0020A42C00202DE9F04383
:1052300089B00D4614461F46DDF8488020B96FF04E
:10524000860009B0BDE8F0830029F8D0002AF6D026
:10525000B8F1000FF3D0028802F44F43B3F5824F48
:105260000CBF13460023DBB202D06FF08500E8E7E5
:10527000122B01D0172BF8D122F0FF02B2F5E24F2A
:1052800040D14288C8F80020002A36D1E200C8F890
:105290000020D8F80020B2F5807FE6D1122B09BF9C
:1052A000384B00221A681B6905EB040608BFD218A8
:1052B00000231846224412F801CD16F8011D0843B8
:1052C000B1EB0C010CBF4FF0FF3C4FF0000CB542AE
:1052D0000CEA030343EA0103EDD10028AFD0002B11
:1052E000ADDA109B9C4249D82246294638461EF02A
:1052F0001EFC119B00201C60A3E70732B4EBD20F09
:10530000C7D09CE72A78042A99D1621ED20052089D
:10531000B2F5807FC8F80020A7D1122B05F1010358
:1053200018BF4FF000094FF0400205934FF0000303
:105330000ABF144E4E46D6F80C90CDE90623FFF76F
:105340009DFC00287FF47DAFCDF80C90D8F800309C
:105350000733DB08029308AB13E903008DE8030071
:10536000059B96E8070016F0B4FE0646FFF792FC90
:1053700000287FF466AF002EB3D060E76FF089009D
:105380005FE700BFEC4C02082DE9F041069F0C4698
:105390001646054610B309B302B9FBB96288B3EBF0
:1053A000D20F4FEAD20819D34C22002128461EF012
:1053B000E5FB0D4B27F47E129A4212D1204616F0DF
:1053C000F3FF044638B942463146281D1EF0AFFBB4
:1053D000C5F824802F602046BDE8F0816FF0860478
:1053E000F9E76FF08504F6E70002C0032DE9F0410C
:1053F0000E4614460546002840D000293ED012B97A
:105400000020BDE8F08103681F4823F47E13834227
:1054100037D1AF6BE7B1C7F1100807F1280042455B
:10542000284404D21EF083FB3C44AC63E8E74246C8
:105430001EF07DFB1022103C3C19AA63E0D02846E8
:1054400005F1280116F0CCFF0028DAD14644A86304
:10545000102C0CD9671E27F00F073A463146284614
:1054600016F0BEFF0028CCD1E41BC9D03E44224632
:10547000314605F128001EF05AFBD6E76FF0860092
:10548000BFE76FF08800BCE70002C0032DE9F043DE
:1054900088461F4605468BB070B169B163B1036899
:1054A000234923F47E1088423ED113F47C1FC3F3BA
:1054B000054604D0102E03D96FF086042AE010268A
:1054C00096422BD8FFF7DAFB044618BBAB6B05F10D
:1054D0002802CDE901236B6A2A1DCDE9042310239C
:1054E000CDE9083007AB1A460390069005F13C0958
:1054F00001A904A8CDF81C90FFF7F4F80546FFF7C2
:10550000C9FB04466DB928B93246494640461EF0EB
:105510000EFB3E6020460BB0BDE8F0836FF08904BF
:10552000F8E76FF09204F5E76FF08504F2E700BF4B
:105530000002C00307B5084B18689A889B79009051
:105540006846ADF804208DF80630FEF729FA0020F1
:1055500003B05DF804FB00BF904D020813B50024B2
:10556000064A6846536F43F00103536700948DF871
:105570000440FEF751F9204602B010BD0040005033
:1055800030B58BB06C46174D0FCD0FC40FCD0FC487
:1055900095E8030084E80300134BD3F84C21120371
:1055A00017D4D3F85041E4B28DF81940FDF798FFB5
:1055B000204480F308008DF818000C48FCF7B8FC74
:1055C0006846FDF7A9FE3220FEF706F800200BB072
:1055D00030BD074B1C884FF6FF739C4208BF8C24DC
:1055E000E2E700BF984D02080080E00F00F049029A
:1055F0000001E00F30B5094D87B001AC0FCD0FC4ED
:105600002B6801A823603F238DF80530FDF7A0FF2C
:105610003220FDF7DBFF002007B030BDC04D02088F
:105620006FF00402502110B50A480B4C12F0800FA5
:10563000D3B21BBF03F00F03043BA3181B1802F1E6
:1056400001020CBF83F800131976432AEED1002023
:1056500010BD00BF00ED00E000E100E010B5044621
:1056600016F06CFA024B1C6016F06CFA002010BDAC
:10567000CC2C002013B5002301241A4619461846E5
:10568000009401F065FE002300941A46194618465E
:1056900001F08EFE0248FFF7E1FF002002B010BDCE
:1056A000280B0020BFF35F8F074B5A6A22F4803229
:1056B0005A62D3F8942022F00102C3F89420BFF379
:1056C0004F8FBFF36F8F704700ED00E070B5264835
:1056D000264CFFF7E7FF844208BF4FF08043244A7F
:1056E00018BF20F01F03D2F8C01018BF203B21F0D4
:1056F000FF0141F0A001B3F1005FC2F8C0100CD36C
:105700001C4D1D4E296843F00103C2F89810013169
:10571000C2F89C60C2F8A0302960844210D01548BD
:10572000164B0268124923F01F0343F00303C1F82C
:105730009820C1F89C30124B0132C1F8A0300260B1
:10574000BFF35F8F05220A4BC3F894205A6A42F4D4
:1057500080325A62BFF34F8FBFF36F8FBFF34F8F0B
:10576000BFF36F8F70BD00BF140F0020C410002066
:1057700000ED00E0D02C002003000020E31000200A
:10578000E1FFFF3FF8B51446FFF78CFF1F2C27D928
:105790000027C2062A4D1CBF20F01F0020302A68B7
:1057A000CB06284B18BF21F01F01FCB2A24219D82A
:1057B000D3F8C04020F01F0024F47F4444F48074E8
:1057C00021F01F01C3F8C04040F00300C3F8982047
:1057D00041F003010132C3F89C00C3F8A0102A6015
:1057E00000201AE0C3F89840D3F89C40D3F8A0609A
:1057F00024F01F04A04226F01F0601D1B142EFD0D1
:10580000B04201D8A14207D2D3F89840013724F022
:10581000FF04C3F89840C8E72820BFF35F8F052234
:10582000084BC3F894205A6A42F480325A62BFF39C
:105830004F8FBFF36F8FBFF34F8FBFF36F8FF8BDE5
:10584000D02C002000ED00E0BFF34F8F0549064B40
:10585000CA6802F4E0621343CB60BFF34F8F00BF0E
:10586000FDE700BF00ED00E00400FA05054B1A78E3
:105870002AB95B78002B14BF022003207047012057
:10588000704700BFF73C00200329F8B598BF124BC2
:1058900005460E468CBF00245C5C032805D8DFE873
:1058A00000F002080B0E44F002040C4B1F684FB9C5
:1058B000F8BD44F00804F8E744F02004F5E744F0AC
:1058C0008004F2E77B681A68144203D03146284608
:1058D0005B6898473F68EAE7D44D0208F82C00203F
:1058E00038B5104D2B78ABB10F4C23781BB100F0BD
:1058F0008BFB00232370002016F0FEFD0B4C50B1F3
:1059000000F0D4FB0023012120782B70FFF7BCFFAF
:105910000123237038BD0122054B1A702278054BF4
:105920001A70F7E7F63C0020F13C0020EF3C002025
:10593000F53C0020FC3C002010B516F0FFF8064BAB
:1059400004461B781BB1BDE8104016F0FBB8FFF70A
:10595000C7FF2046F7E700BFF03C0020002814BF37
:105960000121FF21074A13780B44137008D0064B1E
:105970001B78012B04D9054B1B780BB9FFF7B0BF7F
:10598000704700BFF73C0020EF3C0020F53C0020B2
:1059900070B516F0D3F8124E054633789BB900F077
:1059A000B9FC044620B1284616F0CCF8204670BD5C
:1059B0000C4815F04EFF00F025FF0B4B1C6000F06B
:1059C0006DFD0A4B186000F009FA16F097FD084BC0
:1059D0000024186001232846337016F0B3F8E5E779
:1059E000F23C0020F82C0020002D0020FC2C002090
:1059F000F42C002000292DE9F34114BF0121FF21DF
:105A0000254A00F1FF30135C0B4413543AD0234E67
:105A10003178012936D9FFF729FF0128044634D807
:105A20001F4F16F08BF83B781BB31E4D2B781BB91C
:105A300001222A701C4A1370DFF8708098F8003039
:105A400033B1019000F0E0FA0023019888F80030AB
:105A500016F078F8012016F04FFD16F06FF82B784D
:105A60002BB1019000F022FB002301982B70002342
:105A70003B7016F067F83078A04203D02146FFF75C
:105A800003FF347002B0BDE8F0810329F3D102288E
:105A9000F1D116F037FDEEE7F73C0020EF3C002097
:105AA000F63C0020F03C0020F53C0020F13C0020BA
:105AB00010B5044616F042F8002C14BF0121FF2156
:105AC000064A13780B44DBB21370B3FA83F3BDE8D4
:105AD0001040034A5B09137016F034B8FA3C0020FA
