:020000040800F2
:10000000C00A0020652D0008ADCD0108ADCD010866
:1000100085DB0108ADCD0108ADCD0108ADCD0108EE
:10002000ADCD0108ADCD0108ADCD0108ADCD0108C4
:10003000ADCD0108ADCD0108B9C70108ADCD0108AE
:10004000ADCD0108ADCD0108ADCD0108ADCD0108A4
:10005000ADCD0108ADCD0108ADCD0108ADCD010894
:10006000ADCD0108ADCD0108ADCD0108ADCD010884
:10007000ADCD0108ADCD0108ADCD01083579000841
:10008000ADCD0108ADCD0108ADCD0108ADCD010864
:10009000ADCD0108ADCD0108ADCD0108ADCD010854
:1000A000ADCD0108ADCD010839310008ADCD010855
:1000B000ADCD0108ADCD0108B13200088D32000888
:1000C000ADCD0108ADCD010839930108ADCD0108D2
:1000D0002D9D0108775102087351020821950108EE
:1000E000835102087B510208059D01087F510208D7
:1000F0006D9D010879770108D99D01084D790108A6
:10010000ADCD0108ADCD0108ADCD0108ADCD0108E3
:10011000ADCD0108ADCD0108ADCD0108ADCD0108D3
:10012000ADCD0108ADCD0108ADCD0108ADCD0108C3
:10013000ADCD0108ADCD0108ADCD0108ADCD0108B3
:10014000ADCD0108ADCD0108ADCD01080000000026
:10015000013800D0FCE77047002370B5404C0546DD
:100160008AB0E36318B1008823600DF04DF93D4873
:1001700024F065FB3C4E3D4B304633603C4B736096
:1001800021F040F80021304613F050FA32A3D3E9B1
:100190000023A062C4E9062321F03FF8D4E9062336
:1001A000194310434FF0FF33C4E90601CDE90001C4
:1001B0004FF0FF32A06A24F0ABFB02224FF0FF3178
:1001C000A06A24F0AAFB01200CF02CFF4FF400736E
:1001D00000222849A06A24F0F8FBB0F5007F38D14E
:1001E00000239422CDE9073309933C23CDE9033260
:1001F00005939623A06A03A9069313F033FB35B346
:10020000287C0DF08DFA0546F0B9A06A24F0BEFCFA
:100210000DF02EFA0CF0E8FE20B14FF480700021B2
:100220000BF096FC0CF0F0FE20B14FF400600021C2
:100230000BF08EFC20F0B7FF012013F04BFA0E4AB2
:100240000E49A06A20F0DCFF28460AB070BDFF20EE
:10025000D7E70725F8E700BF0DD5015520000000BE
:10026000181D0020690345EC14340020B5CE0008A9
:100270000834002008320020A9110208E911020800
:100280002DE9F04F456A044610EE10AA2DED048BBF
:1002900093B057EC106BDDF88080BB460691099255
:1002A0000C9375B910201AF08FFC0246606220B9D9
:1002B000A74BEA21A7481AF017FCC0E901550560D1
:1002C000C560636A196851B15A680123204693409A
:1002D0004A608B601BF0FAFD636A00221A603B1EC5
:1002E000ADBF0023012223F0004BC8F800309A4B29
:1002F000B8BFC8F8002033EA0B031BD142F20F73DA
:100300000C9A1360CBF31303334300F08F85219BCA
:1003100063B9924B22E0924B01930833219A136008
:10032000019813B0BDEC048BBDE8F08F8B4B0193AB
:100330000333F3E700220023504659461AF0EAF946
:1003400080464BEC19AB58B101230C9A1360219BEA
:10035000002B00F0688583481860431E0193DFE797
:10036000CBF30A5510AA11A920464BEC10AB1CF098
:100370002FF808EE100A002D00F0828019EE903A56
:100380005646A5F2FF35CDF83880C3F3130343F08A
:100390007F5747F440170022734B3046394619F017
:1003A00099FD65A3D3E9002319F04CFF64A3D3E9B9
:1003B000002319F091FD06460F46284619F0D8FE95
:1003C00061A3D3E9002319F03DFF02460B463046F6
:1003D000394619F081FD06460F461AF0CDF9002284
:1003E00000900023304639461AF09EF950B100982B
:1003F00019F0BEFE32463B461AF08CF910B9009B4C
:10040000013B0093009B162B59D8009A574B03EBE6
:10041000C20351EC190BD3E900231AF085F9002827
:100420004FD0009B013B009300230B93109B5D1B5F
:100430006B1E059349BFC5F10103002304930023FC
:1004400054BF04930593009B002B3CDB059B009A53
:1004500013440A92059300230793069B092B00F28D
:100460008980052BC5BF043B002501250693069B0B
:10047000023B032B00F28980DFE803F02E3B395A60
:10048000DDE910531D4405F23243202BC6BFC3F1F2
:10049000400305F21240C3F1200305F1FF35C5BF4B
:1004A0000BFA03F326FA00F006FA03F0184319F0EA
:1004B0004FFE01230646A1F1F8770E936BE7012367
:1004C000B3E70B90B2E7049B009A9B1A0493534244
:1004D000079300230A93C0E700230893099B002B8E
:1004E00056DC01231A46CDE9023309920CE00123C0
:1004F000F3E70023099A0893009B13440293013306
:10050000012B0393B8BF01230022606A42600422DA
:1005100002F1140641689E423ED920461BF096FC2B
:10052000019000283CD1124B02464FF4D571C1E630
:100530000123DFE7AFF3008061436F63A787D23FFA
:10054000B3C8608B288AC63FFB799F501344D33FC2
:10055000BAB10208D1B102080000F07FB6B10208BA
:10056000ADB102088AB102080000F83F68B3020882
:100570004FB2020801250023089506934FF0FF3380
:100580000022CDE902331223AFE701230893F5E7F8
:10059000099BCDE90233B7E7013152004160B7E76B
:1005A000636A019A1A60039B0E2B00F29D80002D56
:1005B00000F09A80009B002B32DD03F00F03B64A57
:1005C00002EBC303D3E90089009BD8054FEA231748
:1005D00016D5B24B07F00F070325D3E9082351ECDA
:1005E000190B19F059FF82468B46AC4E57B942465B
:1005F0004B465046594619F04FFF82468B4628E03D
:100600000225F2E7F90708D5404649460135D6E903
:10061000002319F017FE804689467F100836E5E76B
:1006200000F09B80009B02259C4F5E429A4B06F097
:100630000F02361103EBC20351EC190BD3E900236F
:1006400019F000FE002382468B46002E7AD1002B43
:10065000D3D10B9B002B00F082800022904B5046A0
:1006600059461AF061F8002879D0039B002B76D008
:10067000029B002B36DD009B5046594600225F1E30
:10068000884B19F0DFFD013582468B46029E2846D5
:10069000D04619F06DFD52465B46D94619F0D2FDA1
:1006A0000022814B19F018FC8246A1F1507B002EEC
:1006B00058D100227D4B4046494619F00BFC52466A
:1006C0005B46804689461AF04DF8002840F0938238
:1006D00052460BF10043404649461AF025F80028DF
:1006E00040F087825BEC19AB119B002BC0F2488174
:1006F000009A0E2A00F34481674B03EBC203D3E94F
:100700000089099B002B80F2D580039B002B00F30E
:10071000D18040F06D820022644B4046494619F07A
:1007200091FD52465B461AF013F8039E37460028A7
:1007300040F043823123019D05F8013B009B0133CA
:1007400000933EE2F20705D50135D7E9002319F001
:1007500079FD01237610083777E7022579E7009FB6
:10076000039E94E701994C4B314403EBC6030D9172
:10077000089953E90223002943D000204C4919F07D
:100780008BFE52465B4619F0A5FB019D82468B46C7
:100790004946404619F0F0FF064619F0E9FC0246CA
:1007A00030360B464046494619F094FB52465B46AC
:1007B00005F8016B8046894619F0B6FF002863D121
:1007C00042464B460020364919F084FB52465B46B0
:1007D00019F0AAFF002840F0B5800D9B9D4281D002
:1007E0000022304B5046594619F02CFD002282461B
:1007F0008B46404649462B4B19F024FD80468946DE
:10080000C6E75046594619F01DFD0D9B82468B46A2
:10081000019D0F934946404619F0AEFF064619F078
:10082000A7FC02460B4640464946303619F052FBBB
:100830000D9B05F8016B80469D4289464FF00002F2
:1008400024D11B4B5046594619F046FB02460B4635
:100850004046494619F086FF002873D152465B4650
:100860000020134919F036FB02460B464046494624
:1008700019F05AFF00283FF435AF0F9D6B1E0F9300
:1008800015F8013C302BF8D0009749E0054B19F0E2
:10089000D9FC80468946BDE768B3020840B3020828
:1008A0000000F03F0000244000001C400000144005
:1008B0000000E03F56465F46019D42464B463046AB
:1008C000394619F0E9FD19F057FF824619F050FC3E
:1008D00042464B4619F0B6FC024630460AF1300655
:1008E0000B46394619F0F6FA05F8016B019E0246EF
:1008F000039F0B46AE1BB74235D119F0EDFA4246C5
:100900004B4606460F4619F02DFFD0B942464B46DE
:100910003046394619F0FEFE10B11AF0010F10D121
:10092000204618EE101A1BF0D1FA002300982B7005
:1009300001300C9B1860219B002B3FF4F1AC1D6033
:10094000EEE4009F2B461D4613F8012D392A06D1EF
:10095000019A9A42F7D13022019901370A701A7828
:1009600001321A7090E70022A44B19F06BFC0022B0
:10097000002306460F4619F0CDFE00289DD0CFE794
:10098000089A002A00F0D580069A012A00F3B9805F
:100990000E9A002A00F0B18003F23343079E049DB3
:1009A000049A012120461A440492059A1A44059299
:1009B0001BF0F6FA0746002D0CDD059B002B09DD28
:1009C000AB42049AA8BF2B46D21AED1A0492059A9C
:1009D000D31A0593079B1BB3089B002B00F0AD8037
:1009E000002E13DD3946324620461BF097FB18EEE9
:1009F000102A0146074620461BF0E8FA804618EE0A
:100A0000101A204608EE108A1BF060FA079B9A1B0A
:100A100006D018EE101A20461BF080FB08EE100AD4
:100A2000012120461BF0BCFA0A9B0646002B40F32E
:100A300086801A46014620461BF070FB069B064640
:100A4000012B7FDD4FF00008336906EB8303186943
:100A500024F0AEFEC0F12000059B184410F01F00EA
:100A600000F09180C0F12003042B40F38980C0F195
:100A70001C00049B054403440493059B0344059315
:100A8000049B002B07DD18EE101A1A4620461BF0B7
:100A90009FFB08EE100A059B002B05DD31461A4628
:100AA00020461BF095FB06460B9B002B6DD0314674
:100AB00018EE100A24F0CBFE002866DA009B18EE30
:100AC000101A0A222046013B009300231BF020FA53
:100AD000089B08EE100A002B00F0AF810023394676
:100AE0000A2220461BF014FA029B0746002B00F353
:100AF0008D80069B022B50DC88E0109BC3F13603EF
:100B00004CE7039B5E1E079BB342B7BF079B9E1B30
:100B10000796F21ABFBF0A9B00269B180A93039BF5
:100B2000002BB7BFDDE90323DDE903359D1A002360
:100B300036E7079E049D089F3DE7079A69E7069BF5
:100B4000012B18DCBAF1000F15D1CBF3130393B9C5
:100B50002BF000431B0D1B0583B1049B4FF00108D4
:100B600001330493059B013305930A9B002B7FF40B
:100B70006BAF012070E74FF00008F6E79846F4E706
:100B80003FF47EAF18461C3073E7039B002B37DC25
:100B9000069B022B34DD039B0293029B6BB931460B
:100BA000052220461BF0B4F90146064618EE100A4D
:100BB00024F04DFE00283FF7BDAD099B019DDB43AE
:100BC00000934FF00008314620461BF07FF9002FBC
:100BD0003FF4A6AEB8F1000F05D0B84503D04146AA
:100BE00020461BF073F9394620461BF06FF997E653
:100BF00000263746E1E7009737469BE50000244092
:100C0000089B002B00F0CA80039B0293002D05DD9A
:100C100039462A4620461BF0DBFA0746B8F1000F9A
:100C20005BD0796820461BF011F9054628B9874B3F
:100C3000024640F2EA21FFF73DBB3A6907F10C0199
:100C40000C300232920024F0D0FA012229462046CC
:100C50001BF0BEFA019BB846074603F10109DDE926
:100C60000123134405930AF001030493314618EE5F
:100C7000100A24F0AFFC4146029000F1300A18EE51
:100C8000100A09F1FF3B24F0E2FD3A460390314699
:100C900020461BF00DFBC268054602BB014618EE5C
:100CA000100A24F0D4FD02462946204607921BF084
:100CB0000DF94D46DDE9063243EA0201049B0B4380
:100CC0000FD1BAF1390F2AD0039B002B02DD029B12
:100CD00003F1310A8BF800A075E73846BAE7012224
:100CE000E2E7039B002B04DB06990B4304990B43BB
:100CF00022D1002AEEDD18EE101A012220461BF048
:100D000067FA314608EE100A24F0A1FD002803DC42
:100D1000E0D11AF0010FDDD0BAF1390FD7D1392364
:100D20008BF800302B461D46013B15F8012C392A63
:100D300070D001321A7046E7002A07DDBAF1390F88
:100D4000EDD00AF101038BF800303CE7059B09F870
:100D500001AC994546D018EE101A00230A2220460D
:100D60001BF0D6F8B84508EE100A4FF000034FF01C
:100D70000A024146204606D11BF0CAF880460746C3
:100D800009F1010972E71BF0C3F8394680460023D8
:100D90000A2220461BF0BCF80746F1E7039B0293AA
:100DA000019D314618EE100A24F014FC019B00F15D
:100DB000300A05F801ABEA1A029B934209DD18EEEE
:100DC000101A00230A2220461BF0A2F808EE100A8F
:100DD000E7E7029B4FF00008002BCCBF1D46012522
:100DE000019B1D4418EE101A012220461BF0F0F959
:100DF000314608EE100A24F02AFD002892DC02D1C8
:100E00001AF0010F8ED12B461D4613F8012D302A02
:100E1000FAD0D8E6019A9A4285D1009B013300931B
:100E200031231370CFE60A4BFFF798BA219B002BB2
:100E30007FF471AA074BFFF791BA029B002BAFDC3E
:100E4000069B022B3FF7A9AEAAE700BF4FB20208EC
:100E500089B10208ADB1020810B5054C237833B949
:100E6000044B13B1044800E000BF0123237010BD00
:100E7000681F00200000000048B5020808B5034BB9
:100E80001BB10349034800E000BF08BD000000009B
:100E90006C1F002048B50208A3F5803A704700BFD8
:100EA000174B002B08BF134B9D46FFF7F5FF0021A2
:100EB0008B460F461348144A121A24F0BDF90E4B04
:100EC000002B00D098470D4B002B00D098470020F6
:100ED000002104000D000D48002802D00C4800E05D
:100EE00000BF19F04DFE2000290000F0AFF919F005
:100EF00021FE00BF0000080000000000000000000C
:100F0000C00A0020A81C0020FC3E002000000000B9
:100F100000000000F0B50368B04D8FB02B40029385
:100F2000AF4B044601933923AE4A00930320AE4BE6
:100F3000AE4901F071FA2368AD4A2B40934200F0AC
:100F4000A6800FD802F17F42934200F0828002F522
:100F50008022934200F0BA80A2F51022934228D05A
:100F60000FB0F0BDA34A934200F06A8102F510224F
:100F7000934200F0EB80A2F182729342F0D1B4F878
:100F80000550B4F80760B4F8097032463B4629466C
:100F9000207900F06BFB984B032001939123CDE95E
:100FA000036700938F4A904B9049029501F034FA01
:100FB000D6E7924B032001933F238A4A8B49009343
:100FC000894B01F029FA002109AB084607AA0EF067
:100FD00081FD00B1FEE78A4C20460EF08FFC0546ED
:100FE00000B1FEE7874E8848314600F0BDFC864BD5
:100FF0002946327820780EF0BBFC034600B1FEE7AC
:10100000A0220090114620780EF090FC00B1FEE77F
:10101000022120780EF0C2FC00B1FEE700F0D2FA07
:10102000044600F005FD94F8A230837000F004FD42
:1010300000F0E8FC00F014FD0E23C37100F010FD79
:101040000323037200F00CFD0123437100F00CFD3B
:1010500086E76E4B032001937923624A009363492C
:10106000614B01F0D9F90E220021694824F0E4F81F
:10107000674801F0C3FD0E220021654B0B200EF0E6
:10108000FDFC207B0FB0BDE8F04000F0DDBA614B05
:10109000544A01939923554903200093524B01F080
:1010A000BBF9A07900F008FB554C564A0021564B7D
:1010B000127820780EF05CFC00B1FEE70221207867
:1010C0000EF06CFC00283FF44BAFFEE700210691C8
:1010D000B4F8056009AD142206AB304600950EF059
:1010E0009BFC4D4B03200193B4233E4A3F490093A0
:1010F00002963D4B01F090F92A460A21BDF81830BE
:10110000464801F039FC252E11D0282E7FF428AF57
:101110002379BDF818208DF81C30B4F80530ADF8EF
:101120001D30DDE907012B4600F0EEFD18E72379BD
:10113000BDF818208DF81C30B4F80530ADF81D301E
:10114000DDE907012B461BF08AFC09E7E379B4F8D7
:101150000550049323890320CDE90253304B214AE3
:101160000193E423214900931F4B01F055F9252DEC
:1011700011D0282D27D01B2D7FF4F2AEE579012D5B
:101180007FF4EEAE2389002B7FF4EAAE00F01AFA6A
:1011900080F88A50E4E6E379012B0BD1238923B14F
:1011A0000FB0BDE8F04000F0CDBC0FB0BDE8F0409E
:1011B00000F0CEBC022B7FF4D3AE00F003FA012383
:1011C00080F88830CCE6E379012B30D123894BB30A
:1011D0000FB0BDE8F04000F005BD00BFF800FFFF14
:1011E0000D5B0208005B0208D45B0208095B020881
:1011F000A0000601A00001035A5B02081F5B020861
:10120000EE0E0020893900206A390020475B020871
:101210005C390020905B0208A35B0208C9600208E9
:10122000B15B02080FB0BDE8F04000F0E1BC022B5A
:101230007FF496AE00F0C6F9012380F889308FE67E
:1012400060680FB0BDE8F04000F09ABA07B51DF035
:10125000B3FA002007F0FAF901F05EFBFF2100204D
:1012600001F092FAC321012001F08EFAC32102207D
:1012700001F08AFA0321084601F086FA03210420CE
:1012800001F082FA01F05CFA1CF02FFD01213A20F6
:1012900002F064FD094B032001934B23084A0949DE
:1012A0000093094B01F0B8F800F02AFA00F07CF83E
:1012B0001CF028FD05F0B6FCFAE700BFF75B02085A
:1012C000E35B0208ED5B0208005C020808B50368F6
:1012D000074A23F47F4323F00703934207D10522F3
:1012E00000211620034B0EF0C9FB00B1FEE708BD3C
:1012F000A0000100055C020810B5234C02F096FF27
:1013000003F094F9236F23F0070343F003032367EB
:101310001BF0B5FE1D4B00209B6A9B075EBF0122A0
:101320001B4B9A62D4F8203123F0030343F00203ED
:10133000C4F82031D4F8243123F0070343F002032A
:10134000C4F82431D4F8403123F0030343F00203FE
:10135000C4F84031D4F8603123F0030343F00203B2
:10136000C4F86031D4F8403223F0030343F00203A1
:10137000C4F84032D4F8003223F0070343F00203EC
:10138000C4F8003210BD00BF0080005000C0005003
:1013900000E00050024B0349186802F00FB900BF8B
:1013A000C00A0020C40A0020002208B5034B1A70AE
:1013B00000F006F8BDE8084000F0CCB88A390020FB
:1013C00010B5012304220621002003F05FFC002356
:1013D00002221846072103F059FC00220849072081
:1013E00001F028FF074B08491860042000F0A4F919
:1013F000BDE8104009230222044905481BF0A4BCA3
:10140000D9C8010820200020B11400088B39002021
:101410000C20002073B540260F4C00F07F0004F52F
:1014200000558DF804008DF80510FA202E6406F0A2
:10143000B3FA0A4B01A90222186802F0C7FA102376
:1014400004F5805426642B640023022203211846ED
:1014500003F01CFC02B070BD00C00350C00A0020A5
:10146000002313B5ADF80430FF2360F07F000C4675
:101470008DF800008DF8013011B14022094B1A643B
:10148000FA2006F089FA084802236946006801AA92
:1014900002F076FA14B14022044B1A649DF805005C
:1014A00002B010BD00E00350C00A002000D003507D
:1014B0002DE9FF411F4B032001934FF480731E4A17
:1014C00000931E491E4B00F0A7FF12244025DFF8B1
:1014D00080801C4FFA20C8F8405006F05DFA0021C9
:1014E0004020FFF7BDFFF8B100214220FFF7B8FF11
:1014F000002106464120FFF7B3FF00EB0620ADF8C0
:101500000E00012238460DF10E011BF025FC013CB6
:101510000D4B14F0FF041D64DCD10C4B1B6833B180
:1015200004B0BDE8F0411847074B1D64F5E704B06F
:10153000BDE8F081775F0208525F02086D5F020824
:10154000915F02080C20002000D0035008200020EA
:1015500000E0035007B501211320FFF75BFF0721CF
:101560001420FFF757FF4B211520FFF753FF0F21E2
:101570001620FFF74FFF4E211720FFF74BFF0421E6
:101580001A20FFF747FF3E210020FFF743FF6421A9
:101590001120FFF73FFF01210020FFF761FF01212C
:1015A0001120FFF75DFF00200123CDE90003044A6D
:1015B0000721126803F012FB03B05DF804FB00BFC3
:1015C0002020002000487047742000200D4B00218F
:1015D0001A4610B5147814B15488844210D01631CC
:1015E000422902F12C02F5D100220124197811B907
:1015F0001C70588059700132032A03F12C03F5D175
:1016000010BD00BF7420002070B506460025074CB1
:1016100023782BB16388B34202D120461BF05FF9D7
:101620001635422D04F12C04F2D170BD7420002037
:10163000044B187820B993F82C0008B993F8580097
:10164000704700BF74200020012208B5064B83F8C4
:101650008B2040F20112A3F88820FFF7B7FFBDE806
:10166000084000F013BA00BF742000202DE9F047B5
:1016700005460E46174698464FF0010A0D4C04F1F8
:101680008409237863B16388AB4209D12846A680D8
:10169000E780A4F808801BF040F930B184F801A07D
:1016A0002C344C45EDD1BDE8F087284600F0EEF92A
:1016B000F6E700BF7420002010B504461BF070F957
:1016C0002046FFF7A1FF0023054C84F88C301BF067
:1016D00081F9FFF7ADFF08B984F88B0010BD00BF9A
:1016E0007420002000231946044A01330A2BC2E962
:1016F000001102F10802F8D1704700BF2420002039
:1017000010B50C4CA8220021204623F095FD204660
:101710001BF0E5F804F12C001BF0E1F804F158008F
:101720001BF0DDF8FFF7DEFF01F0ACFA052384F8CB
:10173000A23010BD742000200123002230B503FA2E
:1017400000F00E4B53F83240844204D1012003EBE9
:10175000C203596030BD01320A2AF3D10022074C7E
:10176000256825B9656815B943F83200EEE70132FE
:101770000A2A04F10804F3D10020EBE7242000201A
:1017800008B50123002203FA00F0084B19688142D2
:1017900004D1596811B18847012008BD01320A2AD5
:1017A00003F10803F2D10020F7E700BF2420002056
:1017B00007B54FF47A7005F0F5FE00230146CDE938
:1017C0000033094A09481CF035FA50B1084B012092
:1017D000019340F2D113074A00930749074B00F0E9
:1017E0001BFE03B05DF804FB01C901083C21002089
:1017F0000D600208AB5F0208CA5F0208746002084D
:10180000014805F025BE00BF3C21002007B5124B62
:10181000124A01934FF4FF73114903200093114BB7
:1018200000F0FAFD642005F0BDFE00230146CDE97D
:1018300000330D4A0D481CF0D9F950B10C4B012072
:10184000019340F20323054A00930549054B00F03C
:10185000E3FD03B05DF804FB2E600208AB5F0208F5
:10186000CA5F02085160020807C901081C21002054
:101870000D6002083A4BF0B5B0FBF3F24FF4C875B7
:1018800003FB1200642640F2B273B2F5B77F4DD26B
:1018900040F26D14A24213D19C0706D16425B3FB1C
:1018A000F5F405FB1434A4B254B94FF4C875B3FB76
:1018B000F5F405FB1434A4B214B1002201339BB239
:1018C0006424B3FBF4F504FB15354FF4C874B3FB83
:1018D000F4F604FB16360024DFF888E00B80ADB286
:1018E000B6B203F00303012CA7B202D103B9A5BB22
:1018F0009EB31EF804C0944505D801340C2CA2EB0D
:101900000C02F0D127460132CA704FF46162B0FB7D
:10191000F2F302FB13003C224B71B0FBF2F302FB2B
:10192000130001378F708B71C871F0BD9C0705D112
:10193000B3FBF6F406FB1434A4B22CB9B3FBF5F4F4
:1019400005FB1434A4B224B9A2F5B77201339BB2DB
:101950009BE76FF4B6773A44F8E74FF01D0CCAE7FF
:10196000805101008B60020873B50D460446B0B388
:101970001C4E304601F042F90223237001236370AC
:101980000623A3700B23E37009232371336803201C
:10199000C4F805307368E074C4F809303389E07323
:1019A000A4F80D3041F61F03A4F81130FF2323756E
:1019B00040F26233A4F815300B4B20740193482396
:1019C0000A4A0B4900930B4B00F026FD17232246D1
:1019D0000821094800F0D0FF0DB117232B7002B089
:1019E00070BD00BF9D390020B460020897600208F6
:1019F000AD600208D7600208CE6002080048704758
:101A0000BB39002010B5094C092104F11203184616
:101A100000F080F804F11203A4F81B000B22BDE8CB
:101A20001040002123200EF029B800BFA939002062
:101A300000487047B439002010B5084C052104F166
:101A40000B03184600F066F804F10B03208207220E
:101A5000BDE81040002120200EF010B8A939002068
:101A600000487047A9390020074B0921184610B5D6
:101A700000F050F8BDE81040034B0B22A3F809001A
:101A800000211E200DF0FABFA93900202DE9F04FEA
:101A9000074600264FF02C084FF00109DFF870A030
:101AA00085B0FFF78FFD08FB06F4035D23B3FFF756
:101AB00089FD20444388BB421ED1FFF783FD2044AB
:101AC0004378CBB938461AF028FF0546D0B9FFF75E
:101AD00079FD04F10C0300EB030B41F2883005F0B3
:101AE00061FD0390FFF76EFD52460319CDE90055E5
:101AF000584603991CF07AF80136032ED1D105B06F
:101B0000BDE8F08FFFF75EFD204480F80190F3E719
:101B10008FC9010810B581B14FF6FF73084C01441D
:101B2000884201D1184610BD10F8012B5A40D2B29C
:101B300034F8122082EA1323F2E74FF6FF73F1E73D
:101B4000F26002080122014B1A707047063A002029
:101B50000022014B1A707047063A002030B593B04E
:101B600002AC84E803008DF807301C238DF8143094
:101B70000DF10703CDF8173001230BAC214605A862
:101B80008DF815208DF816301AF049FF07AD014683
:101B900020461BF0C8F82946204601F09BF895E83E
:101BA0000F0084E80F000E4B1B78B3B1FFF70AFD5E
:101BB00090F88C308BB1FFF705FD90F88B3063B156
:101BC00023461022BDF809109DF808000DF06CFFA7
:101BD000FFF7F8FC002380F88C3013B030BD00BF55
:101BE000063A00200122014B1A707047073A002084
:101BF0000022014B1A707047073A002082B070B57E
:101C000090B002AC84E8030014A909AC81E80C0090
:101C100014A821461BF00AF8224683B2054610217B
:101C2000304800F0A9FE304B1B786BB905AD102190
:101C300020461BF078F82946204601F04BF895E83D
:101C40000F00102584E80F00284E337843BB284B43
:101C500002200193D123274A00932749274B00F004
:101C6000DBFBFFF7AFFC90F889304BB9244B022027
:101C70000193D5231F4A00931F49204B00F0CCFB52
:101C8000FFF7A0FC90F88B3013BB1E4B0220019392
:101C9000D923184A00931849184B00F0BDFB17E0F0
:101CA000FFF790FC90F88930BBB1FFF78BFC90F800
:101CB0008B3093B123462A46BDF809109DF80800E1
:101CC0000DF0F2FE044618B9FFF77CFC80F889405D
:101CD00010B0BDE8704002B070473378002BC0D11F
:101CE000B5E700BFF2620208083A0020073A002078
:101CF0001E630208FC62020814630208F96302080A
:101D000039630208546302082DE9F04F95B00DF1D4
:101D1000100888E803001146184617461C461AF0BA
:101D2000B5FF00284FD0B94BB94A0193F3230420E3
:101D30000093B849B84B00F06FFB0122B74B1A7003
:101D400017F0FF0600F0BC80012E257800F0BB8064
:101D5000013EF6B204F101093B4622461021B0488B
:101D600000F00AFEAF4B032001934FF49F73A84A83
:101D70000093A849A84B029500F04EFB1C238DF858
:101D8000383002231B2D8DF839508DF83A3000F091
:101D9000A28100F2A780042D00F0D78100F2978085
:101DA000012D00F001819D4200F0078100258DF892
:101DB0004F5014AB13E90F008DE80F00DDE90E233F
:101DC000DDE904013AE0FFF74BFE0579002D38D03C
:101DD000954B25460193FD2304208D4A8D490093A0
:101DE0008D4B00F019FB204606A900F089FF0AAED2
:101DF00006AB1A4603CAB24228606960134605F171
:101E00000805F6D123787B2B9AD0FFF7DBFB90F8FF
:101E10008430002B94D11D238DF8383000238DF8A9
:101E200039308DF83A308DF84F3014AB13E90F008C
:101E30008DE80F00DDE90E2398E80300FFF7DEFED2
:101E400081E27A4B0420019340F21313704A00930D
:101E50007049714B00F0E0FA26787A2EDBD1112F11
:101E600015D0734B042001934FF49373684A009389
:101E70006849694B00F0D0FA1C238DF838300323F1
:101E80008DF839608DF83A308DF84F50CDE7631CEE
:101E90001D46184606A900F033FF2B4606AA0AAED7
:101EA000154603CDB542186059602A4603F1080370
:101EB000F6D1102322460A215E4800F05DFD3FE77F
:101EC000B146FF2548E74FF000094E4644E71A2D7A
:101ED0007FF46CAF0F212046FFF71CFE002871D065
:101EE000072367E07A2D00F0F08143D8612D00F0E0
:101EF0005B81622D7FF45AAF042E5AD899F80020E6
:101F0000012A00F0C381032A53D14B4B8DF83B20AB
:101F100093F818B093F819A093F81A9093F81B80CF
:101F200093F81CE093F81DC09F7FDE7F93F820504C
:101F300093F8214093F8220093F823109B8C8DF89E
:101F40003CB08DF83DA08DF83E908DF83F808DF827
:101F500040E08DF841C08DF842708DF843608DF8F7
:101F600044508DF845408DF846008DF84710ADF887
:101F70004830A6E17B2D7FF419AF06212046FFF7FC
:101F8000C9FD0546C0BB6488FFF71CFBB0F886306E
:101F9000A3422AD1102F0CD101248DF83A40FFF72B
:101FA00011FB80F8844002E7032E8DF83A507FF64B
:101FB000FDAE03238DF83A30F8E6032301258DF8B2
:101FC0003830F4E6D4F80150B4F80570E67994F8A6
:101FD0000980FFF72DFD8078B0FA80F4FFF728FD27
:101FE00083786409332B00D00CB10423E2E7FFF7B8
:101FF0001FFD8378022B01D10523DBE7FFF718FDD6
:102000008378082B20D10623D4E700BF6B63020836
:10201000FC6202081463020803640208083A002004
:10202000C3630208CC630208816302089463020858
:10203000A6630208B1630208B838002000007A44A1
:102040009A99993ECDCC8C3F07EE907A1FED057A98
:10205000F8EE676AC6EE877A1FED077AF4EEC77A64
:10206000F1EE10FA3FF5A2AE1FED0A7AF4EEC77A50
:10207000F1EE10FA3FF79AAEFFF7DAFCA0F8037022
:10208000FFF7EEFC80F80080FFF7B8FC0560FFF773
:10209000B5FC0672FFF7CCFC33238370FFF7E4FC3A
:1020A000FFF7B0FCFFF7C8FC3146284600F05AF9AC
:1020B000A64B597A1A7A186842EA0122997A42EABA
:1020C000014222F07F42596800F044FDFFF770FBA7
:1020D00000F050FD6AE6FFF7ABFC83780F2B25D8A4
:1020E00053B3013B0E2B27D801A252F823F000BFB7
:1020F000EB1F0008EB1F000839210008EB1F000848
:10210000EB1F00083921000839210008EB1F0008E7
:102110003921000839210008392100083921000837
:1021200039210008EB1F0008EB1F0008222B3FF4A9
:102130005CAF312B3FF459AFFFF77AFC0223837079
:10214000FFF77AFCFFF75CFB30E60C2F7FF631AF30
:1021500007212046FFF7DEFC054600287FF445AF47
:10216000B4F80140FFF72EFA90F8A330022B0FD0FD
:10217000FFF728FA90F8A330042B09D0FFF722FAD2
:1021800090F8A330052B03D009238DF83A300EE6E2
:10219000FFF74EFC8578002D7FF435AF173CC62C39
:1021A0008CBF08230123F0E7102E3FF602AF99F809
:1021B0000060032E21D0042E52D0012E7FF4F9AE00
:1021C000B4F90500624DB4F90370B4F90710B4F91D
:1021D0000920B4F90B30B4F801406880AC800024C9
:1021E000298128460E21EF806A81AB812C80FFF780
:1021F00091FC8DF83A60E881D8E5607AA17A94F88C
:1022000001A094F8029094F8038094F804E094F804
:1022100005C0A779E679257AE27A237BB4F80DB078
:102220004B4C84F8200084F8211004F118000E2192
:1022300084F818A084F8199084F81A8084F81BE0B8
:1022400084F81CC06777A677E57784F8222084F8A5
:102250002330A4F824B0FFF75DFCE0840123A9E655
:102260006078A178E278A3880024394D85F82800A9
:1022700085F8291085F82A20062185F82B4005F1DC
:102280002800AB85FFF746FCE885E7E7304B8DF883
:102290003B20B3F90460B3F90650B3F90240B3F937
:1022A0000800B3F90A10B3F90C30ADF83C60ADF892
:1022B0003E50ADF84040ADF84200ADF84410ADF8E6
:1022C000463060238DF8383070E5224B04200193AE
:1022D00040F2E223204A21490093214B00F09CF870
:1022E000FFF7BEFB0379002B7FF47FAEFFF7B8FB4F
:1022F00001230371FFF7B8FB04F110050AAA134686
:1023000020686168083403C3AC421A46F7D1012340
:102310008DF83A3000238DF84F3014AB13E90F00DD
:102320008DE80F00DDE90E2398E80300FFF766FC57
:102330000DF1290000F0C6FCFFF744F90A9BC3F336
:102340000F23A0F8863015B0BDE8F08F093A0020C1
:10235000B8380020E7630208FC6202081463020830
:102360000364020870B588B00D460646FFF746FBC9
:102370000660FFF743FB0572FFF744FB0023114C97
:102380003046214663602360C4F80730FFF772FAD5
:10239000E37903200793A3790B4A069363790B49EA
:1023A0000593E37865720493A378039323880293DB
:1023B000074B01933C230093064B00F02DF808B027
:1023C00070BD00BF093A0020176402082E6402089D
:1023D000376402086764020838B5064C012594F892
:1023E000F23023B11AF090FC84F8F45038BD84F830
:1023F000F350FBE75C21002010B5064C94F8F23056
:102400002BB11AF082FC002384F8F43010BD84F85C
:10241000F330FBE75C2100202DE9F04F07468FB039
:10242000084699460D46924623F05DF80023052F95
:102430008346CDE90A33CDE90C330893ADF8243057
:1024400017D9AB4B1C687CB94FF40F72A949AA4B42
:102450000291AA49CDE90332CDE900212046A84ADC
:10246000A849FFF7D9FFFEE74FF40F72A249A14830
:10247000A047DFF8C88298F8F130002B00F01781F0
:1024800098F80030BB42C0F01281284600F0AEF947
:10249000B842C0F00C81284608F1010123F052F83F
:1024A000002800F004811AAB0793FFF795FF98F816
:1024B000F540954E64B13146944A002000F026FB69
:1024C000934B311853F82720044600F01FFB0444B7
:1024D0000121384600F0D8F938B18E4B2046311929
:1024E00053F8272000F012FB04440221384600F084
:1024F000CBF9D0B1204631192A4600F007FBBBF1D9
:102500000F0F04440BD82021CBF10F020AA822F0B0
:1025100093FE204631190AAA00F0F8FA0444204636
:1025200031197A4A00F0F2FA04441C21384600F0CE
:10253000ABF9002848D031192046774A00F0E6FA76
:1025400004210444384600F09FF990B100F0CCFA21
:1025500031190246204600F0D9FA182104443846C1
:1025600000F092F928B120463119684A00F0CEFAFD
:1025700004440821384600F087F990B11AF0C6FBF0
:1025800031190246204600F0C1FA102104443846B1
:1025900000F07AF928B1204631195C4A00F0B6FA09
:1025A00004441021384600F06FF938B11AF0B0FB3E
:1025B00031190246204600F0A9FA04442046311998
:1025C000564A00F0A3FA0444E021384600F05CF9D2
:1025D00000284AD031192046514A00F097FA2021AC
:1025E0002518384600F050F990B171195246284626
:1025F00000F08CFA40210544384600F045F9741982
:10260000002857D0474A2846214600F07FFA054463
:102610008021384600F038F9B0B10521189B424AB4
:1026200008A819F021F97119284608AA00F06EFAD5
:1026300040210544384600F027F928B12846711991
:10264000324A00F063FA05444021384600F01CF994
:1026500028B1284671194A4600F058FA0544284620
:10266000324A711900F052FA2C18C4F58061301901
:10267000079B199A19F04CF90444B4F5806F21D8DE
:102680000028B8BF4FF4806440F2FB33621DB2F5FE
:10269000806F88BF1C4698F82030B3B100232449CE
:1026A0001948335522F04EFF78B9FFF7A5FE0FB059
:1026B000BDE8F08F8021384600F0E6F80028A7D06A
:1026C000124AA0E74FF48064DEE798F8F5302BB1AA
:1026D00020463119174A00F019FA044431192046EE
:1026E000154A00F013FA211807481AF008FBDCE736
:1026F00054220020A5640208B3650208BF640208E2
:1027000085640208A0640208143A0020516502089A
:10271000E4650208FC650208E1640208E36402085B
:10272000E6640208E8640208EA6402083165020807
:102730007C210020EE640208E56302085C21002091
:102740001FB50B4B93F8F02072B1012283F8F120F2
:10275000084B03200293084B084A0193F4230849CD
:102760000093084BFFF758FE05B05DF804FB00BF6F
:102770005C210020F3640208FA6402088564020800
:10278000A06402089865020870B5052804460D4645
:1027900086B017D90E4B1E687EB94FF49F720D4953
:1027A0000D4B02910D49CDE90332CDE900213046B0
:1027B0000B4A0C49FFF730FEFEE74FF49F720649C3
:1027C0000448B047084B363443F8245006B070BD77
:1027D00054220020A5640208D7650208BF640208DD
:1027E00085640208A06402085C210020F0B5074659
:1027F00087B0B0B91D4B1B6873B94FF4EF721C4919
:102800001C4B02911C49CDE90332CDE900211B4A42
:102810001B49FFF701FEFEE74FF4EF72154914481C
:102820009847184D95F8F030EBB1FFF7D5FD2E46DF
:10283000002496F8513083B11E22384606F1320149
:1028400022F059FE48B904EB44142C4494F831406A
:10285000FFF7D2FD204607B0F0BD0134052C06F18C
:102860002106E6D1F4E70524F4E700BF5422002056
:1028700020650208BF650208BF640208856402087B
:10288000A06402085C21002070B5052804460D46AE
:1028900086B017D9104B1E687EB940F2DB220F4973
:1028A0000F4B02910F49CDE90332CDE900213046AB
:1028B0000D4A0E49FFF7B0FDFEE740F2DB22084962
:1028C0000648B0470A4B363453F824301D4214BF33
:1028D0000120002006B070BD54220020A56402082B
:1028E000A3650208BF64020885640208A0640208A8
:1028F0005C210020074B83F8F20050B193F8F320DD
:1029000093F8F43013B922B11AF0FEB90AB91AF0EB
:10291000FCB970475C210020F8B5164D95F8F030F1
:102920002BBB1AF0EAF90446F8B90120FFF7E2FFE1
:102930004FF480730522A5F8F4302B46264627462F
:1029400085F8F34003F8322B18461F22002122F0AD
:1029500073FC03460136052E00F8017CC77703F1AE
:102960002103F1D1012385F8F0302046F8BD002481
:10297000FBE700BF5C2100202DE9F04F2DED028B1D
:1029800000250F464F49984691F8F13087B008EE80
:10299000100ACDE9045503926BB10B78032B0AD9C9
:1029A000013122F0CFFD30B1FFF716FD464E45450F
:1029B00006D3FFF721FD07B0BDEC028BBDE8F08F19
:1029C0007B19013BCDE900534FF4806118EE103ABA
:1029D00030463E4A18F048FFB0F5806F88BF4FF48C
:1029E0008060A946AA464FF0000B84B2BBB25F4597
:1029F000029324D820463119354A00F087F84FF069
:102A0000000A0444DFF8DCB0A4B2029A1FFA8AF389
:102A10009A423BD840F2FF33621CB2F5806F88BF08
:102A20001C462C4A3119204600F070F8204481B22F
:102A300030461AF064F9029B2B449DB2B7E7D045AB
:102A40001EDD039B082113F80A30234A04A818F05E
:102A50000BFF2046311904AA00F058F80BF10103CE
:102A600020441FFA83FB5B0784B206D1204631194C
:102A70001A4A00F04BF8204484B20AF1010AB5E783
:102A80000822174904A822F04AFDE2E7C84513DDF1
:102A9000039B082113F8093004A8A3F120025F2A40
:102AA00028BF2E235A4618F0DFFE2046311904AA0B
:102AB00000F02CF80444A4B20AF1010A09F101095A
:102AC000A3E700BF5C210020143A00203365020810
:102AD00050650208E563020849650208516502086D
:102AE0004F650208536502087FB504F03BFD6A4656
:102AF00004F0AAFD009A044902A818F0E9FE00209B
:102B000007B05DF804FB00BF1466020870B529B970
:102B10002C210C4B0C4A0D4817F0E6FF3AB1144635
:102B2000431A204614F8015B2DB9801A70BD2D217F
:102B3000074B054AEFE7CE18B6F5806FF5D201F8DE
:102B4000015BEEE717660208406602081B66020892
:102B50003C6602081FB501AC84E80700044B94E80A
:102B6000070003C323F8022B120C1A7004B010BD27
:102B70006022002007B50D4B0D4A01937A230320F4
:102B800000930C490C4BFFF747FC00200B4B4FF414
:102B90000051186000F01AF84FF4E0314FF4005083
:102BA00003B05DF804EB00F011B800BF6E660208D8
:102BB0004C660208666602087E6602086C220020E7
:102BC000014B1868704700BF6C220020F8B506461C
:102BD0000D460024084F3888B5FBF0F3A34201D816
:102BE0000020F8BD7B68334404FB00301AF092F8F3
:102BF0000028F6D10134EEE7702200207FB5194D90
:102C00000646082105F12800FEF784FF044618B99E
:102C100095F82830FF2B10D144F241232B85432314
:102C2000114A6B85CDE900320120104B104A114941
:102C3000FFF7F2FB00230124AB85AB8D30460E4A33
:102C40000E4918F045FE0E4B012001934C23084A13
:102C500000930849054B0296FFF7DEFB204604B0BF
:102C600070BD00BFB8380020B0660208DF660208F9
:102C70008C660208A7660208E0380020CF660208CA
:102C8000D966020808B55022002006491AF046F815
:102C90000023054843600360C0F80730BDE80840E2
:102CA000FFF7ACBFB8380020EF0E002008B50B4688
:102CB000034909680144184622F097FA002008BD2C
:102CC000E40A00204278024B9A730278DA73704764
:102CD000FA0E002037B50446074D019180222846A0
:102CE00006491AF01EFD224601212846019B03B029
:102CF000BDE830401AF032BD7C220020FA0E0020E0
:102D000037B50446074D01918022284606491AF03E
:102D100023FD224600212846019B03B0BDE8304038
:102D20001AF01CBD7C220020FA0E0020012208B5FA
:102D3000074B1A700022074B1A700422064B1A70B8
:102D40001F22064B1A7003F0E3FC054B186008BD08
:102D50000A0F0020143E00200B0F00200C0F002053
:102D6000A022002008B500F02DF8124B12498B422A
:102D700012D30020114B12498B4218D3FEF790F862
:102D8000186850F82240586840F82240013298688C
:102D90008242F5D30C33EAE70022F8E71C6844F8D6
:102DA000220001325C68A242F8D30833E4E7002233
:102DB000F8E700BF50B502085CB502085CB5020830
:102DC0005CB502084FF400414FF0FF30114B124A3E
:102DD00010B59A60D3F8882042F47002C3F88820B6
:102DE0000E4A916601F1884101F5005210660C48C7
:102DF00050660220C3F8D000BFF34F8FBFF36F8F30
:102E000008244FF440330748C0F88041D360046081
:102E10000B6110BD00ED00E00000000800900050C4
:102E20007FFF070000E100E0014B1868704700BF1A
:102E3000EC0A0020084B1B6F03F00703022B04D0A1
:102E4000032B05D0012B05D0FEE7044B1868704713
:102E5000034BFBE70348704700800050EC0A00205A
:102E6000F00A0020002D310108B5FFF7E3FF054B04
:102E70001B6FC3F303330133B0FBF3F0024B186055
:102E800008BD00BF00800050E80A002000487047DD
:102E900000B4C404014B1868704700BFF00A00205A
:102EA000054B1860054B1B6F03F00703032B01D183
:102EB000FFF7DABF704700BFF00A00200080005023
:102EC00000487047002D3101014B1868704700BF62
:102ED000F40A002005490A681318054883428CBF8C
:102EE0004FF0FF320B601046704700BFF80A002019
:102EF000000001202DE9F04F9A46564B85B01B7813
:102F000006460F461546DDF83C909DF844B0DDF8C6
:102F10005080002B00F08D80072A00F28C800E9BE1
:102F2000002B00F08880B9F1000F00F08480129B24
:102F3000B3F5006F7FDC012802D1109B002B7AD003
:102F4000454B03EB05131B7B002B76D0434C102223
:102F50000021684622F070F904EB45141022002F7E
:102F600059D13946204622F067F943F210036380B5
:102F7000BBF1000F03D1E37843F00303E370374A5A
:102F80000E9B02EB451CCCE90193129B6901013BAE
:102F9000C3F30A009DF84C30012E03F003034FEAFF
:102FA000836343EA001E53582D48CDF800A000EA81
:102FB00003004EEA0003535041D113230CF1100ECD
:102FC000CCF80C309CE80F008EE80F006FF0030186
:102FD000DCF81C20109B61F39F02012FCCF81C2011
:102FE000CCF8143003D1CCF81890CCF8043000277A
:102FF000194A290102EB051342F80180159A284667
:103000005A60694622469F605E7301F0B1FE384601
:1030100005B0BDE8F08F0021204622F00DF94FF4F5
:1030200044736380BBF1000FA9D1E37843F0300310
:10303000A4E70C48ECE70C48EAE70C48E8E7B8F1ED
:10304000000FD4D19CF8023068F304138CF80230DE
:10305000CDE700BF153E0020A4220020242300203D
:103060000F80FFF3028000F0018000F0078000F085
:1030700038B5124B05461B78DBB1E0B11AF01BF8EE
:103080000F4A00231146147B54B92B6001251A0105
:1030900001EB03131D738C501AF013F8204638BD52
:1030A0000133082B02F11002EDD11AF00AF805489D
:1030B000F5E70548F3E70548F1E700BF153E0020B6
:1030C000A4220020048000F0028000F0018000F0C3
:1030D000154B13B51868002301908DF8043019F0D2
:1030E000EAFF124B1C7824B119F0EBFF104802B034
:1030F00010BD01221A7019F0E4FF0E4B01A81C73D9
:103100001C7783F82C4083F83C4083F84C4083F8CC
:103110005C4083F86C4083F87C4008238DF80730CE
:1031200001F0F4FD2046E2E7EF660208153E0020BC
:10313000038000F0A4220020204B2DE9F0471F6DF2
:103140005A6D1F4C174010D54FF000411D4A1165B4
:10315000D868C0F304200301E35804EB00125BB30A
:10316000BDE8F04700215268184701260025DFF826
:103170005480DFF85490374217D02368C8F8506065
:103180009BB1A168284601316268A1609847637BC2
:10319000012B0AD148B909EB45131A7B60F34102B0
:1031A0001A731A7F60F341021A770135082D4FEA2E
:1031B000460604F11004DED1BDE8F087000004509B
:1031C000A4220020002004502423002070B50446CF
:1031D00001250B4E04B970BD94FAA4F0B0FA80F04A
:1031E00005FA00F306EB001224EA03045368002BEF
:1031F000F0D0117B11B191689847EBE79847E9E768
:103200002424002008B51E2001F04EFA28B14FF00A
:103210008042074BC3F880211A601F2001F044FA56
:1032200028B14FF00042024BC3F880211A6008BD5C
:1032300000E100E0F8B505460F46164619F03BFFE1
:10324000104B05F0FC02D3F824140023EC1804F012
:103250000304144321FA04FC1CF0010F07D00133CE
:10326000042BF3D1FF2419F02CFF2046F8BDFF2CCE
:10327000F9D00122044B03EB0413C3E901761A735E
:10328000F1E700BF00C0035024240020074BD3F80F
:103290002404D3F8202403F50053104000F05530E7
:1032A00020F05020C3F82004FFF790BF00C0035067
:1032B000074BD3F82404D3F8202403F5005310401F
:1032C00000F0AA3020F0A020C3F82004FFF77EBF52
:1032D00000C00350024B1968024B18680FF0BABDCA
:1032E000000B0020FC0A002037B5920004460D4672
:1032F000019222F0F5FB431C0BD060B92946204611
:10330000019A21F062FF0028044808BF002003B0A2
:1033100030BD0348FBE70348F9E700BF10E000F0C9
:1033200021E000F024E000F010B5044622F0E0FBBC
:10333000431C10D088B901F011FE234620F0030091
:103340002044984201D1002010BD53F8042B0132D3
:10335000F7D00348F8E70348F6E70348F4E700BF6F
:103360000EE000F021E000F024E000F008B519F0D4
:103370009BFE014B186008BD642C0020014B1868AF
:1033800019F096BE642C002038B50546B0B1B9B12D
:10339000B2B1B2F5006F13DC19F08DFE95F84C3028
:1033A00003F0FF041BB119F08CFE064838BD012361
:1033B00085F84C3019F085FE2046F7E70248F5E71E
:1033C0000248F3E7032000F0012000F0022000F0A3
:1033D0002DE9F04F1E46002387B080F85430109B33
:1033E0000446436390F85C3089469246C663002BDE
:1033F00038D14FF4406305686B614369092B03D9E9
:1034000005F12C08443506E00BBF05F1200805F155
:10341000240838353C3567694FF0010B082F94BFFD
:1034200000270127204619F0FEFD134B5246CDE937
:103430000273216B4346A06A04940196CDF800B054
:1034400019F0DEFC00232A46CDE90333CDE90167FC
:103450004B46E16A606ACDF800B019F0B7FC07B0DE
:10346000BDE8F08F012BFAD1006819F01DFD256829
:1034700005F13C08C6E700BFE9CF01082DE9F04798
:1034800016460022436390F85C300446894686B0B5
:1034900080F85420C663002B38D14FF44063056890
:1034A0006B614369092B03D905F12C08443506E00B
:1034B0000BBF05F1200805F1240838353C35676954
:1034C0004FF0000A082F94BF00270127204619F06B
:1034D000AAFD134B216BCDE9027304F13802434678
:1034E000A06A04940196CDF800A019F089FC01238C
:1034F0002A460093CDE903AA4B46CDE90167E16A6C
:10350000606A19F063FC06B0BDE8F087012BFAD1C0
:10351000006819F0C9FC256805F13C08C6E700BF42
:10352000E9CF010801292DE9F84321D81F4B204E8E
:103530001C68204FDFF88080803C14F1800F01D19F
:10354000BDE8F883D4F800900521B1450CBF3D4695
:103550004546484619F0F8FD19F0A6FD2B6843F0E2
:1035600018032B6019F0A4FDD4F88040803CE4E7F8
:1035700002390129E4D80D4B0D4E1C680D4FDFF8C0
:103580003880803C14F1800FDAD02368B3420CBF3E
:103590003D46454619F088FD2B6823F018032B6043
:1035A00019F086FDD4F88040803CEBE7182D002010
:1035B0000000045A8CC403506CC403502DE9F0433E
:1035C0006A4BD1F800908FB0994505460C460DF135
:1035D000180840F0E5804746654ECDF814800FCEC0
:1035E0000FC796E80F00103687E80F000FCE01AF27
:1035F0000FC7002D00F0B78084220021284621F05B
:103600001BFE23684B4510D05A4E5B4B1B681BB901
:103610005A495B4803F0E4FA574805F1800119F074
:10362000D1FB30460FB0BDE8F08354222B6001235C
:103630002A6527464FF48812DFF860E185F85C3090
:103640002E1DC5E90BE20FCF0FC697E80F0086E8E5
:103650000F00637E012B08BF8DF81D30A37E23B1C0
:10366000012B69D104238DF81230227EE368012AF0
:1036700069D1444A93429CBF05238DF8353000231D
:103680008DF81130404B01213A20039300F066FB86
:103690000121286D00F062FB2369DA1F092AB3D8E3
:1036A000063B8DF81030237E2BB9E37EB3FA83F30B
:1036B0005B098DF81C300121284619F000FC0646F4
:1036C0000028A2D1237A227942EA03422F4BC3F881
:1036D000A424617A627942EA0142C3F89C24A17A67
:1036E000A27942EA0142C3F8A024E27E002A40F017
:1036F0003181E17AE27942EA0142C3F890241D2245
:10370000C3F88C24206801A901F0C6F919F0D3FC94
:103710001F4B1A78DAB901221A7019F0D2FC03F0A3
:103720005DFEFFF7D5FC002105F12400FFF7A0FCAA
:10373000014678B1174E68E7022B94D0032B7FF433
:1037400063AF06238FE700228DF834209BE719F042
:10375000B8FCE6E705F12800FFF78AFC06460028DA
:103760003FF453AFE6E70C4E4FE700BF0000045AAA
:1037700018670208022000F0182D0020200B0020FE
:103780001C2D00203F4B4C0040420F0000C0035056
:10379000163E0020092000F0012000F00100110079
:1037A00046466D4F0FCF0FC697E8070086E8070023
:1037B000002D00F0CD8084220021284621F03CFD20
:1037C0002368664A934240F0908028222A654FF48D
:1037D00080220026624FC5E90B722F46A44647F8A7
:1037E000043BBCE80F000FC79CE80F0087E80F0000
:1037F000637E012B08BF8DF82630A37E33B1012BE9
:1038000040F081804FF40073ADF82830237E012111
:10381000012B03BF00238DF825304FF4E133E3681B
:103820003A20089300F09AFA0121286D00F096FAE8
:1038300023691A1F0C2A5BD8033B414620688DF888
:10384000243001F0C3FBA36923F47F0323F47F43F7
:1038500023B92A68936843F480339360227A2379EA
:10386000607943EA0243627AA17940EA0240A27A8F
:1038700094F81BC041EA02413A4A77013A4436B211
:10388000BCF1000F49D11D277601C2F83476C2F889
:103890004C3606F1A04303F57033C3F84406C3F871
:1038A0004816E17AE37943EA0143C2F83836012148
:1038B000284619F004FB064600287FF4B2AE19F042
:1038C000FAFB294B1A78BABB01221A7019F0F9FBDE
:1038D00003F084FDFFF7FCFB002105F12400FFF756
:1038E000C7FB014658B3214E9BE6214A934201D0C3
:1038F000204E96E629222A654FF4A0221E48012672
:10390000C5E90B0269E7022B02D14FF480737BE714
:10391000032BEDD14FF4407376E71C247601C2F8F7
:103920003446C2F84C3606F1A04303F57033C3F8B1
:103930004406C3F84816BAE719F0C3FBCAE705F115
:103940002800FFF795FB064600283FF46AAECAE759
:103950000A4E66E61C22D3E64C67020800C00550FA
:103960000200040000C00350163E0020092000F0B1
:1039700000000650022000F002000500012000F0C7
:103980007FB51546027F0446012A0E4613D01A461B
:103990000393FFF7F9FC60B97DB1094A314620462F
:1039A000039B00922A46FFF713FD204619F0F2FA16
:1039B000A06C04B070BD0348FBE70348F9E700BF03
:1039C0009FCE0108082000F0022000F070B5037FB0
:1039D0000446012B0D4616460DD0FFF7D5FC48B91D
:1039E000324629462046054BFFF748FD204619F090
:1039F000D1FAA06C70BD0248FCE700BF9FCE010861
:103A0000082000F0044BD3F88420D206FBD4D3F86E
:103A10008400C0F3811070470040005038B5104B4F
:103A20000546D3F820310C4603F00303022B0BD0DC
:103A3000032B0DD0012B0FD1FFF7F6F9052305B1AC
:103A4000286004B1236038BDFFF724FA0323F6E7AA
:103A5000FFF736FA0223F2E701230020EFE700BF69
:103A60000080005073B50D4600210E4B0191D3F834
:103A70008041064604F00304012C09D0022C0CD02E
:103A80000C460EB1019B336005B12C6002B070BDD5
:103A900001A8FFF7C3FF0F24F3E7FFF711FA019026
:103AA000EFE700BF0080005038B5184B0546D3F84B
:103AB00024010C4600F00700062805D8DFE800F0D6
:103AC000230B131B1F0F17000023184605B1286096
:103AD00004B1236038BDFFF7A7F90523F6E7FFF728
:103AE000A3F90623F2E7FFF7D5F90323EEE7FFF783
:103AF000D1F90423EAE7FFF7E3F90223E6E719F037
:103B000056F90723E2E70123E0E700BF00800050F9
:103B100038B5104B0546D3F840310C4603F003038B
:103B2000022B0BD0032B0DD0012B0FD119F041F933
:103B3000092305B1286004B1236038BDFFF7C4F93B
:103B40000823F6E719F038F90B23F2E701230020E8
:103B5000EFE700BF0080005037B50C460021124B44
:103B60000191D3F88432054603F00303022B0ED0F3
:103B7000032B11D0012B14D101A8FFF74FFF0F2306
:103B80000DB1019A2A6004B1236003B030BD01A8D1
:103B9000FFF7BEFF1023F3E7FFF792F9022301902E
:103BA000EEE70123ECE700BF0080005038B5144B6E
:103BB0000546D3F800020C4600F00700042804D89C
:103BC000DFE800F01B0A0E1216000023184605B1AC
:103BD000286004B1236038BD19F0EBF80923F6E73B
:103BE000FFF772F90823F2E719F0E6F80B23EEE786
:103BF000FFF73AF90E23800AE9E70123E7E700BF60
:103C00000080005038B5104B0546D3F840320C46C2
:103C100003F00303022B0BD0032B0DD0012B0FD18C
:103C200019F0C7F8092305B1286004B1236038BD35
:103C3000FFF74AF90823F6E719F0BEF80B23F2E77D
:103C400000231846EFE700BF0080005038B5104B46
:103C50000546D3F860310C4603F00303022B0BD06A
:103C6000032B0DD0012B0FD119F0A3F8092305B1B7
:103C7000286004B1236038BDFFF726F90823F6E772
:103C800019F09AF80B23F2E701230020EFE700BFB9
:103C90000080005038B50C46054619F005FA064B71
:103CA0009A6A82EA040101EA050454409C62BDE874
:103CB000384019F0FDB900BF00C00050B0F5207FBA
:103CC0001FD009D8B0F5007F15D003D868B1B0F582
:103CD000C07F0AD000200CE0B0F5607FFAD10B4B1A
:103CE000D3F88000C0F3011003E0084B186FC0F355
:103CF000033001307047054BD3F89000C0F30460E7
:103D0000F7E7024B186FC0F38020F2E70080005005
:103D10004FF400320E4B014610B500209A66FFF7B3
:103D2000CDFF41F6713248430A490B4B88428CBFA4
:103D30004FF480100020DC69DA635A6822F44012E4
:103D400002435A60E20344BF0022DA6310BD00BFA1
:103D500000900050005A620200000350420910B562
:103D600010D0012A10D00B4B0B4C022A18BF23464F
:103D700000F01F0051B103F58053012202FA00F058
:103D8000186010BD1346F3E7044BF1E703F5005349
:103D9000F3E700BF688000506082005064800050EC
:103DA0001FB5002280280446019200F00C8100F229
:103DB000BF803F2836D9A0F14D04142C02D90198B8
:103DC00004B010BD142CFAD801A353F824F000BF9E
:103DD0004F3F0008BF3D00084F3F00084F3F00081D
:103DE0004F3F0008134000086D3F00081D400008C9
:103DF000BF3D0008BF3D0008BF3D0008BF3D0008B3
:103E0000BF3D0008BF3D0008BF3D000867400008F7
:103E1000BF3D0008BF3D0008BF3D00084F3F000800
:103E20004F3F00083F28CAD801A353F820F000BF35
:103E30004F3F0008BF3D0008BF3D0008BF3D0008E0
:103E4000BF3D0008BF3D0008BF3D0008BF3D000862
:103E5000BF3D0008BF3D0008BF3D0008BF3D000852
:103E6000BF3D0008BF3D0008BF3D0008BF3D000842
:103E7000BF3D0008BF3D0008BF3D0008BF3D000832
:103E8000BF3D0008BF3D0008BF3D0008BF3D000822
:103E9000BF3D0008BF3D0008BF3D0008BF3D000812
:103EA000BF3D0008BF3D0008BF3D0008BF3D000802
:103EB0004F3F0008E13F00084F3F0008E13F000886
:103EC0001340000813400008134000081340000886
:103ED000E13F0008E13F0008274000086D3F00086F
:103EE00053400008BD3F00086D3F0008E13F000857
:103EF000E13F0008E13F0008BF3D0008BF3D00086A
:103F0000BF3D0008BF3D0008BF3D0008BF3D0008A1
:103F1000BF3D00089F3F0008E13F0008E13F000867
:103F2000E13F0008674000085D400008E13F0008ED
:103F3000B0F5806F6DD024D8B0F5007F47D009D898
:103F4000B0F5807F74D0B0F5C07F7FF438AFFEF756
:103F50008BFF3AE0B0F5607F48D03FF630AFB0F568
:103F6000207F3DD0B0F5407F7FF429AFFEF77CFF86
:103F700002464FF42070FFF7A1FEB2FBF0F04008BC
:103F800023E0B0F5C06F64D00ED8B0F5A06F45D077
:103F9000B0F5B06F47D0B0F5906F7FF410AF00214F
:103FA00001A8FFF781FD0AE7B0F5E06F56D0B0F544
:103FB000F06F58D0B0F5D06F7FF401AF002101A8A9
:103FC000FFF7F4FDFBE6FEF735FF0190F7E6FEF79D
:103FD00031FF02462046FFF771FEB2FBF0F0F4E736
:103FE000FEF742FF02464FF42070F4E7204BD3F86F
:103FF000803003F00303012B04D0022B06D04FF4D2
:104000006070E8E7FEF716FF0246F8E7FEF70CFFE0
:10401000FAE7002101A8FFF701FDD0E6002101A881
:10402000FFF79AFDCBE6002101A8FFF71BFDC6E6CE
:104030004FF0E02302921B695B0705D5FEF714FFE2
:104040000290029B0193BAE603A902A8FFF760FD64
:10405000F7E7002101A8FFF75BFDB0E6002101A80A
:10406000FFF7D0FDABE6002101A8FFF7EFFDA6E6C4
:104070000080005008B58020FFF792FE034B984265
:104080009EBF4FF48032024B1A6708BD005A62028D
:1040900000A000501FB50023B0F5607F019300F031
:1040A000A88036D8522800F08B8016D82D280BD83F
:1040B00023280ED9243809280BD8DFE800F08181A5
:1040C00081810A0A7C0A438B3D280ED03E2800F0ED
:1040D000A680019805B05DF804FB802853D009D86C
:1040E000542800F097805C28F3D1002001A9FFF745
:1040F000ADFDEEE7B0F5807FEBD102934FF0E0230A
:104100001B695B0761D5FEF7AFFE0C230393039B8E
:104110004DE0B0F5D06F5DD019D8B0F5A06F79D073
:104120000AD8B0F5806F4BD0B0F5906FD1D1002098
:1041300001A9FFF7B9FCCCE7B0F5B06F3BD0B0F503
:10414000C06FC6D1002001A9FFF7E2FCC1E7B0F5BE
:10415000006FECD005D8B0F5E06F60D0B0F5F06F2F
:10416000C2E7B0F5086FB4D12F4BD3F8003103F09C
:104170000303022B33D0032B35D0012B37D1FEF7AD
:1041800089FE032313E0284B1B6F03F00703013B59
:10419000032B9ED801A252F823F000BFB3410008C0
:1041A000AD41000883410008EB410008052301935D
:1041B0008FE70223FBE7002001A9FFF753FC88E704
:1041C000002001A9FFF72AFC83E703A902A8FFF753
:1041D0009FFC9CE7002001A9FFF7E8FC79E7FEF7C8
:1041E00073FE0823E3E718F0E2FD0723DFE701236E
:1041F000DDE70D4AD2F8802002F00302012A05D043
:10420000022AD4D1FEF710FE0623D0E7FEF712FEF5
:104210000D23CCE7002001A9FFF79EFC59E7002001
:1042200001A9FFF7EFFC54E7008000504FF4002293
:10423000034B5A66012203F580439A62704700BF20
:104240000090005008B5FFF725FF082811D0093865
:10425000012811D84FF40012094B4FF6FF705A662F
:1042600003F5D8335B6A13F0010F18BF4FF4FA70EF
:1042700008BD044B1888FBE74FF6FF70F8E700BF56
:1042800000900050DC0E002070B504468020FFF73F
:1042900001FF032800F082804FF40022444B0221EA
:1042A0005A6645F60E03434AC2F88030424B996283
:1042B000012103F580539962936DD903FCD4D4E9AD
:1042C00000131B0543EA0163E17B94F822500B4382
:1042D000217B94F8236043EA0143617B43EA013385
:1042E000A17B43EA811313619169D4E904031B069E
:1042F00043EA806301F000410B43A17EE07E0B4363
:10430000217E43EA0143617E43EA01239361E3692D
:10431000126A002B0CBF0021082122F00D0242EA94
:10432000030242EA8002234B42EA01021A6294F835
:1043300020204FEA421232D1986A94F8211020F0DE
:10434000330042EA0112024342F001029A621B4A20
:10435000996D32EA0101FBD1022217498A621A657E
:104360009A6D5200FCD41869A26820F4700040EAEB
:1043700002504FF0004218610F4B9A611DB90222A2
:1043800003F580539A6216B901220D4B9A6294F894
:1043900024301BB1074B0B4AC3F8802070BD996ACB
:1043A00021F0330131430A4342EA4502EEE700BF00
:1043B0000090005000C0005000D0005003000140A9
:1043C00000E00050F1A7FFFF1E4B13B5996A9A6DEC
:1043D00012F4803F18BF01241B4A18BF94620224C4
:1043E00094629B6DDB0303D5164A936D9C07FCD545
:1043F0000222154B134C1A65A36D5B00FCD4134BC2
:10440000A26993F9003022F47F020344000222F4EF
:104410007F4280B283F30803104340EA0340A06167
:1044200002200191FFF736FCA36D019913F4803F40
:1044300005D0012002B0BDE81040FFF72BBC02B050
:1044400010BD00BF00C0005000D00050173E00203B
:10445000014B93F900007047173E002001221548D8
:10446000154B816A9A62826D02F00302032AFAD127
:1044700002229A621A650F4B9A6D5200FCD40F4AC1
:10448000986D32EA0000FBD101220B4B1A65A3F5AF
:1044900080539A6D9007FCD49A6D9207FCD5022246
:1044A000054B1A65034A936D9B07FCD50320FFF764
:1044B000F1BB00BF00C0005000D00050030001005D
:1044C000F0B5D0E901434FF480061A4A41780578E7
:1044D00056664FF4D156022702F5B8325662164E90
:1044E0004F2977604FF0010728BF4F2106F580560E
:1044F00077601669F603FCD441EA052151611B017E
:10450000417B43EA04230B43017B43EA410393606D
:10451000C37B817B1B0143EA4113417C0B43017C3C
:1045200043EA41035360837C13B16FF4D153536268
:10453000F0BD00BF0090005000100250014B1880E9
:10454000704700BFDC0E0020014B1880704700BF91
:10455000DA0E0020B0F5207F10B50C4657D008D8F1
:10456000B0F5007F48D003D830B3B0F5C07F23D07A
:1045700010BDB0F5607FFBD129492A48D1F8FC2055
:1045800012F080721EBFD1F8FC3023F08073C1F8A6
:10459000FC30D0F88030611E23F0300444EA01146E
:1045A000C0F88040002AE3D01D4AD2F8FC3043F026
:1045B0008073C2F8FC30DBE718F04EFD18F05AFDAE
:1045C0004FF48031184B174A1967136F611E23F49B
:1045D000704444EA01341467FEF746FC0446FFF7D2
:1045E00011FAC0F10201204618F03EFD00F02EF84D
:1045F000BDE81040FFF73EBD0A4A0139D2F89030BD
:1046000023F0F85444EA0164C2F89040B0E7054B47
:10461000013C196F21F4806141EA84241C67A7E7FB
:1046200000ED00E0008000500090005008B501212E
:10463000022000F0B3F818F00FFD18F01BFD4FF446
:104640008032014B1A6708BD0090005008B54FF446
:10465000C070FFF7A5FBBDE80840044988428CBF45
:10466000022101214FF42070FFF774BF80F0FA029D
:104670000028ABBF00F16040054B00F5614000F041
:104680000F00ACBF90F80003185C0009704700BF32
:1046900014ED00E0034B5868C0F30800003818BF61
:1046A0000120704700ED00E0054B420953F822302D
:1046B00000F01F0023FA00F0C04300F00100704733
:1046C00000E100E0014608B5EFF31083DB0702D5F7
:1046D0000122104608BDFFF7E7FF02460028F7D188
:1046E0000846FFF7C5FF0146EFF3118313B1B0EBA6
:1046F000131FEDD2074B5B68C3F30803002BE8D010
:10470000103B58B2FFF7B4FF88428CBF0022012251
:10471000DFE700BF00ED00E0044A4178536F23F467
:10472000407343EA01235367704700BF00400050C5
:104730000A4A10B51369044643F00403136102F0FA
:104740006DFC18F0C1FC30BF18F0BFFC02F088FC13
:104750001CB9BDE81040FEF787BB10BD00ED00E0BE
:10476000084A10B51369044643F00403136102F0CC
:1047700055FC30BF02F074FC1CB9BDE81040FEF7D8
:1047800073BB10BD00ED00E0034A0179D36E23F046
:1047900030030B43D366704700400050F8B5044621
:1047A0001C4BD3F88420D106FBD4D3F88430C3F358
:1047B00081139C422CD0FEF73DFB012C064602D112
:1047C000214618F051FC18F06FFC4FF00072124BAC
:1047D00007465A66204618F07BFC4FF480630D4D67
:1047E000621E93402B676B6E9A0103D4D5F8843018
:1047F0009B060AD5384618F05BFC022C08D13046DF
:10480000BDE8F840002118F02FBCD5F88430EAE765
:10481000F8BD00BF004000500060005007B518B957
:104820000191FEF707FB0199064B1B7843B1064B3C
:10483000984205D8012003B05DF804EBFFF7AEBF46
:104840000220F8E7183E0020005A62020278034B6B
:10485000012100201A70FFF7E1BF00BF183E0020C1
:104860004FF0004238B5254B5A664AF6CD33244AFC
:10487000D2F89440C2F8903004F0010448BB136CA5
:1048800013F00103FBD15268D20709D400251CB1F3
:104890001B4B1C4AC3F8902020F054F8284638BD22
:1048A0000121194A51601649184AC86BC50705D439
:1048B000934201D10725EAE70133F6E79342E5D1B8
:1048C000F8E70131D36B13F0080305D08142F8D12A
:1048D000F0E700210D48F5E78142EBD020210A4A9C
:1048E00051630121A2F5805251600549074A486B86
:1048F0008006E3D49342DDD00133F8E70090005006
:10490000004009503254FFFF0060095040420F0040
:104910004FF0004238B5184B184C5A664AF6CD3362
:10492000D4F89450C4F890304378154A5B0043F0B3
:10493000010305F00105D363236CDB07FCD4636836
:10494000827823F0700343EA02136360C2784379EC
:1049500043EA0223E3600279837943EA0223236175
:104960000078FFF77DFF15B1064BC4F890301FF0BB
:10497000E9FF012038BD00BF009000500040095001
:10498000004000503254FFFF10B518F0A6FB202362
:1049900041F2020203610023C360836042614FF46D
:1049A000A02207498361426200F50052C36103629D
:1049B0008362C36243630365D164036310BD00BFB8
:1049C000FF3F0D03F8B50546144639B9304B984200
:1049D00014BF08465420FFF7E3F90146AB68D80737
:1049E0002CD5B1FBF4F16E684C1E16F0010623D0F5
:1049F0002821284618F06DFBAB6C9A0718D1AB6CD8
:104A0000DB0717D4AB6C13F0020F0CBF002706278F
:104A1000284618F062FB286920F07F4040EA0464D1
:104A20002C61AEB139462846BDE8F84018F08CBB81
:104A30000527EDE70927EBE73746ECE76B68A86841
:104A400000F0E00040281BD003D8D8B120281BD0AC
:104A5000F8BD60281AD08028FAD1012304FB03F2A4
:104A60004901B1FBF2F10B4A2039284602EAC102A2
:104A7000012118F02EFB2A63BDE8F84018F029BB8D
:104A80000623EBE71023E9E70823E7E70423E5E73C
:104A90000000045AF8FF7F00436870B504460D46D5
:104AA0000E691BB140F6FF7118F013FB2046FFF7AB
:104AB0006BFF22696B7BA97B22F087020B431343B8
:104AC00043F08003236116B32A692369117823F028
:104AD000F8030B43117F43EAC113117943EA4113F1
:104AE000517A43EA0113D17B43EA81132361E168E0
:104AF000D2E9053021F0F04121F4702103430B434A
:104B0000117B527B43EA812343EAC233E360A3680B
:104B1000EA7B23F00303134343F00103A3602EB3A6
:104B20002A69A168538803F4C0430B43A3605179F9
:104B3000A36843EA8123A3609379D079616A1B015A
:104B4000000203F0700300F4E06021F4772121F407
:104B5000EE6103430B43117A527F090301F4E041F4
:104B600012040B4302F470221343636263692A7BCD
:104B700023F00F0313436361B6B12B695A89A26115
:104B80005A7B3AB1134A944201BF9A7B124902F010
:104B90000F024A66DA7B3AB10E4A944201BF1B7C8F
:104BA0000D4A03F00F031366D5E901122046FFF703
:104BB00009FF0521204618F0AAFA282118F089FAE1
:104BC0002B78A36318F085FAA36CDB4313F4405FE2
:104BD000FAD170BD0000045A00900350072AF7B5BF
:104BE00001F0030614461F464FF003012CD8950030
:104BF000A94000FA05F21C48019118F0AAFA01999F
:104C00001A4806FA05F218F0A4FA194B19499DF84A
:104C10002000002F08BF1946012303FA04F40C609A
:104C2000154B1649002808BF0B461C60144B9DF815
:104C30002400C3F820441031A3F6DC33002808BF59
:104C40000B461C6003B0F0BDA2F10805AD00A94001
:104C500000FA05F20B48019118F07BFA01990A4815
:104C600006FA05F2CFE700BF00C4035008C40350A2
:104C700010E4035010D4035014D4035014E4035030
:104C800000E0035004C403500CC403502DE9F0416C
:104C900005460F461E4690464AB101233022194C64
:104CA0008B4002FB00443EB304F5825423600F2185
:104CB000072F05EB450388BFA7F108044FEA03134C
:104CC000114895BFBC00A40004330C3308FA04F269
:104CD000A140184418F03DFAB8F1000F0AD10121A3
:104CE0003020084A01FA07F700FB05223EB102F521
:104CF00082521760BDE8F08104F50154D6E702F551
:104D00000152F6E700C0035030C0035010B5012136
:104D100004462020FFF722F801212120FFF71EF88A
:104D20000122114B5A60227812069A606178A278AB
:104D300042EA01429A61FF229A6200229A631A644F
:104D40004FF000425A654FF0FF324FF0806103F59B
:104D500000531A65054AC2F88011E3781B01DBB2E3
:104D600082F81A33116010BD0000045000E100E029
:104D70002DE9F0410125C3B2D1F8008091F80AC0B5
:104D80000F7B91F80DE09D400C46CB7A1C491D4EDF
:104D90000D65810001F1A04101F58821C1F8048071
:104DA000302101FB00601B0543EA0C4343EA4753F3
:104DB00022F00302C0F860E0C365026718F07BF9D7
:104DC000736D2B437365237A13B1336C2B433364B8
:104DD000637A13B1B36B2B43B3632279A37943EAAC
:104DE0000243074A93616179E37943EA0143064943
:104DF0008B61044B55639D64BDE8F04118F061B9C7
:104E00000020045000000450001004504FF4003201
:104E1000054B9A6641F6713203F51C33DA630122C1
:104E200003F50053DA6070470090005041F671328C
:104E30000121064BDA6303F50052D1600022DA63E8
:104E40004FF40032A3F518339A6670470000035000
:104E5000CB784A7810B55B010C7843EA82030A7973
:104E6000234343EA02130C22424302F1B04213638C
:104E7000012C02BF8A78024B43F8202010BD00BFEE
:104E8000EC80035008B54FF0B0435A6802B960B1E6
:104E90005B680BB118F06EF94FF0B04130B10120F2
:104EA000074B586018F066F9C86008BD18F062F941
:104EB0000223CB6018F05EF90122024B5A60F4E73E
:104EC00000100058002000584FF0B0435B6870B5E8
:104ED0000BB118F04FF90121104B457859608378D8
:104EE0000679002BC37814BF02240024002B14BFC2
:104EF000042200224379DB0043EA06132B432343B9
:104F000013434FF0B0429360054B59600378002B78
:104F100014BF0B460223D36070BD00BF00200058B1
:104F2000001000584FF48032084B5A6603F5E62310
:104F30005B69C3F3461203F00F010A434280C3F3D7
:104F40000342C3F303334270037070470090005074
:104F5000014B986CD96C70470080E00F0120034B27
:104F60009B680A3303F01F03984070470080E00FEE
:104F7000012200F5805310B55A6040F6AA6341F251
:104F80000502436100230E498360C365C26000F5DA
:104F900000520361C361C36491640A498365884216
:104FA00002D0094CA04207D18842036502D0064BCB
:104FB000984201D1002343650123536010BD00BF17
:104FC000FFFF010000C005500000065038B50D4637
:104FD000FFF7CEFF0122A97B00F580535A602A8A91
:104FE0008368002914BF4FF48061002142F0010260
:104FF00013432A7D0B43002A14BF4FF000520022B6
:1050000083608368044613438360AB7C5BB11D4AB5
:10501000EB7C90422DD1A2F51032C2F89031E36DB5
:1050200043F08003E3652B7B2046D5E9011243F46E
:105030008053E36018F0A6F86B7B0BB1102363611B
:105040006B7D1BB1A36843F48033A360AB7D1BB1C0
:10505000A36843F40043A360EB7D2A7E1B0712057F
:1050600003F0E04302F4E0021343A3652B7863618D
:1050700038BD054A904204BFA2F52032C2F8AC31D7
:10508000CDE700BF00C005500000065038B504460B
:10509000054D1FF07DFC0FCC0FC594E8030085E89B
:1050A0000300002038BD00BF242D002047F6FF7309
:1050B0009A42F0B566D0012966D8344DCF0015F874
:1050C000313005EBC100012B847813D10025C37862
:1050D0001B1B9D4202D3E018C0B2F0BD591B4668AD
:1050E000A3EB510136F911609642D4BF0D4601F190
:1050F000FF33EEE740680028EFD0B0F9003093426C
:1051000004DBB0F902309342B8BF134682883D44B5
:10511000FF2A19BFC8214FF0280CB0F90610B0F9CA
:1051200008C0A1EB03020CBF0126002692FBFCF293
:105130006D78324412B2954201DD002A01DA6A1E0E
:1051400012B24FF47A7700EBC206F188B6680132EA
:1051500013FB016112B221EAE1715C319542B1FBAE
:10516000F7F104DD00EBC206B6888E42EBD200EB0D
:10517000C20232F8040C884228BF0846A04238BF59
:105180002046A9E7FF20A8E70020A6E7242D00205D
:105190000129F0B553D82B4800EBC10410F83110A9
:1051A000636801290FD1E078A478904294BFC4EBE2
:1051B0000001C4EB0201001BCAB28242C8BF002238
:1051C00033F91200F0BD002B39D0A178914202D3FF
:1051D000B3F90200F6E7E178B3F900009142F1D9A2
:1051E00099886478A1F1FF06013C714203F104053E
:1051F000E4B2714103F10C071FFA82FCCEB2B44253
:1052000016D805EBC1014FF47A756A43B1F9024033
:105210004968521A04EBD47102EB610292FBF4F27A
:105220009042CFDBB3F902009042CBDC10B2C9E769
:1052300037F831E04E1CE645E3D33146DEE702485D
:10524000C0E700BF242D00200080FFFF08B5044800
:10525000FFF71CFFBDE8084001201FF09DBB00BF09
:105260006867020800487047DE0E00207FB51422F0
:10527000002101A81FF0E0FF044B01A94FF0FF300F
:1052800002931FF0BFFB07B05DF804FB006A180033
:1052900082B06B4683E80300034A93E8030082E888
:1052A000030002B0704700BF3C2D00201B0603F036
:1052B000706300F00F000902034301F470611204EF
:1052C00002F470220B431343014A1360704700BF7E
:1052D0000020025C2DE9F04717460C4688B029B142
:1052E0000139B1F5806F01D301263FE0244AD66829
:1052F00016F48036FBD140EA01212238112805D866
:10530000204DC540ED4315F0010533D0012541F096
:1053100000413A0702F0805213431943184B596079
:1053200025BB194A03AB10685168DFF860A003C3BE
:105330000223CDE906350DF10C090DF11408CDF865
:10534000149098E80E00DAE90005A84702214846C3
:1053500018F014F90028F2D00F22E31C009223F079
:10536000030398E8070047B117F028FF304608B05C
:10537000BDE8F08741F00341CBE717F082FFF5E786
:105380000020025C01480200EC6702083C2D00206E
:105390000122054B9A60DA68D203FCD4D86820F069
:1053A0000F000004000C70470020025C014B1868DD
:1053B000704700BF0040025C014B5868704700BF57
:1053C0000010025C014B186B704700BF0010025CBC
:1053D000014B1868704700BF0010025C014B9860D9
:1053E000704700BF0010025C014B1864704700BF9B
:1053F0000010025C014B5864704700BF0010025C53
:10540000014B5863704700BF0010025C0022014B43
:105410001A6070470010025C024A136843F00103EF
:10542000136070470010025C43F20402014B1A60E3
:10543000704700BF0010025C024A136843F030035B
:10544000136070470010025C044B1A6842F48072CB
:105450001A601A6822F480721A6070470010025CA9
:10546000024A136843F48063136070470010025CC3
:10547000034A136823F4702343EA00401060704726
:105480000010025C044B1A6902605A6942609A6912
:105490008260DB69C36070470010025C0268044BE5
:1054A0001A6142685A6182689A61C268DA6170471B
:1054B0000010025C024B1A6BD207FCD418627047D2
:1054C0000010025C024B186B00F00E00704700BF2A
:1054D0000010025C82B01FB507930A9B04AC8B429C
:1054E00028BF0B4604E907001048D100079948BFC0
:1054F00003330160099948BF23F0030323F070438D
:1055000001F0E041194341F000518160002102F0B7
:10551000E042019C134343F00053C1600461836186
:10552000416304B0BDE8104002B070470000025C67
:105530003F22034B1A631022DA6103229A637047F9
:105540000000025C024AD36B9B07FCD4704700BF8B
:105550000000025C034B986A10F0240018BF04207E
:10556000704700BF0000025C08B5FFF7F3FF064B71
:10557000DB6B23F47F4323F0EF0303431EBF0122C1
:10558000024BC3F8FC2F08BD0000025C00F0FF3F97
:10559000032208B5054B186019615A63FFF7C8FF6D
:1055A000FFF7D0FFBDE80840FFF7DEBF0000025C58
:1055B00042680346182A10B50AD0202A1DD0102AA6
:1055C0002BD1174AD2F80424D4010AD4012013E0C5
:1055D000134AD2F804249001F8D50A6842F0080270
:1055E0000A6010481A6882424FF000000ED10A6823
:1055F00042F040020A60586010BD094AD2F8042403
:105600005201E3D50A6842F00402E9E7064CA242DF
:10561000F2D10A6842F08002ECE70720ECE700BF15
:105620000000025C193E00201A3E00200B4607B520
:105630000749D1F80414C90708D500210092024691
:10564000084600F043F803B05DF804FB0120FAE7D8
:105650000000025C0B4607B50749D1F80414C907DE
:1056600008D5009201210246002000F02FF803B077
:105670005DF804FB0120FAE70000025C13B5084C5A
:10568000D4F80444E40508D5009313460A460146BD
:10569000002000F045F802B010BD0120FBE700BF7C
:1056A0000000025C13B5084CD4F80444E40508D5A6
:1056B000009313460A460146002000F055F802B058
:1056C00010BD0120FBE700BF0000025CF0B51C46E6
:1056D0005B6815468DB01A07129E1AD1CBB172685D
:1056E000934216D10C4B0D4A53F8217009AB07CAEF
:1056F00083E807001A462946CDE90533CDE903338F
:10570000CDE90163009447F4807017F05BFE0DB0A3
:10571000F0BD0720FBE700BF04680208F867020835
:10572000F0B516465A688DB0102A0D46129F15D155
:105730007A68102A12D10A4A09AC07CA84E807001D
:1057400022462946CDE90547CDE90344CDE9014488
:105750000448009617F036FE0DB0F0BD0720FBE7B9
:10576000F867020830000100F0B516465A688DB09F
:10577000102A0D46129F15D17A68102A12D10A4AB2
:1057800009AC07CA84E8070022462946CDE905741A
:10579000CDE90344CDE901440448009617F012FE18
:1057A0000DB0F0BD0720FBE7F8670208100001000C
:1057B00070B598B0002843D02C4C08AD0FCC0FC565
:1057C0000FCC0FC50FCC0FC594E80F0085E80F0074
:1057D0006D4604AE04F1100320340FCB85E80F00B2
:1057E00094E80F0086E80F00FFF72EFE0420FFF775
:1057F0003FFEFFF719FE3046FFF750FE002408AECB
:1058000056F8040B0134FFF755FE102CF8D1FFF7C2
:10581000D3FD0328FBD90024FFF7F8FD2646FFF748
:10582000C5FD55F8043B01365840042E44EA0004F7
:10583000F5D12CB1012206200D4B1A7018B070BDA5
:10584000FFF702FE0820FFF7C9FD0020FFF7CCFD9F
:105850000720FFF7CFFD4FF40070FFF7D1FD0820C0
:10586000FFF706FEFFF7D8FD0020E7E7E068020833
:105870001C3E002008B5FFF7E7FD0122014B1A701E
:1058800008BD00BF1B3E002030B589B005AC84E8E0
:105890000700FFF797FDC30501D5FFF7EBFF0A4DA2
:1058A0002B781BB117F001FF00232B70074B069AD2
:1058B000D3E901018DE8030002921B6894E8070018
:1058C00017F06FFE09B030BD1B3E00204069020892
:1058D0001FB517F0EAFE044630B1012206240D4B35
:1058E0001A70204604B010BDFFF760FD0090FFF76E
:1058F0005DFD0190FFF75AFD0290FFF757FD039001
:105900006846FFF7CBFDFFF7B5FFFFF795FDFFF703
:10591000A7FDE6E71C3E002005289ABF014B185C56
:10592000002070474C69020830B5154B87B00293D0
:10593000144B0390049346F611030D46059300F0B3
:105940006DF91428044616D1684617F0D0FF4FF0C1
:10595000A843032202A95A6319601D619A63DA6B96
:105960009207FCD1142C02D1684617F0CEFF00F04C
:1059700089F9044601E00028E9D0204607B030BD8F
:10598000442D0020040000202DE9F04FB1B0054661
:105990008C46E9466E4F3B9EDDF8F8E0409C07F1EF
:1059A000100AC846386879680837A8E803005745E0
:1059B000C146F6D10EEB0208C8F1000909F00F0943
:1059C000002E00F0AF80774207F00F070121DDF8CD
:1059D000FCB0C4F1100ACDF810B0059144F00051AC
:1059E00006914FEA0A2101F4F85141F02101079193
:1059F00006B96B460893002D40F09680002C00F00D
:105A0000938004AB0993002E00F0908046F0005381
:105A10000A93002D40F08D80002C14BF0123212318
:105A200043EA07230B9308A942F00053CDF830C096
:105A30003D980D910E934FEA092343F041030F93D4
:105A4000109002B10CA9002A16BF00224FF000529C
:105A5000412342EA0E021191129213933C9B3D4A5C
:105A6000149310AB15933C4B0021169340F6110391
:105A700017933A4B002D08BF1346189314AB199394
:105A8000374B10221A9311231B931CAB18461FF09F
:105A9000D3FB01221D924AF080421E92002203464F
:105AA000239205B9EB46102C08BF01230DF1900A93
:105AB000102200215046CDF880B0219322941FF08F
:105AC000BBFB002C37D020AB002125938F4218BFA1
:105AD000534647F0804226923A9A2CA88A4228924E
