:020000040801F1
:10200000C00A0020119D0108BD4401082D8003086D
:1020100005FA01085D450108FD4501080D9D01080F
:102020000D9D01080D9D01080D9D01080D9D0108E4
:102030000D9D0108D0250408394701080D9D0108B0
:102040000D9D01080D9D01080D9D01080D9D0108C4
:102050000D9D01080D9D01080D9D01080D9D0108B4
:102060000D9D01080D9D01080D9D01080D9D0108A4
:102070000D9D01080D9D01080D9D0108390E0208F6
:10208000CD480108C14801080D9D01080D9D0108BA
:102090000D9D01080D9D01080D9D01080D9D010874
:1020A0000D9D01080D9D010895A201080D9D0108D7
:1020B0000D9D01080D9D010839A4010815A4010812
:1020C0000D9D01080D9D0108152903080D9D0108AE
:1020D00055330308A5E30308A1E30308452B0308D0
:1020E000B1E30308A9E303082D330308ADE30308B4
:1020F00095330308650D030805340308290F030809
:102100000D9D0108F94301080D9D01080D9D010871
:102110000D9D01080D9D01080D9D01080D9D0108F3
:102120000D9D01080D9D01080D9D01080D9D0108E3
:102130000D9D01080D9D01080D9D01080D9D0108D3
:102140000D9D01080D9D01080D9D01080000000076
:10215000013800D0FCE770472DE9F04310249BB014
:1021600001200EF0BDFEDFF858914D4B4D4E1093FF
:10217000042210A9DFF85081C9F8A040306808F0A7
:102180002DFE01200EF0ACFE0120C8F8A0400EF09C
:10219000A7FE42F2070310AAADF81C3007A90523D9
:1021A000C9F8A040306808F0CDFD40F23D133E4D27
:1021B000C8F8A04000932B883C4F01339BB2029398
:1021C0002B803B8803200393394B3A4A01933A49C9
:1021D0003A4BBDF8424005F0C3FC2B88132B1FD0AF
:1021E00007D914232B803B8801339BB2022B1AD8CA
:1021F0003B80102401200EF073FE314B314A10A9B0
:1022000010923068C3F8A040042208F0E7FD0120D6
:102210000EF066FE2C4BC3F8A0401BB0BDE8F08367
:102220002A4B1C80E5E70325284B3D80B3F800804E
:10223000A4EB080022F01EFA00224FF07C5322F09B
:1022400083FA4FF03332224B22F07EFA0022214BE8
:1022500022F07AFA10A3D3E9002322F09FFB024672
:102260000B462846CDE902481D4614464FF4AA7194
:10227000194B00910193CDE904450E4A0E490F4BCD
:10228000CDE9104505F06CFC012210A9134807F0B8
:10229000C5F8AEE7AFF30080034356B77ACEF13FFF
:1022A00005800100040C0020204700201E4700206C
:1022B000D00204080C0204082402040814040408D0
:1022C00000E003500480010000D003501C470020B0
:1022D0003333F33F0000594008030408A4210020D1
:1022E000114B1A78598862B94FF0010C9FED0C7BA5
:1022F000C3E9022283ED047B5A605880A3F800C032
:102300007047814200D0704700229FED057B01207D
:1023100083ED047BC3E901221880DA60704700BFB7
:102320000000000000000000101C00200000000061
:102330002DE9F04F9A488DB00BF08CF9994B9A4DDE
:102340001A78B32A9CBFB4221A702A781B789A4252
:1023500006D22B780133DBB22B700DB0BDE8F08FC5
:10236000DFF878A2DFF87882BAF800309BB2B3F5D4
:10237000D25F80F0DC8098F80030112B12D898F8EA
:102380000020112AD3B20DD8884CDAB204EBC30076
:1023900001331AB150E90267C0E90067DAB2112AC5
:1023A000F4D900E0814C98F80030002B00F0BD809B
:1023B0004FF00009002600274B4604EBC303D3E986
:1023C00000233046394622F009F809F1010998F84E
:1023D00000205FFA89F3934206460F46EDD36EA3C1
:1023E000D3E9002321F0004122F03EFC002800F058
:1023F0009C8098F80030002B00F0978098F800003F
:1024000022F028F902460B463046394622F0C6FA39
:1024100022F054FC664E674FBAF80010DFF8C49102
:1024200089B238603046A9F8001021F00DFC3868F8
:1024300022F032F9D6F800B0CDE90601B9F8003043
:102440005846049322F028F9E42300935A4BCDE92F
:1024500002015A4A03205A4901935A4B05F080FB66
:10246000306822F019F90022574B22F06DF922F062
:1024700005FC03463868ADF829309FB222F00CF90C
:102480000022514B22F060F922F0F8FBED2300937B
:1024900083238DF828304D4BADF82D0080B2049089
:1024A00003971880BAF800300320ADF82B309BB2A8
:1024B0000293474B414A424901930AAE414B05F012
:1024C0004FFB304606F016FB03F032FE18B103F066
:1024D0008FF8002845D103F02BFE50B303F088F8A5
:1024E00098B303F077F8BAF80030C38503F072F8B8
:1024F000C68D03F03DFD0136068003F03DFDBAF8C0
:10250000003001339BB2AAF80030002200200021E5
:10251000134688F8002004EBC30201331E2BC2E9E6
:102520000001F8D100232B7013E7002072E71F4C45
:10253000EBE740F20716274B022001931F4A214B7D
:102540001F49009605F00CFBC8E740F20B16224B22
:1025500002200193194A1B4B1949009605F000FB14
:10256000BFE703F037F80027877603F033F80378E6
:10257000002BB6D003F02EF81D238DF821304388B0
:102580008DF822708DF8203008A996E80C0003C958
:1025900003F07AFEA5E700BF1656E79EAF03D23CD4
:1025A0000080015A021000208E470020481C0020A5
:1025B000F0230020CC4400208C07040824070408E2
:1025C00044070408C00904080000594024470020BB
:1025D000B0070408CC070408E807040826470020D1
:1025E0008D47002076470020034610B5184A82B078
:1025F0004FF47A7013700EF0EFF900230146CDE925
:102600000033144A14480EF025F878B900229FEDE3
:102610000E7B134611481249027001EBC3020133CD
:102620001E2B82ED007BF8D102B010BD40F2FB14EE
:102630000C49012001910C4B0C4A0D49009405F006
:102640008FFAE3E7AFF30080000000000000000015
:102650008F47002031590108CC2300208D470020EE
:10266000481C0020880204088C0904082407040878
:102670004407040800000000C0290AD0F0B5B1F5F5
:10268000807F04469FB00FD0802904D029201FB03E
:10269000F0BD0F2070472498002848D024984FF4AC
:1026A00086650A90012006E0249800284DD00A9003
:1026B00040F2344501200B900195212010250C9506
:1026C0000D9025980E900AA8102501269FED247BD9
:1026D0004FF0210EDFF898C00F9012A810951196B8
:1026E000129213961495CDF854E0CDF808C00390DB
:1026F0008DED047B9FED1C7B01AF069307908DED64
:10270000087B16973BB306AA1792042740F61102DE
:102710001126CB0816AD0EA91AA8189719961A9467
:102720001B951C931D920BF0EBFF1FB0F0BD0A90A0
:102730004FF4826501200B900195212010250C9506
:102740000D9025980E900120BEE7249840F2144584
:102750000A900120EFE702AAD6E700BFAFF300809E
:1027600010000010112800001000000011280000C7
:1027700050290408000000002DE9F04F2DED028BD8
:10278000934608241E460246A9B0DDF8D0A0DDF825
:10279000D490CDE90601414021FA04F34B4098075B
:1027A00004F1080418BF9B00202C1A44F4D1BC4B40
:1027B000A3FB0213DB0803EBC313D21AB94B02F5D8
:1027C00006271B7807F55067002B00F0B780B64C42
:1027D0008123049323464FF000083C46CDF80CB00B
:1027E0000593A4F50625059AA5F550635B0952F8F3
:1027F000232004F01F00C240D20718D4AB4A52F87D
:102800002330C340DB0700F18780DDF80CB027469A
:10281000BBF1000F6FD0B8F1000F18BF4746002082
:10282000369B1F6029B0BDEC028BBDE8F08FBAF17A
:10283000000F02D00023CAF80030B9F1000F02D017
:102840000023C9F800301027DFF87CB20023DBF842
:10285000000032462146009719F0A8FF03460028E1
:102860004CD1BAF1000F00F0F2801023CAF800300A
:1028700003F1BC43326803F5BA1303F5E8539A42F7
:1028800040F0EA80B9F1000F11D04B462146DBF849
:10289000000018AA19F0DEFF0346002840F0E5808A
:1028A000D9F80030DAF800209B1AC9F80030D6E9D0
:1028B0000223DDE90610834208BF8A4200F0DD8072
:1028C000774BA5F6FF45A3FB0523DB0803EBC313FA
:1028D000ED1A05F5062404F55064049B013B0493AE
:1028E0007FF47FAFDDF80CB0BBF1000F03D047469B
:1028F000B8F1000F93D16FF08B0093E76C4A9042D0
:1029000000F0AA801232904200F0A680694A9342F9
:10291000CDD06FF0910085E7614BA5F6FF42A3FB98
:102920000213DB0803EBC313D21AB8F1000F08BF80
:10293000A04602F5062404F55064CEE707F08EFDAC
:1029400004460028E5D19FED548B0146402208A89B
:102950002CF04FF82146402218A82CF04AF8CDE977
:10296000037B554DDFF860814F4C0596CDF8D0A024
:102970002F4607F10F06D8F8000010223B4608A9A1
:10298000009610352AF085FEF8B108AB9E464FF050
:10299000010BDFF818C103EB800A5EF8042BA2F5E7
:1029A0000623A3F550635B0954F8231002F01F02BD
:1029B0000BFA02F2114344F823105CF82310D645B9
:1029C00021EA02014CF82310E7D100963B46102281
:1029D000D8F8000018A92AF065FE60B318AB1A46B3
:1029E00003EB8000D4E9001303EB010EA168236917
:1029F0008E44E16801268E440EEB0301A646DFF803
:102A0000ACC052F8043BA3F50627A7F550677F0931
:102A10005CF8274003F01F0306FA03F323434CF846
:102A2000273029B98CED008B8CED028BCCF810107F
:102A30009042E6D17446214B9D4299D10123DDE9B4
:102A4000037B184A059EDDF8D0A01370C0E61C4B2E
:102A500032689A423FF42BAF2146DBF8000019F0B0
:102A60003DFF00283FF423AF45E7114A9042F3D0E1
:102A7000144A90427FF44AAFEEE7DDF80CB02746E7
:102A8000BBF1000F3FF4CBAE7368012B7FF4C7AEF0
:102A90006FF08400C6E600BF0000000000000000E8
:102AA000813FE00FA4470020B0370020D01D002058
:102AB000FFDF00F0FEDF00F0006D0800007108008D
:102AC000105D175E11E000F0800C00200000000097
:102AD000002370B5404C05468AB0E36318B1008806
:102AE000236014F04BF83D482AF0A7FF3C4E3D4BC5
:102AF000304633603C4B736027F0BAFE002130460D
:102B00001AF0F6F832A3D3E90023A062C4E9062341
:102B100027F0B9FED4E9062319431043C4E906019E
:102B2000CDE900014FF0FF334FF0FF32A06A2AF0E9
:102B3000FFFF02224FF0FF31A06A2AF0FEFF0120C2
:102B400013F09EFD4FF4007300222849A06A2BF079
:102B500047F8B0F5007F38D100239422CDE9073340
:102B600009933C23CDE9033205939623A06A03A978
:102B700006931AF0DBF935B3287C14F07DF905468D
:102B8000F0B9A06A2BF00DF914F024F913F05AFDF6
:102B900020B14FF48070002111F0DAFD13F062FDD6
:102BA00020B14FF40060002111F0D2FD27F02DFF7D
:102BB00001201AF0F1F80E4A0E49A06A27F056FEDD
:102BC00028460AB070BDFF20D7E70725F8E700BF09
:102BD0000DD5015520000000081E0020690345ECBA
:102BE000083D002005650208183D0020083B002034
:102BF00015A8030855A8030838B52DED028B044627
:102C000020F0A8FC10EE100AB0EE408A0D4621F02C
:102C100043FD15A3D3E9002322F008F8DFED107A75
:102C200000289FED107A204608FE278A04EB8503D2
:102C300098420CD107EE905AB8EEE70A87EE000AE8
:102C400023F068FF80EE080ABDEC028B38BDF0EC83
:102C5000017A77EEC87A07EEA77AE9E7AFF300804A
:102C60000AD7233C000000007B14AE47E17A843F82
:102C70002DE9F84F05462DED068B10EE10BA0E46E5
:102C800092460424DFED628AB3EE0E9A03680B606D
:102C900043684B6083688B60C368CB6005EB84033B
:102CA00093ED008AB4EEE88AF1EE10FA06EB8407A1
:102CB00040F39780B4EEC98AF1EE10FA40F19180AA
:102CC00053ED019AF4EEE89AF1EE10FA40F38980A0
:102CD000F4EEC99AF1EE10FA40F1838013ED02AAE6
:102CE000B4EEE8AAF1EE10FA7BDDB4EEC9AAF1EE7B
:102CF00010FA76D553ED03AAF4EEE8AAF1EE10FA35
:102D00006FDDF4EEC9AAF1EE10FA6AD553ED047A3C
:102D1000F4EEE87AF1EE10FA63DDF4EEC97AF1EE42
:102D200010FA5ED57AEEE77A17EE900A21F0B4FC3D
:102D300031A3D3E9002321F007FD7AEE6A7A8046B9
:102D400017EE900A894621F0A7FC2DA3D3E90023B2
:102D500021F0FAFC02460B464046494621F03EFB74
:102D600079EECA7A804617EE900A894621F094FCE3
:102D700025A3D3E9002321F0E7FC02460B46404699
:102D8000494621F02BFB78EE697A804617EE900ACF
:102D9000894621F081FC1CA3D3E9002321F0D4FC57
:102DA00002460B464046494621F018FB80465846ED
:102DB000894621F071FC02460B464046494621F007
:102DC000C3FC804618EE100A894621F065FC0246D5
:102DD0000B464046494621F001FB21F06FFF08EE0B
:102DE000100A0134E4B2544587ED008AFFF456AF6F
:102DF000BDEC068BBDE8F88F9A9999999999B93FDE
:102E00009A9999999999C93FCDCCCCCCCCCCD43F47
:102E1000CDCC0C40000000002DE9F04FC76997B001
:102E20008346209E08910C92129355EC104B8DED29
:102E3000000B7FB9102022F059F90246CBF81C0094
:102E400020B9A74BEF21A74822F018F9C0E9017774
:102E50000760C760DBF81C30196859B15A68012354
:102E6000584693404A608B6023F08AF8DBF81C30A8
:102E700000221A602B1EB7BF23F00043002301225B
:102E80000193A8BF3360019F974BB8BF3260BB432B
:102E900019D142F20F73129A1360C7F3130323433D
:102EA00000F0DB85219B53B9904B21E0904B0393BD
:102EB0000833219A1360039817B0BDE8F08F8B4B4D
:102EC00003930333F5E79DED007B0022002351ECD3
:102ED000170B8DED0A7B21F09FFE804650B1012338
:102EE000129A1360219B13B1824B219A1360824B7B
:102EF0000393E0E7C7F30A5614AA15A958469DEDB7
:102F00000A0B23F0C5FA0290002E76D00B9BA6F296
:102F1000FF36CDF84C80C3F3130343F07F53DDE954
:102F20000A0143F4401319460022744B21F054FA6D
:102F300065A3D3E9002321F007FC65A3D3E90023AF
:102F400021F04CFA04460D46304621F093FB62A373
:102F5000D3E9002321F0F8FB02460B462046294620
:102F600021F03CFA04460D4625F032F800220746CF
:102F700000232046294621F059FE40B1384621F071
:102F800079FB22462B4621F047FE00B9013F162F60
:102F900052D85B4B03EBC703DDE90A01D3E90023F9
:102FA00021F044FE002849D0013F00231193149BD7
:102FB0009B1B5A1E4CBFC3F101030023079245BF60
:102FC0000693002306930793002F39DB079B109786
:102FD0003B44079300230993089B092B66D8052BD4
:102FE000C5BF043B002401240893089B023B032B2C
:102FF00067D8DFE803F02D3A3859DDE914631E4441
:1030000006F23243202BC9BFC3F14003C3F12003B2
:103010009F4006F21243D8BF04FA03F006F1FF36D0
:10302000C4BF24FA03F347EA030021F013FB012293
:10303000A1F1F873139276E70123B7E71190B6E791
:10304000069BDB1B06937B42099300231093C3E787
:1030500000230D930C9B002B56DC012399461A4646
:1030600004930C920CE00123F3E700230D930C9BD7
:10307000FB1803F1010904934B46012BB8BF012350
:10308000DBF81C000021042202F114059D423FD907
:103090004160584622F034FF039000283BD1194B81
:1030A000024640F2AF11CEE60123DFE70124002300
:1030B0000D9408934FF0FF33002299460493122396
:1030C000CFE701230D93F5E761436F63A787D23FF5
:1030D000B3C8608B288AC63FFB799F501344D33F07
:1030E000426E0408596E04080000F07F3E6E04082A
:1030F000356E0408126E0408116E04080000F83FD3
:10310000586F0408B26E04080C9B99460493B7E705
:1031100001315200B8E7DBF81C30B9F10E0F039A09
:103120001A606FD8002C6DD0002F36DD07F00F022B
:10313000A04BF8054FEA271403EBC20393ED007B85
:103140008DED0E7B17D59C4B04F00F044FF0030858
:10315000D3E90823DDE90A0121F020FCCDE90001D3
:10316000954D5CB9DDE90E23DDE9000121F016FC87
:10317000CDE900012BE04FF00208F1E7E10709D5A6
:1031800008F10108DDE90E01D5E9002321F0DCFAA0
:10319000CDE90E0164100835E3E700F007817C42B9
:1031A000844B854D4FF0020804F00F02241103EB0D
:1031B000C203DDE90A01D3E9002321F0C5FA0023A7
:1031C000CDE90001002C40F0E580002BD0D1119B0F
:1031D000DDE90045002B00F04C810022774B2046B2
:1031E000294621F023FD002800F04381B9F1000FAA
:1031F00000F03F81049B002B00F3E480DDE90A34FA
:10320000CDE90034159B002B02DB0E2F40F34282E8
:103210000D9A002A40F06782099C0025DDF818808D
:10322000B8F1000F0DD0079B002B0ADD4345069A2D
:10323000A8BF4346D21AA8EB03080692079AD31AEE
:103240000793099B0BB30D9B002B00F0A682002C6B
:1032500000F0A18229462246584622F0BBFF029A7E
:1032600001460546584622F00BFF0299064658468D
:1032700022F086FE099B1B1B099300F09182099A9C
:103280003146584622F0A6FF02900121584622F00E
:10329000E1FE109B0446002B00F084821A46014692
:1032A000584622F097FF089B0446012B03DC009B45
:1032B000002B00F07C820026236904EB830318694D
:1032C0002BF094FCC0F120001096079B184410F0DE
:1032D0001F0000F09182C0F12003042B40F3818293
:1032E000C0F11C00069B034480440693079B0344E3
:1032F0000793069B002B05DD1A460299584622F0DB
:10330000C3FF0290079B002B05DD21461A46584655
:1033100022F0BAFF0446119B002B00F07682214672
:1033200002982BF0B2FC002880F26F8200230A2260
:103330000299584622F046FE0D9B7E1E0290002BFD
:1033400000F05C82002329460A22584622F03AFE09
:10335000049B0546002B03DC089B022B00F35E82D6
:10336000B8F1000F05DD29464246584622F08CFF91
:103370000546109B002B00F0D0826968584622F069
:10338000BFFD0746002840F07F820D4B024640F209
:10339000EF2158E5E20706D508F10108D5E9002339
:1033A00021F0D2F90123641008350BE74FF0020831
:1033B0000DE700BF586F0408306F04080000F03FAD
:1033C000B26E040820460022AC4B294621F0BCF91D
:1033D0007E1E08F10108049CCDE90001404621F061
:1033E00049F9DDE9002321F0AFF9A54B002220F0D7
:1033F000F5FFA1F15073CDE90E010F93002C3BD1E5
:103400000022A04BDDE9000120F0E6FF02460B465A
:10341000CDE90023DDE90E2321F026FC002840F051
:103420005781DDE90E2101F10043DDE9000121F0C2
:10343000FDFB00283FF4E2AE002425460C9BDDF89E
:103440000CA0DE434FF000082146584622F098FDBC
:10345000002D00F0A980B8F1000F05D0A84503D0D9
:103460004146584622F08CFD2946584622F088FDF8
:103470009AE03E464C46B1E7834B03EBC40353E965
:103480000201039B1C440D9B002B4AD002460B46B5
:1034900000207E4921F082FADDE90E2320F09CFF16
:1034A000DDF80CA0CDE90E01DDE9000124F090FD6E
:1034B000054621F0DFF8024630350B46DDE9000114
:1034C00020F08AFF0AF8015B02460B46CDE90001B5
:1034D000DDE90E0121F0C8FB002865D100206C4910
:1034E000DDE9002320F078FF02460B46DDE90E01FE
:1034F00021F0BAFB002840F00D81A24500F0EA80DF
:1035000000225E4BDDE90E0121F01EF900225B4B2B
:10351000CDE90E01DDE9000121F016F9CDE9000148
:10352000C2E7DDE90E2321F00FF9A046DDF80CA07B
:10353000CDE90E01DDE9000124F04AFD054621F048
:1035400099F8024630350B46DDE9000120F044FFD2
:103550000AF8015B02460B46A245CDE900234FF075
:10356000000223D1494BDDE90E0120F037FF02466E
:103570000B46DDE9000121F077FB002840F0CA800E
:1035800000204249DDE90E2320F026FF02460B46CB
:10359000DDE9000121F04AFB70B1C24608F1FF38B5
:1035A0001AF8013C302BF8D0374655E0334B21F068
:1035B000CBF8CDE90001BDE7DDE90A34CDE90034FF
:1035C000159B002BFFF628AE0E2F3FF725AE2E4B96
:1035D00003EBC70393ED007B0C9B002B8DED047B6D
:1035E00002DAB9F1000F64D0DDF80CA0DDE9004586
:1035F000DDE904232046294621F0D0F924F0E8FC37
:10360000064621F037F8DDE9042321F09DF8024653
:10361000204606F130040B46294620F0DDFE0AF86C
:10362000014B039C02460B46AAEB0404A14540F063
:10363000828020F0D3FE04460D46DDE9042321F00C
:1036400013FB002865D120462946DDE9042321F03B
:10365000E3FA08B1F3075CD40299584622F090FCD3
:10366000002301378AF80030129B1F60219B002B3A
:103670003FF421ACC3F800A01DE400BF00002440CB
:1036800000001C4000001440586F04080000E03F98
:103690000000F03FA24B03EBC70393ED007B0C9BB4
:1036A000002B8DED047B9FDAB9F1000F9CDC7FF4D9
:1036B000C3AE00229B4BDDE9040121F045F8DDE9B2
:1036C000002321F0C7FA044600287FF4B5AE3E4639
:1036D0002546B4E0DDE90A34CDE90034159B002B22
:1036E00001DB0E2FD6DD089A012A36DC139A82B34D
:1036F00003F23343099CDDF81880069A01215846ED
:103700001A440692079A1A44079222F0A3FC05462F
:1037100086E53E4653469A4613F8012D392A06D1CE
:10372000039A9A42F7D13022039901360A701A7827
:1037300001321A7038E700227B4B21F005F8002295
:10374000002304460D4621F067FA00283FF450AFED
:1037500082E7149BC3F13603CCE709F1FF34099BE0
:10376000A34208DBB9F1000FA3EB04040EDBDDF884
:1037700018804B46C1E7099B109AE31A0994DDF8BB
:10378000188000241A444B461092B6E7069BA3EB20
:1037900009080023B1E7029E71E5099A029970E5D4
:1037A000029672E5089B012B17DC009BABB9019BCD
:1037B000C3F313039BB9019B23F00046360D360576
:1037C00036B1069B012601330693079B013307930D
:1037D000109B002B7FF470AD1096012075E500263C
:1037E000F6E73FF486AD1C33069A1A4498440692D5
:1037F000079A1A4407927CE50346F4E7049B002BE2
:103800002BDC089B022B09DC27E0B9F1000F1DDC43
:10381000089B022B1ADD3E46CDF81090049B002B2E
:103820007FF40CAE21460522584622F0CBFB014620
:10383000044602982BF029FA00287FF7FFADDDF847
:103840000CA0312301360AF8013BFBE50D9B3E46F7
:10385000CDF81090002B7FF483AD039F2146029892
:103860002BF037F9039B00F13009049A07F8019B0C
:10387000FB1A9A4240F3CB8000230A220299584651
:1038800022F0A0FB0290E9E72A6905F10C010C3057
:10389000023292002BF001F901223946584622F0FB
:1038A000F3FC039BA846054603F1010ADDE9032367
:1038B00013440793009B03F0010309930AF1FF33BC
:1038C0002146029804932BF004F94146069000F13A
:1038D000300902982BF0D9F92A4621460746584666
:1038E00022F03EFDC268014602B3584622F048FB72
:1038F000002F3ADA01220299584622F0C5FC2146EF
:1039000002902BF0C2F9002803DC29D119F0010F35
:1039100026D0B9F1390F1DD132E02846C1E700BFEA
:10392000586F040800001440000024400A900298D8
:103930002BF0ABF90A990C90584622F021FB0C9A17
:103940005ABB089B53B9099B43B9B9F1390F17D03A
:10395000002F05DD069B03F1310901E0002F2ADA73
:10396000DDF810A00AF8019B6EE5089B3B4304D1EB
:10397000009B03F00103002BBCD0B9F1390F36D105
:10398000049F392307F8013BBA46013F1AF8013C6E
:10399000392B5AD001333B7056E5002F06DB089BCC
:1039A0003B4306D1009B03F0010313B9002AA1DCBD
:1039B000D6E7002AE1DC079B57460AF8019C5345ED
:1039C0002ED000230A220299584622F0FBFAA8457D
:1039D00002904FF000034FF00A02414658460BD1C7
:1039E00022F0F0FA804605460AF1010A66E7DDF8A2
:1039F00010A009F10109B5E722F0E4FA2946804652
:103A000000230A22584622F0DDFA0546ECE7049B23
:103A10004FF00008002BCCBF1F460127039B1F441B
:103A200001220299584622F02FFC214602902BF0E9
:103A30002CF90028A8DC02D119F0010FA4D1BA4654
:103A400017F8013D302BFAD0FEE4039BBB429BD11B
:103A50003123039A01361370F6E4219B002B7FF487
:103A600025AA014BFFF744BA356E04080348044BFE
:103A7000834202D0034B03B1184770477C1B0020E0
:103A80007C1B002000000000064B0749C91A891062
:103A900048BF0131491003D0044B0BB1014818470E
:103AA000704700BF7C1B00207C1B00200000000032
:103AB00010B5064C237843B9FFF7D8FF044B13B178
:103AC0000448AFF300800123237010BD8847002015
:103AD00000000000C471040808B5054B1BB105497E
:103AE0000548AFF30080BDE80840FFF7CDBF00BF39
:103AF0000000000068200020C4710408A3F5803A8B
:103B0000704700BF174B002B08BF134B9D46FFF7B4
:103B1000F5FF00218B460F461348144A121A2AF06B
:103B200068FF0E4B002B00D098470D4B002B00D0A8
:103B300098470020002104000D000D48002802D005
:103B40000C48AFF3008022F06DF92000290000F04E
:103B5000ABFB21F0B9FA00BF000008000000000034
:103B600000000000C00A00207C1B00208C480020C0
:103B70000000000000000000F0B50368A04A23F434
:103B80007F4323F00703934204468FB000F0F28096
:103B90003AD802F17F42934200F01D8102F5802263
:103BA00093425DD10021A127B0F8055009AE14223F
:103BB00006AB28460096069115F0E0FA914B0320DB
:103BC000CDE90135904A914B9149009703F0C8FF28
:103BD00032460821BDF818308E4804F08DFA242DA5
:103BE00000F063812B2D0DD1B4F805302279ADF8AA
:103BF0001D308DF81C2007A9334603C9BDF81820D5
:103C000002F0C0FE0FB0F0BD834A934200F0AC80DA
:103C100002F5102293425DD1D126C2790389B0F812
:103C20000550CDE903327D4A0320CDE90125774BCC
:103C3000754A7749009603F093FF242D00F04481E4
:103C40002B2D00F06F811D2DDCD1E379012B00F0CD
:103C5000AA81022BD6D101F0BDFC01238376D1E7E6
:103C6000A2F510229342CDD143246D490320674B26
:103C7000654A01910094664903F072FF002109AB87
:103C8000084607AA15F01AFB0446002832D0654DF5
:103C9000654928680BF0D6FC644928680BF0D2FC13
:103CA00005F0B0FE05F0B0FE614847230090564A8B
:103CB000604928680BF0C6FC5F4923465F4A2868C4
:103CC0000BF0C0FC204605F0CBFE5D4928680BF0E8
:103CD000B9FCFEE7A2F18272934293D1B0F80930A9
:103CE000B0F80720B0F8051000790FB0BDE8F0403B
:103CF00001F0A8BC534D284615F0A0F90446002851
:103D000040F0ED80504E5148314602F0EFF8214628
:103D10004E4B3278287815F0CBF90446002800F095
:103D20000C81404D404928680BF08CFC3F492868C5
:103D30000BF088FC05F066FE05F066FE3C48522359
:103D40000090314A3B4928680BF07CFC3A492346F5
:103D50003A4A28680BF076FC204605F081FE384987
:103D600028680BF06FFCFEE740680FB0BDE8F0403C
:103D700001F084BD807901F09FFC324D324A002170
:103D8000324B1278287815F093F90446002861D058
:103D9000244D254928680BF055FC244928680BF070
:103DA00051FC05F02FFE05F02FFE21488E230090D8
:103DB000154A204928680BF045FC1F4923461F4A35
:103DC00028680BF03FFC204605F04AFE1C49286895
:103DD0000BF038FCFEE700261D4D2846C5E90066BD
:103DE000AE60AE8105F028FA2B460E2231460B203C
:103DF00015F0F6F9207B0FB0BDE8F04001F0FEBBF6
:103E0000A00006011CFA0308A0F9030860FA0308E1
:103E1000ACF90308FC090408A00001032CFA03080C
:103E2000B0F90308F82C0020A0100408D8F9030802
:103E300050FA0308E0F90308F0F90308ECF9030865
:103E400008FA030800100020894700209020002075
:103E5000802000200221287815F040F9044600282F
:103E60003FF4D0AE764D774928680BF0EBFB7649EE
:103E700028680BF0E7FB05F0C5FD05F0C5FD7348AC
:103E800092230090724A734928680BF0DBFB724959
:103E90002346724A28680BF0D5FB204605F0E0FD6A
:103EA0006F4928680BF0CEFBFEE7B4F805302279A5
:103EB000ADF81D308DF81C2007A9334603C9BDF8A5
:103EC000182002F0F1FA9DE6E379012B73D0022B62
:103ED0007FF498AE01F07EFB0123037692E6584D05
:103EE000584928680BF0AEFB574928680BF0AAFB2D
:103EF00005F088FD05F088FD54484B230090544A96
:103F0000544928680BF09EFB53492346534A2868BE
:103F10000BF098FB204605F0A3FD514928680BF0F3
:103F200091FBFEE7E379012B35D0022B7FF46AAEDB
:103F300001F050FB0123437664E64FF4C862009021
:103F400003461146287815F091F8044600283AD027
:103F50003B4D3C4928680BF075FB3B4928680BF04A
:103F600071FB05F04FFD05F04FFD38485B230090D5
:103F7000374A384928680BF065FB37492346374AEA
:103F800028680BF05FFB204605F06AFD344928687D
:103F90000BF058FBFEE72389002B43D00FB0BDE8A0
:103FA000F04002F01BBC2389002B40D00FB0BDE8CD
:103FB000F04002F0B1B82389002B2ED00FB0BDE83D
:103FC000F04002F0CDB92878022115F087F80546B7
:103FD000002831D01A4C1B4920680BF033FB1A49DA
:103FE00020680BF02FFB05F00DFD05F00DFD1748C7
:103FF0005F230090164A174920680BF023FB1649EF
:104000002B46164A20680BF01DFB284605F028FDBC
:10401000134920680BF016FBFEE70FB0BDE8F04037
:1040200002F0A4B90FB0BDE8F04002F0DDBB0FB064
:10403000BDE8F04002F076B801F0D6FBE2E500BF43
:10404000F82C0020A0100408D8F9030850FA03083F
:10405000A0F90308E0F90308F0F90308ECF90308F4
:1040600008FA030830B5C107044683B01FD4A2077D
:1040700029D4630733D425073DD4A00647D461066D
:1040800051D422065BD4E30565D4A5056FD4600541
:1040900079D4210500F18480E20300F18E8063036E
:1040A00000F19880002CC0F2A28003B030BD4625FC
:1040B000554A03200192554B554A5649009503F045
:1040C0004FFDA207D5D54A25534A504B01920320F4
:1040D0004F4A5049009503F043FD6307CBD54E2569
:1040E0004E4A009501920320484B494A494903F042
:1040F00037FD2507C1D55225494A03200192434B7C
:10410000434A4449009503F02BFDA006B7D5562538
:10411000444A4049019203203C4B3D4A009503F03C
:104120001FFD6106ADD55A253F4A03200192374B4A
:10413000374A3849009503F013FD2206A3D55E25C2
:104140003A4A324B01920320314A3249009503F03A
:1041500007FDE30599D56225354A009501920320B4
:104160002A4B2B4A2B4903F0FBFCA5058FD566256E
:10417000304A03200192254B254A2649009503F039
:10418000EFFC600585D56A252B4A22490192032060
:104190001E4B1F4A009503F0E3FC21057FF57CAF21
:1041A0006E25264A03200192184B194A1949009599
:1041B00003F0D6FCE2037FF572AF7225204A134B61
:1041C00001920320124A1349009503F0C9FC6303CE
:1041D0007FF568AF76251B4A032001920B4B0C4AF2
:1041E0000C49009503F0BCFC002CBFF65EAF7A24AE
:1041F000154903200191054B054A0649009403F037
:10420000AFFC03B030BD00BF84FA030814FD0308FF
:1042100070FA03087CFA0308A0FA0308B8FA030846
:10422000D4FA0308F0FA030814FB030834FB03086C
:104230005CFB030874FB03088CFB0308A4FB030866
:10424000BCFB0308D4FB0308F4FB030810B50121F1
:1042500084B02D2006F03EFF002340F2011E4FF0F7
:10426000010C40F20B320E4C69462046CDF8063068
:10427000CDF80230CDF80930ADF800E0ADF80920F6
:104280008DF804C009F0F8F902214FF40032054B13
:1042900004F58054E161C3F884215A6004B010BD74
:1042A0000080015A00E100E080B584B009F090F888
:1042B000474DAC27286009F085F80CF0F7FD09F0B0
:1042C00057F801213A2006F005FF00230422194681
:1042D000022008F035FC002304220121022008F00E
:1042E0002FFC022100230846042208F029FC0023A9
:1042F00004220521022008F023FC00230422194691
:10430000184608F01DFC002304221846114608F048
:1043100017FC002304221846062108F011FC002394
:1043200004221946012008F00BFC0EF0A1F8002031
:104330000EF0A0F803F08AFBFF21002003F008FE36
:10434000C721012003F004FEC721022003F000FE74
:104350000721032003F0FCFD0721042003F0F8FDF2
:1043600003F0B2FB0097AD271A4E1B4B0320CDE99B
:1043700001361A4A1A4B1B4903F0F2FB2B68194904
:104380000293194B154A032001930097144B03F035
:10439000E7FB164C2868FFF765FEFFF757FF32462C
:1043A0001349144802F006FF04F042FD04F0AAFE8F
:1043B00004F060FE04F090FF204609F04BF920461F
:1043C00009F048F90CF080FD0BF08AFCF7E700BF1C
:1043D000B420002018FC030820FC030870FA03082E
:1043E0000CFD03087CFA030834FC03080080015A22
:1043F00044FC03084CFC03082DE9F04397B0382235
:10440000002108A82AF0F5FA4FF40032224BC3F835
:1044100084216A46382108A802F020FFF2241F4AAE
:104420001F4F0192009406461E4B03201E4A1F494F
:1044300003F096FB3C7824B101233B7017B0BDE834
:10444000F083F9251A4B0320CDE90136164A154BA6
:104450001649009503F084FB04F00CFEAEB1DFF8C2
:104460005490DFF8548007AD55F8041F484603F018
:1044700035FB2246414605A821F0ECFB01342946D4
:1044800005A804F0C1FDA642EED104F085FE01238B
:104490003B7017B0BDE8F08300E100E050FC03087A
:1044A0008A470020F8FC030870FA03087CFA030826
:1044B00064FC030880FC030888FC03082DE9F04134
:1044C00096B03822002108A82AF093FA6A463821CB
:1044D00008A802F0C3FE40F21114064600944FF4FF
:1044E0008974174A0320174B17490192174A03F0A2
:1044F00037FB174A0320134B134901920296134AC4
:10450000009403F02DFB04F0B5FDAEB10024DFF8FC
:104510004880104F07AD55F8041F404603F0DEFAFF
:104520002246394605A821F095FB0134294605A805
:1045300004F06AFDA642EED104F02EFEFEE700BFB5
:1045400090FC0308ECFC03087CFA030870FA0308EB
:1045500064FC030888FC030880FC03082DE9F04193
:1045600096B03822002108A82AF043FA6A4638217A
:1045700008A802F073FE40F22B14064600944FF494
:104580009674174A0320174B17490192174A03F0F4
:10459000E7FA174A0320134B134901920296134A74
:1045A000009403F0DDFA04F065FDAEB10024DFF8FD
:1045B0004880104F07AD55F8041F404603F08EFAAF
:1045C0002246394605A821F045FB0134294605A8B5
:1045D00004F01AFDA642EED104F0DEFDFEE700BFB6
:1045E0009CFC0308D8FC03087CFA030870FA030853
:1045F00064FC030888FC030880FC03082DE9F041F3
:1046000096B03822002108A82AF0F3F96A4638212A
:1046100008A802F023FE4FF4A2740646009440F26C
:104620004514174A0320174B17490192174A03F004
:1046300097FA174A0320134B134901920296134A23
:10464000009403F08DFA04F015FDAEB10024DFF8FC
:104650004880104F07AD55F8041F404603F03EFA5E
:104660002246394605A821F0F5FA0134294605A865
:1046700004F0CAFCA642EED104F08EFDFEE700BFB6
:10468000B0FC0308C4FC03087CFA030870FA0308B2
:1046900064FC030888FC030880FC030803681B4AC9
:1046A00023F47F4323F00703934200D0704730B5D3
:1046B000052200211620164B83B014F091FD04460C
:1046C00008B903B030BD134D134928680AF0BAFF8A
:1046D000124928680AF0B6FF05F094F905F094F93C
:1046E0000F48592300900F4A0F4928680AF0AAFF83
:1046F0000E4923460E4A28680AF0A4FF204605F01A
:10470000AFF90C4928680AF09DFFFEE7A000010000
:1047100028FD0308F82C0020A0100408D8F903088D
:1047200058FD030830FD0308E0F90308F0F9030819
:10473000ECF9030808FA030813F084B808B50CF084
:1047400005FCBDE8084014F03BBA00BF01207047EB
:1047500000B5C3B013F008F826F060F910B943B003
:104760005DF804FBFFF7F2FF0028F8D001A827F05E
:10477000D0FA0028F3D101A805F068F801A804F0E8
:10478000CFFE01A8FFF78AFF01A8FFF7F5F943B0B4
:104790005DF804FB08B507F02BF806F0D5FF214AB9
:1047A000136F23F0070343F00303136706F0E4FFDE
:1047B0001D4B9B6A9B0702D401221C4B9A62194B2A
:1047C0000020D3F8202122F0030242F00202C3F8B5
:1047D0002021D3F8242122F0070242F00202C3F87C
:1047E0002421D3F8402122F0030242F00202C3F850
:1047F0004021D3F8602122F0030242F00202C3F804
:104800006021D3F8402222F0030242F00202C3F8F2
:104810004022D3F8002222F0070242F00202C3F83D
:10482000002208BD0080005000C0005000E0005091
:1048300008B50AF051FE0AF0CDFD0AF033FE0AF089
:10484000F1FDFFF7A7FF0AF0D9FD05F06DFB05F0BC
:1048500005FEBDE808400BF047B900BF08B505F0FC
:1048600089FDBDE8084000F07BB800BF08B50BF03B
:1048700085FE0AF04DFF09F031FF0AF0BDFF0DF093
:104880000BF90AF043F9BDE808400AF027BF00BF62
:1048900008B509F02BF809F047F809F059F8FFF7C7
:1048A0004DFFBDE8084009F03DB800BF05F0AEB8C7
:1048B000704700BF05F0E0B9FFF74ABF704700BF7F
:1048C00001480AF04DBF00BFB820002001480AF09F
:1048D00047BF00BFB820002001207047012070476B
:1048E00038B505F00BFA054612F066FF041E18BF36
:1048F0002C46FFF7F1FF002818BF204638BD00BF47
:1049000038B50BF043FB044605F0EEF9042817D048
:10491000022808BF012426F0C3F804284FF0000540
:1049200014D0022808BF0124FFF7D8FF042813D0B1
:10493000022808BF0124002D18BF0024204638BDDE
:1049400026F0AEF804284FF00105EAD1FFF7C6FFC4
:1049500004284FF00105EBD10024204638BD00BFEC
:10496000024B0349186805F0FBBF00BF040C002090
:10497000E40B0020014B1878704700BF8B470020E4
:1049800010B53A24084982B001910420074B084A27
:104990000849009403F0E4F80022074B1A7002B0B3
:1049A000BDE8104000F036B9C40104080002040854
:1049B000A8010408C00104088B47002010B5522448
:1049C000084982B00420084B084A01910094084924
:1049D00003F0C6F800F044FA0022064B1A7002B049
:1049E00010BD00BFD0010408F4010408A8010408A8
:1049F000C00104088B47002010B56824084982B024
:104A00000420084B084A01910094084903F0A8F8D3
:104A100000F016FB0122064B1A7002B010BD00BF59
:104A2000DC010408E8010408A8010408C001040826
:104A30008B47002000F0E4B8F8B56FF448731B4EC4
:104A4000B6F90800C3189BB2B3F5C77F22D81FF090
:104A500011FE0022164B1FF0A1FF04460D46B6F9C9
:104A60000A0038B144F61E6200F51C530F339BB2A6
:104A7000934212D9002600270E4B2046D3E900238B
:104A800029461FF061FE32463B461FF0A7FC41EC71
:104A9000100BF8BD0024084DE1E71FF0EBFD0022EC
:104AA000034B1FF07BFF06460F46E5E7782C0020FE
:104AB00000408F40801B00200000F03F38B50546C5
:104AC000054800F083F8044625B118B1FFF7B4FF9C
:104AD00085ED000B204638BD801B002010B5DF247B
:104AE000084A82B0019204200749084B084A009402
:104AF00003F036F80021022002B0BDE8104000F0BB
:104B00000DBE00BF2C02040824020408640404083B
:104B10000C02040810B5EF24084A82B00192042068
:104B20000749084B084A009403F01AF800210320B3
:104B300002B0BDE8104000F0F1BD00BF4C02040817
:104B400024020408440404080C020408002105207F
:104B500000F0E4BD10B54FF4BE74144882B014499F
:104B6000144B154A01900094042002F0F9FF04222E
:104B7000124B0A201A670BF02FFF00230146CDE9E4
:104B800000330F4A0F480BF033FD08B902B010BDD7
:104B90004FF4C2740C4901200191064B064A0449A6
:104BA000009402F0DDFF02B010BD00BF6C020408EB
:104BB00024020408D80304080C02040800D003509F
:104BC000154B0108602100208802040898B10123D8
:104BD00010B582B0044669461A46084804F0E8FB5E
:104BE00010B9002002B010BD0120DDE90023C4E9A6
:104BF000002302B010BD0020704700BFA421002098
:104C000008B5034804F036FC003818BF012008BD81
:104C1000A42100202DE9F0434FF48175DFF8F890CE
:104C2000DFF8F880304F314B85B04246394601936A
:104C300000954B46042002F093FF04220123114605
:104C4000022007F07DFF012304220621022007F045
:104C500077FF012304221846022107F071FF002389
:104C600002221846052107F06BFF1023204C00227A
:104C700004F58055C5F8A0301E49052005F094FBC9
:104C800039464FF48A7700971B4F4B4601971B4FCD
:104C9000424638600290042002F062FF1849032067
:104CA00000F05AFD1749022000F056FD1649052074
:104CB00000F052FD082215491123154804F068FB45
:104CC0004026042304F50054C4F8A06001202367A3
:104CD0000BF044FEC5F8A06000F008FE0D4B186014
:104CE00005B0BDE8F08300BF24020408AC0204084C
:104CF00000C003504D4B0108B8020408B821002041
:104D0000E9520108554B0108214D0108881B00207C
:104D1000A4210020A0210020380404080C0204086B
:104D20002DE9F04140F2FF170024404A84B0404D85
:104D30000420404B404901920097404A02F010FF86
:104D40002A68234605212046CDE9004407F07CFE71
:104D50003B4E2B68C6F82034FDF7FEF9394B1B8813
:104D6000142B0AD0012300202A680521CDE9000375
:104D700007F06AFE04B0BDE8F081334B1A88032ABD
:104D8000F0D110270120DFF8D4801C800CF0A8F8A7
:104D90002E4B042203932E4C03A9D8F80000C6F82A
:104DA000A07006F01BF801200CF09AF80120C4F85E
:104DB000A0700CF095F8274B0422039303A9D8F8B0
:104DC0000000C6F8A07006F009F801200CF088F881
:104DD0000120C4F8A0700CF083F848F261030422AB
:104DE000039303A9D8F80000C6F8A07005F0F6FFF9
:104DF00001200CF075F80120C4F8A0700CF070F8D8
:104E0000154B0422039303A9D8F80000C6F8A0703C
:104E100005F0E4FF01200CF063F80120C4F8A07055
:104E20000CF05EF8042333679CE700BF2C030408F2
:104E3000B8210020B0030408240204080C0204086E
:104E400000E00350204700201E4700203A80160053
:104E500000D00350508002003A809600040C0020DD
:104E600010B50D4882B00BF087FC0C480BF084FCA9
:104E700000230B4C184622680521CDE9003307F0CA
:104E8000E3FD402104222068064BC3F82004C3F848
:104E9000A0101A6702B010BD802100206021002000
:104EA000B821002000E003502DE9F043012099B023
:104EB0000CF016F80120102407230546574E584AD7
:104EC00006F50058574FADF824300892C8F8A040B6
:104ED0000CF006F808A90622386806F5805605F099
:104EE0007DFF28460BF0FCFF2846C6F8A0400BF0DB
:104EF000F7FF4AF25003ADF820304B4B4FF000095A
:104F00001B88ADF80B908DF80930C3F301238DF8A1
:104F10000A30464B8DF80D9000936B46CDF8049007
:104F20008DF8085007CB1B88CDF82200ADF82E3045
:104F3000CDF82610CDF82A2028468DF83090C8F8F4
:104F4000A0400BF0CDFF08A91122386805F046FFFC
:104F500028460BF0C5FF364BC6F8A04028460893FC
:104F60008DF82490C8F8A0400BF0BAFF08A90522DC
:104F7000386805F033FF28460BF0B2FF2D4BC6F81A
:104F8000A04028460893C8F8A0400BF0A9FF08A944
:104F90000422386805F022FF28460BF0A1FF5423B5
:104FA000C6F8A040ADF82430234B28460893C8F833
:104FB000A0400BF095FF08A90622386805F00EFF07
:104FC00028460BF08DFF48F20503C6F8A04028469E
:104FD0000893C8F8A0400BF083FF08A904223868A2
:104FE00005F0FCFE02200BF07BFF144BC6F8A0403E
:104FF000284608938DF82490C8F8A0400BF070FF65
:10500000052208A9386805F0E9FE28460BF068FF7C
:10501000C6F8A04019B0BDE8F08300BF00C003503F
:105020003AA0160B040C0020224700200300003990
:1050300061A00F013A80960001A0610017A0010154
:1050400070B540F29314334984B0334B334A019125
:1050500004203349009402F083FD9621314B324AFB
:10506000B3F9063011800BB10B44138004252F4B8C
:105070000A201D670BF072FC00F038FC2C4B1C68FA
:10508000041BB4F57A7F29D300240125294B05217F
:105090001A6820462B46CDE9004507F0D5FC42F2C0
:1050A00010700BF099FC23460146CDE90044224ADA
:1050B00022480BF0CFFA20B904B0BDE87040FFF7EA
:1050C000F3BE4FF4D8741E4928460191124B134A7F
:1050D0001349009402F044FD04B070BD4FF4D37640
:1050E000184A2846CDE901240B4B0C4A0C4900967E
:1050F00002F036FD1448154B04FB00F000F5742057
:1051000000F51070A3FB0030C0F38F100BF026FCED
:10511000BAE700BF44030408C80304080C020408EB
:1051200024020408782C00202247002000D00350DD
:10513000A0210020B8210020DD4A010880210020A4
:10514000640304085403040818FCFFFFD34D6210E5
:105150002DE9F043012099B00BF0C2FE012010248C
:1051600007230546574E584A06F50058574FADF8E5
:1051700024300892C8F8A0400BF0B2FE08A906221D
:10518000386806F5805605F029FE28460BF0A8FE83
:105190002846C6F8A0400BF0A3FE4AF25003ADF833
:1051A00020304B4B4FF000091B88ADF80B908DF869
:1051B0000930C3F301238DF80A30464B8DF80D906A
:1051C00000936B46CDF804908DF8085007CB1B88F0
:1051D000CDF82200ADF82E30CDF82610CDF82A20DB
:1051E00028468DF83090C8F8A0400BF079FE08A949
:1051F0001122386805F0F2FD28460BF071FE364B9F
:10520000C6F8A040284608938DF82490C8F8A0401E
:105210000BF066FE08A90522386805F0DFFD284678
:105220000BF05EFE2D4BC6F8A04028460893C8F848
:10523000A0400BF055FE08A90422386805F0CEFD09
:1052400028460BF04DFE5423C6F8A040ADF824309C
:10525000234B28460893C8F8A0400BF041FE08A94C
:105260000622386805F0BAFD28460BF039FE48F2F0
:105270000503C6F8A04028460893C8F8A0400BF0E4
:105280002FFE08A90422386805F0A8FD28460BF077
:1052900027FE144BC6F8A040284608938DF82490AA
:1052A000C8F8A0400BF01CFE052208A9386805F0DC
:1052B00095FD28460BF014FEC6F8A04019B0BDE8D5
:1052C000F08300BF00C003503AA0160B040C00206E
:1052D000224700200300003961A00D013A809600AA
:1052E00001A0610017A0010110B54FF4B4740D497D
:1052F00082B004200C4B0D4A019100940C4902F03D
:105300002FFCFFF725FF012300200A4A0A491268F3
:10531000C1F820240521CDE9000307F095FB02B078
:1053200010BD00BF90030408F40304080C02040835
:1053300024020408B821002000E00350F0B53B4DE2
:1053400087B06B6903F4A073B3F5807F42D19027D7
:10535000294604A807F064FF049C354A0420CDE9DF
:105360000124344B344A3549009702F0F9FB40F2EE
:10537000BA43022104FB03F3314A324E82FB03425B
:105380001A44DB17C3EBE2238B4033802846E960E5
:1053900007F0A0FE00212A2005F09CFE40F6E44222
:1053A00040F6282133889A4228BF1A468B422AD9D0
:1053B000254BA2F62822A3FB0213D21A03EB5203B9
:1053C000C3F38703214A2248137007B0BDE8F040B9
:1053D0000BF0D2B9F2241F49174A01910120174955
:1053E0001D4B009402F0BCFB02232846EB6007F043
:1053F00071FE2A20002105F06DFE154807B0BDE8BA
:10540000F0400BF0B9B9B3F5166F07D9134BA2F5FD
:105410001662A3FB0232C2F30713D3E740F26C72A9
:1054200093428CBF01236423CCE700BF0040005AA5
:10543000AC0404089405040884040408A0040408C7
:1054400081000880F00F00202549922401100020DF
:10545000C8210020B404040854050408A38B2EBA04
:105460002DE9F0411C4C82B001212A2005F032FECA
:10547000204607F02FFE02214FF4B06006F046FCF4
:1054800000222046154907F089FE0023064640F217
:10549000BA410222124DDFF85480E9606A8064212B
:1054A0001A460096204688F8056007F093FE41F200
:1054B00001030C4F41462A46A86020463B8007F076
:1054C0009DFB3A462046084907F0CAFD0123E360E8
:1054D00002B0BDE8F08100BF0040005A404B4C00D4
:1054E000140C0020080C00200C0C0020BC21002013
:1054F00030B5D025074C084A217885B0CDE9012187
:105500000320064B064A0749009502F029FB207844
:1055100005B030BD01100020D8040408700504084F
:1055200084040408A00404081E4B1F4A196812884A
:105530000844B2F57A6F186006D21C4A1C4B02FB75
:1055400000F0B3EBF00F1DD310B540F21B14194857
:1055500084B0194B194A1A4901900094032002F0B3
:10556000FFFAFFF77DFF0A200BF036FA0023014611
:10557000144ACDE9003314480BF03AF8024610B94A
:1055800004B010BD704740F22314104902920191FB
:105590000120094B094A0A49009402F0E1FA04B0DB
:1055A00010BD00BFE8210020F00F002021436587D7
:1055B000AC682400EC0404083805040884040408DA
:1055C000A00404083D530108C82100201405040864
:1055D00004F0CABC00487047101C0020034B93F82D
:1055E0003000B0FA80F04009704700BF101C002066
:1055F000014B1878704700BF101C002030B50446DE
:10560000BB250B4A85B00B49019203200A4B0B4A7C
:105610000095029402F0A4FA40F20112084B2046D1
:105620001A83FCF75DFE05B0BDE8304000F040BDD8
:10563000DC050408D005040800070408B4050408C4
:10564000101C00202DE9F0430446894690461F4671
:10565000D625144B87B001930320134BCDE90249A3
:10566000CDE90487114A1249009502F079FA002326
:10567000104E3578708803B915B907B0BDE8F083CE
:10568000A042FAD12046A6F80490A6F806803781F9
:1056900000F07EFC18B1012373700123E9E700F0EC
:1056A00007FDFAE700060408D8060408B405040854
:1056B000D0050408101C002030B50446FD25124A10
:1056C00085B00320114B01921149124A00950294B2
:1056D00002F046FA104A1078538840B90023D37676
:1056E00000F0B6FB05B0BDE8304000F0D5BC9C42F0
:1056F000F4D10021002400251180C2E90445C2F83C
:105700000210C2F80610E9E734060408B4060408DB
:10571000D0050408B4050408101C002038B54FF06B
:10572000010C00230B4D1A460CFA00FC02E001327A
:10573000202A09D055F8234003336445F7D102EB02
:10574000420205EB8205A96013F05CFCB0FA80F020
:10575000400938BD0C220020F0B500220125074683
:1057600013461C4E85B0854002E00133202B0ED03D
:1057700056F822400332AC42F7D1002203EB430338
:1057800006EB8303C3E90112012005B0F0BD00223E
:10579000104B1C680CB95C689CB10132202A03F1E3
:1057A0000C03F6D14FF4C9740B49012001910B4B46
:1057B0000B4A0C490297009402F0D2F9002005B080
:1057C000F0BD02EB420246F8225006EB8206C6E923
:1057D0000114D9E70C2200205C060408A80604087E
:1057E000B4050408D00504081D4B0522002110B59E
:1057F000182013F0F5FC382200211A4829F0F9F896
:105800000022194B03F5C0719A60C3E900220C33E2
:105810008B42F9D115490120FFF79EFF14490B2057
:10582000FFF79AFF13490C20FFF796FF12490D204E
:10583000FFF792FF01F05AFC01230A4C84F8303044
:1058400000F096FB94F83030837000F095FB02F086
:105850004FFE00F003FBBDE81040FFF791B800BF1A
:1058600018FC0308101C00200C220020CD5F01084A
:10587000516901083D690108816901084FF0010C77
:1058800030B5154D00222B46044685B00CFA00FCBD
:1058900004E00132202A03F10C030ED0196861459F
:1058A000F7D159680029F4D002EB420205EB8205DA
:1058B000A8688847012005B030BD40F2A915074906
:1058C00002200191064B074A07490294009502F015
:1058D00047F9002005B030BD0C22002074060408F2
:1058E00098060408B4050408D005040800B583B080
:1058F0000BF00EF86A460BF0CBF8009803B05DF899
:1059000004FB00BF00B54FF47A7083B00BF064F86D
:1059100000230146CDE90033034A04480AF05CFF46
:1059200003B05DF804FB00BFD1550108EC21002055
:1059300000210820FFF7F2BE00210920FFF7EEBE8C
:1059400000210A20FFF7EABE30B583B0FFF746FE1C
:10595000A0B91E4D04462B78012B11D90520FFF765
:10596000E3FD4EF660200BF037F823460146CDE903
:105970000044174A17480AF03BFEC8B903B030BDCF
:105980000120FFF7D1FD2B784FF47A700133DBB2A1
:105990002B700BF021F823460146CDE900440C4A58
:1059A0000C480AF025FE0028E8D040F2C22401E0AD
:1059B00040F2CD24084901200191084B084A0949C9
:1059C000009402F0CDF803B030BD00BF8C4700203A
:1059D000415901088C230020880204082409040886
:1059E000240704084407040810B5FEF7E7FFFFF793
:1059F000F1FD802380F83030FFF7ECFD044600F025
:105A0000B7FA94F830308370BDE8104000F0B4BAB3
:105A10002DE9F0431C4E1D4D1D4C87B0FFF70AF8D1
:105A2000034604A8002B2CD0FFF748F848B3DDE963
:105A300004011FF043F91EF02FFE40F24F1780467D
:105A400089462B46224613490320CDE90289019657
:105A5000009702F085F8104B104A19781D29DDD8FF
:105A6000DDE904011F7802EBC702C2E900011A78E0
:105A70000132D2B21A70FEF7DDFF034604A8002BF4
:105A8000D2D107B0BDE8F08358070408D409040850
:105A900024070408440704088D470020481C002000
:105AA00010B582B0FFF722FF40F2DD312A4A1368B9
:105AB000C31A8B420FDD294B10601B786BB9012094
:105AC000FFF732FD264B1B889BB2B3F5D25F1BD28A
:105AD000FFF784FD70B902B010BDFEF74BFF20B98F
:105AE00002B0BDE81040FEF787BF02B0BDE810402D
:105AF000FFF78EBFFEF73EFF50B3FFF789FF02B0FE
:105B0000BDE81040FCF714BCFFF768FD0028DFD0AB
:105B10004FF4CE741348144A1449154B0190009465
:105B2000032002F01DF8FEF749FFFFF753FD802325
:105B300080F83030FFF74EFD044600F019FA94F873
:105B40003030837000F018FA0A480AF015FEBFE7FB
:105B5000FEF752FFD3E700BFEC2300208F47002061
:105B600026470020FC07040824070408440704080B
:105B7000A4090408CC23002010B5044610B3124B2E
:105B80001A78112A12D81A781049D3B2112A98BF5C
:105B9000DAB20CD801EBC30C01331AB11CED027B55
:105BA0008CED007BDAB2112AF4D900E00749084BEA
:105BB0000022D1E922011EF0C7FD1FF05FF8034665
:105BC0000120236010BD00BF8D470020481C00202D
:105BD00000408F4001480AF0CFBD00BFCC23002019
:105BE00010B540F22A24144882B0144B144A1549C7
:105BF00001900094032001F0B3FF64200AF0ECFE52
:105C000000230146CDE900330F4A10480AF0F0FCAA
:105C100060B140F22F240E4901200191074B084A40
:105C20000849009401F09CFF02B010BDFFF7D2FCC0
:105C30000123C37602B010BD2408040868090408D3
:105C4000240704084407040839590108AC2300203C
:105C5000880204082DE9F0418AB0FFF7BBFC044636
:105C600040F25125E47E6F4E03206F4B6F4A70491E
:105C70000294CDE9005601F073FFFFF7ABFCC47E40
:105C800014B90AB0BDE8F081FFF7A4FCB0F8228097
:105C9000FFF7A0FC054640F256262D8C654F624B5F
:105CA000624A634903200395CDE90178009601F02B
:105CB00057FFFFF78FFC458CFFF78CFC038CAB4242
:105CC00036D9FFF787FC06AE3146808B02F020FE06
:105CD0000546002840F08480FFF77CFC96E80C0025
:105CE0004FF01D0C243003C804AF04908DF814103D
:105CF0008DF811C08DF8125097E8030000F0C4FA37
:105D0000002840F0818000F013FA002852D0FFF7FD
:105D10006FFC00284ED0002C47D0FFF75BFC438C73
:105D200001334384FFF756FC838B013383833CE0CC
:105D300040F2822540483D4A3B4B3D490190009549
:105D4000032001F00DFFAA2306AC0E2120468DF89A
:105D5000183000F0C7F9ADF82600FFF73BFC94E8D7
:105D60000C0000261D27243003C88DF814100AA942
:105D7000049011E903008DE803008DF811708DF88F
:105D8000126004AD95E8030000F0D8F9044600283D
:105D900033D04FF42575294901200191224B234A24
:105DA00023490294009501F0DBFEFFF719FF0AB0CA
:105DB000BDE8F08100F0BCF90446FFF719FC40F2A1
:105DC0007D2605461E4A02200192174B174A1849A4
:105DD00002940096039501F0C3FE0AB0BDE8F0817D
:105DE00040F26D251749032001910F4B0F4A1049CE
:105DF0000095002401F0B4FE85E713480AF0BCFCCE
:105E0000FFF7E8FBC4763CE740F267260F4A032021
:105E10000192054B054A064900962C4601F0A0FE6A
:105E200071E700BF48080408400904082407040873
:105E300044070408D00E0408B4080408C80804087D
:105E40009C08040884080408AC2300207008040897
:105E500001480AF091BC00BFAC23002010B51649E0
:105E600084B00820FFF778FC14490920FFF774FC80
:105E700013490A20FFF770FC1EF000F94FF4FA7086
:105E80000AF0AAFD00230146CDE900330D4A0E4871
:105E90000AF0AEFB08B904B010BD024640F2FA2485
:105EA0000A49029201910120094B0A4A0A490094C9
:105EB00001F056FE04B010BDA15A0108555C01085E
:105EC00049590108415901088C230020E8080408B9
:105ED0000C090408240704084407040803461A0AA6
:105EE00002200B704A7070470088704760B370B52D
:105EF000044616480E4603F09FF90923144A2371FD
:105F0000226040F262334FF6037240F2033E41F6E4
:105F10001F0C0E4DA4F8132003CDC4F80500C4F8DF
:105F200009102988A4F81530A4F80D10172322466B
:105F300008210848A4F80FE0A4F811C002F0DCF82A
:105F40000EB11723337070BD704700BFF4230020DB
:105F50000201060BF80904080048704707240020D6
:105F60000B2200212720014B13F03AB9072400200F
:105F70000048704702240020052200212220014B06
:105F800013F02EB90224002000210120FFF7C6BB28
:105F900010B50446FFF71EFB037823B1FFF71AFB89
:105FA0004388A34201D0012010BDFFF713FB838873
:105FB000472B09D9FFF70EFB8388642B04D8FFF722
:105FC00009FBC388072BEED0002010BD70B584B04C
:105FD00003F02EFC70B90546FFF7FCFA04782CB1EB
:105FE000FFF7F8FA4088FFF7D3FF28B115B1234B2C
:105FF0001B7843BB04B070BDFFF7ECFAD0E9042373
:10600000052A73F1000313D3FFF7E4FA4FF6FF7587
:106010004FF4FA768078072364224821CDE90155B0
:10602000009613F06FF8E0B92546002DE2D0DEE7C8
:10603000FFF7D0FAD0E90432013342F100022546DD
:10604000C0E90432F1E74FF47A700AF0C5FC00238E
:106050000146CDE900330A4A0A480AF0BDFB04B004
:1060600070BD6A25084A0095CDE90120074B012043
:10607000074A084901F074FD2546D6E790470020FD
:10608000895F010864240020480A0408700A040893
:10609000040A04082C0A040808B503480AF06CFB3B
:1060A0000022024B1A7008BD642400209047002093
:1060B00000B54FF47A7083B00AF08EFC00230146DD
:1060C000CDE90033044A05480AF092FA0122044B54
:1060D0001A7003B05DF804FB895F01086424002096
:1060E0009047002091B102464FF6FF7010B4094C62
:1060F000114412F8013B4340DBB234F813308A42BA
:1061000083EA1020F5D15DF8044B70474FF6FF701D
:10611000704700BF900A04080122014B1A707047B3
:10612000914700200022014B1A70704791470020D0
:10613000014B1878704700BF9147002082B0F0B53E
:106140008FB02B4C0DF1180C8CE8030014A981E8DA
:106150000C0023789DF81850BDF819607BB96E24A7
:10616000244901910120244B244A2549009401F03F
:10617000F7FC01200FB0BDE8F04002B07047FFF718
:1061800037FA48B92378002BE9D0FFF731FA002815
:10619000EFD172241B49E4E714981599169A179BBE
:1061A00009AC0FC410231848194609AA01F0A4FF2E
:1061B00010223146284609AB13F06AF8044668B14C
:1061C0006927124901200191CDE902450A4B0B4A8A
:1061D0000B490496009701F0C3FCCAE7FFF7FAF9F0
:1061E000C476FFF7F7F9034620465C76C2E700BFA6
:1061F00091470020CC070408900D0408900C040877
:10620000A80C0408F80C0408B40C0408C40C040816
:1062100070B582B002AB144603E9030012B9104610
:1062200002B070BD0D239DF800601370911C567074
:10623000BDF80100FFF752FE05460235EDB26119C7
:10624000BDF80300FFF74AFE432E0CBF8023002356
:106250000544EDB263550135EDB261190020FFF739
:106260003DFE0146294454FA81F1BDF80500FFF7CF
:1062700035FE0E212046FFF735FF04F10E01FFF732
:106280002DFE102002B070BD30B591B006AC84E890
:1062900003002B4904AC097884E80C0011B90120F3
:1062A00011B030BDFFF7A4F90028F8D00AA909A859
:1062B00013F02CF820B9DDE90912B2EB510F31D3FC
:1062C00094E803000BAAFFF7A3FF04460821234626
:1062D0001C480BAA01F010FF2246BDF819109DF8CA
:1062E00018000BAB12F0D4FF044658B1CE25164966
:1062F00001200191154B164A16490294009501F0B0
:106300002FFCCCE7C825144A104B032011490192F9
:1063100000950F4A01F024FCFFF75CF90346204684
:106320005C76BDE7BC240D4DCDE902210220074B70
:10633000074A08490195009401F012FCAFE700BF3D
:1063400091470020B40C0408540D0408800D040883
:10635000900C0408A80C04084C0D04080C0D04084B
:106360000122014B1A707047924700200022014B16
:106370001A7070479247002082B070B592B004AC9A
:1063800084E80300DCB2042C154617932FD00223B7
:1063900006269DF85E200DF15F010DF11B00ADF8A2
:1063A00018608DF81A3028F078FB8DF81B408DF8B6
:1063B0001C500022344CBDF81B1023788DF82C6043
:1063C000ADF82E108DF82D203BBBC2242F490220A2
:1063D0002F4B304A019100942F4901F0C1FBFFF788
:1063E00007F920B312B0BDE8704002B07047022335
:1063F00005269DF85E200DF15F010DF11B00ADF843
:1064000018608DF81A3028F048FB012D03D08DF864
:106410001B408DF81C500526CBE7FFF7E9F8A8B91B
:106420002378002BD1D0FFF7E3F80028DAD1C62477
:106430001A4902200191164B164A1749009401F09F
:106440008FFB12B0BDE8704002B0704708210423F2
:1064500013480BAA01F050FE0422BDF811109DF85C
:1064600010000BAB12F014FF02460028BAD0BB2478
:106470000C49029201910120054B064A06490094FD
:1064800001F06EFBAEE700BF92470020CC0D040880
:10649000540F0408A80D0408C00D0408F80D0408E2
:1064A000EC0D0408540D0408F0B591B004AE86E874
:1064B00003000021144612F0FF021D468DF81A1049
:1064C00012D01B78012A8DF818300DD06B78022A73
:1064D0008DF8193008D0023AD2B2A91C0DF11B0078
:1064E0008DF81A2028F0D9FA23462A461021AF4801
:1064F00001F002FE9DF81830042B8DF82C302AD0C4
:1065000025D8032B15D1FFF7A3FC0124EC4610ABD3
:1065100013E90F00ACE80700190C2CF8023B8CF8CB
:106520000010224696E803000B9BFFF725FF11B0F1
:10653000F0BD83B94FF4CF749D4A009401920220BC
:106540009C4B9D4A9D4901F00BFB0224DEE7622B28
:10655000F0D10124DAE79DF81930E3B1012C1AD902
:10656000062B36D89A1E022A22D90024012B40F08D
:10657000F38000259DF81A30002B4CD04FF4AD74F9
:106580008F4A0094019202208A4B8B4A8B4901F07A
:10659000E7FA0524BAE740F237148A4A00940192D8
:1065A0000220844B844A854901F0DAFA0324ADE7DE
:1065B0009DF81B30012B19D04FF4A674824A009429
:1065C000019202207B4B7C4A7C4901F0C9FA0924E4
:1065D0009CE74FF4A0747D4A009401920220754B11
:1065E000754A764901F0BCFA04248FE707A8FFF743
:1065F0007BFC9DF819300446042BB7D10DF11E0029
:10660000FFF772FC9DF819300546012BB2D0042B20
:1066100001D18442B2D82B4640F25F176C4ACDE9D3
:106620000243019200970320624B634A634901F0E1
:1066300097FA9DF8197001F0EBFE002800F08180B8
:106640007B1E052B7DD8DFE803F0035F54036C410C
:10665000AC4276D801F0DCFE84426ED201F0D8FE66
:10666000431E9D4200F29C80FEF7B4FFC583FEF7F7
:10667000B1FF8483FEF7AEFFC48BFEF7ABFF858BC3
:10668000FEF7A8FF631C5B1B03849DF81830012BE9
:1066900072D0042B7FF45DAF01F0BAFE02250446F0
:1066A0004FF4BC774B4B8DF82E508DF82F40C4F330
:1066B0000725A4B2019303203E4B3F4A3F49009770
:1066C00002948DF8305001F04BFA42E701F0A0FE41
:1066D0000446FEF77FFF013C8483FEF77BFF044600
:1066E000FEF778FFA38BC383FEF774FF01230384B7
:1066F000CBE701F08DFE84421FD201F089FE0546F2
:10670000FEF768FF013DB1E701F082FE431E9C42A7
:1067100041D8FEF75FFFC483FEF75CFF002383834D
:10672000A8E7FEF757FF00248483FEF753FFC483D6
:10673000FEF750FF01230384A7E7FEF74BFF00227B
:1067400002849DF81830042B09D1002202238DF811
:106750003020ADF82E30FCE600231D465CE740F209
:106760008D141D4A009401920220124B124A1349C3
:1067700001F0F6F90624C9E6FEF72CFF0022428458
:10678000FEF728FF034696E80300586283F82810B6
:10679000FFF726FACBE601F03BFE441EA4B2B8E7B1
:1067A00001F036FE451EADB25EE700BF0C0E0408D8
:1067B000180F0408400F0408A80D0408C00D0408B1
:1067C000980E0408180E04086C0E0408400E040805
:1067D000C00E0408D80E0408F00E04080122014B74
:1067E0001A707047944700200022014B1A707047BE
:1067F0009447002038B58646084699B39EF8003085
:10680000032B0B700ED0062B0CD003F0FB03602B78
:1068100008D003219EF801300C4643709EF80230E8
:10682000837001E001210C469EF8173045188BB1AA
:10683000002322460EEB030494F803C0013300F852
:1068400002C0541C9EF81720DBB29A42E4B2F0D882
:1068500021460519FFF746FC2946FFF73FFB204478
:10686000C0B238BD0D460C46F4E700BF82B030B56B
:106870008FB004AC84E8030007A912A8C0E9002384
:10688000FFF7B8FF0446254D23460821244807AAF0
:1068900001F032FC2B788BB9CD2422490220224B07
:1068A000224A01910094224901F05AF9FEF7A0FE14
:1068B00070B10FB0BDE8304002B07047FEF798FEEF
:1068C000A8B92B78002BE7D0FEF792FE0028F0D174
:1068D000D124184902200191134B144A1449009401
:1068E00001F03EF90FB0BDE8304002B070472246DB
:1068F000BDF811109DF8100007AB12F0C9FC02465C
:106900000028D6D0C6240C49029201910220064BE1
:10691000064A0749009401F023F9CAE7944700208A
:10692000680F0408980F040810110408740F040875
:106930008C0F0408B40F0408540D040808B5FFF7C1
:1069400053F8FFF747F9BDE8084002F0FBB900BF74
:1069500010B5C0B2FBF748FE01F034FDFEF73AFE79
:10696000002380F83030FEF735FE0446FFF700FBC9
:1069700094F830308370BDE81040FFF7FDBA00BFD7
:10698000704700BF2DE9F04F93B006AD12F0FF063F
:106990001746984685E8030023D1FF2740F21D14CF
:1069A000134608214246954801F0A6FB944B954AB0
:1069B00001930320944B95490297009401F0D0F87D
:1069C0004FF61C7202238DF84760ADF830208DF829
:1069D0003230FEF797FF01230EAC0CAE8DF832304B
:1069E00050E0012E1C7800F08981013E5FFA86FAA2
:1069F00003F101093B4642460821804801F07CFB37
:106A000040F21D1300937E4B032001937D4A7E4B81
:106A10007E49029401F0A4F81C2300268DF8303042
:106A20000223642C8DF831408DF832308DF84760A8
:106A30003DD8602C33D8043CE3B2192B20D8192C54
:106A40001ED8DFE814F01A001D001D001D001D00F7
:106A50001D001D001D001D001D001D001D001D004E
:106A60001D001D001D001D001D001D001D001D003E
:106A70001D003F0135011D00F1000C2F00F25D816A
:106A80000EAC0CAE94E80F008DE80F0096E80C00F9
:106A900095E80300FFF7EAFE13B0BDE8F08F623C13
:106AA000022C00F2FC81DFE804F06A5F8800FE2C13
:106AB00000F02881FF2C8CD0FD2CE1D140F26D1428
:106AC000534A514B01924F4A0320504900949A4631
:106AD000914601F045F80123B0468DF83030DFF8DB
:106AE00040B102F0CFFA09AF8DF847600EAC0CAEA2
:106AF00010E094E80F008DE80F0096E80C0095E890
:106B00000300FFF7B3FE00238DF84730B8F10F0FF5
:106B100000F00681394608AA5FFA88F002F090FA80
:106B2000002800F0FD804FF4BC730093089B4A4698
:106B3000CDE902870493032053463449CDF804B0CD
:106B400001F00EF89DF84730089A48336B4443F83B
:106B5000152C9DF8473008F101080433DBB20F2BE8
:106B60008DF84730D2D9C4E7FEF738FD002800F091
:106B7000FA8004230EAC0CAE8DF8323082E7BAF105
:106B8000040F00F28F8099F80030A02B00F03381C1
:106B9000A32B00F01981A42B40F0848060214422B3
:106BA00005231C480EACCDF833000CAE8DF8301028
:106BB0008DF837208DF8473064E7002709A809973A
:106BC000FEF7DAFF4FF4DE7C099B0E4A0293124B6C
:106BD000032001930D490C4BCDF800C000F0C0FF1D
:106BE000099B0122CDF8333004238DF847300B4B3D
:106BF0000EAC0CAE8DF832201F7043E7CC0F0408AA
:106C0000D80F0408740F04081C1104088C0F040822
:106C10005C100408A4112233C0100408934700201C
:106C20007810040800007A4409F10100FFF75CF9CC
:106C30000746FFF79DF9A0F80370FFF79DF907EEEF
:106C4000907A1FED087AF8EE676AC6EE877AB04C44
:106C500017EE900AC4ED007A1DF01EFD41EC100BFA
:106C60001CF048FC20681DF017FD40F243148046DC
:106C7000894600944FF4A274A64B0320A64AA74964
:106C80000193CDE90289A64B00F06AFFA54A0320D3
:106C9000CDE90127A24BA04AA049009400F060FF73
:106CA000002F74D103230EAC0CAE8DF83230E9E620
:106CB000012300210C200EAC0CAE8DF83030FEF715
:106CC0002DFDDFE6FEF78AFC074600287FF451AF72
:106CD00040F2311C944A03200192914B8E4A8F4915
:106CE000CDF800C000F03CFF012339460B200EAC6C
:106CF0000CAE8DF83230FEF711FDC3E64FF00009FF
:106D0000CA4677E608238949894A09681268CDF896
:106D10003310CDF837200EAC0CAE8DF84730B1E60D
:106D200002F0A8F994E80F008DE80F0096E80C0037
:106D300095E80300FFF79AFDA4E64FF0010AD8F8A2
:106D40000100D8F805107B4B0D2F03C3B8F80920BC
:106D50001A80794B83F800A07AD003230EAC0CAED6
:106D60008DF830308EE640F2B117744A032001925C
:106D70006B4B694A6949009700F0F2FE01210B2034
:106D80000EAC0CAE8DF83210FEF7C8FC7AE640F27D
:106D90004D1C4FF001086A4A614B6049CDF800C0B4
:106DA000019203205C4A00F0DBFE8DF83280FEF792
:106DB00011FC80F83280FFF7DBF8A0F803700EAC0E
:106DC0000CAEFFF7D9F85DE6602104228DF8333070
:106DD0005C4B5D481B6800688DF835305B4B8DF867
:106DE00034001B680EAC8DF836308DF830108DF8FD
:106DF00047200CAE46E66022554F0DA938888DF825
:106E000033308DF83020FFF769F800220B2013464D
:106E10008DF84700F879B97860F30702387A61F3A2
:106E2000070360F30F2261F31742F9780EAC61F3A8
:106E30000F2379790CAE61F31743797A61F31F62FE
:106E4000CDF83A20BA7962F31F63CDF8363019E6EF
:106E50004846FFF749F807EE900ADFED3E6AF8EE84
:106E6000677A87EEA67A3C4A3C4B17EE100A83ED10
:106E7000007AA2F800A01DF00FFC40F29D17384BDD
:106E8000CDE9020101930320254B234A23490097B2
:106E900000F066FE0EAC0CAE8DF830A0F2E5BAF153
:106EA000100F3FF6FFAE99F80030042B13D0052BDE
:106EB0005AD0062B74D0072B7DD0FA2B00F0868099
:106EC000FE2B7FF4EFAE02F089F901230EAC0CAE7D
:106ED0008DF83230D6E501220023224F99F80110B7
:106EE00009F10400397099F802108DF83220797098
:106EF00099F80310FB70B970FEF7F6FF03460C21FA
:106F00003846BB80FFF7EEF80EAC0CAEB881B9E5A1
:106F10009C44002010100408740F04088C0F04080F
:106F20001C1104082C100408F00F0408B4200020E1
:106F3000B02000209024002093470020A4100408D3
:106F40004410040884240020882400208C2400207D
:106F5000A02400200000C84272470020A044002066
:106F600094100408782C00204FF4F3710122B9F832
:106F70000130244FFB801BB20293234B032001936B
:106F80000091224B22498DF83220224A00F0E8FD80
:106F90000C213846FFF7A6F80EAC0CAEB88171E5AF
:106FA000B9F80130174F40F2ED113B811BB202934B
:106FB0000122194BE2E7B9F80130124F4FF4FA7190
:106FC0007B811BB202930122144BD7E7012798F86B
:106FD00007300EAC009398F808300CAE019398F887
:106FE000093098F80A20029398F80630039298F82E
:106FF000052098F80410B8F802008DF8327000F0FF
:107000000FF83FE5782C0020D81004081C11040864
:107010008C0F0408740F0408F01004080011040811
:107020002DE9F04F8BB09DF85040894690461E46A2
:107030009DF858A007469DF854B00994FEF78CFFC0
:107040000023254D80F807A02B60AB80099B05F835
:10705000029CAB7005F8018C25F8047C6E7085F8F5
:1070600003B0FEF779FF35F8043C0380FEF774FFA8
:1070700015F8023C8370FEF76FFF15F8013CC370F2
:10708000FEF76AFF6B780371FEF766FFAB7843711A
:10709000FEF762FFEB788371FEF762FF4B21EA781F
:1070A00035F8043C0792AA78029306926A780B4B53
:1070B0000592019315F8012C15F8024C85F804A0EF
:1070C000032004920091064B064A0749039400F0FE
:1070D00047FD0BB0BDE8F08FA42400205411040834
:1070E00084110408301104084811040870B54FF4E5
:1070F000FA620026EC23144D25F8022C6E602E60F7
:10710000AB71FEF729FFAB79AC1EC371FEF724FF0C
:1071100035F8023C0380FEF71FFFA3788370FEF76B
:107120001BFF6B78C370FEF717FFEB780371FEF758
:1071300013FF2B794371FEF70FFF6B798371FEF715
:107140000FFF304670BD00BFA224002010B5184CC0
:1071500084B0A44601AB83E8070093E80700ACE8DD
:107160000300ACF80020FEF7F7FE237AC371FEF7A8
:10717000F3FE23880380FEF7EFFEA3788370FEF70B
:10718000EBFEE378C370FEF7E7FE63790371FEF769
:10719000E3FEA3794371FEF7DFFEE3798371FEF727
:1071A000DBFE237AC37104B0BDE81040FEF7D8BE01
:1071B000A024002030B50D461446014683B020229D
:1071C000164827F030FC20222946154827F02BFCD2
:1071D00021462022134827F026FC134C1348144B59
:1071E000144920601B1A144A1448521A144C0160A6
:1071F000144923600A6023B10122134B1A7003B0B3
:1072000030BDAA24114901200191114B114A1249A4
:10721000009400F0A5FC03B030BD00BF2426002080
:1072200000260020DC250020D825002000000020BA
:10723000C00A002000200108D8710408D0250020D1
:10724000D4250020CC25002096470020CC1104082E
:10725000A81A0408A4110408C81104082DE9F0476D
:10726000314D324C324B95F80080074624681B683C
:10727000B8F1000F12D02F482F4D0668D5E905054B
:10728000013886423D6043D82C4D2D682E448642FD
:107290003ED301293CD97860022000E0404604EB4F
:1072A000030C624529D2234B244C1B68266803F14A
:1072B000040E1E441368DC071CD55C1EA64519D8B5
:1072C000A64217D31F2815D833F8035C33F8059C62
:1072D0001B4B05EA030ABAF5784F10D005F47F4539
:1072E000B5F58E4F06D1814204D9022814D047F853
:1072F0002040013004326245DCD3BDE8F08709EA62
:107300000309B9F5704FEED004326245D2D3F4E7E9
:107310004FF000080120C2E7B8F1000FE7D07B680A
:10732000A342E4D1E6E700BF95470020D82500201E
:10733000D4250020D0250020381D0020CC25002099
:1073400000F8FFFF2DE9F0470446A6B00021802297
:1073500006A827F04EFB2246202106A8FFF77EFF55
:1073600058B3DFF890A0814654460E4606ADDFF8CC
:10737000888005EB800755F8042B204641461EF017
:1073800069FCBD4204F1090404F8016CF3D14FF427
:10739000CF741148114A124909EBC903CDE9022003
:1073A000CDE9043A019101200E4B0F4A0F49009498
:1073B00000F0D6FB26B0BDE8F08740F2A1140C49DE
:1073C00001200191074B084A0849009400F0C8FBCE
:1073D00026B0BDE8F08700BF7812040824260020FC
:1073E00080120408781A0408A4110408C8110408BB
:1073F000C0120408AC240020701204082DE9F047E4
:10740000994B8AB01B78002B00F01E81974E337881
:10741000002B40F00A810127044640F26D20944B76
:107420000D460193934A3770934B94490090384628
:1074300000F096FBB5224FF42076914B384604932A
:10744000904B8E490393904B009202938F4B894A45
:1074500001938F4B00F084FB8E4B38460096854A93
:1074600086490193844B00F07BFB40F29E2C8A4AB4
:10747000E4064FF00100804B80490192CDF800C036
:107480007C4A4CBF05F1200605F1680600F068FB58
:1074900040F2A92C814CD5F810E029686868AB68E7
:1074A000EA68D5F814A0DFF82892C4F810E0DFF8F5
:1074B0002482D5F818E0ED6921606060A360E26085
:1074C000C4F814A0764FCDE90490CDE90281C4E957
:1074D00006E574490793744BCDF800C0012009926A
:1074E0000693644A644B08910197644900F038FBA5
:1074F00040F2AD2240F2B125E169019709916B4953
:1075000001200891A1695C4B079169490691616965
:107510000591684904912169009203916649554A91
:107520000291564900F01CFB644A0120524B53491A
:10753000019200954F4A00F013FB4FF0E022D2F881
:10754000241D5F4B216293F8281084F82410D2F890
:10755000341DA16293F8291084F82C10D2F8381D3C
:10756000588D2163D2F82C1DA0861A8E9B8F92B263
:107570009BB28807C4E90E12236400F1C88094F816
:107580003B30590649D594F824308BB1DA0700F125
:1075900040819F0700F142821D0700F13182D80629
:1075A00000F1E981990600F1D8811A0600F1CC803A
:1075B00094F82C30A3B1DD0700F11D81980700F18C
:1075C0000C81590700F1BB811A0700F1AA81DF067F
:1075D00000F199819D0600F18881180600F1A380D1
:1075E000A38EC3B194F83430DA0700F170819F079D
:1075F00000F15F815D0700F14E81180700F13D81C8
:10760000D90600F12E8194F83530DA0700F11B819C
:107610009B0700F10C8194F83B301F065CD4304688
:107620000AB0BDE8F047FFF78DBE40F26924254A55
:107630002549114B0191CDE9022301200D4A0F4943
:10764000009400F08DFAFEE740F267241F4A1E49BD
:10765000094B0191CDE902230120064A0749009414
:1076600000F07EFAFEE700BF964700209547002015
:10767000DCF90308A4110408641A0408C8110408FA
:10768000DC250020002600202426002030120408DB
:107690008C1A04081413040848130408381D002029
:1076A00098130408881304088C130408C4130408EE
:1076B000C8130408CC130408D0130408D413040816
:1076C00000ED00E008130408E8120408E0120408C2
:1076D0009013040894130408E36B002B9FD094F8D4
:1076E0003C30DD0741D4980769D4590759D41A07AB
:1076F00049D4DB0693D540F24624A64A01200192E4
:10770000A54BA64AA649009400F02AFA87E74FF451
:10771000EE75A44A012001929F4BA04AA049009512
:1077200000F01EFA2BE799077FF55AAF40F21625B5
:10773000226B9D4B0120CDE901329949964B974A26
:10774000009500F00DFA4BE79F073FF431AF40F290
:10775000F715A26A954B0120CDE9013290498E4B75
:107760008E4A009500F0FCF922E740F23A25904A53
:10777000894B01920120894A8949009500F0F0F96E
:1077800094F83C30AFE740F243258A4A824B01929D
:107790000120824A8249009500F0E2F994F83C30D9
:1077A000A7E74FF41075844A7B4B019201207B4A76
:1077B0007B49009500F0D4F994F83C3097E740F20B
:1077C0003D257E4A744B01920120744A744900950C
:1077D00000F0C6F994F83C3087E740F20125784A7A
:1077E0006D4B019201206D4A6D49009500F0B8F98A
:1077F00094F82C30E5E64FF4FF75724A664B01921F
:107800000120664A6649009500F0AAF994F82C30E8
:10781000D4E64FF4F1756C4A5F4B019201205F4A48
:107820005F49009500F09CF994F82430B1E640F2ED
:107830003225664A01200192574B584A5849009513
:1078400000F08EF9E7E640F22F25614A524B019293
:107850000120524A5249009500F082F994F83530DF
:10786000D6E640F22B255B4A012001924A4B4B4A57
:107870004B49009500F074F9C5E640F22725564AB9
:10788000454B01920120454A4549009500F068F9B1
:1078900094F83430B4E64FF40975504A3E4B0192E7
:1078A00001203E4A3E49009500F05AF994F83430E0
:1078B000A3E640F221254A4A374B01920120374A7C
:1078C0003749009500F04CF994F8343092E640F2D4
:1078D0001E25444A304B01920120304A3049009520
:1078E00000F03EF994F8343081E64FF404753E4AD6
:1078F000294B01920120294A2949009500F030F9CD
:1079000094F82C3069E640F20A25384A224B01925D
:107910000120224A2249009500F022F994F82C30E7
:1079200058E640F20725324A1B4B019201201B4AC0
:107930001B49009500F014F994F82C3047E64FF4F9
:1079400001752C4A144B01920120144A14490095E8
:1079500000F006F994F82C3036E640F2F115264A8C
:107960000D4B019201200D4A0D49009500F0F8F8E9
:1079700094F8243019E640F2EB15204A064B0192A8
:107980000120064A0649009500F0EAF894F82430F0
:1079900008E600BF241A0408541A0408A4110408B5
:1079A000C811040814140408E4160408781504081F
:1079B00064190408F4190408C8190408941904087F
:1079C000E4150408B015040840140408F818040865
:1079D000A41804084818040800180408A01704088C
:1079E000541704080C170408A41604087C1604088D
:1079F000541604081C1604082C150408F81404086E
:107A00004FF4F4750C4A0D4B019201200C4A0D49BC
:107A1000009500F0A5F894F82430C0E540F2E51593
:107A2000094A064B01920120054A0649009500F0DB
:107A300097F894F82430AFE5C0140408541A0408E9
:107A4000A4110408C81104088414040870B51C4C5F
:107A500094F8F0300BB1002070BD00F031FC00282C
:107A6000FAD1012294F8F43084F8F220F3B994F8B2
:107A7000F33013BB002501210522124BA4F8F3506B
:107A800003F1A50684F8F510227018461F22002184
:107A900026F0AFFF03462133B34203F8225C03F81C
:107AA000025CF2D1012384F8F030D4E794F8F3308B
:107AB000002BDFD100F00EFCDCE700F009FCD9E779
:107AC0004C2A00207E2A0020034B93F8F02012B1AC
:107AD000012283F8F12070474C2A00200FB410B522
