:020000040801F1
:10200000C00A0020D9960108D5960108DD5C0308B6
:10201000EDF20108D5960108D5960108D59601087C
:10202000D5960108D5960108D5960108D5960108E0
:10203000D5960108D8FF0308C9420108D5960108C2
:10204000D5960108D5960108D5960108D5960108C0
:10205000D5960108D5960108D5960108D5960108B0
:10206000D5960108D5960108D5960108D5960108A0
:10207000D5960108D5960108D596010821070208D2
:10208000D5960108D5960108D5960108D596010880
:10209000D5960108D5960108D5960108D596010870
:1020A000D5960108D59601085D9C0108D5960108D2
:1020B000D5960108D5960108019E0108DD9D01080D
:1020C000D5960108D596010825200308D596010864
:1020D000652A030855BF030851BF030855220308AA
:1020E00061BF030859BF03083D2A03085DBF030809
:1020F000A52A030875040308152B030839060308ED
:10210000D596010875410108D5960108D5960108B4
:10211000D5960108D5960108D5960108D5960108EF
:10212000D5960108D5960108D5960108D5960108DF
:10213000D5960108D5960108D5960108D5960108CF
:10214000D5960108D5960108D59601080000000033
:10215000013800D0FCE770472DE9F04310249BB014
:1021600001200EF031FBDFF858914D4B4D4E10938E
:10217000042210A9DFF85081C9F8A040306808F0A7
:1021800011FB01200EF020FB0120C8F8A0400EF04A
:102190001BFB42F2070310AAADF81C3007A9052368
:1021A000C9F8A040306808F0B1FA40F23D133E4D46
:1021B000C8F8A04000932B883C4F01339BB2029398
:1021C0002B803B8803200393394B3A4A01933A49C9
:1021D0003A4BBDF8424005F095F92B88132B1FD0E0
:1021E00007D914232B803B8801339BB2022B1AD8CA
:1021F0003B80102401200EF0E7FA314B314A10A940
:1022000010923068C3F8A040042208F0CBFA0120F5
:102210000EF0DAFA2C4BC3F8A0401BB0BDE8F083F7
:102220002A4B1C80E5E70325284B3D80B3F800804E
:10223000A4EB080020F038FE00224FF07C5320F081
:102240009DFE4FF03332224B20F098FE0022214BAE
:1022500020F094FE10A3D3E9002320F0B9FF02463A
:102260000B462846CDE902481D4614464FF4AA7194
:10227000194B00910193CDE904450E4A0E490F4BCD
:10228000CDE9104505F03EF9012210A9134806F0EA
:10229000A9FDAEE7AFF30080034356B77ACEF13F16
:1022A00005800100040C0020D8420020D642002006
:1022B00084DC0308C0DB0308D8DB0308C8DD03089F
:1022C00000E003500480010000D00350D4420020FD
:1022D0003333F33F00005940BCDC0308E02000200A
:1022E000114B1A78598862B94FF0010C9FED0C7BA5
:1022F000C3E9022283ED047B5A605880A3F800C032
:102300007047814200D0704700229FED057B01207D
:1023100083ED047BC3E901221880DA60704700BFB7
:102320000000000000000000701B00200000000002
:102330002DE9F04FA2488DB00AF06AFEA14B1A7841
:10234000132A02D814210A4619709F4F3B789342F2
:1023500005D20133DBB23B700DB0BDE8F08F40F227
:1023600073149A4D9A4B2A78042001930292994B48
:10237000994A9A49009405F0C5F8994B1B88B3F522
:10238000D25F08D30021914BF022964819702AF0B1
:1023900008F80123DFE72B78112B0DD8914A02EBC7
:1023A000C3020BB9012308320133DBB2122B52E90D
:1023B0000201E2E80201F7D14FF0D80C894E002467
:1023C0003546894B04200193884B834A8349CDF8D5
:1023D00000C0DFF834B2DFF80092DFF800829A46DE
:1023E00005F090F80796DB26CDE901B44146F5E803
:1023F00002230420CDE90423013453464A460096C3
:1024000005F080F8122CEED1704B079E93F80090E7
:10241000B9F1000F00F0C68000240025DFF8C4A148
:1024200006EBC9082046FAE80223294620F0F0FB13
:10243000D04504460D46F5D15FA3D3E9002321F032
:10244000004121F02BF8002875D0484620F01CFDF3
:1024500002460B462046294620F0BAFE0022644B75
:1024600020F08CFD21F024F81FFA80FAD3460024D6
:102470000025604BA3F800A02046F6E80223294679
:1024800020F0C6FBB04504460D46F5D14AA3D3E97A
:10249000002321F0004121F001F800284ED04846E9
:1024A00020F0F2FC02460B462046294620F090FE22
:1024B000514B002220F062FD20F0FAFF83B2184653
:1024C000F3248325CDE9030BADF82930444B0320D9
:1024D0001B88414A0293ADF82B30484B3F4901938A
:1024E0000094424B0AACADF82DA08DF8285005F0B1
:1024F00009F8204605F0EAFF03F092FB18B102F05C
:10250000C3FD002834D103F08BFB28B302F0BCFDDF
:10251000B0B102F0ABFD324D2B88C38502F0A6FDB1
:10252000C48D03F09DFA0134048003F09DFA2B88DA
:1025300001332B8026E78346824698E70346BFE7B0
:1025400040F211142E4B02200193234A274B2349BA
:10255000009404F0D7FFDCE740F20D14294B022071
:1025600001931D4A214B1D49009404F0CBFFCDE798
:1025700002F07CFD0025857602F078FD0378002BC3
:10258000C7D002F073FD1D238DF8213043888DF8EC
:1025900022508DF8203008A994E80C0003C903F0FC
:1025A000EBFBB6E7134BCB46A3F8009048464B46EF
:1025B000CA4685E7AFF300801656E79EAF03D23CCC
:1025C0000080015A620F002038430020374300206A
:1025D000ACE10308C8E40308D8E00308F8E0030806
:1025E000DC420020A81B0020C4E10308B4E4030877
:1025F00000005940DA42002000002440E4E10308D2
:102600001CE2030800E20308D8E103080000000010
:10261000C0290AD0F0B5B1F5807F04469FB00FD035
:10262000802904D029201FB0F0BD0F2070472498C6
:10263000002848D024984FF486650A90012006E0CF
:10264000249800284DD00A9040F2344501200B9088
:102650000195212010250C950D9025980E900AA823
:10266000102501269FED247B4FF0210EDFF898C046
:102670000F9012A810951196129213961495CDF8FA
:1026800054E0CDF808C003908DED047B9FED1C7BDA
:1026900001AF069307908DED087B16973BB306AA12
:1026A0001792042740F611021126CB0816AD0EA989
:1026B0001AA8189719961A941B951C931D920BF043
:1026C000FDFC1FB0F0BD0A904FF4826501200B9015
:1026D0000195212010250C950D9025980E90012034
:1026E000BEE7249840F214450A900120EFE702AAC1
:1026F000D6E700BFAFF300801000001011280000E3
:102700001000000011280000580304080000000019
:102710002DE9F04F2DED028B934608241E4602460C
:10272000A9B0DDF8D0A0DDF8D490CDE90601414094
:1027300021FA04F34B40980704F1080418BF9B00EA
:10274000202C1A44F4D1BC4BA3FB0213DB0803EB8F
:10275000C313D21AB94B02F506271B7807F5506749
:10276000002B00F0B780B64C8123049323464FF032
:1027700000083C46CDF80CB00593A4F50625059A53
:10278000A5F550635B0952F8232004F01F00C240F6
:10279000D20718D4AB4A52F82330C340DB0700F10C
:1027A0008780DDF80CB02746BBF1000F6FD0B8F181
:1027B000000F18BF47460020369B1F6029B0BDECB4
:1027C000028BBDE8F08FBAF1000F02D00023CAF8E7
:1027D0000030B9F1000F02D00023C9F800301027F3
:1027E000DFF87CB20023DBF8000032462146009778
:1027F00019F064FB034600284CD1BAF1000F00F039
:10280000F2801023CAF8003003F1BC43326803F5AC
:10281000BA1303F5E8539A4240F0EA80B9F1000F89
:1028200011D04B462146DBF8000018AA19F09AFB9C
:102830000346002840F0E580D9F80030DAF800209F
:102840009B1AC9F80030D6E90223DDE9061083425D
:1028500008BF8A4200F0DD80774BA5F6FF45A3FB59
:102860000523DB0803EBC313ED1A05F5062404F575
:102870005064049B013B04937FF47FAFDDF80CB000
:10288000BBF1000F03D04746B8F1000F93D16FF0B2
:102890008B0093E76C4A904200F0AA80123290427B
:1028A00000F0A680694A9342CDD06FF0910085E791
:1028B000614BA5F6FF42A3FB0213DB0803EBC31336
:1028C000D21AB8F1000F08BFA04602F5062404F59D
:1028D0005064CEE707F0A6FA04460028E5D19FED44
:1028E000548B0146402208A829F05BFD2146402276
:1028F00018A829F056FDCDE9037B554DDFF860811E
:102900004F4C0596CDF8D0A02F4607F10F06D8F80A
:10291000000010223B4608A90096103528F091FCD3
:10292000F8B108AB9E464FF0010BDFF818C103EB7E
:10293000800A5EF8042BA2F50623A3F550635B0919
:1029400054F8231002F01F020BFA02F2114344F86C
:1029500023105CF82310D64521EA02014CF823101D
:10296000E7D100963B461022D8F8000018A928F0BD
:1029700071FC60B318AB1A4603EB8000D4E9001376
:1029800003EB010EA16823698E44E16801268E44A1
:102990000EEB0301A646DFF8ACC052F8043BA3F5EA
:1029A0000627A7F550677F095CF8274003F01F034F
:1029B00006FA03F323434CF8273029B98CED008B3A
:1029C0008CED028BCCF810109042E6D17446214B6E
:1029D0009D4299D10123DDE9037B184A059EDDF86C
:1029E000D0A01370C0E61C4B32689A423FF42BAF64
:1029F0002146DBF8000019F0F9FA00283FF423AF74
:102A000045E7114A9042F3D0144A90427FF44AAF0E
:102A1000EEE7DDF80CB02746BBF1000F3FF4CBAE7C
:102A20007368012B7FF4C7AE6FF08400C6E600BF69
:102A30000000000000000000813FE00F4D43002037
:102A400064360020301D0020FFDF00F0FEDF00F0C4
:102A5000006D080000710800105D175E11E000F0C5
:102A6000800C002000000000002370B5404C05469B
:102A70008AB0E36318B10088236013F0E5FC3D4899
:102A800028F0B3FD3C4E3D4B304633603C4B736009
:102A900025F046FD0021304619F0B2FC32A3D3E9FF
:102AA0000023A062C4E9062325F045FDD4E90623EE
:102AB00019431043C4E90601CDE900014FF0FF338B
:102AC0004FF0FF32A06A28F00BFE02224FF0FF31D8
:102AD000A06A28F00AFE012013F038FA4FF40073C0
:102AE00000222849A06A28F053FEB0F5007F38D1B3
:102AF00000239422CDE9073309933C23CDE9033227
:102B000005939623A06A03A9069319F097FD35B3A0
:102B1000287C13F017FE0546F0B9A06A28F019FFCB
:102B200013F0BEFD13F0F4F920B14FF480700021D2
:102B300011F074FA13F0FCF920B14FF40060002199
:102B400011F06CFA25F0B9FD012019F0ADFC0E4A28
:102B50000E49A06A25F0E2FC28460AB070BDFF20AD
:102B6000D7E70725F8E700BF0DD501552000000085
:102B7000681D0020690345ECBC3B0020D15D0208C4
:102B8000CC3B0020BC390020C58403080585030820
:102B90002DE9F04FC76997B08346209E08910C92AB
:102BA000129355EC104B8DED000B7FB9102020F0E7
:102BB000B7FE0246CBF81C0020B9A74BEF21A7486F
:102BC00020F076FEC0E901770760C760DBF81C30B3
:102BD000196859B15A680123584693404A608B607E
:102BE00021F092FDDBF81C3000221A602B1EB7BFCB
:102BF00023F00043002301220193A8BF3360019F0B
:102C0000974BB8BF3260BB4319D142F20F73129A8F
:102C10001360C7F31303234300F0DB85219B53B9F3
:102C2000904B21E0904B03930833219A1360039853
:102C300017B0BDE8F08F8B4B03930333F5E79DEDA1
:102C4000007B0022002351EC170B8DED0A7B20F056
:102C5000FDFB804650B10123129A1360219B13B1F2
:102C6000824B219A1360824B0393E0E7C7F30A5625
:102C700014AA15A958469DED0A0B21F0CDFF02902C
:102C8000002E76D00B9BA6F2FF36CDF84C80C3F316
:102C9000130343F07F53DDE90A0143F4401319465F
:102CA0000022744B1FF0B2FF65A3D3E9002320F08C
:102CB00065F965A3D3E900231FF0AAFF04460D467A
:102CC000304620F0F1F862A3D3E9002320F056F952
:102CD00002460B46204629461FF09AFF04460D4641
:102CE00022F0D4FF0022074600232046294620F088
:102CF000B7FB40B1384620F0D7F822462B4620F0EB
:102D0000A5FB00B9013F162F52D85B4B03EBC7035D
:102D1000DDE90A01D3E9002320F0A2FB002849D015
:102D2000013F00231193149B9B1B5A1E4CBFC3F100
:102D300001030023079245BF0693002306930793E0
:102D4000002F39DB079B10973B440793002309931F
:102D5000089B092B66D8052BC5BF043B0024012422
:102D60000893089B023B032B67D8DFE803F02D3A5A
:102D70003859DDE914631E4406F23243202BC9BFE3
:102D8000C3F14003C3F120039F4006F21243D8BFB2
:102D900004FA03F006F1FF36C4BF24FA03F347EA4E
:102DA000030020F071F80122A1F1F873139276E785
:102DB0000123B7E71190B6E7069BDB1B06937B4226
:102DC000099300231093C3E700230D930C9B002B62
:102DD00056DC012399461A4604930C920CE0012319
:102DE000F3E700230D930C9BFB1803F101090493F7
:102DF0004B46012BB8BF0123DBF81C000021042245
:102E000002F114059D423FD94160584621F03CFC37
:102E1000039000283BD1194B024640F2AF11CEE699
:102E20000123DFE7012400230D9408934FF0FF33C3
:102E30000022994604931223CFE701230D93F5E76F
:102E400061436F63A787D23FB3C8608B288AC63FB0
:102E5000FB799F501344D33F2F460408464604088D
:102E60000000F07F2B46040822460408FF450408B2
:102E7000FE4504080000F83F404704089F46040848
:102E80000C9B99460493B7E701315200B8E7DBF891
:102E90001C30B9F10E0F039A1A606FD8002C6DD058
:102EA000002F36DD07F00F02A04BF8054FEA27147C
:102EB00003EBC20393ED007B8DED0E7B17D59C4B8E
:102EC00004F00F044FF00308D3E90823DDE90A01F9
:102ED00020F07EF9CDE90001954D5CB9DDE90E23C6
:102EE000DDE9000120F074F9CDE900012BE04FF09D
:102EF0000208F1E7E10709D508F10108DDE90E0153
:102F0000D5E9002320F03AF8CDE90E016410083528
:102F1000E3E700F007817C42844B854D4FF00208C7
:102F200004F00F02241103EBC203DDE90A01D3E927
:102F3000002320F023F80023CDE90001002C40F00D
:102F4000E580002BD0D1119BDDE90045002B00F07E
:102F50004C810022774B2046294620F081FA002838
:102F600000F04381B9F1000F00F03F81049B002B7A
:102F700000F3E480DDE90A34CDE90034159B002B31
:102F800002DB0E2F40F342820D9A002A40F0678246
:102F9000099C0025DDF81880B8F1000F0DD0079BC3
:102FA000002B0ADD4345069AA8BF4346D21AA8EB78
:102FB00003080692079AD31A0793099B0BB30D9B3C
:102FC000002B00F0A682002C00F0A18229462246A8
:102FD000584621F0C3FC029A01460546584621F0A6
:102FE00013FC02990646584621F08EFB099B1B1BD9
:102FF000099300F09182099A3146584621F0AEFCBF
:1030000002900121584621F0E9FB109B0446002B59
:1030100000F084821A460146584621F09FFC089B26
:103020000446012B03DC009B002B00F07C82002671
:10303000236904EB8303186929F0B0FAC0F120007A
:103040001096079B184410F01F0000F09182C0F109
:103050002003042B40F38182C0F11C00069B034433
:1030600080440693079B03440793069B002B05DDD2
:103070001A460299584621F0CBFC0290079B002B80
:1030800005DD21461A46584621F0C2FC0446119B34
:10309000002B00F076822146029829F0CEFA002813
:1030A00080F26F8200230A220299584621F04EFBDB
:1030B0000D9B7E1E0290002B00F05C8200232946AF
:1030C0000A22584621F042FB049B0546002B03DCF4
:1030D000089B022B00F35E82B8F1000F05DD294644
:1030E0004246584621F094FC0546109B002B00F008
:1030F000D0826968584621F0C7FA0746002840F098
:103100007F820D4B024640F2EF2158E5E20706D5DB
:1031100008F10108D5E900231FF030FF01236410F6
:1031200008350BE74FF002080DE700BF40470408E1
:10313000184704080000F03F9F460408204600227C
:10314000AC4B29461FF01AFF7E1E08F10108049CB3
:10315000CDE9000140461FF0A7FEDDE900231FF086
:103160000DFFA54B00221FF053FDA1F15073CDE9D7
:103170000E010F93002C3BD10022A04BDDE9000192
:103180001FF044FD02460B46CDE90023DDE90E2386
:1031900020F084F9002840F05781DDE90E2101F18B
:1031A0000043DDE9000120F05BF900283FF4E2AEC6
:1031B000002425460C9BDDF80CA0DE434FF00008F0
:1031C0002146584621F0A0FA002D00F0A980B8F160
:1031D000000F05D0A84503D04146584621F094FA87
:1031E0002946584621F090FA9AE03E464C46B1E70F
:1031F000834B03EBC40353E90201039B1C440D9B67
:10320000002B4AD002460B4600207E491FF0E0FF0B
:10321000DDE90E231FF0FAFCDDF80CA0CDE90E016C
:10322000DDE9000122F032FD05461FF03DFE0246B9
:1032300030350B46DDE900011FF0E8FC0AF8015BC0
:1032400002460B46CDE90001DDE90E0120F026F92A
:10325000002865D100206C49DDE900231FF0D6FC71
:1032600002460B46DDE90E0120F018F9002840F077
:103270000D81A24500F0EA8000225E4BDDE90E01DF
:103280001FF07CFE00225B4BCDE90E01DDE9000161
:103290001FF074FECDE90001C2E7DDE90E231FF047
:1032A0006DFEA046DDF80CA0CDE90E01DDE90001C0
:1032B00022F0ECFC05461FF0F7FD024630350B46C8
:1032C000DDE900011FF0A2FC0AF8015B02460B4693
:1032D000A245CDE900234FF0000223D1494BDDE99F
:1032E0000E011FF095FC02460B46DDE9000120F0BF
:1032F000D5F8002840F0CA8000204249DDE90E23BD
:103300001FF084FC02460B46DDE9000120F0A8F81E
:1033100070B1C24608F1FF381AF8013C302BF8D0E2
:10332000374655E0334B1FF029FECDE90001BDE7DC
:10333000DDE90A34CDE90034159B002BFFF628AEF9
:103340000E2F3FF725AE2E4B03EBC70393ED007B0B
:103350000C9B002B8DED047B02DAB9F1000F64D0D9
:10336000DDF80CA0DDE90045DDE90423204629460F
:103370001FF02EFF22F08AFC06461FF095FDDDE9C6
:1033800004231FF0FBFD0246204606F130040B46E5
:1033900029461FF03BFC0AF8014B039C02460B46F2
:1033A000AAEB0404A14540F082801FF031FC0446E2
:1033B0000D46DDE9042320F071F8002865D1204690
:1033C0002946DDE9042320F041F808B1F3075CD475
:1033D0000299584621F098F9002301378AF8003005
:1033E000129B1F60219B002B3FF421ACC3F800A06F
:1033F0001DE400BF0000244000001C4000001440F9
:10340000404704080000E03F0000F03FA24B03EB00
:10341000C70393ED007B0C9B002B8DED047B9FDAA3
:10342000B9F1000F9CDC7FF4C3AE00229B4BDDE9B9
:1034300004011FF0A3FDDDE9002320F025F8044678
:1034400000287FF4B5AE3E462546B4E0DDE90A34F7
:10345000CDE90034159B002B01DB0E2FD6DD089A39
:10346000012A36DC139A82B303F23343099CDDF858
:103470001880069A012158461A440692079A1A445F
:10348000079221F0ABF9054686E53E4653469A463B
:1034900013F8012D392A06D1039A9A42F7D1302226
:1034A000039901360A701A7801321A7038E700223F
:1034B0007B4B1FF063FD0022002304460D461FF0E6
:1034C000C5FF00283FF450AF82E7149BC3F13603D9
:1034D000CCE709F1FF34099BA34208DBB9F1000FE7
:1034E000A3EB04040EDBDDF818804B46C1E7099B13
:1034F000109AE31A0994DDF8188000241A444B4608
:103500001092B6E7069BA3EB09080023B1E7029EE1
:1035100071E5099A029970E5029672E5089B012B04
:1035200017DC009BABB9019BC3F313039BB9019B51
:1035300023F00046360D360536B1069B01260133D1
:103540000693079B01330793109B002B7FF470AD0C
:103550001096012075E50026F6E73FF486AD1C3392
:10356000069A1A4498440692079A1A4407927CE5F0
:103570000346F4E7049B002B2BDC089B022B09DCA1
:1035800027E0B9F1000F1DDC089B022B1ADD3E4637
:10359000CDF81090049B002B7FF40CAE2146052241
:1035A000584621F0D3F801460446029829F045F820
:1035B00000287FF7FFADDDF80CA0312301360AF8B3
:1035C000013BFBE50D9B3E46CDF81090002B7FF4B0
:1035D00083AD039F2146029828F053FF039B00F11F
:1035E0003009049A07F8019BFB1A9A4240F3CB80FA
:1035F00000230A220299584621F0A8F80290E9E730
:103600002A6905F10C010C300232920028F01DFFEE
:1036100001223946584621F0FBF9039BA84605468E
:1036200003F1010ADDE9032313440793009B03F030
:10363000010309930AF1FF3321460298049328F00D
:1036400020FF4146069000F13009029828F0F5FF6E
:103650002A4621460746584621F046FAC2680146E6
:1036600002B3584621F050F8002F3ADA01220299AD
:10367000584621F0CDF92146029028F0DEFF0028BF
:1036800003DC29D119F0010F26D0B9F1390F1DD172
:1036900032E02846C1E700BF40470408000014405C
:1036A000000024400A90029828F0C7FF0A990C9065
:1036B000584621F029F80C9A5ABB089B53B9099B2C
:1036C00043B9B9F1390F17D0002F05DD069B03F17F
:1036D000310901E0002F2ADADDF810A00AF8019B79
:1036E0006EE5089B3B4304D1009B03F00103002BD4
:1036F000BCD0B9F1390F36D1049F392307F8013B0B
:10370000BA46013F1AF8013C392B5AD001333B70BD
:1037100056E5002F06DB089B3B4306D1009B03F0D8
:10372000010313B9002AA1DCD6E7002AE1DC079BDC
:1037300057460AF8019C53452ED000230A220299CD
:10374000584621F003F8A84502904FF000034FF0CF
:103750000A02414658460BD120F0F8FF8046054644
:103760000AF1010A66E7DDF810A009F10109B5E7E1
:1037700020F0ECFF2946804600230A22584620F01C
:10378000E5FF0546ECE7049B4FF00008002BCCBF9B
:103790001F460127039B1F4401220299584621F02E
:1037A00037F92146029028F048FF0028A8DC02D112
:1037B00019F0010FA4D1BA4617F8013D302BFAD009
:1037C000FEE4039BBB429BD13123039A0136137065
:1037D000F6E4219B002B7FF425AA014BFFF744BAA6
:1037E000224604080348044B834202D0034B03B132
:1037F00018477047DC1A0020DC1A00200000000087
:10380000064B0749C91A891048BF0131491003D036
:10381000044B0BB101481847704700BFDC1A002069
:10382000DC1A00200000000010B5064C237843B9D4
:10383000FFF7D8FF044B13B10448AFF30080012316
:10384000237010BD3243002000000000944A040899
:1038500008B5054B1BB105490548AFF30080BDE82D
:103860000840FFF7CDBF00BF00000000C81F0020C8
:10387000944A0408A3F5803A704700BF174B002B09
:1038800008BF134B9D46FFF7F5FF00218B460F46FF
:103890001348144A121A28F084FD0E4B002B00D056
:1038A00098470D4B002B00D09847002000210400C2
:1038B0000D000D48002802D00C48AFF3008020F026
:1038C00075FE2000290000F0ABFB20F017F800BFC8
:1038D000000008000000000000000000C00A0020F6
:1038E000DC1A00203044002000000000000000002E
:1038F000F0B50368A04A23F47F4323F00703934203
:1039000004468FB000F0F2803AD802F17F42934231
:1039100000F01D8102F5802293425DD10021A12794
:10392000B0F8055009AE142206AB28460096069161
:1039300014F0CAFF914B0320CDE90135904A914B19
:103940009149009703F0DEFD32460821BDF818309A
:103950008E4804F0A3F8242D00F063812B2D0DD1A7
:10396000B4F805302279ADF81D308DF81C2007A978
:10397000334603C9BDF8182002F0F4FC0FB0F0BDC7
:10398000834A934200F0AC8002F5102293425DD14D
:10399000D126C2790389B0F80550CDE903327D4ABA
:1039A0000320CDE90125774B754A7749009603F04E
:1039B000A9FD242D00F044812B2D00F06F811D2DD9
:1039C000DCD1E379012B00F0AA81022BD6D101F0E2
:1039D0004DFB01238376D1E7A2F510229342CDD18E
:1039E00043246D490320674B654A01910094664961
:1039F00003F088FD002109AB084607AA15F004F87A
:103A00000446002832D0654D654928680BF0F8FA65
:103A1000644928680BF0F4FA05F0D8FC05F0D8FCEE
:103A2000614847230090564A604928680BF0E8FA3D
:103A30005F4923465F4A28680BF0E2FA204605F00A
:103A4000F3FC5D4928680BF0DBFAFEE7A2F1827215
:103A5000934293D1B0F80930B0F80720B0F80510C0
:103A600000790FB0BDE8F04001F038BB534D284657
:103A700014F08AFE0446002840F0ED80504E514874
:103A8000314601F0ABFF21464E4B3278287814F0D6
:103A9000B5FE0446002800F00C81404D40492868DE
:103AA0000BF0AEFA3F4928680BF0AAFA05F08EFC3D
:103AB00005F08EFC3C4852230090314A3B4928686F
:103AC0000BF09EFA3A4923463A4A28680BF098FAD6
:103AD000204605F0A9FC384928680BF091FAFEE76A
:103AE00040680FB0BDE8F04001F0F6BB807901F00E
:103AF0002FFB324D324A0021324B1278287814F0D5
:103B00007DFE0446002861D0244D254928680BF02D
:103B100077FA244928680BF073FA05F057FC05F092
:103B200057FC21488E230090154A204928680BF045
:103B300067FA1F4923461F4A28680BF061FA20469E
:103B400005F072FC1C4928680BF05AFAFEE70026C3
:103B50001D4D2846C5E90066AE60AE8105F058F8F7
:103B60002B460E2231460B2014F0E0FE207B0FB0D6
:103B7000BDE8F04001F08EBAA000060140D4030871
:103B8000C0D3030884D40308CCD3030814E5030886
:103B9000A000010350D40308D0D30308AC2B0020AD
:103BA000F8D30308FCD3030874D4030804D403082F
:103BB00014D4030810D403082CD40308600F002089
:103BC00033430020F01F0020E01F0020022128784E
:103BD00014F02AFE044600283FF4D0AE764D774913
:103BE00028680BF00DFA764928680BF009FA05F001
:103BF000EDFB05F0EDFB734892230090724A734988
:103C000028680BF0FDF972492346724A28680BF0C8
:103C1000F7F9204605F008FC6F4928680BF0F0F929
:103C2000FEE7B4F805302279ADF81D308DF81C2080
:103C300007A9334603C9BDF8182002F093F99DE6A1
:103C4000E379012B73D0022B7FF498AE01F00EFACA
:103C50000123037692E6584D584928680BF0D0F9B5
:103C6000574928680BF0CCF905F0B0FB05F0B0FB24
:103C700054484B230090544A544928680BF0C0F92B
:103C800053492346534A28680BF0BAF9204605F0F9
:103C9000CBFB514928680BF0B3F9FEE7E379012B20
:103CA00035D0022B7FF46AAE01F0E0F901234376B0
:103CB00064E64FF4C862009003461146287814F079
:103CC0007BFD044600283AD03B4D3C4928680BF068
:103CD00097F93B4928680BF093F905F077FB05F05D
:103CE00077FB38485B230090374A384928680BF047
:103CF00087F937492346374A28680BF081F920466F
:103D000005F092FB344928680BF07AF9FEE7238925
:103D1000002B43D00FB0BDE8F04002F0BDBA2389BC
:103D2000002B40D00FB0BDE8F04001F06DBF2389FB
:103D3000002B2ED00FB0BDE8F04002F06FB828780D
:103D4000022114F071FD0546002831D01A4C1B49A0
:103D500020680BF055F91A4920680BF051F905F06D
:103D600035FB05F035FB17485F230090164A1749CD
:103D700020680BF045F916492B46164A20680BF0CF
:103D80003FF9284605F050FB134920680BF038F93D
:103D9000FEE70FB0BDE8F04002F046B80FB0BDE856
:103DA000F04002F07FBA0FB0BDE8F04001F032BF42
:103DB00001F04AFAE2E500BFAC2B0020F8D303087B
:103DC000FCD3030874D40308C0D3030804D4030845
:103DD00014D4030810D403082CD4030830B5C10749
:103DE000044683B01FD4A20729D4630733D4250720
:103DF0003DD4A00647D4610651D422065BD4E30526
:103E000065D4A5056FD4600579D4210500F18480BF
:103E1000E20300F18E80630300F19880002CC0F271
:103E2000A28003B030BD4625554A03200192554B70
:103E3000554A5649009503F065FBA207D5D54A259A
:103E4000534A504B019203204F4A5049009503F0CA
:103E500059FB6307CBD54E254E4A009501920320AE
:103E6000484B494A494903F04DFB2507C1D5522526
:103E7000494A03200192434B434A4449009503F0C9
:103E800041FBA006B7D55625444A4049019203207C
:103E90003C4B3D4A009503F035FB6106ADD55A25F4
:103EA0003F4A03200192374B374A3849009503F0C7
:103EB00029FB2206A3D55E253A4A324B0192032004
:103EC000314A3249009503F01DFBE30599D562257F
:103ED000354A0095019203202A4B2B4A2B4903F0C7
:103EE00011FBA5058FD56625304A03200192254B8D
:103EF000254A2649009503F005FB600585D56A250E
:103F00002B4A2249019203201E4B1F4A009503F0C1
:103F1000F9FA21057FF57CAF6E25264A0320019230
:103F2000184B194A1949009503F0ECFAE2037FF5A2
:103F300072AF7225204A134B01920320124A134993
:103F4000009503F0DFFA63037FF568AF76251B4A1F
:103F5000032001920B4B0C4A0C49009503F0D2FA56
:103F6000002CBFF65EAF7A24154903200191054B62
:103F7000054A0649009403F0C5FA03B030BD00BFFE
:103F8000A8D40308C8D6030894D40308A0D403080F
:103F9000C4D40308DCD40308F8D4030814D50308F8
:103FA00038D5030858D5030880D5030898D50308E9
:103FB000B0D50308C8D50308E0D50308F8D5030831
:103FC00018D6030810B5012184B02D2006F066FD37
:103FD000002340F2011E4FF0010C40F20B320E4C58
:103FE00069462046CDF80630CDF80230CDF80930CC
:103FF000ADF800E0ADF809208DF804C009F01AF81A
:1040000002214FF40032054B04F58054E161C3F8FE
:1040100084215A6004B010BD0080015A00E100E024
:1040200080B584B008F0B8FE494DAF27286008F08D
:10403000ADFE0CF0AFFB08F07FFE4FF47A700CF091
:1040400001F901213A2006F029FD00230422194636
:10405000022008F059FA002304220121022008F06E
:1040600053FA022100230846042208F04DFA0023E7
:1040700004220521022008F047FA002304221946F1
:10408000184608F041FA002304221846114608F0A9
:104090003BFA002304221846062108F035FA0023D3
:1040A00004221946012008F02FFA0DF055FE0020D9
:1040B0000DF054FE03F09CF9FF21002003F01AFCE0
:1040C000C721012003F016FCC721022003F012FCD7
:1040D0000721032003F00EFC0721042003F00AFC53
:1040E00003F0C4F90097B0271A4E1B4B0320CDE90B
:1040F00001361A4A1A4B1B4903F004FA2B68174A77
:104100000293194B1749032001930097144B03F0B6
:10411000F9F9164C2868FFF761FEFFF753FF3246A6
:104120003146134802F018FD04F06EFB04F0D6FC93
:1041300004F08CFC04F0BCFD204608F069FF20462A
:1041400008F066FF0CF034FB0BF03EFAF7E700BF17
:10415000142000203CD6030844D6030894D4030856
:10416000C0D60308A0D4030858D603080080015A1B
:1041700068D603082DE9F04397B03822002108A83B
:1041800028F00FF96A46382108A802F039FDF32417
:104190001E4A1F4F0192009406461E4B03201E4AE2
:1041A0001E4903F0AFF93C7824B101233B7017B0EE
:1041B000BDE8F083FA251A4B0320CDE90136164AF3
:1041C000144B1649009503F09DF904F03FFCAEB185
:1041D000DFF85090DFF8508007AD55F8041F4846CF
:1041E00003F04EF92246414605A820F04DF901346E
:1041F000294605A804F0F4FBA642EED104F0B8FC71
:1042000001233B7017B0BDE8F08300BF6CD60308F4
:1042100034430020ACD6030894D40308A0D4030888
:1042200080D603089CD60308A4D6030803681B4A5B
:1042300023F47F4323F00703934200D0704730B547
:10424000052200211620164B83B014F06FFB0446A4
:1042500008B903B030BD134D134928680AF0D0FEE9
:10426000124928680AF0CCFE05F0B0F805F0B0F865
:104270000F48592300900F4A0F4928680AF0C0FEE2
:104280000E4923460E4A28680AF0BAFE204605F079
:10429000CBF80C4928680AF0B3FEFEE7A000010045
:1042A000DCD60308AC2B0020F8D30308FCD30308AA
:1042B0000CD70308E4D6030804D4030814D4030875
:1042C00010D403082CD4030812F022BF08B50CF058
:1042D000B1FABDE8084014F0D9B800BF012070471A
:1042E00000B5C3B012F0A6FE24F0F0F910B943B047
:1042F0005DF804FBFFF7F2FF0028F8D001A825F0D5
:10430000E0FA0028F3D101A804F084FF01A804F02A
:10431000EBFD01A8FFF78AFF01A8FFF7E9FA43B018
:104320005DF804FB08B506F047FF06F0F1FE214AF0
:10433000136F23F0070343F00303136706F000FF36
:104340001D4B9B6A9B0702D401221C4B9A62194B9E
:104350000020D3F8202122F0030242F00202C3F829
:104360002021D3F8242122F0070242F00202C3F8F0
:104370002421D3F8402122F0030242F00202C3F8C4
:104380004021D3F8602122F0030242F00202C3F878
:104390006021D3F8402222F0030242F00202C3F867
:1043A0004022D3F8002222F0070242F00202C3F8B2
:1043B000002208BD0080005000C0005000E0005006
:1043C00008B50AF067FD0AF0E3FC0AF049FD0AF0BF
:1043D00007FDFFF7A7FF0AF0EFFC05F089FA05F0EB
:1043E00021FDBDE808400AF0F3BF00BF08B505F0A5
:1043F000A5FCBDE8084000F06FB800BF08B50BF0A1
:1044000031FD0AF063FE09F047FE0AF069FE0CF088
:10441000B7FF0AF059F8BDE808400AF03DBE00BFFA
:1044200008B508F041FF08F05DFF08F06FFFFFF7E7
:104430004DFFBDE8084008F053BF00BF04F0CABFFD
:10444000704700BF05F0FCB8FFF74ABF704700BFD8
:10445000012070470120704738B505F033F9054653
:1044600012F010FE041E18BF2C46FFF7F1FF0028C3
:1044700018BF204638BD00BF38B50BF0FBF9044625
:1044800005F016F9042817D0022808BF012424F0EB
:104490005FF904284FF0000514D0022808BF01245A
:1044A000FFF7D8FF042813D0022808BF0124002DED
:1044B00018BF0024204638BD24F04AF904284FF0E4
:1044C0000105EAD1FFF7C6FF04284FF00105EBD143
:1044D0000024204638BD00BF024B0349186805F090
:1044E00023BF00BF040C0020E40B0020014B187810
:1044F000704700BF3543002010B53924084982B009
:1045000001910420074B084A0849009402F0FAFF81
:104510000022074B1A7002B0BDE8104000F0F0B85E
:1045200078DB0308B4DB03085CDB030874DB0308F7
:104530003543002010B55124084982B00420084BAF
:10454000084A01910094084902F0DCFF00F0FEF9EE
:104550000022064B1A7002B010BD00BF84DB0308B6
:10456000A8DB03085CDB030874DB03083543002089
:1045700010B56724084982B00420084B084A01910D
:104580000094084902F0BEFF00F0C2FA0122064B77
:104590001A7002B010BD00BF90DB03089CDB03085B
:1045A0005CDB030874DB03083543002000F09EB891
:1045B00038B50446054D284600F07EF824B118B100
:1045C000D5E90023C4E9002338BD00BFE01A00206C
:1045D00010B5DF24074982B001910420064B074A39
:1045E0000749009402F08EFF022002B0BDE810409F
:1045F00000F0E0BDE0DB030818DE0308C0DB0308C1
:10460000D8DB030810B5EF24074982B001910420DC
:10461000064B074A0749009402F074FF032002B0DA
:10462000BDE8104000F0C6BD00DC0308F8DD03085B
:10463000C0DB0308D8DB0308052000F0BBBD00BFCA
:1046400010B54FF4BE74144882B01449144B154A87
:1046500001900094042002F055FF0422124B0A201E
:104660001A670BF02DFE00230146CDE900330F4AF7
:104670000F480BF031FC08B902B010BD4FF4C27402
:104680000C4901200191064B064A0449009402F0AE
:1046900039FF02B010BD00BF20DC0308D8DB0308DF
:1046A0008CDD0308C0DB030800D003500546010879
:1046B0009C2000203CDC030898B1012310B582B097
:1046C000044669461A46084804F056FB10B9002013
:1046D00002B010BD0120DDE90023C4E9002302B0CF
:1046E00010BD0020704700BFE020002008B503483F
:1046F00004F0A4FB003818BF012008BDE020002012
:104700002DE9F0434FF48175DFF8F890DFF8F88079
:10471000304F314B85B042463946019300954B46A8
:10472000042002F0EFFE042201231146022007F0CC
:10473000EBFE012304220621022007F0E5FE0123FF
:1047400004221846022107F0DFFE00230222184649
:10475000052107F0D9FE1023204C002204F58055D6
:10476000C5F8A0301E49052005F002FB39464FF47C
:104770008A7700971B4F4B4601971B4F4246386084
:104780000290042002F0BEFE1849032000F01AFD3A
:104790001749022000F016FD1649052000F012FD11
:1047A000082215491123154804F0D6FA402604239F
:1047B00004F50054C4F8A060012023670BF042FD0B
:1047C000C5F8A06000F0B8FD0D4B186005B0BDE85D
:1047D000F08300BFD8DB030860DC030800C003508F
:1047E000394601086CDC0308F4200020814D0108E3
:1047F000414601080D480108E81A0020E020002089
:10480000DC200020ECDD0308C0DB03082DE9F041CB
:1048100040F2F9170024404A84B0404D0420404B38
:10482000404901920097404A02F06CFE2A682346F4
:1048300005212046CDE9004407F0EAFD3B4E2B68F8
:10484000C6F82034FDF788FC394B1B88142B0AD09E
:10485000012300202A680521CDE9000307F0D8FDD7
:1048600004B0BDE8F081334B1A88032AF0D1102739
:104870000120DFF8D4801C800BF0A6FF2E4B042211
:1048800003932E4C03A9D8F80000C6F8A07005F0D9
:1048900089FF01200BF098FF0120C4F8A0700BF0F5
:1048A00093FF274B0422039303A9D8F80000C6F80E
:1048B000A07005F077FF01200BF086FF0120C4F8FF
:1048C000A0700BF081FF48F261030422039303A957
:1048D000D8F80000C6F8A07005F064FF01200BF0C6
:1048E00073FF0120C4F8A0700BF06EFF154B04227B
:1048F000039303A9D8F80000C6F8A07005F052FF92
:1049000001200BF061FF0120C4F8A0700BF05CFFE8
:10491000042333679CE700BFE0DC0308F420002099
:1049200064DD0308D8DB0308C0DB030800E00350A4
:10493000D8420020D64200203A80160000D0035012
:10494000508002003A809600040C002010B50D48FB
:1049500082B00BF085FB0C480BF082FB00230B4C64
:10496000184622680521CDE9003307F051FD4021AA
:1049700004222068064BC3F82004C3F8A0101A676D
:1049800002B010BDBC2000209C200020F42000209C
:1049900000E003502DE9F041012098B010240BF005
:1049A00013FF0723524D534A05F50058524FADF8F7
:1049B000243008920120C8F8A0400BF005FF08A998
:1049C0000622386805F5805505F0ECFE01200BF055
:1049D000FBFE0120C5F8A0400BF0F6FE49F2016392
:1049E00002934AF25003ADF82030444B0026009366
:1049F0006B46ADF80C60019607CB1B88CDF8220002
:104A0000ADF82E30CDF82610CDF82A208DF8306084
:104A10000120C8F8A0400BF0D7FE08A91122386881
:104A200005F0C0FE01200BF0CFFE354BC5F8A040CD
:104A3000012008938DF82460C8F8A0400BF0C4FE54
:104A400008A90522386805F0ADFE01200BF0BCFE78
:104A50002C4BC5F8A04001200893C8F8A0400BF0EB
:104A6000B3FE08A90422386805F09CFE01200BF073
:104A7000ABFE5423C5F8A040ADF82430224B0120F2
:104A80000893C8F8A0400BF09FFE08A906223868DA
:104A900005F088FE01200BF097FE48F20503C5F8EB
:104AA000A04001200893C8F8A0400BF08DFE08A993
:104AB0000422386805F076FE02200BF085FE134BC9
:104AC000C5F8A040012008938DF82460C8F8A040E4
:104AD0000BF07AFE052208A9386805F063FE012074
:104AE0000BF072FEC5F8A04018B0BDE8F08100BF21
:104AF00000C003503AA0160B040C0020030000393C
:104B000061A00F013A80960001A0610017A0010189
:104B100070B540F2931404252D4984B02D4A2846DF
:104B20002D4B019100942D4902F0ECFC2C4B0A20F6
:104B30001D670BF087FB00F0FFFB2A4B1C68041B72
:104B4000B4F57A7F29D300240125274B05211A6863
:104B500020462B46CDE9004507F05AFC42F2107082
:104B60000BF0AEFB23460146CDE900441F4A204826
:104B70000BF0E4F920B904B0BDE87040FFF70ABFBC
:104B80004FF4D5741B4928460191134B114A134920
:104B9000009402F0B7FC04B070BD4FF4D076164A12
:104BA0002846CDE901240C4B0A4A0C49009602F034
:104BB000A9FC1248124B04FB00F000F5742000F52C
:104BC0001070A3FB0030C0F38F100BF03BFBBAE773
:104BD000F8DC0308C0DB03087CDD0308D8DB03082E
:104BE00000D00350DC200020F4200020D145010833
:104BF000BC20002018DD030808DD030818FCFFFFB7
:104C0000D34D62102DE9F041012098B010240BF033
:104C1000DBFD0723524D534A05F50058524FADF8BE
:104C2000243008920120C8F8A0400BF0CDFD08A95F
:104C30000622386805F5805505F0B4FD01200BF01B
:104C4000C3FD0120C5F8A0400BF0BEFD49F2016391
:104C500002934AF25003ADF82030444B00260093F3
:104C60006B46ADF80C60019607CB1B88CDF822008F
:104C7000ADF82E30CDF82610CDF82A208DF8306012
:104C80000120C8F8A0400BF09FFD08A91122386848
:104C900005F088FD01200BF097FD354BC5F8A040CD
:104CA000012008938DF82460C8F8A0400BF08CFD1B
:104CB00008A90522386805F075FD01200BF084FD78
:104CC0002C4BC5F8A04001200893C8F8A0400BF079
:104CD0007BFD08A90422386805F064FD01200BF073
:104CE00073FD5423C5F8A040ADF82430224B0120B9
:104CF0000893C8F8A0400BF067FD08A906223868A1
:104D000005F050FD01200BF05FFD48F20503C5F8EA
:104D1000A04001200893C8F8A0400BF055FD08A959
:104D20000422386805F03EFD01200BF04DFD134BC9
:104D3000C5F8A040012008938DF82460C8F8A04071
:104D40000BF042FD052208A9386805F02BFD012073
:104D50000BF03AFDC5F8A04018B0BDE8F08100BFE7
:104D600000C003503AA0160B040C002003000039C9
:104D700061A00D013A80960001A0610017A0010119
:104D800010B54FF4B4740D4982B004200C4B0D4A99
:104D9000019100940C4902F0B5FBFFF733FF0123AA
:104DA00000200A4A0A491268C1F820240521CDE9E9
:104DB000000307F02DFB02B010BD00BF44DD030867
:104DC000A8DD0308C0DB0308D8DB0308F4200020BB
:104DD00000E00350F0B53B4D87B06B6903F4A0735E
:104DE000B3F5807F42D19027294604A807F0FCFE46
:104DF000049C354A0420CDE90124344B344A35491A
:104E0000009702F07FFB40F2BA43022104FB03F358
:104E1000314A324E82FB03421A44DB17C3EBE223D2
:104E20008B4033802846E96007F038FE00212A20B5
:104E300005F034FE40F6E44240F6282133889A42D9
:104E400028BF1A468B422AD9254BA2F62822A3FB5B
:104E50000213D21A03EB5203C3F38703214A2248F9
:104E6000137007B0BDE8F0400BF0FAB8F2241F4908
:104E7000174A0191012017491D4B009402F042FB93
:104E800002232846EB6007F009FE2A20002105F0E6
:104E900005FE154807B0BDE8F0400BF0E1B8B3F5EA
:104EA000166F07D9134BA2F51662A3FB0232C2F3A9
:104EB0000713D3E740F26C7293428CBF0123642343
:104EC000CCE700BF0040005A60DE030848DF03085B
:104ED00038DE030854DE030881000880500F0020EC
:104EE00025499224610F00200421002068DE030878
:104EF00008DF0308A38B2EBA2DE9F0411C4C82B0C9
:104F000001212A2005F0CAFD204607F0C7FD022135
:104F10004FF4B06006F0DEFB00222046154907F092
:104F200021FE0023064640F2BA410222124DDFF86C
:104F30005480E9606A8064211A460096204688F809
:104F4000056007F02BFE41F201030C4F41462A4653
:104F5000A86020463B8007F035FB3A4620460849CA
:104F600007F062FD0123E36002B0BDE8F08100BFFD
:104F70000040005A404B4C00140C0020080C00204C
:104F80000C0C0020F820002030B5D025074C084A32
:104F9000217885B0CDE901210320064B064A074957
:104FA000009502F0AFFA207805B030BD610F002007
:104FB0008CDE030824DF030838DE030854DE030810
:104FC0001E4B1F4A196812880844B2F57A6F1860A0
:104FD00006D21C4A1C4B02FB00F0B3EBF00F1DD3B2
:104FE00010B540F21B14194884B0194B194A1A49DC
:104FF00001900094032002F085FAFFF77DFF0A205C
:105000000BF05EF900230146144ACDE90033144841
:105010000AF062FF024610B904B010BD704740F2BA
:1050200023141049029201910120094B094A0A49AF
:10503000009402F067FA04B010BD00BF24210020E4
:10504000500F002021436587AC682400A0DE0308D0
:10505000ECDE030838DE030854DE0308D54D0108F2
:1050600004210020C8DE030804F062BC0048704739
:10507000701B0020034B93F83000B0FA80F0400919
:10508000704700BF701B0020014B1878704700BFAD
:10509000701B002030B50446BB250B4A85B00B4978
:1050A000019203200A4B0B4A0095029402F02AFA5F
:1050B00040F20112084B20461A83FDF711F905B0A2
:1050C000BDE8304000F06CBD90DF030884DF0308CA
:1050D000B4E0030868DF0308701B00202DE9F043EB
:1050E0000446894690461F46D625144B87B0019347
:1050F0000320134BCDE90249CDE90487114A124937
:10510000009502F0FFF90023104E3578708803B93E
:1051100015B907B0BDE8F083A042FAD12046A6F841
:105120000490A6F80680378100F0AAFC18B101238C
:1051300073700123E9E700F033FDFAE7B4DF0308F9
:105140008CE0030868DF030884DF0308701B00207D
:1051500030B50446FD25124A85B00320114B01925B
:105160001149124A0095029402F0CCF9104A1078C5
:10517000538840B90023D37600F0E4FB05B0BDE8C6
:10518000304000F001BD9C42F4D1002100240025F4
:105190001180C2E90445C2F80210C2F80610E9E71E
:1051A000E8DF030868E0030884DF030868DF03081A
:1051B000701B002008B513F0CBFAB0FA80F040095C
:1051C00008BD00BF70B5012500230646184A84B00B
:1051D000854001E0202B0CD052F8334002EBC30C89
:1051E000AC4203F10103F5D10120CCF8041004B066
:1051F00070BD00230F4852F8334002EBC30C14B9C2
:1052000050F833408CB10133202BF4D140F2871495
:10521000094901200191094B094A0A490296009463
:1052200002F070F9002004B070BD42F83350DBE7A3
:10523000482100204C21002010E003085CE0030816
:1052400068DF030884DF03081C4B0522002110B52A
:10525000182013F06BFB38220021194827F0A1F821
:105260000022184B03F58071C3E9002208338B42FA
:10527000FAD115490120FFF7A5FF14490B20FFF7CC
:10528000A1FF13490C20FFF79DFF12490D20FFF7E6
:1052900099FF01F0F9FB0123094C84F8303000F04C
:1052A000DFFB94F83030837000F0DEFB02F0F4FD99
:1052B00000F04EFBBDE81040FFF71EB93CD60308D6
:1052C000701B002048210020BD5A010835630108E9
:1052D0002563010861630108012130B5114B0446C3
:1052E00085B003F5807C814002E00833634509D036
:1052F0001A688A42F9D15A68002AF6D090470120EC
:1053000005B030BD4FF4CF75074902200191074B1E
:10531000074A08490294009502F0F4F8002005B00D
:1053200030BD00BF4821002028E003084CE00308FE
:1053300068DF030884DF030800B583B00AF05CFF70
:105340006A460BF019F8009803B05DF804FB00BF43
:1053500000B54FF47A7083B00AF0B2FF0023014623
:10536000CDE90033034A04480AF0AAFE03B05DF811
:1053700004FB00BF695001082821002010B540F24D
:10538000CB14084982B001910420074B074A084911
:10539000009402F0B7F8082002B0BDE81040FFF713
:1053A00009BF00BF0CE1030878E40308D8E0030854
:1053B000F8E0030810B54FF4FF74084982B001917A
:1053C0000420074B074A0849009402F09BF8092083
:1053D00002B0BDE81040FFF7EDBE00BF2CE10308AE
:1053E0001CE40308D8E00308F8E0030810B540F215
:1053F000BD24084982B001910420074B074A08499F
:10540000009402F07FF80A2002B0BDE81040FFF7D8
:10541000D1BE00BF58E1030894E30308D8E00308B5
:10542000F8E0030830B583B0FFF724FEA0B91D4DA6
:1054300004462B78012B11D90520FFF7C1FD4EF64C
:1054400060200AF03DFF23460146CDE90044164A9C
:1054500016480AF041FDC0B903B030BD0120FFF786
:10546000AFFD2B784FF47A7001332B700AF028FFD0
:1054700023460146CDE900440B4A0C480AF02CFDB6
:105480000028E9D04FF4287401E040F2AB24084929
:1054900001200191074B084A0849009402F032F8B4
:1054A00003B030BD36430020ED53010848220020F0
:1054B0003CDC0308B4E30308D8E00308F8E0030881
:1054C000014B1870704700BF620F00202DE9F043B8
:1054D0001A4E1B4D1B4C87B0FFF768F8034604A813
:1054E0004BB3FFF765F830B3DDE904011EF000F8B7
:1054F0001DF0ECFC40F25517804689462B462246AB
:1055000011490320CDE902890196009701F0FAFFC5
:105510000E490F4A0B781D2B02EBC302DCD8DDE9E4
:10552000048901330B70C2E90089FFF73FF8034695
:1055300004A8002BD5D107B0BDE8F08378E10308BB
:10554000ECE40308D8E00308F8E003083743002040
:10555000A81B002030B585B0FFF7EEFE40F2DD3C21
:1055600030490A68821A624501DC05B030BD034645
:1055700001200B60FFF724FD2B4B1B88B3F5D25F96
:105580001DD2FFF777FD40F2AB140546274A0420F1
:10559000274B284901920295274A009401F0B2FF57
:1055A000FFF768FD0028E0D0FEF7A0FF002835D106
:1055B000FEF7DEFF05B0BDE83040FCF7B9BEFFF7EF
:1055C00059FD0028DDD04FF4D1741C481A4A1949FE
:1055D000174B01900094032001F094FFFEF7AAFFFF
:1055E000FFF744FD802380F83030FFF73FFD04468D
:1055F00000F036FA94F830304FF4F774837000F00E
:1056000033FA0F49042001910E4B0B4A09490094CB
:1056100001F078FF0C480AF023FDB2E7FFF756FFD0
:10562000C8E700BFA8220020DC42002070E2030887
:1056300098E40308F8E00308D8E0030830E2030820
:1056400058E2030848E403088822002010B54FF40C
:10565000ED74134882B0134B134A1449019000941F
:10566000042001F04FFF4FF47A700AF029FE002366
:105670000146CDE900330E4A0E480AF05FFC08B936
:1056800002B010BD40F2DF140B4901200191054B1F
:10569000054A0649009401F035FF02B010BD00BF75
:1056A00090E2030860E40308D8E00308F8E0030888
:1056B0007D530108882200203CDC030810B54FF41C
:1056C000F774084982B001910420074B074A084942
:1056D000009401F017FF074802B0BDE810400AF03F
:1056E000BFBC00BF58E2030848E40308D8E0030841
:1056F000F8E003088822002010B54FF40374144822
:1057000082B0144B144A154901900094032001F013
:10571000F9FE64200AF0D4FD00230146CDE90033F0
:105720000F4A10480AF0D8FB60B140F211240E492C
:1057300001200191074B084A0849009401F0E2FE5C
:1057400002B010BDFFF792FC0123C37602B010BD7A
:10575000A8E20308F8E30308D8E00308F8E0030828
:10576000B5530108682200203CDC03082DE9F04114
:105770008AB0FFF77BFC044640F23325E47E674E97
:105780000320674B674A68490294CDE9005601F04F
:10579000B9FEFFF76BFCC47E14B90AB0BDE8F08116
:1057A000FFF764FCB0F82280FFF760FC05464FF479
:1057B0000E762D8C5D4F5A4B5A4A5B490320039558
:1057C000CDE90178009601F09DFEFFF74FFC458C76
:1057D000FFF74CFC038CAB4233D9FFF747FC06AE16
:1057E0003146808B02F06CFD0546002840F0818038
:1057F000FFF73CFC96E80C004FF01D0C243003C86A
:1058000004AF04908DF814108DF811C08DF812506B
:1058100097E8030000F0B0FA00F002FA002852D036
:10582000FFF732FC00284ED0002C47D0FFF71EFCBB
:10583000438C01334384FFF719FC838B013383834B
:105840003CE04FF418753A48364A354B36490190DA
:105850000095032001F056FEAA2306AC0E21204637
:105860008DF8183000F0B6F9ADF82600FFF7FEFB12
:1058700094E80C0000261D27243003C88DF814106E
:105880000AA9049011E903008DE803008DF8117056
:105890008DF8126004AD95E8030000F0C7F90446E6
:1058A000002833D040F272252249012001911C4B7F
:1058B0001C4A1D490294009501F024FEFFF71CFFCD
:1058C0000AB0BDE8F08100F0ABF90446FFF7DCFB5D
:1058D00040F25B260546184A02200192104B114AFD
:1058E000114902940096039501F00CFE0AB0BDE840
:1058F000F08140F24B25114903200191084B094AE0
:1059000009490095002401F0FDFD85E70C480AF0E7
:10591000A7FBFFF7ABFBC4763FE700BFCCE2030871
:10592000D0E30308D8E00308F8E00308A8E9030877
:1059300024E3030838E303080CE30308F4E2030854
:105940006822002001480AF08BBB00BF68220020BB
:1059500010B5154984B00820FFF734FC134909201D
:10596000FFF730FC12490A20FFF72CFC4FF4FA70C5
:105970000AF0A6FC00230146CDE900330D4A0E488B
:105980000AF0AAFA08B904B010BD024640F2D524C4
:105990000A49029201910120094B0A4A0A490094DE
:1059A00001F0B0FD04B010BD555501086D57010858
:1059B00025540108ED5301084822002058E303084C
:1059C0007CE30308D8E00308F8E0030803461A0A5A
:1059D00002200B704A7070470088704760B370B542
:1059E000044616480E4603F013F90923144A23719E
:1059F000226040F262334FF6037240F2033E41F6FA
:105A00001F0C0E4DA4F8132003CDC4F80500C4F8F4
:105A100009102988A4F81530A4F80D101723224680
:105A200008210848A4F80FE0A4F811C002F036F8E5
:105A30000EB11723337070BD704700BFAC22002039
:105A40000201060B10E5030800487047BF22002042
:105A50000B2200212720014B12F068BFBF2200203B
:105A600000487047BA220020052200212220014B65
:105A700012F05CBFBA2200200120FFF79BBB00BFE1
:105A800010B50446FFF7F2FA037823B1FFF7EEFAF8
:105A90004388A34201D0012010BDFFF7E7FA8388B5
:105AA000472B09D9FFF7E2FA8388642B04D8FFF764
:105AB000DDFAC388072BEED0002010BD70B584B08E
:105AC00003F09AFB70B90546FFF7D0FA04782CB1C1
:105AD000FFF7CCFA4088FFF7D3FF28B115B1234B6D
:105AE0001B7843BB04B070BDFFF7C0FAD0E90423B4
:105AF000052A73F1000313D3FFF7B8FA4FF6FF75C9
:105B00004FF4FA768078072364224821CDE90155C5
:105B1000009612F09DFEE0B92546002DE2D0DEE7AA
:105B2000FFF7A4FAD0E90432013342F1000225461E
:105B3000C0E90432F1E74FF47A700AF0C1FB0023A8
:105B40000146CDE900330A4A0A480AF0B9FA04B01E
:105B500070BD6A25084A0095CDE90120074B012058
:105B6000074A084901F0CEFC2546D6E73943002014
:105B7000795A01081C23002060E5030888E5030822
:105B80001CE5030844E5030808B503480AF068FA71
:105B90000022024B1A7008BD1C230020394300204C
:105BA00000B54FF47A7083B00AF08AFB00230146F7
:105BB000CDE90033044A05480AF08EF90122044B6E
:105BC0001A7003B05DF804FB795A01081C23002009
:105BD0003943002091B102464FF6FF7010B4094CD2
:105BE000114412F8013B4340DBB234F813308A42CF
:105BF00083EA1020F5D15DF8044B70474FF6FF7033
:105C0000704700BFA8E503080122014B1A707047D6
:105C10003A4300200022014B1A7070473A4300209B
:105C2000014B1878704700BF3A43002082B0F0B5AE
:105C30008FB02B4C0DF1180C8CE8030014A981E8EF
:105C40000C0023789DF81850BDF819607BB96E24BC
:105C5000244901910120244B244A2549009401F054
:105C600051FC01200FB0BDE8F04002B07047FFF7D3
:105C70000BFA48B92378002BE9D0FFF705FA002882
:105C8000EFD172241B49E4E714981599169A179BD3
:105C900009AC0FC410231848194609AA01F0FEFEEA
:105CA00010223146284609AB12F098FE044668B12E
:105CB0006927124901200191CDE902450A4B0B4A9F
:105CC0000B490496009701F01DFCCAE7FFF7CEF9D7
:105CD000C476FFF7CBF9034620465C76C2E700BFE7
:105CE0003A43002000E2030868E80308A8E7030835
:105CF000C0E7030810E80308CCE70308DCE7030863
:105D000070B582B002AB144603E9030012B9104625
:105D100002B070BD0D239DF800601370911C567089
:105D2000BDF80100FFF752FE05460235EDB26119DC
:105D3000BDF80300FFF74AFE432E0CBF802300236B
:105D40000544EDB263550135EDB261190020FFF74E
:105D50003DFE0146294454FA81F1BDF80500FFF7E4
:105D600035FE0E212046FFF735FF04F10E01FFF747
:105D70002DFE102002B070BD30B58FB006AC84E8A7
:105D800003001F4904AC097884E80C0011B9012014
:105D90000FB030BDFFF778F90028F8D094E8030081
:105DA00009AAFFF7ADFF044608212346154809AAB2
:105DB00001F074FE2246BDF819109DF8180009ABD9
:105DC00012F00CFE044658B1C3250F490120019181
:105DD0000E4B0F4A0F490294009501F093FBD6E752
:105DE000BD250D4A094B03200A4901920095084A36
:105DF00001F088FBFFF73AF9034620465C76C7E7D7
:105E00003A430020CCE703082CE8030858E80308CD
:105E1000A8E70308C0E7030824E803080122014BB0
:105E20001A7070473B4300200022014B1A707047E4
:105E30003B43002082B070B592B004AC84E803000C
:105E4000DCB2042C1546179335D0022306269DF8A4
:105E50005E200DF15F010DF11B00ADF818608DF8AB
:105E60001A3026F0F2FA8DF81B408DF81C500025F0
:105E7000BDF81B20334C0423ADF82E2008213248F6
:105E80000BAA8DF82C608DF82D5001F007FE2378B9
:105E90003BBBC1242D4902202D4B2E4A0191009479
:105EA0002D4901F02FFBFFF7EFF820B312B0BDE84A
:105EB000704002B07047022305269DF85E200DF168
:105EC0005F010DF11B00ADF818608DF81A3026F057
:105ED000BCFA012D03D08DF81B408DF81C5005260F
:105EE000C5E7FFF7D1F8A8B92378002BD1D0FFF789
:105EF000CBF80028DAD1C524184902200191144BAF
:105F0000144A1549009401F0FDFA12B0BDE8704042
:105F100002B070470422BDF811109DF810000BABC1
:105F200012F05CFD02460028C0D0BA240C4902924F
:105F300001910120064B074A0749009401F0E2FA5B
:105F4000B4E700BF3B43002080E80308B0E8030843
:105F50002CEA03088CE80308A4E80308D0E8030847
:105F60002CE80308F0B591B004AE86E803000021E8
:105F7000144612F0FF021D468DF81A1012D01B783D
:105F8000012A8DF818300DD06B78022A8DF819305F
:105F900008D0023AD2B2A91C0DF11B008DF81A20CC
:105FA00026F053FA23462A461021AF4801F076FD29
:105FB0009DF81830042B8DF82C302AD025D8032BCF
:105FC00015D1FFF7BFFC0124EC4610AB13E90F001D
:105FD000ACE80700190C2CF8023B8CF800102246A4
:105FE00096E803000B9BFFF725FF11B0F0BD83B9C6
:105FF00040F29D149D4A0094019202209C4B9D4AC0
:106000009D4901F07FFA0224DEE7622BF0D10124E2
:10601000DAE79DF81930E3B1012C1AD9062B36D8EE
:106020009A1E022A22D90024012B40F0F380002579
:106030009DF81A30002B4CD040F259148F4A00942E
:10604000019202208A4B8B4A8B4901F05BFA0524AE
:10605000BAE74FF49B748A4A009401920220844B61
:10606000844A854901F04EFA0324ADE79DF81B30C0
:10607000012B19D040F24B14824A00940192022065
:106080007B4B7C4A7C4901F03DFA09249CE740F2B5
:106090003F147D4A009401920220754B754A76495F
:1060A00001F030FA04248FE707A8FFF795FC9DF86C
:1060B00019300446042BB7D10DF11E00FFF78CFCFC
:1060C0009DF819300546012BB2D0042B01D1844232
:1060D000B2D82B464FF4AF776C4ACDE90243019218
:1060E00000970320624B634A634901F00BFA9DF865
:1060F000197001F05FFE002800F081807B1E052BE7
:106100007DD8DFE803F0035F54036C41AC4276D8DE
:1061100001F050FE84426ED201F04CFE431E9D42BF
:1061200000F29C80FEF7A2FFC583FEF79FFF8483E9
:10613000FEF79CFFC48BFEF799FF858BFEF796FF59
:10614000631C5B1B03849DF81830012B72D0042B59
:106150007FF45DAF01F02EFE0225044640F2771772
:106160004B4B8DF82E508DF82F40C4F30725A4B269
:10617000019303203E4B3F4A3F49009702948DF81C
:10618000305001F0BFF942E701F014FE0446FEF77B
:106190006DFF013C8483FEF769FF0446FEF766FF4E
:1061A000A38BC383FEF762FF01230384CBE701F0D7
:1061B00001FE84421FD201F0FDFD0546FEF756FFA9
:1061C000013DB1E701F0F6FD431E9C4241D8FEF7C8
:1061D0004DFFC483FEF74AFF00238383A8E7FEF741
:1061E00045FF00248483FEF741FFC483FEF73EFF92
:1061F00001230384A7E7FEF739FF002202849DF8FC
:106200001830042B09D1002202238DF83020ADF87C
:106210002E30FCE600231D465CE74FF4C6741D4A91
:10622000009401920220124B124A134901F06AF9BC
:106230000624C9E6FEF71AFF00224284FEF716FF85
:10624000034696E80300586283F82810FFF754FAD3
:10625000CBE601F0AFFD441EA4B2B8E701F0AAFD01
:10626000451EADB25EE700BFE4E80308F0E90308AD
:1062700018EA03088CE80308A4E8030870E9030897
:10628000F0E8030844E9030818E9030898E903085B
:10629000B0E90308C8E903080122014B1A707047EE
:1062A0003D4300200022014B1A7070473D430020FF
:1062B000844638B5084689B39CF80030032B0B7030
:1062C00029D0062B27D0602B25D003210C469CF823
:1062D000013043709CF8023083709CF817304518E9
:1062E0008BB1002322460CEB030494F803E0013346
:1062F00000F802E0541C9CF81720DBB29A42E4B28A
:10630000F0D821460519FFF765FC2946FFF75EFB2B
:106310002044C0B238BD01210C46DEE70D460C46D4
:10632000F1E700BF08B5FFF7C9F9BDE8084002F082
:10633000F5B900BF10B5FFF789F901F015FDFEF7BB
:1063400095FE002380F83030FEF790FE0446FFF7FC
:1063500087FB94F830308370BDE81040FFF784BBB2
:10636000704700BF2DE9F0439BB004AC12F0FF056D
:1063700016461F4684E8030024D1FF264FF48D748F
:10638000134608213A46854801F088FB844A854B2C
:1063900001920320844A85490296009401F0B2F8E4
:1063A0004FF61C7202238DF83350ADF81C208DF887
:1063B0001E30FEF7CDFF01230DF1340913AD8DF82A
:1063C0001E3043E0012D1C7800F002810821734843
:1063D00003F1010813463A4601F060FB4FF48D7358
:1063E00000936F4B032001936F4A6E4B6F490294E9
:1063F00001F088F81C238DF81C3002238DF81E3024
:106400000023013D1D2CEDB28DF81D408DF8333079
:1064100048D8C4B1013C1C2C15D8DFE804F0BB916E
:10642000141114141414141414141414141414142F
:10643000141414141414148379149B004FF00008DE
:106440000C2E00F280810DF1340913AD4C460DF194
:106450001C0CBCE80F000FC49CE8030084E8030098
:10646000294648469DF81070BDF81180FFF720FFBF
:1064700004464F4E23462A4608214E4801F00EFBA3
:10648000337863BBCA244C4902204C4B464A0191E5
:106490000094464901F036F8FEF7F6FD58B31BB0FC
:1064A000BDE8F083FD2C00F0318110D9FE2C80D1A5
:1064B00008234349434A09681268CDF81F10CDF8F4
:1064C00023200DF1340913AD8DF83330BEE7612C74
:1064D00000F07F81622CB6D1042D54D8E6E0FEF79F
:1064E000D3FD002840F0FC803378002BCAD0FEF7A3
:1064F000CBFD0028D3D1CE243349022001912F4B6C
:10650000294A2A49009400F0FDFF1BB0BDE8F08342
:1065100001230C200DF1340913AD8DF81C30FEF76A
:1065200049FE93E7FEF7A2FD90F82A30002B00F019
:10653000C58104230DF1340913AD8DF81E3085E7B4
:10654000032201230DF1340913AD8DF81E208DF8BF
:1065500033307BE7B81CFFF73FFA0446FFF780FAB9
:1065600040F26315A0F80340FFF77EFA174A0320B4
:10657000CDE901240B4B0C4A0C49009500F0C2FFF9
:10658000002C40F07F8103230DF1340913AD8DF809
:106590001E305BE7032DF6D80DE700BF40EA030885
:1065A00070EA030824EB03084CEA030864EA0308D2
:1065B0003D430020D8EA0308E4EA030818EB030887
:1065C000142000201020002000EB0308A8EA030894
:1065D0004FF48D75134608213A46C34801F05EFA20
:1065E000C24BC34ACDE901340320C24BC2490095D6
:1065F00000F088FF4FF000081C2202231D2C8DF8AC
:106600001D408DF81C208DF81E308DF8338043D846
:10661000002C3FF418AF013C1C2C3FF614AF01A333
:1066200053F824F0B7630108416501084764010885
:106630003D64010847640108476401084764010894
:10664000476401084764010847640108476401087A
:10665000476401084764010847640108476401086A
:10666000476401084764010847640108476401085A
:10667000476401084764010847640108476401084A
:106680004764010847640108256501081165010890
:106690004764010873670108FD2C37D03FF606AF49
:1066A000612C00F09980622C7FF4CDAE98F8003018
:1066B000A02B60D0A32B00F03781A42B7FF463AF15
:1066C0006021442205238D480DF13409CDF81F00C7
:1066D00013AD8DF81C108DF823208DF83330B5E6FE
:1066E00022462B464146384612F078F902460028E9
:1066F0003FF4D5AEC3248249029201910220814B1E
:106700007B4A7D49009400F0FDFEC8E60026B046B5
:106710000DF11F070DF1340913ADF4B220464A46BE
:1067200029468DF8338002F077F90136A40030B1A4
:106730000D9B052E47F8043B8DF83340EDD1012326
:106740008DF81C3082E60124D7F80510D7F8010037
:106750006D4B6E4A03C3B7F809100D2E19801470E3
:1067600000F0188103230DF1340913AD8DF81C30AE
:106770006CE60120EFE66022654C08A920888DF8C0
:106780001F308DF81C20FFF721F900220B20134643
:106790008DF83300E079A17860F30702207A61F385
:1067A000070360F30F2261F31742E1780DF134091A
:1067B00061F30F23617913AD61F31743A17A61F39C
:1067C0001F62CDF82620A27962F31F63CDF8223034
:1067D0003CE6102D3FF6D7AE98F80030042B00F0C1
:1067E000BB80FA3B042B3FF6CEAE01A252F823F059
:1067F0005B6801082D68010817680108B763010884
:106800000568010802F0D6F901230DF1340913AD32
:106810008DF81E301AE6012308EB03000DF1340950
:1068200013AD8DF81E30FFF7D7F80FE6012398F867
:1068300001008DF81E30FEF743FE98F80220354B1C
:106840000DF134091A6098F80310334B98F80420BE
:106850001960324B13AD1A60F8E50124FB790DF194
:10686000340900937B7A3A7AB97A0293BB7903911F
:1068700001927A793979788813AD8DF81E4000F04D
:106880009BF8E3E54FF4B67701262549194B184AE2
:10689000019103201849009700F034FE8DF81E6026
:1068A000FEF7E4FB80F83260FFF7DAF8A0F8034067
:1068B0000DF1340913ADFFF7D7F8C7E54FF4A9740C
:1068C0001849032001910B4B094A0B49009400F031
:1068D00019FE01230B200DF1340913AD8DF81E3084
:1068E000FEF768FCB2E500BF40EA030870EA03085F
:1068F0004CEA030824EB030864EA0308A4112233DA
:106900002CE8030818EB0308482300203C43002030
:1069100058230020402300203C2300204423002053
:10692000C0EA030888EA0308602104221E4C1F48BD
:106930008DF81F301E4B246800681B688DF82040BE
:106940008DF821000DF134098DF8223013AD8DF84A
:106950001C108DF8332079E501220023154C98F89E
:10696000011008F10400217098F802108DF81E2023
:10697000617098F80310E370A170FFF72DF80346DB
:1069800006212046A380FFF725F90DF1340913AD48
:10699000E0805BE54046FFF71FF80DF134098DF804
:1069A0001C4013AD52E500BF402300203C230020D3
:1069B00044230020342B00202DE9F04F8BB09DF8AC
:1069C0005040894690461E469DF858A007469DF8BF
:1069D00054B00994FFF738F80023264D80F807A03B
:1069E0002B60C5F80330099B05F8029CAB7005F8D5
:1069F000018C25F8047C6E7085F803B0FFF724F84D
:106A000035F8043C0380FFF71FF815F8023C83704B
:106A1000FFF71AF815F8013CC370FFF715F86B780B
:106A20000371FFF711F8AB784371FFF70DF8EB78BE
:106A30008371FFF70DF84521EA7835F8043C079299
:106A4000AA78029306926A780B4B0592019315F887
:106A5000012C15F8024C85F805A003200492009142
:106A6000064B074A0749039400F04CFD0BB0BDE804
:106A7000F08F00BF5C2300205CEB03088CEB030865
:106A800038EB030850EB030870B54FF4FA620026A8
:106A9000EC23144D25F8022C6E602E60EB712E72E3
:106AA000FEF7D2FFEB79AC1EC371FEF7CDFF35F8D0
:106AB000023C0380FEF7C8FFA3788370FEF7C4FF93
:106AC0006B78C370FEF7C0FFEB780371FEF7BCFF75
:106AD0002B794371FEF7B8FF6B798371FEF7B8FF2E
:106AE000304670BD5A23002010B51A4C84B023469E
:106AF0000DF1040C8CE807009CE8070003C34FEA83
:106B0000124C23F8022B83F800C0FEF79DFF637A36
:106B1000C371FEF799FF23880380FEF795FFA378E2
:106B20008370FEF791FFE378C370FEF78DFF637902
:106B30000371FEF789FFA3794371FEF785FFE379BF
:106B40008371FEF781FF637AC37104B0BDE8104022
:106B5000FEF77EBF5823002030B50D46144601468F
:106B600083B02022164825F036FC202229461548FD
:106B700025F031FC21462022134825F02CFC134C33
:106B80001348144B144920601B1A144A1448521A13
:106B9000144C0160144923600A6023B10122134B95
:106BA0001A7003B030BDAA24114901200191114B84
:106BB000114A1249009400F0A5FC03B030BD00BF9B
:106BC000DC240020B82400209424002090240020FD
:106BD00000000020C00A002000200108A84A040884
:106BE000882400208C240020842400203F4300209F
:106BF000D4EB0308B0F40308ACEB0308D0EB0308B4
:106C00002DE9F047314D324C324B95F80080074664
:106C100024681B68B8F1000F12D02F482F4D06686A
:106C2000D5E90505013886423D6043D82C4D2D68D5
:106C30002E4486423ED301293CD97860022000E0F0
:106C4000404604EB030C624529D2234B244C1B68BD
:106C5000266803F1040E1E441368DC071CD55C1E75
:106C6000A64519D8A64217D31F2815D833F8035CB8
:106C700033F8059C1B4B05EA030ABAF5784F10D090
:106C800005F47F45B5F58E4F06D1814204D902281F
:106C900014D047F82040013004326245DCD3BDE80F
:106CA000F08709EA0309B9F5704FEED00432624566
:106CB000D2D3F4E74FF000080120C2E7B8F1000F8B
:106CC000E7D07B68A342E4D1E6E700BF3E43002063
:106CD000902400208C24002088240020981C002070
:106CE0008424002000F8FFFF2DE9F0470446A6B0F9
:106CF0000021802206A825F054FB2246202106A868
:106D0000FFF77EFF58B3DFF890A0814654460E4649
:106D100006ADDFF8888005EB800755F8042B204688
:106D200041461DF0B1FBBD4204F1090404F8016CB9
:106D3000F3D14FF4CF741148114A124909EBC9033A
:106D4000CDE90220CDE9043A019101200E4B0F4A12
:106D50000F49009400F0D6FB26B0BDE8F08740F262
:106D6000A1140C4901200191074B084A08490094DD
:106D700000F0C8FB26B0BDE8F08700BF80EC030838
:106D8000DC24002088EC030880F40308ACEB030843
:106D9000D0EB0308C8EC03086423002078EC030858
:106DA0002DE9F047994B8AB01B78002B00F01E812B
:106DB000974E3378002B40F00A810127044640F2B9
:106DC0006D20944B0D460193934A3770934B944931
:106DD0000090384600F096FBB5224FF42076914B98
:106DE00038460493904B8E490393904B0092029344
:106DF0008F4B894A01938F4B00F084FB8E4B3846B2
:106E00000096854A86490193844B00F07BFB40F253
:106E10009E2C8A4AE4064FF00100804B8049019283
:106E2000CDF800C07C4A4CBF05F1200605F168068C
:106E300000F068FB40F2A92C814CD5F810E02968DD
:106E40006868AB68EA68D5F814A0DFF82892C4F83F
:106E500010E0DFF82482D5F818E0ED692160606069
:106E6000A360E260C4F814A0764FCDE90490CDE9A8
:106E70000281C4E906E574490793744BCDF800C05C
:106E8000012009920693644A644B08910197644972
:106E900000F038FB40F2AD2240F2B125E1690197E4
:106EA00009916B4901200891A1695C4B07916949DF
:106EB00006916169059168490491216900920391E5
:106EC0006649554A0291564900F01CFB644A01206C
:106ED000524B5349019200954F4A00F013FB4FF07B
:106EE000E022D2F8241D5F4B216293F8281084F829
:106EF0002410D2F8341DA16293F8291084F82C10C4
:106F0000D2F8381D588D2163D2F82C1DA0861A8E18
:106F10009B8F92B29BB28807C4E90E12236400F1E2
:106F2000C88094F83B30590649D594F824308BB189
:106F3000DA0700F140819F0700F142821D0700F14E
:106F40003182D80600F1E981990600F1D8811A064C
:106F500000F1CC8094F82C30A3B1DD0700F11D8145
:106F6000980700F10C81590700F1BB811A0700F165
:106F7000AA81DF0600F199819D0600F1888118063B
:106F800000F1A380A38EC3B194F83430DA0700F186
:106F900070819F0700F15F815D0700F14E81180746
:106FA00000F13D81D90600F12E8194F83530DA07E1
:106FB00000F11B819B0700F10C8194F83B301F0608
:106FC0005CD430460AB0BDE8F047FFF78DBE40F212
:106FD0006924254A2549114B0191CDE9022301205D
:106FE0000D4A0F49009400F08DFAFEE740F2672445
:106FF0001F4A1E49094B0191CDE902230120064A8F
:107000000749009400F07EFAFEE700BF3F430020EE
:107010003E43002000D40308ACEB03086CF40308E3
:10702000D0EB030894240020B8240020DC240020A6
:1070300038EC030894F403081CED030850ED030832
:10704000981C0020A0ED030890ED030894ED0308C0
:10705000CCED0308D0ED0308D4ED0308D8ED030808
:10706000DCED030800ED00E010ED0308F0EC030890
:10707000E8EC030898ED03089CED0308E36B002B94
:107080009FD094F83C30DD0741D4980769D4590764
:1070900059D41A0749D4DB0693D540F24624A64AB0
:1070A00001200192A54BA64AA649009400F02AFAB5
:1070B00087E74FF4EE75A44A012001929F4BA04A46
:1070C000A049009500F01EFA2BE799077FF55AAF0B
:1070D00040F21625226B9D4B0120CDE901329949E2
:1070E000964B974A009500F00DFA4BE79F073FF447
:1070F00031AF40F2F715A26A954B0120CDE901327C
:1071000090498E4B8E4A009500F0FCF922E740F240
:107110003A25904A894B01920120894A8949009574
:1071200000F0F0F994F83C30AFE740F243258A4A8A
:10713000824B01920120824A8249009500F0E2F9D7
:1071400094F83C30A7E74FF41075844A7B4B0192CA
:1071500001207B4A7B49009500F0D4F994F83C303B
:1071600097E740F23D257E4A744B01920120744A14
:107170007449009500F0C6F994F83C3087E740F276
:107180000125784A6D4B019201206D4A6D490095A9
:1071900000F0B8F994F82C30E5E64FF4FF75724A28
:1071A000664B01920120664A6649009500F0AAF9F3
:1071B00094F82C30D4E64FF4F1756C4A5F4B019291
:1071C00001205F4A5F49009500F09CF994F8243053
:1071D000B1E640F23225664A01200192574B584AE7
:1071E0005849009500F08EF9E7E640F22F25614AF4
:1071F000524B01920120524A5249009500F082F907
:1072000094F83530D6E640F22B255B4A01200192F6
:107210004A4B4B4A4B49009500F074F9C5E640F2E1
:107220002725564A454B01920120454A454900957C
:1072300000F068F994F83430B4E64FF40975504A18
:107240003E4B019201203E4A3E49009500F05AF91A
:1072500094F83430A3E640F221254A4A374B019294
:107260000120374A3749009500F04CF994F8343042
:1072700092E640F21E25444A304B01920120304AEA
:107280003049009500F03EF994F8343081E64FF42F
:1072900004753E4A294B01920120294A294900954B
:1072A00000F030F994F82C3069E640F20A25384AAB
:1072B000224B01920120224A2249009500F022F936
:1072C00094F82C3058E640F20725324A1B4B0192C5
:1072D00001201B4A1B49009500F014F994F82C304A
:1072E00047E64FF401752C4A144B01920120144AD1
:1072F0001449009500F006F994F82C3036E640F277
:10730000F115264A0D4B019201200D4A0D490095B9
:1073100000F0F8F894F8243019E640F2EB15204A12
:10732000064B01920120064A0649009500F0EAF852
:1073300094F8243008E600BF2CF403085CF403083A
:10734000ACEB0308D0EB03081CEE0308ECF00308D9
:1073500080EF03086CF30308FCF30308D0F3030881
:107360009CF30308ECEF0308B8EF030848EE0308AA
:1073700000F30308ACF2030850F2030808F2030814
:10738000A8F103085CF1030814F10308ACF003084A
:1073900084F003085CF0030824F0030834EF0308CA
:1073A00000EF03084FF4F4750C4A0D4B01920120D5
:1073B0000C4A0D49009500F0A5F894F82430C0E57A
:1073C00040F2E515094A064B01920120054A06499B
:1073D000009500F097F894F82430AFE5C8EE030864
:1073E0005CF40308ACEB0308D0EB03088CEE030855
:1073F00070B51C4C94F8F0300BB1002070BD00F05B
:1074000031FC0028FAD1012294F8F43084F8F220FB
:10741000F3B994F8F33013BB002501210522124B78
:10742000A4F8F35003F1A50684F8F510227018466D
:107430001F22002124F0B5FF03462133B34203F895
:10744000225C03F8025CF2D1012384F8F030D4E727
:1074500094F8F330002BDFD100F00EFCDCE700F0F5
:1074600009FCD9E70429002036290020034B93F8B2
:10747000F02012B1012283F8F12070470429002086
:107480000FB410B51D4C82B094F8F13023B902B09E
:10749000BDE8104004B0704794F8F23005AA01929C
:1074A000E3B9012384F8F330019B4FF48061049A1F
:1074B00013481DF013F80146B1F5806F28BF4FF453
:1074C00080610F4800F0D0FB94F8F23063B984F883
:1074D000F33002B0BDE8104004B0704700F0CAFBC2
:1074E000012384F8F430DFE700F0C6FB002384F8C2
:1074F000F43002B0BDE8104004B070470429002009
:10750000042500202DE9F04F044691B00846994625
:107510000D46924624F0A6FF0023052C0746CDE930
:107520000C33CDE90E330A93ADF82C3008D9C14B9A
:107530001E68002E79D040F23922BF49BF48B047BB
:10754000BF4E96F8F13013B13378A34202D211B096
:10755000BDE8F08F284600F0FFF9A042F7D3284697
:10756000711C24F04BFF0028F1D096F8F2301CAAD1
:107570000992002B6CD1012386F8F33096F8F53090
:10758000002B40F0DF809846DFF8BCB2CDF81CB08D
:107590000121204600F04CFA002840F0B38002217F
:1075A000204600F045FA002840F0B8801C21204613
:1075B00000F03EFA00287FD1E021204600F038FAA2
:1075C000002855D1C8F580610798099B1B9A1CF0CB
:1075D00085FF8044B8F57F7F37D240F2FB3338EA2D
:1075E000200828BF984696F820303BB100239549E3
:1075F00095480BF8083024F001FF78B396F8F53081
:10760000002B40F0B380914A0BEB0801404600F09C
:107610004DFB01468C48414400F026FB96F8F230C1
:1076200003BB002386F8F33091E740F23924834905
:10763000874A814B0192CDE902133046854A86493B
:1076400004940094FFF75EFFFEE740F2FB38CAE7C0
:1076500000F010FB012386F8F4308FE796F8F23043
:10766000002BDED000F008FB002386F8F4306EE734
:1076700040460799794A00F019FB202180442046B2
:1076800000F0D6F9002840F09D808021204600F0CF
:10769000CFF900287AD12046402100F0C9F900280E
:1076A0006CD140460BEB08016D4A00F0FFFA8044B4
:1076B0000BEB0803079385E740460799694A00F0FA
:1076C000F5FA04218044204600F0B2F9002840F089
:1076D000E7800821204600F0ABF9002840F08780C1
:1076E0001021204600F0A4F9002840F09880404680
:1076F0000BEB08015C4A00F0D9FA80440BEB08035D
:10770000079359E7594B404653F82420079900F056
:10771000CDFA80440BEB0803079340E740462A4626
:10772000079900F0C3FA0F2F804440F2AB80404627
:107730000BEB08014E4A00F0B9FA80440BEB08034A
:10774000079333E7DFF800B1494A5946002000F0BB
:10775000ADFA484B0BEB000153F82420804600F0B3
:10776000A5FA80440BEB0803079311E740460BEBA7
:107770000801414A00F09AFA804444E740460BEB86
:1077800008014A4600F092FA80448AE705211A9BD4
:107790003A4A0AA81CF044FE0BEB080140460AAA2C
:1077A00000F084FA40218044204600F041F900288E
:1077B0003FF471AF40460BEB08012D4A00F076FA1A
:1077C000804468E70BEB08014046524600F06EFA31
:1077D00040218044204600F02BF9002878D0404614
:1077E0000BEB0801264A00F061FA80444DE700F0F7
:1077F00059FA0BEB08010246404600F057FA1021F7
:107800008044204600F014F900283FF469AF404658
:107810000BEB0801164A00F049FA804460E700F0DB
:1078200043FA0BEB08010246404600F03FFA804461
:107830005DE700BF0025002090F50308E8F4030889
:10784000042900202429002004250020F8D303085F
:1078500004F50308C4F40308E0F4030830F5030852
:10786000A8E1030828F503082CF5030824F603080B
:1078700068F503080CF6030838F5030834F5030827
:1078800098D603082021C7F10F020CA824F089FD27
:1078900040460BEB08010CAA00F008FA804446E7CA
:1078A00000F0ECF90BEB08010246404600F0FEF94F
:1078B00018218044204600F0BBF800283FF409AFAF
:1078C00040460BEB08010A4A00F0F0F9804400E75B
:1078D0008021204600F0ACF800283FF4D6AE4046A8
:1078E0000BEB0801024A00F0E1F98044CDE600BF4D
:1078F00068F5030870B5052804460D4686B007D91B
:107900000E4B1E6856B140F23B120D490D48B04770
:107910000D4B363443F8245006B070BD40F23B1492
:1079200008490A4A064B0192CDE902133046084A3B
:10793000084904940094FFF7E5FDFEE700250020C8
:10794000B4F50308E8F403080429002004F503084B
:10795000C4F40308E0F403082DE9F041064686B0BC
:1079600068B3DFF8C88098F8F0301BB398F8F2706D
:10797000C7B9012388F8F3300024254DEB7F2BB1E4
:1079800029461E22304624F014FD50B30134052C44
:1079900005F12105F2D1DFB9204688F8F37006B071
:1079A000BDE8F08100F066F9012398F8F27088F8DC
:1079B000F430E1E70524204606B0BDE8F081154B20
:1079C0001B68ABB140F2DB12134914489847C8E773
:1079D00000F052F90023204688F8F43006B0BDE8E4
:1079E000F08104EB441408EB040393F83140D2E730
:1079F00040F2DB1409490A4A074B0192CDE9021310
:107A0000084A094904940094FFF77CFDFEE700BF93
:107A100036290020002500209CF5030840F50308C6
:107A200004F50308C4F40308E0F403080429002063
:107A300070B5052804460D4686B007D9104B1E6860
:107A400076B14FF436720F490F48B0470F4B3634BA
:107A500053F824301D4214BF0120002006B070BD31
:107A60004FF4367408490A4A064B0192CDE90213D5
:107A70003046084A084904940094FFF743FDFEE7A6
:107A80000025002080F50308E8F4030804290020FD
:107A900004F50308C4F40308E0F403082DE9F04FEB
:107AA0000024674E87B096F8F150CDE90210CDE979
:107AB0000444002D00F0A0809B463378032B40F255
:107AC0009B80711C924624F099FC002800F0948061
:107AD00096F8F230002B40F0A8800123584A82F833
