S00A00005033412E73333726
S31508012000C00A0020C5C60108213F0108E5AF03083B
S3150801201061240208BD3F010859400108C1C60108EB
S31508012020C1C60108C1C60108C1C60108C1C6010861
S31508012030C1C60108845B0408F9400108C1C6010844
S31508012040C1C60108C1C60108C1C60108C1C6010841
S31508012050C1C60108C1C60108C1C60108C1C6010831
S31508012060C1C60108C1C6010819560108C1C6010839
S31508012070C1C60108C1C60108C1C6010895380208CA
S31508012080C1C60108C1C60108C1C60108C1C6010801
S31508012090C1C60108C1C60108C1C60108C1C60108F1
S315080120A0C1C60108C1C6010875CC0108C1C6010827
S315080120B0C1C60108C1C6010819CE0108F5CD010836
S315080120C0C1C60108C1C6010885530308C1C601086E
S315080120D0C55D0308F1120408ED120408B555030895
S315080120E0FD120408F51204089D5D0308F912040897
S315080120F0055E0308D5370308755E03089939030891
S31508012100C1C60108653E0108C1C60108C1C6010864
S31508012110C1C60108C1C60108C1C60108C1C6010870
S31508012120C1C60108C1C60108C1C60108C1C6010860
S31508012130C1C60108C1C60108C1C60108C1C6010850
S31508012140C1C60108C1C60108C1C6010800000000D0
S31508012150013800D0FCE77047C0290AD0F0B5B1F5BF
S31508012160807F04469FB00FD0802904D029201FB054
S31508012170F0BD0F2070472498002848D024984FF4C2
S3150801218086650A90012006E0249800284DD00A9019
S3150801219040F2344501200B900195212010250C951C
S315080121A00D9025980E900AA8102501269FED247BEF
S315080121B04FF0210EDFF898C00F9012A810951196CE
S315080121C0129213961495CDF854E0CDF808C00390F1
S315080121D08DED047B9FED1C7B01AF069307908DED7A
S315080121E0087B16973BB306AA1792042740F61102F5
S315080121F01126CB0816AD0EA91AA8189719961A947E
S315080122001B951C931D920FF0E1F81FB0F0BD0A90C3
S315080122104FF4826501200B900195212010250C951C
S315080122200D9025980E900120BEE7249840F214459A
S315080122300A900120EFE702AAD6E700BFAFF30080B4
S3150801224010000010112800001000000011280000DD
S315080122500C5F0408000000002DE9F04F2DED028BFC
S31508012260934608241E460246A9B0DDF8D0A0DDF83B
S31508012270D490CDE90601414021FA04F34B40980771
S3150801228004F1080418BF9B00202C1A44F4D1BC4B56
S31508012290A3FB0213DB0803EBC313D21AB94B02F5EE
S315080122A006271B7807F55067002B00F0B780B64C58
S315080122B08123049323464FF000083C46CDF80CB021
S315080122C00593A4F50625059AA5F550635B0952F809
S315080122D0232004F01F00C240D20718D4AB4A52F893
S315080122E02330C340DB0700F18780DDF80CB02746B1
S315080122F0BBF1000F6FD0B8F1000F18BF4746002099
S31508012300369B1F6029B0BDEC028BBDE8F08FBAF190
S31508012310000F02D00023CAF80030B9F1000F02D02D
S315080123200023C9F800301027DFF87CB20023DBF858
S3150801233000003246214600971CF070FF034600282C
S315080123404CD1BAF1000F00F0F2801023CAF8003020
S3150801235003F1BC43326803F5BA1303F5E8539A420D
S3150801236040F0EA80B9F1000F11D04B462146DBF85F
S31508012370000018AA1CF0A6FF0346002840F0E580D5
S31508012380D9F80030DAF800209B1AC9F80030D6E9E6
S315080123900223DDE90610834208BF8A4200F0DD8088
S315080123A0774BA5F6FF45A3FB0523DB0803EBC31310
S315080123B0ED1A05F5062404F55064049B013B0493C4
S315080123C07FF47FAFDDF80CB0BBF1000F03D04746B1
S315080123D0B8F1000F93D16FF08B0093E76C4A9042E6
S315080123E000F0AA801232904200F0A680694A934210
S315080123F0CDD06FF0910085E7614BA5F6FF42A3FBAF
S315080124000213DB0803EBC313D21AB8F1000F08BF96
S31508012410A04602F5062404F55064CEE70AF00EFD3F
S3150801242004460028E5D19FED548B0146402208A8B1
S315080124302FF0C3F92146402218A82FF0BEF9CDE99D
S31508012440037B554DDFF860814F4C0596CDF8D0A03A
S315080124502F4607F10F06D8F8000010223B4608A9B7
S31508012460009610352EF0BBF8F8B108AB9E464FF032
S31508012470010BDFF818C103EB800A5EF8042BA2F5FD
S315080124800623A3F550635B0954F8231002F01F02D3
S315080124900BFA02F2114344F823105CF82310D645CF
S315080124A021EA02014CF82310E7D100963B46102297
S315080124B0D8F8000018A92EF09BF860B318AB1A4695
S315080124C003EB8000D4E9001303EB010EA16823692D
S315080124D08E44E16801268E440EEB0301A646DFF819
S315080124E0ACC052F8043BA3F50627A7F550677F0948
S315080124F05CF8274003F01F0306FA03F323434CF85D
S31508012500273029B98CED008B8CED028BCCF8101095
S315080125109042E6D17446214B9D4299D10123DDE9CA
S31508012520037B184A059EDDF8D0A01370C0E61C4B44
S3150801253032689A423FF42BAF2146DBF800001CF0C3
S3150801254005FF00283FF423AF45E7114A9042F3D02F
S31508012550144A90427FF44AAFEEE7DDF80CB02746FD
S31508012560BBF1000F3FF4CBAE7368012B7FF4C7AE06
S315080125706FF08400C6E600BF0000000000000000FE
S31508012580813FE00F68490020B8380020201E00204E
S31508012590FFDF00F0FEDF00F0006D080000710800A3
S315080125A0105D175E11E000F04C0C002000000000E1
S315080125B0002370B5404C05468AB0E36318B100881C
S315080125C0236017F01DF83D482EF0DDF93C4E3D4BD2
S315080125D0304633603C4B73602BF026F900213046B8
S315080125E01DF0BEF832A3D3E90023A062C4E906238D
S315080125F02BF025F9D4E9062319431043C4E906014A
S31508012600CDE900014FF0FF334FF0FF32A06A2EF0FB
S3150801261035FA02224FF0FF31A06A2EF034FA012072
S3150801262016F070FD4FF4007300222849A06A2EF0B7
S315080126307DFAB0F5007F38D100239422CDE907331E
S3150801264009933C23CDE9033205939623A06A03A98E
S3150801265006931DF0A3F935B3287C17F04FF9054603
S31508012660F0B9A06A2EF043FB17F0F6F816F02CFD28
S3150801267020B14FF48070002114F0ACFD16F034FD42
S3150801268020B14FF40060002114F0A4FD2BF099F954
S3150801269001201DF0B9F80E4A0E49A06A2BF0C2F8BE
S315080126A028460AB070BDFF20D7E70725F8E700BF1F
S315080126B00DD5015520000000581E0020690345EC80
S315080126C0103E0020898F0208203E0020103C002081
S315080126D0CDD703080DD8030810B5374C2DED028B5D
S315080126E0D4ED017AD4ED026A94ED037A0328C4ED98
S315080126F0007AC4ED016A84ED027A84ED030A82B098
S3150801270004D8002002B0BDEC028B10BDDFED2B8A88
S3150801271077EEA87A77EEA67A77EE877AB5EE006A2B
S3150801272030EE278A28EE068A18EE100A25F04EF8AA
S315080127301FA3D3E9002325F013FBDFED217A2346F6
S31508012740B0EE680A002808FE278A04F11002F3ECA5
S31508012750017A77EEC87A67EEA77A9A4230EE270AA7
S31508012760F5D1F5EE007A20EE270AB5EE400AF1EE2C
S3150801277010FA17D4B1EEC07AC7EE087AB0EE007A2D
S31508012780F4EEC77AF1EE10FAC8BFC820BADC9FED9D
S315080127900D7A67EE877AFCEEE77ACDED017A9DF838
S315080127A00400AFE727F092F9B0EE407AE4E700BFFC
S315080127B07B14AE47E17A843F844300200000000081
S315080127C00AD7233C0000C842F8B5DFEDAD7A2DEDF6
S315080127D0028B06460446034600F15005B3EC017A1E
S315080127E0AB4277EE877AF9D1B3EE047A87EE878A18
S315080127F018EE100A24F0EAFF9DA3D3E9002325F079
S31508012800AFFADFEDA07A33469FED9D7A002808FEE0
S31508012810278AF3EC017A77EEC87A67EEA77AAB4294
S3150801282037EE277AF5D1F3EE047A87EE270AB5EE65
S31508012830400AF1EE10FA00F11381F1EEC07AC7EE03
S31508012840887A17EE900A24F0C1FF8BA3D3E90023F7
S3150801285025F086FA00285FD18B4B8C4993ED007AD7
S3150801286091ED006AB4EEC76AF1EE10FA884BD3ED22
S31508012870006A23D49FED826A0023F4EC017AB4EE50
S31508012880E77AF1EE10FA0ADDF4EEE67AF1EE10FADD
S31508012890C8BF36EE276A03F10102C8BFD3B2AC42FC
S315080128A0EBD1002B60D007EE903AF8EEE77A86EE88
S315080128B0270ABDEC028B81ED000AF8BDB4EEE66A83
S315080128C0F1EE10FAD6DD734B9FED6D5AF7EE005A0D
S315080128D0FFEE004A864603F1500C02E0D0B29C4551
S315080128E069D0F4EC017A76EE677AF4EEE57AF1EEE0
S315080128F010FAE3EC017A00F10102EFD5F4EEE47A7D
S31508012900F1EE10FA0EF10107E8DD54ED017A5FFAEE
S3150801291087FE35EE275AE2E73046B0EC017AB0EE8B
S31508012920476AF0EE476AF0EC017AF4EE477AF1EE7F
S3150801293010FAF4EE667A37FE877AF1EE10FA48BF96
S31508012940F0EE676AA84236EE276AECD1BDEC028B37
S3150801295036EE476AF3EE027A36EE666A86EE270A9D
S315080129604A4981ED000AF8BD3046B0EC017AB0EE6D
S31508012970476AF0EE476AF0EC017AB4EE677AF1EE4F
S3150801298010FAF4EE676A48BFB0EE677AF1EE10FA0C
S3150801299077FEA66AA84236EE276AECD1BDEC028B11
S315080129A076EE477AB3EE027A77EEE67A87EE870A0B
S315080129B081ED000AF8BD142806D007EE90EAF8EE74
S315080129C0E77A85EE270A74E73046F0EC015AF0EE0D
S315080129D0654AB0EE655AF0EC017AF4EE657AF1EEE5
S315080129E010FAF4EE457A77FEA55AF1EE10FA48BFC9
S315080129F0B0EE675AA84274EEA74AECD174EEE57AAE
S31508012A00F3EE025A77EEC57A87EEA50AB4EEC07AD6
S31508012A10F1EE10FA204B83ED000A7FF74AAFF4EE88
S31508012A20C06AF1EE10FA7FF544AF30EE467AF7EE5A
S31508012A30007AB4EEE77AF1EE10FA04DD36EE270AEB
S31508012A4083ED000A35E7FFEE006AB4EEE67AF1EEA9
S31508012A5010FA7FF52EAF36EE670A83ED000A28E7EE
S31508012A6027F034F8F0EE407AE9E600BFAFF30080CC
S31508012A707B14AE47E17A843F333333333333C33F71
S31508012A80000000000AD7233C640D0020E84300201B
S31508012A90680D002094430020E44300200000000054
S31508012AA038B52DED048BC9B30446DFED2B7A034601
S31508012AB000EB8105B3EC017A9D4277EE877AF9D16D
S31508012AC007EE101AF8EEC78A87EEA88A18EE100ADA
S31508012AD024F07CFE1EA3D3E9002325F041F9DFED9E
S31508012AE01F7A9FED1D7A002808FE278AF4EC017AE1
S31508012AF077EEC87A67EEA77AA54237EE277AF5D137
S31508012B0087EE289AB5EE409AF1EE10FA19D4B1EE8D
S31508012B10C90A80EE080ABDEC048B38BDDFED0E7AD2
S31508012B2087EEA79A19EE100A24F050FE08A3D3E9F6
S31508012B30002325F015F99FED098A002809FE088A60
S31508012B40E0E7B0EE490A26F0C1FFE2E7AFF30080FD
S31508012B507B14AE47E17A843F000000000AD7233C84
S31508012B602DE9F84F04242DED068B0646DFED648A20
S31508012B70B3EE0E9A0D4610EE108A174603680B60DF
S31508012B8043684B6083688B60C368CB6006EB84033C
S31508012B9093ED008AB4EEE88AF1EE10FA4FEA840959
S31508012BA017DDB4EEC98AF1EE10FA12D553ED019A82
S31508012BB0F4EEE89AF1EE10FA0BDDF4EEC99AF1EEAD
S31508012BC010FA06D513ED02AAB4EEE8AAF1EE10FA48
S31508012BD00ADCA94489ED008A0134E4B2BC42D5D3A2
S31508012BE0BDEC068BBDE8F88FB4EEC9AAF1EE10FA72
S31508012BF0EFD553ED03AAF4EEE8AAF1EE10FAE8DDF3
S31508012C00F4EEC9AAF1EE10FAE3D553ED047AF4EE1F
S31508012C10E87AF1EE10FADCDDF4EEC97AF1EE10FA93
S31508012C20D7D57AEEE77A17EE900A24F0CFFD2EA3D0
S31508012C30D3E9002324F022FE7AEE6A7A824617EE59
S31508012C40900A8B4624F0C2FD29A3D3E9002324F078
S31508012C5015FE02460B465046594624F059FC79EEB4
S31508012C60CA7A824617EE900A8B4624F0AFFD22A354
S31508012C70D3E9002324F002FE02460B465046594684
S31508012C8024F046FC78EE697A824617EE900A8B465E
S31508012C9024F09CFD18A3D3E9002324F0EFFD024696
S31508012CA00B465046594624F033FC824640468B462D
S31508012CB024F08CFD02460B465046594624F0DEFDAB
S31508012CC0824618EE100A8B4624F080FD02460B4612
S31508012CD05046594624F01CFC25F08AF8A944C9F83F
S31508012CE0000079E7AFF300809A9999999999B93FC4
S31508012CF09A9999999999C93FCDCCCCCCCCCCD43F4A
S31508012D00CDCC0C40000000001D4B70B5186810EEC4
S31508012D10106A24F05BFD18A3D3E9002304460D4687
S31508012D2025F03CF810B914A5D5E90045304624F03C
S31508012D304DFD02460B462046294624F0C9FE114B95
S31508012D40044618680D4624F041FD02460B46204606
S31508012D50294624F0BDFE25F04BF8F6EE007A07EE7B
S31508012D60100AB4EEE77AF1EE10FA94BF01200020BA
S31508012D7070BD00BFAFF300807B14AE47E17A843F94
S31508012D8070460020484600202DE9F04FC76997B0E4
S31508012D908346209E08910C92129355EC104B8DEDAB
S31508012DA0000B7FB9102025F03BFA0246CBF81C0030
S31508012DB020B9A74BEF21A74825F0FAF9C0E9017711
S31508012DC00760C760DBF81C30196859B15A680123D6
S31508012DD0584693404A608B6026F0AEF8DBF81C3003
S31508012DE000221A602B1EB7BF23F0004300230122DD
S31508012DF00193A8BF3360019F974BB8BF3260BB43AD
S31508012E0019D142F20F73129A1360C7F313032343BE
S31508012E1000F0DB85219B53B9904B21E0904B03933E
S31508012E200833219A1360039817B0BDE8F08F8B4BCE
S31508012E3003930333F5E79DED007B0022002351EC54
S31508012E40170B8DED0A7B24F081FF804650B10123D3
S31508012E50129A1360219B13B1824B219A1360824BFC
S31508012E600393E0E7C7F30A5614AA15A958469DED38
S31508012E700A0B26F0E9FA0290002E76D00B9BA6F2F1
S31508012E80FF36CDF84C80C3F3130343F07F53DDE9D6
S31508012E900A0143F4401319460022744B24F036FB09
S31508012EA065A3D3E9002324F0E9FC65A3D3E900234C
S31508012EB024F02EFB04460D46304624F075FC62A329
S31508012EC0D3E9002324F0DAFC02460B4620462946BC
S31508012ED024F01EFB04460D4628F056F80022074644
S31508012EE000232046294624F03BFF40B1384624F00A
S31508012EF05BFC22462B4624F029FF00B9013F162F19
S31508012F0052D85B4B03EBC703DDE90A01D3E900237A
S31508012F1024F026FF002849D0013F00231193149B72
S31508012F209B1B5A1E4CBFC3F101030023079245BFE1
S31508012F300693002306930793002F39DB079B109707
S31508012F403B44079300230993089B092B66D8052B55
S31508012F50C5BF043B002401240893089B023B032BAD
S31508012F6067D8DFE803F02D3A3859DDE914631E44C2
S31508012F7006F23243202BC9BFC3F14003C3F1200334
S31508012F809F4006F21243D8BF04FA03F006F1FF3652
S31508012F90C4BF24FA03F347EA030024F0F5FB012230
S31508012FA0A1F1F873139276E70123B7E71190B6E713
S31508012FB0069BDB1B06937B42099300231093C3E709
S31508012FC000230D930C9B002B56DC012399461A46C8
S31508012FD004930C920CE00123F3E700230D930C9B59
S31508012FE0FB1803F1010904934B46012BB8BF0123D2
S31508012FF0DBF81C000021042202F114059D423FD989
S315080130004160584625F058FF039000283BD1194BDB
S31508013010024640F2AF11CEE60123DFE70124002381
S315080130200D9408934FF0FF33002299460493122317
S31508013030CFE701230D93F5E761436F63A787D23F76
S31508013040B3C8608B288AC63FFB799F501344D33F88
S3150801305005A304081CA304080000F07F01A30408C3
S31508013060F8A20408D5A20408D4A204080000F83F6F
S3150801307018A4040875A304080C9B99460493B7E79A
S3150801308001315200B8E7DBF81C30B9F10E0F039A8B
S315080130901A606FD8002C6DD0002F36DD07F00F02AD
S315080130A0A04BF8054FEA271403EBC20393ED007B07
S315080130B08DED0E7B17D59C4B04F00F044FF00308DA
S315080130C0D3E90823DDE90A0124F002FDCDE900016F
S315080130D0954D5CB9DDE90E23DDE9000124F0F8FC24
S315080130E0CDE900012BE04FF00208F1E7E10709D528
S315080130F008F10108DDE90E01D5E9002324F0BEFB3C
S31508013100CDE90E0164100835E3E700F007817C423A
S31508013110844B854D4FF0020804F00F02241103EB8E
S31508013120C203DDE90A01D3E9002324F0A7FB002342
S31508013130CDE90001002C40F0E580002BD0D1119B90
S31508013140DDE90045002B00F04C810022774B204633
S31508013150294624F005FE002800F04381B9F1000F45
S3150801316000F03F81049B002B00F3E480DDE90A347B
S31508013170CDE90034159B002B02DB0E2F40F342826A
S315080131800D9A002A40F06782099C0025DDF818800F
S31508013190B8F1000F0DD0079B002B0ADD4345069AAF
S315080131A0A8BF4346D21AA8EB03080692079AD31A70
S315080131B00793099B0BB30D9B002B00F0A682002CED
S315080131C000F0A18229462246584625F0DFFF029AD9
S315080131D001460546584625F02FFF029906465846E8
S315080131E025F0AAFE099B1B1B099300F09182099AF7
S315080131F03146584625F0CAFF02900121584625F066
S3150801320005FF109B0446002B00F084821A460146EE
S31508013210584625F0BBFF089B0446012B03DC009B9F
S31508013220002B00F07C820026236904EB83031869CE
S315080132302EF0CAFBC0F120001096079B184410F027
S315080132401F0000F09182C0F12003042B40F3818214
S31508013250C0F11C00069B034480440693079B034464
S315080132600793069B002B05DD1A460299584625F059
S31508013270E7FF0290079B002B05DD21461A465846B3
S3150801328025F0DEFF0446119B002B00F076822146CD
S3150801329002982EF0E8FB002880F26F8200230A22AA
S315080132A00299584625F06AFE0D9B7E1E0290002B58
S315080132B000F05C82002329460A22584625F05EFE64
S315080132C0049B0546002B03DC089B022B00F35E8258
S315080132D0B8F1000F05DD29464246584625F0B0FFEC
S315080132E00546109B002B00F0D0826968584625F0E8
S315080132F0E3FD0746002840F07F820D4B024640F267
S31508013300EF2158E5E20706D508F10108D5E90023BA
S3150801331024F0B4FA0123641008350BE74FF00208CC
S315080133200DE700BF18A40408F0A304080000F03F45
S3150801333075A3040820460022AC4B294624F09EFAC0
S315080133407E1E08F10108049CCDE90001404624F0DF
S315080133502BFADDE9002324F091FAA54B002224F08B
S31508013360D7F8A1F15073CDE90E010F93002C3BD18B
S315080133700022A04BDDE9000124F0C8F802460B46FD
S31508013380CDE90023DDE90E2324F008FD002840F0ED
S315080133905781DDE90E2101F10043DDE9000124F041
S315080133A0DFFC00283FF4E2AE002425460C9BDDF83D
S315080133B00CA0DE434FF000082146584625F0BCFD17
S315080133C0002D00F0A980B8F1000F05D0A84503D05B
S315080133D04146584625F0B0FD2946584625F0ACFD2C
S315080133E09AE03E464C46B1E7834B03EBC40353E9E7
S315080133F00201039B1C440D9B002B4AD002460B4637
S3150801340000207E4924F064FBDDE90E2324F07EF8D2
S31508013410DDF80CA0CDE90E01DDE9000127F0B4FDC8
S31508013420054624F0C1F9024630350B46DDE90001AF
S3150801343024F06CF80AF8015B02460B46CDE9000157
S31508013440DDE90E0124F0AAFC002865D100206C49AB
S31508013450DDE9002324F05AF802460B46DDE90E01A0
S3150801346024F09CFC002840F00D81A24500F0EA807A
S3150801347000225E4BDDE90E0124F000FA00225B4BC7
S31508013480CDE90E01DDE9000124F0F8F9CDE90001E5
S31508013490C2E7DDE90E2324F0F1F9A046DDF80CA018
S315080134A0CDE90E01DDE9000127F06EFD054624F0A0
S315080134B07BF9024630350B46DDE9000124F026F892
S315080134C00AF8015B02460B46A245CDE900234FF0F7
S315080134D0000223D1494BDDE90E0124F019F8024611
S315080134E00B46DDE9000124F059FC002840F0CA80AA
S315080134F000204249DDE90E2324F008F802460B466E
S31508013500DDE9000124F02CFC70B1C24608F1FF3850
S315080135101AF8013C302BF8D0374655E0334B24F0E6
S31508013520ADF9CDE90001BDE7DDE90A34CDE900349D
S31508013530159B002BFFF628AE0E2F3FF725AE2E4B17
S3150801354003EBC70393ED007B0C9B002B8DED047BEE
S3150801355002DAB9F1000F64D0DDF80CA0DDE9004507
S31508013560DDE904232046294624F0B2FA27F00CFDAA
S31508013570064624F019F9DDE9042324F07FF9024609
S31508013580204606F130040B46294623F0BFFF0AF808
S31508013590014B039C02460B46AAEB0404A14540F0E5
S315080135A0828023F0B5FF04460D46DDE9042324F0A5
S315080135B0F5FB002865D120462946DDE9042324F0D8
S315080135C0C5FB08B1F3075CD40299584625F0B4FC4B
S315080135D0002301378AF80030129B1F60219B002BBC
S315080135E03FF421ACC3F800A01DE400BF000024404D
S315080135F000001C400000144018A404080000E03F25
S315080136000000F03FA24B03EBC70393ED007B0C9B35
S31508013610002B8DED047B9FDAB9F1000F9CDC7FF45A
S31508013620C3AE00229B4BDDE9040124F027F9DDE94D
S31508013630002324F0A9FB044600287FF4B5AE3E46D4
S315080136402546B4E0DDE90A34CDE90034159B002BA3
S3150801365001DB0E2FD6DD089A012A36DC139A82B3CE
S3150801366003F23343099CDDF81880069A012158466E
S315080136701A440692079A1A44079225F0C7FC05468A
S3150801368086E53E4653469A4613F8012D392A06D150
S31508013690039A9A42F7D13022039901360A701A78A9
S315080136A001321A7038E700227B4B24F0E7F8002232
S315080136B0002304460D4624F049FB00283FF450AF89
S315080136C082E7149BC3F13603CCE709F1FF34099B62
S315080136D0A34208DBB9F1000FA3EB04040EDBDDF806
S315080136E018804B46C1E7099B109AE31A0994DDF83D
S315080136F0188000241A444B461092B6E7069BA3EBA2
S3150801370009080023B1E7029E71E5099A029970E555
S31508013710029672E5089B012B17DC009BABB9019B4E
S31508013720C3F313039BB9019B23F00046360D3605F7
S3150801373036B1069B012601330693079B013307938E
S31508013740109B002B7FF470AD1096012075E50026BD
S31508013750F6E73FF486AD1C33069A1A449844069256
S31508013760079A1A4407927CE50346F4E7049B002B63
S315080137702BDC089B022B09DC27E0B9F1000F1DDCC5
S31508013780089B022B1ADD3E46CDF81090049B002BB0
S315080137907FF40CAE21460522584625F0EFFB01467B
S315080137A0044602982EF05FF900287FF7FFADDDF891
S315080137B00CA0312301360AF8013BFBE50D9B3E4679
S315080137C0CDF81090002B7FF483AD039F2146029814
S315080137D02EF06DF8039B00F13009049A07F8019B56
S315080137E0FB1A9A4240F3CB8000230A2202995846D3
S315080137F025F0C4FB0290E9E72A6905F10C010C30B2
S31508013800023292002EF037F801223946584625F041
S3150801381017FD039BA846054603F1010ADDE90323C3
S3150801382013440793009B03F0010309930AF1FF333D
S315080138302146029804932EF03AF84146069000F183
S31508013840300902982EF00FF92A46214607465846AE
S3150801385025F062FDC268014602B3584625F06CFBA5
S31508013860002F3ADA01220299584625F0E9FC214649
S3150801387002902EF0F8F8002803DC29D119F0010F7F
S3150801388026D0B9F1390F1DD132E02846C1E700BF6C
S3150801389018A4040800001440000024400A90029865
S315080138A02EF0E1F80A990C90584625F045FB0C9A3A
S315080138B05ABB089B53B9099B43B9B9F1390F17D0BC
S315080138C0002F05DD069B03F1310901E0002F2ADAF5
S315080138D0DDF810A00AF8019B6EE5089B3B4304D16D
S315080138E0009B03F00103002BBCD0B9F1390F36D187
S315080138F0049F392307F8013BBA46013F1AF8013CF0
S31508013900392B5AD001333B7056E5002F06DB089B4D
S315080139103B4306D1009B03F0010313B9002AA1DC3E
S31508013920D6E7002AE1DC079B57460AF8019C53456E
S315080139302ED000230A220299584625F01FFBA845D6
S3150801394002904FF000034FF00A02414658460BD148
S3150801395025F014FB804605460AF1010A66E7DDF8FB
S3150801396010A009F10109B5E725F008FB29468046AB
S3150801397000230A22584625F001FB0546ECE7049B7D
S315080139804FF00008002BCCBF1F460127039B1F449D
S3150801399001220299584625F053FC214602902EF041
S315080139A062F80028A8DC02D119F0010FA4D1BA46A1
S315080139B017F8013D302BFAD0FEE4039BBB429BD19D
S315080139C03123039A01361370F6E4219B002B7FF409
S315080139D025AA014BFFF744BAF8A204080348044B89
S315080139E0834202D0034B03B118477047A01B00203E
S315080139F0A01B002000000000064B0749C91A8910C0
S31508013A0048BF0131491003D0044B0BB1014818478F
S31508013A10704700BFA01B0020A01B0020000000006B
S31508013A2010B5064C237843B9FFF7D8FF044B13B1F9
S31508013A300448AFF300800123237010BD46490020D6
S31508013A400000000084A7040808B5054B1BB1054909
S31508013A500548AFF30080BDE80840FFF7CDBF00BFBA
S31508013A6000000000B820002084A70408A3F5803AC6
S31508013A70704700BF174B002B08BF134B9D46FFF736
S31508013A80F5FF00218B460F461348144A121A2DF0EA
S31508013A9094FE0E4B002B00D098470D4B002B00D0FF
S31508013AA098470020002104000D000D48002802D087
S31508013AB00C48AFF3008025F091F92000290000F0A9
S31508013AC095F924F09BFB00BF0000080000000000E8
S31508013AD000000000C00A0020A01B0020504A002058
S31508013AE00000000000000000F0B503689B4A23F4BB
S31508013AF07F4323F00703934204468FB000F0A88062
S31508013B003AD802F17F42934200F08D8002F5802275
S31508013B1093425BD10021A127B0F8055009AE1422C2
S31508013B2006AB28460096069118F06CF88C4B0320D4
S31508013B30CDE901358B4A8C4B8C49009706F022FC5E
S31508013B4032460821BDF81830894806F0E7FE242DCB
S31508013B5000F09A802B2D0DD1B4F805302279ADF8F5
S31508013B601D308DF81C2007A9334603C9BDF8182056
S31508013B7005F04AFB0FB0F0BD7E4A93424DD002F5DF
S31508013B801022934239D1D126C2790389B0F805505A
S31508013B90CDE90332784A0320CDE90125724B714AF2
S31508013BA07249009606F0EEFB242D7CD02B2D00F0F1
S31508013BB0A5801D2DDED1E379012B00F0AA80022B09
S31508013BC0D8D102F0EFFD0123C377D3E7A2F510227E
S31508013BD09342CFD1432469490320634B614A01913A
S31508013BE00094624906F0CEFB002109AB084607AAF4
S31508013BF018F07EF8002840D0FEE7A2F182729342BF
S31508013C00B8D1B0F80930B0F80720B0F80510007936
S31508013C100FB0BDE8F04002F011BE40680FB0BDE834
S31508013C20F04002F0F1BF0026554D2846C5E9006669
S31508013C30AE60AE8107F042FF2B460E2231460B20BD
S31508013C4018F012F8207B0FB0BDE8F04002F0CABDAB
S31508013C50807902F033FE4B4C4B4A00214B4B1278CC
S31508013C60207817F069FF00B1FEE70221207817F0E6
S31508013C7079FF00283FF47EAFFEE7424D284617F04C
S31508013C8021FF0446D0B1FEE7B4F805302279ADF834
S31508013C901D308DF81C2007A9334603C9BDF8182025
S31508013CA004F0F6FB66E7E379012B39D0022B7FF4A2
S31508013CB061AF02F077FD012343775BE7324E334864
S31508013CC0314603F053FF314B21463278287817F0F5
S31508013CD033FF034600B1FEE74FF4C8620090114670
S31508013CE0287817F007FF00B1FEE70221287817F0B8
S31508013CF039FF00B1FEE702F075FE3BE7E379012BD8
S31508013D0015D0022B7FF436AF02F04CFD01238377E1
S31508013D1030E7238993B10FB0BDE8F04004F074B8D9
S31508013D20238983B10FB0BDE8F04004F0A5B9238912
S31508013D3073B10FB0BDE8F04004F0D0BC0FB0BDE8D8
S31508013D40F04004F067B80FB0BDE8F04004F09AB946
S31508013D500FB0BDE8F04004F0C7BC00BFA0000601E3
S31508013D609827040860270408CC2704086C27040848
S31508013D7028310408A0000103A827040870270408AD
S31508013D80D0200020FC0F002047490020E020002019
S31508013D9010B5012184B02D2009F08CFE002340F2D4
S31508013DA0011E4FF0010C40F20E320E4C69462046B8
S31508013DB0CDF80630CDF80230CDF80930ADF800E07F
S31508013DC0ADF809208DF804C00CF0F2F902214FF480
S31508013DD00032054B04F58054E161C3F884215A6029
S31508013DE004B010BD0080015A00E100E008B50BF0EF
S31508013DF0F5FF1A4B1A4C18600BF0EAFF0FF084FD19
S31508013E000BF0BCFF01213A2009F054FE11F072F8BB
S31508013E10002011F071F806F02BFAFF21002006F0B8
S31508013E20A9FCC721012006F0A5FCC721022006F03E
S31508013E30A1FC0721032006F09DFC0721042006F0BA
S31508013E4099FC06F053FAFFF7A3FF20460CF09EF9FA
S31508013E500FF068FD0EF072FCF7E700BF00210020A5
S31508013E600080015A2DE9F041244B96B01C7824B103
S31508013E7001221A7016B0BDE8F0813822214608A839
S31508013E802DF09BFC6A46382108A805F0F9FD8B251B
S31508013E9006461B4A03201B4B1B49019200951B4AE8
S31508013EA0029606F06FFA07F01BFDA6B1DFF86C80E3
S31508013EB0174F07AD55F8041F404606F021FA22466A
S31508013EC0394605A824F0ACFE0134294605A807F0B1
S31508013ED0D1FCA642EED107F089FD4FF47A700FF0B6
S31508013EE06BFABFF34F8F0B490B4BCA6802F4E062BA
S31508013EF01343CB60BFF34F8F00BFFDE7484900204E
S31508013F00F027040884280408E8270408DC2704089D
S31508013F101428040800ED00E00400FA050C2804083A
S31508013F202DE9F04196B03822002108A82DF045FC6C
S31508013F306A46382108A805F0A3FDA624064600947A
S31508013F40A724174A0320174B17490192174A06F067
S31508013F5019FA174A0320134B134901920296134A79
S31508013F60009406F00FFA07F0BBFCAEB10024DFF8A7
S31508013F704880104F07AD55F8041F404606F0C0F9B2
S31508013F802246394605A824F04BFE0134294605A8E0
S31508013F9007F070FCA642EED107F028FDFEE700BF48
S31508013FA01C28040878280408E8270408DC270408DC
S31508013FB0F0270408142804080C2804082DE9F04100
S31508013FC096B03822002108A82DF0F7FB6A46382159
S31508013FD008A805F055FDC02406460094C124174AD1
S31508013FE00320174B17490192174A06F0CBF9174ACE
S31508013FF00320134B134901920296134A009406F0C3
S31508014000C1F907F06DFCAEB10024DFF84880104F06
S3150801401007AD55F8041F404606F072F9224639469F
S3150801402005A824F0FDFD0134294605A807F022FC60
S31508014030A642EED107F0DAFCFEE700BF28280408FD
S3150801404064280408E8270408DC270408F02704087C
S31508014050142804080C2804082DE9F04196B03822E2
S31508014060002108A82DF0A9FB6A46382108A805F001
S3150801407007FDD92406460094DA24174A0320174B6C
S3150801408017490192174A06F07DF9174A0320134B7F
S31508014090134901920296134A009406F073F907F040
S315080140A01FFCAEB10024DFF84880104F07AD55F864
S315080140B0041F404606F024F92246394605A824F08D
S315080140C0AFFD0134294605A807F0D4FBA642EED177
S315080140D007F08CFCFEE700BF3C28040850280408BA
S315080140E0E8270408DC270408F0270408142804082C
S315080140F00C280408704700BF16F0E6B808B50FF09B
S3150801410053FCBDE8084017F09FBA00BF012070476D
S3150801411000B5C3B016F06AF829F05CFC10B943B0D3
S315080141205DF804FBFFF7F2FF0028F8D001A82AF092
S3150801413096FD0028F3D101A808F00AF901A8FFF7AE
S31508014140D9FF01A8FFF7D0FC43B05DF804FB00BF17
S3150801415008B50AF03DF809F0E7FF214A136F23F085
S31508014160070343F00303136709F0F6FF1D4B9B6A28
S315080141709B0702D401221C4B9A62194B0020D3F8E3
S31508014180202122F0030242F00202C3F82021D3F8CB
S31508014190242122F0070242F00202C3F82421D3F8AF
S315080141A0402122F0030242F00202C3F84021D3F86B
S315080141B0602122F0030242F00202C3F86021D3F81B
S315080141C0402222F0030242F00202C3F84022D3F849
S315080141D0002222F0070242F00202C3F8002208BDBB
S315080141E00080005000C0005000E0005008B50DF0F6
S315080141F0D7FF0DF055FF0DF0B9FF0DF077FFFFF76B
S31508014200A7FF0DF05FFF08F069FB08F017FEBDE890
S3150801421008400EF097B900BF08F09CBD08B50EF02E
S31508014220DBFE0DF0C1F80EF015F810F063F90DF08C
S31508014230D3FABDE808400DF0F3BF00BF08B50CF08E
S31508014240F1F80CF00DF90CF01FF9FFF757FFBDE86F
S3150801425008400CF003B900BF704700BF704700BFA4
S3150801426008F0E4B9FFF754BF704700BF0120704753
S315080142700120704738B508F01BFA054615F0DEFF30
S31508014280041E18BF2C46FFF7F1FF002818BF204669
S3150801429038BD00BF38B50EF0A7FB044608F0FEF995
S315080142A0042817D0022808BF012429F0D5FB0428C1
S315080142B04FF0000514D0022808BF0124FFF7D8FFE4
S315080142C0042813D0022808BF0124002D18BF002492
S315080142D0204638BD29F0C0FB04284FF00105EAD174
S315080142E0FFF7C6FF04284FF00105EBD1002420464D
S315080142F038BD00BF024B0349186809F021B800BF51
S31508014300C00B0020A00B0020014B1878704700BF96
S315080143104949002010B54724084982B00191042073
S31508014320074B084A0849009406F02CF80022074B67
S315080143301A7002B0BDE8104000F0B6B9D82C0408CE
S315080143402C2D0408BC2C0408D42C04084949002047
S3150801435010B55F24084982B00420084B084A019128
S315080143600094084906F00EF800F09CFA0022064B64
S315080143701A7002B010BD00BFE42C0408202D0408F1
S31508014380BC2C0408D42C04084949002030B57525ED
S315080143900446094983B0094B094A01910420094990
S315080143A0009505F0EFFF204600F096FC0122064B2A
S315080143B01A7003B030BD00BFF02C0408142D040890
S315080143C0BC2C0408D42C04084949002030B58E2594
S315080143D00446084A83B001920420074B074A084954
S315080143E0009505F0CFFF204603B0BDE8304000F048
S315080143F011BA00BFFC2C0408082D0408BC2C0408BB
S31508014400D42C040800F046B9F8B56FF448731C4E6D
S31508014410B6F90800C3189BB2B3F5C77F23D823F0B2
S31508014420C3F90022174B23F053FB04460D46B6F990
S315080144300A3018463BB144F61E6203F51C530F3386
S315080144409BB2934212D9002600270F4B2046D3E987
S315080144500023294623F012FA32463B4623F058F840
S3150801446041EC100BF8BD0024084DE0E723F09CF958
S315080144700022044B23F02CFB06460F46E5E700BF56
S31508014480982D002000408F40A01B00200000F03F1F
S3150801449038B50546054800F0E3F8044625B118B1D4
S315080144A0FFF7B2FF85ED000B204638BDA01B0020A3
S315080144B010B54FF48374084A82B001920420074963
S315080144C0074B084A009405F05DFF0021042002B05D
S315080144D0BDE8104002F020BA582D0408502D0408F2
S315080144E0C4300408382D040810B540F21714084AD8
S315080144F082B0019204200749074B084A009405F047
S3150801450041FF0021032002B0BDE8104002F004BAC1
S31508014510782D0408502D0408A8300408382D0408FD
S315080145200021062002F0F8B90F4B1B78012B04D1A4
S315080145300E4A1378A3B1013B137010B5F6240C4A41
S3150801454082B0019204200B490B4B0C4A009405F0EA
S3150801455019FF0021022002B0BDE8104002F0DCB9C3
S3150801456007480EF037BE00BF4B4900204C490020D2
S31508014570942D0408502D0408E4300408382D040845
S31508014580C821002010B5C524094982B0019104202B
S315080145900849094B094A009405F0F4FE2022084B04
S315080145A01A6402F069FB074B186002B010BD00BF20
S315080145B0B42D0408502D040814310408382D0408B4
S315080145C000D00350E821002010B54FF4BE7482B024
S315080145D0009440F2132418490420184B184A0191F3
S315080145E0184905F0CFFE18481649184B144A019088
S315080145F00094042005F0C6FE0222154B0A20C3F8D2
S31508014600A0200EF017FF00230146CDE90033114A19
S3150801461011480EF01BFD08B902B010BD4FF4C27463
S315080146200E4901200191054B054A0649009405F0FA
S31508014630A9FE02B010BD00BFC42D040860300408ED
S31508014640382D0408502D0408E02D040828300408E4
S3150801465000D00350B1440108A8210020F02D040818
S3150801466098B1012310B582B0044669461A4608482E
S3150801467007F0DCFC10B9002002B010BD0120DDE90D
S315080146800023C4E9002302B010BD0020704700BF13
S31508014690EC21002008B5034807F02AFD003818BFA9
S315080146A0012008BDEC210020F0B54FF49B74434965
S315080146B085B00420424B434A01910094424905F0D2
S315080146C061FE04220123114602200AF03FFF00235E
S315080146D00422184605210AF039FF01230422194646
S315080146E002200AF033FF002310241846012206216E
S315080146F00AF02CFF354B0022C3F8A04034490620A6
S3150801470008F042FB4FF4A4770446324B324E01932C
S31508014710009702943460D624294B2A4A04202A4950
S3150801472005F030FE2D49042002F014F92C49022027
S3150801473002F010F92B49032002F00CF92A49062048
S3150801474002F008F9302308222849294807F05EFCB7
S315080147502027009440F22124264A274D274E04207B
S31508014760274B19490192174A05F00CFE154A1649B5
S315080147700420244B2F64CDE9004605F003FE0223ED
S31508014780C820C5F8A0300EF055FE00230146CDE934
S3150801479000331D4A1D480EF059FC08B905B0F0BD95
S315080147A040F259141A4901200191054B054A064957
S315080147B0009405F0E7FD05B0F0BD00BF242E0408FE
S315080147C09C300408382D0408502D040800D00350E5
S315080147D021450108302E040800220020F55301085E
S315080147E0C945010885450108F94F0108B01B002094
S315080147F0EC210020142E040800E00350482E04087A
S315080148000431040818300408E94401088821002005
S31508014810F02D040870B5194B84B01D78012D01D00F
S3150801482004B070BD4FF4E6760446154A1549CDE93C
S315080148300120154B0420154A009605F0A3FD144ADC
S31508014840144B40F69A3015701C700EF0F3FD0023D8
S315080148500146CDE90033104A10480EF029FC00281C
S31508014860DED04FF4EB740E4928460191064B074AF0
S315080148700449009405F086FDD2E700BF4B490020A4
S31508014880582E0408502D040844300408382D04080D
S31508014890FD0F00204C49002029450108C8210020A8
S315080148A0682E040840F2F31CF0B52049204E214D2C
S315080148B083B0CDF800C032461F4B0191042029462A
S315080148C005F060FD1D480EF085FC1D480EF082FCC2
S315080148D000231C4F18463A680621CDE900330AF031
S315080148E0B9FD4FF0D60C3A68174C184BC4F820247A
S315080148F0294632460193CDF800C00420144B05F031
S3150801490041FD40F221274FF0200EDFF84CC0C4F8D4
S3150801491040E0324629460420CDE9007C0D4B05F0DE
S3150801492031FD0223C4F8A03003B0F0BD942E04086B
S31508014930382D0408502D040838300408C8210020F1
S31508014940A82100200022002000E00350142E0408AC
S315080149500431040818300408482E04084FF0000CE6
S315080149600246802330B51025134C83B005208DF8F7
S3150801497007C08DF806108DF804208DF805300EF065
S31508014980DDFF04F50053C3F8A05014200EF0D6FF3E
S3150801499004220A4B0DEB0201186808F00FFF04F513
S315080149A080540A200EF0CAFF0520C4F8A0500EF064
S315080149B0C5FF03B030BD00BF00C00350C00B0020C7
S315080149C010B5324C88B0D4E9000123F0F1F9304B27
S315080149D080B293ED000B01F067FD94ED007B40F288
S315080149E033242C4A2C4B019204202C4A8DED047B4E
S315080149F08DED020B2A4900948DED060B05F0C2FCDC
S31508014A00284B1A788AB300221A7040F22124012011
S31508014A100EF094FF1E213A20FFF7A0FF01200EF0A9
S31508014A208DFF02215020FFF799FF01200EF086FF26
S31508014A3000216120FFF792FF01200EF07FFF9E21E2
S31508014A403A20FFF78BFF01200EF078FF1649042064
S31508014A500191164B114A1249009405F093FC022262
S31508014A60134BC3F8A02008B010BD40F236241149F3
S31508014A7004200191084B094A0949009405F082FC72
S31508014A80012206A90C4807F007FBBEE7C00A002069
S31508014A90A81B0020A02E0408F42F0408382D0408AA
S31508014AA0502D04084A490020482E040818300408E5
S31508014AB000E00350B82E0408EC2100208446202388
S31508014AC0F0B5102714460E46144D93B005208DF8FF
S31508014AD000C08DF801300EF031FF05F50053C3F81B
S31508014AE0A07014200EF02AFF0D4B69461868E31CC6
S31508014AF0DBB209AA08F016FE05F580550A200EF064
S31508014B001DFF0520C5F8A0700EF018FF2246304695
S31508014B100DF126012CF0AFFE13B0F0BD00C0035015
S31508014B20C00B00202DE9F04302231024634D644A8B
S31508014B309BB005F50059634F0520ADF82C300A9254
S31508014B400EF0FCFE1420C9F8A0400EF0F7FE06226E
S31508014B500AA9386808F032FE05F580550A200EF0D4
S31508014B60EDFE0520C5F8A0400EF0E8FE01200EF086
S31508014B70E5FE4FF080734FF0010800260393524B70
S31508014B800DF106010DF1050002938DF8108000F074
S31508014B905BFC9DF8053031468DF811309DF80630DD
S31508014BA00DF107008DF812308DF8138000F05AFCCC
S31508014BB04AF25003ADF828309DF807308DF8156094
S31508014BC08DF8143002AB07CB1B88CDF82A000520D7
S31508014BD0ADF83630CDF82E10CDF832208DF8386084
S31508014BE00EF0ACFE1420C9F8A0400EF0A7FE0AA9E3
S31508014BF01122386808F0E2FD0A200EF09FFE052012
S31508014C00C5F8A0400EF09AFE40460EF097FE2F4BCF
S31508014C1005200A938DF82C600EF090FE1420C9F831
S31508014C20A0400EF08BFE05220AA9386808F0C6FDD9
S31508014C300A200EF083FE0520C5F8A0400EF07EFE80
S31508014C409E213A20FFF78AFE5423ADF82C30204BDB
S31508014C5005200A930EF072FE1420C9F8A0400EF042
S31508014C606DFE06220AA9386808F0A8FD0A200EF08A
S31508014C7065FE0520C5F8A0400EF060FE3146052008
S31508014C80FFF76CFE134B05200A938DF82C600EF086
S31508014C9055FE1420C9F8A0400EF050FE05220AA9B7
S31508014CA0386808F08BFD0A200EF048FE0520C5F885
S31508014CB0A0400EF043FE1BB0BDE8F08300C00350D0
S31508014CC03AA01E0BC00B00200300003961A00F019A
S31508014CD001A0310017A0010170B540F2931484B008
S31508014CE0009440F21324364A364B37490192054659
S31508014CF0364A042005F046FB35490420354B334A2C
S31508014D0001910094304905F03DFB0222324B0A20FD
S31508014D10C3F8A0200EF050FB01F0AEFF2F4B1C6824
S31508014D20041BB4F57A7F23D3012400202C4B0621DA
S31508014D301A682346CDE900040AF08CFB65B942F2EC
S31508014D4010700EF077FB2B460146CDE90055254A32
S31508014D5025480EF0ADF930BB012324482449254ADC
S31508014D6005700B70137004B0BDE87040FFF7DABE2A
S31508014D704FF4D076204A0420CDE90124114B134A79
S31508014D801149009605F0FEFA1C4A1D4B02FB04F474
S31508014D9004F5742404F51074A3FB0434C4F38F10CA
S31508014DA00EF00AFBC0E740F2AD15164920460191FF
S31508014DB0044B064A0449009505F0E4FA04B070BDAF
S31508014DC0C42E040850300408502D0408382D040850
S31508014DD0E02D04082830040800D00350E8210020FB
S31508014DE00022002029450108C82100204B4900203E
S31508014DF04A490020FD0F0020D42E040818FCFFFFA5
S31508014E00D34D6210682E040840F27B302DE9F04339
S31508014E106E4C9DB06E496F4B6F4A0194009003200A
S31508014E2005F0B0FA012010240EF088FD02236B4D1F
S31508014E306B4A05F50059DFF8BC810520ADF8343019
S31508014E400C920EF07BFD1420C9F8A0400EF076FDF9
S31508014E500CA90622D8F8000008F0B0FC05F5805523
S31508014E600A200EF06BFD0520C5F8A0400EF066FD80
S31508014E7003200EF063FD01264FF080720027594B7F
S31508014E800DF10E010DF10D00CDE904328DF8186012
S31508014E9000F0DAFA9DF80D3039468DF819309DF88B
S31508014EA00E300DF10F008DF81A308DF81B6000F0E9
S31508014EB0D9FA40F60313ADF81E304AF25003ADF89D
S31508014EC030309DF80F308DF81D708DF81C300DEBC4
S31508014ED0040CBCE80F00CDF832000520CDF83E30B1
S31508014EE0CDF83610CDF83A208DF842700EF026FD31
S31508014EF01420C9F8A0400EF021FD0CA91322D8F8F8
S31508014F00000008F05BFC0A200EF018FD0520C5F824
S31508014F10A0400EF013FD344B05200C938DF8347028
S31508014F200EF00CFD1420C9F8A0400EF007FD05226D
S31508014F300CA9D8F8000008F041FC0A200EF0FEFC86
S31508014F400520C5F8A0400EF0F9FC9E213A20FFF78E
S31508014F5005FD6423ADF83430244B05200C930EF07F
S31508014F60EDFC1420C9F8A0400EF0E8FC06220CA9B5
S31508014F70D8F8000008F022FC0A200EF0DFFC052014
S31508014F80C5F8A0400EF0DAFC39460520FFF7E6FC25
S31508014F90174B05200C938DF834700EF0CFFC1420B6
S31508014FA0C9F8A0400EF0CAFC05220CA9D8F80000E1
S31508014FB008F004FC0A200EF0C1FC0520C5F8A04043
S31508014FC00EF0BCFC1DB0BDE8F08300BFE42E04085A
S31508014FD0502D0408C02F0408382D040800C00350BA
S31508014FE03AA01E0B032F003961A0000101A0310070
S31508014FF017A00101C00B00202DE9F04140F25D2701
S315080150006B4886B06B4A6C496C4B0190009704203B
S3150801501005F0B8F96A4B6B4E1B680120C6F82034B7
S315080150200EF08CFC01210520FFF798FC664C012047
S31508015030664D0EF083FC0222072005A9FFF73EFD07
S3150801504023882A8801330392614A9BB2CDE9012359
S3150801505040F26D2223800420584B00925649554A46
S31508015060BDF8147005F08EF92388012B15D00AD9DD
S315080150704FF002082B88A4F8008001339BB2032B5A
S315080150802B8045D02CD801200EF058FC0121042094
S3150801509006B0BDE8F041FFF761BC40F273244D4903
S315080150A04D4A464BCDE90117042017804249414A2A
S315080150B0009405F067F91E213A20FFF74FFC0B21F2
S315080150C03B20FFF74BFC0D216120FFF747FC9E2192
S315080150D03A20FFF743FC00216120FFF73FFCD2E7A6
S315080150E0384601F0B9F940F2A2263C4A3C4C8DED0E
S315080150F0020B324B019203202E4A2F49009684ED6A
S31508015100000B05F03FF9FFF75BFC00232B80BAE79C
S31508015110314B1888381A22F047FB00224FF07C538E
S3150801512022F0ACFB4FF033322E4B22F0A7FB0022C4
S315080151302D4B22F0A3FB4FF4227300932B4B2C4FDC
S3150801514001932C4B1B4AC3E90001CDE902011B4B14
S315080151500420194905F016F93C782CB340F22125AB
S315080151600024254B009501933C7040F21324234BF0
S31508015170104A1149042005F005F90A20C6F8A0804D
S315080151800EF01AF91E490B4A019104200A491D4BD2
S31508015190009405F0F7F81C4B0A20C3F8A0800EF01E
S315080151A00BF9FFF731FE6EE7FFF70AFC2C806AE779
S315080151B0002F0408382D0408502D0408DC2F040894
S315080151C00022002000E00350CC480020CA480020F5
S315080151D0182F04083C2F0408C8480020602F04082B
S315080151E0C00A00203333F33F000059404C2F04080E
S315080151F0FD0F0020A81B0020482E040818300408BB
S31508015200E02D04082830040800D003504FF47370C9
S315080152102DE9F0436C4C9DB06C496D4B6D4A019478
S315080152200090042005F0AEF8012010240EF086FB4C
S3150801523002230126684D694A05F50059DFF8B08150
S315080152400520ADF834300C920EF078FB1420C9F81D
S31508015250A0400EF073FB0CA90622D8F8000008F04E
S31508015260ADFA05F580550A200EF068FB0520C5F84C
S31508015270A0400EF063FB30460EF060FB4FF08072E3
S315080152800027574B0DF10E010DF10D00CDE9043242
S315080152908DF8186000F0D8F89DF80D3039468DF86C
S315080152A019309DF80E300DF10F008DF81A308DF872
S315080152B01B6000F0D7F84AF25003ADF830309DF87C
S315080152C00F308DF81D708DF81C300DEB040307CBDC
S315080152D01B88CDF832000520ADF83E30CDF83610E2
S315080152E0CDF83A208DF840700EF028FB1420C9F845
S315080152F0A0400EF023FB0CA91122D8F8000008F0F3
S315080153005DFA0A200EF01AFB0520C5F8A0400EF03A
S3150801531015FB344B05200C938DF834700EF00EFBFB
S315080153201420C9F8A0400EF009FB05220CA9D8F8EB
S31508015330000008F043FA0A200EF000FB0520C5F824
S31508015340A0400EF0FBFA9E213A20FFF707FB5423F3
S31508015350ADF83430244B05200C930EF0EFFA1420E7
S31508015360C9F8A0400EF0EAFA06220CA9D8F80000FE
S3150801537008F024FA0A200EF0E1FA0520C5F8A04043
S315080153800EF0DCFA39460520FFF7E8FA174B052037
S315080153900C938DF834700EF0D1FA1420C9F8A04098
S315080153A00EF0CCFA05220CA9D8F8000008F006FA86
S315080153B00A200EF0C3FA0520C5F8A0400EF0BEFA81
S315080153C01DB0BDE8F08300BF702F0408502D0408F6
S315080153D0A82F0408382D040800C003503AA01E0B54
S315080153E00300003961A00D0101A0310017A00101D8
S315080153F0C00B002010B54FF4B4740D4982B00420D7
S315080154000C4B0D4A019100940C4904F0BBFFFFF7C0
S31508015410FDFE012300200A4A0A491268C1F8202420
S315080154200621CDE900030AF015F802B010BD00BF48
S31508015430882F04087C300408382D0408502D0408E8
S315080154400022002000E0035010B1044B1B780370C2
S3150801545011B1034B1B780B70704700BF51490020EF
S315080154605049002010B1044B1B78037011B1034B4E
S315080154701B780B70704700BF4F4900204E4900202A
S3150801548003784BB940225B4BC3F8A0200379012B63
S315080154900CD00123037070474021574AC2F8A01067
S315080154A00279012A1DD0002303707047437830B46E
S315080154B0052B12D8DFE803F054453D3503264F4A3C
S315080154C0138801339BB2B3F57A7F138005D1002384
S315080154D00371A0F8013013800376012330BC0370F1
S315080154E07047012BDFD14378012BDCD1444B1B8854
S315080154F01F2B45D88368434A03F001015B081170E5
S315080155008360D0E740490B88072B4FD83F4A847DF3
S31508015510526CC2F380129A402243013382750B8082
S31508015520DBE73B4A138801339BB2022B1380D4D1A4
S31508015530CDE7384A138801339BB2062B3DD0138039
S31508015540CBE72F4A1388422B24D82E4904240978FD
S31508015550002944D02849C1F8A04001331380BCE78B
S315080155608378012B2ED000232A4A254C13802849FB
S31508015570254D224A2B8023800B8013800376ACE7C6
S315080155803F2B24D8C3681F4A03F001015B08117039
S31508015590C36088E7002143791180022B23D0012BB0
S315080155A024D0032B99D10423437096E70023037172
S315080155B0A0F801300B8003768FE7002105231180BF
S315080155C043708AE7002243700376827585E703698B
S315080155D00C4A03F001015B081170036163E7054991
S315080155E0C1F8A040B9E70323437076E70223437065
S315080155F073E700BF00E0035000D00350D0480020F5
S31508015600D64800204D490020CE48002000C003504E
S31508015610D2480020D4480020034B04485A6903F5B0
S3150801562000535A61FFF72CBF008004502022002046
S315080156300123A32104204FF0013230B5364C374DF2
S315080156402376374BA560374D83B02061A182C4F814
S315080156500220E36028460AF099FD237E002BF9D142
S315080156600123A22104204FF00132A57D237601955D
S315080156702A4D2D4BA5602B4D2061A182C4F802202D
S31508015680E36028460AF082FD237E002BF9D1012327
S315080156904FF00132A125042001992376A37DC4F890
S315080156A0022003EB01231D4A0193204BA5821D4DC0
S315080156B02061A260E36028460AF068FD237E002B7C
S315080156C0F9D101234FF00132A0250420019923764F
S315080156D0A37DC4F8022003EB0123104A0193144B5E
S315080156E0A582104D2061A260E36028460AF04EFDAE
S315080156F0237E002BF9D10423019AA17D0D4801EBE4
S31508015700022101910DEB0302194605F007F99DEDFA
S31508015710010A03B030BD00BF20220020D954FE047F
S315080157208C0200BA0080015A880200BA840200BAC3
S31508015730800200BA243104080123A72104204FF06E
S31508015740013230B5364C374D2376374BA560374D88
S3150801575083B02061A182C4F80220E36028460AF0DA
S3150801576015FD237E002BF9D10123A62104204FF034
S315080157700132A57D237601952A4D2D4BA5602B4D2A
S315080157802061A182C4F80220E36028460AF0FEFCE3
S31508015790237E002BF9D101234FF00132A5250420E0
S315080157A001992376A37DC4F8022003EB01231D4A40
S315080157B00193204BA5821D4D2061A260E360284616
S315080157C00AF0E4FC237E002BF9D101234FF00132C4
S315080157D0A425042001992376A37DC4F8022003EBAE
S315080157E00123104A0193144BA582104D2061A26032
S315080157F0E36028460AF0CAFC237E002BF9D104236C
S31508015800019AA17D0D4801EB022101910DEB0302DD
S31508015810194605F083F89DED010A03B030BD00BFB6
S3150801582020220020D954FE049C0200BA0080015AA5
S31508015830980200BA940200BA900200BA2431040808
S315080158400123AB2104204FF0013230B5364C374DD8
S315080158502376374BA560374D83B02061A182C4F802
S315080158600220E36028460AF091FC237E002BF9D139
S315080158700123AA2104204FF00132A57D2376019543
S315080158802A4D2D4BA5602B4D2061A182C4F802201B
S31508015890E36028460AF07AFC237E002BF9D101231E
S315080158A04FF00132A925042001992376A37DC4F876
S315080158B0022003EB01231D4A0193204BA5821D4DAE
S315080158C02061A260E36028460AF060FC237E002B73
S315080158D0F9D101234FF00132A82504200199237635
S315080158E0A37DC4F8022003EB0123104A0193144B4C
S315080158F0A582104D2061A260E36028460AF046FCA5
S31508015900237E002BF9D10423019AA17D0D4801EBD1
S31508015910022101910DEB0302194604F0FFFF9DEDEB
S31508015920010A03B030BD00BF20220020D954FE046D
S31508015930AC0200BA0080015AA80200BAA40200BA51
S31508015940A00200BA243104080123AF2104204FF034
S31508015950013230B5364C374D2376374BA560374D76
S3150801596083B02061A182C4F80220E36028460AF0C8
S315080159700DFC237E002BF9D10123AE2104204FF023
S315080159800132A57D237601952A4D2D4BA5602B4D18
S315080159902061A182C4F80220E36028460AF0F6FBDA
S315080159A0237E002BF9D101234FF00132AD250420C6
S315080159B001992376A37DC4F8022003EB01231D4A2E
S315080159C00193204BA5821D4D2061A260E360284604
S315080159D00AF0DCFB237E002BF9D101234FF00132BB
S315080159E0AC25042001992376A37DC4F8022003EB94
S315080159F00123104A0193144BA582104D2061A26020
S31508015A00E36028460AF0C2FB237E002BF9D1042362
S31508015A10019AA17D0D4801EB022101910DEB0302CB
S31508015A20194604F07BFF9DED010A03B030BD00BFA6
S31508015A3020220020D954FE04BC0200BA0080015A73
S31508015A40B80200BAB40200BAB00200BA2431040896
S31508015A5004234FF4F87230B51C491D4C1D481E4DE0
S31508015A60C4E902011D4985B0C4F80210A382236165
S31508015A70A4F8172028460AF089FB237E002BF9D1C2
S31508015A8005200DF099FC04234FF001310122114D37
S31508015A901348A382C4E902500F4D2361C4F80210CA
S31508015AA0227628460AF072FB237E002BF9D140F2B2
S31508015AB0F715A27D0B490320029201910A4B0B4A65
S31508015AC00B49009504F05EFC05B030BD1000E0B945
S31508015AD020220020D954FE040080015A0101010246
S31508015AE0100000BA60310408643204083031040831
S31508015AF050310408F8B50123332104204FF001324F
S31508015B002E4C2F4D23762F4BA5602F4D2061A18258
S31508015B10C4F80220E36028460AF038FB237E002BEE
S31508015B20F9D10123322004214FF00132244D237685
S31508015B30264BA560A67D244DA0822161C4F80220CA
S31508015B40E36028460AF022FB237E002BF9D1312394
S31508015B5004214FF001320120A382194BA77DA360CE
S31508015B601B4B194D07EB062720762161C4F8022045
S31508015B70E36028460AF00AFB237E002BF9D130237D
S31508015B8004214FF001320120A3820D4BA67DA360AB
S31508015B90104B0D4D06EB072620762161C4F802202D
S31508015BA0E36028460AF0F2FA237E002BF9D1A37D99
S31508015BB003EB062300EE103AF8BD00BF20220020B1
S31508015BC0D954FE04CC0000BA0080015AC80000BAB4
S31508015BD0C40000BAC00000BAF8B501237721042031
S31508015BE04FF001322E4C2F4D23762F4BA5602F4DAA
S31508015BF02061A182C4F80220E36028460AF0C6FAA9
S31508015C00237E002BF9D10123762004214FF001329E
S31508015C10244D2376264BA560A67D244DA0822161BD
S31508015C20C4F80220E36028460AF0B0FA237E002B66
S31508015C30F9D1752304214FF001320120A382194BB2
S31508015C40A77DA3601B4B194D07EB0627207621611B
S31508015C50C4F80220E36028460AF098FA237E002B4E
S31508015C60F9D1742304214FF001320120A3820D4B8F
S31508015C70A67DA360104B0D4D06EB07262076216104
S31508015C80C4F80220E36028460AF080FA237E002B36
S31508015C90F9D1A37D03EB062300EE103AF8BD00BF48
S31508015CA020220020D954FE04DC0100BA0080015AE2
S31508015CB0D80100BAD40100BAD00100BAF8B5012357
S31508015CC0872104204FF001322E4C2F4D23762F4B7E
S31508015CD0A5602F4D2061A182C4F80220E360284601
S31508015CE00AF054FA237E002BF9D1012386200421D8
S31508015CF04FF00132244D2376264BA560A67D244D0F
S31508015D00A0822161C4F80220E36028460AF03EFA1F
S31508015D10237E002BF9D1852304214FF0013201207E
S31508015D20A382194BA77DA3601B4B194D07EB0627C9
S31508015D3020762161C4F80220E36028460AF026FA93
S31508015D40237E002BF9D1842304214FF0013201204F
S31508015D50A3820D4BA67DA360104B0D4D06EB0726BE
S31508015D6020762161C4F80220E36028460AF00EFA7B
S31508015D70237E002BF9D1A37D03EB062300EE103A0F
S31508015D80F8BD00BF20220020D954FE041C0200BA27
S31508015D900080015A180200BA140200BA100200BAA9
S31508015DA0F8B501238B2104204FF001322E4C2F4DDB
S31508015DB023762F4BA5602F4D2061A182C4F80220BE
S31508015DC0E36028460AF0E2F9237E002BF9D1012384
S31508015DD08A2004214FF00132244D2376264BA560F3
S31508015DE0A67D244DA0822161C4F80220E3602846DD
S31508015DF00AF0CCF9237E002BF9D1892304214FF02F
S31508015E0001320120A382194BA77DA3601B4B194DB3
S31508015E1007EB062720762161C4F80220E3602846AD
S31508015E200AF0B4F9237E002BF9D1882304214FF017
S31508015E3001320120A3820D4BA67DA360104B0D4DA7
S31508015E4006EB072620762161C4F80220E36028467E
S31508015E500AF09CF9237E002BF9D1A37D03EB0623D7
S31508015E6000EE103AF8BD00BF20220020D954FE04E6
S31508015E702C0200BA0080015A280200BA240200BA8C
S31508015E80200200BAF8B501238F2104204FF0013210
S31508015E902E4C2F4D23762F4BA5602F4D2061A182C5
S31508015EA0C4F80220E36028460AF070F9237E002B25
S31508015EB0F9D101238E2004214FF00132244D237696
S31508015EC0264BA560A67D244DA0822161C4F8022037
S31508015ED0E36028460AF05AF9237E002BF9D18D236F
S31508015EE004214FF001320120A382194BA77DA3603B
S31508015EF01B4B194D07EB062720762161C4F80220B2
S31508015F00E36028460AF042F9237E002BF9D18C2357
S31508015F1004214FF001320120A3820D4BA67DA36017
S31508015F20104B0D4D06EB072620762161C4F8022099
S31508015F30E36028460AF02AF9237E002BF9D1A37DCE
S31508015F4003EB062300EE103AF8BD00BF202200201D
S31508015F50D954FE043C0200BA0080015A380200BA3C
S31508015F60340200BA300200BA2DE9F04F85B0FFF7C6
S31508015F705FFBA14EA14F86ED000AFFF7DDFB87ED1A
S31508015F80000AFFF75DFC9E4C9E4D84ED000AFFF763
S31508015F90DBFC85ED000AFFF75BFD1923DFF8BC8200
S31508015FA09949A8F814300423C8F810304FF0013382
S31508015FB0C8F80230012388F81830944BDFF8A0920C
S31508015FC0C8E9021348460AF0E1F898F81830002B98
S31508015FD0F8D11823A8F814300423C8F810304FF064
S31508015FE00133C8F802300123874A88F81830884BEC
S31508015FF0DFF86C92C8E9022348460AF0C7F898F810
S315080160001830002BF8D197ED005AF6EE007AD6ED46
S31508016010005A77EEC57A95ED007ADFED7E6A94ED42
S31508016020006A76EEC76A87EEA57AC6EE867ABCEE70
S31508016030C77AFCEEE77A17EE102A774BDFF824B217
S315080160401A8017EE903AABF80030FFF737FEDFF803
S3150801605018A2DFF818928AED000AFFF7A1FE6F4B26
S31508016060DFF80C8283ED000AFFF70CFF10EE100A29
S3150801607021F0ACFBC9E90001FFF73CFD10EE100A5F
S3150801608021F0A4FBC8E90001FFF7A6FD624B644AAB
S315080160901B880320029340F2A5230093614B82EDEE
S315080160A0000A61490193614A614B04F06BF9BBF837
S315080160B000305E4A029340F2A62300935D4B03200B
S315080160C0019359495A4B04F05DF9386821F07EFB72
S315080160D040F2A7230093584BCDE90201534A019395
S315080160E00320534B504904F04DF9306821F06EFBFB
S315080160F04FF42A730093514BCDE902014B4A0193A0
S3150801610003204B4B484904F03DF9286821F05EFB12
S3150801611040F2A92300934A4BCDE90201434A019370
S315080161200320434B404904F02DF9206821F04EFB2A
S3150801613040F2AA230093434BCDE902013B4A01935E
S3150801614003203B4B384904F01DF9DAF8000021F029
S315080161503DFB40F2AB243C4BCDE90201334A0193A6
S3150801616000940320324B304904F00CF92B4B40F2D2
S31508016170AD24186821F02AFB4FF42B73334ACDE975
S315080161800201009301920320294B284A264904F06B
S31508016190F9F8D9E90067009440F2AE242C4BCDE911
S315080161A0026701930320224B204A1F4904F0EAF8AB
S315080161B0D8E90067274BCDE90267019300941C4B88
S315080161C003201A4A184904F0DDF8154A40F2AF24AB
S315080161D0106821F0FBFA06460F461F4A0320019272
S315080161E0CDE90267124B114A0F49009404F0CAF827
S315080161F005B0BDE8F08F00BF182200201C22002040
S315080162001022002014220020D954FE04640000BA8A
S31508016210600000BACDCCCC3EDA4800200822002026
S31508016220042200206831040850310408303104087A
S315080162305032040874310408803104089031040886
S31508016240A0310408B0310408C0310408CC3104086F
S31508016250D8310408E4310408F43104082022002066
S315080162600080015AD84800200C220020401D002039
S31508016270381D0020012300202DE9F0479846022702
S3150801628004464FF0200A88B01A46062109F05EF93D
S31508016290434638464146042209F058F94346204602
S315080162A00422052109F052F95A4E43463946404619
S315080162B0042209F04BF9434638460422062109F01F
S315080162C045F906F58059042239464346384606F506
S315080162D0005609F03BF9C6F840A03220C6F8A0706E
S315080162E00DF06AF8C9F840A03220C9F8A0700DF07F
S315080162F063F80423484DC9F870304146242007F055
S31508016300D9FB284604A9CDF81940CDF81140CDF896
S31508016310154007948DF8108009F016FE4FF47A633C
S315080163202A6BEB61AB6943EA0803AB614FF48069F9
S315080163303A4EC6F800903A4BC5F80C80C3E90244B8
S315080163401C809C709C80DC821C76FFF70DFEEF603A
S31508016350C6F88090BFF34F8FBFF36F8F284609F0B9
S3150801636047FE2146242007F0A5FB23463A4639462F
S31508016370404609F0EBF82B4A2B4B12881B88DFF8AD
S31508016380D090D1B2294F029189F800301B0A3B708F
S315080163906C23DFF8C0802648120A264E264D274C64
S315080163A0017088F800200093254B2A46214601935F
S315080163B00320334603F0E6FF98F800302A46029395
S315080163C06D2300931F4B214601930320334603F0A7
S315080163D0D9FF4FF06E0C99F800302A4602931A4BF2
S315080163E021460193CDF800C03346032003F0CAFFC6
S315080163F04FF06F0C3878154B029001932A463346B5
S3150801640021460320CDF800C003F0BCFF08B0BDE863
S31508016410F08700BF00C003500080045000E100E08F
S3150801642020220020DA480020D84800204E490020C2
S3150801643051490020703204083031040850310408EB
S315080164400832040818320408283204083C320408C1
S315080164504F4900205049002038B521F095F90F4BD6
S31508016460044618680D4621F0B1F902460B46204646
S31508016470294621F04BF80A4B044618680D4621F0C7
S31508016480A5F902460B462046294621F021FB054B74
S3150801649041EC100BC3E9000138BD00BF08220020FA
S315080164A00C220020301D0020104B70B5186855ECE1
S315080164B0104B21F08BF90E4B0E4ED3E9002321F038
S315080164C025F80D4BD3E9002321F0D8F902460B46EE
S315080164D0D6E9000121F01AF802460B46204629465C
S315080164E021F0F6FA41EC100B70BD00BF0422002022
S315080164F0301D0020381D0020401D002070B52E4D8E
S3150801650086B06B6903F4A073B3F5807F3BD1F0269F
S31508016510294604A809F08AFB049C284A0420CDE9E7
S315080165200124274B274A2849009603F02BFF40F2FE
S31508016530BA43F22203FB04F12448009280FB01408E
S315080165400844C917C1EBE0218900214889B20291A3
S31508016550018020481B4A1C490190194B042003F06D
S3150801656011FF02232846EB6009F0BAFA2A20002116
S3150801657007F0A0FA6422184B18481A7006B0BDE84D
S3150801658070400CF027BEFF2415490E4A01910120DF
S315080165900D490B4B009403F0F5FE02232846EB60E8
S315080165A009F09EFA2A20002107F084FA0B4806B062
S315080165B0BDE870400CF00EBE0040005AAC3204082B
S315080165C07433040884320408A03204088100088060
S315080165D0EC0F0020B4320408FE0F002048220020E8
S315080165E0C83204082DE9F0411C4C82B001212A2049
S315080165F007F060FA204609F073FA02214FF4B060F9
S3150801660008F074F800222046154909F0CDFA00234E
S31508016610064640F2BA410222124DDFF85480E9607B
S315080166206A8064211A460096204688F8056009F0B2
S31508016630D7FA41F201230C4F41462A46A860204663
S315080166403B8008F0E1FF3A462046084909F00EFA70
S315080166500123E36002B0BDE8F08100BF0040005AA3
S31508016660404B4C00D00B0020C40B0020C80B002067
S315080166703C220020014B1888704700BFEC0F002010
S31508016680034BD3F80100012838BF0120704700BF2A
S31508016690602D002070B5044640F21316314A84B0C5
S315080166A00320314B01923149314A0096029403F095
S315080166B069FE304D304AD5F8013012881819B2F5FD
S315080166C0C86FC5F8010006D22C4B2D4A00FB03F30F
S315080166D0B2EBF30F21D3D5F80530C01AB0F5167F02
S315080166E029D240F2311427481F4B214A1F490190EC
S315080166F00094032003F046FEFFF774FF0A200CF00E
S3150801670099FE00230146204ACDE900331F480CF0C3
S315080167109DFC0246B8B904B070BDD5F80530C01A5B
S31508016720B0F5167FF7D3284605F032FBD5F80130C8
S31508016730C5F80530EFE70F4805F02AFBD5F8013013
S31508016740C5F80530CDE740F2391411490292019195
S315080167500120054B064A0549009403F013FE04B0CF
S3150801676070BD00BFEC32040858330408A03204088F
S3150801677084320408602D0020EC0F00202143658730
S31508016780AC6824000C330408FD6401084822002083
S3150801679034330408014805F0FBBA00BF602D002018
S315080167A006F0BCB800487047481D0020084B93F80E
S315080167B0363053B1223BDBB2112B04D80548D840F9
S315080167C000F001007047002070470120704700BFA4
S315080167D0481D002003800200014B1878704700BF4E
S315080167E0481D002030B50446A7250F4A85B00192F9
S315080167F003200E4B0E4A0F490095029403F0C2FD81
S31508016800002240F2011001210B4B1A60C3E9012253
S31508016810C3E90322A3F81D005A6119705C8005B00B
S31508016820BDE8304001F0BCBAB83304085035040855
S3150801683090330408AC330408481D00202DE9F041C3
S315080168404FF0C20C04460F4616461D46164B86B037
S31508016850DFF8648001930320144BCDE90247CDE9A3
S315080168600465134A1349CDF800C003F08BFD98F867
S3150801687000301BB1B8F80200A04202D006B0BDE84C
S31508016880F081A8F80470A8F80660A8F8085001F085
S31508016890F7F918B1012388F80130EFE706B0BDE82A
S315080168A0F04101F07DBA00BFDC330408283504083D
S315080168B090330408AC330408481D002030B505465A
S315080168C0E624104A85B0019203200F4B0F4A10495E
S315080168D00295009403F056FD0022002000210D4B7D
S315080168E0C3E904011A80C3F80220C3F8062083F815
S315080168F020201A761A7700F07BFF05B0BDE83040F4
S3150801690001F042BA10340408043504089033040827
S31508016910AC330408481D002038B54FF0010C00239C
S315080169200B4D1A460CFA00FC02E00132202A09D066
S3150801693055F8234003336445F7D102EB420205EBD0
S315080169408205A96015F0A2F8B0FA80F0400938BDB1
S3150801695098220020F0B500220125074613461C4E51
S3150801696085B0854002E00133202B0ED056F822402F
S315080169700332AC42F7D1002203EB430306EB830350
S31508016980C3E90112012005B0F0BD0022104B1C68B5
S315080169900CB95C689CB10132202A03F10C03F6D1CB
S315080169A040F2CF140B49012001910B4B0B4A0C49BC
S315080169B00297009403F0E6FC002005B0F0BD02EB57
S315080169C0420246F8225006EB8206C6E90114D9E7C7
S315080169D09822002038340408EC340408903304085B
S315080169E0AC330408F0B52DED028B40F205168BB0D9
S315080169F000964FF48376714C714A724D0320CDE9A6
S31508016A000124714B714A724903F0BCFC2A6800964D
S31508016A1040F20D166F4B6E49CDE9013203206A4BE0
S31508016A206A4A03F0AFFC286805F07CFB22466A49EE
S31508016A306A4802F0D1FFFFF71DFC6949634A624BB8
S31508016A40032001910096624903F09CFCFDF752FC74
S31508016A5004F024FE04F08CFF04F042FF05F018FA56
S31508016A60002123460522182015F0FEF80DF11F0115
S31508016A7008A815F065F9002844D040220021594894
S31508016A802AF09BFE0022584B03F5C0719A60C3E9B0
S31508016A9000220C338B42F9D154490120FFF75AFFE2
S31508016AA0534C54490D20FFF755FF53490E20FFF764
S31508016AB051FF02F051FF204605F0CEF801F0BCF86F
S31508016AC00E23C37101F0B8F8032327780372012F47
S31508016AD001D16378A3B301F0B3F80123414E86F8D7
S31508016AE0363001F0A5F896F83630837001F0BCF817
S31508016AF004F028F900F082FEFDF70CFC0BB0BDECA2
S31508016B00028BF0BD04469DF820209DF821309DF8A2
S31508016B102210CDE903329DF823309DF82420CDE9D2
S31508016B20013100929DF825300D21344A344822F06E
S31508016B3043F80C222146324B162015F095F89CE7AE
S31508016B4001F07AF8E37A274E037001F075F8237B92
S31508016B50437001F071F8637B837001F06DF8A37BD4
S31508016B60C37001F069F80771208A02F095FED4F81E
S31508016B700220DFED247A08EE102A2B6828EE278AF0
S31508016B8013F0680F0CBF0F230E2386F8363001F079
S31508016B904FF8BCEEC88A18EE103AA0F8033001F097
S31508016BA01BF8D4F80630036001F016F8A37A0372CD
S31508016BB001F016F801F044F893E700BF50340408D1
S31508016BC05834040800210020F834040890330408D6
S31508016BD0AC3304086C3404087C340408843404088F
S31508016BE088340408481D002098220020C57C010825
S31508016BF0782D002079880108658801089C340408E5
S31508016C006822002000007A444FF0010C30B5154D7A
S31508016C1000222B46044685B00CFA00FC04E001323A
S31508016C20202A03F10C030ED019686145F7D159687A
S31508016C300029F4D002EB420205EB8205A8688847D1
S31508016C40012005B030BD4FF4F375074902200191C3
S31508016C50064B074A07490294009503F093FB002067
S31508016C6005B030BD98220020B8340408DC34040885
S31508016C7090330408AC33040800B583B00CF076FBF6
S31508016C806A460CF033FC009803B05DF804FB00BFBC
S31508016C9000B54FF47A7083B00CF0CCFB00230146A3
S31508016CA0CDE90033034A04480CF0C4FA03B05DF891
S31508016CB004FB00BFA16701087822002010B54FF434
S31508016CC0F774084A82B0019204200749074B084A1B
S31508016CD0009403F057FB0021092002B0BDE81040DB
S31508016CE0FFF71ABEA835040894350408D8390408EC
S31508016CF07435040810B540F22B24084A82B0019273
S31508016D0004200749074B084A009403F03BFB00217E
S31508016D100B2002B0BDE81040FFF7FEBDC8350408D8
S31508016D20943504087C3904087435040810B540F212
S31508016D30FD24084A82B0019204200749074B084AF4
S31508016D40009403F01FFB00210C2002B0BDE810409F
S31508016D50FFF7E2BDF435040894350408F43804084D
S31508016D607435040830B583B0FFF720FDA0B91E4D70
S31508016D7004462B78012B11D93C20FFF78BFC4EF6E4
S31508016D8060200CF057FB23460146CDE90044174A1B
S31508016D9017480CF05BF9C8B903B030BD0120FFF7FD
S31508016DA079FC2B784FF47A700133DBB22B700CF037
S31508016DB041FB23460146CDE900440C4A0C480CF038
S31508016DC045F90028E8D04FF4387401E040F2EB2485
S31508016DD0084901200191084B084A0949009403F022
S31508016DE0D1FA03B030BD00BF524900202D6D01080C
S31508016DF01C240020F02D04081439040874350408ED
S31508016E0094350408014B188880B27047DE48002083
S31508016E1010B50446FDF79CFAFFF7C4FC80F8364026
S31508016E20FFF7C0FC044600F003FF94F83630837080
S31508016E30BDE8104000F0E8BE2DE9F043DFF8909078
S31508016E40DFF890801E4D87B0FDF7DCFA03461D4C2E
S31508016E5004A8002B30D0FDF71BFB68B3DDE904015C
S31508016E6020F0C6FF20F0B2FC40F2511C06460F4640
S31508016E7043462A460320CDE902671349CDF8049013
S31508016E80CDF800C003F07EFA23781D2BDCD8DDE9A6
S31508016E90040120F0ADFF26780C4BF6B203EB86030E
S31508016EA0186023780133DBB22370FDF7ABFA03468A
S31508016EB0044C04A8002BCED107B0BDE8F08300BF6F
S31508016EC07435040853490020943504087C240020AD
S31508016ED0143604084C3A04082DE9F04F40F26714B9
S31508016EE091B000944FF4B674A948AA4EAA4BAB4A7E
S31508016EF0AB490190042003F045FAAA4809F046F97E
S31508016F003378A94A0133DBB233703178A24BCDE924
S31508016F1001210420A14AA249009403F033FA3378E7
S31508016F20032B06D03378022B00F0158111B0BDE88A
S31508016F30F08F4FF4B8749D4A9D4B12780420019343
S31508016F400292954B954A9649009403F01BFA994B80
S31508016F501B889BB2B3F5D25F80F0EC80934B1B780C
S31508016F60132B40F2FE80944D4FF0C20C0024934B34
S31508016F708A4A8B490193924B0420CDF800C08E4F63
S31508016F80DFF850B29A469146884603F0FBF9079511
S31508016F9057F8040B20F01AFCC525CDE90401CDE903
S31508016FA001B453464A46414604200134009503F08C
S31508016FB0E9F9142CECD17F4C7F482188079D89B2C9
S31508016FC0FBF702FCDFF810822188DFF810924046B1
S31508016FD089B289ED000A1FF0C7FBD9F8000020F035
S31508016FE0F5FBD8F800A0CDE90401504620F0EEFBE8
S31508016FF0CB230093734BCDE90201684A0320684904
S3150801700001936F4B03F0BEF999ED000ADFED6E7A35
S31508017010F2EE046A98ED007A60EE277A27EE267A70
S31508017020FCEEE77ABCEEC77A17EE903A002717EE20
S31508017030101A0CAC654AC4E90177ADF837309BB232
S3150801704013805C4B0C971888ADF8331080B2C4F8DE
S315080170500B70FBF741FB0246564BD9ED000A18881F
S315080170600DF1270198ED000A80B291461FF018FE2E
S31508017070504B98ED000A188880B21FF0F5FE9DF86E
S31508017080273080468DF83B308DF83C908DF83600D8
S3150801709000F0CEFD9DF827308370FFF783FB454B43
S315080170A00D211B8880F837802046ADF831308DF8E0
S315080170B0357000F08FFEE4230093BDF83730ADF844
S315080170C03D000493BDF8333003200393BDF83130F6
S315080170D0324A02933E4B32490193394B03F052F936
S315080170E0204604F03BF9002840F0B08000F098FEF5
S315080170F018B1FFF771FB002872D100F091FE002844
S3150801710000F0BC80FFF768FB002800F0AB80FFF7B2
S3150801711049FB284F3B888386FFF744FB848E00F0A2
S3150801712087FD0134048000F06FFD3B8801339BB273
S315080171303B8000E0204D0022002113461B480270C7
S3150801714005EB830201331E2B1160F9D1002333703D
S3150801715011B0BDE8F08F142011B0BDE8F04FFDF76E
S3150801716035B9124B144D1A78D3B2132A98BFD9B22E
S315080171703FF6FAAE5A1E05EB830005EB8202013390
S3150801718009B112680260D9B21329F3D9ECE600BF36
S315080171904836040854490020283A04087435040876
S315080171A0943504080080015A6C36040853490020B6
S315080171B088360408DE4800207C240020A03604080E
S315080171C0143A0408C03604080000C842DC48002006
S315080171D0E4360408B4360408F42400207046002076
S315080171E0FFF7E0FA0027C777FFF7F6FA00288ED0EF
S315080171F0FFF7D8FA037E002B89D0FFF7D3FA1D23B0
S315080172008DF8293043888DF82A708DF8283010A911
S3150801721011E9030094E80C00ADF80410090C0AAF53
S3150801722000908DF8061097E8030000F0A5FE0028E7
S315080172303FF46DAFFA24174B029001930120164BC8
S31508017240164A1749009403F09DF860E7E92300936D
S31508017250144B0290019301200F4B104A104903F079
S3150801726091F843E74FF483740F4B022001930B4ABD
S31508017270094B0B49009403F085F848E74FF48174EC
S315080172800A4B02200193054A034B0549009403F072
S3150801729079F837E71C370408143A040874350408E2
S315080172A094350408003704085037040834370408AD
S315080172B030B5424885B008F069FF414B1B78E3B900
S315080172C03C20FFF7E7F93F4B1B889BB2B3F5D25F2A
S315080172D042D2FFF76BFA40F2A11405463A4A042056
S315080172E03A4B3B49019202953A4A009403F04AF80F
S315080172F0FFF75CFA70B905B030BDFDF705F820B99E
S3150801730005B0BDE83040FDF741B805B0BDE83040ED
S31508017310FFF792BD4FF4D4752F4C304922682B4B99
S315080173200132CDE90112042029492260294A009532
S3150801733003F028F800F050FC2368436000F050FC85
S31508017340FCF7E2FF002836D10120FDF71FF805B04A
S31508017350BDE83040FFF7C0BDFFF728FA0028B8D0CE
S315080173604FF4CC741E481B4A1949184B01900094D6
S31508017370032003F007F8FCF7EBFFFFF713FA0823DE
S3150801738080F83630FFF70EFA044600F051FC94F8FF
S31508017390363040F21B24837000F036FC1149042074
S315080173A00191114B0B4A0A49009402F0EBFF0F4871
S315080173B00BF010FF8DE7FFF73FFDC8E70080015A84
S315080173C055490020DE480020A4370408F839040886
S315080173D0943504087435040818240020C4370408B1
S315080173E0643704088C370408A83904085C2400208B
S315080173F0844638B310B4144B1A78132A13D81A785A
S31508017400124CD3B2132A98BFD9B20DD85A1E04EB1F
S31508017410830004EB8202013309B112680260D9B212
S315080174201329F3D900E0094CD4ED117A9FED087AB6
S3150801743067EE877AFCEEE77A0120CCED007A5DF8F3
S31508017440044B7047704700BF534900207C24002035
S3150801745000007A4470B504464FF4FF761F4A204D62
S3150801746082B0204B204901920420204A00962C70B4
S3150801747002F088FF4EF660200BF0DCFF0023014680
S31508017480CDE900331A4A1B480BF012FE80B90022D7
S315080174904FF0000C134618481849027001EB830295
S315080174A001331E2BC2F800C0F8D16CB102B070BD11
S315080174B040F20325124A012001920A4B0B4A0A4956
S315080174C0009502F05FFFE2E7FCF71EFF0028EDD109
S315080174D0012002B0BDE87040FCF758BFDC3704084C
S315080174E055490020C0390408943504087435040840
S315080174F0BD6C01085C240020534900207C2400202F
S31508017500F02D040810B540F21B24084982B00191F8
