S00A00005033412E73333726
S31508012000C00A00209DD30108E94B010891BC0308C9
S3150801201039310208854C0108214D010899D3010877
S3150801202099D3010899D3010899D3010899D30108CD
S3150801203099D30108246B0408C14D010899D30108F5
S3150801204099D3010899D3010899D3010899D30108AD
S3150801205099D3010899D3010899D3010899D301089D
S3150801206099D3010899D30108E162010899D30108B6
S3150801207099D3010899D3010899D301086D45020836
S3150801208099D3010899D3010899D3010899D301086D
S3150801209099D3010899D3010899D3010899D301085D
S315080120A099D3010899D301084DD9010899D3010893
S315080120B099D3010899D30108F1DA0108CDDA0108A3
S315080120C099D3010899D301084D65030899D30108E5
S315080120D08D6F030867220408632204087D670308D5
S315080120E0732204086B220408656F03086F2204082B
S315080120F0CD6F03089D4903083D700308614B03082A
S3150801210099D301082D4B010899D3010899D30108E0
S3150801211099D3010899D3010899D3010899D30108DC
S3150801212099D3010899D3010899D3010899D30108CC
S3150801213099D3010899D3010899D3010899D30108BC
S3150801214099D3010899D3010899D301080000000021
S31508012150013800D0FCE77047C0290AD0F0B5B1F5BF
S31508012160807F04469FB00FD0802904D029201FB054
S31508012170F0BD0F2070472498002848D024984FF4C2
S3150801218086650A90012006E0249800284DD00A9019
S3150801219040F2344501200B900195212010250C951C
S315080121A00D9025980E900AA8102501269FED247BEF
S315080121B04FF0210EDFF898C00F9012A810951196CE
S315080121C0129213961495CDF854E0CDF808C00390F1
S315080121D08DED047B9FED1C7B01AF069307908DED7A
S315080121E0087B16973BB306AA1792042740F61102F5
S315080121F01126CB0816AD0EA91AA8189719961A947E
S315080122001B951C931D920FF04DFF1FB0F0BD0A9050
S315080122104FF4826501200B900195212010250C951C
S315080122200D9025980E900120BEE7249840F214459A
S315080122300A900120EFE702AAD6E700BFAFF30080B4
S3150801224010000010112800001000000011280000DD
S31508012250AC6E0408000000002DE9F04F2DED028B4D
S31508012260934608241E460246A9B0DDF8D0A0DDF83B
S31508012270D490CDE90601414021FA04F34B40980771
S3150801228004F1080418BF9B00202C1A44F4D1BC4B56
S31508012290A3FB0213DB0803EBC313D21AB94B02F5EE
S315080122A006271B7807F55067002B00F0B780B64C58
S315080122B08123049323464FF000083C46CDF80CB021
S315080122C00593A4F50625059AA5F550635B0952F809
S315080122D0232004F01F00C240D20718D4AB4A52F893
S315080122E02330C340DB0700F18780DDF80CB02746B1
S315080122F0BBF1000F6FD0B8F1000F18BF4746002099
S31508012300369B1F6029B0BDEC028BBDE8F08FBAF190
S31508012310000F02D00023CAF80030B9F1000F02D02D
S315080123200023C9F800301027DFF87CB20023DBF858
S3150801233000003246214600971DF0EEFF03460028AD
S315080123404CD1BAF1000F00F0F2801023CAF8003020
S3150801235003F1BC43326803F5BA1303F5E8539A420D
S3150801236040F0EA80B9F1000F11D04B462146DBF85F
S31508012370000018AA1EF024F80346002840F0E5805C
S31508012380D9F80030DAF800209B1AC9F80030D6E9E6
S315080123900223DDE90610834208BF8A4200F0DD8088
S315080123A0774BA5F6FF45A3FB0523DB0803EBC31310
S315080123B0ED1A05F5062404F55064049B013B0493C4
S315080123C07FF47FAFDDF80CB0BBF1000F03D04746B1
S315080123D0B8F1000F93D16FF08B0093E76C4A9042E6
S315080123E000F0AA801232904200F0A680694A934210
S315080123F0CDD06FF0910085E7614BA5F6FF42A3FBAF
S315080124000213DB0803EBC313D21AB8F1000F08BF96
S31508012410A04602F5062404F55064CEE70BF07AFBD4
S3150801242004460028E5D19FED548B0146402208A8B1
S3150801243030F07EF92146402218A830F079F9CDE925
S31508012440037B554DDFF860814F4C0596CDF8D0A03A
S315080124502F4607F10F06D8F8000010223B4608A9B7
S31508012460009610352FF024F8F8B108AB9E464FF0C8
S31508012470010BDFF818C103EB800A5EF8042BA2F5FD
S315080124800623A3F550635B0954F8231002F01F02D3
S315080124900BFA02F2114344F823105CF82310D645CF
S315080124A021EA02014CF82310E7D100963B46102297
S315080124B0D8F8000018A92FF004F860B318AB1A462B
S315080124C003EB8000D4E9001303EB010EA16823692D
S315080124D08E44E16801268E440EEB0301A646DFF819
S315080124E0ACC052F8043BA3F50627A7F550677F0948
S315080124F05CF8274003F01F0306FA03F323434CF85D
S31508012500273029B98CED008B8CED028BCCF8101095
S315080125109042E6D17446214B9D4299D10123DDE9CA
S31508012520037B184A059EDDF8D0A01370C0E61C4B44
S3150801253032689A423FF42BAF2146DBF800001DF0C2
S3150801254083FF00283FF423AF45E7114A9042F3D0B1
S31508012550144A90427FF44AAFEEE7DDF80CB02746FD
S31508012560BBF1000F3FF4CBAE7368012B7FF4C7AE06
S315080125706FF08400C6E600BF0000000000000000FE
S31508012580813FE00F88490020C0380020281E00201E
S31508012590FFDF00F0FEDF00F0006D080000710800A3
S315080125A0105D175E11E000F0540C002000000000D9
S315080125B0002370B5404C05468AB0E36318B100881C
S315080125C0236017F097FF3D482FF05DF93C4E3D4BD0
S315080125D0304633603C4B73602BF0F3FF00213046E5
S315080125E01EF03CF932A3D3E90023A062C4E906230D
S315080125F02BF0F2FFD4E9062319431043C4E9060177
S31508012600CDE900014FF0FF334FF0FF32A06A2FF0FA
S31508012610B5F902224FF0FF31A06A2FF0B4F9012073
S3150801262017F0C4FC4FF4007300222849A06A2FF062
S31508012630FDF9B0F5007F38D100239422CDE907339F
S3150801264009933C23CDE9033205939623A06A03A98E
S3150801265006931EF021FA35B3287C18F025F90546AC
S31508012660F0B9A06A2FF0D1FA18F0CCF817F080FC6F
S3150801267020B14FF48070002115F0E2FC17F088FCB8
S3150801268020B14FF40060002115F0DAFC2CF06DF84A
S3150801269001201EF037F90E4A0E49A06A2BF08FFF6A
S315080126A028460AB070BDFF20D7E70725F8E700BF1F
S315080126B00DD5015520000000601E0020690345EC78
S315080126C0303E0020319E0208403E0020183C002082
S315080126D067E50308A7E5030810B5374C2DED028B0E
S315080126E0D4ED017AD4ED026A94ED037A0328C4ED98
S315080126F0007AC4ED016A84ED027A84ED030A82B098
S3150801270004D8002002B0BDEC028B10BDDFED2B8A88
S3150801271077EEA87A77EEA67A77EE877AB5EE006A2B
S3150801272030EE278A28EE068A18EE100A25F0A4FE4E
S315080127301FA3D3E9002326F069F9DFED217A2346A1
S31508012740B0EE680A002808FE278A04F11002F3ECA5
S31508012750017A77EEC87A67EEA77A9A4230EE270AA7
S31508012760F5D1F5EE007A20EE270AB5EE400AF1EE2C
S3150801277010FA17D4B1EEC07AC7EE087AB0EE007A2D
S31508012780F4EEC77AF1EE10FAC8BFC820BADC9FED9D
S315080127900D7A67EE877AFCEEE77ACDED017A9DF838
S315080127A00400AFE727F0E8FFB0EE407AE4E700BFA0
S315080127B07B14AE47E17A843FA44300200000000061
S315080127C00AD7233C0000C842F8B5DFEDAD7A2DEDF6
S315080127D0028B06460446034600F15005B3EC017A1E
S315080127E0AB4277EE877AF9D1B3EE047A87EE878A18
S315080127F018EE100A25F040FE9DA3D3E9002326F022
S3150801280005F9DFEDA07A33469FED9D7A002808FE8B
S31508012810278AF3EC017A77EEC87A67EEA77AAB4294
S3150801282037EE277AF5D1F3EE047A87EE270AB5EE65
S31508012830400AF1EE10FA00F11381F1EEC07AC7EE03
S31508012840887A17EE900A25F017FE8BA3D3E90023A1
S3150801285026F0DCF800285FD18B4B8C4993ED007A82
S3150801286091ED006AB4EEC76AF1EE10FA884BD3ED22
S31508012870006A23D49FED826A0023F4EC017AB4EE50
S31508012880E77AF1EE10FA0ADDF4EEE67AF1EE10FADD
S31508012890C8BF36EE276A03F10102C8BFD3B2AC42FC
S315080128A0EBD1002B60D007EE903AF8EEE77A86EE88
S315080128B0270ABDEC028B81ED000AF8BDB4EEE66A83
S315080128C0F1EE10FAD6DD734B9FED6D5AF7EE005A0D
S315080128D0FFEE004A864603F1500C02E0D0B29C4551
S315080128E069D0F4EC017A76EE677AF4EEE57AF1EEE0
S315080128F010FAE3EC017A00F10102EFD5F4EEE47A7D
S31508012900F1EE10FA0EF10107E8DD54ED017A5FFAEE
S3150801291087FE35EE275AE2E73046B0EC017AB0EE8B
S31508012920476AF0EE476AF0EC017AF4EE477AF1EE7F
S3150801293010FAF4EE667A37FE877AF1EE10FA48BF96
S31508012940F0EE676AA84236EE276AECD1BDEC028B37
S3150801295036EE476AF3EE027A36EE666A86EE270A9D
S315080129604A4981ED000AF8BD3046B0EC017AB0EE6D
S31508012970476AF0EE476AF0EC017AB4EE677AF1EE4F
S3150801298010FAF4EE676A48BFB0EE677AF1EE10FA0C
S3150801299077FEA66AA84236EE276AECD1BDEC028B11
S315080129A076EE477AB3EE027A77EEE67A87EE870A0B
S315080129B081ED000AF8BD142806D007EE90EAF8EE74
S315080129C0E77A85EE270A74E73046F0EC015AF0EE0D
S315080129D0654AB0EE655AF0EC017AF4EE657AF1EEE5
S315080129E010FAF4EE457A77FEA55AF1EE10FA48BFC9
S315080129F0B0EE675AA84274EEA74AECD174EEE57AAE
S31508012A00F3EE025A77EEC57A87EEA50AB4EEC07AD6
S31508012A10F1EE10FA204B83ED000A7FF74AAFF4EE88
S31508012A20C06AF1EE10FA7FF544AF30EE467AF7EE5A
S31508012A30007AB4EEE77AF1EE10FA04DD36EE270AEB
S31508012A4083ED000A35E7FFEE006AB4EEE67AF1EEA9
S31508012A5010FA7FF52EAF36EE670A83ED000A28E7EE
S31508012A6027F08AFEF0EE407AE9E600BFAFF3008070
S31508012A707B14AE47E17A843F333333333333C33F71
S31508012A80000000000AD7233C6C0D002008440020F2
S31508012A90700D0020B443002004440020000000000B
S31508012AA038B52DED048BC9B30446DFED2B7A034601
S31508012AB000EB8105B3EC017A9D4277EE877AF9D16D
S31508012AC007EE101AF8EEC78A87EEA88A18EE100ADA
S31508012AD025F0D2FC1EA3D3E9002325F097FFDFEDED
S31508012AE01F7A9FED1D7A002808FE278AF4EC017AE1
S31508012AF077EEC87A67EEA77AA54237EE277AF5D137
S31508012B0087EE289AB5EE409AF1EE10FA19D4B1EE8D
S31508012B10C90A80EE080ABDEC048B38BDDFED0E7AD2
S31508012B2087EEA79A19EE100A25F0A6FC08A3D3E9A1
S31508012B30002325F06BFF9FED098A002809FE088A04
S31508012B40E0E7B0EE490A27F017FEE2E7AFF30080A7
S31508012B507B14AE47E17A843F000000000AD7233C84
S31508012B602DE9F84F04242DED068B0646DFED648A20
S31508012B70B3EE0E9A0D4610EE108A174603680B60DF
S31508012B8043684B6083688B60C368CB6006EB84033C
S31508012B9093ED008AB4EEE88AF1EE10FA4FEA840959
S31508012BA017DDB4EEC98AF1EE10FA12D553ED019A82
S31508012BB0F4EEE89AF1EE10FA0BDDF4EEC99AF1EEAD
S31508012BC010FA06D513ED02AAB4EEE8AAF1EE10FA48
S31508012BD00ADCA94489ED008A0134E4B2BC42D5D3A2
S31508012BE0BDEC068BBDE8F88FB4EEC9AAF1EE10FA72
S31508012BF0EFD553ED03AAF4EEE8AAF1EE10FAE8DDF3
S31508012C00F4EEC9AAF1EE10FAE3D553ED047AF4EE1F
S31508012C10E87AF1EE10FADCDDF4EEC97AF1EE10FA93
S31508012C20D7D57AEEE77A17EE900A25F025FC2EA37A
S31508012C30D3E9002325F078FC7AEE6A7A824617EE04
S31508012C40900A8B4625F018FC29A3D3E9002325F021
S31508012C506BFC02460B465046594625F0AFFA79EE0B
S31508012C60CA7A824617EE900A8B4625F005FC22A3FE
S31508012C70D3E9002325F058FC02460B46504659462F
S31508012C8025F09CFA78EE697A824617EE900A8B4609
S31508012C9025F0F2FB18A3D3E9002325F045FC0246EB
S31508012CA00B465046594625F089FA824640468B46D8
S31508012CB025F0E2FB02460B465046594625F034FC00
S31508012CC0824618EE100A8B4625F0D6FB02460B46BD
S31508012CD05046594625F072FA25F0E0FEA944C9F88E
S31508012CE0000079E7AFF300809A9999999999B93FC4
S31508012CF09A9999999999C93FCDCCCCCCCCCCD43F4A
S31508012D00CDCC0C40000000002DE9F84F27292DED08
S31508012D10068B0C4682469A4D00F2AC8007EE101AD5
S31508012D20D5ED017AF8EEC78ADFED969A67EEE87A6D
S31508012D309FED959A87EEA90A30EE090AD5ED00AA04
S31508012D4027F080FCD5ED037A67EEE87AB0EE408A83
S31508012D5087EEA90A30EE090A95ED02AA27F072FC58
S31508012D602046F0EE408A25F075FB0022874B25F0B8
S31508012D70DBFB0022864B25F001FD41EC100B01F02F
S31508012D80BFF9DFED846A9FED847A28EE268A68EE1C
S31508012D90878AF7EE007A37EEC88A77EEE87A28EE60
S31508012DA02A8A67EE8A7A78EE277A17EE900A59EC1C
S31508012DB0108B25F061FB6AA3D3E9002306460F466B
S31508012DC04046494625F0B0FB02460B463046394691
S31508012DD025F0F4F925F062FE08EE100A6F4E7048E8
S31508012DE096ED007A43686F4F03608368DFF8DC81EC
S31508012DF04360C36888ED007A83603B8880ED037A77
S31508012E00A342C0F08C81684A6849B7EE006AD1EDE1
S31508012E10007A6749DFED676A91ED005A664977EEF0
S31508012E20C57AD1ED005A67EEA57A77EE867A67EE0E
S31508012E30877AF4EEE67AF1EE10FA4CBFB0EE667ACE
S31508012E40B0EE677A5D4948BFF0EE477A9C4281ED5C
S31508012E50007A00F2BD80BDEC068B00235848316824
S31508012E60C0ED007A57481160C0ED007ACAF8003003
S31508012E70BDE8F88F07EE901A2868B8EEE78A25F0BC
S31508012E80FBFAD5ED017ADFED3F8A67EEC87AC7EE20
S31508012E90A87A804617EE900A894625F0EDFA32A3FC
S31508012EA0D3E9002325F08AF925F0F8FD00EE100A8A
S31508012EB027F0C8FBA86810EE10BA25F0DDFAFBEE7C
S31508012EC0097A28EE278AC8EE287A064617EE900A66
S31508012ED00F4625F0D1FA24A3D3E9002325F06EF98C
S31508012EE025F0DCFD00EE100A27F0ACFB584610EE83
S31508012EF010BA25F0C1FA1EA3D3E9002325F014FB65
S31508012F0002460B460020304925F056F942464B4603
S31508012F1025F00AFB25F0C2FD25F0AEFA8046584693
S31508012F20894625F0A9FA14A3D3E9002325F0FCFA6A
S31508012F3002460B460020244925F03EF932463B4617
S31508012F4025F0F2FA02460B464046494625F036F97F
S31508012F5025F0A4FD08EE100A40E700BFAFF3008094
S31508012F609A9999999999B93F9A9999999999C93F24
S31508012F70CDCCCCCCCCCCEC3F9A9999999999F53F83
S31508012F80A04600200000F043CDCC4C3E00000C408A
S31508012F9000007E40CDCC8C3F6666A63F9046002059
S31508012FA03846002054490020704600209C460020DF
S31508012FB0C44600200AD7233CC84600208C46002078
S31508012FC078460020744600200000F03F2C4500207A
S31508012FD0C64BC749D3ED006A91ED007AF4EEC76A8C
S31508012FE0F1EE10FA78DCB4EEE77AF1EE10FAC1499F
S31508012FF0C1ED007A08D5C04991ED006AF4EEC67AAA
S31508013000F1EE10FA00F10C81F0EE675ABB4C9FED18
S31508013010BC7AF4EEC77AF1EE10FABA4948BFF0EE77
S31508013020477AD1ED006AB8499FEDB57AC1ED007AC4
S3150801303077EEE67AB54FF4EEC77AD7ED006AF1EE88
S3150801304010FAF5EE406A54BFB0EE677AF0EE477AA9
S31508013050F1EE10FAAE4880ED007AAE48C0ED007A7E
S3150801306000F0928095ED047A28EE077A27EE267A03
S31508013070A948DFF8C4C207888CED007A012F00F051
S31508013080EC80B5EE407AF1EE10FA00F08D80C7EECD
S31508013090876AA24DA24F2878C7ED006A002800F07A
S315080130A092800138C0B228709E4DDFF8A8C2D5EDCE
S315080130B0007A9CED007A76EEE76A66EE876A76EE26
S315080130C0A76AC7ED006ACAED006A10B904279648CF
S315080130D00770C5ED006A6CE0874991ED006AF4EE68
S315080130E0C66AF1EE10FA7FF57EAFB4EEE76AF1EE45
S315080130F010FA7FF778AFB4EEE77AF1EE10FA7FF5BA
S3150801310072AF8A4977EEE65A91ED005AF4EEC55A3E
S31508013110F1EE10FA40F37B8176EE857A63E70421B6
S31508013120FFF7BEFC824A96ED007AD2ED007A77EE79
S31508013130677ADFED806AF5EEC07AF1EE10FAB4EE41
S31508013140E60AD8BFF1EE677AF1EE10FA06DDF0EE7F
S31508013150006AF4EEE67AF1EE10FA0FDC644BD3ED71
S31508013160007AB4EEE77AF1EE10FA07D9624BD3ED9D
S31508013170007AB4EEE77AF1EE10FA01DB9FED607A98
S3150801318088ED007A3B883FE66348B0F800C0BCF199
S31508013190010F00F08B80684890ED007AB5EE407A11
S315080131A0F1EE10FA7FF473AF64485D4DCAF800007A
S315080131B0286008683168C3ED005ABDEC068B2060AB
S315080131C01160BDE8F88F5E48564DD0ED017A90ED55
S315080131D0027A90ED035A95ED006ADFF84CC1594F12
S315080131E0C0ED007A80ED017A80ED025A80ED036A1E
S315080131F09CF8000097ED003AD7ED012AD7ED023A7F
S3150801320097ED034A002800F0AB80F0EE667A0138A4
S315080132108CF80000CAED007A5BE73649C1ED007A01
S31508013220364CD4ED006AB4EEE67AF1EE10FA59D5C9
S31508013230F4EEC66AF1EE10FA54D54349B7EE007AB0
S3150801324091ED006A37EE467AF0EE675A27EE267A4E
S3150801325066EE277A77EE277AD9E63C4FB7EE006A0B
S3150801326097ED005A3A4F36EE456AD7ED004A25EEF4
S31508013270274A26EE077A84EE245A66EE886A35EEE0
S31508013280077A87EE266A4FF0020885ED046ADFF8A9
S31508013290C8E0224F87F80080BEF800700137AEF803
S315080132A0007000258CED007A0580EAE6D5ED046A02
S315080132B0274D68EE266A95ED006A87EE867A4FF005
S315080132C0040E87EE266ADFF890C0174D87ED006A6F
S315080132D085F800E0BCF800500135ACF80050DFF87D
S315080132E058C0DEE7F0EE675A91E600BF784600203F
S315080132F0700D0020884600206C0D002074460020C1
S315080133000AD7233CB84600208446002060460020A0
S31508013310804600207C4600204C4900204E4A002069
S315080133204C460020484600204F4A0020C04600204F
S3150801333070460020CDCC4C3E68460020CDCCCC3D15
S3150801334050460020D0460020BC460020B446002046
S3150801335064460020CC4600204E490020CDCC0C40C6
S315080133605FED024AF4EEE47AF1EE10FA4CD9B3EEC7
S315080133700E2AF4EEC27AF1EE10FA45DAB4EEE47AE0
S31508013380F1EE10FA40D9B4EEC27AF1EE10FA3BDA50
S31508013390B4EEE45AF1EE10FA36D9B4EEC25AF1EEA9
S315080133A010FA31DAB4EEE46AF1EE10FA2CD9B4EE79
S315080133B0C26AF1EE10FAF0EE424A25DA1FED192A31
S315080133C0F4EEC26AF1EE10FA1ED9F4EEE46AF1EEF1
S315080133D010FA19DA75EE474A37EE677A64EEA27A79
S315080133E036EE455A47EE037A45EE237A36EEC66A35
S315080133F0B0EE677A0B4806EE047A90ED002AF0EEF5
S31508013400667A47EE027A05E7F0EE667A02E776EE25
S31508013410E75AB4EEE55AF1EE10FA7FF5FEAE76EE0E
S31508013420C57AE0E5E04600201D4B70B5186810EE38
S31508013430106A25F021F818A3D3E9002304460D469E
S3150801344025F002FB10B914A5D5E90045304625F04B
S3150801345013F802460B462046294625F08FF9114BEB
S31508013460044618680D4625F007F802460B4620461D
S31508013470294625F083F925F011FBF6EE007A07EEC9
S31508013480100AB4EEE77AF1EE10FA94BF0120002093
S3150801349070BD00BFAFF300807B14AE47E17A843F6D
S315080134A090460020684600202DE9F04FC76997B07D
S315080134B08346209E08910C92129355EC104B8DED84
S315080134C0000B7FB9102025F001FD0246CBF81C0040
S315080134D020B9A74BEF21A74825F0C0FCC0E9017721
S315080134E00760C760DBF81C30196859B15A680123AF
S315080134F0584693404A608B6026F074FBDBF81C3013
S3150801350000221A602B1EB7BF23F0004300230122B5
S315080135100193A8BF3360019F974BB8BF3260BB4385
S3150801352019D142F20F73129A1360C7F31303234397
S3150801353000F0DB85219B53B9904B21E0904B039317
S315080135400833219A1360039817B0BDE8F08F8B4BA7
S3150801355003930333F5E79DED007B0022002351EC2D
S31508013560170B8DED0A7B25F047FA804650B10123EA
S31508013570129A1360219B13B1824B219A1360824BD5
S315080135800393E0E7C7F30A5614AA15A958469DED11
S315080135900A0B26F0AFFD0290002E76D00B9BA6F201
S315080135A0FF36CDF84C80C3F3130343F07F53DDE9AF
S315080135B00A0143F4401319460022744B24F0FCFD1A
S315080135C065A3D3E9002324F0AFFF65A3D3E900235C
S315080135D024F0F4FD04460D46304624F03BFF62A371
S315080135E0D3E9002324F0A0FF02460B4620462946CC
S315080135F024F0E4FD04460D4628F01CFB002207468C
S3150801360000232046294625F001FA40B1384624F020
S3150801361021FF22462B4625F0EFF900B9013F162F67
S3150801362052D85B4B03EBC703DDE90A01D3E9002353
S3150801363025F0ECF9002849D0013F00231193149B8A
S315080136409B1B5A1E4CBFC3F101030023079245BFBA
S315080136500693002306930793002F39DB079B1097E0
S315080136603B44079300230993089B092B66D8052B2E
S31508013670C5BF043B002401240893089B023B032B86
S3150801368067D8DFE803F02D3A3859DDE914631E449B
S3150801369006F23243202BC9BFC3F14003C3F120030D
S315080136A09F4006F21243D8BF04FA03F006F1FF362B
S315080136B0C4BF24FA03F347EA030024F0BBFE012240
S315080136C0A1F1F873139276E70123B7E71190B6E7EC
S315080136D0069BDB1B06937B42099300231093C3E7E2
S315080136E000230D930C9B002B56DC012399461A46A1
S315080136F004930C920CE00123F3E700230D930C9B32
S31508013700FB1803F1010904934B46012BB8BF0123AA
S31508013710DBF81C000021042202F114059D423FD961
S315080137204160584626F01EFA039000283BD1194BF2
S31508013730024640F2AF11CEE60123DFE7012400235A
S315080137400D9408934FF0FF330022994604931223F0
S31508013750CFE701230D93F5E761436F63A787D23F4F
S31508013760B3C8608B288AC63FFB799F501344D33F61
S31508013770B5B20408CCB204080000F07FB1B204085F
S31508013780A8B2040885B2040884B204080000F83F08
S31508013790C8B3040825B304080C9B99460493B7E7F4
S315080137A001315200B8E7DBF81C30B9F10E0F039A64
S315080137B01A606FD8002C6DD0002F36DD07F00F0286
S315080137C0A04BF8054FEA271403EBC20393ED007BE0
S315080137D08DED0E7B17D59C4B04F00F044FF00308B3
S315080137E0D3E90823DDE90A0124F0C8FFCDE9000180
S315080137F0954D5CB9DDE90E23DDE9000124F0BEFF34
S31508013800CDE900012BE04FF00208F1E7E10709D500
S3150801381008F10108DDE90E01D5E9002324F084FE4B
S31508013820CDE90E0164100835E3E700F007817C4213
S31508013830844B854D4FF0020804F00F02241103EB67
S31508013840C203DDE90A01D3E9002324F06DFE002352
S31508013850CDE90001002C40F0E580002BD0D1119B69
S31508013860DDE90045002B00F04C810022774B20460C
S31508013870294625F0CBF8002800F04381B9F1000F5D
S3150801388000F03F81049B002B00F3E480DDE90A3454
S31508013890CDE90034159B002B02DB0E2F40F3428243
S315080138A00D9A002A40F06782099C0025DDF81880E8
S315080138B0B8F1000F0DD0079B002B0ADD4345069A88
S315080138C0A8BF4346D21AA8EB03080692079AD31A49
S315080138D00793099B0BB30D9B002B00F0A682002CC6
S315080138E000F0A18229462246584626F0A5FA029AF0
S315080138F001460546584626F0F5F902990646584600
S3150801390026F070F9099B1B1B099300F09182099A0D
S315080139103146584626F090FA02900121584626F07B
S31508013920CBF9109B0446002B00F084821A46014607
S31508013930584626F081FA089B0446012B03DC009BB6
S31508013940002B00F07C820026236904EB83031869A7
S315080139502EF0F5FFC0F120001096079B184410F0D1
S315080139601F0000F09182C0F12003042B40F38182ED
S31508013970C0F11C00069B034480440693079B03443D
S315080139800793069B002B05DD1A460299584626F031
S31508013990ADFA0290079B002B05DD21461A465846CB
S315080139A026F0A4FA0446119B002B00F076822146E4
S315080139B002982FF013F8002880F26F8200230A225A
S315080139C00299584626F030F90D9B7E1E0290002B6F
S315080139D000F05C82002329460A22584626F024F97B
S315080139E0049B0546002B03DC089B022B00F35E8231
S315080139F0B8F1000F05DD29464246584626F076FA03
S31508013A000546109B002B00F0D0826968584626F0BF
S31508013A10A9F80746002840F07F820D4B024640F27E
S31508013A20EF2158E5E20706D508F10108D5E9002393
S31508013A3024F07AFD0123641008350BE74FF00208DC
S31508013A400DE700BFC8B30408A0B304080000F03F9F
S31508013A5025B3040820460022AC4B294624F064FD10
S31508013A607E1E08F10108049CCDE90001404624F0B8
S31508013A70F1FCDDE9002324F057FDA54B002224F0D3
S31508013A809DFBA1F15073CDE90E010F93002C3BD19B
S31508013A900022A04BDDE9000124F08EFB02460B460D
S31508013AA0CDE90023DDE90E2324F0CEFF002840F0FE
S31508013AB05781DDE90E2101F10043DDE9000124F01A
S31508013AC0A5FF00283FF4E2AE002425460C9BDDF84D
S31508013AD00CA0DE434FF000082146584626F082F82E
S31508013AE0002D00F0A980B8F1000F05D0A84503D034
S31508013AF04146584626F076F82946584626F072F881
S31508013B009AE03E464C46B1E7834B03EBC40353E9BF
S31508013B100201039B1C440D9B002B4AD002460B460F
S31508013B2000207E4924F02AFEDDE90E2324F044FB19
S31508013B30DDF80CA0CDE90E01DDE9000128F07AF8DF
S31508013B40054624F087FC024630350B46DDE90001BF
S31508013B5024F032FB0AF8015B02460B46CDE9000167
S31508013B60DDE90E0124F070FF002865D100206C49BB
S31508013B70DDE9002324F020FB02460B46DDE90E01B0
S31508013B8024F062FF002840F00D81A24500F0EA808A
S31508013B9000225E4BDDE90E0124F0C6FC00225B4BD8
S31508013BA0CDE90E01DDE9000124F0BEFCCDE90001F5
S31508013BB0C2E7DDE90E2324F0B7FCA046DDF80CA028
S31508013BC0CDE90E01DDE9000128F034F8054624F0B7
S31508013BD041FC024630350B46DDE9000124F0ECFADA
S31508013BE00AF8015B02460B46A245CDE900234FF0D0
S31508013BF0000223D1494BDDE90E0124F0DFFA024622
S31508013C000B46DDE9000124F01FFF002840F0CA80B9
S31508013C1000204249DDE90E2324F0CEFA02460B467E
S31508013C20DDE9000124F0F2FE70B1C24608F1FF3861
S31508013C301AF8013C302BF8D0374655E0334B24F0BF
S31508013C4073FCCDE90001BDE7DDE90A34CDE90034AD
S31508013C50159B002BFFF628AE0E2F3FF725AE2E4BF0
S31508013C6003EBC70393ED007B0C9B002B8DED047BC7
S31508013C7002DAB9F1000F64D0DDF80CA0DDE90045E0
S31508013C80DDE904232046294624F078FD27F0D2FFF2
S31508013C90064624F0DFFBDDE9042324F045FC024651
S31508013CA0204606F130040B46294624F085FA0AF81F
S31508013CB0014B039C02460B46AAEB0404A14540F0BE
S31508013CC0828024F07BFA04460D46DDE9042324F0BC
S31508013CD0BBFE002865D120462946DDE9042324F0E8
S31508013CE08BFE08B1F3075CD40299584625F07AFF92
S31508013CF0002301378AF80030129B1F60219B002B95
S31508013D003FF421ACC3F800A01DE400BF0000244025
S31508013D1000001C4000001440C8B304080000E03F3E
S31508013D200000F03FA24B03EBC70393ED007B0C9B0E
S31508013D30002B8DED047B9FDAB9F1000F9CDC7FF433
S31508013D40C3AE00229B4BDDE9040124F0EDFBDDE95E
S31508013D50002324F06FFE044600287FF4B5AE3E46E4
S31508013D602546B4E0DDE90A34CDE90034159B002B7C
S31508013D7001DB0E2FD6DD089A012A36DC139A82B3A7
S31508013D8003F23343099CDDF81880069A0121584647
S31508013D901A440692079A1A44079225F08DFF05469A
S31508013DA086E53E4653469A4613F8012D392A06D129
S31508013DB0039A9A42F7D13022039901360A701A7882
S31508013DC001321A7038E700227B4B24F0ADFB002242
S31508013DD0002304460D4624F00FFE00283FF450AF99
S31508013DE082E7149BC3F13603CCE709F1FF34099B3B
S31508013DF0A34208DBB9F1000FA3EB04040EDBDDF8DF
S31508013E0018804B46C1E7099B109AE31A0994DDF815
S31508013E10188000241A444B461092B6E7069BA3EB7A
S31508013E2009080023B1E7029E71E5099A029970E52E
S31508013E30029672E5089B012B17DC009BABB9019B27
S31508013E40C3F313039BB9019B23F00046360D3605D0
S31508013E5036B1069B012601330693079B0133079367
S31508013E60109B002B7FF470AD1096012075E5002696
S31508013E70F6E73FF486AD1C33069A1A44984406922F
S31508013E80079A1A4407927CE50346F4E7049B002B3C
S31508013E902BDC089B022B09DC27E0B9F1000F1DDC9E
S31508013EA0089B022B1ADD3E46CDF81090049B002B89
S31508013EB07FF40CAE21460522584625F0B5FE01468B
S31508013EC0044602982EF08AFD00287FF7FFADDDF83B
S31508013ED00CA0312301360AF8013BFBE50D9B3E4652
S31508013EE0CDF81090002B7FF483AD039F21460298ED
S31508013EF02EF098FC039B00F13009049A07F8019B00
S31508013F00FB1A9A4240F3CB8000230A2202995846AB
S31508013F1025F08AFE0290E9E72A6905F10C010C30C1
S31508013F20023292002EF062FC01223946584625F0EB
S31508013F30DDFF039BA846054603F1010ADDE90323D4
S31508013F4013440793009B03F0010309930AF1FF3316
S31508013F502146029804932EF065FC4146069000F12D
S31508013F60300902982EF03AFD2A4621460746584658
S31508013F7026F028F8C268014602B3584625F032FEF3
S31508013F80002F3ADA01220299584625F0AFFF214659
S31508013F9002902EF023FD002803DC29D119F0010F28
S31508013FA026D0B9F1390F1DD132E02846C1E700BF45
S31508013FB0C8B3040800001440000024400A9002987F
S31508013FC02EF00CFD0A990C90584625F00BFE0C9A1A
S31508013FD05ABB089B53B9099B43B9B9F1390F17D095
S31508013FE0002F05DD069B03F1310901E0002F2ADACE
S31508013FF0DDF810A00AF8019B6EE5089B3B4304D146
S31508014000009B03F00103002BBCD0B9F1390F36D15F
S31508014010049F392307F8013BBA46013F1AF8013CC8
S31508014020392B5AD001333B7056E5002F06DB089B26
S315080140303B4306D1009B03F0010313B9002AA1DC17
S31508014040D6E7002AE1DC079B57460AF8019C534547
S315080140502ED000230A220299584625F0E5FDA845E7
S3150801406002904FF000034FF00A02414658460BD121
S3150801407025F0DAFD804605460AF1010A66E7DDF80C
S3150801408010A009F10109B5E725F0CEFD29468046BC
S3150801409000230A22584625F0C7FD0546ECE7049B8E
S315080140A04FF00008002BCCBF1F460127039B1F4476
S315080140B001220299584625F019FF214602902EF051
S315080140C08DFC0028A8DC02D119F0010FA4D1BA464B
S315080140D017F8013D302BFAD0FEE4039BBB429BD176
S315080140E03123039A01361370F6E4219B002B7FF4E2
S315080140F025AA014BFFF744BAA8B20408000000003C
S3150801410038B555EC104B2DED028B00F045F82246DB
S315080141102B4620462946B0EE408AF0EE608A27F003
S3150801412073FD98B9002200232046294624F08CFC09
S3150801413060B9002200232046294624F05DFC60B1BF
S3150801414027F0A0FD22239FED0C8B0360B0EE480AF1
S31508014150F0EE680ABDEC028B38BD27F093FD2122EB
S3150801416003460748BDEC028B1A60BDE8384000F0EB
S315080141700BB800BFAFF30080000000000000F0FF9D
S315080141801C500408000000009FED010B704700BF9A
S31508014190000000000000F87F53EC102BB3F5801FD8
S315080141A02DE9F04F1C4687B058DA23F00041104636
S315080141B0114300F0F780002B1946C0F23481002222
S315080141C0D94B24F0B1F90C460B46D84902466FF093
S315080141D035008C4246DC2515D549C4F31304A5F2EE
S315080141E0FF3521440544D34801F48011484005EBC5
S315080141F0115540EA0403104600221946CD4B23F017
S31508014200DBFFA31C82468B46C3F31303022B32DC66
S315080142100022002324F0F0FB002800F0CE80002DB8
S3150801422000F09281284624F015F906460F46AAA3FE
S31508014230D3E9002324F078F904460D463046394679
S31508014240A7A3D3E9002324F06FF902460B462046BB
S31508014250294623F0B3FF41EC100B09E0B3490020CE
S315080142608C42B8DD1046194623F0A8FF41EC100B25
S3150801427007B0BDE8F08F00224FF0804323F09EFF80
S3150801428002460B4650465946DFF8B88224F076FABC
S3150801429006460F46284624F0DDF832463B46A0443A
S315080142A0CDE9040130463946CDE9026724F03CF9E7
S315080142B002460B46CDE9002324F036F906460F4699
S315080142C089A3D3E9002324F02FF989A3D3E900238D
S315080142D023F074FF32463B4624F026F986A3D3E938
S315080142E0002323F06BFF32463B4624F01DF984A3D5
S315080142F0D3E9002323F062FFDDE9002324F014F952
S3150801430081A3D3E90023CDE900013046394624F0DB
S315080143100BF97FA3D3E9002323F050FF32463B462E
S3150801432024F002F97CA3D3E9002323F047FF3246A0
S315080143303B4624F0F9F80B460246DDE9000123F075
S315080143403DFF7D4B06460F461B1B43EA0803002B20
S315080143505BDD0022794B5046594624F0E5F8524672
S315080143605B4624F0E1F880468946002D64D1424631
S315080143704B463046394623F021FFDDE9022324F076
S31508014380D3F802460B464046494623F015FF024636
S315080143900B465046594623F00FFF41EC100B07B068
S315080143A0BDE8F08F002200230020654924F0E6F9D4
S315080143B041EC100B07B0BDE8F08F59A3D3E90023F0
S315080143C05046594624F0B0F802460B4600205B4990
S315080143D023F0F2FE06460F4652465B4650465946BC
S315080143E024F0A2F802460B463046394624F09CF8DA
S315080143F006460F46002D56D102460B4650465946EB
S3150801440023F0DAFE41EC100B32E7002D40F09F80D5
S3150801441002460B465046594623F0CEFEDDE90223F5
S3150801442024F082F8B3E723F0C7FE0022002324F024
S31508014430A5F941EC100B1BE727A3D3E90023DDE916
S31508014440040124F071F842464B4604460D463046AF
S31508014450394623F0B3FEDDE9022324F065F8064662
S315080144600F461FA3D3E90023DDE9040124F05CF814
S3150801447002460B463046394623F0A0FE02460B4655
S315080144804046494623F098FE52465B4623F094FE81
S3150801449002460B462046294623F08EFE41EC100BB8
S315080144A007B0BDE8F08F284623F0D4FF8046894639
S315080144B009A3D3E9002324F037F804460D464046FC
S315080144C0494607A3D3E9002324F02EF802460B46F2
S315080144D030463946D6E700BF0000E0FE422EE63FE9
S315080144E0763C7935EF39EA3D44523EDF12F1C23F57
S315080144F0DE03CB966446C73F599322942449D23F9B
S31508014500935555555555E53F9FC678D0099AC33FEA
S31508014510AF788E1DC571CC3F04FA97999999D93F01
S31508014520555555555555D53F00005043FFFFEF7F6B
S31508014530645F09000000F03F51B806000000E03F43
S31508014540000050C386EBF9FF9FED0D0B90E6DDE900
S3150801455004890DA3D3E900234046494623F0E4FF25
S3150801456032463B4604460D465046594623F024FE3C
S31508014570DDE9022323F0D8FF06460F469FE700BF71
S3150801458000000000000000000000E0FE422EE63FA9
S315080145900348044B834202D0034B03B118477047C3
S315080145A0A81B0020A81B002000000000064B074995
S315080145B0C91A891048BF0131491003D0044B0BB100
S315080145C001481847704700BFA81B0020A81B0020F8
S315080145D00000000010B5064C237843B9FFF7D8FF51
S315080145E0044B13B10448AFF300800123237010BDB7
S315080145F0664900200000000034B7040808B5054BD9
S315080146001BB105490548AFF30080BDE80840FFF72F
S31508014610CDBF00BF00000000C020002034B7040849
S31508014620A3F5803A704700BF174B002B08BF134B01
S315080146309D46FFF7F5FF00218B460F461348144A9E
S31508014640121A2EF075F80E4B002B00D098470D4B19
S31508014650002B00D098470020002104000D000D48CA
S31508014660002802D00C48AFF3008025F00DFA20008F
S31508014670290000F01FFA24F017FC00BF000008000B
S315080146800000000000000000C00A0020A81B00204E
S31508014690744A00200000000000000000F0B503681D
S315080146A0AD4A23F47F4323F00703934204468FB0B0
S315080146B000F0B48033D802F17F4293427DD011D9FC
S315080146C0A64A93424CD1807902F05CFFA44CA54AD4
S315080146D00021A54B1278207818F052FA002800F02C
S315080146E0BF80FEE7A2F5102293424BD002F5A02225
S315080146F0934235D100269D4D2846C5E90066AE6030
S31508014700AE8108F047F82B460E2231460B2018F0E9
S31508014710E3FA207B0FB0BDE8F04002F0C7BE944A29
S31508014720934244D002F5102293421BD1D626C27970
S315080147300389B0F80550CDE903328E4A0320CDE945
S3150801474001258D4B8D4A8E49009606F087FC242D4E
S3150801475000F09A802B2D00F04B811D2D00F08880EA
S315080147600FB0F0BDA2F182729342F9D1B0F80930C7
S31508014770B0F80720B0F8051000790FB0BDE8F04091
S3150801478002F0C0BE44247F4903207B4B7B4A01913A
S3150801479000947B4906F062FC02F088FF002109AB10
S315080147A0084607AA18F006FB002852D0FEE740681B
S315080147B00FB0BDE8F04003F08BB80021A627B0F88A
S315080147C0055009AE142206AB28460096069118F044
S315080147D051FA6D4B0320CDE90135684A664B6849A4
S315080147E0009706F03BFC32460821BDF818306748A9
S315080147F006F000FF242D00F0EC802B2DB0D1B4F883
S3150801480005302279ADF81D308DF81C2007A93346ED
S3150801481003C9BDF8182005F063FBA1E7B0F80550F8
S31508014820A5F12003092B06D8DFE803F0690556052B
S315080148300505057C053A077904F032F80024064691
S315080148400B23294638464422CDE9006418F05AFA62
S3150801485086E70121084618F0BDF9002875D0FEE75C
S315080148600221207818F0A2F900283FF479AFFEE773
S31508014870E379012B00F0CE80022B7FF471AF02F0B1
S31508014880F5FD0123C3776BE7E379012B00F0BB80C4
S31508014890022B7FF465AF02F0E9FD012343775FE759
S315080148A0002209A900790223009101922921ADF874
S315080148B0242018F027FA024600283FF451AF40F2A7
S315080148C0731433490292019101202B4B2B4A2C492F
S315080148D0009406F0C3FB43E7057904F00DF80022BE
S315080148E004460723CDE900422846222118F00AFA90
S315080148F0024600283FF434AF4FF4A574E1E7057981
S3150801490003F0FEFF002204460B23CDE900422846A8
S31508014910202118F0F7F9024600283FF421AF4FF499
S31508014920AC74CEE7057903F0BBFF002204460B23DE
S31508014930CDE900422846272118F0E4F90246002865
S315080149403FF40EAF4FF49E74BBE7054C204618F0B2
S31508014950DDF80546F0B1FEE7A0000A01A000060150
S315080149600410002067490020E8200020D8200020F4
S31508014970A00001032837040880370408E036040834
S31508014980EC360408F036040818370408C840040849
S315080149904C3704082E4E2F48314603F04BFF2D4B5A
S315080149A029463278207818F0EBF8034600B1FEE77D
S315080149B04FF4C86200901146207818F0BFF800B18C
S315080149C0FEE70221207818F0F1F800283FF4C8AE76
S315080149D0FEE7B4F805302279ADF81D308DF81C20B4
S315080149E007A9334603C9BDF8182004F0B5FBB7E695
S315080149F0E379012B15D0022B7FF4B2AE02F036FD16
S31508014A0001238377ACE6238993B10FB0BDE8F04063
S31508014A1004F096B9238983B10FB0BDE8F04004F0DC
S31508014A2057B8238973B10FB0BDE8F04004F0BABC9A
S31508014A300FB0BDE8F04004F089B90FB0BDE8F04009
S31508014A4004F04CB80FB0BDE8F04004F0B1BC00BFAB
S31508014A5067490020E820002010B5012184B02D20E7
S31508014A6009F094FE002340F2011E4FF0010C40F2BA
S31508014A700E320E4C69462046CDF80630CDF8023086
S31508014A80CDF80930ADF800E0ADF809208DF804C07D
S31508014A900CF0FAF902214FF40032054B04F5805463
S31508014AA0E161C3F884215A6004B010BD0080015A3F
S31508014AB000E100E008B50BF0FDFF1A4B1A4C18602F
S31508014AC00BF0F2FF0FF08CFD0BF0C4FF01213A2029
S31508014AD009F05CFE11F07AF8002011F079F806F079
S31508014AE033FAFF21002006F0B1FCC721012006F0A8
S31508014AF0ADFCC721022006F0A9FC0721032006F018
S31508014B00A5FC0721042006F0A1FC06F05BFAFFF7D5
S31508014B10A3FF20460CF0A6F90FF070FD0EF07AFC03
S31508014B20F7E700BF082100200080015A2DE9F0416E
S31508014B30244B96B01C7824B101221A7016B0BDE830
S31508014B40F0813822214608A82DF0F2FD6A4638215F
S31508014B5008A805F001FE8B2506461B4A03201B4BB8
S31508014B601B49019200951B4A029606F077FA07F04F
S31508014B7023FDA6B1DFF86C80174F07AD55F8041F62
S31508014B80404606F029FA2246394605A824F09EFE33
S31508014B900134294605A807F0D9FCA642EED107F04B
S31508014BA091FD4FF47A700FF073FABFF34F8F0B49EB
S31508014BB00B4BCA6802F4E0621343CB60BFF34F8F15
S31508014BC000BFFDE768490020A437040838380408FF
S31508014BD09C37040890370408C837040800ED00E03C
S31508014BE00400FA05C03704082DE9F04196B03822C9
S31508014BF0002108A82DF09CFD6A46382108A805F071
S31508014C00ABFDA62406460094A724174A0320174B92
S31508014C1017490192174A06F021FA174A0320134B3E
S31508014C20134901920296134A009406F017FA07F0FF
S31508014C30C3FCAEB10024DFF84880104F07AD55F824
S31508014C40041F404606F0C8F92246394605A824F04D
S31508014C503DFE0134294605A807F078FCA642EED1A7
S31508014C6007F030FDFEE700BFD03704082C380408EA
S31508014C709C37040890370408A4370408C837040881
S31508014C80C03704082DE9F04196B03822002108A85A
S31508014C902DF04EFD6A46382108A805F05DFDC024B1
S31508014CA006460094C124174A0320174B1749019257
S31508014CB0174A06F0D3F9174A0320134B13490192F1
S31508014CC00296134A009406F0C9F907F075FCAEB1CD
S31508014CD00024DFF84880104F07AD55F8041F4046F9
S31508014CE006F07AF92246394605A824F0EFFD013483
S31508014CF0294605A807F02AFCA642EED107F0E2FCF0
S31508014D00FEE700BFDC370408183804089C37040896
S31508014D1090370408A4370408C8370408C0370408BC
S31508014D202DE9F04196B03822002108A82DF000FDA2
S31508014D306A46382108A805F00FFDD92406460094CD
S31508014D40DA24174A0320174B17490192174A06F026
S31508014D5085F9174A0320134B134901920296134A00
S31508014D60009406F07BF907F027FCAEB10024DFF8C2
S31508014D704880104F07AD55F8041F404606F02CF938
S31508014D802246394605A824F0A1FD0134294605A87D
S31508014D9007F0DCFBA642EED107F094FCFEE700BF64
S31508014DA0F0370408043804089C37040890370408C7
S31508014DB0A4370408C8370408C0370408704700BF79
S31508014DC016F058BA08B50FF05BFCBDE8084017F0B5
S31508014DD05FBC00BF0120704700B5C3B016F0DCF90F
S31508014DE029F0CCFC10B943B05DF804FBFFF7F2FFDC
S31508014DF00028F8D001A82AF04AFE0028F3D101A814
S31508014E0008F012F901A8FFF7D9FF01A8FFF746FC38
S31508014E1043B05DF804FB00BF08B50AF045F809F090
S31508014E20EFFF214A136F23F0070343F003031367C8
S31508014E3009F0FEFF1D4B9B6A9B0702D401221C4BFE
S31508014E409A62194B0020D3F8202122F0030242F07E
S31508014E500202C3F82021D3F8242122F0070242F0E6
S31508014E600202C3F82421D3F8402122F0030242F0BA
S31508014E700202C3F84021D3F8602122F0030242F06E
S31508014E800202C3F86021D3F8402222F0030242F05D
S31508014E900202C3F84022D3F8002222F0070242F0A8
S31508014EA00202C3F8002208BD0080005000C000506D
S31508014EB000E0005008B50DF0DFFF0DF05DFF0DF0C5
S31508014EC0C1FF0DF07FFFFFF7A7FF0DF067FF08F0A1
S31508014ED071FB08F01FFEBDE808400EF09FB900BF40
S31508014EE008F0A4BD08B50EF0E3FE0DF0C9F80EF002
S31508014EF01DF810F06BF90DF0DBFABDE808400DF06E
S31508014F00FBBF00BF08B50CF0F9F80CF015F90CF069
S31508014F1027F9FFF757FFBDE808400CF00BB900BFAA
S31508014F20704700BF704700BF08F0ECB9FFF754BFE0
S31508014F30704700BF012070470120704738B508F057
S31508014F4023FA054616F050F9041E18BF2C46FFF73A
S31508014F50F1FF002818BF204638BD00BF38B50EF04E
S31508014F60AFFB044608F006FA042817D0022808BF42
S31508014F70012429F045FC04284FF0000514D0022825
S31508014F8008BF0124FFF7D8FF042813D0022808BF59
S31508014F900124002D18BF0024204638BD29F030FC15
S31508014FA004284FF00105EAD1FFF7C6FF04284FF0A0
S31508014FB00105EBD10024204638BD00BF024B034949
S31508014FC0186809F029B800BFC80B0020A80B0020F3
S31508014FD0014B1878704700BF6949002010B547246E
S31508014FE0084982B001910420074B084A08490094F0
S31508014FF006F034F80022074B1A7002B0BDE81040DB
S3150801500000F0B6B9783C0408CC3C04085C3C0408BA
S31508015010743C04086949002010B55F24084982B028
S315080150200420084B084A01910094084906F016F82D
S3150801503000F09CFA0022064B1A7002B010BD00BFA0
S31508015040843C0408C03C04085C3C0408743C04081D
S315080150506949002030B575250446094983B0094BCD
S31508015060094A019104200949009505F0F7FF2046F0
S3150801507000F096FC0122064B1A7003B030BD00BF42
S31508015080903C0408B43C04085C3C0408743C0408DD
S315080150906949002030B58E250446084A83B0019235
S315080150A00420074B074A0849009505F0D7FF204613
S315080150B003B0BDE8304000F011BA00BF9C3C0408BB
S315080150C0A83C04085C3C0408743C040800F046B992
S315080150D0F8B56FF448731C4EB6F90800C3189BB2AD
S315080150E0B3F5C77F23D823F0B5F90022174B23F070
S315080150F045FB04460D46B6F90A3018463BB144F657
S315080151001E6203F51C530F339BB2934212D9002634
S3150801511000270F4B2046D3E90023294623F004FA3A
S3150801512032463B4623F04AF841EC100BF8BD002401
S31508015130084DE0E723F08EF90022044B23F01EFB0D
S3150801514006460F46E5E700BFA02D002000408F4028
S31508015150A81B00200000F03F38B50546054800F0B9
S31508015160E3F8044625B118B1FFF7B2FF85ED000B48
S31508015170204638BDA81B002010B54FF48374084A91
S3150801518082B0019204200749074B084A009405F0AA
S3150801519065FF0021042002B0BDE8104002F020BAE4
S315080151A0F83C0408F03C040864400408D83C0408A8
S315080151B010B540F21714084A82B001920420074933
S315080151C0074B084A009405F049FF0021032002B065
S315080151D0BDE8104002F004BA183D0408F03C040882
S315080151E048400408D83C04080021062002F0F8B912
S315080151F00F4B1B78012B04D10E4A1378A3B1013B3F
S31508015200137010B5F6240C4A82B0019204200B499A
S315080152100B4B0C4A009405F021FF0021022002B035
S31508015220BDE8104002F0DCB907480EF03FBE00BFEA
S315080152306B4900206C490020343D0408F03C040801
S3150801524084400408D83C0408D021002010B5C524A0
S31508015250094982B0019104200849094B094A009479
S3150801526005F0FCFE2022084B1A6402F069FB074B85
S31508015270186002B010BD00BF543D0408F03C040894
S31508015280B4400408D83C040800D00350F02100209B
S3150801529010B54FF4BE7482B0009440F21324184935
S315080152A00420184B184A0191184905F0D7FE1848E9
S315080152B01649184B144A01900094042005F0CEFEB5
S315080152C00222154B0A20C3F8A0200EF01FFF002367
S315080152D00146CDE90033114A11480EF023FD08B9FC
S315080152E002B010BD4FF4C2740E4901200191054B5D
S315080152F0054A0649009405F0B1FE02B010BD00BF8B
S31508015300643D040800400408D83C0408F03C04083D
S31508015310803D0408C83F040800D0035079510108AC
S31508015320B0210020903D040898B1012310B582B040
S31508015330044669461A46084807F0E4FC10B90020F5
S3150801534002B010BD0120DDE90023C4E9002302B043
S3150801535010BD0020704700BFF421002008B503489E
S3150801536007F032FD003818BF012008BDF4210020DE
S31508015370F0B54FF49B74434985B00420424B434A28
S3150801538001910094424905F069FE04220123114660
S3150801539002200AF047FF00230422184605210AF0D5
S315080153A041FF01230422194602200AF03BFF00238C
S315080153B010241846012206210AF034FF354B002233
S315080153C0C3F8A0403449062008F04AFB4FF4A477F5
S315080153D00446324B324E0193009702943460D62428
S315080153E0294B2A4A04202A4905F038FE2D4904206A
S315080153F002F014F92C49022002F010F92B49032076
S3150801540002F00CF92A49062002F008F9302308228D
S315080154102849294807F066FC2027009440F22124F0
S31508015420264A274D274E0420274B19490192174A28
S3150801543005F014FE154A16490420244B2F64CDE9BC
S31508015440004605F00BFE0223C820C5F8A0300EF071
S315080154505DFE00230146CDE900331D4A1D480EF0C5
S3150801546061FC08B905B0F0BD40F259141A4901208A
S315080154700191054B054A0649009405F0EFFD05B073
S31508015480F0BD00BFC43D04083C400408D83C0408EC
S31508015490F03C040800D00350E9510108D03D040846
S315080154A008220020BD600108915201084D520108E9
S315080154B0C15C0108B81B0020F4210020B43D040892
S315080154C000E00350E83D0408A4400408B83F040876
S315080154D0B151010890210020903D040870B5194B7F
S315080154E084B01D78012D01D004B070BD4FF4E67665
S315080154F00446154A1549CDE90120154B0420154ADC
S31508015500009605F0ABFD144A144B40F69A30157017
S315080155101C700EF0FBFD00230146CDE90033104A4D
S3150801552010480EF031FC0028DED04FF4EB740E491A
S3150801553028460191064B074A0449009405F08EFD59
S31508015540D2E700BF6B490020F83D0408F03C040887
S31508015550E43F0408D83C0408051000206C490020E3
S31508015560F1510108D0210020083E040840F2F31C3D
S31508015570F0B52049204E214D83B0CDF800C0324602
S315080155801F4B01910420294605F068FD1D480EF0C0
S315080155908DFC1D480EF08AFC00231C4F18463A68FC
S315080155A00621CDE900330AF0C1FD4FF0D60C3A6861
S315080155B0174C184BC4F82024294632460193CDF8D6
S315080155C000C00420144B05F049FD40F221274FF095
S315080155D0200EDFF84CC0C4F840E0324629460420C4
S315080155E0CDE9007C0D4B05F039FD0223C4F8A03046
S315080155F003B0F0BD343E0408D83C0408F03C040866
S31508015600D83F0408D0210020B0210020082200201C
S3150801561000E00350B43D0408A4400408B83F040858
S31508015620E83D04084FF0000C0246802330B51025EA
S31508015630134C83B005208DF807C08DF806108DF838
S3150801564004208DF805300EF0E5FF04F50053C3F884
S31508015650A05014200EF0DEFF04220A4B0DEB0201C6
S31508015660186808F017FF04F580540A200EF0D2FFD7
S315080156700520C4F8A0500EF0CDFF03B030BD00BF21
S3150801568000C00350C80B002010B5324C88B0D4E9CD
S31508015690000123F0E3F9304B80B293ED000B01F0E2
S315080156A067FD94ED007B40F233242C4A2C4B019282
S315080156B004202C4A8DED047B8DED020B2A490094BA
S315080156C08DED060B05F0CAFC284B1A788AB3002221
S315080156D01A7040F2212401200EF09CFF1E213A2067
S315080156E0FFF7A0FF01200EF095FF02215020FFF7DA
S315080156F099FF01200EF08EFF00216120FFF792FF2E
S3150801570001200EF087FF9E213A20FFF78BFF01202B
S315080157100EF080FF164904200191164B114A1249D1
S31508015720009405F09BFC0222134BC3F8A02008B095
S3150801573010BD40F23624114904200191084B094A4B
S315080157400949009405F08AFC012206A90C4807F0CC
S315080157500FFBBEE7C00A0020B01B0020403E04082C
S31508015760943F0408D83C0408F03C04086A49002020
S31508015770E83D0408B83F040800E00350583E040811
S31508015780F421002084462023F0B5102714460E463E
S31508015790144D93B005208DF800C08DF801300EF038
S315080157A039FF05F50053C3F8A07014200EF032FF37
S315080157B00D4B69461868E31CDBB209AA08F01EFE00
S315080157C005F580550A200EF025FF0520C5F8A070BD
S315080157D00EF020FF224630460DF126012DF006F87F
S315080157E013B0F0BD00C00350C80B00202DE9F043EB
S315080157F002231024634D644A9BB005F50059634F93
S315080158000520ADF82C300A920EF004FF1420C9F8D1
S31508015810A0400EF0FFFE06220AA9386808F03AFEF3
S3150801582005F580550A200EF0F5FE0520C5F8A040BD
S315080158300EF0F0FE01200EF0EDFE4FF080734FF0F2
S31508015840010800260393524B0DF106010DF10500DF
S3150801585002938DF8108000F05BFC9DF80530314607
S315080158608DF811309DF806300DF107008DF81230CC
S315080158708DF8138000F05AFC4AF25003ADF828302F
S315080158809DF807308DF815608DF8143002AB07CBFB
S315080158901B88CDF82A000520ADF83630CDF82E1034
S315080158A0CDF832208DF838600EF0B4FE1420C9F810
S315080158B0A0400EF0AFFE0AA91122386808F0EAFDE9
S315080158C00A200EF0A7FE0520C5F8A0400EF0A2FE9C
S315080158D040460EF09FFE2F4B05200A938DF82C604B
S315080158E00EF098FE1420C9F8A0400EF093FE05228A
S315080158F00AA9386808F0CEFD0A200EF08BFE0520AD
S31508015900C5F8A0400EF086FE9E213A20FFF78AFED2
S315080159105423ADF82C30204B05200A930EF07AFE5D
S315080159201420C9F8A0400EF075FE06220AA93868A7
S3150801593008F0B0FD0A200EF06DFE0520C5F8A0405E
S315080159400EF068FE31460520FFF76CFE134B052065
S315080159500A938DF82C600EF05DFE1420C9F8A0405C
S315080159600EF058FE05220AA9386808F093FD0A20A8
S315080159700EF050FE0520C5F8A0400EF04BFE1BB0F8
S31508015980BDE8F08300C003503AA01E0BC80B0020E7
S315080159900300003961A00F0101A0310017A0010120
S315080159A070B540F2931484B0009440F21324364A39
S315080159B0364B374901920546364A042005F04EFB17
S315080159C035490420354B334A01910094304905F095
S315080159D045FB0222324B0A20C3F8A0200EF058FBE1
S315080159E001F0AEFF2F4B1C68041BB4F57A7F23D355
S315080159F0012400202C4B06211A682346CDE9000410
S31508015A000AF094FB65B942F210700EF07FFB2B4643
S31508015A100146CDE90055254A25480EF0B5F930BBB2
S31508015A20012324482449254A05700B70137004B0D4
S31508015A30BDE87040FFF7DABE4FF4D076204A04205D
S31508015A40CDE90124114B134A1149009605F006FBCD
S31508015A501C4A1D4B02FB04F404F5742404F5107466
S31508015A60A3FB0434C4F38F100EF012FBC0E740F217
S31508015A70AD15164920460191044B064A044900957D
S31508015A8005F0ECFA04B070BD643E0408F03F040862
S31508015A90F03C0408D83C0408803D0408C83F0408C3
S31508015AA000D00350F021002008220020F1510108FE
S31508015AB0D02100206B4900206A49002005100020EA
S31508015AC0743E040818FCFFFFD34D6210083E040813
S31508015AD040F27B302DE9F0436E4C9DB06E496F4B19
S31508015AE06F4A01940090032005F0B8FA01201024AA
S31508015AF00EF090FD02236B4D6B4A05F50059DFF850
S31508015B00BC810520ADF834300C920EF083FD1420CB
S31508015B10C9F8A0400EF07EFD0CA90622D8F80000AF
S31508015B2008F0B8FC05F580550A200EF073FD05202E
S31508015B30C5F8A0400EF06EFD03200EF06BFD0126A0
S31508015B404FF080720027594B0DF10E010DF10D0032
S31508015B50CDE904328DF8186000F0DAFA9DF80D30B7
S31508015B6039468DF819309DF80E300DF10F008DF874
S31508015B701A308DF81B6000F0D9FA40F60313ADF818
S31508015B801E304AF25003ADF830309DF80F308DF8CB
S31508015B901D708DF81C300DEB040CBCE80F00CDF818
S31508015BA032000520CDF83E30CDF83610CDF83A2032
S31508015BB08DF842700EF02EFD1420C9F8A0400EF0A3
S31508015BC029FD0CA91322D8F8000008F063FC0A2065
S31508015BD00EF020FD0520C5F8A0400EF01BFD344B44
S31508015BE005200C938DF834700EF014FD1420C9F8B5
S31508015BF0A0400EF00FFD05220CA9D8F8000008F008
S31508015C0049FC0A200EF006FD0520C5F8A0400EF055
S31508015C1001FD9E213A20FFF705FD6423ADF83430D6
S31508015C20244B05200C930EF0F5FC1420C9F8A0406E
S31508015C300EF0F0FC06220CA9D8F8000008F02AFCA0
S31508015C400A200EF0E7FC0520C5F8A0400EF0E2FC9C
S31508015C5039460520FFF7E6FC174B05200C938DF80E
S31508015C6034700EF0D7FC1420C9F8A0400EF0D2FC0F
S31508015C7005220CA9D8F8000008F00CFC0A200EF041
S31508015C80C9FC0520C5F8A0400EF0C4FC1DB0BDE84E
S31508015C90F08300BF843E0408F03C0408603F040812
S31508015CA0D83C040800C003503AA01E0B032F003944
S31508015CB061A0000101A0310017A00101C80B002055
S31508015CC02DE9F04140F25D276B4886B06B4A6C4975
S31508015CD06C4B01900097042005F0C0F96A4B6B4E96
S31508015CE01B680120C6F820340EF094FC012105201A
S31508015CF0FFF798FC664C0120664D0EF08BFC0222DC
S31508015D00072005A9FFF73EFD23882A880133039258
S31508015D10614A9BB2CDE9012340F26D22238004201A
S31508015D20584B00925649554ABDF8147005F096F934
S31508015D302388012B15D00AD94FF002082B88A4F81D
S31508015D40008001339BB2032B2B8045D02CD8012030
S31508015D500EF060FC0121042006B0BDE8F041FFF712
S31508015D6061BC40F273244D494D4A464BCDE90117B2
S31508015D70042017804249414A009405F06FF91E2113
S31508015D803A20FFF74FFC0B213B20FFF74BFC0D2177
S31508015D906120FFF747FC9E213A20FFF743FC0021CB
S31508015DA06120FFF73FFCD2E7384601F0B9F940F226
S31508015DB0A2263C4A3C4C8DED020B324B0192032044
S31508015DC02E4A2F49009684ED000B05F047F9FFF797
S31508015DD05BFC00232B80BAE7314B1888381A22F06E
S31508015DE039FB00224FF07C5322F09EFB4FF03332F1
S31508015DF02E4B22F099FB00222D4B22F095FB4FF4F6
S31508015E00227300932B4B2C4F01932C4B1B4AC3E94E
S31508015E100001CDE902011B4B0420194905F01EF9C1
S31508015E203C782CB340F221250024254B009501939B
S31508015E303C7040F21324234B104A1149042005F003
S31508015E400DF90A20C6F8A0800EF022F91E490B4A60
S31508015E50019104200A491D4B009405F0FFF81C4BDB
S31508015E600A20C3F8A0800EF013F9FFF731FE6EE79A
S31508015E70FFF70AFC2C806AE7A03E0408D83C040810
S31508015E80F03C04087C3F04080822002000E0035087
S31508015E90EC480020EA480020B83E0408DC3E040825
S31508015EA0E8480020003F0408C00A00203333F33FC6
S31508015EB000005940EC3E040805100020B01B0020E4
S31508015EC0E83D0408B83F0408803D0408C83F0408B3
S31508015ED000D003504FF473702DE9F0436C4C9DB01C
S31508015EE06C496D4B6D4A01940090042005F0B6F893
S31508015EF0012010240EF08EFB02230126684D694A03
S31508015F0005F50059DFF8B0810520ADF834300C925B
S31508015F100EF080FB1420C9F8A0400EF07BFB0CA9FB
S31508015F200622D8F8000008F0B5FA05F580550A20CA
S31508015F300EF070FB0520C5F8A0400EF06BFB30464D
S31508015F400EF068FB4FF080720027574B0DF10E01DA
S31508015F500DF10D00CDE904328DF8186000F0D8F87E
S31508015F609DF80D3039468DF819309DF80E300DF132
S31508015F700F008DF81A308DF81B6000F0D7F84AF239
S31508015F805003ADF830309DF80F308DF81D708DF83F
S31508015F901C300DEB040307CB1B88CDF83200052016
S31508015FA0ADF83E30CDF83610CDF83A208DF8407070
S31508015FB00EF030FB1420C9F8A0400EF02BFB0CA9FB
S31508015FC01122D8F8000008F065FA0A200EF022FB23
S31508015FD00520C5F8A0400EF01DFB344B05200C9397
S31508015FE08DF834700EF016FB1420C9F8A0400EF097
S31508015FF011FB05220CA9D8F8000008F04BFA0A2073
S315080160000EF008FB0520C5F8A0400EF003FB9E2103
S315080160103A20FFF707FB5423ADF83430244B05200B
S315080160200C930EF0F7FA1420C9F8A0400EF0F2FA14
S3150801603006220CA9D8F8000008F02CFA0A200EF05E
S31508016040E9FA0520C5F8A0400EF0E4FA394605201C
S31508016050FFF7E8FA174B05200C938DF834700EF00C
S31508016060D9FA1420C9F8A0400EF0D4FA05220CA9D1
S31508016070D8F8000008F00EFA0A200EF0CBFA05202F
S31508016080C5F8A0400EF0C6FA1DB0BDE8F08300BF02
S31508016090103F0408F03C0408483F0408D83C0408AB
S315080160A000C003503AA01E0B0300003961A00D0180
S315080160B001A0310017A00101C80B002010B54FF44B
S315080160C0B4740D4982B004200C4B0D4A0191009419
S315080160D00C4904F0C3FFFFF7FDFE012300200A4A1D
S315080160E00A491268C1F820240621CDE900030AF0FD
S315080160F01DF802B010BD00BF283F04081C40040863
S31508016100D83C0408F03C04080822002000E00350AB
S3150801611010B1044B1B78037011B1034B1B780B703C
S31508016120704700BF714900207049002010B1044B27
S315080161301B78037011B1034B1B780B70704700BFB6
S315080161406F4900206E49002003784BB940225B4B0A
S31508016150C3F8A0200379012B0CD0012303707047E3
S315080161604021574AC2F8A0100279012A1DD00023FE
S3150801617003707047437830B4052B12D8DFE803F073
S3150801618054453D3503264F4A138801339BB2B3F56F
S315080161907A7F138005D100230371A0F8013013809B
S315080161A00376012330BC03707047012BDFD1437896
S315080161B0012BDCD1444B1B881F2B45D88368434AE6
S315080161C003F001015B0811708360D0E740490B8831
S315080161D0072B4FD83F4A847D526CC2F380129A40EE
S315080161E02243013382750B80DBE73B4A138801336F
S315080161F09BB2022B1380D4D1CDE7384A13880133D9
S315080162009BB2062B3DD01380CBE72F4A1388422B2E
S3150801621024D82E4904240978002944D02849C1F8EC
S31508016220A04001331380BCE78378012B2ED00023CD
S315080162302A4A254C13802849254D224A2B8023803A
S315080162400B8013800376ACE73F2B24D8C3681F4A1B
S3150801625003F001015B081170C36088E700214379E7
S315080162601180022B23D0012B24D0032B99D104238F
S31508016270437096E700230371A0F801300B8003767B
S315080162808FE700210523118043708AE700224370B6
S315080162900376827585E703690C4A03F001015B08F9
S315080162A01170036163E70549C1F8A040B9E7032303
S315080162B0437076E70223437073E700BF00E003509B
S315080162C000D00350F0480020F64800206D49002010
S315080162D0EE48002000C00350F2480020F448002090
S315080162E0034B04485A6903F500535A61FFF72CBF5B
S315080162F000800450282200200123A32104204FF006
S31508016300013230B5364C374D2376374BA560374DBC
S3150801631083B02061A182C4F80220E36028460AF00E
S31508016320A1FD237E002BF9D10123A22104204FF0E0
S315080163300132A57D237601952A4D2D4BA5602B4D5E
S315080163402061A182C4F80220E36028460AF08AFD8A
S31508016350237E002BF9D101234FF00132A125042018
S3150801636001992376A37DC4F8022003EB01231D4A74
S315080163700193204BA5821D4D2061A260E36028464A
S315080163800AF070FD237E002BF9D101234FF001326B
S31508016390A025042001992376A37DC4F8022003EBE6
S315080163A00123104A0193144BA582104D2061A26066
S315080163B0E36028460AF056FD237E002BF9D1042313
S315080163C0019AA17D0D4801EB022101910DEB030212
S315080163D0194605F00FF99DED010A03B030BD00BF5E
S315080163E028220020D954FE048C0200BA0080015AE2
S315080163F0880200BA840200BA800200BAC4400408BE
S315080164000123A72104204FF0013230B5364C374D10
S315080164102376374BA560374D83B02061A182C4F836
S315080164200220E36028460AF01DFD237E002BF9D1E0
S315080164300123A62104204FF00132A57D237601957B
S315080164402A4D2D4BA5602B4D2061A182C4F802204F
S31508016450E36028460AF006FD237E002BF9D10123C5
S315080164604FF00132A525042001992376A37DC4F8AE
S31508016470022003EB01231D4A0193204BA5821D4DE2
S315080164802061A260E36028460AF0ECFC237E002B1B
S31508016490F9D101234FF00132A4250420019923766D
S315080164A0A37DC4F8022003EB0123104A0193144B80
S315080164B0A582104D2061A260E36028460AF0D2FC4D
S315080164C0237E002BF9D10423019AA17D0D4801EB06
S315080164D0022101910DEB0302194605F08BF89DED9A
S315080164E0010A03B030BD00BF28220020D954FE049A
S315080164F09C0200BA0080015A980200BA940200BAB6
S31508016500900200BAC44004080123AB2104204FF0CD
S31508016510013230B5364C374D2376374BA560374DAA
S3150801652083B02061A182C4F80220E36028460AF0FC
S3150801653099FC237E002BF9D10123AA2104204FF0CF
S315080165400132A57D237601952A4D2D4BA5602B4D4C
S315080165502061A182C4F80220E36028460AF082FC81
S31508016560237E002BF9D101234FF00132A9250420FE
S3150801657001992376A37DC4F8022003EB01231D4A62
S315080165800193204BA5821D4D2061A260E360284638
S315080165900AF068FC237E002BF9D101234FF0013262
S315080165A0A825042001992376A37DC4F8022003EBCC
S315080165B00123104A0193144BA582104D2061A26054
S315080165C0E36028460AF04EFC237E002BF9D104230A
S315080165D0019AA17D0D4801EB022101910DEB030200
S315080165E0194605F007F89DED010A03B030BD00BF55
S315080165F028220020D954FE04AC0200BA0080015AB0
S31508016600A80200BAA40200BAA00200BAC44004084B
S315080166100123AF2104204FF0013230B5364C374DF6
S315080166202376374BA560374D83B02061A182C4F824
S315080166300220E36028460AF015FC237E002BF9D1D7
S315080166400123AE2104204FF00132A57D2376019561
S315080166502A4D2D4BA5602B4D2061A182C4F802203D
S31508016660E36028460AF0FEFB237E002BF9D10123BD
S315080166704FF00132AD25042001992376A37DC4F894
S31508016680022003EB01231D4A0193204BA5821D4DD0
S315080166902061A260E36028460AF0E4FB237E002B12
S315080166A0F9D101234FF00132AC2504200199237653
S315080166B0A37DC4F8022003EB0123104A0193144B6E
S315080166C0A582104D2061A260E36028460AF0CAFB44
S315080166D0237E002BF9D10423019AA17D0D4801EBF4
S315080166E0022101910DEB0302194604F083FF9DED8A
S315080166F0010A03B030BD00BF28220020D954FE0488
S31508016700BC0200BA0080015AB80200BAB40200BA43
S31508016710B00200BAC440040804234FF4F87230B535
S315080167201C491D4C1D481E4DC4E902011D4985B071
S31508016730C4F80210A3822361A4F8172028460AF098
S3150801674091FB237E002BF9D105200DF0A1FC042332
S315080167504FF001310122114D1348A382C4E90250B9
S315080167600F4D2361C4F80210227628460AF07AFBF7
S31508016770237E002BF9D14FF4FD75A27D0B49032029
S31508016780029201910A4B0B4A0B49009504F066FCEB
S3150801679005B030BD1000E0B928220020D954FE0406
S315080167A00080015A01010102100000BA00410408E3
S315080167B004420408D0400408F0400408F8B501234F
S315080167C0332104204FF001322E4C2F4D23762F4BC7
S315080167D0A5602F4D2061A182C4F80220E3602846F6
S315080167E00AF040FB237E002BF9D101233220042134
S315080167F04FF00132244D2376264BA560A67D244D04
S31508016800A0822161C4F80220E36028460AF02AFB27
S31508016810237E002BF9D1312304214FF001320120C7
S31508016820A382194BA77DA3601B4B194D07EB0627BE
S3150801683020762161C4F80220E36028460AF012FB9B
S31508016840237E002BF9D1302304214FF00132012098
S31508016850A3820D4BA67DA360104B0D4D06EB0726B3
S3150801686020762161C4F80220E36028460AF0FAFA84
S31508016870237E002BF9D1A37D03EB062300EE103A04
S31508016880F8BD00BF28220020D954FE04CC0000BA66
S315080168900080015AC80000BAC40000BAC00000BA94
S315080168A0F8B50123772104204FF001322E4C2F4DE4
S315080168B023762F4BA5602F4D2061A182C4F80220B3
S315080168C0E36028460AF0CEFA237E002BF9D101238C
S315080168D0762004214FF00132244D2376264BA560FC
S315080168E0A67D244DA0822161C4F80220E3602846D2
S315080168F00AF0B8FA237E002BF9D1752304214FF04B
S3150801690001320120A382194BA77DA3601B4B194DA8
S3150801691007EB062720762161C4F80220E3602846A2
S315080169200AF0A0FA237E002BF9D1742304214FF033
S3150801693001320120A3820D4BA67DA360104B0D4D9C
S3150801694006EB072620762161C4F80220E360284673
S315080169500AF088FA237E002BF9D1A37D03EB0623DF
S3150801696000EE103AF8BD00BF28220020D954FE04D3
S31508016970DC0100BA0080015AD80100BAD40100BA74
S31508016980D00100BAF8B50123872104204FF001325E
S315080169902E4C2F4D23762F4BA5602F4D2061A182BA
S315080169A0C4F80220E36028460AF05CFA237E002B2D
S315080169B0F9D10123862004214FF00132244D237693
S315080169C0264BA560A67D244DA0822161C4F802202C
S315080169D0E36028460AF046FA237E002BF9D185237F
S315080169E004214FF001320120A382194BA77DA36030
S315080169F01B4B194D07EB062720762161C4F80220A7
S31508016A00E36028460AF02EFA237E002BF9D1842367
S31508016A1004214FF001320120A3820D4BA67DA3600C
S31508016A20104B0D4D06EB072620762161C4F802208E
S31508016A30E36028460AF016FA237E002BF9D1A37DD6
S31508016A4003EB062300EE103AF8BD00BF282200200A
S31508016A50D954FE041C0200BA0080015A180200BA71
S31508016A60140200BA100200BAF8B501238B210420DA
S31508016A704FF001322E4C2F4D23762F4BA5602F4D0B
S31508016A802061A182C4F80220E36028460AF0EAF9E7
S31508016A90237E002BF9D101238A2004214FF00132EC
S31508016AA0244D2376264BA560A67D244DA08221611F
S31508016AB0C4F80220E36028460AF0D4F9237E002BA5
S31508016AC0F9D1892304214FF001320120A382194B00
S31508016AD0A77DA3601B4B194D07EB0627207621617D
S31508016AE0C4F80220E36028460AF0BCF9237E002B8D
S31508016AF0F9D1882304214FF001320120A3820D4BDD
S31508016B00A67DA360104B0D4D06EB07262076216165
S31508016B10C4F80220E36028460AF0A4F9237E002B74
S31508016B20F9D1A37D03EB062300EE103AF8BD00BFA9
S31508016B3028220020D954FE042C0200BA0080015AEA
S31508016B40280200BA240200BA200200BAF8B50123C5
S31508016B508F2104204FF001322E4C2F4D23762F4BD7
S31508016B60A5602F4D2061A182C4F80220E360284662
S31508016B700AF078F9237E002BF9D101238E2004210E
S31508016B804FF00132244D2376264BA560A67D244D70
S31508016B90A0822161C4F80220E36028460AF062F95E
S31508016BA0237E002BF9D18D2304214FF001320120D8
S31508016BB0A382194BA77DA3601B4B194D07EB06272B
S31508016BC020762161C4F80220E36028460AF04AF9D2
S31508016BD0237E002BF9D18C2304214FF001320120A9
S31508016BE0A3820D4BA67DA360104B0D4D06EB072620
S31508016BF020762161C4F80220E36028460AF032F9BA
S31508016C00237E002BF9D1A37D03EB062300EE103A70
S31508016C10F8BD00BF28220020D954FE043C0200BA60
S31508016C200080015A380200BA340200BA300200BAAA
S31508016C302DE9F04F85B0FFF75FFBA14EA14F86ED19
S31508016C40000AFFF7DDFB87ED000AFFF75DFC9E4CA6
S31508016C509E4D84ED000AFFF7DBFC85ED000AFFF780
S31508016C605BFD1923DFF8BC829949A8F8143004237F
S31508016C70C8F810304FF00133C8F80230012388F8FC
S31508016C801830944BDFF8A092C8E9021348460AF077
S31508016C90E9F898F81830002BF8D11823A8F8143019
S31508016CA00423C8F810304FF00133C8F80230012325
S31508016CB0874A88F81830884BDFF86C92C8E90223AE
S31508016CC048460AF0CFF898F81830002BF8D197ED16
S31508016CD0005AF6EE007AD6ED005A77EEC57A95EDAA
S31508016CE0007ADFED7E6A94ED006A76EEC76A87EE72
S31508016CF0A57AC6EE867ABCEEC77AFCEEE77A17EE77
S31508016D00102A774BDFF824B21A8017EE903AABF8BF
S31508016D100030FFF737FEDFF818A2DFF818928AED80
S31508016D20000AFFF7A1FE6F4BDFF80C8283ED000A1C
S31508016D30FFF70CFF10EE100A21F09EFBC9E90001CE
S31508016D40FFF73CFD10EE100A21F096FBC8E9000199
S31508016D50FFF7A6FD624B644A1B880320029340F2A3
S31508016D60B1230093614B82ED000A61490193614A9F
S31508016D70614B04F073F9BBF800305E4A029340F2A6
S31508016D80B22300935D4B0320019359495A4B04F0F2
S31508016D9065F9386821F070FB40F2B3230093584B2C
S31508016DA0CDE90201534A01930320534B504904F09C
S31508016DB055F9306821F060FB4FF42D730093514B60
S31508016DC0CDE902014B4A019303204B4B484904F094
S31508016DD045F9286821F050FB40F2B52300934A4B48
S31508016DE0CDE90201434A01930320434B404904F08C
S31508016DF035F9206821F040FB40F2B6230093434B56
S31508016E00CDE902013B4A019303203B4B384904F083
S31508016E1025F9DAF8000021F02FFB40F2B7243C4BA4
S31508016E20CDE90201334A019300940320324B3049DC
S31508016E3004F014F92B4B40F2B924186821F01CFB15
S31508016E404FF42E73334ACDE90201009301920320D0
S31508016E50294B284A264904F001F9D9E90067009423
S31508016E6040F2BA242C4BCDE9026701930320224B49
S31508016E70204A1F4904F0F2F8D8E90067274BCDE903
S31508016E800267019300941C4B03201A4A184904F01F
S31508016E90E5F8154A40F2BB24106821F0EDFA0646DA
S31508016EA00F461F4A03200192CDE90267124B114A88
S31508016EB00F49009404F0D2F805B0BDE8F08F00BF81
S31508016EC02022002024220020182200201C22002033
S31508016ED0D954FE04640000BA600000BACDCCCC3E99
S31508016EE0FA480020102200200C220020084104083C
S31508016EF0F0400408D0400408F0410408144104088D
S31508016F00204104083041040840410408504104085E
S31508016F10604104086C410408784104088441040866
S31508016F2094410408282200200080015AF8480020CC
S31508016F3014220020481D0020401D002001230020A6
S31508016F402DE9F0479846022704464FF0200A88B0F3
S31508016F501A46062109F066F943463846414604228F
S31508016F6009F060F9434620460422052109F05AF939
S31508016F705A4E434639464046042209F053F94346D8
S31508016F8038460422062109F04DF906F580590422EE
S31508016F9039464346384606F5005609F043F9C6F818
S31508016FA040A03220C6F8A0700DF072F8C9F840A0CA
S31508016FB03220C9F8A0700DF06BF80423484DC9F8C2
S31508016FC070304146242007F0E1FB284604A9CDF894
S31508016FD01940CDF81140CDF8154007948DF8108069
S31508016FE009F01EFE4FF47A632A6BEB61AB6943EA3B
S31508016FF00803AB614FF480693A4EC6F800903A4BE4
S31508017000C5F80C80C3E902441C809C709C80DC8214
S315080170101C76FFF70DFEEF60C6F88090BFF34F8F21
S31508017020BFF36F8F284609F04FFE2146242007F04B
S31508017030ADFB23463A463946404609F0F3F82B4A52
S315080170402B4B12881B88DFF8D090D1B2294F0291B9
S3150801705089F800301B0A3B706F23DFF8C080264889
S31508017060120A264E264D274C017088F800200093F7
S31508017070254B2A46214601930320334603F0EEFFAA
S3150801708098F800302A460293702300931F4B214635
S3150801709001930320334603F0E1FF4FF0710C99F891
S315080170A000302A4602931A4B21460193CDF800C0B7
S315080170B03346032003F0D2FF4FF0720C3878154B94
S315080170C0029001932A46334621460320CDF800C093
S315080170D003F0C4FF08B0BDE8F08700BF00C0035045
S315080170E00080045000E100E028220020FA48002030
S315080170F0F84800206E490020714900201042040812
S31508017100D0400408F0400408A8410408B84104081E
S31508017110C8410408DC4104086F4900207049002071
S3150801712038B521F087F90F4B044618680D4621F04A
S31508017130A3F902460B462046294621F03DF80A4B9B
S31508017140044618680D4621F097F902460B46204673
S31508017150294621F013FB054B41EC100BC3E900014D
S3150801716038BD00BF1022002014220020381D00203F
S31508017170104B70B5186855EC104B21F07DF90E4B84
S315080171800E4ED3E9002321F017F80D4BD3E900235E
S3150801719021F0CAF902460B46D6E9000121F00CF89E
S315080171A002460B462046294621F0E8FA41EC100B27
S315080171B070BD00BF0C220020381D0020401D002094
S315080171C0481D002070B52E4D86B06B6903F4A07377
S315080171D0B3F5807F3BD1F026294604A809F092FB36
S315080171E0049C284A0420CDE90124274B274A28492B
S315080171F0009603F033FF40F2BA43F22203FB04F18F
S315080172002448009280FB01400844C917C1EBE021DC
S315080172108900214889B20291018020481B4A1C49EC
S315080172200190194B042003F019FF02232846EB604D
S3150801723009F0C2FA2A20002107F0A8FA6422184B9D
S3150801724018481A7006B0BDE870400CF02FBEFF242E
S3150801725015490E4A019101200D490B4B009403F083
S31508017260FDFE02232846EB6009F0A6FA2A20002132
S3150801727007F08CFA0B4806B0BDE870400CF016BE54
S315080172800040005A4C4204081443040824420408E6
S315080172904042040881000880F40F00205442040883
S315080172A00610002050220020684204082DE9F0410A
S315080172B01C4C82B001212A2007F068FA204609F001
S315080172C07BFA02214FF4B06008F07CF800222046D0
S315080172D0154909F0D5FA0023064640F2BA410222B9
S315080172E0124DDFF85480E9606A8064211A460096D7
S315080172F0204688F8056009F0DFFA41F201230C4FB0
S3150801730041462A46A86020463B8008F0E9FF3A46EE
S315080173102046084909F016FA0123E36002B0BDE8E0
S31508017320F08100BF0040005A404B4C00D80B0020AA
S31508017330CC0B0020D00B002044220020014B1888DA
S31508017340704700BFF40F0020034BD3F80100012852
S3150801735038BF0120704700BF682D002070B504466C
S3150801736040F21316314A84B00320314B0192314958
S31508017370314A0096029403F071FE304D304AD5F831
S31508017380013012881819B2F5C86FC5F8010006D27E
S315080173902C4B2D4A00FB03F3B2EBF30F21D3D5F89F
S315080173A00530C01AB0F5167F29D240F231142748A4
S315080173B01F4B214A1F4901900094032003F04EFEFA
S315080173C0FFF774FF0A200CF0A1FE00230146204AAC
S315080173D0CDE900331F480CF0A5FC0246B8B904B044
S315080173E070BDD5F80530C01AB0F5167FF7D3284613
S315080173F005F03AFBD5F80130C5F80530EFE70F4837
S3150801740005F032FBD5F80130C5F80530CDE740F275
S3150801741039141149029201910120054B064A054981
S31508017420009403F01BFE04B070BD00BF8C42040833
S31508017430F84204084042040824420408682D002042
S31508017440F40F002021436587AC682400AC42040888
S31508017450C571010850220020D4420408014805F0EC
S3150801746003BB00BF682D002006F0C4B8004870476A
S31508017470501D0020084B93F8363053B1223BDBB23E
S31508017480112B04D80548D84000F0010070470020A8
S3150801749070470120704700BF501D0020038002007D
S315080174A0014B1878704700BF501D002030B50446BF
S315080174B0A7250F4A85B0019203200E4B0E4A0F49A4
S315080174C00095029403F0CAFD002240F20110012141
S315080174D00B4B1A60C3E90122C3E90322A3F81D0075
S315080174E05A6119705C8005B0BDE8304001F0BCBA3C
S315080174F058430408F0440408304304084C4304087C
S31508017500501D00202DE9F0414FF0C20C04460F46EC
