S00A00005033412E73333726
S31508012000C00A0020FDC101082D3F01081DAB0308C8
S31508012010991F0208C93F010865400108F9C101086D
S31508012020F9C10108F9C10108F9C10108F9C1010895
S31508012030F9C10108E456040805410108F9C1010876
S31508012040F9C10108F9C10108F9C10108F9C1010875
S31508012050F9C10108F9C10108F9C10108F9C1010865
S31508012060F9C10108F9C101081D560108F9C101089C
S31508012070F9C10108F9C10108F9C10108CD330208FE
S31508012080F9C10108F9C10108F9C10108F9C1010835
S31508012090F9C10108F9C10108F9C10108F9C1010825
S315080120A0F9C10108F9C10108ADC70108F9C101085B
S315080120B0F9C10108F9C1010851C901082DC9010869
S315080120C0F9C10108F9C10108BD4E0308F9C10108A2
S315080120D0FD580308290E0408250E0408ED500308C7
S315080120E0350E04082D0E0408D5580308310E0408C8
S315080120F03D5903080D330308AD590308D1340308C4
S31508012100F9C10108713E0108F9C10108F9C10108BF
S31508012110F9C10108F9C10108F9C10108F9C10108A4
S31508012120F9C10108F9C10108F9C10108F9C1010894
S31508012130F9C10108F9C10108F9C10108F9C1010884
S31508012140F9C10108F9C10108F9C101080000000037
S31508012150013800D0FCE77047C0290AD0F0B5B1F5BF
S31508012160807F04469FB00FD0802904D029201FB054
S31508012170F0BD0F2070472498002848D024984FF4C2
S3150801218086650A90012006E0249800284DD00A9019
S3150801219040F2344501200B900195212010250C951C
S315080121A00D9025980E900AA8102501269FED247BEF
S315080121B04FF0210EDFF898C00F9012A810951196CE
S315080121C0129213961495CDF854E0CDF808C00390F1
S315080121D08DED047B9FED1C7B01AF069307908DED7A
S315080121E0087B16973BB306AA1792042740F61102F5
S315080121F01126CB0816AD0EA91AA8189719961A947E
S315080122001B951C931D920EF07DFE1FB0F0BD0A9022
S315080122104FF4826501200B900195212010250C951C
S315080122200D9025980E900120BEE7249840F214459A
S315080122300A900120EFE702AAD6E700BFAFF30080B4
S3150801224010000010112800001000000011280000DD
S315080122506C5A0408000000002DE9F04F2DED028BA1
S31508012260934608241E460246A9B0DDF8D0A0DDF83B
S31508012270D490CDE90601414021FA04F34B40980771
S3150801228004F1080418BF9B00202C1A44F4D1BC4B56
S31508012290A3FB0213DB0803EBC313D21AB94B02F5EE
S315080122A006271B7807F55067002B00F0B780B64C58
S315080122B08123049323464FF000083C46CDF80CB021
S315080122C00593A4F50625059AA5F550635B0952F809
S315080122D0232004F01F00C240D20718D4AB4A52F893
S315080122E02330C340DB0700F18780DDF80CB02746B1
S315080122F0BBF1000F6FD0B8F1000F18BF4746002099
S31508012300369B1F6029B0BDEC028BBDE8F08FBAF190
S31508012310000F02D00023CAF80030B9F1000F02D02D
S315080123200023C9F800301027DFF87CB20023DBF858
S3150801233000003246214600971CF00CFD0346002892
S315080123404CD1BAF1000F00F0F2801023CAF8003020
S3150801235003F1BC43326803F5BA1303F5E8539A420D
S3150801236040F0EA80B9F1000F11D04B462146DBF85F
S31508012370000018AA1CF042FD0346002840F0E5803B
S31508012380D9F80030DAF800209B1AC9F80030D6E9E6
S315080123900223DDE90610834208BF8A4200F0DD8088
S315080123A0774BA5F6FF45A3FB0523DB0803EBC31310
S315080123B0ED1A05F5062404F55064049B013B0493C4
S315080123C07FF47FAFDDF80CB0BBF1000F03D04746B1
S315080123D0B8F1000F93D16FF08B0093E76C4A9042E6
S315080123E000F0AA801232904200F0A680694A934210
S315080123F0CDD06FF0910085E7614BA5F6FF42A3FBAF
S315080124000213DB0803EBC313D21AB8F1000F08BF96
S31508012410A04602F5062404F55064CEE70AF0AAFAA6
S3150801242004460028E5D19FED548B0146402208A8B1
S315080124302EF05FFF2146402218A82EF05AFFCDE95B
S31508012440037B554DDFF860814F4C0596CDF8D0A03A
S315080124502F4607F10F06D8F8000010223B4608A9B7
S31508012460009610352DF057FEF8B108AB9E464FF091
S31508012470010BDFF818C103EB800A5EF8042BA2F5FD
S315080124800623A3F550635B0954F8231002F01F02D3
S315080124900BFA02F2114344F823105CF82310D645CF
S315080124A021EA02014CF82310E7D100963B46102297
S315080124B0D8F8000018A92DF037FE60B318AB1A46F4
S315080124C003EB8000D4E9001303EB010EA16823692D
S315080124D08E44E16801268E440EEB0301A646DFF819
S315080124E0ACC052F8043BA3F50627A7F550677F0948
S315080124F05CF8274003F01F0306FA03F323434CF85D
S31508012500273029B98CED008B8CED028BCCF8101095
S315080125109042E6D17446214B9D4299D10123DDE9CA
S31508012520037B184A059EDDF8D0A01370C0E61C4B44
S3150801253032689A423FF42BAF2146DBF800001CF0C3
S31508012540A1FC00283FF423AF45E7114A9042F3D096
S31508012550144A90427FF44AAFEEE7DDF80CB02746FD
S31508012560BBF1000F3FF4CBAE7368012B7FF4C7AE06
S315080125706FF08400C6E600BF0000000000000000FE
S31508012580813FE00F58490020A8380020201E00206E
S31508012590FFDF00F0FEDF00F0006D080000710800A3
S315080125A0105D175E11E000F0480C002000000000E5
S315080125B0002370B5404C05468AB0E36318B100881C
S315080125C0236016F0B9FD3D482DF079FF3C4E3D4B91
S315080125D0304633603C4B73602AF0C2FE0021304618
S315080125E01CF05AFE32A3D3E90023A062C4E90623EC
S315080125F02AF0C1FED4E9062319431043C4E90601AA
S31508012600CDE900014FF0FF334FF0FF32A06A2DF0FC
S31508012610D1FF02224FF0FF31A06A2DF0D0FF012031
S3150801262016F00CFB4FF4007300222849A06A2EF01D
S3150801263019F8B0F5007F38D100239422CDE9073384
S3150801264009933C23CDE9033205939623A06A03A98E
S3150801265006931CF03FFF35B3287C16F0EBFE0546C2
S31508012660F0B9A06A2EF0DFF816F092FE16F0C8FA55
S3150801267020B14FF48070002114F048FB16F0D0FA0F
S3150801268020B14FF40060002114F040FB2AF035FF19
S3150801269001201CF055FE0E4A0E49A06A2AF05EFE7C
S315080126A028460AB070BDFF20D7E70725F8E700BF1F
S315080126B00DD5015520000000581E0020690345EC80
S315080126C0003E0020C18A0208103E0020003C00207E
S315080126D005D3030845D3030810B5374C2DED028BF6
S315080126E0D4ED017AD4ED026A94ED037A0328C4ED98
S315080126F0007AC4ED016A84ED027A84ED030A82B098
S3150801270004D8002002B0BDEC028B10BDDFED2B8A88
S3150801271077EEA87A77EEA67A77EE877AB5EE006A2B
S3150801272030EE278A28EE068A18EE100A24F0EAFD0A
S315080127301FA3D3E9002325F0AFF8DFED217A23465D
S31508012740B0EE680A002808FE278A04F11002F3ECA5
S31508012750017A77EEC87A67EEA77A9A4230EE270AA7
S31508012760F5D1F5EE007A20EE270AB5EE400AF1EE2C
S3150801277010FA17D4B1EEC07AC7EE087AB0EE007A2D
S31508012780F4EEC77AF1EE10FAC8BFC820BADC9FED9D
S315080127900D7A67EE877AFCEEE77ACDED017A9DF838
S315080127A00400AFE726F02EFFB0EE407AE4E700BF5B
S315080127B07B14AE47E17A843F744300200000000091
S315080127C00AD7233C0000C842F8B5DFEDAD7A2DEDF6
S315080127D0028B06460446034600F15005B3EC017A1E
S315080127E0AB4277EE877AF9D1B3EE047A87EE878A18
S315080127F018EE100A24F086FD9DA3D3E9002325F0DF
S315080128004BF8DFEDA07A33469FED9D7A002808FE46
S31508012810278AF3EC017A77EEC87A67EEA77AAB4294
S3150801282037EE277AF5D1F3EE047A87EE270AB5EE65
S31508012830400AF1EE10FA00F11381F1EEC07AC7EE03
S31508012840887A17EE900A24F05DFD8BA3D3E900235D
S3150801285025F022F800285FD18B4B8C4993ED007A3D
S3150801286091ED006AB4EEC76AF1EE10FA884BD3ED22
S31508012870006A23D49FED826A0023F4EC017AB4EE50
S31508012880E77AF1EE10FA0ADDF4EEE67AF1EE10FADD
S31508012890C8BF36EE276A03F10102C8BFD3B2AC42FC
S315080128A0EBD1002B60D007EE903AF8EEE77A86EE88
S315080128B0270ABDEC028B81ED000AF8BDB4EEE66A83
S315080128C0F1EE10FAD6DD734B9FED6D5AF7EE005A0D
S315080128D0FFEE004A864603F1500C02E0D0B29C4551
S315080128E069D0F4EC017A76EE677AF4EEE57AF1EEE0
S315080128F010FAE3EC017A00F10102EFD5F4EEE47A7D
S31508012900F1EE10FA0EF10107E8DD54ED017A5FFAEE
S3150801291087FE35EE275AE2E73046B0EC017AB0EE8B
S31508012920476AF0EE476AF0EC017AF4EE477AF1EE7F
S3150801293010FAF4EE667A37FE877AF1EE10FA48BF96
S31508012940F0EE676AA84236EE276AECD1BDEC028B37
S3150801295036EE476AF3EE027A36EE666A86EE270A9D
S315080129604A4981ED000AF8BD3046B0EC017AB0EE6D
S31508012970476AF0EE476AF0EC017AB4EE677AF1EE4F
S3150801298010FAF4EE676A48BFB0EE677AF1EE10FA0C
S3150801299077FEA66AA84236EE276AECD1BDEC028B11
S315080129A076EE477AB3EE027A77EEE67A87EE870A0B
S315080129B081ED000AF8BD142806D007EE90EAF8EE74
S315080129C0E77A85EE270A74E73046F0EC015AF0EE0D
S315080129D0654AB0EE655AF0EC017AF4EE657AF1EEE5
S315080129E010FAF4EE457A77FEA55AF1EE10FA48BFC9
S315080129F0B0EE675AA84274EEA74AECD174EEE57AAE
S31508012A00F3EE025A77EEC57A87EEA50AB4EEC07AD6
S31508012A10F1EE10FA204B83ED000A7FF74AAFF4EE88
S31508012A20C06AF1EE10FA7FF544AF30EE467AF7EE5A
S31508012A30007AB4EEE77AF1EE10FA04DD36EE270AEB
S31508012A4083ED000A35E7FFEE006AB4EEE67AF1EEA9
S31508012A5010FA7FF52EAF36EE670A83ED000A28E7EE
S31508012A6026F0D0FDF0EE407AE9E600BFAFF300802C
S31508012A707B14AE47E17A843F333333333333C33F71
S31508012A80000000000AD7233C600D0020D84300202F
S31508012A90640D002084430020D44300200000000078
S31508012AA038B52DED048BC9B30446DFED2B7A034601
S31508012AB000EB8105B3EC017A9D4277EE877AF9D16D
S31508012AC007EE101AF8EEC78A87EEA88A18EE100ADA
S31508012AD024F018FC1EA3D3E9002324F0DDFEDFED64
S31508012AE01F7A9FED1D7A002808FE278AF4EC017AE1
S31508012AF077EEC87A67EEA77AA54237EE277AF5D137
S31508012B0087EE289AB5EE409AF1EE10FA19D4B1EE8D
S31508012B10C90A80EE080ABDEC048B38BDDFED0E7AD2
S31508012B2087EEA79A19EE100A24F0ECFB08A3D3E95D
S31508012B30002324F0B1FE9FED098A002809FE088AC0
S31508012B40E0E7B0EE490A26F05DFDE2E7AFF3008063
S31508012B507B14AE47E17A843F000000000AD7233C84
S31508012B602DE9F84F04242DED068B0646DFED648A20
S31508012B70B3EE0E9A0D4610EE108A174603680B60DF
S31508012B8043684B6083688B60C368CB6006EB84033C
S31508012B9093ED008AB4EEE88AF1EE10FA4FEA840959
S31508012BA017DDB4EEC98AF1EE10FA12D553ED019A82
S31508012BB0F4EEE89AF1EE10FA0BDDF4EEC99AF1EEAD
S31508012BC010FA06D513ED02AAB4EEE8AAF1EE10FA48
S31508012BD00ADCA94489ED008A0134E4B2BC42D5D3A2
S31508012BE0BDEC068BBDE8F88FB4EEC9AAF1EE10FA72
S31508012BF0EFD553ED03AAF4EEE8AAF1EE10FAE8DDF3
S31508012C00F4EEC9AAF1EE10FAE3D553ED047AF4EE1F
S31508012C10E87AF1EE10FADCDDF4EEC97AF1EE10FA93
S31508012C20D7D57AEEE77A17EE900A24F06BFB2EA336
S31508012C30D3E9002324F0BEFB7AEE6A7A824617EEC0
S31508012C40900A8B4624F05EFB29A3D3E9002324F0DE
S31508012C50B1FB02460B465046594624F0F5F979EE82
S31508012C60CA7A824617EE900A8B4624F04BFB22A3BA
S31508012C70D3E9002324F09EFB02460B4650465946EB
S31508012C8024F0E2F978EE697A824617EE900A8B46C5
S31508012C9024F038FB18A3D3E9002324F08BFB024662
S31508012CA00B465046594624F0CFF9824640468B4694
S31508012CB024F028FB02460B465046594624F07AFB77
S31508012CC0824618EE100A8B4624F01CFB02460B4678
S31508012CD05046594624F0B8F924F026FEA944C9F805
S31508012CE0000079E7AFF300809A9999999999B93FC4
S31508012CF09A9999999999C93FCDCCCCCCCCCCD43F4A
S31508012D00CDCC0C40000000001D4B70B5186810EEC4
S31508012D10106A24F0F7FA18A3D3E9002304460D46EE
S31508012D2024F0D8FD10B914A5D5E90045304624F09C
S31508012D30E9FA02460B462046294624F065FC114B62
S31508012D40044618680D4624F0DDFA02460B4620466D
S31508012D50294624F059FC24F0E7FDF6EE007A07EE41
S31508012D60100AB4EEE77AF1EE10FA94BF01200020BA
S31508012D7070BD00BFAFF300807B14AE47E17A843F94
S31508012D8060460020384600202DE9F04FC76997B004
S31508012D908346209E08910C92129355EC104B8DEDAB
S31508012DA0000B7FB9102024F0D7FF0246CBF81C0090
S31508012DB020B9A74BEF21A74824F096FFC0E9017770
S31508012DC00760C760DBF81C30196859B15A680123D6
S31508012DD0584693404A608B6025F04AFEDBF81C3062
S31508012DE000221A602B1EB7BF23F0004300230122DD
S31508012DF00193A8BF3360019F974BB8BF3260BB43AD
S31508012E0019D142F20F73129A1360C7F313032343BE
S31508012E1000F0DB85219B53B9904B21E0904B03933E
S31508012E200833219A1360039817B0BDE8F08F8B4BCE
S31508012E3003930333F5E79DED007B0022002351EC54
S31508012E40170B8DED0A7B24F01DFD804650B1012339
S31508012E50129A1360219B13B1824B219A1360824BFC
S31508012E600393E0E7C7F30A5614AA15A958469DED38
S31508012E700A0B26F085F80290002E76D00B9BA6F257
S31508012E80FF36CDF84C80C3F3130343F07F53DDE9D6
S31508012E900A0143F4401319460022744B24F0D2F870
S31508012EA065A3D3E9002324F085FA65A3D3E90023B2
S31508012EB024F0CAF804460D46304624F011FA62A3F6
S31508012EC0D3E9002324F076FA02460B462046294622
S31508012ED024F0BAF804460D4627F0F2FD002207460B
S31508012EE000232046294624F0D7FC40B1384624F071
S31508012EF0F7F922462B4624F0C5FC00B9013F162FE7
S31508012F0052D85B4B03EBC703DDE90A01D3E900237A
S31508012F1024F0C2FC002849D0013F00231193149BD9
S31508012F209B1B5A1E4CBFC3F101030023079245BFE1
S31508012F300693002306930793002F39DB079B109707
S31508012F403B44079300230993089B092B66D8052B55
S31508012F50C5BF043B002401240893089B023B032BAD
S31508012F6067D8DFE803F02D3A3859DDE914631E44C2
S31508012F7006F23243202BC9BFC3F14003C3F1200334
S31508012F809F4006F21243D8BF04FA03F006F1FF3652
S31508012F90C4BF24FA03F347EA030024F091F9012296
S31508012FA0A1F1F873139276E70123B7E71190B6E713
S31508012FB0069BDB1B06937B42099300231093C3E709
S31508012FC000230D930C9B002B56DC012399461A46C8
S31508012FD004930C920CE00123F3E700230D930C9B59
S31508012FE0FB1803F1010904934B46012BB8BF0123D2
S31508012FF0DBF81C000021042202F114059D423FD989
S315080130004160584625F0F4FC039000283BD1194B42
S31508013010024640F2AF11CEE60123DFE70124002381
S315080130200D9408934FF0FF33002299460493122317
S31508013030CFE701230D93F5E761436F63A787D23F76
S31508013040B3C8608B288AC63FFB799F501344D33F88
S31508013050659E04087C9E04080000F07F619E0408B2
S31508013060589E0408359E0408349E04080000F83F5B
S31508013070789F0408D59E04080C9B99460493B7E7E4
S3150801308001315200B8E7DBF81C30B9F10E0F039A8B
S315080130901A606FD8002C6DD0002F36DD07F00F02AD
S315080130A0A04BF8054FEA271403EBC20393ED007B07
S315080130B08DED0E7B17D59C4B04F00F044FF00308DA
S315080130C0D3E90823DDE90A0124F09EFACDE90001D6
S315080130D0954D5CB9DDE90E23DDE9000124F094FA8A
S315080130E0CDE900012BE04FF00208F1E7E10709D528
S315080130F008F10108DDE90E01D5E9002324F05AF9A2
S31508013100CDE90E0164100835E3E700F007817C423A
S31508013110844B854D4FF0020804F00F02241103EB8E
S31508013120C203DDE90A01D3E9002324F043F90023A8
S31508013130CDE90001002C40F0E580002BD0D1119B90
S31508013140DDE90045002B00F04C810022774B204633
S31508013150294624F0A1FB002800F04381B9F1000FAC
S3150801316000F03F81049B002B00F3E480DDE90A347B
S31508013170CDE90034159B002B02DB0E2F40F342826A
S315080131800D9A002A40F06782099C0025DDF818800F
S31508013190B8F1000F0DD0079B002B0ADD4345069AAF
S315080131A0A8BF4346D21AA8EB03080692079AD31A70
S315080131B00793099B0BB30D9B002B00F0A682002CED
S315080131C000F0A18229462246584625F07BFD029A3F
S315080131D001460546584625F0CBFC0299064658464F
S315080131E025F046FC099B1B1B099300F09182099A5D
S315080131F03146584625F066FD02900121584625F0CC
S31508013200A1FC109B0446002B00F084821A46014655
S31508013210584625F057FD089B0446012B03DC009B05
S31508013220002B00F07C820026236904EB83031869CE
S315080132302EF066F9C0F120001096079B184410F08D
S315080132401F0000F09182C0F12003042B40F3818214
S31508013250C0F11C00069B034480440693079B034464
S315080132600793069B002B05DD1A460299584625F059
S3150801327083FD0290079B002B05DD21461A46584619
S3150801328025F07AFD0446119B002B00F07682214633
S3150801329002982EF084F9002880F26F8200230A2210
S315080132A00299584625F006FC0D9B7E1E0290002BBE
S315080132B000F05C82002329460A22584625F0FAFBCB
S315080132C0049B0546002B03DC089B022B00F35E8258
S315080132D0B8F1000F05DD29464246584625F04CFD52
S315080132E00546109B002B00F0D0826968584625F0E8
S315080132F07FFB0746002840F07F820D4B024640F2CD
S31508013300EF2158E5E20706D508F10108D5E90023BA
S3150801331024F050F80123641008350BE74FF0020832
S315080133200DE700BF789F0408509F04080000F03F8E
S31508013330D59E040820460022AC4B294624F03AF8CB
S315080133407E1E08F10108049CCDE90001404623F0E0
S31508013350C7FFDDE9002324F02DF8A54B002223F051
S3150801336073FEA1F15073CDE90E010F93002C3BD1E9
S315080133700022A04BDDE9000123F064FE02460B465C
S31508013380CDE90023DDE90E2324F0A4FA002840F054
S315080133905781DDE90E2101F10043DDE9000124F041
S315080133A07BFA00283FF4E2AE002425460C9BDDF8A3
S315080133B00CA0DE434FF000082146584625F058FB7D
S315080133C0002D00F0A980B8F1000F05D0A84503D05B
S315080133D04146584625F04CFB2946584625F048FBF8
S315080133E09AE03E464C46B1E7834B03EBC40353E9E7
S315080133F00201039B1C440D9B002B4AD002460B4637
S3150801340000207E4924F000F9DDE90E2323F01AFE97
S31508013410DDF80CA0CDE90E01DDE9000127F050FB2E
S31508013420054623F05DFF024630350B46DDE900010E
S3150801343023F008FE0AF8015B02460B46CDE90001B6
S31508013440DDE90E0124F046FA002865D100206C4911
S31508013450DDE9002323F0F6FD02460B46DDE90E0100
S3150801346024F038FA002840F00D81A24500F0EA80E0
S3150801347000225E4BDDE90E0123F09CFF00225B4B27
S31508013480CDE90E01DDE9000123F094FFCDE9000144
S31508013490C2E7DDE90E2323F08DFFA046DDF80CA077
S315080134A0CDE90E01DDE9000127F00AFB054623F007
S315080134B017FF024630350B46DDE9000123F0C2FD50
S315080134C00AF8015B02460B46A245CDE900234FF0F7
S315080134D0000223D1494BDDE90E0123F0B5FD024671
S315080134E00B46DDE9000124F0F5F9002840F0CA8011
S315080134F000204249DDE90E2323F0A4FD02460B46CE
S31508013500DDE9000124F0C8F970B1C24608F1FF38B7
S315080135101AF8013C302BF8D0374655E0334B23F0E7
S3150801352049FFCDE90001BDE7DDE90A34CDE90034FB
S31508013530159B002BFFF628AE0E2F3FF725AE2E4B17
S3150801354003EBC70393ED007B0C9B002B8DED047BEE
S3150801355002DAB9F1000F64D0DDF80CA0DDE9004507
S31508013560DDE904232046294624F04EF827F0A8FA77
S31508013570064623F0B5FEDDE9042323F01BFF0246C8
S31508013580204606F130040B46294623F05BFD0AF86E
S31508013590014B039C02460B46AAEB0404A14540F0E5
S315080135A0828023F051FD04460D46DDE9042324F00B
S315080135B091F9002865D120462946DDE9042324F03E
S315080135C061F908B1F3075CD40299584625F050FA17
S315080135D0002301378AF80030129B1F60219B002BBC
S315080135E03FF421ACC3F800A01DE400BF000024404D
S315080135F000001C4000001440789F04080000E03FCA
S315080136000000F03FA24B03EBC70393ED007B0C9B35
S31508013610002B8DED047B9FDAB9F1000F9CDC7FF45A
S31508013620C3AE00229B4BDDE9040123F0C3FEDDE9AD
S31508013630002324F045F9044600287FF4B5AE3E463A
S315080136402546B4E0DDE90A34CDE90034159B002BA3
S3150801365001DB0E2FD6DD089A012A36DC139A82B3CE
S3150801366003F23343099CDDF81880069A012158466E
S315080136701A440692079A1A44079225F063FA0546F0
S3150801368086E53E4653469A4613F8012D392A06D150
S31508013690039A9A42F7D13022039901360A701A78A9
S315080136A001321A7038E700227B4B23F083FE002291
S315080136B0002304460D4624F0E5F800283FF450AFF0
S315080136C082E7149BC3F13603CCE709F1FF34099B62
S315080136D0A34208DBB9F1000FA3EB04040EDBDDF806
S315080136E018804B46C1E7099B109AE31A0994DDF83D
S315080136F0188000241A444B461092B6E7069BA3EBA2
S3150801370009080023B1E7029E71E5099A029970E555
S31508013710029672E5089B012B17DC009BABB9019B4E
S31508013720C3F313039BB9019B23F00046360D3605F7
S3150801373036B1069B012601330693079B013307938E
S31508013740109B002B7FF470AD1096012075E50026BD
S31508013750F6E73FF486AD1C33069A1A449844069256
S31508013760079A1A4407927CE50346F4E7049B002B63
S315080137702BDC089B022B09DC27E0B9F1000F1DDCC5
S31508013780089B022B1ADD3E46CDF81090049B002BB0
S315080137907FF40CAE21460522584625F08BF90146E1
S315080137A0044602982DF0FBFE00287FF7FFADDDF8F1
S315080137B00CA0312301360AF8013BFBE50D9B3E4679
S315080137C0CDF81090002B7FF483AD039F2146029814
S315080137D02DF009FE039B00F13009049A07F8019BB5
S315080137E0FB1A9A4240F3CB8000230A2202995846D3
S315080137F025F060F90290E9E72A6905F10C010C3018
S31508013800023292002DF0D3FD01223946584625F0A1
S31508013810B3FA039BA846054603F1010ADDE903232A
S3150801382013440793009B03F0010309930AF1FF333D
S315080138302146029804932DF0D6FD4146069000F1E3
S31508013840300902982DF0ABFE2A462146074658460E
S3150801385025F0FEFAC268014602B3584625F008F972
S31508013860002F3ADA01220299584625F085FA2146AF
S3150801387002902DF094FE002803DC29D119F0010FDE
S3150801388026D0B9F1390F1DD132E02846C1E700BF6C
S31508013890789F040800001440000024400A9002980A
S315080138A02DF07DFE0A990C90584625F0E1F80C9A00
S315080138B05ABB089B53B9099B43B9B9F1390F17D0BC
S315080138C0002F05DD069B03F1310901E0002F2ADAF5
S315080138D0DDF810A00AF8019B6EE5089B3B4304D16D
S315080138E0009B03F00103002BBCD0B9F1390F36D187
S315080138F0049F392307F8013BBA46013F1AF8013CF0
S31508013900392B5AD001333B7056E5002F06DB089B4D
S315080139103B4306D1009B03F0010313B9002AA1DC3E
S31508013920D6E7002AE1DC079B57460AF8019C53456E
S315080139302ED000230A220299584625F0BBF8A8453D
S3150801394002904FF000034FF00A02414658460BD148
S3150801395025F0B0F8804605460AF1010A66E7DDF862
S3150801396010A009F10109B5E725F0A4F82946804612
S3150801397000230A22584625F09DF80546ECE7049BE4
S315080139804FF00008002BCCBF1F460127039B1F449D
S3150801399001220299584625F0EFF9214602902DF0A9
S315080139A0FEFD0028A8DC02D119F0010FA4D1BA4600
S315080139B017F8013D302BFAD0FEE4039BBB429BD19D
S315080139C03123039A01361370F6E4219B002B7FF409
S315080139D025AA014BFFF744BA589E04080348044B2D
S315080139E0834202D0034B03B1184770479C1B002042
S315080139F09C1B002000000000064B0749C91A8910C4
S31508013A0048BF0131491003D0044B0BB1014818478F
S31508013A10704700BF9C1B00209C1B00200000000073
S31508013A2010B5064C237843B9FFF7D8FF044B13B1F9
S31508013A300448AFF300800123237010BD36490020E6
S31508013A4000000000E4A2040808B5054B1BB10549AE
S31508013A500548AFF30080BDE80840FFF7CDBF00BFBA
S31508013A6000000000B8200020E4A20408A3F5803A6B
S31508013A70704700BF174B002B08BF134B9D46FFF736
S31508013A80F5FF00218B460F461348144A121A2DF0EA
S31508013A9030FC0E4B002B00D098470D4B002B00D065
S31508013AA098470020002104000D000D48002802D087
S31508013AB00C48AFF3008024F02DFF2000290000F008
S31508013AC095F924F037F900BF00000800000000004E
S31508013AD000000000C00A00209C1B0020404A00206C
S31508013AE00000000000000000F0B503689B4A23F4BB
S31508013AF07F4323F00703934204468FB000F0A88062
S31508013B003AD802F17F42934200F08D8002F5802275
S31508013B1093425BD10021A127B0F8055009AE1422C2
S31508013B2006AB28460096069117F008FE8C4B032033
S31508013B30CDE901358B4A8C4B8C49009706F0BEF9C5
S31508013B4032460821BDF81830894806F083FC242D31
S31508013B5000F09A802B2D0DD1B4F805302279ADF8F5
S31508013B601D308DF81C2007A9334603C9BDF8182056
S31508013B7005F0E6F80FB0F0BD7E4A93424DD002F546
S31508013B801022934239D1D126C2790389B0F805505A
S31508013B90CDE90332784A0320CDE90125724B714AF2
S31508013BA07249009606F08AF9242D7CD02B2D00F057
S31508013BB0A5801D2DDED1E379012B00F0AA80022B09
S31508013BC0D8D102F08BFB0123C377D3E7A2F51022E4
S31508013BD09342CFD1432469490320634B614A01913A
S31508013BE00094624906F06AF9002109AB084607AA5A
S31508013BF017F01AFE002840D0FEE7A2F1827293421E
S31508013C00B8D1B0F80930B0F80720B0F80510007936
S31508013C100FB0BDE8F04002F0ADBB40680FB0BDE89B
S31508013C20F04002F08DBD0026554D2846C5E90066CF
S31508013C30AE60AE8107F0DEFC2B460E2231460B2024
S31508013C4017F0AEFD207B0FB0BDE8F04002F066BB71
S31508013C50807902F0CFFB4B4C4B4A00214B4B127833
S31508013C60207817F005FD00B1FEE70221207817F04C
S31508013C7015FD00283FF47EAFFEE7424D284617F0B2
S31508013C80BDFC0446D0B1FEE7B4F805302279ADF89B
S31508013C901D308DF81C2007A9334603C9BDF8182025
S31508013CA004F092F966E7E379012B39D0022B7FF408
S31508013CB061AF02F013FB012343775BE7324E3348CA
S31508013CC0314603F0EFFC314B21463278287817F05C
S31508013CD0CFFC034600B1FEE74FF4C86200901146D7
S31508013CE0287817F0A3FC00B1FEE70221287817F01F
S31508013CF0D5FC00B1FEE702F011FC3BE7E379012BA5
S31508013D0015D0022B7FF436AF02F0E8FA0123837748
S31508013D1030E7238993B10FB0BDE8F04003F010BE38
S31508013D20238983B10FB0BDE8F04003F041BF238971
S31508013D3073B10FB0BDE8F04004F06CBA0FB0BDE83E
S31508013D40F04003F003BE0FB0BDE8F04003F036BF04
S31508013D500FB0BDE8F04004F063BA00BFA000060149
S31508013D60D8220408A02204080C230408AC2204085B
S31508013D70E0350408A0000103E8220408B02204087B
S31508013D80D0200020F80F002037490020E02000202D
S31508013D9010B5012184B02D2009F028FC002340F23A
S31508013DA0011E4FF0010C40F20E320E4C69462046B8
S31508013DB0CDF80630CDF80230CDF80930ADF800E07F
S31508013DC0ADF809208DF804C00BF08EFF02214FF4DF
S31508013DD00032054B04F58054E161C3F884215A6029
S31508013DE004B010BD0080015A00E100E008B50BF0EF
S31508013DF091FD1D4B1D4C18600BF086FD0FF020FB45
S31508013E000BF058FD01213A2009F0F0FB01230422A9
S31508013E10194618460BF036F910F008FE002010F086
S31508013E2007FE05F0C1FFFF21002006F03FFAC72172
S31508013E30012006F03BFAC721022006F037FA0721CE
S31508013E40032006F033FA0721042006F02FFA05F0BD
S31508013E50E9FFFFF79DFF20460BF034FF0FF0FEFA4E
S31508013E600EF008FAF7E700BF002100200080015A8A
S31508013E702DE9F041244B96B01C7824B101221A7021
S31508013E8016B0BDE8F0813822214608A82DF031FA8E
S31508013E906A46382108A805F08FFB8C2506461B4A79
S31508013EA003201B4B1B49019200951B4A029606F0FB
S31508013EB005F807F0B1FAA6B1DFF86C80174F07AD20
S31508013EC055F8041F404605F0B7FF2246394605A8AE
S31508013ED024F042FC0134294605A807F067FAA642F0
S31508013EE0EED107F01FFB4FF47A700FF001F8BFF31C
S31508013EF04F8F0B490B4BCA6802F4E0621343CB6040
S31508013F00BFF34F8F00BFFDE738490020302304086F
S31508013F10C4230408282304081C230408542304087A
S31508013F2000ED00E00400FA054C2304082DE9F041F0
S31508013F3096B03822002108A82DF0DBF96A46382107
S31508013F4008A805F039FBA72406460094A824174AB1
S31508013F500320174B17490192174A05F0AFFF174A75
S31508013F600320134B134901920296134A009405F054
S31508013F70A5FF07F051FAAEB10024DFF84880104FCB
S31508013F8007AD55F8041F404605F056FF2246394647
S31508013F9005A824F0E1FB0134294605A807F006FA2D
S31508013FA0A642EED107F0BEFAFEE700BF5C2304087D
S31508013FB0B8230408282304081C230408302304080A
S31508013FC0542304084C2304082DE9F04196B03822FD
S31508013FD0002108A82DF08DF96A46382108A805F0B0
S31508013FE0EBFAC12406460094C224174A0320174B4C
S31508013FF017490192174A05F061FF174A0320134B27
S31508014000134901920296134A009405F057FF07F0E7
S3150801401003FAAEB10024DFF84880104F07AD55F812
S31508014020041F404605F008FF2246394605A824F034
S3150801403093FB0134294605A807F0B8F9A642EED143
S3150801404007F070FAFEE700BF68230408A4230408F2
S31508014050282304081C2304083023040854230408CD
S315080140604C2304082DE9F04196B03822002108A80E
S315080140702DF03FF96A46382108A805F09DFADA2499
S3150801408006460094DB24174A0320174B1749019269
S31508014090174A05F013FF174A0320134B13490192D8
S315080140A00296134A009405F009FF07F0B5F9AEB177
S315080140B00024DFF84880104F07AD55F8041F404625
S315080140C005F0BAFE2246394605A824F045FB013417
S315080140D0294605A807F06AF9A642EED107F022FAA1
S315080140E0FEE700BF7C23040890230408282304085C
S315080140F01C23040830230408542304084C23040809
S31508014100704700BF15F07CBE08B50FF0E9F9BDE8A8
S31508014110084017F035B800BF0120704700B5C3B095
S3150801412015F000FE29F0F2F910B943B05DF804FB69
S31508014130FFF7F2FF0028F8D001A82AF02CFB002887
S31508014140F3D101A807F0A0FE01A8FFF7D9FF01A83E
S31508014150FFF7CAFC43B05DF804FB00BF08B509F0D8
S31508014160D3FD09F07DFD214A136F23F0070343F0C0
S315080141700303136709F08CFD1D4B9B6A9B0702D449
S3150801418001221C4B9A62194B0020D3F8202122F0F8
S31508014190030242F00202C3F82021D3F8242122F0B7
S315080141A0070242F00202C3F82421D3F8402122F083
S315080141B0030242F00202C3F84021D3F8602122F03B
S315080141C0030242F00202C3F86021D3F8402222F02A
S315080141D0030242F00202C3F84022D3F8002222F079
S315080141E0070242F00202C3F8002208BD008000500F
S315080141F000C0005000E0005008B50DF06DFD0DF04F
S31508014200EBFC0DF04FFD0DF00DFDFFF7A7FF0DF0CF
S31508014210F5FC08F0FFF808F0ADFBBDE808400DF025
S315080142202DBF00BF08F032BB08B50EF071FC0CF0CB
S3150801423057FE0DF0ABFD0FF0F9FE0DF069F8BDE87C
S3150801424008400DF089BD00BF08B50BF087FE0BF0DD
S31508014250A3FE0BF0B5FEFFF757FFBDE808400BF0CC
S3150801426099BE00BF704700BF704700BF07F07ABF0D
S31508014270FFF754BF704700BF012070470120704700
S3150801428038B507F0B1FF054615F074FD041E18BFD1
S315080142902C46FFF7F1FF002818BF204638BD00BF9E
S315080142A038B50EF03DF9044607F094FF042817D0F7
S315080142B0022808BF012429F06BF904284FF00005EC
S315080142C014D0022808BF0124FFF7D8FF042813D009
S315080142D0022808BF0124002D18BF0024204638BD36
S315080142E029F056F904284FF00105EAD1FFF7C6FF70
S315080142F004284FF00105EBD10024204638BD00BF44
S31508014300024B0349186808F0B7BD00BFBC0B002073
S315080143109C0B0020014B1878704700BF39490020D3
S3150801432010B54724084982B001910420074B084A71
S315080143300849009405F0C2FD0022074B1A7002B025
S31508014340BDE8104000F0B6B9182804086C2804081E
S31508014350FC270408142804083949002010B55F24ED
S31508014360084982B00420084B084A0191009408497B
S3150801437005F0A4FD00F09CFA0022064B1A7002B063
S3150801438010BD00BF2428040860280408FC27040877
S31508014390142804083949002030B575250446094909
S315080143A083B0094B094A019104200949009505F092
S315080143B085FD204600F0C4FC0122064B1A7003B0A5
S315080143C030BD00BF3028040854280408FC27040817
S315080143D0142804083949002030B58E250446084AB0
S315080143E083B001920420074B074A0849009505F056
S315080143F065FD204603B0BDE8304000F011BA00BFA4
S315080144003C28040848280408FC270408142804083A
S3150801441000F046B9F8B56FF448731C4EB6F90800B2
S31508014420C3189BB2B3F5C77F23D822F059FF0022E0
S31508014430174B23F0E9F804460D46B6F90A30184633
S315080144403BB144F61E6203F51C530F339BB29342EC
S3150801445012D9002600270F4B2046D3E90023294607
S3150801446022F0A8FF32463B4622F0EEFD41EC100B46
S31508014470F8BD0024084DE0E722F032FF0022044B84
S3150801448023F0C2F806460F46E5E700BF882D00204F
S3150801449000408F40A01B00200000F03F38B50546BC
S315080144A0054800F0E3F8044625B118B1FFF7B2FF55
S315080144B085ED000B204638BDA01B002010B54FF432
S315080144C08374084A82B0019204200749074B084AB7
S315080144D0009405F0F3FC0021042002B0BDE8104069
S315080144E001F0B6BF9828040890280408702C04081F
S315080144F07828040810B540F21714084A82B00192C8
S3150801450004200749074B084A009405F0D7FC002107
S31508014510032002B0BDE8104001F09ABFB82804088C
S3150801452090280408542C0408782804080021062039
S3150801453001F08EBF0F4B1B78012B04D10E4A13785D
S31508014540A3B1013B137010B5F6240C4A82B001924F
S3150801455004200B490B4B0C4A009405F0AFFC0021D3
S31508014560022002B0BDE8104001F072BF07480EF004
S31508014570CDBB00BF3B4900203C490020D428040894
S3150801458090280408902C040878280408C8210020DB
S3150801459010B5C524094982B0019104200849094B7F
S315080145A0094A009405F08AFC2022084B1A6402F095
S315080145B0FFF8074B186002B010BD00BFF4280408C5
S315080145C090280408C02C04087828040800D0035051
S315080145D0E821002010B54FF4BE7482B0009440F271
S315080145E0132418490420184B184A0191184905F053
S315080145F065FC18481649184B144A01900094042082
S3150801460005F05CFC0222154B0A20C3F8A0200EF027
S31508014610ADFC00230146CDE90033114A11480EF0DD
S31508014620B1FA08B902B010BD4FF4C2740E4901209F
S315080146300191054B054A0649009405F03FFC02B075
S3150801464010BD00BF042904080C2C040878280408A6
S315080146509028040820290408D42B040800D0035004
S31508014660BD440108A82100203029040898B1012376
S3150801467010B582B0044669461A46084807F072FA28
S3150801468010B9002002B010BD0120DDE90023C4E9FC
S31508014690002302B010BD0020704700BFEC210020A6
S315080146A008B5034807F0C0FA003818BF012008BD4D
S315080146B0EC210020F0B54FF49B74434985B00420E2
S315080146C0424B434A01910094424905F0F7FB042203
S315080146D00123114602200AF0D5FC002304221846BC
S315080146E005210AF0CFFC01230422194602200AF00B
S315080146F0C9FC002310241846012206210AF0C2FC2F
S31508014700354B0022C3F8A0403449062008F0D8F8F2
S315080147104FF4A4770446324B324E01930097029424
S315080147203460D624294B2A4A04202A4905F0C6FBB7
S315080147302D49042001F0AAFE2C49022001F0A6FE0B
S315080147402B49032001F0A2FE2A49062001F09EFE0C
S31508014750302308222849294807F0F4F9202700942C
S3150801476040F22124264A274D274E0420274B194972
S315080147700192174A05F0A2FB154A16490420244B53
S315080147802F64CDE9004605F099FB0223C820C5F838
S31508014790A0300EF0EBFB00230146CDE900331D4A9C
S315080147A01D480EF0EFF908B905B0F0BD40F25914ED
S315080147B01A4901200191054B054A0649009405F05D
S315080147C07DFB05B0F0BD00BF64290408482C040828
S315080147D0782804089028040800D003502D450108BC
S315080147E0702904080022002015540108D54501083E
S315080147F0914501083D500108B01B0020EC2100201D
S315080148005429040800E0035088290408B02C040838
S31508014810C42B0408F544010888210020302904081E
S3150801482070B5194B84B01D78012D01D004B070BD47
S315080148304FF4E6760446154A1549CDE90120154B8C
S315080148400420154A009605F039FB144A144B40F624
S315080148509A3015701C700EF089FB00230146CDE9CC
S315080148600033104A10480EF0BFF90028DED04FF485
S31508014870EB740E4928460191064B074A04490094F0
S3150801488005F01CFBD2E700BF3B4900209829040824
S3150801489090280408F02B040878280408F90F00204A
S315080148A03C49002035450108C8210020A8290408EB
S315080148B040F2F31CF0B52049204E214D83B0CDF8C6
S315080148C000C032461F4B01910420294605F0F6FA2D
S315080148D01D480EF01BFA1D480EF018FA00231C4F4E
S315080148E018463A680621CDE900330AF04FFB4FF026
S315080148F0D60C3A68174C184BC4F820242946324678
S315080149000193CDF800C00420144B05F0D7FA40F204
S3150801491021274FF0200EDFF84CC0C4F840E032469C
S3150801492029460420CDE9007C0D4B05F0C7FA022380
S31508014930C4F8A03003B0F0BDD429040878280408C7
S3150801494090280408E42B0408C8210020A821002087
S315080149500022002000E0035054290408B02C040862
S31508014960C42B0408882904084FF0000C024680234A
S3150801497030B51025134C83B005208DF807C08DF886
S3150801498006108DF804208DF805300EF073FD04F538
S315080149900053C3F8A05014200EF06CFD04220A4BF4
S315080149A00DEB0201186808F0A5FC04F580540A20ED
S315080149B00EF060FD0520C4F8A0500EF05BFD03B0B3
S315080149C030BD00BF00C00350BC0B002010B5324CEF
S315080149D088B0D4E9000122F087FF304B80B293ED0D
S315080149E0000B01F0FDFA94ED007B40F233242C4ACA
S315080149F02C4B019204202C4A8DED047B8DED020B84
S31508014A002A4900948DED060B05F058FA284B1A78B9
S31508014A108AB300221A7040F2212401200EF02AFDE1
S31508014A201E213A20FFF7A0FF01200EF023FD0221E7
S31508014A305020FFF799FF01200EF01CFD002161208F
S31508014A40FFF792FF01200EF015FD9E213A20FFF790
S31508014A508BFF01200EF00EFD164904200191164B1D
S31508014A60114A1249009405F029FA0222134BC3F898
S31508014A70A02008B010BD40F2362411490420019146
S31508014A80084B094A0949009405F018FA012206A9B2
S31508014A900C4807F09DF8BEE7C00A0020A81B0020B5
S31508014AA0E0290408A02B040878280408902804089B
S31508014AB03A49002088290408C42B040800E0035059
S31508014AC0F8290408EC21002084462023F0B5102794
S31508014AD014460E46144D93B005208DF800C08DF886
S31508014AE001300EF0C7FC05F50053C3F8A070142079
S31508014AF00EF0C0FC0D4B69461868E31CDBB209AA27
S31508014B0008F0ACFB05F580550A200EF0B3FC05202C
S31508014B10C5F8A0700EF0AEFC224630460DF126010E
S31508014B202CF045FC13B0F0BD00C00350BC0B0020AF
S31508014B302DE9F04310244FF00209744BDFF8FC818C
S31508014B409FB0734F05200E93ADF83C900EF092FC82
S31508014B501420C8F8A0400EF08DFC6E4E06220EA950
S31508014B60386808F0C7FB0A200EF084FC0520C6F851
S31508014B70A0400EF07FFC01200EF07CFC01230025ED
S31508014B808DF82030644B0DF117010DF116000693CF
S31508014B90079500F069FC4AF25003ADF838309DF8E4
S31508014BA01630ADF823508DF821309DF817308DF861
S31508014BB025508DF8223006AB07CB1B88CDF83A0075
S31508014BC00520ADF84630CDF83E10CDF842208DF8D7
S31508014BD048500EF04FFC1420C8F8A0400EF04AFCCD
S31508014BE011220EA9386808F085FB0A200EF042FC4E
S31508014BF00520C6F8A0400EF03DFC484B05200E9353
S31508014C008DF83C500EF036FC1420C8F8A0400EF082
S31508014C1031FC05220EA9386808F06CFB0A200EF053
S31508014C2029FC0520C6F8A0400EF024FC9E213A2056
S31508014C30FFF79AFE54233A4A05208DF81A30ADF843
S31508014C403C300E920EF016FC1420C8F8A0400EF067
S31508014C5011FC06220EA9386808F04CFB0A200EF052
S31508014C6009FC0520C6F8A0400EF004FC29460520DB
S31508014C70FFF77AFE40F20113ADF81830294B0520EB
S31508014C800E938DF83C500EF0F5FB1420C8F8A040A1
S31508014C900EF0F0FB05220EA9386808F02BFB0A2056
S31508014CA00EF0E8FB0520C6F8A0400EF0E3FB202233
S31508014CB029460EA82CF01DFB4A460EA95320FFF7DC
S31508014CC003FF9DF838209DF83910392A00D179B1AA
S31508014CD040F27534144DCDE902210120134B144AD3
S31508014CE014490195009405F0E9F81FB0BDE8F08371
S31508014CF040F271341049032001910C4B0C4A0D49BD
S31508014D00009405F0DBF81FB0BDE8F0833AA01E0B4E
S31508014D10BC0B002000D003500300003961A00F012D
S31508014D2001A0310017A00101202A0408702B0408EC
S31508014D307828040890280408042A040800E0035087
S31508014D4070B540F2931484B0009440F21324364AA5
S31508014D50364B374901920546364A042005F0AEF826
S31508014D6035490420354B334A01910094304905F001
S31508014D70A5F80222324B0A20C3F8A0200EF0B8F893
S31508014D8001F016FD2F4B1C68041BB4F57A7F23D35B
S31508014D90012400202C4B06211A682346CDE900047C
S31508014DA00AF0F4F865B942F210700EF0DFF82B46F6
S31508014DB00146CDE90055254A25480DF015FF30BBBA
S31508014DC0012324482449254A05700B70137004B041
S31508014DD0BDE87040FFF7ACBE4FF4D076204A0420F8
S31508014DE0CDE90124114B134A1149009605F066F8DD
S31508014DF01C4A1D4B02FB04F404F5742404F51074D3
S31508014E00A3FB0434C4F38F100EF072F8C0E740F226
S31508014E10AD15164920460191044B064A04490095E9
S31508014E2005F04CF804B070BD582A0408FC2B040898
S31508014E30902804087828040820290408D42B040893
S31508014E4000D00350E8210020002200203545010842
S31508014E50C82100203B4900203A490020F90F0020CB
S31508014E60682A040818FCFFFFD34D6210A829040814
S31508014E702DE9F04140F2853665489CB0654A664998
S31508014E80664B01900096032005F018F801200EF0F4
S31508014E90F1FA02231024624DADF83430614B05F561
S31508014EA00058614F05200C930EF0E4FA1420C8F857
S31508014EB0A0400EF0DFFA06220CA9386808F01AFAA3
S31508014EC005F580550A200EF0D5FA0520C5F8A0404B
S31508014ED00EF0D0FA03200EF0CDFA012300268DF844
S31508014EE01830524B0DF10F010DF10E000493059682
S31508014EF000F0BAFA4FF04073CDF81B3009238DF84C
S31508014F001F304AF25003ADF830309DF80E300DEBE4
S31508014F10040C8DF819309DF80F308DF842608DF824
S31508014F201A30BCE80F00CDF832000520CDF83E3026
S31508014F30CDF83610CDF83A200EF09CFA1420C8F8B0
S31508014F40A0400EF097FA0CA91322386808F0D2F996
S31508014F500A200EF08FFA0520C5F8A0400EF08AFA4D
S31508014F60334B05200C938DF834600EF083FA142028
S31508014F70C8F8A0400EF07EFA05220CA9386808F098
S31508014F80B9F90A200EF076FA0520C5F8A0400EF008
S31508014F9071FA9E213A20FFF7E7FC6423ADF8343015
S31508014FA0244B05200C930EF065FA1420C8F8A0408E
S31508014FB00EF060FA06220CA9386808F09BF90A2057
S31508014FC00EF058FA0520C5F8A0400EF053FA3146FE
S31508014FD00520FFF7C9FC184B05200C938DF83460A2
S31508014FE00EF048FA1420C8F8A0400EF043FA05223C
S31508014FF00CA9386808F07EF90A200EF03BFA05205C
S31508015000C5F8A0400EF036FA1CB0BDE8F08100BF25
S31508015010782A04087828040890280408542B0408D8
S3150801502000C003503AA01E0BBC0B0020032F003909
S3150801503061A0000101A0310017A001012DE9F0418D
S3150801504040F25D276B4886B06B4A6C496C4B019000
S315080150500097042004F032FF6A4B6B4E1B6801204F
S31508015060C6F820340EF006FA01210520FFF77CFC6C
S31508015070664C0120664D0EF0FDF90222072005A9AE
S31508015080FFF722FD23882A8801330392614A9BB2DE
S31508015090CDE9012340F26D2223800420584B00926A
S315080150A05649554ABDF8147004F008FF2388012BA8
S315080150B015D00AD94FF002082B88A4F800800133CD
S315080150C09BB2032B2B8045D02CD801200EF0D2F9A8
S315080150D00121042006B0BDE8F041FFF745BC40F2C6
S315080150E073244D494D4A464BCDE9011704201780D3
S315080150F04249414A009404F0E1FE1E213A20FFF795
S3150801510033FC0B213B20FFF72FFC0D216120FFF714
S315080151102BFC9E213A20FFF727FC00216120FFF78F
S3150801512023FCD2E7384600F033FF40F2A2263C4A78
S315080151303C4C8DED020B324B019203202E4A2F492E
S31508015140009684ED000B04F0B9FEFFF73FFC00233F
S315080151502B80BAE7314B1888381A22F0C1F8002299
S315080151604FF07C5322F026F94FF033322E4B22F0C2
S3150801517021F900222D4B22F01DF94FF422730093D9
S315080151802B4B2C4F01932C4B1B4AC3E90001CDE94C
S3150801519002011B4B0420194904F090FE3C782CB3FC
S315080151A040F221250024254B009501933C7040F2DD
S315080151B01324234B104A1149042004F07FFE0A20C8
S315080151C0C6F8A0800DF094FE1E490B4A01910420F1
S315080151D00A491D4B009404F071FE1C4B0A20C3F8C2
S315080151E0A0800DF085FEFFF743FE6EE7FFF7EEFBA5
S315080151F02C806AE7942A0408782804089028040869
S31508015200882B04080022002000E00350BC48002037
S31508015210BA480020AC2A0408D02A0408B848002055
S31508015220F42A0408C00A00203333F33F000059402A
S31508015230E02A0408F90F0020A81B00208829040881
S31508015240C42B040820290408D42B040800D00350D1
S315080152502DE9F0414FF4757663489CB0634A644979
S31508015260644B01900096042004F028FE01200EF0FC
S3150801527001F902231024604DADF834305F4B05F572
S3150801528000585F4F05200C930EF0F4F81420C8F867
S31508015290A0400EF0EFF806220CA9386808F02AF8A3
S315080152A005F580550A200EF0E5F80520C5F8A04059
S315080152B00EF0E0F801200EF0DDF8012300268DF846
S315080152C01830504B0DF10F010DF10E0004930596A0
S315080152D000F0CAF84AF25003ADF830309DF80E30A6
S315080152E0ADF81B608DF819309DF80F308DF81D60EB
S315080152F08DF81A300DEB040307CB1B88CDF8320065
S315080153000520ADF83E30CDF83610CDF83A208DF8A7
S3150801531040600EF0AFF81420C8F8A0400EF0AAF8C5
S315080153200CA91122386807F0E5FF0A200EF0A2F849
S315080153300520C5F8A0400EF09DF8334B05200C93C7
S315080153408DF834600EF096F81420C8F8A0400EF0D7
S3150801535091F805220CA9386807F0CCFF0A200EF04F
S3150801536089F80520C5F8A0400EF084F89E213A2058
S31508015370FFF7FAFA5423ADF83430244B05200C9381
S315080153800EF078F81420C8F8A0400EF073F806223B
S315080153900CA9386807F0AEFF0A200EF06BF8052055
S315080153A0C5F8A0400EF066F831460520FFF7DCFA8D
S315080153B0174B05200C938DF834600EF05BF814201A
S315080153C0C8F8A0400EF056F805220CA9386807F06F
S315080153D091FF0A200EF04EF80520C5F8A0400EF000
S315080153E049F81CB0BDE8F081042B040878280408A4
S315080153F0902804083C2B040800C003503AA01E0B51
S31508015400BC0B00200300003961A00D0101A0310089
S3150801541017A0010110B54FF4B4740D4982B00420E8
S315080154200C4B0D4A019100940C4904F047FDFFF716
S315080154300FFF012300200A4A0A491268C1F82024ED
S315080154400621CDE9000309F0A1FD02B010BD00BF98
S315080154501C2B0408282C040878280408902804081A
S315080154600022002000E0035010B1044B1B780370A2
S3150801547011B1034B1B780B70704700BF41490020DF
S315080154804049002003784BB940225B4BC3F8A02062
S315080154900379012B0CD00123037070474021574A29
S315080154A0C2F8A0100279012A1DD0002303707047A3
S315080154B0437830B4052B12D8DFE803F054453D355F
S315080154C003264F4A138801339BB2B3F57A7F1380BB
S315080154D005D100230371A0F8013013800376012357
S315080154E030BC03707047012BDFD14378012BDCD127
S315080154F0444B1B881F2B45D88368434A03F0010197
S315080155005B0811708360D0E740490B88072B4FD899
S315080155103F4A847D526CC2F380129A40224301337A
S3150801552082750B80DBE73B4A138801339BB2022B5A
S315080155301380D4D1CDE7384A138801339BB2062BA1
S315080155403DD01380CBE72F4A1388422B24D82E4906
S3150801555004240978002944D02849C1F8A040013318
S315080155601380BCE78378012B2ED000232A4A254CC9
S3150801557013802849254D224A2B8023800B801380CE
S315080155800376ACE73F2B24D8C3681F4A03F0010111
S315080155905B081170C36088E7002143791180022BEB
S315080155A023D0012B24D0032B99D10423437096E7EA
S315080155B000230371A0F801300B8003768FE70021E1
S315080155C00523118043708AE70022437003768275AA
S315080155D085E703690C4A03F001015B081170036151
S315080155E063E70549C1F8A040B9E70323437076E7A5
S315080155F00223437073E700BF00E0035000D0035055
S31508015600C0480020C64800203D490020BE48002069
S3150801561000C00350C2480020C4480020034B044878
S315080156205A6903F500535A61FFF72CBF00800450ED
S315080156301022002004234FF4F87230B51C491D4C82
S315080156401D481E4DC4E902011D4985B0C4F8021062
S31508015650A3822361A4F8172028460AF033FB237E88
S31508015660002BF9D105200DF043FC04234FF001313D
S315080156700122114D1348A382C4E902500F4D23613B
S31508015680C4F80210227628460AF01CFB237E002B5A
S31508015690F9D14FF4D375A27D0B49032002920191EA
S315080156A00A4B0B4A0B49009504F008FC05B030BDBE
S315080156B01000E0B910220020D954FE040080015AD6
S315080156C001010102100000BA002D0408C42D0408C6
S315080156D0D02C0408F02C0408F8B501233321042042
S315080156E04FF001322E4C2F4D23762F4BA5602F4DAF
S315080156F02061A182C4F80220E36028460AF0E2FA92
S31508015700237E002BF9D10123322004214FF00132E7
S31508015710244D2376264BA560A67D244DA0822161C2
S31508015720C4F80220E36028460AF0CCFA237E002B4F
S31508015730F9D1312304214FF001320120A382194BFB
S31508015740A77DA3601B4B194D07EB06272076216120
S31508015750C4F80220E36028460AF0B4FA237E002B37
S31508015760F9D1302304214FF001320120A3820D4BD8
S31508015770A67DA360104B0D4D06EB07262076216109
S31508015780C4F80220E36028460AF09CFA237E002B1F
S31508015790F9D1A37D03EB062300EE103AF8BD00BF4D
S315080157A010220020D954FE04CC0000BA0080015A08
S315080157B0C80000BAC40000BAC00000BAF8B501238F
S315080157C0772104204FF001322E4C2F4D23762F4B93
S315080157D0A5602F4D2061A182C4F80220E360284606
S315080157E00AF070FA237E002BF9D1012376200421D1
S315080157F04FF00132244D2376264BA560A67D244D14
S31508015800A0822161C4F80220E36028460AF05AFA08
S31508015810237E002BF9D1752304214FF00132012093
S31508015820A382194BA77DA3601B4B194D07EB0627CE
S3150801583020762161C4F80220E36028460AF042FA7C
S31508015840237E002BF9D1742304214FF00132012064
S31508015850A3820D4BA67DA360104B0D4D06EB0726C3
S3150801586020762161C4F80220E36028460AF02AFA64
S31508015870237E002BF9D1A37D03EB062300EE103A14
S31508015880F8BD00BF10220020D954FE04DC0100BA7D
S315080158900080015AD80100BAD40100BAD00100BA71
S315080158A0F8B50123872104204FF001322E4C2F4DE4
S315080158B023762F4BA5602F4D2061A182C4F80220C3
S315080158C0E36028460AF0FEF9237E002BF9D101236D
S315080158D0862004214FF00132244D2376264BA560FC
S315080158E0A67D244DA0822161C4F80220E3602846E2
S315080158F00AF0E8F9237E002BF9D1852304214FF01C
S3150801590001320120A382194BA77DA3601B4B194DB8
S3150801591007EB062720762161C4F80220E3602846B2
S315080159200AF0D0F9237E002BF9D1842304214FF004
S3150801593001320120A3820D4BA67DA360104B0D4DAC
S3150801594006EB072620762161C4F80220E360284683
S315080159500AF0B8F9237E002BF9D1A37D03EB0623C0
S3150801596000EE103AF8BD00BF10220020D954FE04FB
S315080159701C0200BA0080015A180200BA140200BAC1
S31508015980100200BAF8B501238B2104204FF0013229
S315080159902E4C2F4D23762F4BA5602F4D2061A182CA
S315080159A0C4F80220E36028460AF08CF9237E002B0E
S315080159B0F9D101238A2004214FF00132244D23769F
S315080159C0264BA560A67D244DA0822161C4F802203C
S315080159D0E36028460AF076F9237E002BF9D189235C
S315080159E004214FF001320120A382194BA77DA36040
S315080159F01B4B194D07EB062720762161C4F80220B7
S31508015A00E36028460AF05EF9237E002BF9D1882344
S31508015A1004214FF001320120A3820D4BA67DA3601C
S31508015A20104B0D4D06EB072620762161C4F802209E
S31508015A30E36028460AF046F9237E002BF9D1A37DB7
S31508015A4003EB062300EE103AF8BD00BF1022002032
S31508015A50D954FE042C0200BA0080015A280200BA61
S31508015A60240200BA200200BAF8B501238F210420C6
S31508015A704FF001322E4C2F4D23762F4BA5602F4D1B
S31508015A802061A182C4F80220E36028460AF01AF9C7
S31508015A90237E002BF9D101238E2004214FF00132F8
S31508015AA0244D2376264BA560A67D244DA08221612F
S31508015AB0C4F80220E36028460AF004F9237E002B85
S31508015AC0F9D18D2304214FF001320120A382194B0C
S31508015AD0A77DA3601B4B194D07EB0627207621618D
S31508015AE0C4F80220E36028460AF0ECF8237E002B6E
S31508015AF0F9D18C2304214FF001320120A3820D4BE9
S31508015B00A67DA360104B0D4D06EB07262076216175
S31508015B10C4F80220E36028460AF0D4F8237E002B55
S31508015B20F9D1A37D03EB062300EE103AF8BD00BFB9
S31508015B3010220020D954FE043C0200BA0080015A02
S31508015B40380200BA340200BA300200BA2DE9F04729
S31508015B5084B0FFF76FFD0123192104204FF00132AC
S31508015B607A4C7B4D23767B4BA5607B4D2061A182C8
S31508015B70C4F80220E36028460AF0A4F8237E002B25
S31508015B80F9D10123182004214FF00132704D2376F3
S31508015B90724BA560A67D704DA0822161C4F80220D2
S31508015BA0E36028460AF08EF8237E002BF9D1A37DFF
S31508015BB01B2003EB06236A4EC3F309033380012333
S31508015BC004214FF001322376614B634DA360654B87
S31508015BD0A0822161C4F80220E36028460AF072F81F
S31508015BE0237E002BF9D104234FF001321A212361B8
S31508015BF001235748C4F802205B4AA77D564DA06089
S31508015C00A182E260237628460AF05CF8237E002BFF
S31508015C10F9D1A37DDFF8888103EB0723C3F30903D1
S31508015C20A8F80030FFF73CFEDFF878A1DFF8789195
S31508015C308AED000AFFF7A6FE89ED000AFFF714FFB1
S31508015C4010EE100A21F05EFB484F494DC7E90001E5
S31508015C50FFF742FD10EE100A21F054FBC5E90001D9
S31508015C60FFF7ACFD3388434C029340F24F23009370
S31508015C70414B84ED000A03200193404A404B4149B8
S31508015C8004F01CF9B8F800303C4A02934FF4147337
S31508015C9000933D4B032001933A49394B04F00EF921
S31508015CA0DAF8000021F02EFB40F25126374BCDE9F8
S31508015CB00201324A01930096314B0320314904F01F
S31508015CC0FDF8D9F8000021F01DFB40F2522340F2FD
S31508015CD053262F4ACDE90201009301920320284B4E
S31508015CE0264A284904F0EAF8D7E90089294B00969B
S31508015CF001930320CDE90289214B204A214904F069
S31508015D00DDF8D5E900674FF41575234BCDE9026730
S31508015D101A4A019303201A4B1A49009504F0CEF842
S31508015D20206821F0EFFA40F2552406460F461B4A31
S31508015D3003200192CDE90267114B104A11490094DB
S31508015D4004F0BCF804B0BDE8F08700BF10220020BB
S31508015D50D954FE04640000BA0080015A600000BAF2
S31508015D60CA4800206C0000BA680000BA401D00202D
S31508015D70381D002004220020082D0408D02C040810
S31508015D80B02D0408F02C0408142D0408202D04084D
S31508015D902C2D0408382D0408442D0408542D040814
S31508015DA0C84800200C2200200822002001230020D8
S31508015DB02DE9F0479846022704464FF0200A88B095
S31508015DC01A46062109F05EF9434638464146042239
S31508015DD009F058F9434620460422052109F052F9EB
S31508015DE05A4E434639464046042209F04BF9434682
S31508015DF038460422062109F045F906F58059042298
S31508015E0039464346384606F5005609F03BF9C6F8C1
S31508015E1040A03220C6F8A0700DF06AF8C9F840A073
S31508015E203220C9F8A0700DF063F80423484DC9F86B
S31508015E3070304146242007F0D9FB284604A9CDF83D
S31508015E401940CDF81140CDF8154007948DF810800A
S31508015E5009F016FE4FF47A632A6BEB61AB6943EAE4
S31508015E600803AB614FF480693A4EC6F800903A4B85
S31508015E70C5F80C80C3E902441C809C709C80DC82B6
S31508015E801C76FFF763FEEF60C6F88090BFF34F8F6D
S31508015E90BFF36F8F284609F047FE2146242007F0F5
S31508015EA0A5FB23463A463946404609F0EBF82B4A04
S31508015EB02B4B12881B88DFF8D090D1B2294F02915B
S31508015EC089F800301B0A3B706C23DFF8C08026482E
S31508015ED0120A264E264D274C017088F80020009399
S31508015EE0254B2A46214601930320334603F0E6FF54
S31508015EF098F800302A4602936D2300931F4B2146DA
S31508015F0001930320334603F0D9FF4FF06E0C99F83D
S31508015F1000302A4602931A4B21460193CDF800C058
S31508015F203346032003F0CAFF4FF06F0C3878154B40
S31508015F30029001932A46334621460320CDF800C034
S31508015F4003F0BCFF08B0BDE8F08700BF00C00350EE
S31508015F500080045000E100E010220020CA48002019
S31508015F60C84800203E49002041490020D02D040898
S31508015F70D02C0408F02C0408682D0408782D040890
S31508015F80882D04089C2D04083F490020404900201B
S31508015F9038B521F095F90F4B044618680D4621F0DE
S31508015FA0B1F902460B462046294621F04BF80A4B21
S31508015FB0044618680D4621F0A5F902460B46204607
S31508015FC0294621F021FB054B41EC100BC3E90001E1
S31508015FD038BD00BF082200200C220020301D0020F9
S31508015FE0104B70B5186855EC104B21F08BF90E4B18
S31508015FF00E4ED3E9002321F025F80D4BD3E90023F2
S3150801600021F0D8F902460B46D6E9000121F01AF823
S3150801601002460B462046294621F0F6FA41EC100BBA
S3150801602070BD00BF04220020301D0020381D00204D
S31508016030401D002070B52E4D86B06B6903F4A07320
S31508016040B3F5807F3BD1F026294604A809F08AFBDF
S31508016050049C284A0420CDE90124274B274A2849CC
S31508016060009603F02BFF40F2BA43F22203FB04F138
S315080160702448009280FB01400844C917C1EBE0217E
S315080160808900214889B20291018020481B4A1C498E
S315080160900190194B042003F011FF02232846EB60F7
S315080160A009F0BAFA2A20002107F0A0FA6422184B4F
S315080160B018481A7006B0BDE870400CF027BEFF24D8
S315080160C015490E4A019101200D490B4B009403F025
S315080160D0F5FE02232846EB6009F09EFA2A200021E4
S315080160E007F084FA0B4806B0BDE870400CF00EBE06
S315080160F00040005A0C2E0408D42E0408E42D040886
S31508016100002E040881000880E80F0020142E0408D8
S31508016110FA0F002038220020282E04082DE9F04124
S315080161201C4C82B001212A2007F060FA204609F0AA
S3150801613073FA02214FF4B06008F074F80022204681
S31508016140154909F0CDFA0023064640F2BA41022262
S31508016150124DDFF85480E9606A8064211A46009678
S31508016160204688F8056009F0D7FA41F201230C4F59
S3150801617041462A46A86020463B8008F0E1FF3A4698
S315080161802046084909F00EFA0123E36002B0BDE88A
S31508016190F08100BF0040005A404B4C00CC0B002058
S315080161A0C00B0020C40B00202C220020014B1888AC
S315080161B0704700BFE80F0020034BD3F80100012800
S315080161C038BF0120704700BF502D002070B5044626
S315080161D040F21316314A84B00320314B01923149FA
S315080161E0314A0096029403F069FE304D304AD5F8DB
S315080161F0013012881819B2F5C86FC5F8010006D220
S315080162002C4B2D4A00FB03F3B2EBF30F21D3D5F840
S315080162100530C01AB0F5167F29D240F23114274845
S315080162201F4B214A1F4901900094032003F046FEA3
S31508016230FFF774FF0A200CF099FE00230146204A55
S31508016240CDE900331F480CF09DFC0246B8B904B0ED
S3150801625070BDD5F80530C01AB0F5167FF7D32846B4
S3150801626005F032FBD5F80130C5F80530EFE70F48E0
S3150801627005F02AFBD5F80130C5F80530CDE740F21F
S3150801628039141149029201910120054B064A054923
S31508016290009403F013FE04B070BD00BF4C2E040831
S315080162A0B82E0408002E0408E42D0408502D0020F9
S315080162B0E80F002021436587AC6824006C2E04088A
S315080162C03560010838220020942E0408014805F09B
S315080162D0FBBA00BF502D002006F0BCB80048704735
S315080162E0481D0020084B93F8363053B1223BDBB2E8
S315080162F0112B04D80548D84000F00100704700204A
S3150801630070470120704700BF481D00200380020026
S31508016310014B1878704700BF481D002030B5044668
S31508016320A7250F4A85B0019203200E4B0E4A0F4945
S315080163300095029403F0C2FD002240F201100121EA
S315080163400B4B1A60C3E90122C3E90322A3F81D0016
S315080163505A6119705C8005B0BDE8304001F0BCBADD
S31508016360182F0408B0300408F02E04080C2F04086E
S31508016370481D00202DE9F0414FF0C20C04460F4696
S3150801638016461D46164B86B0DFF864800193032036
S31508016390144BCDE90247CDE90465134A1349CDF8F3
S315080163A000C003F08BFD98F800301BB1B8F8020065
S315080163B0A04202D006B0BDE8F081A8F80470A8F89A
S315080163C00660A8F8085001F0F7F918B1012388F812
S315080163D00130EFE706B0BDE8F04101F07DBA00BF34
S315080163E03C2F040888300408F02E04080C2F0408F2
S315080163F0481D002030B50546E624104A85B00192AD
S3150801640003200F4B0F4A10490295009403F056FDDD
S315080164100022002000210D4BC3E904011A80C3F8AC
S315080164200220C3F8062083F820201A761A7700F08E
S315080164307BFF05B0BDE8304001F042BA702F040871
S3150801644064300408F02E04080C2F0408481D0020A7
S3150801645038B54FF0010C00230B4D1A460CFA00FC17
S3150801646002E00132202A09D055F823400333644556
S31508016470F7D102EB420205EB8205A96015F0A2F8F5
S31508016480B0FA80F0400938BD88220020F0B5002214
S315080164900125074613461C4E85B0854002E00133A7
S315080164A0202B0ED056F822400332AC42F7D10022F7
S315080164B003EB430306EB8303C3E90112012005B08D
S315080164C0F0BD0022104B1C680CB95C689CB1013206
S315080164D0202A03F10C03F6D140F2CF140B4901200F
S315080164E001910B4B0B4A0C490297009403F0E6FC09
S315080164F0002005B0F0BD02EB420246F8225006EB39
S315080165008206C6E90114D9E788220020982F0408D3
S315080165104C300408F02E04080C2F0408F0B52DEDB4
S31508016520028B40F205168BB000964FF48376714CB8
S31508016530714A724D0320CDE90124714B714A7249A2
S3150801654003F0BCFC2A68009640F20D166F4B6E49A3
S31508016550CDE9013203206A4B6A4A03F0AFFC286889
S3150801656005F07CFB22466A496A4802F0D1FFFFF72B
S315080165701DFC6949634A624B0320019100966249F1
S3150801658003F09CFCFDF7BCFE04F024FE04F08CFF2E
S3150801659004F042FF05F018FA0021234605221820C7
S315080165A015F0FEF80DF11F0108A815F065F9002888
S315080165B044D04022002159482AF09BFE0022584B1C
S315080165C003F5C0719A60C3E900220C338B42F9D1F5
S315080165D054490120FFF75AFF534C54490D20FFF740
S315080165E055FF53490E20FFF751FF02F051FF204690
S315080165F005F0CEF801F0BCF80E23C37101F0B8F826
S31508016600032327780372012F01D16378A3B301F01D
S31508016610B3F80123414E86F8363001F0A5F896F80D
S315080166203630837001F0BCF804F028F900F082FED8
S31508016630FDF776FE0BB0BDEC028BF0BD04469DF866
S3150801664020209DF821309DF82210CDE903329DF8CE
S3150801665023309DF82420CDE9013100929DF825309B
S315080166600D21344A344822F043F80C222146324B94
S31508016670162015F095F89CE701F07AF8E37A274E8B
S31508016680037001F075F8237B437001F071F8637BA1
S31508016690837001F06DF8A37BC37001F069F8077187
S315080166A0208A02F095FED4F80220DFED247A08EE5E
S315080166B0102A2B6828EE278A13F0680F0CBF0F23C0
S315080166C00E2386F8363001F04FF8BCEEC88A18EE6C
S315080166D0103AA0F8033001F01BF8D4F8063003602D
S315080166E001F016F8A37A037201F016F801F044F8DE
S315080166F093E700BFB02F0408B82F04080021002033
S3150801670058300408F02E04080C2F0408CC2F04086E
S31508016710DC2F0408E42F0408E82F0408481D00208C
S3150801672088220020FD770108682D0020B183010821
S315080167309D830108FC2F04085822002000007A4492
S315080167404FF0010C30B5154D00222B46044685B095
S315080167500CFA00FC04E00132202A03F10C030ED0E6
S3150801676019686145F7D159680029F4D002EB42024C
S3150801677005EB8205A8688847012005B030BD4FF4AE
S31508016780F375074902200191064B074A0749029406
S31508016790009503F093FB002005B030BD8822002048
S315080167A0183004083C300408F02E04080C2F04089D
S315080167B000B583B00CF076FB6A460CF033FC009802
S315080167C003B05DF804FB00BF00B54FF47A7083B0DF
S315080167D00CF0CCFB00230146CDE90033034A0448FB
S315080167E00CF0C4FA03B05DF804FB00BFD9620108D6
S315080167F06822002010B54FF4F774084A82B0019256
S3150801680004200749074B084A009403F057FB002167
S31508016810092002B0BDE81040FFF71ABE0831040886
S31508016820F430040838350408D430040810B540F2A9
S315080168302B24084A82B0019204200749074B084ACB
S31508016840009403F03BFB00210B2002B0BDE8104089
S31508016850FFF7FEBD28310408F4300408DC340408C7
S31508016860D430040810B540F2FD24084A82B00192DA
S3150801687004200749074B084A009403F01FFB00212F
S315080168800C2002B0BDE81040FFF7E2BD5431040800
S31508016890F430040854340408D430040830B583B0FD
S315080168A0FFF720FDA0B91E4D04462B78012B11D9FF
S315080168B03C20FFF78BFC4EF660200CF057FB234675
S315080168C00146CDE90044174A17480CF05BF9C8B9E7
S315080168D003B030BD0120FFF779FC2B784FF47A70AD
S315080168E00133DBB22B700CF041FB23460146CDE99F
S315080168F000440C4A0C480CF045F90028E8D04FF43E
S31508016900387401E040F2EB24084901200191084B53
S31508016910084A0949009403F0D1FA03B030BD00BF13
S3150801692042490020656801080C2400203029040822
S3150801693074340408D4300408F4300408014B188868
S3150801694080B27047CE48002010B50446FDF706FD13
S31508016950FFF7C4FC80F83640FFF7C0FC044600F098
S3150801696003FF94F836308370BDE8104000F0E8BEA6
S315080169702DE9F043DFF89090DFF890801E4D87B03F
S31508016980FDF746FD03461D4C04A8002B30D0FDF744
S3150801699085FD68B3DDE9040120F0C6FF20F0B2FCED
S315080169A040F2511C06460F4643462A460320CDE9C6
S315080169B002671349CDF80490CDF800C003F07EFABA
S315080169C023781D2BDCD8DDE9040120F0ADFF2678FC
S315080169D00C4BF6B203EB8603186023780133DBB25E
S315080169E02370FDF715FD0346044C04A8002BCED1F0
S315080169F007B0BDE8F08300BFD4300408434900203E
S31508016A00F43004086C24002074310408AC350408F9
S31508016A102DE9F04F40F2671491B000944FF4B67423
S31508016A20A948AA4EAA4BAB4AAB490190042003F0E8
S31508016A3045FAAA4809F046F93378A94A0133DBB27F
S31508016A4033703178A24BCDE901210420A14AA2492C
S31508016A50009403F033FA3378032B06D03378022BEC
S31508016A6000F0158111B0BDE8F08F4FF4B8749D4A56
S31508016A709D4B1278042001930292954B954A9649AB
S31508016A80009403F01BFA994B1B889BB2B3F5D25FAE
S31508016A9080F0EC80934B1B78132B40F2FE80944DCB
S31508016AA04FF0C20C0024934B8A4A8B490193924BAF
S31508016AB00420CDF800C08E4FDFF850B29A469146B1
S31508016AC0884603F0FBF9079557F8040B20F01AFCE2
S31508016AD0C525CDE90401CDE901B453464A464146E7
S31508016AE004200134009503F0E9F9142CECD17F4C0C
S31508016AF07F482188079D89B2FBF766FEDFF8108279
S31508016B002188DFF81092404689B289ED000A1FF004
S31508016B10C7FBD9F8000020F0F5FBD8F800A0CDE9AD
S31508016B200401504620F0EEFBCB230093734BCDE9CD
S31508016B300201684A0320684901936F4B03F0BEF9C5
S31508016B4099ED000ADFED6E7AF2EE046A98ED007AA5
S31508016B5060EE277A27EE267AFCEEE77ABCEEC77A4C
S31508016B6017EE903A002717EE101A0CAC654AC4E9DD
S31508016B700177ADF837309BB213805C4B0C971888B8
S31508016B80ADF8331080B2C4F80B70FBF7A5FD0246C9
S31508016B90564BD9ED000A18880DF1270198ED000A20
S31508016BA080B291461FF018FE504B98ED000A1888DE
S31508016BB080B21FF0F5FE9DF8273080468DF83B30F0
S31508016BC08DF83C908DF8360000F0CEFD9DF8273003
S31508016BD08370FFF783FB454B0D211B8880F83780AF
S31508016BE02046ADF831308DF8357000F08FFEE4237C
S31508016BF00093BDF83730ADF83D000493BDF8333046
S31508016C0003200393BDF83130324A02933E4B324991
S31508016C100193394B03F052F9204604F03BF9002859
S31508016C2040F0B08000F098FE18B1FFF771FB00281C
S31508016C3072D100F091FE002800F0BC80FFF768FBD6
S31508016C40002800F0AB80FFF749FB284F3B88838675
S31508016C50FFF744FB848E00F087FD0134048000F0C1
S31508016C606FFD3B8801339BB23B8000E0204D00223B
S31508016C70002113461B48027005EB830201331E2BC4
S31508016C801160F9D10023337011B0BDE8F08F1420DB
S31508016C9011B0BDE8F04FFDF79FBB124B144D1A78A2
S31508016CA0D3B2132A98BFD9B23FF6FAAE5A1E05EBEC
S31508016CB0830005EB8202013309B112680260D9B279
S31508016CC01329F3D9ECE600BFA8310408444900208A
S31508016CD088350408D4300408F43004080080015AC1
S31508016CE0CC31040843490020E8310408CE48002085
S31508016CF06C24002000320408743504082032040884
S31508016D000000C842CC480020443204081432040862
S31508016D10E424002060460020FFF7E0FA0027C77741
S31508016D20FFF7F6FA00288ED0FFF7D8FA037E002B74
S31508016D3089D0FFF7D3FA1D238DF8293043888DF8BA
S31508016D402A708DF8283010A911E9030094E80C007F
S31508016D50ADF80410090C0AAF00908DF8061097E8F3
S31508016D60030000F0A5FE00283FF46DAFFA24174B87
S31508016D70029001930120164B164A1749009403F015
S31508016D809DF860E7E9230093144B029001930120D3
S31508016D900F4B104A104903F091F843E74FF48374F7
S31508016DA00F4B022001930B4A094B0B49009403F040
S31508016DB085F848E74FF481740A4B02200193054A86
S31508016DC0034B0549009403F079F837E77C32040848
S31508016DD074350408D4300408F43004086032040811
S31508016DE0B03204089432040830B5424885B008F038
S31508016DF069FF414B1B78E3B93C20FFF7E7F93F4BA5
S31508016E001B889BB2B3F5D25F42D2FFF76BFA40F209
S31508016E10A11405463A4A04203A4B3B490192029588
S31508016E203A4A009403F04AF8FFF75CFA70B905B0DC
S31508016E3030BDFDF76FFA20B905B0BDE83040FDF762
S31508016E40ABBA05B0BDE83040FFF792BD4FF4D47533
S31508016E502F4C304922682B4B0132CDE9011204200F
S31508016E6029492260294A009503F028F800F050FCC8
S31508016E702368436000F050FCFDF74CFA002836D130
S31508016E800120FDF789FA05B0BDE83040FFF7C0BD1E
S31508016E90FFF728FA0028B8D04FF4CC741E481B4ACD
S31508016EA01949184B01900094032003F007F8FDF7E0
S31508016EB055FAFFF713FA082380F83630FFF70EFA6A
S31508016EC0044600F051FC94F8363040F21B248370D6
S31508016ED000F036FC114904200191114B0B4A0A496D
S31508016EE0009402F0EBFF0F480BF010FF8DE7FFF758
S31508016EF03FFDC8E70080015A45490020CE480020D9
S31508016F000433040858350408F4300408D430040856
S31508016F100824002024330408C4320408EC32040887
S31508016F20083504084C240020844638B310B4144BA1
S31508016F301A78132A13D81A78124CD3B2132A98BF7F
S31508016F40D9B20DD85A1E04EB830004EB8202013331
S31508016F5009B112680260D9B21329F3D900E0094CC4
S31508016F60D4ED117A9FED087A67EE877AFCEEE77A17
S31508016F700120CCED007A5DF8044B7047704700BFDD
S31508016F80434900206C24002000007A4470B5044669
S31508016F904FF4FF761F4A204D82B0204B20490192BB
S31508016FA00420204A00962C7002F088FF4EF66020D5
S31508016FB00BF0DCFF00230146CDE900331A4A1B48D2
S31508016FC00BF012FE80B900224FF0000C1346184848
S31508016FD01849027001EB830201331E2BC2F800C067
S31508016FE0F8D16CB102B070BD40F20325124A0120F6
S31508016FF001920A4B0B4A0A49009502F05FFFE2E744
S31508017000FDF788F90028EDD1012002B0BDE87040EE
S31508017010FDF7C2B93C330408454900202035040868
S31508017020F4300408D4300408F56701084C2400201C
S31508017030434900206C2400203029040810B540F289
S315080170401B24084982B001910420074B074A0849C5
S31508017050009402F033FF074802B0BDE810400BF078
S3150801706055BE00BFEC32040808350408D4300408BC
S31508017070F43004084C24002010B540F23924154890
S3150801708082B0154B154A164901900094032002F067
S3150801709015FF64200BF06AFF00230146CDE9003392
S315080170A0104A11480BF06EFD60B140F23E240F49BB
S315080170B001200191084B094A0949009402F0FEFE94
S315080170C002B010BDFFF70AF9012380F8203002B09B
S315080170D010BD00BF54330408B8340408D43004087A
S315080170E0F43004082D6801082C24002030290408EE
S315080170F02DE9F0418AB0FFF7F1F804464FF4187507
S3150801710094F820407D4E03207D4B7E4A7E49CDE989
S315080171100056029402F0D2FE00F01EFC10B1FFF7F1
S31508017120F7F880B9794800240BF0F0FDFFF7D6F897
S31508017130C484FFF7D3F80485FFF7D0F880F8204018
S315080171400AB0BDE8F081FFF7C9F890F82040002C95
S31508017150F6D0FFF7C3F8B0F82880FFF7BFF8054661
S3150801716040F27226ED8C6A4F654B664A66490320E2
S315080171700395CDE90178009602F0A0FEFFF7AEF877
S31508017180058DFFF7ABF8C38CAB422CD9FFF7A6F8F0
S3150801719006AE3146408C03F085FD0546002869D0C8
S315080171A040F289255B4903200191554B554A5649B9
S315080171B00095002402F082FE00F0CEFB002800F0C4
S315080171C08980FFF7A5F8002800F08480002C46D0B6
S315080171D0FFF784F8038D01330385FFF77FF8438CA6
S315080171E0013343843BE040F29E244B48454A444BD5
S315080171F0454901900094032002F060FE0026AA2367
S3150801720004AD03212846ADF810308DF8126000F060
S315080172107DFBADF81300FFF761F895E80C00014610
S315080172201D27D0F82A0006AC069091F82E108DF885
S3150801723019708DF81C108DF81A6094E8030000F097
S3150801724091FB044670B140F2B225344901200191FF
S315080172502B4B2C4A2C490294009502F02FFEFFF77E
S315080172600BFF6DE729480BF051FDFFF737F880F85A
S31508017270204065E7FFF732F896E80C0001464FF023
S315080172801D0CD0F82A0004AF049091F82E108DF841
S3150801729011C08DF814100AA911E90300ADF80410FC
S315080172A0090C8DF8125000908DF8061097E8030026
S315080172B000F0FEFB00283FF47FAF40F28326184A10
S315080172C0032001920E4B0F4A0F4900962C4602F0F5
S315080172D0F5FD71E700F040FB0446FFF719F840F2A7
S315080172E0992605460F4A02200192054B054A064989
S315080172F002940096039502F0E1FD21E7783304082C
S3150801730090340408D4300408F43004082C240020EE
S31508017310583A0408B4330408E4330408F833040873
S31508017320A0330408CC33040801480BF0EFBC00BFB6
S315080173302C24002010B5164984B00920FFF7A6F8B9
S3150801734014490B20FFF7A2F813490C20FFF79EF802
S315080173501FF012FA4FF4FA700BF008FE00230146EB
S31508017360CDE900330D4A0E480BF00CFC08B904B000
S3150801737010BD02464FF446740A4902920191012052
S31508017380094B0A4A0A49009402F098FD04B010BD57
S31508017390E96D0108F17001089D6801086568010831
S315080173A00C240020183404083C340408D43004089A
S315080173B0F430040803461A0A02200B704A70704713
S315080173C00088704740F2B2732DE9F04FB0F800C05B
S315080173D084789C45C578477990F806E0C6797BD9C3
S315080173E0002108E0B0F5247F15D301339BB20131A2
S315080173F09C4589B21FD003EB830203EBC202A2EBC1
S315080174008222C2F38D0040EA823213F0030F90B252
S315080174104FEA8302E6D01A4403EBC202A2EB8222A8
S31508017420C2F30B1040EA023292B2A32ADDD9013324
S315080174309BB29C45DFD14FF4B77201FB02F240F2D1
S315080174406D10ACF2B2735B1A012C00FB032131D922
S315080174504FF0640B4FF4C87A214A0CF00308A2FBDB
S315080174600C204FEA5019C0090BFB19C90AFB10CCAD
S3150801747001231C4A1FFA89F91FFA8CF009E092F8D0
S3150801748000C0013361441FFA83FC644502F101021D
S3150801749010D9022BF3D1B8F1000F1AD1B9F1000FA7
S315080174A017D001331FFA83FC644501F11D0102F16E
S315080174B00102EED84FF46162CEEB0E139B0002FB7C
S315080174C007330948013D0D44334400FB0530BDE847
S315080174D0F08F0028D3D1E4E700221146AFE700BFB9
S315080174E01F85EB51D035040880510100664B674A68
S315080174F0A3FB003CF0B5664C4FEA1C4C904204FBDA
S315080175001C0EC0F0B28040F2B2730AE0B0F5247FD7
