:020000040801F1
:10200000C00A00204D9E0108BD44010869810308F3
:1020100041FB01085D450108FD450108499E010895
:10202000499E0108499E0108499E0108499E0108F0
:10203000499E0108A427040839470108499E010860
:10204000499E0108499E0108499E0108499E0108D0
:10205000499E0108499E0108499E0108499E0108C0
:10206000499E0108499E0108499E0108499E0108B0
:10207000499E0108499E0108499E0108750F020802
:10208000CD480108C1480108499E0108499E010840
:10209000499E0108499E0108499E0108499E010880
:1020A000499E0108499E0108D1A30108499E0108E3
:1020B000499E0108499E010875A5010851A501081E
:1020C000499E0108499E0108512A0308499E0108BA
:1020D00091340308E1E40308DDE40308812C0308DC
:1020E000EDE40308E5E4030869340308E9E40308C0
:1020F000D1340308A10E0308413503086510030815
:10210000499E0108F9430108499E0108499E0108BA
:10211000499E0108499E0108499E0108499E0108FF
:10212000499E0108499E0108499E0108499E0108EF
:10213000499E0108499E0108499E0108499E0108DF
:10214000499E0108499E0108499E010800000000BF
:10215000013800D0FCE770472DE9F04310249BB014
:1021600001200EF05BFFDFF858914D4B4D4E109360
:10217000042210A9DFF85081C9F8A040306808F0A7
:10218000CBFE01200EF04AFF0120C8F8A0400EF05F
:1021900045FF42F2070310AAADF81C3007A905233A
:1021A000C9F8A040306808F06BFE40F23D133E4D88
:1021B000C8F8A04000932B883C4F01339BB2029398
:1021C0002B803B8803200393394B3A4A01933A49C9
:1021D0003A4BBDF8424005F061FD2B88132B1FD010
:1021E00007D914232B803B8801339BB2022B1AD8CA
:1021F0003B80102401200EF011FF314B314A10A911
:1022000010923068C3F8A040042208F085FE012037
:102210000EF004FF2C4BC3F8A0401BB0BDE8F083C8
:102220002A4B1C80E5E70325284B3D80B3F800804E
:10223000A4EB080022F0BCFA00224FF07C5322F0FD
:1022400021FB4FF03332224B22F01CFB0022214BAA
:1022500022F018FB10A3D3E9002322F03DFC024634
:102260000B462846CDE902481D4614464FF4AA7194
:10227000194B00910193CDE904450E4A0E490F4BCD
:10228000CDE9104505F00AFD012210A9134807F019
:1022900063F9AEE7AFF30080034356B77ACEF13F60
:1022A00005800100040C00200447002002470020A4
:1022B000F00304082C03040844030408340504084C
:1022C00000E003500480010000D0035000470020CC
:1022D0003333F33F0000594028040408A4210020B0
:1022E000114B1A78598862B94FF0010C9FED0C7BA5
:1022F000C3E9022283ED047B5A605880A3F800C032
:102300007047814200D0704700229FED057B01207D
:1023100083ED047BC3E901221880DA60704700BFB7
:102320000000000000000000101C00200000000061
:102330002DE9F04F9A488DB00BF02AFA994B9A4D3F
:102340001A78B32A9CBFB4221A702A781B789A4252
:1023500006D22B780133DBB22B700DB0BDE8F08FC5
:10236000DFF878A2DFF87882BAF800309BB2B3F5D4
:10237000D25F80F0DC8098F80030112B12D898F8EA
:102380000020112AD3B20DD8884CDAB204EBC30076
:1023900001331AB150E90267C0E90067DAB2112AC5
:1023A000F4D900E0814C98F80030002B00F0BD809B
:1023B0004FF00009002600274B4604EBC303D3E986
:1023C00000233046394622F0A7F809F1010998F8B0
:1023D00000205FFA89F3934206460F46EDD36EA3C1
:1023E000D3E9002321F0004122F0DCFC002800F0BA
:1023F0009C8098F80030002B00F0978098F800003F
:1024000022F0C6F902460B463046394622F064FBFC
:1024100022F0F2FC664E674FBAF80010DFF8C49164
:1024200089B238603046A9F8001021F0ABFC38685A
:1024300022F0D0F9D6F800B0CDE90601B9F80030A5
:102440005846049322F0C6F9E42300935A4BCDE991
:1024500002015A4A03205A4901935A4B05F01EFCC7
:10246000306822F0B7F90022574B22F00BFA22F025
:10247000A3FC03463868ADF829309FB222F0AAF9D0
:102480000022514B22F0FEF922F096FCED2300933E
:1024900083238DF828304D4BADF82D0080B2049089
:1024A00003971880BAF800300320ADF82B309BB2A8
:1024B0000293474B414A424901930AAE414B05F012
:1024C000EDFB304606F0B4FB03F02CFE18B103F030
:1024D0008FF8002845D103F025FE50B303F088F8AB
:1024E00098B303F077F8BAF80030C38503F072F8B8
:1024F000C68D03F037FD0136068003F037FDBAF8CC
:10250000003001339BB2AAF80030002200200021E5
:10251000134688F8002004EBC30201331E2BC2E9E6
:102520000001F8D100232B7013E7002072E71F4C45
:10253000EBE740F20716274B022001931F4A214B7D
:102540001F49009605F0AAFBC8E740F20B16224B84
:1025500002200193194A1B4B1949009605F09EFB76
:10256000BFE703F037F80027877603F033F80378E6
:10257000002BB6D003F02EF81D238DF821304388B0
:102580008DF822708DF8203008A996E80C0003C958
:1025900003F074FEA5E700BF1656E79EAF03D23CDA
:1025A0000080015A0210002072470020481C0020C1
:1025B000F0230020B0440020AC08040844080408BC
:1025C00064080408E00A0408000059400847002095
:1025D000D0080408EC080408080904080A47002089
:1025E000714700205A470020034610B5184A82B0B0
:1025F0004FF47A7013700EF08DFA00230146CDE986
:102600000033144A14480EF0C3F878B900229FED45
:102610000E7B134611481249027001EBC3020133CD
:102620001E2B82ED007BF8D102B010BD40F2FB14EE
:102630000C49012001910C4B0C4A0D49009405F006
:102640002DFBE3E7AFF30080000000000000000076
:102650007347002025590108CC2300207147002032
:10266000481C0020A8030408AC0A04084408040815
:102670006408040800000000C0290AD0F0B5B1F5D4
:10268000807F04469FB00FD0802904D029201FB03E
:10269000F0BD0F2070472498002848D024984FF4AC
:1026A00086650A90012006E0249800284DD00A9003
:1026B00040F2344501200B900195212010250C9506
:1026C0000D9025980E900AA8102501269FED247BD9
:1026D0004FF0210EDFF898C00F9012A810951196B8
:1026E000129213961495CDF854E0CDF808C00390DB
:1026F0008DED047B9FED1C7B01AF069307908DED64
:10270000087B16973BB306AA1792042740F61102DE
:102710001126CB0816AD0EA91AA8189719961A9467
:102720001B951C931D920CF089F81FB0F0BD0A9008
:102730004FF4826501200B900195212010250C9506
:102740000D9025980E900120BEE7249840F2144584
:102750000A900120EFE702AAD6E700BFAFF300809E
:1027600010000010112800001000000011280000C7
:10277000242B0408000000002DE9F04F2DED028B02
:10278000934608241E460246A9B0DDF8D0A0DDF825
:10279000D490CDE90601414021FA04F34B4098075B
:1027A00004F1080418BF9B00202C1A44F4D1BC4B40
:1027B000A3FB0213DB0803EBC313D21AB94B02F5D8
:1027C00006271B7807F55067002B00F0B780B64C42
:1027D0008123049323464FF000083C46CDF80CB00B
:1027E0000593A4F50625059AA5F550635B0952F8F3
:1027F000232004F01F00C240D20718D4AB4A52F87D
:102800002330C340DB0700F18780DDF80CB027469A
:10281000BBF1000F6FD0B8F1000F18BF4746002082
:10282000369B1F6029B0BDEC028BBDE8F08FBAF17A
:10283000000F02D00023CAF80030B9F1000F02D017
:102840000023C9F800301027DFF87CB20023DBF842
:1028500000003246214600971AF046F80346002849
:102860004CD1BAF1000F00F0F2801023CAF800300A
:1028700003F1BC43326803F5BA1303F5E8539A42F7
:1028800040F0EA80B9F1000F11D04B462146DBF849
:10289000000018AA1AF07CF80346002840F0E580F2
:1028A000D9F80030DAF800209B1AC9F80030D6E9D0
:1028B0000223DDE90610834208BF8A4200F0DD8072
:1028C000774BA5F6FF45A3FB0523DB0803EBC313FA
:1028D000ED1A05F5062404F55064049B013B0493AE
:1028E0007FF47FAFDDF80CB0BBF1000F03D047469B
:1028F000B8F1000F93D16FF08B0093E76C4A9042D0
:1029000000F0AA801232904200F0A680694A9342F9
:10291000CDD06FF0910085E7614BA5F6FF42A3FB98
:102920000213DB0803EBC313D21AB8F1000F08BF80
:10293000A04602F5062404F55064CEE707F02CFE0D
:1029400004460028E5D19FED548B0146402208A89B
:102950002CF0EDF82146402218A82CF0E8F8CDE93B
:10296000037B554DDFF860814F4C0596CDF8D0A024
:102970002F4607F10F06D8F8000010223B4608A9A1
:10298000009610352AF023FFF8B108AB9E464FF0B1
:10299000010BDFF818C103EB800A5EF8042BA2F5E7
:1029A0000623A3F550635B0954F8231002F01F02BD
:1029B0000BFA02F2114344F823105CF82310D645B9
:1029C00021EA02014CF82310E7D100963B46102281
:1029D000D8F8000018A92AF003FF60B318AB1A4614
:1029E00003EB8000D4E9001303EB010EA168236917
:1029F0008E44E16801268E440EEB0301A646DFF803
:102A0000ACC052F8043BA3F50627A7F550677F0931
:102A10005CF8274003F01F0306FA03F323434CF846
:102A2000273029B98CED008B8CED028BCCF810107F
:102A30009042E6D17446214B9D4299D10123DDE9B4
:102A4000037B184A059EDDF8D0A01370C0E61C4B2E
:102A500032689A423FF42BAF2146DBF8000019F0B0
:102A6000DBFF00283FF423AF45E7114A9042F3D043
:102A7000144A90427FF44AAFEEE7DDF80CB02746E7
:102A8000BBF1000F3FF4CBAE7368012B7FF4C7AEF0
:102A90006FF08400C6E600BF0000000000000000E8
:102AA000813FE00F8847002094370020D01D002090
:102AB000FFDF00F0FEDF00F0006D0800007108008D
:102AC000105D175E11E000F0800C00200000000097
:102AD000002370B5404C05468AB0E36318B1008806
:102AE000236014F0E9F83D482BF045F83C4E3D4B8F
:102AF000304633603C4B736027F058FF002130466E
:102B00001AF094F932A3D3E90023A062C4E90623A2
:102B100027F057FFD4E9062319431043C4E90601FF
:102B2000CDE900014FF0FF334FF0FF32A06A2BF0E8
:102B30009DF802224FF0FF31A06A2BF09CF8012093
:102B400013F03CFE4FF4007300222849A06A2BF0DA
:102B5000E5F8B0F5007F38D100239422CDE90733A2
:102B600009933C23CDE9033205939623A06A03A978
:102B700006931AF079FA35B3287C14F01BFA05464F
:102B8000F0B9A06A2BF0ABF914F0C2F913F0F8FD1C
:102B900020B14FF48070002111F078FE13F000FE98
:102BA00020B14FF40060002111F070FE27F0CBFF40
:102BB00001201AF08FF90E4A0E49A06A27F0F4FEA0
:102BC00028460AB070BDFF20D7E70725F8E700BF09
:102BD0000DD5015520000000081E0020690345ECBA
:102BE000EC3C002041660208FC3C0020EC3A00204E
:102BF00051A9030891A9030838B52DED028B0446AD
:102C000020F046FD10EE100AB0EE408A0D4621F08D
:102C1000E1FD15A3D3E9002322F0A6F8DFED107A39
:102C200000289FED107A204608FE278A04EB8503D2
:102C300098420CD107EE905AB8EEE70A87EE000AE8
:102C400024F006F880EE080ABDEC028B38BDF0ECEB
:102C5000017A77EEC87A07EEA77AE9E7AFF300804A
:102C60000AD7233C000000007B14AE47E17A843F82
:102C70002DE9F84F05462DED068B10EE10BA0E46E5
:102C800092460424DFED628AB3EE0E9A03680B606D
:102C900043684B6083688B60C368CB6005EB84033B
:102CA00093ED008AB4EEE88AF1EE10FA06EB8407A1
:102CB00040F39780B4EEC98AF1EE10FA40F19180AA
:102CC00053ED019AF4EEE89AF1EE10FA40F38980A0
:102CD000F4EEC99AF1EE10FA40F1838013ED02AAE6
:102CE000B4EEE8AAF1EE10FA7BDDB4EEC9AAF1EE7B
:102CF00010FA76D553ED03AAF4EEE8AAF1EE10FA35
:102D00006FDDF4EEC9AAF1EE10FA6AD553ED047A3C
:102D1000F4EEE87AF1EE10FA63DDF4EEC97AF1EE42
:102D200010FA5ED57AEEE77A17EE900A21F052FD9E
:102D300031A3D3E9002321F0A5FD7AEE6A7A80461B
:102D400017EE900A894621F045FD2DA3D3E9002313
:102D500021F098FD02460B464046494621F0DCFB37
:102D600079EECA7A804617EE900A894621F032FD44
:102D700025A3D3E9002321F085FD02460B464046FA
:102D8000494621F0C9FB78EE697A804617EE900A31
:102D9000894621F01FFD1CA3D3E9002321F072FD19
:102DA00002460B464046494621F0B6FB804658464F
:102DB000894621F00FFD02460B464046494621F068
:102DC00061FD804618EE100A894621F003FD024697
:102DD0000B464046494621F09FFB22F00DF808EED5
:102DE000100A0134E4B2544587ED008AFFF456AF6F
:102DF000BDEC068BBDE8F88F9A9999999999B93FDE
:102E00009A9999999999C93FCDCCCCCCCCCCD43F47
:102E1000CDCC0C40000000002DE9F04FC76997B001
:102E20008346209E08910C92129355EC104B8DED29
:102E3000000B7FB9102022F0F7F90246CBF81C00F6
:102E400020B9A74BEF21A74822F0B6F9C0E90177D6
:102E50000760C760DBF81C30196859B15A68012354
:102E6000584693404A608B6023F028F9DBF81C3009
:102E700000221A602B1EB7BF23F00043002301225B
:102E80000193A8BF3360019F974BB8BF3260BB432B
:102E900019D142F20F73129A1360C7F3130323433D
:102EA00000F0DB85219B53B9904B21E0904B0393BD
:102EB0000833219A1360039817B0BDE8F08F8B4B4D
:102EC00003930333F5E79DED007B0022002351ECD3
:102ED000170B8DED0A7B21F03DFF804650B1012399
:102EE000129A1360219B13B1824B219A1360824B7B
:102EF0000393E0E7C7F30A5614AA15A958469DEDB7
:102F00000A0B23F063FB0290002E76D00B9BA6F2F7
:102F1000FF36CDF84C80C3F3130343F07F53DDE954
:102F20000A0143F4401319460022744B21F0F2FACF
:102F300065A3D3E9002321F0A5FC65A3D3E9002311
:102F400021F0EAFA04460D46304621F031FC62A336
:102F5000D3E9002321F096FC02460B462046294681
:102F600021F0DAFA04460D4625F0D0F80022074693
:102F700000232046294621F0F7FE40B1384621F0D3
:102F800017FC22462B4621F0E5FE00B9013F162F23
:102F900052D85B4B03EBC703DDE90A01D3E90023F9
:102FA00021F0E2FE002849D0013F00231193149B39
:102FB0009B1B5A1E4CBFC3F101030023079245BF60
:102FC0000693002306930793002F39DB079B109786
:102FD0003B44079300230993089B092B66D8052BD4
:102FE000C5BF043B002401240893089B023B032B2C
:102FF00067D8DFE803F02D3A3859DDE914631E4441
:1030000006F23243202BC9BFC3F14003C3F12003B2
:103010009F4006F21243D8BF04FA03F006F1FF36D0
:10302000C4BF24FA03F347EA030021F0B1FB0122F5
:10303000A1F1F873139276E70123B7E71190B6E791
:10304000069BDB1B06937B42099300231093C3E787
:1030500000230D930C9B002B56DC012399461A4646
:1030600004930C920CE00123F3E700230D930C9BD7
:10307000FB1803F1010904934B46012BB8BF012350
:10308000DBF81C000021042202F114059D423FD907
:103090004160584622F0D2FF039000283BD1194BE3
:1030A000024640F2AF11CEE60123DFE70124002300
:1030B0000D9408934FF0FF33002299460493122396
:1030C000CFE701230D93F5E761436F63A787D23FF5
:1030D000B3C8608B288AC63FFB799F501344D33F07
:1030E000167004082D7004080000F07F12700408A8
:1030F00009700408E66F0408E56F04080000F83F53
:1031000028710408867004080C9B99460493B7E75D
:1031100001315200B8E7DBF81C30B9F10E0F039A09
:103120001A606FD8002C6DD0002F36DD07F00F022B
:10313000A04BF8054FEA271403EBC20393ED007B85
:103140008DED0E7B17D59C4B04F00F044FF0030858
:10315000D3E90823DDE90A0121F0BEFCCDE9000135
:10316000954D5CB9DDE90E23DDE9000121F0B4FCE9
:10317000CDE900012BE04FF00208F1E7E10709D5A6
:1031800008F10108DDE90E01D5E9002321F07AFB01
:10319000CDE90E0164100835E3E700F007817C42B9
:1031A000844B854D4FF0020804F00F02241103EB0D
:1031B000C203DDE90A01D3E9002321F063FB002308
:1031C000CDE90001002C40F0E580002BD0D1119B0F
:1031D000DDE90045002B00F04C810022774B2046B2
:1031E000294621F0C1FD002800F04381B9F1000F0C
:1031F00000F03F81049B002B00F3E480DDE90A34FA
:10320000CDE90034159B002B02DB0E2F40F34282E8
:103210000D9A002A40F06782099C0025DDF818808D
:10322000B8F1000F0DD0079B002B0ADD4345069A2D
:10323000A8BF4346D21AA8EB03080692079AD31AEE
:103240000793099B0BB30D9B002B00F0A682002C6B
:1032500000F0A18229462246584623F059F8029AE6
:1032600001460546584622F0A9FF029906465846EF
:1032700022F024FF099B1B1B099300F09182099AFD
:103280003146584623F044F802900121584622F076
:103290007FFF109B0446002B00F084821A460146F3
:1032A000584623F035F8089B0446012B03DC009BAD
:1032B000002B00F07C820026236904EB830318694D
:1032C0002BF032FDC0F120001096079B184410F03F
:1032D0001F0000F09182C0F12003042B40F3818293
:1032E000C0F11C00069B034480440693079B0344E3
:1032F0000793069B002B05DD1A460299584623F0DA
:1033000061F80290079B002B05DD21461A465846BE
:1033100023F058F80446119B002B00F076822146DA
:1033200002982BF050FD002880F26F8200230A22C1
:103330000299584622F0E4FE0D9B7E1E0290002B5F
:1033400000F05C82002329460A22584622F0D8FE6B
:10335000049B0546002B03DC089B022B00F35E82D6
:10336000B8F1000F05DD29464246584623F02AF8F9
:103370000546109B002B00F0D0826968584622F069
:103380005DFE0746002840F07F820D4B024640F26A
:10339000EF2158E5E20706D508F10108D5E9002339
:1033A00021F070FA0123641008350BE74FF0020892
:1033B0000DE700BF28710408007104080000F03F09
:1033C0008670040820460022AC4B294621F05AFAA8
:1033D0007E1E08F10108049CCDE90001404621F061
:1033E000E7F9DDE9002321F04DFAA54B002221F099
:1033F00093F8A1F15073CDE90E010F93002C3BD14E
:103400000022A04BDDE9000121F084F802460B46C2
:10341000CDE90023DDE90E2321F0C4FC002840F0B3
:103420005781DDE90E2101F10043DDE9000121F0C2
:103430009BFC00283FF4E2AE002425460C9BDDF8FF
:103440000CA0DE434FF000082146584622F036FE1D
:10345000002D00F0A980B8F1000F05D0A84503D0D9
:103460004146584622F02AFE2946584622F026FEBA
:103470009AE03E464C46B1E7834B03EBC40353E965
:103480000201039B1C440D9B002B4AD002460B46B5
:1034900000207E4921F020FBDDE90E2321F03AF8DF
:1034A000DDF80CA0CDE90E01DDE9000124F02EFECF
:1034B000054621F07DF9024630350B46DDE9000175
:1034C00021F028F80AF8015B02460B46CDE900011D
:1034D000DDE90E0121F066FC002865D100206C4971
:1034E000DDE9002321F016F802460B46DDE90E0166
:1034F00021F058FC002840F00D81A24500F0EA8040
:1035000000225E4BDDE90E0121F0BCF900225B4B8D
:10351000CDE90E01DDE9000121F0B4F9CDE90001AA
:10352000C2E7DDE90E2321F0ADF9A046DDF80CA0DD
:10353000CDE90E01DDE9000124F0E8FD054621F0AA
:1035400037F9024630350B46DDE9000120F0E2FF95
:103550000AF8015B02460B46A245CDE900234FF075
:10356000000223D1494BDDE90E0120F0D5FF0246D0
:103570000B46DDE9000121F015FC002840F0CA806F
:1035800000204249DDE90E2320F0C4FF02460B462D
:10359000DDE9000121F0E8FB70B1C24608F1FF3817
:1035A0001AF8013C302BF8D0374655E0334B21F068
:1035B00069F9CDE90001BDE7DDE90A34CDE9003460
:1035C000159B002BFFF628AE0E2F3FF725AE2E4B96
:1035D00003EBC70393ED007B0C9B002B8DED047B6D
:1035E00002DAB9F1000F64D0DDF80CA0DDE9004586
:1035F000DDE904232046294621F06EFA24F086FDF9
:10360000064621F0D5F8DDE9042321F03BF9024616
:10361000204606F130040B46294620F07BFF0AF8CD
:10362000014B039C02460B46AAEB0404A14540F063
:10363000828020F071FF04460D46DDE9042321F06D
:10364000B1FB002865D120462946DDE9042321F09D
:1036500081FB08B1F3075CD40299584622F02EFD95
:10366000002301378AF80030129B1F60219B002B3A
:103670003FF421ACC3F800A01DE400BF00002440CB
:1036800000001C4000001440287104080000E03FC6
:103690000000F03FA24B03EBC70393ED007B0C9BB4
:1036A000002B8DED047B9FDAB9F1000F9CDC7FF4D9
:1036B000C3AE00229B4BDDE9040121F0E3F8DDE914
:1036C000002321F065FB044600287FF4B5AE3E469A
:1036D0002546B4E0DDE90A34CDE90034159B002B22
:1036E00001DB0E2FD6DD089A012A36DC139A82B34D
:1036F00003F23343099CDDF81880069A01215846ED
:103700001A440692079A1A44079222F041FD054690
:1037100086E53E4653469A4613F8012D392A06D1CE
:10372000039A9A42F7D13022039901360A701A7827
:1037300001321A7038E700227B4B21F0A3F80022F7
:10374000002304460D4621F005FB00283FF450AF4E
:1037500082E7149BC3F13603CCE709F1FF34099BE0
:10376000A34208DBB9F1000FA3EB04040EDBDDF884
:1037700018804B46C1E7099B109AE31A0994DDF8BB
:10378000188000241A444B461092B6E7069BA3EB20
:1037900009080023B1E7029E71E5099A029970E5D4
:1037A000029672E5089B012B17DC009BABB9019BCD
:1037B000C3F313039BB9019B23F00046360D360576
:1037C00036B1069B012601330693079B013307930D
:1037D000109B002B7FF470AD1096012075E500263C
:1037E000F6E73FF486AD1C33069A1A4498440692D5
:1037F000079A1A4407927CE50346F4E7049B002BE2
:103800002BDC089B022B09DC27E0B9F1000F1DDC43
:10381000089B022B1ADD3E46CDF81090049B002B2E
:103820007FF40CAE21460522584622F069FC014681
:10383000044602982BF0C7FA00287FF7FFADDDF8A9
:103840000CA0312301360AF8013BFBE50D9B3E46F7
:10385000CDF81090002B7FF483AD039F2146029892
:103860002BF0D5F9039B00F13009049A07F8019B6E
:10387000FB1A9A4240F3CB8000230A220299584651
:1038800022F03EFC0290E9E72A6905F10C010C30B8
:10389000023292002BF09FF901223946584622F05D
:1038A00091FD039BA846054603F1010ADDE90323C8
:1038B00013440793009B03F0010309930AF1FF33BC
:1038C0002146029804932BF0A2F94146069000F19C
:1038D000300902982BF077FA2A46214607465846C7
:1038E00022F0DCFDC268014602B3584622F0E6FB36
:1038F000002F3ADA01220299584622F063FD214650
:1039000002902BF060FA002803DC29D119F0010F96
:1039100026D0B9F1390F1DD132E02846C1E700BFEA
:103920002871040800001440000024400A90029806
:103930002BF049FA0A990C90584622F0BFFB0C9ADA
:103940005ABB089B53B9099B43B9B9F1390F17D03A
:10395000002F05DD069B03F1310901E0002F2ADA73
:10396000DDF810A00AF8019B6EE5089B3B4304D1EB
:10397000009B03F00103002BBCD0B9F1390F36D105
:10398000049F392307F8013BBA46013F1AF8013C6E
:10399000392B5AD001333B7056E5002F06DB089BCC
:1039A0003B4306D1009B03F0010313B9002AA1DCBD
:1039B000D6E7002AE1DC079B57460AF8019C5345ED
:1039C0002ED000230A220299584622F099FBA845DE
:1039D00002904FF000034FF00A02414658460BD1C7
:1039E00022F08EFB804605460AF1010A66E7DDF803
:1039F00010A009F10109B5E722F082FB29468046B3
:103A000000230A22584622F07BFB0546ECE7049B84
:103A10004FF00008002BCCBF1F460127039B1F441B
:103A200001220299584622F0CDFC214602902BF04B
:103A3000CAF90028A8DC02D119F0010FA4D1BA46B6
:103A400017F8013D302BFAD0FEE4039BBB429BD11B
:103A50003123039A01361370F6E4219B002B7FF487
:103A600025AA014BFFF744BA097004080348044B28
:103A7000834202D0034B03B1184770477C1B0020E0
:103A80007C1B002000000000064B0749C91A891062
:103A900048BF0131491003D0044B0BB1014818470E
:103AA000704700BF7C1B00207C1B00200000000032
:103AB00010B5064C237843B9FFF7D8FF044B13B178
:103AC0000448AFF300800123237010BD6C47002031
:103AD000000000009473040808B5054B1BB10549AC
:103AE0000548AFF30080BDE80840FFF7CDBF00BF39
:103AF000000000006820002094730408A3F5803AB9
:103B0000704700BF174B002B08BF134B9D46FFF7B4
:103B1000F5FF00218B460F461348144A121A2BF06A
:103B200006F80E4B002B00D098470D4B002B00D011
:103B300098470020002104000D000D48002802D005
:103B40000C48AFF3008022F00BFA2000290000F0AF
:103B5000ABFB21F057FB00BF000008000000000095
:103B600000000000C00A00207C1B002070480020DC
:103B70000000000000000000F0B50368A04A23F434
:103B80007F4323F00703934204468FB000F0F28096
:103B90003AD802F17F42934200F01D8102F5802263
:103BA00093425DD10021A127B0F8055009AE14223F
:103BB00006AB28460096069115F07EFB914B03203C
:103BC000CDE90135904A914B9149009704F066F890
:103BD00032460821BDF818308E4804F02BFB242D06
:103BE00000F063812B2D0DD1B4F805302279ADF8AA
:103BF0001D308DF81C2007A9334603C9BDF81820D5
:103C000003F02AF90FB0F0BD834A934200F0AC8074
:103C100002F5102293425DD1D126C2790389B0F812
:103C20000550CDE903327D4A0320CDE90125774BCC
:103C3000754A7749009604F031F8242D00F044814C
:103C40002B2D00F06F811D2DDCD1E379012B00F0CD
:103C5000AA81022BD6D101F0BDFC01238376D1E7E6
:103C6000A2F510229342CDD143246D490320674B26
:103C7000654A01910094664904F010F8002109ABEF
:103C8000084607AA15F0B8FB0446002832D0654D57
:103C9000654928680BF074FD644928680BF070FDD5
:103CA00005F04EFF05F04EFF614847230090564A4D
:103CB000604928680BF064FD5F4923465F4A286825
:103CC0000BF05EFD204605F069FF5D4928680BF0AA
:103CD00057FDFEE7A2F18272934293D1B0F809300A
:103CE000B0F80720B0F8051000790FB0BDE8F0403B
:103CF00001F0A8BC534D284615F03EFA04460028B2
:103D000040F0ED80504E5148314602F0E9F821462E
:103D10004E4B3278287815F069FA0446002800F0F6
:103D20000C81404D404928680BF02AFD3F49286826
:103D30000BF026FD05F004FF05F004FF3C4852237C
:103D40000090314A3B4928680BF01AFD3A49234656
:103D50003A4A28680BF014FD204605F01FFF384949
:103D600028680BF00DFDFEE740680FB0BDE8F0409D
:103D700001F07EBD807901F09FFC324D324A002176
:103D8000324B1278287815F031FA0446002861D0B9
:103D9000244D254928680BF0F3FC244928680BF0D2
:103DA000EFFC05F0CDFE05F0CDFE21488E230090FE
:103DB000154A204928680BF0E3FC1F4923461F4A97
:103DC00028680BF0DDFC204605F0E8FE1C49286859
:103DD0000BF0D6FCFEE700261D4D2846C5E900661F
:103DE000AE60AE8105F0C6FA2B460E2231460B209E
:103DF00015F094FA207B0FB0BDE8F04001F0FEBB57
:103E0000A00006013CFB0308C0FA030880FB03087E
:103E1000CCFA03081C0B0408A00001034CFB0308A8
:103E2000D0FA0308DC2C00202C110408F8FA03084F
:103E300070FB030800FB030810FB03080CFB0308DE
:103E400028FB0308001000206D4700209020002070
:103E5000802000200221287815F0DEF90446002891
:103E60003FF4D0AE764D774928680BF089FC76494F
:103E700028680BF085FC05F063FE05F063FE7348CF
:103E800092230090724A734928680BF079FC7249BA
:103E90002346724A28680BF073FC204605F07EFE2C
:103EA0006F4928680BF06CFCFEE7B4F80530227906
:103EB000ADF81D308DF81C2007A9334603C9BDF8A5
:103EC000182002F0B3FC9DE6E379012B73D0022B9E
:103ED0007FF498AE01F07EFB0123037692E6584D05
:103EE000584928680BF04CFC574928680BF048FCEF
:103EF00005F026FE05F026FE54484B230090544A58
:103F0000544928680BF03CFC53492346534A28681F
:103F10000BF036FC204605F041FE514928680BF0B5
:103F20002FFCFEE7E379012B35D0022B7FF46AAE3C
:103F300001F050FB0123437664E64FF4C862009021
:103F400003461146287815F02FF9044600283AD088
:103F50003B4D3C4928680BF013FC3B4928680BF0AB
:103F60000FFC05F0EDFD05F0EDFD38485B230090FA
:103F7000374A384928680BF003FC37492346374A4B
:103F800028680BF0FDFB204605F008FE3449286840
:103F90000BF0F6FBFEE72389002B43D00FB0BDE802
:103FA000F04002F03DBD2389002B40D00FB0BDE8AA
:103FB000F04002F0ABB82389002B2ED00FB0BDE843
:103FC000F04002F0C7B92878022115F025F905461E
:103FD000002831D01A4C1B4920680BF0D1FB1A493C
:103FE00020680BF0CDFB05F0ABFD05F0ABFD1748ED
:103FF0005F230090164A174920680BF0C1FB164951
:104000002B46164A20680BF0BBFB284605F0C6FD80
:10401000134920680BF0B4FBFEE70FB0BDE8F04099
:1040200002F09EB90FB0BDE8F04002F0FFBC0FB047
:10403000BDE8F04002F070B801F0D6FBE2E500BF49
:10404000DC2C00202C110408F8FA030870FB03088C
:10405000C0FA030800FB030810FB03080CFB03086D
:1040600028FB030830B5C107044683B01FD4A2075C
:1040700029D4630733D425073DD4A00647D461066D
:1040800051D422065BD4E30565D4A5056FD4600541
:1040900079D4210500F18480E20300F18E8063036E
:1040A00000F19880002CC0F2A28003B030BD4625FC
:1040B000554A03200192554B554A5649009503F045
:1040C000EDFDA207D5D54A25534A504B0192032056
:1040D0004F4A5049009503F0E1FD6307CBD54E25CB
:1040E0004E4A009501920320484B494A494903F042
:1040F000D5FD2507C1D55225494A03200192434BDE
:10410000434A4449009503F0C9FDA006B7D556259A
:10411000444A4049019203203C4B3D4A009503F03C
:10412000BDFD6106ADD55A253F4A03200192374BAC
:10413000374A3849009503F0B1FD2206A3D55E2524
:104140003A4A324B01920320314A3249009503F03A
:10415000A5FDE30599D56225354A00950192032016
:104160002A4B2B4A2B4903F099FDA5058FD56625CF
:10417000304A03200192254B254A2649009503F039
:104180008DFD600585D56A252B4A224901920320C1
:104190001E4B1F4A009503F081FD21057FF57CAF82
:1041A0006E25264A03200192184B194A1949009599
:1041B00003F074FDE2037FF572AF7225204A134BC2
:1041C00001920320124A1349009503F067FD63032F
:1041D0007FF568AF76251B4A032001920B4B0C4AF2
:1041E0000C49009503F05AFD002CBFF65EAF7A240F
:1041F000154903200191054B054A0649009403F037
:104200004DFD03B030BD00BFA4FB030834FE03081E
:1042100090FB03089CFB0308C0FB0308D8FB0308C2
:10422000F4FB030810FC030834FC030854FC0308E7
:104230007CFC030894FC0308ACFC0308C4FC0308E2
:10424000DCFC0308F4FC030814FD030810B501218D
:1042500084B02D2006F0DCFF002340F2011E4FF059
:10426000010C40F20B320E4C69462046CDF8063068
:10427000CDF80230CDF80930ADF800E0ADF80920F6
:104280008DF804C009F096FA02214FF40032054B74
:1042900004F58054E161C3F884215A6004B010BD74
:1042A0000080015A00E100E080B584B009F02EF9E9
:1042B000474DAC27286009F023F90CF095FE09F072
:1042C000F5F801213A2006F0A3FF00230422194645
:1042D000022008F0D3FC002304220121022008F070
:1042E000CDFC022100230846042208F0C7FC00236D
:1042F00004220521022008F0C1FC002304221946F3
:10430000184608F0BBFC002304221846114608F0AA
:10431000B5FC002304221846062108F0AFFC002358
:1043200004221946012008F0A9FC0EF03FF90020F4
:104330000EF03EF903F028FCFF21002003F0A6FE5A
:10434000C721012003F0A2FEC721022003F09EFE38
:104350000721032003F09AFE0721042003F096FEB4
:1043600003F050FC0097AD271A4E1B4B0320CDE9FC
:1043700001361A4A1A4B1B4903F090FC2B68194965
:104380000293194B154A032001930097144B03F035
:1043900085FC164C2868FFF765FEFFF757FF32468D
:1043A0001349144802F0A4FF04F0E0FD04F048FFB4
:1043B00004F0FEFE05F02EF8204609F0E9F920464B
:1043C00009F0E6F90CF01EFE0BF028FDF7E700BF40
:1043D000B420002038FD030840FD030890FB0308CB
:1043E0002CFE03089CFB030854FD03080080015ABF
:1043F00064FD03086CFD03082DE9F04397B03822F3
:10440000002108A82AF093FB4FF40032224BC3F896
:1044100084216A46382108A802F0BEFFF2241F4A10
:104420001F4F0192009406461E4B03201E4A1F494F
:1044300003F034FC3C7824B101233B7017B0BDE895
:10444000F083F9251A4B0320CDE90136164A154BA6
:104450001649009503F022FC04F0AAFEAEB1DFF885
:104460005490DFF8548007AD55F8041F484603F018
:10447000D3FB2246414605A821F08AFC0134294697
:1044800005A804F05FFEA642EED104F023FF01234D
:104490003B7017B0BDE8F08300E100E070FD030859
:1044A0006E47002018FE030890FB03089CFB0308DE
:1044B00084FD0308A0FD0308A8FD03082DE9F041D1
:1044C00096B03822002108A82AF031FB6A4638212C
:1044D00008A802F061FF40F21114064600944FF460
:1044E0008974174A0320174B17490192174A03F0A2
:1044F000D5FB174A0320134B134901920296134A26
:10450000009403F0CBFB04F053FEAEB10024DFF8BF
:104510004880104F07AD55F8041F404603F07CFB60
:104520002246394605A821F033FC0134294605A866
:1045300004F008FEA642EED104F0CCFEFEE700BF78
:10454000B0FD03080CFE03089CFB030890FB030866
:1045500084FD0308A8FD0308A0FD03082DE9F04130
:1045600096B03822002108A82AF0E1FA6A463821DC
:1045700008A802F011FF40F22B14064600944FF4F5
:104580009674174A0320174B17490192174A03F0F4
:1045900085FB174A0320134B134901920296134AD5
:1045A000009403F07BFB04F003FEAEB10024DFF8BF
:1045B0004880104F07AD55F8041F404603F02CFB10
:1045C0002246394605A821F0E3FB0134294605A817
:1045D00004F0B8FDA642EED104F07CFEFEE700BF79
:1045E000BCFD0308F8FD03089CFB030890FB0308CF
:1045F00084FD0308A8FD0308A0FD03082DE9F04190
:1046000096B03822002108A82AF091FA6A4638218B
:1046100008A802F0C1FE4FF4A2740646009440F2CE
:104620004514174A0320174B17490192174A03F004
:1046300035FB174A0320134B134901920296134A84
:10464000009403F02BFB04F0B3FDAEB10024DFF8BF
:104650004880104F07AD55F8041F404603F0DCFAC0
:104660002246394605A821F093FB0134294605A8C6
:1046700004F068FDA642EED104F02CFEFEE700BF78
:10468000D0FD0308E4FD03089CFB030890FB03082E
:1046900084FD0308A8FD0308A0FD030803681B4A66
:1046A00023F47F4323F00703934200D0704730B5D3
:1046B000052200211620164B83B014F02FFE04466D
:1046C00008B903B030BD134D134928680BF058F8F2
:1046D000124928680BF054F805F032FA05F032FA66
:1046E0000F48592300900F4A0F4928680BF048F8EB
:1046F0000E4923460E4A28680BF042F8204605F082
:104700004DFA0C4928680BF03BF8FEE7A0000100C9
:1047100048FE0308DC2C00202C110408F8FA0308DA
:1047200078FE030850FE030800FB030810FB030893
:104730000CFB030828FB030813F022B908B50CF0A2
:10474000A3FCBDE8084014F0D9BA00BF01207047AF
:1047500000B5C3B013F0A6F826F0FEF910B943B0C7
:104760005DF804FBFFF7F2FF0028F8D001A827F05E
:104770006EFB0028F3D101A805F006F901A804F0AA
:104780006DFF01A8FFF78AFF01A8FFF7F5F943B015
:104790005DF804FB08B507F0C9F807F073F8214A83
:1047A000136F23F0070343F00303136707F082F846
:1047B0001D4B9B6A9B0702D401221C4B9A62194B2A
:1047C0000020D3F8202122F0030242F00202C3F8B5
:1047D0002021D3F8242122F0070242F00202C3F87C
:1047E0002421D3F8402122F0030242F00202C3F850
:1047F0004021D3F8602122F0030242F00202C3F804
:104800006021D3F8402222F0030242F00202C3F8F2
:104810004022D3F8002222F0070242F00202C3F83D
:10482000002208BD0080005000C0005000E0005091
:1048300008B50AF0EFFE0AF06BFE0AF0D1FE0AF0AE
:104840008FFEFFF7A7FF0AF077FE05F00BFC05F0DF
:10485000A3FEBDE808400BF0E5B900BF08B505F0C0
:1048600027FEBDE8084000F07BB800BF08B50BF09C
:1048700023FF0AF0EBFF09F0CFFF0BF05BF80DF020
:10488000A9F90AF0E1F9BDE808400AF0C5BF00BF88
:1048900008B509F0C9F809F0E5F809F0F7F8FFF7ED
:1048A0004DFFBDE8084009F0DBB800BF05F04CB98A
:1048B000704700BF05F07EBAFFF74ABF704700BFE0
:1048C00001480AF0EBBF00BFB820002001480AF001
:1048D000E5BF00BFB82000200120704701207047CD
:1048E00038B505F0A9FA054613F004F8041E18BF00
:1048F0002C46FFF7F1FF002818BF204638BD00BF47
:1049000038B50BF0E1FB044605F08CFA042817D00B
:10491000022808BF012426F061F904284FF00005A1
:1049200014D0022808BF0124FFF7D8FF042813D0B1
:10493000022808BF0124002D18BF0024204638BDDE
:1049400026F04CF904284FF00105EAD1FFF7C6FF25
:1049500004284FF00105EBD10024204638BD00BFEC
:10496000024B0349186806F099B800BF040C0020F8
:10497000E40B0020014B1878704700BF6F47002000
:1049800010B53A24084982B001910420074B084A27
:104990000849009403F082F90022074B1A7002B014
:1049A000BDE8104000F036B9E40204082003040812
:1049B000C8020408E00204086F47002010B5522422
:1049C000084982B00420084B084A01910094084924
:1049D00003F064F900F044FA0022064B1A7002B0AA
:1049E00010BD00BFF002040814030408C802040844
:1049F000E00204086F47002010B56824084982B01F
:104A00000420084B084A01910094084903F046F934
:104A100000F016FB0122064B1A7002B010BD00BF59
:104A2000FC02040808030408C8020408E0020408A1
:104A30006F47002000F0E4B8F8B56FF448731B4EE0
:104A4000B6F90800C3189BB2B3F5C77F22D81FF090
:104A5000AFFE0022164B20F03FF804460D46B6F993
:104A60000A0038B144F61E6200F51C530F339BB2A6
:104A7000934212D9002600270E4B2046D3E900238B
:104A800029461FF0FFFE32463B461FF045FD41EC34
:104A9000100BF8BD0024084DE1E71FF089FE00224D
:104AA000034B20F019F806460F46E5E75C2C002082
:104AB00000408F40801B00200000F03F38B50546C5
:104AC000054800F083F8044625B118B1FFF7B4FF9C
:104AD00085ED000B204638BD801B002010B5DF247B
:104AE000084A82B0019204200749084B084A009402
:104AF00003F0D4F80021022002B0BDE8104000F01D
:104B00000DBE00BF4C0304084403040884050408D8
:104B10002C03040810B5EF24084A82B00192042047
:104B20000749084B084A009403F0B8F80021032015
:104B300002B0BDE8104000F0F1BD00BF6C030408F6
:104B400044030408640504082C030408002105201C
:104B500000F0E4BD10B54FF4BE74144882B014499F
:104B6000144B154A01900094042003F097F8042296
:104B7000124B0A201A670BF0CDFF00230146CDE946
:104B800000330F4A0F480BF0D1FD08B902B010BD39
:104B90004FF4C2740C4901200191064B064A0449A6
:104BA000009403F07BF802B010BD00BF8C03040832
:104BB00044030408F80404082C03040800D003503C
:104BC000154B010860210020A803040898B10123B7
:104BD00010B582B0044669461A46084804F086FCBF
:104BE00010B9002002B010BD0120DDE90023C4E9A6
:104BF000002302B010BD0020704700BFA421002098
:104C000008B5034804F0D4FC003818BF012008BDE3
:104C1000A42100202DE9F0434FF48175DFF8F890CE
:104C2000DFF8F880304F314B85B04246394601936A
:104C300000954B46042003F031F80422012311466D
:104C4000022008F01BF8012304220621022008F0AC
:104C500015F8012304221846022108F00FF800235A
:104C600002221846052108F009F81023204C0022E2
:104C700004F58055C5F8A0301E49052005F032FC2A
:104C800039464FF48A7700971B4F4B4601971B4FCD
:104C9000424638600290042003F000F818490320CF
:104CA00000F05AFD1749022000F056FD1649052074
:104CB00000F052FD082215491123154804F006FCA6
:104CC0004026042304F50054C4F8A06001202367A3
:104CD0000BF0E2FEC5F8A06000F002FE0D4B18607C
:104CE00005B0BDE8F08300BF44030408CC0304080A
:104CF00000C003504D4B0108D8030408B821002020
:104D0000E9520108554B0108214D0108881B00207C
:104D1000A4210020A0210020580504082C03040829
:104D20002DE9F04140F2FF170024404A84B0404D85
:104D30000420404B404901920097404A02F0AEFFE8
:104D40002A68234605212046CDE9004407F01AFFD2
:104D50003B4E2B68C6F82034FDF7FEF9394B1B8813
:104D6000142B0AD0012300202A680521CDE9000375
:104D700007F008FF04B0BDE8F081334B1A88032A1E
:104D8000F0D110270120DFF8D4801C800CF046F908
:104D90002E4B042203932E4C03A9D8F80000C6F82A
:104DA000A07006F0B9F801200CF038F90120C4F821
:104DB000A0700CF033F9274B0422039303A9D8F811
:104DC0000000C6F8A07006F0A7F801200CF026F944
:104DD0000120C4F8A0700CF021F948F2610304220C
:104DE000039303A9D8F80000C6F8A07006F094F861
:104DF00001200CF013F90120C4F8A0700CF00EF99A
:104E0000154B0422039303A9D8F80000C6F8A0703C
:104E100006F082F801200CF001F90120C4F8A0701E
:104E20000CF0FCF8042333679CE700BF4C04040833
:104E3000B8210020D0040408440304082C0304080B
:104E400000E0035004470020024700203A8016008B
:104E500000D00350508002003A809600040C0020DD
:104E600010B50D4882B00BF025FD0C480BF022FD6B
:104E700000230B4C184622680521CDE9003307F0CA
:104E800081FE402104222068064BC3F82004C3F8A9
:104E9000A0101A6702B010BD802100206021002000
:104EA000B821002000E003502DE9F043012099B023
:104EB0000CF0B4F80120102407230546574E584A39
:104EC00006F50058574FADF824300892C8F8A040B6
:104ED0000CF0A4F808A90622386806F5805606F0FA
:104EE0001BF828460CF09AF82846C6F8A0400CF0AB
:104EF00095F84AF25003ADF820304B4B4FF00009C3
:104F00001B88ADF80B908DF80930C3F301238DF8A1
:104F10000A30464B8DF80D9000936B46CDF8049007
:104F20008DF8085007CB1B88CDF82200ADF82E3045
:104F3000CDF82610CDF82A2028468DF83090C8F8F4
:104F4000A0400CF06BF808A91122386805F0E4FFC6
:104F500028460CF063F8364BC6F8A0402846089364
:104F60008DF82490C8F8A0400CF058F808A9052244
:104F7000386805F0D1FF28460CF050F82D4BC6F8E4
:104F8000A04028460893C8F8A0400CF047F808A9AC
:104F90000422386805F0C0FF28460CF03FF854237F
:104FA000C6F8A040ADF82430234B28460893C8F833
:104FB000A0400CF033F808A90622386805F0ACFFD1
:104FC00028460CF02BF848F20503C6F8A040284606
:104FD0000893C8F8A0400CF021F808A9042238680A
:104FE00005F09AFF02200CF019F8144BC6F8A04007
:104FF000284608938DF82490C8F8A0400CF00EF8CD
:10500000052208A9386805F087FF28460CF006F845
:10501000C6F8A04019B0BDE8F08300BF00C003503F
:105020003AA0160B040C00200647002003000039AC
:1050300061A00F013A80960001A0610017A0010154
:1050400070B540F29314334984B0334B334A019125
:1050500004203349009402F021FE9621314B324A5C
:10506000B3F9063011800BB10B44138004252F4B8C
:105070000A201D670BF010FD00F032FC2C4B1C6861
:10508000041BB4F57A7F29D300240125294B05217F
:105090001A6820462B46CDE9004507F073FD42F221
:1050A00010700BF037FD23460146CDE90044224A3B
:1050B00022480BF06DFB20B904B0BDE87040FFF74B
:1050C000F3BE4FF4D8741E4928460191124B134A7F
:1050D0001349009402F0E2FD04B070BD4FF4D376A2
:1050E000184A2846CDE901240B4B0C4A0C4900967E
:1050F00002F0D4FD1448154B04FB00F000F57420B9
:1051000000F51070A3FB0030C0F38F100BF0C4FC4F
:10511000BAE700BF64040408E80404082C03040888
:10512000440304085C2C00200647002000D00350F4
:10513000A0210020B8210020DD4A010880210020A4
:10514000840404087404040818FCFFFFD34D6210A3
:105150002DE9F043012099B00BF060FF01201024ED
:1051600007230546574E584A06F50058574FADF8E5
:1051700024300892C8F8A0400BF050FF08A906227E
:10518000386806F5805605F0C7FE28460BF046FF46
:105190002846C6F8A0400BF041FF4AF25003ADF894
:1051A00020304B4B4FF000091B88ADF80B908DF869
:1051B0000930C3F301238DF80A30464B8DF80D906A
:1051C00000936B46CDF804908DF8085007CB1B88F0
:1051D000CDF82200ADF82E30CDF82610CDF82A20DB
:1051E00028468DF83090C8F8A0400BF017FF08A9AA
:1051F0001122386805F090FE28460BF00FFF364B61
:10520000C6F8A040284608938DF82490C8F8A0401E
:105210000BF004FF08A90522386805F07DFE28463A
:105220000BF0FCFE2D4BC6F8A04028460893C8F8AA
:10523000A0400BF0F3FE08A90422386805F06CFECC
:1052400028460BF0EBFE5423C6F8A040ADF82430FE
:10525000234B28460893C8F8A0400BF0DFFE08A9AE
:105260000622386805F058FE28460BF0D7FE48F2B3
:105270000503C6F8A04028460893C8F8A0400BF0E4
:10528000CDFE08A90422386805F046FE28460BF03A
:10529000C5FE144BC6F8A040284608938DF824900C
:1052A000C8F8A0400BF0BAFE052208A9386805F03E
:1052B00033FE28460BF0B2FEC6F8A04019B0BDE898
:1052C000F08300BF00C003503AA0160B040C00206E
:1052D000064700200300003961A00D013A809600C6
:1052E00001A0610017A0010110B54FF4B4740D497D
:1052F00082B004200C4B0D4A019100940C4902F03D
:10530000CDFCFFF725FF012300200A4A0A49126855
:10531000C1F820240521CDE9000307F033FC02B0D9
:1053200010BD00BFB0040408140504082C030408D1
:1053300044030408B821002000E00350F0B53B4DC1
:1053400087B06B6903F4A073B3F5807F42D19027D7
:10535000294604A808F002F8049C354A0420CDE947
:105360000124344B344A3549009702F097FC40F24F
:10537000BA43022104FB03F3314A324E82FB03425B
:105380001A44DB17C3EBE2238B4033802846E960E5
:1053900007F03EFF00212A2005F03AFF40F6E442E4
:1053A00040F6282133889A4228BF1A468B422AD9D0
:1053B000254BA2F62822A3FB0213D21A03EB5203B9
:1053C000C3F38703214A2248137007B0BDE8F040B9
:1053D0000BF070BAF2241F49174A019101201749B6
:1053E0001D4B009402F05AFC02232846EB6007F0A4
:1053F0000FFF2A20002105F00BFF154807B0BDE87C
:10540000F0400BF057BAB3F5166F07D9134BA2F55E
:105410001662A3FB0232C2F30713D3E740F26C72A9
:1054200093428CBF01236423CCE700BF0040005AA5
:10543000CC050408B4060408A4050408C005040843
:1054400081000880F00F00202549922401100020DF
:10545000C8210020D405040874060408A38B2EBAC2
:105460002DE9F0411C4C82B001212A2005F0D0FE2C
:10547000204607F0CDFE02214FF4B06006F0E4FCB8
:1054800000222046154907F027FF0023064640F278
:10549000BA410222124DDFF85480E9606A8064212B
:1054A0001A460096204688F8056007F031FF41F261
:1054B00001030C4F41462A46A86020463B8007F076
:1054C0003BFC3A462046084907F068FE0123E360AA
:1054D00002B0BDE8F08100BF0040005A404B4C00D4
:1054E000140C0020080C00200C0C0020BC21002013
:1054F00030B5D025074C084A217885B0CDE9012187
:105500000320064B064A0749009502F0C7FB2078A6
:1055100005B030BD01100020F8050408900604080D
:10552000A4050408C00504081E4B1F4A1968128808
:105530000844B2F57A6F186006D21C4A1C4B02FB75
:1055400000F0B3EBF00F1DD310B540F21B14194857
:1055500084B0194B194A1A4901900094032002F0B3
:105560009DFBFFF77DFF0A200BF0D4FA00230146D4
:10557000144ACDE9003314480BF0D8F8024610B9AC
:1055800004B010BD704740F22314104902920191FB
:105590000120094B094A0A49009402F07FFB04B03C
:1055A00010BD00BFE8210020F00F002021436587D7
:1055B000AC6824000C06040858060408A405040876
:1055C000C00504083D530108C82100203406040822
:1055D00004F068BD00487047101C0020034B93F88E
:1055E0003000B0FA80F04009704700BF101C002066
:1055F000014B1878704700BF101C002030B50446DE
:10560000BB250B4A85B00B49019203200A4B0B4A7C
:105610000095029402F042FB40F20112084B204632
:105620001A83FCF75DFE05B0BDE8304000F03ABDDE
:10563000FC060408F006040820080408D406040840
:10564000101C00202DE9F0430446894690461F4671
:10565000D625144B87B001930320134BCDE90249A3
:10566000CDE90487114A1249009502F017FB002387
:10567000104E3578708803B915B907B0BDE8F083CE
:10568000A042FAD12046A6F80490A6F806803781F9
:1056900000F078FC18B1012373700123E9E700F0F2
:1056A00001FDFAE720070408F8070408D4060408F7
:1056B000F0060408101C002030B50446FD25124AEF
:1056C00085B00320114B01921149124A00950294B2
:1056D00002F0E4FA104A1078538840B90023D376D8
:1056E00000F0B0FB05B0BDE8304000F0CFBC9C42FC
:1056F000F4D10021002400251180C2E90445C2F83C
:105700000210C2F80610E9E754070408D407040899
:10571000F0060408D4060408101C002038B54FF029
:10572000010C00230B4D1A460CFA00FC02E001327A
:10573000202A09D055F8234003336445F7D102EB02
:10574000420205EB8205A96013F0FAFCB0FA80F082
:10575000400938BD0C220020F0B500220125074683
:1057600013461C4E85B0854002E00133202B0ED03D
:1057700056F822400332AC42F7D1002203EB430338
:1057800006EB8303C3E90112012005B0F0BD00223E
:10579000104B1C680CB95C689CB10132202A03F1E3
:1057A0000C03F6D140F291140B49012001910B4BEF
:1057B0000B4A0C490297009402F070FA002005B0E1
:1057C000F0BD02EB420246F8225006EB8206C6E923
:1057D0000114D9E70C2200207C070408C80704083C
:1057E000D4060408F00604081B4B0522002110B55E
:1057F000182013F093FD38220021184829F097F95A
:105800000022174B03F5C0719A60C3E900220C33E4
:105810008B42F9D113490120FFF79EFF12490B205B
:10582000FFF79AFF11490C20FFF796FF01F0FCFCEF
:1058300001230A4C84F8303000F094FB94F83030A7
:10584000837000F093FB02F0F1FE00F001FBBDE875
:105850001040FFF795B800BF38FD0308101C00206A
:105860000C220020C15F0108956B0108816B0108C3
:105870004FF0010C30B5154D00222B46044685B083
:105880000CFA00FC04E00132202A03F10C030ED0D4
:1058900019686145F7D159680029F4D002EB42023A
:1058A00005EB8205A8688847012005B030BD4FF49C
:1058B000D475074902200191064B074A0749029413
:1058C000009502F0EBF9002005B030BD0C2200205D
:1058D00094070408B8070408D4060408F00604086E
:1058E00000B583B00BF0B2F86A460BF06FF9009880
:1058F00003B05DF804FB00BF00B54FF47A7083B0CD
:105900000BF008F900230146CDE90033034A0448AF
:105910000BF000F803B05DF804FB00BFD15501089F
:10592000EC21002000210820FFF7F8BE002109200B
:10593000FFF7F4BE00210A20FFF7F0BE30B583B0B8
:10594000FFF74CFEA0B91E4D04462B78012B11D950
:105950000520FFF7E9FD4EF660200BF0DBF823464B
:105960000146CDE90044174A17480AF0DFFEC8B9DE
:1059700003B030BD0120FFF7D7FD2B784FF47A70CC
:105980000133DBB22B700BF0C5F823460146CDE99D
:1059900000440C4A0C480AF0C9FE0028E8D040F246
:1059A000C22401E040F2CD24084901200191084BB6
:1059B000084A0949009402F071F903B030BD00BFF4
:1059C00070470020355901088C230020A8030408E3
:1059D000440A0408440804086408040810B5FEF7E3
:1059E000EDFFFFF7F7FD802380F83030FFF7F2FD81
:1059F000044600F0B7FA94F830308370BDE81040E8
:105A000000F0B4BA2DE9F0431C4E1D4D1D4C87B07B
:105A1000FFF710F8034604A8002B2CD0FFF74EF830
:105A200048B3DDE904011FF0E7F91EF0D3FE40F2B0
:105A30004F17804689462B46224613490320CDE95D
:105A400002890196009702F029F9104B104A197843
:105A50001D29DDD8DDE904011F7802EBC702C2E988
:105A600000011A780132D2B21A70FEF7E3FF034642
:105A700004A8002BD2D107B0BDE8F0837808040851
:105A8000F40A040844080408640804087147002064
:105A9000481C002010B582B0FFF722FF40F2DD3134
:105AA0002A4A1368C31A8B420FDD294B10601B78FA
:105AB0006BB90120FFF738FD264B1B889BB2B3F56D
:105AC000D25F1BD2FFF78AFD70B902B010BDFEF79E
:105AD00051FF20B902B0BDE81040FEF78DBF02B003
:105AE000BDE81040FFF78EBFFEF744FF50B3FFF74D
:105AF00089FF02B0BDE81040FCF71ABCFFF76EFD4D
:105B00000028DFD04FF4CE741348144A1449154BC3
:105B100001900094032002F0C1F8FEF74FFFFFF759
:105B200059FD802380F83030FFF754FD044600F023
:105B300019FA94F83030837000F018FA0A480AF025
:105B4000B9FEBFE7FEF758FFD3E700BFEC23002004
:105B5000734700200A4700201C0904084408040871
:105B600064080408C40A0408CC23002010B50446C5
:105B700010B3124B1A78112A12D81A781049D3B2DE
:105B8000112A98BFDAB20CD801EBC30C01331AB159
:105B90001CED027B8CED007BDAB2112AF4D900E017
:105BA0000749084B0022D1E922011EF06BFE1FF0CD
:105BB00003F903460120236010BD00BF7147002098
:105BC000481C002000408F4001480AF073BE00BF0F
:105BD000CC23002010B540F22A24144882B0144B84
:105BE000144A154901900094032002F057F86420EC
:105BF0000AF090FF00230146CDE900330F4A104818
:105C00000AF094FD60B140F22F240E490120019169
:105C1000074B084A0849009402F040F802B010BD52
:105C2000FFF7D8FC0123C37602B010BD4409040875
:105C3000880A040844080408640804082D59010867
:105C4000AC230020A80304082DE9F0418AB0FFF737
:105C5000C1FC044640F25125E47E6F4E03206F4B99
:105C60006F4A70490294CDE9005602F017F8FFF729
:105C7000B1FCC47E14B90AB0BDE8F081FFF7AAFCFC
:105C8000B0F82280FFF7A6FC054640F256262D8C80
:105C9000654F624B624A634903200395CDE9017861
:105CA000009601F0FBFFFFF795FC458CFFF792FC97
:105CB000038CAB4236D9FFF78DFC06AE3146808BA4
:105CC00002F0C4FE0546002840F08480FFF782FC05
:105CD00096E80C004FF01D0C243003C804AF04906C
:105CE0008DF814108DF811C08DF8125097E803004C
:105CF00000F0C4FA002840F0818000F013FA002878
:105D000052D0FFF775FC00284ED0002C47D0FFF78B
:105D100061FC438C01334384FFF75CFC838B0133CC
:105D200083833CE040F2822540483D4A3B4B3D495D
:105D300001900095032001F0B1FFAA2306AC0E21CB
:105D400020468DF8183000F0C7F9ADF82600FFF7AF
:105D500041FC94E80C0000261D27243003C88DF870
:105D600014100AA9049011E903008DE803008DF8CE
:105D700011708DF8126004AD95E8030000F0D8F9B9
:105D80000446002833D04FF425752949012001919C
:105D9000224B234A23490294009501F07FFFFFF72D
:105DA00019FF0AB0BDE8F08100F0BCF90446FFF726
:105DB0001FFC40F27D2605461E4A02200192174B29
:105DC000174A184902940096039501F067FF0AB03C
:105DD000BDE8F08140F26D251749032001910F4B7A
:105DE0000F4A10490095002401F058FF85E7134839
:105DF0000AF060FDFFF7EEFBC4763CE740F2672651
:105E00000F4A03200192054B054A064900962C468D
:105E100001F044FF71E700BF68090408600A040844
:105E20004408040864080408FC0F0408D4090408A2
:105E3000E8090408BC090408A4090408AC230020EC
:105E40009009040801480AF035BD00BFAC230020CA
:105E500010B5164984B00820FFF77EFC14490920CC
:105E6000FFF77AFC13490A20FFF776FC1EF0A4F92D
:105E70004FF4FA700AF04EFE00230146CDE90033DC
:105E80000D4A0E480AF052FC08B904B010BD024693
:105E900040F2FA240A49029201910120094B0A4A70
:105EA0000A49009401F0FAFE04B010BD955A0108A9
:105EB000495C01083D590108355901088C2300202F
:105EC000080A04082C0A04084408040864080408A2
:105ED00003461A0A02200B704A7070470088704708
:105EE00060B370B5044616480E4603F043FA092322
:105EF000144A2371226040F262334FF6037240F27B
:105F0000033E41F61F0C0E4DA4F8132003CDC4F838
:105F10000500C4F809102988A4F81530A4F80D105C
:105F20001723224608210848A4F80FE0A4F811C05E
:105F300002F080F90EB11723337070BD704700BFB7
:105F4000F42300200201060B180B040800487047D8
:105F5000072400200B2200212720014B13F0DEB97B
:105F60000724002000487047022400200522002159
:105F70002220014B13F0D2B902240020002101207D
:105F8000FFF7CCBB10B50446FFF724FB037823B121
:105F9000FFF720FB4388A34201D0012010BDFFF78B
:105FA00019FB8388472B09D9FFF714FB8388642BDF
:105FB00004D8FFF70FFBC388072BEED0002010BDDD
:105FC00070B584B003F0D2FC70B90546FFF702FB50
:105FD00004782CB1FFF7FEFA4088FFF7D3FF28B111
:105FE00015B1234B1B7843BB04B070BDFFF7F2FA29
:105FF000D0E90423052A73F1000313D3FFF7EAFA6B
:106000004FF6FF754FF4FA76807807236422482113
:10601000CDE90155009613F013F9E0B92546002D9E
:10602000E2D0DEE7FFF7D6FAD0E90432013342F1DD
:1060300000022546C0E90432F1E74FF47A700AF015
:1060400069FD00230146CDE900330A4A0A480AF0F7
:1060500061FC04B070BD6A25084A0095CDE90120B5
:10606000074B0120074A084901F018FE2546D6E7EC
:10607000744700207D5F010864240020680B040839
:10608000900B0408240B04084C0B040808B50348C3
:106090000AF010FC0022024B1A7008BD6424002094
:1060A0007447002000B54FF47A7083B00AF032FDD7
:1060B00000230146CDE90033044A05480AF036FBC7
:1060C0000122044B1A7003B05DF804FB7D5F0108E8
:1060D000642400207447002091B102464FF6FF70FF
:1060E00010B4094C114412F8013B4340DBB234F8C0
:1060F00013308A4283EA1020F5D15DF8044B7047D3
:106100004FF6FF70704700BFB00B04080122014B2F
:106110001A707047754700200022014B1A707047B3
:1061200075470020014B1878704700BF7547002065
:1061300082B0F0B58FB02B4C0DF1180C8CE8030039
:1061400014A981E80C0023789DF81850BDF8196057
:106150007BB96E24244901910120244B244A25490E
:10616000009401F09BFD01200FB0BDE8F04002B0AB
:106170007047FFF73DFA48B92378002BE9D0FFF7C5
:1061800037FA0028EFD172241B49E4E714981599D7
:10619000169A179B09AC0FC410231848194609AA70
:1061A00002F048F810223146284609AB13F00EF9E8
:1061B000044668B16927124901200191CDE90245E1
:1061C0000A4B0B4A0B490496009701F067FDCAE79A
:1061D000FFF700FAC476FFF7FDF9034620465C7628
:1061E000C2E700BF75470020EC080408B00E0408A1
:1061F000B00D0408C80D0408180E0408D40D0408D6
:10620000E40D040870B582B002AB144603E9030044
:1062100012B9104602B070BD0D239DF800601370D6
:10622000911C5670BDF80100FFF752FE054602357D
:10623000EDB26119BDF80300FFF74AFE432E0CBF13
:10624000802300230544EDB263550135EDB2611999
:106250000020FFF73DFE0146294454FA81F1BDF8C4
:106260000500FFF735FE0E212046FFF735FF04F14C
:106270000E01FFF72DFE102002B070BD30B591B0B9
:1062800006AC84E803002B4904AC097884E80C00D0
:1062900011B9012011B030BDFFF7AAF90028F8D0DC
:1062A0000AA909A813F0D0F820B9DDE90912B2EB68
:1062B000510F31D394E803000BAAFFF7A3FF044664
:1062C000082123461C480BAA01F0B4FF2246BDF862
:1062D00019109DF818000BAB13F078F8044658B16C
:1062E000CE25164901200191154B164A16490294F4
:1062F000009501F0D3FCCCE7C825144A104B0320CD
:106300001149019200950F4A01F0C8FCFFF762F9AC
:10631000034620465C76BDE7BC240D4DCDE9022145
:106320000220074B074A08490195009401F0B6FC8A
:10633000AFE700BF75470020D40D0408740E0408B1
:10634000A00E0408B00D0408C80D04086C0E040863
:106350002C0E04080122014B1A707047764700206A
:106360000022014B1A7070477647002082B070B54A
:1063700092B004AC84E80300DCB2042C15461793F9
:106380002FD0022306269DF85E200DF15F010DF14E
:106390001B00ADF818608DF81A3028F01CFC8DF841
:1063A0001B408DF81C500022344CBDF81B10237884
:1063B0008DF82C60ADF82E108DF82D203BBBEE240F
:1063C0002F4902202F4B304A019100942F4901F0B0
:1063D00065FCFFF70DF920B312B0BDE8704002B0C4
:1063E0007047022305269DF85E200DF15F010DF137
:1063F0001B00ADF818608DF81A3028F0ECFB012D69
:1064000003D08DF81B408DF81C500526CBE7FFF715
:10641000EFF8A8B92378002BD1D0FFF7E9F80028CE
:10642000DAD1F2241A4902200191164B164A174973
:10643000009401F033FC12B0BDE8704002B0704728
:106440000821042313480BAA01F0F4FE0422BDF82E
:1064500011109DF810000BAB12F0B8FF0246002897
:10646000BAD0E7240C49029201910120054B064A5B
:106470000649009401F012FCAEE700BF7647002009
:10648000EC0E0408A8100408C80E0408E00E040866
:10649000180F04080C0F0408740E040882B070B5BD
:1064A0008CB010AC84E80C00002304AD85E8030038
:1064B0000A93CDE908330793CDF82B3002F046F864
:1064C0000224844640F251168DF81E40134BCCF343
:1064D00007248DF820401FFA8CF401930320104B01
:1064E000104A1149009602948DF81FC001F0D6FBA6
:1064F000EC460CAB13E90F00ACE80700190C2CF8C4
:10650000023B8CF80010012295E80300079BFFF77F
:106510002DFF0CB0BDE8704002B070472C0F04088E
:106520008C100408C80E0408E00E040882B02DE99F
:10653000F0418CB012AC84E80C0000229DF8493088
:1065400004AC84E803000A92CDE908220792CDF852
:106550002B20002B00F0CB80062B00F2AB809A1E84
:10656000022A39D89DF84B30012B40F0888013A8BF
:10657000FFF7B4FC9DF849300646042B07462DD1A1
:106580000DF14E00FFF7AAFC9DF849308046012B23
:10659000054627D0042B01D1864227D803954FF416
:1065A000D275994B0095CDE901370320974B984A56
:1065B000984901F073FB9DF8495001F0C7FF00288E
:1065C0003CD06B1E052B39D8DFE813F02D00FA0004
:1065D000D3002D00EE00AE0000273E460025012B23
:1065E000A846DBD19DF84A30002BD7D04FF4CF73AB
:1065F0000093894B02200193854A844B854901F021
:106600004DFBEC460CAB13E90F00ACE807002CF88F
:10661000023B1B0C8CF80030052294E80300079B1A
:10662000FFF7A4FEBAE7464508D801F08FFF86427F
:10663000C0F0D380FEF7CEFF0023038440F2B915EB
:10664000764A02200192714B714A7249009501F01D
:1066500025FBEC460CAB13E90F00ACE80700190C66
:106660002CF8023B8CF80010062294E80300079BEC
:10667000FFF77CFE0CB0BDE8F04102B0704740F27D
:10668000911500956D46664A022001925F4B604A63
:10669000604901F003FB0CAB13E90F0007C5190CAF
:1066A00025F8023B2970092294E80300079BFFF7B5
:1066B0005DFE5CE74FF4C37500956D46594A0220B4
:1066C000524B54490192524A01F0E8FA0CAB13E9DB
:1066D0000F0007C5190C25F8023B2970079B0422FF
:1066E00094E80300FFF742FE9DF8493037E740F297
:1066F0007D1500956D464C4A0220444B4549019258
:10670000434A01F0CBFA0CAB13E90F0007C5190C93
:1067100025F8023B2970079B032294E80300FFF74A
:1067200025FE9DF8493017E701F010FF0546FEF7FA
:1067300051FF013D8583FEF74DFF0546FEF74AFFF9
:10674000AB8BC383FEF746FF01230384FEF742FFB2
:1067500000234384FEF73EFF034694E8030058629B
:1067600083F82810FFF736FA0CB0BDE8F04102B00C
:10677000704701F0EBFE8642BFF45CAF01F0E6FE2D
:106780000546FEF727FF013DC583FEF723FF8683FD
:10679000FEF720FFC58BFEF71DFF868BFEF71AFF65
:1067A0000135AD1B0584D1E7FEF714FF0025858375
:1067B000FEF710FFC583FEF70DFF01230384C5E735
:1067C00001F0C4FE0138864211D8FEF703FFC683EC
:1067D000FEF700FF00238383DAE701F0B7FE0138FC
:1067E000804509D8FEF7F6FEA0F81E80CDE701F03F
:1067F000ADFE461EB6B2E8E701F0A8FE00F1FF3894
:106800001FFA88F8EEE700BFEC0F040874100408C4
:10681000C80E0408E00E0408C40F0408041004089D
:10682000980F04086C0F0408440F0408F0B599B0E1
:1068300004AC84E803000021154612F0FF021E4656
:10684000CDF83910CDF83D10CDF84110CDF84510F8
:106850008DF82610ADF849107ED19DF824702B4696
:1068600032461021594801F0E5FC7B1E8DF8387046
:10687000032B00F28780DFE803F05F4224026B46BF
:106880000BAA07CA03C3160C23F8022B1E7009AD0E
:1068900095E80C0094E80300FFF700FE0125EC46A4
:1068A0000FAB0FCBACE80700190C2CF8023B8CF8AF
:1068B00000102A4694E803000E9BFFF757FD19B01D
:1068C000F0BD002394E803006D461693CDE9143320
:1068D00007908DF820101393CDF85B30FFF7B2FAD4
:1068E00018AB13E90F0007C5180C25F8023B2870F8
:1068F00007A9012203C9139BFFF738FDCEE7002645
:1069000094E803006D4616961496CDF85B601596D4
:10691000139618AB07908DF8201013E90F0007C5E8
:1069200025F8023B1B0C2B7007AF334697E803009A
:106930000122FFF71BFDB1E76B460BAA07CA03C391
:10694000160C23F8022B1E7009AD95E80C0094E894
:106950000300FFF7EBFDA1E71F78012A8DF82470F3
:106960003FF47DAF5B78022A8DF825303FF477AF96
:10697000023AD2B2B11C0DF127008DF8262028F082
:106980002AF96CE740F253210022114D1692CDE90D
:1069900000156D460220CDE914220E4B0E491392CC
:1069A000CDF85B200D4A01F079F918AB13E90F001F
:1069B00007C5190C25F8023B2970022294E8030050
:1069C000139BFFF7D3FC022569E700BF2C100408D6
:1069D0003810040860100408E00E0408C80E04080B
:1069E00038B56022A02304460C4D0270C370211DEF
:1069F0002888FFF76DFA0B22E978AB78E1716979A5
:106A0000A3712172A9792373EB796172A372297A38
:106A10006B7AE1726373E27538BD00BF8424002095
:106A20000122014B1A707047784700200022014B69
:106A30001A7070477847002038B58646084699B3E3
:106A40009EF80030032B0B700ED0062B0CD003F0F9
:106A5000FB03602B08D003219EF801300C464370E5
:106A60009EF80230837001E001210C469EF8173039
:106A700045188BB1002322460EEB030494F803C0A3
:106A8000013300F802C0541C9EF81720DBB29A4272
:106A9000E4B2F0D821460519FFF71EFB2946FFF79F
:106AA00017FA2044C0B238BD0D460C46F4E700BFCB
:106AB00082B030B58FB004AC84E8030007A912A8F7
:106AC000C0E90023FFF7B8FF0446254D23460821FF
:106AD000244807AA01F0AEFB2B788BB9E0242249A9
:106AE0000220224B224A01910094224901F0D6F85B
:106AF000FEF77EFD70B10FB0BDE8304002B07047C8
:106B0000FEF776FDA8B92B78002BE7D0FEF770FDD5
:106B10000028F0D1E424184902200191134B144AB3
:106B20001449009401F0BAF80FB0BDE8304002B04B
:106B300070472246BDF811109DF8100007AB12F007
:106B400045FC02460028D6D0D9240C490292019176
:106B50000220064B064A0749009401F09FF8CAE755
:106B600078470020BC100408EC10040890120408B8
:106B7000C8100408E010040808110408740E040882
:106B800008B5FEF72BFFFFF71FF8BDE8084002F03D
:106B900077B900BF10B5C0B2FBF726FD01F0B0FC1D
:106BA000FEF718FD002380F83030FEF713FD044691
:106BB000FFF7D8F994F830308370BDE81040FFF744
:106BC000D5B900BF2DE9F04F4FF406758FB0334CA7
:106BD0000DF1200888E8030006A981E80C000320D5
:106BE0002F49304B304A01940095189C01F056F81B
:106BF00001230025237002F0E3FADFF8B0B0DFF8DC
:106C0000A4A0DFF8A4900BAE04F10807E57501E03D
:106C10000F2D32D031460AAAE8B202F0AFFA20496D
:106C200058B340F2232C0A9A5346CDE903620295E9
:106C30004A460320CDF804B0CDF800C001F02EF88C
:106C4000E37D0A9A2344C3F80320E37D013504332E
:106C5000DBB20F2BE375DBD9EC4638687968BA688C
:106C6000FB68ACE80F006368226898E80300FFF750
:106C70001FFF00230F2DE375CCD16D4602F098FA6B
:106C8000A0687968BA68FB680FC52268636898E8ED
:106C90000300FFF70DFF0FB0BDE8F08F501104089F
:106CA000E01004089C120408C81004086C110408C1
:106CB0002DE9F04389B004AC84E80C0008AB03E98B
:106CC0000300DDF81200109E0130FFF707F90446BB
:106CD000FFF748F9A0F80340FFF748F907EE904A9C
:106CE0009FED277AF8EE676AC6EE877A254D17EE94
:106CF000900AC5ED007A1DF06DFD41EC100B1CF003
:106D000097FC28681DF066FD40F24D2580468946B7
:106D1000009540F24E251C4B03201C4A1C49019350
:106D2000CDE902891B4B00F0B9FF1B4A0320CDE9D6
:106D30000124184B154A1649009500F0AFFF24B9FD
:106D40000323B37009B0BDE8F08340F25727012553
:106D5000124A104B0E49019203200C4A009700F092
:106D60009DFFB570FEF736FC80F83250FFF7FAF859
:106D7000A0F8034009B0BDE8F043FFF7F7B800BF43
:106D800000007A448044002088110408C8100408D8
:106D9000E010040874120408A4110408BC110408CB
:106DA000F0B589B00DF1100C8CE80C0008AB03E9CC
:106DB00003009DF81130DDF812C0102B07D89CF8A5
:106DC0000030FA2B2BD0FE2B22D0042B04D003232F
:106DD0000E9A937009B0F0BD012200230E991D4C4C
:106DE0008A709CF801209CF8021022709CF8032005
:106DF0000CF104006170A270E370FFF76FF80346B6
:106E00000C212046A380FFF767F9A08109B0F0BDEF
:106E100002F082FA01230E9A937009B0F0BD0124AA
:106E20009CF805509CF80660BCF800009CF8021025
:106E30009CF803209CF804309CF807E09CF808704C
:106E4000CDE900560E9DCDE902E7AC7000F086F961
:106E500009B0F0BD5C2C0020F0B58FB004AD85E822
:106E60000300114611F0FF061A4621D1FF2740F218
:106E70008B340B46A648082101F0DCF9A54BA64A45
:106E800001930320A54BA6490297009400F006FF4A
:106E90004FF61C7202238DF83760ADF820208DF874
:106EA0002230FEF729FD012308AC8DF822303DE0A9
:106EB000012E1C7800F0F880013EF6B25F1C0B46F4
:106EC0009348082101F0B6F940F28B3C914B924A6D
:106ED000CDE901340320914B9149CDF800C000F079
:106EE000DDFE1C2302228DF820300023642C8DF857
:106EF00021408DF822208DF837302CD8602C22D8F4
:106F0000043CE3B2192B10D8192C0ED8DFE804F09A
:106F10006D0D0D0D0D0D0D0D0D0D0D0D0D0D0D0D41
:106F20000D0D0D0D0D0D9E950DB708AC0EAB13E9B3
:106F30000F008DE80F0094E80C0095E80300FFF7C0
:106F4000B7FD0FB0F0BD623C022C00F2D080DFE84C
:106F500004F022182D00FE2C00F0A980FF2CA0D0F8
:106F6000FD2CE2D18DF8184008AC8DF81960009422
:106F7000CDF81A7006AB0CCB95E80300FFF722FEA4
:106F8000D4E7FEF72BFB002800F09E80042308AC1A
:106F90008DF82230CAE7042E00F281803B78A02BC6
:106FA0007DD108AC2046FFF71BFDBFE7002640F26D
:106FB000AB2706A80696FEF7D9FD069B564A029314
:106FC000584B574901930320574B009700F066FE3A
:106FD00004220123069908ACCDF8231053498DF8FB
:106FE00037200E708DF82230A0E701264F4B38462F
:106FF0001E70FEF773FF07EE900ADFED4D6AF8EEA4
:10700000677A87EEA67A4B4A4B4B17EE100A83ED50
:10701000007A16801DF0DEFB40F24D13474ACDE9A1
:107020000201009301920320454B3B4A3C4900F08A
:1070300035FE08AC8DF8206078E7012300210C2094
:1070400008AC8DF82030FEF769FB6FE7FEF7C6FA53
:10705000064600289AD14FF4E3773A4A032001927A
:10706000394B2D4A2E49009700F018FE0123314676
:107070000B2008AC8DF82230FEF750FB56E71D229E
:1070800008AC8DF819600094CDF81A7006AB95E83D
:1070900003008DF818200CCBFFF70AFE46E7032308
:1070A00008AC8DF8223041E700273E4607E7082369
:1070B0002649274A09681268CDF82310CDF8272001
:1070C00008AC8DF8373031E74FF42676214A03209B
:1070D0000192214B104A1249009600F0DFFD012178
:1070E0000B2008AC8DF82210FEF718FB1EE761227A
:1070F00008AC8DF819600094CDF81A7095E803007B
:107100008DF81820079B069AFFF74AFE0EE700BF8E
:107110000812040814120408C81004082C120408E9
:10712000E0100408F011040840120408774700201A
:107130000000C84256470020844400202011040863
:10714000D812040830110408BC120408B42000202E
:10715000B0200020D41104085C1204082DE9F04F7F
:107160008BB09DF85040894690461E469DF858A029
:1071700007469DF854B00994FEF7E8FE0023254D1C
:1071800080F807A02B60AB80099B05F8029CAB70D0
:1071900005F8018C25F8047C6E7085F803B0FEF7C5
:1071A000D5FE35F8043C0380FEF7D0FE15F8023C0E
:1071B0008370FEF7CBFE15F8013CC370FEF7C6FEE8
:1071C0006B780371FEF7C2FEAB784371FEF7BEFE2B
:1071D000EB788371FEF7BEFE4B21EA7835F8043C6C
:1071E0000792AA78029306926A780B4B0592019354
:1071F00015F8012C15F8024C85F804A00320049220
:107200000091064B064A0749039400F047FD0BB076
:10721000BDE8F08F882400202813040858130408C0
:10722000041304081C13040870B54FF4FA62002616
:10723000EC23144D25F8022C6E602E60AB71FEF726
:1072400085FEAB79AC1EC371FEF780FE35F8023CBB
:107250000380FEF77BFEA3788370FEF777FE6B78E2
:10726000C370FEF773FEEB780371FEF76FFE2B79A8
:107270004371FEF76BFE6B798371FEF76BFE304650
:1072800070BD00BF8624002010B5184C84B0A44601
:1072900001AB83E8070093E80700ACE80300ACF813
:1072A0000020FEF753FE237AC371FEF74FFE2388BA
:1072B0000380FEF74BFEA3788370FEF747FEE3786A
:1072C000C370FEF743FE63790371FEF73FFEA379B7
:1072D0004371FEF73BFEE3798371FEF737FE237AB5
:1072E000C37104B0BDE81040FEF734BE8424002012
:1072F00030B50D461446014683B02022164827F0CB
:1073000030FC20222946154827F02BFC214620225C
:10731000134827F026FC134C1348144B14492060E3
:107320001B1A144A1448521A144C01601449236061
:107330000A6023B10122134B1A7003B030BDAA2496
:10734000114901200191114B114A1249009400F09A
:10735000A5FC03B030BD00BF08260020E4250020B6
:10736000C0250020BC25002000000020C00A00200D
:1073700000200108A8730408B4250020B8250020C7
:10738000B02500207A470020A01304087C1C0408C4
:10739000781304089C1304082DE9F047314D324C52
:1073A000324B95F80080074624681B68B8F1000F3F
:1073B00012D02F482F4D0668D5E9050501388642C1
:1073C0003D6043D82C4D2D682E4486423ED3012982
:1073D0003CD97860022000E0404604EB030C624593
:1073E00029D2234B244C1B68266803F1040E1E444B
:1073F0001368DC071CD55C1EA64519D8A64217D316
:107400001F2815D833F8035C33F8059C1B4B05EA9D
:10741000030ABAF5784F10D005F47F45B5F58E4FC5
:1074200006D1814204D9022814D047F82040013007
:1074300004326245DCD3BDE8F08709EA0309B9F5F7
:10744000704FEED004326245D2D3F4E74FF000081B
:107450000120C2E7B8F1000FE7D07B68A342E4D176
:10746000E6E700BF79470020BC250020B8250020B2
:10747000B4250020381D0020B025002000F8FFFFB3
:107480002DE9F0470446A6B00021802206A827F087
:107490004EFB2246202106A8FFF77EFF58B3DFF8F7
:1074A00090A0814654460E4606ADDFF8888005EB75
:1074B000800755F8042B204641461EF069FCBD426A
:1074C00004F1090404F8016CF3D14FF4CF741148AE
:1074D000114A124909EBC903CDE90220CDE9043A6A
:1074E000019101200E4B0F4A0F49009400F0D6FB8A
:1074F00026B0BDE8F08740F2A1140C4901200191AB
:10750000074B084A0849009400F0C8FB26B0BDE8C4
:10751000F08700BF4C140408082600205414040807
:107520004C1C0408781304089C13040894140408E1
:1075300090240020441404082DE9F047994B8AB0A8
:107540001B78002B00F01E81974E3378002B40F003
:107550000A810127044640F26D20944B0D460193A9
:10756000934A3770934B94490090384600F096FB4D
:10757000B5224FF42076914B38460493904B8E49B8
:107580000393904B009202938F4B894A01938F4B48
:1075900000F084FB8E4B38460096854A864901935D
:1075A000844B00F07BFB40F29E2C8A4AE4064FF0AD
:1075B0000100804B80490192CDF800C07C4A4CBF4D
:1075C00005F1200605F1680600F068FB40F2A92CE1
:1075D000814CD5F810E029686868AB68EA68D5F88E
:1075E00014A0DFF82892C4F810E0DFF82482D5F860
:1075F00018E0ED6921606060A360E260C4F814A047
:10760000764FCDE90490CDE90281C4E906E57449DD
:107610000793744BCDF800C0012009920693644A89
:10762000644B08910197644900F038FB40F2AD22A9
:1076300040F2B125E169019709916B490120089158
:10764000A1695C4B07916949069161690591684997
:1076500004912169009203916649554A0291564965
:1076600000F01CFB644A0120524B534901920095E3
:107670004F4A00F013FB4FF0E022D2F8241D5F4B7D
:10768000216293F8281084F82410D2F8341DA162E6
:1076900093F8291084F82C10D2F8381D588D2163E6
:1076A000D2F82C1DA0861A8E9B8F92B29BB28807AF
:1076B000C4E90E12236400F1C88094F83B305906E7
:1076C00049D594F824308BB1DA0700F140819F0747
:1076D00000F142821D0700F13182D80600F1E981F4
:1076E000990600F1D8811A0600F1CC8094F82C306C
:1076F000A3B1DD0700F11D81980700F10C81590746
:1077000000F1BB811A0700F1AA81DF0600F199811F
:107710009D0600F18881180600F1A380A38EC3B1F5
:1077200094F83430DA0700F170819F0700F15F812F
:107730005D0700F14E81180700F13D81D90600F187
:107740002E8194F83530DA0700F11B819B0700F198
:107750000C8194F83B301F065CD430460AB0BDE87B
:10776000F047FFF78DBE40F26924254A2549114BA9
:107770000191CDE9022301200D4A0F49009400F048
:107780008DFAFEE740F267241F4A1E49094B01911A
:10779000CDE902230120064A0749009400F07EFA51
:1077A000FEE700BF7A47002079470020FCFA030873
:1077B00078130408381C04089C130408C025002012
:1077C000E42500200826002004140408601C040896
:1077D000E81404081C150408381D00206C15040862
:1077E0005C15040860150408981504089C15040825
:1077F000A0150408A4150408A815040800ED00E06D
:10780000DC140408BC140408B41404086415040847
:1078100068150408E36B002B9FD094F83C30DD071B
:1078200041D4980769D4590759D41A0749D4DB06BB
:1078300093D540F24624A64A01200192A54BA64AC0
:10784000A649009400F02AFA87E74FF4EE75A44A9F
:10785000012001929F4BA04AA049009500F01EFA1A
:107860002BE799077FF55AAF40F21625226B9D4B07
:107870000120CDE901329949964B974A009500F0D5
:107880000DFA4BE79F073FF431AF40F2F715A26ABC
:10789000954B0120CDE9013290498E4B8E4A0095DF
:1078A00000F0FCF922E740F23A25904A894B019218
:1078B0000120894A8949009500F0F0F994F83C309C
:1078C000AFE740F243258A4A824B01920120824A67
:1078D0008249009500F0E2F994F83C30A7E74FF4B4
:1078E0001075844A7B4B019201207B4A7B490095AD
:1078F00000F0D4F994F83C3097E740F23D257E4AF9
:10790000744B01920120744A7449009500F0C6F945
:1079100094F83C3087E740F20125784A6D4B01929C
:1079200001206D4A6D49009500F0B8F994F82C30AB
:10793000E5E64FF4FF75724A664B01920120664AF4
:107940006649009500F0AAF994F82C30D4E64FF47B
:10795000F1756C4A5F4B019201205F4A5F490095C7
:1079600000F09CF994F82430B1E640F23225664AE2
:1079700001200192574B584A5849009500F08EF962
:10798000E7E640F22F25614A524B01920120524A0C
:107990005249009500F082F994F83530D6E640F26D
:1079A0002B255B4A012001924A4B4B4A4B490095DB
:1079B00000F074F9C5E640F22725564A454B01927E
:1079C0000120454A4549009500F068F994F83430A3
:1079D000B4E64FF40975504A3E4B019201203E4AED
:1079E0003E49009500F05AF994F83430A3E640F28D
:1079F00021254A4A374B01920120374A37490095E1
:107A000000F04CF994F8343092E640F21E25444AD6
:107A1000304B01920120304A3049009500F03EF988
:107A200094F8343081E64FF404753E4A294B0192B4
:107A30000120294A2949009500F030F994F82C30AA
:107A400069E640F20A25384A224B01920120224A77
:107A50002249009500F022F994F82C3058E640F2C3
:107A60000725324A1B4B019201201B4A1B490095F6
:107A700000F014F994F82C3047E64FF401752C4AC5
:107A8000144B01920120144A1449009500F006F9A4
:107A900094F82C3036E640F2F115264A0D4B01924F
:107AA00001200D4A0D49009500F0F8F894F82430B3
:107AB00019E640F2EB15204A064B01920120064AD6
:107AC0000649009500F0EAF894F8243008E600BF73
:107AD000F81B0408281C0408781304089C130408E5
