:020000040801F1
:10200000C00A0020FD9701080D420108296003085D
:1020100011F40108AD4201084D430108F997010888
:10202000F9970108F9970108F9970108F99701084C
:10203000F99701087803040889440108F997010811
:10204000F9970108F9970108F9970108F99701082C
:10205000F9970108F9970108F9970108F99701081C
:10206000F9970108F9970108F9970108F99701080C
:10207000F9970108F9970108F9970108450802083E
:10208000F9970108F9970108F9970108F9970108EC
:10209000F9970108F9970108F9970108F9970108DC
:1020A000F9970108F9970108819D0108F99701083E
:1020B000F9970108F9970108259F0108019F010878
:1020C000F9970108F997010821230308F9970108F6
:1020D000612D0308A1C303089DC30308512503080C
:1020E000ADC30308A5C30308392D0308A9C303081A
:1020F000A12D030871070308112E030835090308F1
:10210000F997010849410108F9970108F997010871
:10211000F9970108F9970108F9970108F99701085B
:10212000F9970108F9970108F9970108F99701084B
:10213000F9970108F9970108F9970108F99701083B
:10214000F9970108F9970108F997010800000000C4
:10215000013800D0FCE770472DE9F04310249BB014
:1021600001200EF0C3FBDFF858914D4B4D4E1093FC
:10217000042210A9DFF85081C9F8A040306808F0A7
:10218000A3FB01200EF0B2FB0120C8F8A0400EF026
:10219000ADFB42F2070310AAADF81C3007A90523D6
:1021A000C9F8A040306808F043FB40F23D133E4DB3
:1021B000C8F8A04000932B883C4F01339BB2029398
:1021C0002B803B8803200393394B3A4A01933A49C9
:1021D0003A4BBDF8424005F041FA2B88132B1FD033
:1021E00007D914232B803B8801339BB2022B1AD8CA
:1021F0003B80102401200EF079FB314B314A10A9AD
:1022000010923068C3F8A040042208F05DFB012062
:102210000EF06CFB2C4BC3F8A0401BB0BDE8F08364
:102220002A4B1C80E5E70325284B3D80B3F800804E
:10223000A4EB080020F0B6FF00224FF07C5321F001
:102240001BF84FF03332224B21F016F80022214BBD
:1022500021F012F810A3D3E9002321F037F9024648
:102260000B462846CDE902481D4614464FF4AA7194
:10227000194B00910193CDE904450E4A0E490F4BCD
:10228000CDE9104505F0EAF9012210A9134806F03E
:102290003BFEAEE7AFF30080034356B77ACEF13F83
:1022A00005800100040C0020FC420020FA420020BE
:1022B00034E1030870E0030888E0030878E20308CB
:1022C00000E003500480010000D00350F8420020D9
:1022D0003333F33F000059406CE10308F020002045
:1022E000114B1A78598862B94FF0010C9FED0C7BA5
:1022F000C3E9022283ED047B5A605880A3F800C032
:102300007047814200D0704700229FED057B01207D
:1023100083ED047BC3E901221880DA60704700BFB7
:102320000000000000000000801B002000000000F2
:102330002DE9F04F9A488FB00AF0FCFE994B1A78BD
:10234000B32A02D8B4210A461970974F3B789342BA
:1023500005D20133DBB23B700FB0BDE8F08FDFF880
:102360007892B9F800300893B3F5D25F8F4B07939A
:1023700008D30021079BF0228D4819702AF037FA04
:102380000123E8E71E78112E13D8894B03EBC6030F
:10239000002E40F0F58003F10802012352E902010A
:1023A0000133DBB2122BE2E80201F7D1002E00F07C
:1023B000A680DFF8FC814FF0000AC3460024002508
:1023C000FBE802232046294620F0A0FD0AF1010A7D
:1023D0005FFA8AF3B34204460D46F1D36EA3D3E904
:1023E000002321F0004121F0D7F9002800F08F8070
:1023F000002E00F08480304620F0C4FE02460B46DA
:102400002046294621F062F86A4B002220F034FF72
:1024100021F0CCF9684B1FFA80FBA3F800B0CDF88F
:1024200024B04FF0000A00240025F8E802232046DB
:10243000294620F06BFD0AF1010A5FFA8AF39E42F9
:1024400004460D46F1D854A3D3E9002321F00041FE
:1024500021F0A2F9002850D03046002E4DD020F0B7
:1024600091FE02460B462046294621F02FF8002215
:10247000524B20F001FF21F099F982B21046F32669
:102480008325099B4E49CDE90303089B0320029352
:10249000ADF833304B4BADF8312001934A4A4B4BEA
:1024A0000CAC0096ADF835B08DF8305005F0D6F88C
:1024B000204606F09DF803F015FC18B102F0C4FEAA
:1024C000002843D103F00EFC002833D002F0BCFEFC
:1024D00020B302F0ABFEB9F80030C38502F0A6FECF
:1024E000C48D03F01FFB0134048003F01FFBB9F817
:1024F00000300133A9F800303BE70246BFE72E4B1E
:102500001E80002318469B461A460993B7E72A4BBC
:102510001880002EF5D08346099082E740F211140E
:102520002B4B02200193284A284B2549009405F0A3
:1025300095F8CEE740F20D14264B02200193224A73
:10254000224B1F49009405F089F8BFE702F06EFEA8
:102550000025857602F06AFE0378002BB9D002F0E0
:1025600065FE1D238DF8293043888DF82A508DF89B
:1025700028300AA994E80C0003C903F05FFCA8E71F
:102580001A4653E90201731CDBB2122BE2E8020186
:102590007FF404AF0DE700BF1656E79EAF03D23CB1
:1025A0000080015A720F00205C4300205B43002032
:1025B000B81B002000005940FE42002000002440CB
:1025C000A8E50308F0E5030888E5030800E8030828
:1025D00028E603080CE60308004300200000000082
:1025E000C0290AD0F0B5B1F5807F04469FB00FD066
:1025F000802904D029201FB0F0BD0F2070472498F7
:10260000002848D024984FF486650A90012006E0FF
:10261000249800284DD00A9040F2344501200B90B8
:102620000195212010250C950D9025980E900AA853
:10263000102501269FED247B4FF0210EDFF898C076
:102640000F9012A810951196129213961495CDF82A
:1026500054E0CDF808C003908DED047B9FED1C7B0A
:1026600001AF069307908DED087B16973BB306AA42
:102670001792042740F611021126CB0816AD0EA9B9
:102680001AA8189719961A941B951C931D920BF073
:10269000A7FD1FB0F0BD0A904FF4826501200B909A
:1026A0000195212010250C950D9025980E90012064
:1026B000BEE7249840F214450A900120EFE702AAF1
:1026C000D6E700BFAFF30080100000101128000013
:1026D0001000000011280000F806040800000000A7
:1026E0002DE9F04F2DED028B934608241E4602463D
:1026F000A9B0DDF8D0A0DDF8D490CDE906014140C5
:1027000021FA04F34B40980704F1080418BF9B001A
:10271000202C1A44F4D1BC4BA3FB0213DB0803EBBF
:10272000C313D21AB94B02F506271B7807F5506779
:10273000002B00F0B780B64C8123049323464FF062
:1027400000083C46CDF80CB00593A4F50625059A83
:10275000A5F550635B0952F8232004F01F00C24026
:10276000D20718D4AB4A52F82330C340DB0700F13C
:102770008780DDF80CB02746BBF1000F6FD0B8F1B1
:10278000000F18BF47460020369B1F6029B0BDECE4
:10279000028BBDE8F08FBAF1000F02D00023CAF817
:1027A0000030B9F1000F02D00023C9F80030102723
:1027B000DFF87CB20023DBF80000324621460097A8
:1027C00019F0FAFC034600284CD1BAF1000F00F0D2
:1027D000F2801023CAF8003003F1BC43326803F5DD
:1027E000BA1303F5E8539A4240F0EA80B9F1000FBA
:1027F00011D04B462146DBF8000018AA19F030FD35
:102800000346002840F0E580D9F80030DAF80020CF
:102810009B1AC9F80030D6E90223DDE9061083428D
:1028200008BF8A4200F0DD80774BA5F6FF45A3FB89
:102830000523DB0803EBC313ED1A05F5062404F5A5
:102840005064049B013B04937FF47FAFDDF80CB030
:10285000BBF1000F03D04746B8F1000F93D16FF0E2
:102860008B0093E76C4A904200F0AA8012329042AB
:1028700000F0A680694A9342CDD06FF0910085E7C1
:10288000614BA5F6FF42A3FB0213DB0803EBC31366
:10289000D21AB8F1000F08BFA04602F5062404F5CD
:1028A0005064CEE707F050FB04460028E5D19FEDC9
:1028B000548B0146402208A829F099FF2146402266
:1028C00018A829F094FFCDE9037B554DDFF860810E
:1028D0004F4C0596CDF8D0A02F4607F10F06D8F83B
:1028E000000010223B4608A90096103528F0CFFEC4
:1028F000F8B108AB9E464FF0010BDFF818C103EBAF
:10290000800A5EF8042BA2F50623A3F550635B0949
:1029100054F8231002F01F020BFA02F2114344F89C
:1029200023105CF82310D64521EA02014CF823104D
:10293000E7D100963B461022D8F8000018A928F0ED
:10294000AFFE60B318AB1A4603EB8000D4E9001366
:1029500003EB010EA16823698E44E16801268E44D1
:102960000EEB0301A646DFF8ACC052F8043BA3F51A
:102970000627A7F550677F095CF8274003F01F037F
:1029800006FA03F323434CF8273029B98CED008B6A
:102990008CED028BCCF810109042E6D17446214B9E
:1029A0009D4299D10123DDE9037B184A059EDDF89C
:1029B000D0A01370C0E61C4B32689A423FF42BAF94
:1029C0002146DBF8000019F08FFC00283FF423AF0C
:1029D00045E7114A9042F3D0144A90427FF44AAF3F
:1029E000EEE7DDF80CB02746BBF1000F3FF4CBAEAD
:1029F0007368012B7FF4C7AE6FF08400C6E600BF9A
:102A00000000000000000000813FE00F7143002043
:102A100070360020401D0020FFDF00F0FEDF00F0D8
:102A2000006D080000710800105D175E11E000F0F5
:102A3000800C002000000000002370B5404C0546CB
:102A40008AB0E36318B10088236013F09DFD3D4810
:102A500028F0F1FF3C4E3D4B304633603C4B7360F9
:102A600025F004FF0021304619F048FE32A3D3E9D7
:102A70000023A062C4E9062325F003FFD4E906235E
:102A800019431043C4E90601CDE900014FF0FF33BB
:102A90004FF0FF32A06A29F049F802224FF0FF31CF
:102AA000A06A29F048F8012013F0F0FA4FF40073FF
:102AB00000222849A06A29F091F8B0F5007F38D1AA
:102AC00000239422CDE9073309933C23CDE9033257
:102AD00005939623A06A03A9069319F02DFF35B339
:102AE000287C13F0CFFE0546F0B9A06A29F057F90B
:102AF00013F076FE13F0ACFA20B14FF48070002191
:102B000011F02CFB13F0B4FA20B14FF40060002157
:102B100011F024FB25F077FF012019F043FE0E4A47
:102B20000E49A06A25F0A0FE28460AB070BDFF201D
:102B3000D7E70725F8E700BF0DD5015520000000B5
:102B4000781D0020690345ECC83B0020115F020896
:102B5000D83B0020C8390020118803085188030899
:102B60002DE9F04FC76997B08346209E08910C92DB
:102B7000129355EC104B8DED000B7FB9102021F016
:102B80004DF80246CBF81C0020B9A74BEF21A7480F
:102B900021F00CF8C0E901770760C760DBF81C3052
:102BA000196859B15A680123584693404A608B60AE
:102BB00021F028FFDBF81C3000221A602B1EB7BF63
:102BC00023F00043002301220193A8BF3360019F3B
:102BD000974BB8BF3260BB4319D142F20F73129AC0
:102BE0001360C7F31303234300F0DB85219B53B924
:102BF000904B21E0904B03930833219A1360039884
:102C000017B0BDE8F08F8B4B03930333F5E79DEDD1
:102C1000007B0022002351EC170B8DED0A7B20F086
:102C200093FD804650B10123129A1360219B13B18A
:102C3000824B219A1360824B0393E0E7C7F30A5655
:102C400014AA15A958469DED0A0B22F063F90290CB
:102C5000002E76D00B9BA6F2FF36CDF84C80C3F346
:102C6000130343F07F53DDE90A0143F4401319468F
:102C70000022744B20F048F965A3D3E9002320F02B
:102C8000FBFA65A3D3E9002320F040F904460D4682
:102C9000304620F087FA62A3D3E9002320F0ECFA53
:102CA00002460B462046294620F030F904460D46E0
:102CB00023F092F90022074600232046294620F0FF
:102CC0004DFD40B1384620F06DFA22462B4620F0EB
:102CD0003BFD00B9013F162F52D85B4B03EBC703F6
:102CE000DDE90A01D3E9002320F038FD002849D0AE
:102CF000013F00231193149B9B1B5A1E4CBFC3F131
:102D000001030023079245BF069300230693079310
:102D1000002F39DB079B10973B440793002309934F
:102D2000089B092B66D8052BC5BF043B0024012452
:102D30000893089B023B032B67D8DFE803F02D3A8A
:102D40003859DDE914631E4406F23243202BC9BF13
:102D5000C3F14003C3F120039F4006F21243D8BFE2
:102D600004FA03F006F1FF36C4BF24FA03F347EA7E
:102D7000030020F007FA0122A1F1F873139276E71D
:102D80000123B7E71190B6E7069BDB1B06937B4256
:102D9000099300231093C3E700230D930C9B002B92
:102DA00056DC012399461A4604930C920CE0012349
:102DB000F3E700230D930C9BFB1803F10109049327
:102DC0004B46012BB8BF0123DBF81C000021042275
:102DD00002F114059D423FD94160584621F0D2FDD1
:102DE000039000283BD1194B024640F2AF11CEE6CA
:102DF0000123DFE7012400230D9408934FF0FF33F4
:102E00000022994604931223CFE701230D93F5E79F
:102E100061436F63A787D23FB3C8608B288AC63FE0
:102E2000FB799F501344D33FF74904080E4A040826
:102E30000000F07FF3490408EA490408C749040880
:102E4000C64904080000F83F084B0408674A040814
:102E50000C9B99460493B7E701315200B8E7DBF8C1
:102E60001C30B9F10E0F039A1A606FD8002C6DD088
:102E7000002F36DD07F00F02A04BF8054FEA2714AC
:102E800003EBC20393ED007B8DED0E7B17D59C4BBE
:102E900004F00F044FF00308D3E90823DDE90A0129
:102EA00020F014FBCDE90001954D5CB9DDE90E235E
:102EB000DDE9000120F00AFBCDE900012BE04FF035
:102EC0000208F1E7E10709D508F10108DDE90E0183
:102ED000D5E9002320F0D0F9CDE90E0164100835C2
:102EE000E3E700F007817C42844B854D4FF00208F8
:102EF00004F00F02241103EBC203DDE90A01D3E958
:102F0000002320F0B9F90023CDE90001002C40F0A6
:102F1000E580002BD0D1119BDDE90045002B00F0AE
:102F20004C810022774B2046294620F017FC0028D0
:102F300000F04381B9F1000F00F03F81049B002BAA
:102F400000F3E480DDE90A34CDE90034159B002B61
:102F500002DB0E2F40F342820D9A002A40F0678276
:102F6000099C0025DDF81880B8F1000F0DD0079BF3
:102F7000002B0ADD4345069AA8BF4346D21AA8EBA8
:102F800003080692079AD31A0793099B0BB30D9B6C
:102F9000002B00F0A682002C00F0A18229462246D8
:102FA000584621F059FE029A01460546584621F03E
:102FB000A9FD02990646584621F024FD099B1B1BDA
:102FC000099300F09182099A3146584621F044FE57
:102FD00002900121584621F07FFD109B0446002BF2
:102FE00000F084821A460146584621F035FE089BBF
:102FF0000446012B03DC009B002B00F07C820026A2
:10300000236904EB8303186929F0EEFCC0F120006A
:103010001096079B184410F01F0000F09182C0F139
:103020002003042B40F38182C0F11C00069B034463
:1030300080440693079B03440793069B002B05DD02
:103040001A460299584621F061FE0290079B002B18
:1030500005DD21461A46584621F058FE0446119BCC
:10306000002B00F076822146029829F00CFD002802
:1030700080F26F8200230A220299584621F0E4FC74
:103080000D9B7E1E0290002B00F05C8200232946DF
:103090000A22584621F0D8FC049B0546002B03DC8D
:1030A000089B022B00F35E82B8F1000F05DD294674
:1030B0004246584621F02AFE0546109B002B00F0A0
:1030C000D0826968584621F05DFC0746002840F030
:1030D0007F820D4B024640F2EF2158E5E20706D50C
:1030E00008F10108D5E9002320F0C6F80123641097
:1030F00008350BE74FF002080DE700BF084B040846
:10310000E04A04080000F03F674A04082046002215
:10311000AC4B294620F0B0F87E1E08F10108049C53
:10312000CDE90001404620F03DF8DDE9002320F024
:10313000A3F8A54B00221FF0E9FEA1F15073CDE9E1
:103140000E010F93002C3BD10022A04BDDE90001C2
:103150001FF0DAFE02460B46CDE90023DDE90E231F
:1031600020F01AFB002840F05781DDE90E2101F123
:103170000043DDE9000120F0F1FA00283FF4E2AE5F
:10318000002425460C9BDDF80CA0DE434FF0000820
:103190002146584621F036FC002D00F0A980B8F1F8
:1031A000000F05D0A84503D04146584621F02AFC1F
:1031B0002946584621F026FC9AE03E464C46B1E7A7
:1031C000834B03EBC40353E90201039B1C440D9B97
:1031D000002B4AD002460B4600207E4920F076F9AB
:1031E000DDE90E231FF090FEDDF80CA0CDE90E0105
:1031F000DDE9000122F0F0FE05461FF0D3FF024694
:1032000030350B46DDE900011FF07EFE0AF8015B58
:1032100002460B46CDE90001DDE90E0120F0BCFAC3
:10322000002865D100206C49DDE900231FF06CFE09
:1032300002460B46DDE90E0120F0AEFA002840F010
:103240000D81A24500F0EA8000225E4BDDE90E010F
:1032500020F012F800225B4BCDE90E01DDE9000100
:1032600020F00AF8CDE90001C2E7DDE90E2320F0E5
:1032700003F8A046DDF80CA0CDE90E01DDE9000160
:1032800022F0AAFE05461FF08DFF024630350B46A0
:10329000DDE900011FF038FE0AF8015B02460B462B
:1032A000A245CDE900234FF0000223D1494BDDE9CF
:1032B0000E011FF02BFE02460B46DDE9000120F057
:1032C0006BFA002840F0CA8000204249DDE90E2355
:1032D0001FF01AFE02460B46DDE9000120F03EFA1F
:1032E00070B1C24608F1FF381AF8013C302BF8D013
:1032F000374655E0334B1FF0BFFFCDE90001BDE776
:10330000DDE90A34CDE90034159B002BFFF628AE29
:103310000E2F3FF725AE2E4B03EBC70393ED007B3B
:103320000C9B002B8DED047B02DAB9F1000F64D009
:10333000DDF80CA0DDE90045DDE90423204629463F
:1033400020F0C4F822F048FE06461FF02BFFDDE90E
:1033500004231FF091FF0246204606F130040B467D
:1033600029461FF0D1FD0AF8014B039C02460B468B
:10337000AAEB0404A14540F082801FF0C7FD04467B
:103380000D46DDE9042320F007FA002865D1204628
:103390002946DDE9042320F0D7F908B1F3075CD40E
:1033A0000299584621F02EFB002301378AF800309D
:1033B000129B1F60219B002B3FF421ACC3F800A09F
:1033C0001DE400BF0000244000001C400000144029
:1033D000084B04080000E03F0000F03FA24B03EB65
:1033E000C70393ED007B0C9B002B8DED047B9FDAD4
:1033F000B9F1000F9CDC7FF4C3AE00229B4BDDE9EA
:1034000004011FF039FFDDE9002320F0BBF9044679
:1034100000287FF4B5AE3E462546B4E0DDE90A3427
:10342000CDE90034159B002B01DB0E2FD6DD089A69
:10343000012A36DC139A82B303F23343099CDDF888
:103440001880069A012158461A440692079A1A448F
:10345000079221F041FB054686E53E4653469A46D3
:1034600013F8012D392A06D1039A9A42F7D1302256
:10347000039901360A701A7801321A7038E700226F
:103480007B4B1FF0F9FE0022002304460D4620F07E
:103490005BF900283FF450AF82E7149BC3F1360379
:1034A000CCE709F1FF34099BA34208DBB9F1000F17
:1034B000A3EB04040EDBDDF818804B46C1E7099B43
:1034C000109AE31A0994DDF8188000241A444B4638
:1034D0001092B6E7069BA3EB09080023B1E7029E12
:1034E00071E5099A029970E5029672E5089B012B35
:1034F00017DC009BABB9019BC3F313039BB9019B82
:1035000023F00046360D360536B1069B0126013301
:103510000693079B01330793109B002B7FF470AD3C
:103520001096012075E50026F6E73FF486AD1C33C2
:10353000069A1A4498440692079A1A4407927CE520
:103540000346F4E7049B002B2BDC089B022B09DCD1
:1035500027E0B9F1000F1DDC089B022B1ADD3E4667
:10356000CDF81090049B002B7FF40CAE2146052271
:10357000584621F069FA01460446029829F083FA78
:1035800000287FF7FFADDDF80CA0312301360AF8E3
:10359000013BFBE50D9B3E46CDF81090002B7FF4E0
:1035A00083AD039F2146029829F091F9039B00F116
:1035B0003009049A07F8019BFB1A9A4240F3CB802A
:1035C00000230A220299584621F03EFA0290E9E7C8
:1035D0002A6905F10C010C300232920029F05BF9E6
:1035E00001223946584621F091FB039BA846054627
:1035F00003F1010ADDE9032313440793009B03F061
:10360000010309930AF1FF3321460298049329F03C
:103610005EF94146069000F13009029829F033FA2C
:103620002A4621460746584621F0DCFBC26801467F
:1036300002B3584621F0E6F9002F3ADA0122029946
:10364000584621F063FB2146029029F01CFA00281D
:1036500003DC29D119F0010F26D0B9F1390F1DD1A2
:1036600032E02846C1E700BF084B040800001440C0
:10367000000024400A90029829F005FA0A990C905B
:10368000584621F0BFF90C9A5ABB089B53B9099BC5
:1036900043B9B9F1390F17D0002F05DD069B03F1AF
:1036A000310901E0002F2ADADDF810A00AF8019BA9
:1036B0006EE5089B3B4304D1009B03F00103002B04
:1036C000BCD0B9F1390F36D1049F392307F8013B3B
:1036D000BA46013F1AF8013C392B5AD001333B70EE
:1036E00056E5002F06DB089B3B4306D1009B03F009
:1036F000010313B9002AA1DCD6E7002AE1DC079B0D
:1037000057460AF8019C53452ED000230A220299FD
:10371000584621F099F9A84502904FF000034FF068
:103720000A02414658460BD121F08EF980460546E3
:103730000AF1010A66E7DDF810A009F10109B5E711
:1037400021F082F92946804600230A22584621F0BA
:103750007BF90546ECE7049B4FF00008002BCCBF3B
:103760001F460127039B1F4401220299584621F05E
:10377000CDFA2146029029F086F90028A8DC02D172
:1037800019F0010FA4D1BA4617F8013D302BFAD039
:10379000FEE4039BBB429BD13123039A0136137095
:1037A000F6E4219B002B7FF425AA014BFFF744BAD6
:1037B000EA4904080348044B834202D0034B03B197
:1037C00018477047EC1A0020EC1A00200000000097
:1037D000064B0749C91A891048BF0131491003D067
:1037E000044B0BB101481847704700BFEC1A00208A
:1037F000EC1A00200000000010B5064C237843B9F5
:10380000FFF7D8FF044B13B10448AFF30080012346
:10381000237010BD56430020000000005C4E0408D9
:1038200008B5054B1BB105490548AFF30080BDE85D
:103830000840FFF7CDBF00BF00000000D81F0020E8
:103840005C4E0408A3F5803A704700BF174B002B6D
:1038500008BF134B9D46FFF7F5FF00218B460F462F
:103860001348144A121A28F0C2FF0E4B002B00D046
:1038700098470D4B002B00D09847002000210400F2
:103880000D000D48002802D00C48AFF3008021F055
:103890000BF82000290000F0ABFB20F0ADF900BFD1
:1038A000000008000000000000000000C00A002026
:1038B000EC1A00205444002000000000000000002A
:1038C000F0B50368A04A23F47F4323F00703934233
:1038D00004468FB000F0F2803AD802F17F42934262
:1038E00000F01D8102F5802293425DD10021A127C5
:1038F000B0F8055009AE142206AB28460096069192
:1039000015F042F9914B0320CDE90135904A914BD6
:103910009149009703F0A2FE32460821BDF8183005
:103920008E4804F067F9242D00F063812B2D0DD112
:10393000B4F805302279ADF81D308DF81C2007A9A8
:10394000334603C9BDF8182002F0F0FD0FB0F0BDFA
:10395000834A934200F0AC8002F5102293425DD17D
:10396000D126C2790389B0F80550CDE903327D4AEA
:103970000320CDE90125774B754A7749009603F07E
:103980006DFE242D00F044812B2D00F06F811D2D44
:10399000DCD1E379012B00F0AA81022BD6D101F012
:1039A00045FC01238376D1E7A2F510229342CDD1C5
:1039B00043246D490320674B654A01910094664991
:1039C00003F04CFE002109AB084607AA15F07CF96C
:1039D0000446002832D0654D654928680BF0A2FBEB
:1039E000644928680BF09EFB05F082FD05F082FD1E
:1039F000614847230090564A604928680BF092FBC3
:103A00005F4923465F4A28680BF08CFB204605F08F
:103A10009DFD5D4928680BF085FBFEE7A2F18272EF
:103A2000934293D1B0F80930B0F80720B0F80510F0
:103A300000790FB0BDE8F04001F030BC534D28468E
:103A400015F002F80446002840F0ED80504E514831
:103A5000314602F025F821464E4B3278287815F091
:103A60002DF80446002800F00C81404D404928689C
:103A70000BF058FB3F4928680BF054FB05F038FD6C
:103A800005F038FD3C4852230090314A3B492868F4
:103A90000BF048FB3A4923463A4A28680BF042FBB0
:103AA000204605F053FD384928680BF03BFBFEE744
:103AB00040680FB0BDE8F04001F0EEBC807901F045
:103AC00027FC324D324A0021324B1278287814F00C
:103AD000F5FF0446002861D0244D254928680BF0E5
:103AE00021FB244928680BF01DFB05F001FD05F0C2
:103AF00001FD21488E230090154A204928680BF0CB
:103B000011FB1F4923461F4A28680BF00BFB204678
:103B100005F01CFD1C4928680BF004FBFEE700269D
:103B20001D4D2846C5E90066AE60AE8105F002F97C
:103B30002B460E2231460B2015F058F8207B0FB093
:103B4000BDE8F04001F086BBA000060180D8030864
:103B500000D80308C4D803080CD803083CE80308BD
:103B6000A000010390D8030810D80308B82B002048
:103B700038D803083CD80308B4D8030844D803084D
:103B800054D8030850D803086CD80308700F0020DD
:103B90005743002000200020F01F00200221287839
:103BA00014F0A2FF044600283FF4D0AE764D7749CA
:103BB00028680BF0B7FA764928680BF0B3FA05F0DD
:103BC00097FC05F097FC734892230090724A734962
:103BD00028680BF0A7FA72492346724A28680BF04E
:103BE000A1FA204605F0B2FC6F4928680BF09AFA5A
:103BF000FEE7B4F805302279ADF81D308DF81C20B1
:103C000007A9334603C9BDF8182002F027FA9DE63C
:103C1000E379012B73D0022B7FF498AE01F006FB01
:103C20000123037692E6584D584928680BF07AFA3A
:103C3000574928680BF076FA05F05AFC05F05AFC53
:103C400054484B230090544A544928680BF06AFAB0
:103C500053492346534A28680BF064FA204605F07E
:103C600075FC514928680BF05DFAFEE7E379012BFA
:103C700035D0022B7FF46AAE01F0D8FA01234376E7
:103C800064E64FF4C862009003461146287814F0A9
:103C9000F3FE044600283AD03B4D3C4928680BF01F
:103CA00041FA3B4928680BF03DFA05F021FC05F08C
:103CB00021FC38485B230090374A384928680BF0CC
:103CC00031FA37492346374A28680BF02BFA204649
:103CD00005F03CFC344928680BF024FAFEE7238900
:103CE000002B43D00FB0BDE8F04002F051BB238958
:103CF000002B40D00FB0BDE8F04001F0E7BF2389B2
:103D0000002B2ED00FB0BDE8F04002F003B92878A8
:103D1000022114F0E9FE0546002831D01A4C1B4957
:103D200020680BF0FFF91A4920680BF0FBF905F049
:103D3000DFFB05F0DFFB17485F230090164A1749A9
:103D400020680BF0EFF916492B46164A20680BF055
:103D5000E9F9284605F0FAFB134920680BF0E2F96F
:103D6000FEE70FB0BDE8F04002F0DAB80FB0BDE8F2
:103D7000F04002F013BB0FB0BDE8F04001F0ACBF63
:103D800001F042FBE2E500BFB82B002038D8030861
:103D90003CD80308B4D8030800D8030844D8030863
:103DA00054D8030850D803086CD8030830B5C107AD
:103DB000044683B01FD4A20729D4630733D4250750
:103DC0003DD4A00647D4610651D422065BD4E30556
:103DD00065D4A5056FD4600579D4210500F18480F0
:103DE000E20300F18E80630300F19880002CC0F2A2
:103DF000A28003B030BD4625554A03200192554BA1
:103E0000554A5649009503F029FCA207D5D54A2505
:103E1000534A504B019203204F4A5049009503F0FA
:103E20001DFC6307CBD54E254E4A00950192032019
:103E3000484B494A494903F011FC2507C1D5522591
:103E4000494A03200192434B434A4449009503F0F9
:103E500005FCA006B7D55625444A404901920320E7
:103E60003C4B3D4A009503F0F9FB6106ADD55A2560
:103E70003F4A03200192374B374A3849009503F0F7
:103E8000EDFB2206A3D55E253A4A324B0192032070
:103E9000314A3249009503F0E1FBE30599D56225EB
:103EA000354A0095019203202A4B2B4A2B4903F0F7
:103EB000D5FBA5058FD56625304A03200192254BF9
:103EC000254A2649009503F0C9FB600585D56A257A
:103ED0002B4A2249019203201E4B1F4A009503F0F2
:103EE000BDFB21057FF57CAF6E25264A032001929C
:103EF000184B194A1949009503F0B0FBE2037FF50E
:103F000072AF7225204A134B01920320124A1349C3
:103F1000009503F0A3FB63037FF568AF76251B4A8A
:103F2000032001920B4B0C4A0C49009503F096FBC1
:103F3000002CBFF65EAF7A24154903200191054B92
:103F4000054A0649009403F089FB03B030BD00BF69
:103F5000E8D8030878DB0308D4D80308E0D80308BE
:103F600004D903081CD9030838D9030854D9030815
:103F700078D9030898D90308C0D90308D8D9030809
:103F8000F0D9030808DA030820DA030838DA03084E
:103F900058DA030810B5012184B02D2006F010FE78
:103FA000002340F2011E4FF0010C40F20B320E4C88
:103FB00069462046CDF80630CDF80230CDF80930FC
:103FC000ADF800E0ADF809208DF804C009F0C4F8A0
:103FD00002214FF40032054B04F58054E161C3F82F
:103FE00084215A6004B010BD0080015A00E100E055
:103FF00080B584B008F062FF494DAF27286008F013
:1040000057FF0CF059FC08F029FF4FF47A700CF0C0
:10401000ABF901213A2006F0D3FD00230422194612
:10402000022008F003FB002304220121022008F0F3
:10403000FDFA022100230846042208F0F7FA0023C3
:1040400004220521022008F0F1FA00230422194677
:10405000184608F0EBFA002304221846114608F02F
:10406000E5FA002304221846062108F0DFFA0023AF
:1040700004221946012008F0D9FA0DF0FFFE0020B5
:104080000DF0FEFE03F060FAFF21002003F0DEFCDD
:10409000C721012003F0DAFCC721022003F0D6FC7F
:1040A0000721032003F0D2FC0721042003F0CEFCFB
:1040B00003F088FA0097B0271A4E1B4B0320CDE976
:1040C00001361A4A1A4B1B4903F0C8FA2B681949E2
:1040D0000293194B154A032001930097144B03F0E8
:1040E000BDFA164C2868FFF761FEFFF753FF324612
:1040F0001349144802F0DCFD04F018FC04F080FDC4
:1041000004F036FD04F066FE204609F013F8204660
:1041100009F010F80CF0DEFB0BF0E8FAF7E700BF4F
:10412000242000207CDA030884DA0308D4D80308AA
:1041300070DB0308E0D8030898DA03080080015A0E
:10414000A8DA0308B0DA03082DE9F04397B0382263
:10415000002108A828F04BFB4FF40032224BC3F893
:1041600084216A46382108A802F0F6FDF5241F4A8A
:104170001F4F0192009406461E4B03201E4A1F4902
:1041800003F06CFA3C7824B101233B7017B0BDE812
:10419000F083FC251A4B0320CDE90136164A154B56
:1041A0001649009503F05AFA04F0E2FCAEB1DFF8CC
:1041B0005490DFF8548007AD55F8041F484603F0CB
:1041C0000BFA2246414605A820F0DCFA01342946C4
:1041D00005A804F097FCA642EED104F05BFD012394
:1041E0003B7017B0BDE8F08300E100E0B4DA0308EB
:1041F000584300205CDB0308D4D80308E0D8030848
:10420000C8DA0308E4DA0308ECDA03082DE9F04120
:1042100096B03822002108A828F0E9FA6A46382129
:1042200008A802F099FD4FF48A740646009440F203
:104230001514174A0320174B17490192174A03F028
:104240000DFA174A0320134B134901920296134AA1
:10425000009403F003FA04F08BFCAEB10024DFF805
:104260004880104F07AD55F8041F404603F0B4F9DD
:104270002246394605A820F085FA0134294605A8CA
:1042800004F040FCA642EED104F004FDFEE700BFBE
:10429000F4DA030850DB0308E0D80308D4D8030895
:1042A000C8DA0308ECDA0308E4DA03082DE9F04180
:1042B00096B03822002108A828F099FA6A463821D9
:1042C00008A802F049FD4FF497740646009440F2A6
:1042D0002F14174A0320174B17490192174A03F06E
:1042E000BDF9174A0320134B134901920296134A52
:1042F000009403F0B3F904F03BFCAEB10024DFF806
:104300004880104F07AD55F8041F404603F064F98C
:104310002246394605A820F035FA0134294605A879
:1043200004F0F0FBA642EED104F0B4FCFEE700BFBF
:1043300000DB03083CDB0308E0D80308D4D80308FB
:10434000C8DA0308ECDA0308E4DA03082DE9F041DF
:1043500096B03822002108A828F049FA6A46382188
:1043600008A802F0F9FC40F24714064600944FF406
:10437000A474174A0320174B17490192174A03F0F8
:104380006DF9174A0320134B134901920296134A01
:10439000009403F063F904F0EBFBAEB10024DFF806
:1043A0004880104F07AD55F8041F404603F014F93C
:1043B0002246394605A820F0E5F90134294605A82A
:1043C00004F0A0FBA642EED104F064FCFEE700BFBF
:1043D00014DB030828DB0308E0D80308D4D803085B
:1043E000C8DA0308ECDA0308E4DA030803681B4AB6
:1043F00023F47F4323F00703934200D0704730B586
:10440000052200211620164B83B014F0EFFB044662
:1044100008B903B030BD134D134928680AF082FE75
:10442000124928680AF07EFE05F062F805F062F88D
:104430000F48592300900F4A0F4928680AF072FE6E
:104440000E4923460E4A28680AF06CFE204605F005
:104450007DF80C4928680AF065FEFEE7A00001001F
:104460008CDB0308B82B002038D803083CD803089D
:10447000BCDB030894DB030844D8030854D80308C2
:1044800050D803086CD8030812F0E2BE08B50CF04F
:1044900063FABDE8084014F099B800BF01207047E6
:1044A00000B5C3B012F066FE24F0B6FA10B943B0FE
:1044B0005DF804FBFFF7F2FF0028F8D001A825F013
:1044C00026FC0028F3D101A804F036FF01A804F06F
:1044D0009DFD01A8FFF78AFF01A8FFF7F1F943B09E
:1044E0005DF804FB08B506F0F9FE06F0A3FE214ACC
:1044F000136F23F0070343F00303136706F0B2FEC4
:104500001D4B9B6A9B0702D401221C4B9A62194BDC
:104510000020D3F8202122F0030242F00202C3F867
:104520002021D3F8242122F0070242F00202C3F82E
:104530002421D3F8402122F0030242F00202C3F802
:104540004021D3F8602122F0030242F00202C3F8B6
:104550006021D3F8402222F0030242F00202C3F8A5
:104560004022D3F8002222F0070242F00202C3F8F0
:10457000002208BD0080005000C0005000E0005044
:1045800008B50AF019FD0AF095FC0AF0FBFC0AF0E8
:10459000B9FCFFF7A7FF0AF0A1FC05F03BFA05F014
:1045A000D3FCBDE808400AF0A5BF00BF08B505F080
:1045B00057FCBDE8084000F06FB800BF08B50BF02D
:1045C000E3FC0AF015FE09F0F9FD0AF01BFE0CF001
:1045D00069FF0AF00BF8BDE808400AF0EFBD00BF24
:1045E00008B508F0F3FE08F00FFF08F021FFFFF711
:1045F0004DFFBDE8084008F005BF00BF04F07CBFD8
:10460000704700BF05F0AEB8FFF74ABF704700BF64
:10461000012070470120704738B505F0E5F80546E0
:1046200012F0D0FD041E18BF2C46FFF7F1FF002842
:1046300018BF204638BD00BF38B50BF0ADF90446B1
:1046400005F0C8F8042817D0022808BF012424F078
:1046500025FA04284FF0000514D0022808BF0124D1
:10466000FFF7D8FF042813D0022808BF0124002D2B
:1046700018BF0024204638BD24F010FA04284FF05B
:104680000105EAD1FFF7C6FF04284FF00105EBD181
:104690000024204638BD00BF024B0349186805F0CE
:1046A000D5BE00BF040C0020E40B0020014B18789D
:1046B000704700BF5943002010B53924084982B023
:1046C00001910420074B084A0849009402F0C6FFF4
:1046D0000022074B1A7002B0BDE8104000F0F0B89D
:1046E00028E0030864E003080CE0030824E0030862
:1046F0005943002010B55124084982B00420084BCA
:10470000084A01910094084902F0A8FF00F0FEF960
:104710000022064B1A7002B010BD00BF34E003083F
:1047200058E003080CE0030824E003085943002084
:1047300010B56724084982B00420084B084A01914B
:104740000094084902F08AFF00F0C2FA0122064BE9
:104750001A7002B010BD00BF40E003084CE003082F
:104760000CE0030824E003085943002000F09EB841
:1047700038B50446054D284600F07EF824B118B13E
:10478000D5E90023C4E9002338BD00BFF01A00209A
:1047900010B5DF24074982B001910420064B074A77
:1047A0000749009402F05AFF022002B0BDE8104011
:1047B00000F0E0BD90E00308C8E2030870E00308E1
:1047C00088E0030810B5EF24074982B00191042066
:1047D000064B074A0749009402F040FF032002B04D
:1047E000BDE8104000F0C6BDB0E00308A8E2030831
:1047F00070E0030888E00308052000F0BBBD00BF9F
:1048000010B54FF4BE74144882B01449144B154AC5
:1048100001900094042002F021FF0422124B0A2090
:104820001A670BF0DFFD00230146CDE900330F4A84
:104830000F480BF0E3FB08B902B010BD4FF4C2748F
:104840000C4901200191064B064A0449009402F0EC
:1048500005FF02B010BD00BFD0E0030888E00308E8
:104860003CE2030870E0030800D00350C54701088C
:10487000AC200020ECE0030898B1012310B582B011
:10488000044669461A46084804F008FB10B900209F
:1048900002B010BD0120DDE90023C4E9002302B00D
:1048A00010BD0020704700BFF020002008B503486D
:1048B00004F056FB003818BF012008BDF02000208E
:1048C0002DE9F0434FF48175DFF8F890DFF8F880B8
:1048D000304F314B85B042463946019300954B46E7
:1048E000042002F0BBFE042201231146022007F03F
:1048F0009DFE012304220621022007F097FE0123DA
:1049000004221846022107F091FE002302221846D5
:10491000052107F08BFE1023204C002204F5805562
:10492000C5F8A0301E49052005F0B4FA39464FF409
:104930008A7700971B4F4B4601971B4F42463860C2
:104940000290042002F08AFE1849032000F01AFDAC
:104950001749022000F016FD1649052000F012FD4F
:10496000082215491123154804F088FA402604232B
:1049700004F50054C4F8A060012023670BF0F4FC98
:10498000C5F8A06000F0B8FD0D4B186005B0BDE89B
:10499000F08300BF88E0030810E1030800C0035063
:1049A000F94701081CE1030804210020414F0108D8
:1049B00001480108CD490108F81A0020F020002024
:1049C000EC2000209CE2030870E003082DE9F04190
:1049D00040F2F9170024404A84B0404D0420404B77
:1049E000404901920097404A02F038FE2A68234667
:1049F00005212046CDE9004407F09CFD3B4E2B6885
:104A0000C6F82034FDF7A8FB394B1B88142B0AD0BD
:104A1000012300202A680521CDE9000307F08AFD63
:104A200004B0BDE8F081334B1A88032AF0D1102777
:104A30000120DFF8D4801C800BF058FF2E4B04229D
:104A400003932E4C03A9D8F80000C6F8A07005F017
:104A50003BFF01200BF04AFF0120C4F8A0700BF0CF
:104A600045FF274B0422039303A9D8F80000C6F89A
:104A7000A07005F029FF01200BF038FF0120C4F8D9
:104A8000A0700BF033FF48F261030422039303A9E3
:104A9000D8F80000C6F8A07005F016FF01200BF052
:104AA00025FF0120C4F8A0700BF020FF154B042255
:104AB000039303A9D8F80000C6F8A07005F004FF1E
:104AC00001200BF013FF0120C4F8A0700BF00EFFC3
:104AD000042333679CE700BF90E103080421002012
:104AE00014E2030888E0030870E0030800E00350C4
:104AF000FC420020FA4200203A80160000D0035009
:104B0000508002003A809600040C002010B50D4839
:104B100082B00BF037FB0C480BF034FB00230B4C3E
:104B2000184622680521CDE9003307F003FD402136
:104B300004222068064BC3F82004C3F8A0101A67AB
:104B400002B010BDCC200020AC20002004210020A9
:104B500000E003502DE9F041012098B010240BF043
:104B6000C5FE0723524D534A05F50058524FADF884
:104B7000243008920120C8F8A0400BF0B7FE08A925
:104B80000622386805F5805505F09EFE01200BF0E1
:104B9000ADFE0120C5F8A0400BF0A8FE49F201636C
:104BA00002934AF25003ADF82030444B00260093A4
:104BB0006B46ADF80C60019607CB1B88CDF8220040
:104BC000ADF82E30CDF82610CDF82A208DF83060C3
:104BD0000120C8F8A0400BF089FE08A9112238680E
:104BE00005F072FE01200BF081FE354BC5F8A040A8
:104BF000012008938DF82460C8F8A0400BF076FEE1
:104C000008A90522386805F05FFE01200BF06EFE52
:104C10002C4BC5F8A04001200893C8F8A0400BF029
:104C200065FE08A90422386805F04EFE01200BF04D
:104C30005DFE5423C5F8A040ADF82430224B01207E
:104C40000893C8F8A0400BF051FE08A90622386866
:104C500005F03AFE01200BF049FE48F20503C5F8C5
:104C6000A04001200893C8F8A0400BF03FFE08A91F
:104C70000422386805F028FE02200BF037FE134BA3
:104C8000C5F8A040012008938DF82460C8F8A04022
:104C90000BF02CFE052208A9386805F015FE01204E
:104CA0000BF024FEC5F8A04018B0BDE8F08100BFAD
:104CB00000C003503AA0160B040C0020030000397A
:104CC00061A00F013A80960001A0610017A00101C8
:104CD00070B540F2931404252D4984B02D4A28461E
:104CE0002D4B019100942D4902F0B8FC2C4B0A2069
:104CF0001D670BF039FB00F0FFFB2A4B1C68041BFF
:104D0000B4F57A7F29D300240125274B05211A68A1
:104D100020462B46CDE9004507F00CFC42F210700E
:104D20000BF060FB23460146CDE900441F4A2048B2
:104D30000BF096F920B904B0BDE87040FFF70ABF48
:104D40004FF4D5741B4928460191134B114A13495E
:104D5000009402F083FC04B070BD4FF4D076164A84
:104D60002846CDE901240C4B0A4A0C49009602F072
:104D700075FC1248124B04FB00F000F5742000F59E
:104D80001070A3FB0030C0F38F100BF0EDFABAE700
:104D9000A8E1030870E003082CE2030888E0030898
:104DA00000D00350EC20002004210020914701088E
:104DB000CC200020C8E10308B8E1030818FCFFFF7D
:104DC000D34D62102DE9F041012098B010240BF072
:104DD0008DFD0723524D534A05F50058524FADF84B
:104DE000243008920120C8F8A0400BF07FFD08A9EC
:104DF0000622386805F5805505F066FD01200BF0A8
:104E000075FD0120C5F8A0400BF070FD49F201636B
:104E100002934AF25003ADF82030444B0026009331
:104E20006B46ADF80C60019607CB1B88CDF82200CD
:104E3000ADF82E30CDF82610CDF82A208DF8306050
:104E40000120C8F8A0400BF051FD08A911223868D4
:104E500005F03AFD01200BF049FD354BC5F8A040A7
:104E6000012008938DF82460C8F8A0400BF03EFDA7
:104E700008A90522386805F027FD01200BF036FD52
:104E80002C4BC5F8A04001200893C8F8A0400BF0B7
:104E90002DFD08A90422386805F016FD01200BF04D
:104EA00025FD5423C5F8A040ADF82430224B012045
:104EB0000893C8F8A0400BF019FD08A9062238682D
:104EC00005F002FD01200BF011FD48F20503C5F8C5
:104ED000A04001200893C8F8A0400BF007FD08A9E6
:104EE0000422386805F0F0FC01200BF0FFFC134BA6
:104EF000C5F8A040012008938DF82460C8F8A040B0
:104F00000BF0F4FC052208A9386805F0DDFC01204F
:104F10000BF0ECFCC5F8A04018B0BDE8F08100BF74
:104F200000C003503AA0160B040C00200300003907
:104F300061A00D013A80960001A0610017A0010157
:104F400010B54FF4B4740D4982B004200C4B0D4AD7
:104F5000019100940C4902F081FBFFF733FF01231C
:104F600000200A4A0A491268C1F820240521CDE927
:104F7000000307F0DFFA02B010BD00BFF4E1030840
:104F800058E2030870E0030888E0030804210020C9
:104F900000E00350F0B53B4D87B06B6903F4A0739C
:104FA000B3F5807F42D19027294604A807F0AEFED2
:104FB000049C354A0420CDE90124344B344A354958
:104FC000009702F04BFB40F2BA43022104FB03F3CB
:104FD000314A324E82FB03421A44DB17C3EBE22311
:104FE0008B4033802846E96007F0EAFD00212A2043
:104FF00005F0E6FD40F6E44240F6282133889A4267
:1050000028BF1A468B422AD9254BA2F62822A3FB99
:105010000213D21A03EB5203C3F38703214A224837
:10502000137007B0BDE8F0400BF0ACB8F2241F4994
:10503000174A0191012017491D4B009402F00EFB05
:1050400002232846EB6007F0BBFD2A20002105F073
:10505000B7FD154807B0BDE8F0400BF093B8B3F5C5
:10506000166F07D9134BA2F51662A3FB0232C2F3E7
:105070000713D3E740F26C7293428CBF0123642381
:10508000CCE700BF0040005A10E30308F8E3030830
:10509000E8E2030804E3030881000880600F0020B1
:1050A00025499224710F00201421002018E30308E1
:1050B000B8E30308A38B2EBA2DE9F0411C4C82B053
:1050C00001212A2005F07CFD204607F079FD022110
:1050D0004FF4B06006F090FB00222046154907F01F
:1050E000D3FD0023064640F2BA410222124DDFF8FA
:1050F0005480E9606A8064211A460096204688F848
:10510000056007F0DDFD41F201030C4F41462A46E0
:10511000A86020463B8007F0E7FA3A462046084957
:1051200007F014FD0123E36002B0BDE8F08100BF89
:105130000040005A404B4C00140C0020080C00208A
:105140000C0C00200821002030B5D025074C084A5F
:10515000217885B0CDE901210320064B064A074995
:10516000009502F07BFA207805B030BD710F002069
:105170003CE30308D4E30308E8E2030804E303087C
:105180001E4B1F4A196812880844B2F57A6F1860DE
:1051900006D21C4A1C4B02FB00F0B3EBF00F1DD3F0
:1051A00010B540F21B14194884B0194B194A1A491A
:1051B00001900094032002F051FAFFF77DFF0A20CE
:1051C0000BF010F900230146144ACDE900331448CE
:1051D0000AF014FF024610B904B010BD704740F247
:1051E00023141049029201910120094B094A0A49EE
:1051F000009402F033FA04B010BD00BF3421002047
:10520000600F002021436587AC68240050E3030849
:105210009CE30308E8E2030804E30308954F010850
:105220001421002078E3030804F014BC0048704700
:10523000801B0020034B93F83000B0FA80F0400947
:10524000704700BF801B0020014B1878704700BFDB
:10525000801B002030B50446BB250B4A85B00B49A6
:10526000019203200A4B0B4A0095029402F0F6F9D2
:1052700040F20112084B20461A83FDF731F805B0C1
:10528000BDE8304000F0EEBC40E4030834E403081D
:1052900064E5030818E40308801B00202DE9F043AF
:1052A0000446894690461F46D625144B87B0019385
:1052B0000320134BCDE90249CDE90487114A124975
:1052C000009502F0CBF90023104E3578708803B9B1
:1052D00015B907B0BDE8F083A042FAD12046A6F880
:1052E0000490A6F80680378100F02CFC18B1012349
:1052F00073700123E9E700F0B5FCFAE764E4030802
:105300003CE5030818E4030834E40308801B00208C
:1053100030B50446FD25124A85B00320114B019299
:105320001149124A0095029402F098F9104A107837
:10533000538840B90023D37600F066FB05B0BDE882
:10534000304000F083BC9C42F4D1002100240025B1
:105350001180C2E90445C2F80210C2F80610E9E75C
:1053600098E4030818E5030834E4030818E4030884
:10537000801B002008B513F04BFBB0FA80F0400909
:1053800008BD00BF70B5012500230646184A84B049
:10539000854001E0202B0CD052F8334002EBC30CC7
:1053A000AC4203F10103F5D10120CCF8041004B0A4
:1053B00070BD00230F4852F8334002EBC30C14B900
:1053C00050F833408CB10133202BF4D140F28714D4
:1053D000094901200191094B094A0A4902960094A2
:1053E00002F03CF9002004B070BD42F83350DBE716
:1053F000582100205C210020C0E403080CE50308CC
:1054000018E4030834E403081C4B0522002110B5FE
:10541000182013F0EBFB38220021194827F0E7F998
:105420000022184B03F58071C3E9002208338B4238
:10543000FAD115490120FFF7A5FF14490B20FFF70A
:10544000A1FF13490C20FFF79DFF12490D20FFF724
:1054500099FF01F0C9FB0123094C84F8303000F0BA
:1054600061FB94F83030837000F060FB02F0BEFD09
:1054700000F0D0FABDE81040FFF71EB97CDA03084F
:10548000801B002058210020815B0108FD64010879
:10549000ED64010829650108012130B5114B04466E
:1054A00085B003F5807C814002E00833634509D074
:1054B0001A688A42F9D15A68002AF6D0904701202A
:1054C00005B030BD4FF4CF75074902200191074B5D
:1054D000074A08490294009502F0C0F8002005B080
:1054E00030BD00BF58210020D8E40308FCE40308C5
:1054F00018E4030834E4030800B583B00AF00EFF93
:105500006A460AF0CBFF009803B05DF804FB00BFC9
:1055100000B54FF47A7083B00AF064FF00230146AF
:10552000CDE90033034A04480AF05CFE03B05DF89D
:1055300004FB00BF29520108382100200820FFF792
:1055400019BF00BF0920FFF715BF00BF0A20FFF7F2
:1055500011BF00BF30B583B0FFF76CFEA0B91D4D81
:1055600004462B78012B11D90520FFF709FE4EF6D2
:1055700060200AF037FF23460146CDE90044164A71
:1055800016480AF03BFDC0B903B030BD0120FFF75B
:10559000F7FD2B784FF47A7001332B700AF022FF5D
:1055A00023460146CDE900440B4A0C480AF026FD8B
:1055B0000028E9D04FF4297401E040F2AF240849F3
:1055C00001200191074B084A0849009402F046F86F
:1055D00003B030BD5A4300204D5501085822002029
:1055E000ECE0030864E7030888E50308A8E503087E
:1055F000014B1870704700BF720F00202DE9F04377
:105600001A4E1B4D1B4C87B0FFF7B0F8034604A899
:105610004BB3FFF7ADF830B3DDE904011EF0E6F857
:105620001DF0D2FD40F25517804689462B46224692
:1056300011490320CDE902890196009702F00EF886
:105640000E490F4A0B781D2B02EBC302DCD8DDE9B3
:10565000048901330B70C2E90089FFF787F803461C
:1056600004A8002BD5D107B0BDE8F083BCE5030842
:1056700014E8030888E50308A8E503085B43002055
:10568000B81B002010B582B0FFF736FF40F2DD3CBA
:1056900022490A68821A624501DC02B010BD034645
:1056A00001200B60FFF76CFD1D4B1B88B3F5D25F2B
:1056B0000DD2FFF7BFFD0028EFD0FEF7F7FF50BB7C
:1056C000FFF736F802B0BDE81040FCF731BEFFF737
:1056D000B1FD0028EDD04FF4D1741248124A13499D
:1056E000134B01900094032001F0B8FFFFF702F87C
:1056F000FFF79CFD802380F83030FFF797FD0446CC
:1057000000F010FA94F83030837000F00FFA094876
:105710000AF038FDCDE7FFF771FFD3E7B82200208C
:10572000004300203CE6030888E50308A8E50308D9
:10573000E4E703089822002010B54FF47A7082B095
:105740000AF050FE00230146CDE90033094A0A4819
:105750000AF086FC08B902B010BD40F2DF14074918
:1057600001200191064B074A0749009401F076FF9A
:1057700002B010BD3D55010898220020ECE003085E
:10578000CCE7030888E50308A8E5030801480AF008
:10579000F9BC00BF9822002010B54FF403741448E0
:1057A00082B0144B144A154901900094032001F073
:1057B00055FF64200AF016FE00230146CDE90033B0
:1057C0000F4A10480AF01AFC60B140F211240E4949
:1057D00001200191074B084A0849009401F03EFF5F
:1057E00002B010BDFFF722FD0123C37602B010BD49
:1057F00064E60308A8E7030888E50308A8E50308AA
:105800004555010878220020ECE003082DE9F0411D
:105810008AB0FFF70BFD044640F23325E47E6F4E5D
:1058200003206F4B6F4A70490294CDE9005601F096
:1058300015FFFFF7FBFCC47E14B90AB0BDE8F08188
:10584000FFF7F4FCB0F82280FFF7F0FC05464FF4B8
:105850000E762D8C654F624B624A63490320039597
:10586000CDE90178009601F0F9FEFFF7DFFC458CE9
:10587000FFF7DCFC038CAB4236D9FFF7D7FC06AE52
:105880003146808B02F0C2FD0546002840F084803E
:10589000FFF7CCFC96E80C004FF01D0C243003C839
:1058A00004AF04908DF814108DF811C08DF81250CB
:1058B00097E8030000F0C2FA002840F0818000F071
:1058C00011FA002852D0FFF7BFFC00284ED0002C60
:1058D00047D0FFF7ABFC438C01334384FFF7A6FCB2
:1058E000838B013383833CE04FF4197540483D4A74
:1058F0003B4B3D4901900095032001F0AFFEAA23E8
:1059000006AC0E2120468DF8183000F0C5F9ADF830
:105910002600FFF78BFC94E80C0000261D2724309E
:1059200003C88DF814100AA9049011E903008DE84A
:1059300003008DF811708DF8126004AD95E8030036
:1059400000F0D6F90446002833D040F276252949E4
:1059500001200191224B234A23490294009501F032
:105960007DFEFFF719FF0AB0BDE8F08100F0BAF93B
:105970000446FFF769FC40F25F2605461E4A0220F6
:105980000192174B174A184902940096039501F0AB
:1059900065FE0AB0BDE8F08140F24F2517490320AB
:1059A00001910F4B0F4A10490095002401F056FE5B
:1059B00085E713480AF0E6FBFFF738FCC4763CE7BE
:1059C00040F249260F4A03200192054B054A064939
:1059D00000962C4601F042FE71E700BF88E60308FE
:1059E00080E7030888E50308A8E5030810ED03082D
:1059F000F4E6030808E70308DCE60308C4E6030846
:105A000078220020B0E6030801480AF0BBBB00BFC3
:105A10007822002010B5154984B00820FFF7B2FCA9
:105A200013490920FFF7AEFC12490A20FFF7AAFC30
:105A30004FF4FA700AF0D6FC00230146CDE900339A
:105A40000D4A0E480AF0DAFA08B904B010BD024651
:105A500040F2D9240A49029201910120094B0A4AD5
:105A60000A49009401F0FAFD04B010BD8556010802
:105A70000D580108555501084D55010858220020C0
:105A800028E703084CE7030888E50308A8E50308AE
:105A900003461A0A02200B704A707047008870474C
:105AA00060B370B5044616480E4603F043F9092367
:105AB000144A2371226040F262334FF6037240F2BF
:105AC000033E41F61F0C0E4DA4F8132003CDC4F87D
:105AD0000500C4F809102988A4F81530A4F80D10A1
:105AE0001723224608210848A4F80FE0A4F811C0A3
:105AF00002F080F80EB11723337070BD704700BFFD
:105B0000BC2200200201060B38E803080048704759
:105B1000CF2200200B2200212720014B13F066B872
:105B2000CF22002000487047CA2200200522002111
:105B30002220014B13F05AB8CA2200200120FFF79F
:105B400019BC00BF10B50446FFF770FB037823B102
:105B5000FFF76CFB4388A34201D0012010BDFFF783
:105B600065FB8388472B09D9FFF760FB8388642B8B
:105B700004D8FFF75BFBC388072BEED0002010BDD5
:105B800070B584B003F0CAFB70B90546FFF74EFB51
:105B900004782CB1FFF74AFB4088FFF7D3FF28B108
:105BA00015B1234B1B7843BB04B070BDFFF73EFB20
:105BB000D0E90423052A73F1000313D3FFF736FB62
:105BC0004FF6FF754FF4FA76807807236422482158
:105BD000CDE90155009612F09BFFE0B92546002D56
:105BE000E2D0DEE7FFF722FBD0E90432013342F1D5
:105BF00000022546C0E90432F1E74FF47A700AF05A
:105C0000F1FB00230146CDE900330A4A0A480AF0B5
:105C1000E9FA04B070BD6A25084A0095CDE9012073
:105C2000074B0120074A084901F018FD2546D6E731
:105C30005D4300203D5B01082C23002088E8030819
:105C4000B0E8030844E803086CE8030808B5034813
:105C50000AF098FA0022024B1A7008BD2C2300208B
:105C60005D43002000B54FF47A7083B00AF0BAFBB0
:105C700000230146CDE90033044A05480AF0BEF985
:105C80000122044B1A7003B05DF804FB3D5B010870
:105C90002C2300205D43002091B102464FF6FF7097
:105CA00010B4094C114412F8013B4340DBB234F804
:105CB00013308A4283EA1020F5D15DF8044B704717
:105CC0004FF6FF70704700BFD0E803080122014B78
:105CD0001A7070475E4300200022014B1A70704713
:105CE0005E430020014B1878704700BF5E430020E0
:105CF00082B0F0B58FB02B4C0DF1180C8CE803007E
:105D000014A981E80C0023789DF81850BDF819609B
:105D10007BB96E24244901910120244B244A254952
:105D2000009401F09BFC01200FB0BDE8F04002B0F0
:105D30007047FFF789FA48B92378002BE9D0FFF7BD
:105D400083FA0028EFD172241B49E4E714981599CF
:105D5000169A179B09AC0FC410231848194609AAB4
:105D600001F048FF10223146284609AB12F096FF99
:105D7000044668B16927124901200191CDE9024525
:105D80000A4B0B4A0B490496009701F067FCCAE7DF
:105D9000FFF74CFAC476FFF749FA034620465C76D3
:105DA000C2E700BF5E4300200CE60308D0EB030807
:105DB000D0EA0308E8EA030838EB0308F4EA03082A
:105DC00004EB030870B582B002AB144603E903008C
:105DD00012B9104602B070BD0D239DF8006013701B
:105DE000911C5670BDF80100FFF752FE05460235C2
:105DF000EDB26119BDF80300FFF74AFE432E0CBF58
:105E0000802300230544EDB263550135EDB26119DD
:105E10000020FFF73DFE0146294454FA81F1BDF808
:105E20000500FFF735FE0E212046FFF735FF04F190
:105E30000E01FFF72DFE102002B070BD30B591B0FD
:105E400006AC84E803002B4904AC097884E80C0014
:105E500011B9012011B030BDFFF7F6F90028F8D0D4
:105E60000AA909A812F058FF20B9DDE90912B2EB1E
:105E7000510F31D394E803000BAAFFF7A3FF0446A8
:105E8000082123461C480BAA01F0B4FE2246BDF8A7
:105E900019109DF818000BAB12F000FF044658B122
:105EA000CE25164901200191154B164A1649029438
:105EB000009501F0D3FBCCE7C825144A104B032012
:105EC0001149019200950F4A01F0C8FBFFF7AEF9A6
:105ED000034620465C76BDE7BC240D4DCDE902218A
:105EE0000220074B074A08490195009401F0B6FBD0
:105EF000AFE700BF5E430020F4EA030894EB030819
:105F0000C0EB0308D0EA0308E8EA03088CEB0308B7
:105F10004CEB03080122014B1A7070475F430020CD
:105F20000022014B1A7070475F43002082B070B5A9
:105F300092B004AC84E80300DCB2042C154617933D
:105F400035D0022306269DF85E200DF15F010DF18C
:105F50001B00ADF818608DF81A3026F09CFC8DF807
:105F60001B408DF81C500025BDF81B20334C04232A
:105F7000ADF82E20082132480BAA8DF82C608DF840
:105F80002D5001F037FE23783BBBC1242D49022060
:105F90002D4B2E4A019100942D4901F05FFBFFF734
:105FA00053F920B312B0BDE8704002B0704702232D
:105FB00005269DF85E200DF15F010DF11B00ADF887
:105FC00018608DF81A3026F066FC012D03D08DF88C
:105FD0001B408DF81C500526C5E7FFF735F9A8B919
:105FE0002378002BD1D0FFF72FF90028DAD1C52470
:105FF000184902200191144B144A1549009401F0EC
:106000002DFB12B0BDE8704002B070470422BDF80D
:1060100011109DF810000BAB12F040FE0246002854
:10602000C0D0BA240C49029201910120064B074AC4
:106030000749009401F012FBB4E700BF5F43002062
:10604000E8EB030818EC030894ED0308F4EB0308ED
:106050000CEC030838EC030894EB0308F0B591B09E
:1060600004AE86E803000021144612F0FF021D462C
:106070008DF81A1012D01B78012A8DF818300DD027
:106080006B78022A8DF8193008D0023AD2B2A91CD6
:106090000DF11B008DF81A2026F0FDFB23462A4641
:1060A0001021AF4801F0A6FD9DF81830042B8DF8A3
:1060B0002C302AD025D8032B15D1FFF7A5FC0124BD
:1060C000EC4610AB13E90F00ACE80700190C2CF8F4
:1060D000023B8CF80010224696E803000B9BFFF76A
:1060E00025FF11B0F0BD83B940F29D149D4A009484
:1060F000019202209C4B9D4A9D4901F0AFFA022477
:10610000DEE7622BF0D10124DAE79DF81930E3B124
:10611000012C1AD9062B36D89A1E022A22D900241D
:10612000012B40F0F38000259DF81A30002B4CD055
:1061300040F259148F4A0094019202208A4B8B4AF4
:106140008B4901F08BFA0524BAE74FF49B748A4A15
:10615000009401920220844B844A854901F07EFA22
:106160000324ADE79DF81B30012B19D040F24B14EE
:10617000824A0094019202207B4B7C4A7C4901F0C8
:106180006DFA09249CE740F23F147D4A0094019285
:106190000220754B754A764901F060FA04248FE7B6
:1061A00007A8FFF77BFC9DF819300446042BB7D1F4
:1061B0000DF11E00FFF772FC9DF819300546012B0A
:1061C000B2D0042B01D18442B2D82B464FF4AF7722
:1061D0006C4ACDE90243019200970320624B634A67
:1061E000634901F03BFA9DF8197001F08FFE002819
:1061F00000F081807B1E052B7DD8DFE803F0035F74
:1062000054036C41AC4276D801F080FE84426ED2D9
:1062100001F07CFE431E9D4200F29C80FFF706F8D1
:10622000C583FFF703F88483FFF700F8C48BFEF7FC
:10623000FDFF858BFEF7FAFF631C5B1B03849DF853
:106240001830012B72D0042B7FF45DAF01F05EFE9D
:106250000225044640F277174B4B8DF82E508DF8EF
:106260002F40C4F30725A4B2019303203E4B3F4ABD
:106270003F49009702948DF8305001F0EFF942E762
:1062800001F044FE0446FEF7D1FF013C8483FEF793
:10629000CDFF0446FEF7CAFFA38BC383FEF7C6FFFC
:1062A00001230384CBE701F031FE84421FD201F0C9
:1062B0002DFE0546FEF7BAFF013DB1E701F026FECF
:1062C000431E9C4241D8FEF7B1FFC483FEF7AEFFE8
:1062D00000238383A8E7FEF7A9FF00248483FEF749
:1062E000A5FFC483FEF7A2FF01230384A7E7FEF7FF
:1062F0009DFF002202849DF81830042B09D1002252
:1063000002238DF83020ADF82E30FCE600231D4628
:106310005CE74FF4C6741D4A009401920220124BB0
:10632000124A134901F09AF90624C9E6FEF77EFFE6
:1063300000224284FEF77AFF034696E80300586283
:1063400083F82810FFF728FACBE601F0DFFD441EA2
:10635000A4B2B8E701F0DAFD451EADB25EE700BFBA
:106360004CEC030858ED030880ED0308F4EB030838
:106370000CEC0308D8EC030858EC0308ACEC030859
:1063800080EC030800ED030818ED030830ED030866
:106390000122014B1A707047614300200022014B1B
:1063A0001A70704761430020844638B5084689B3A7
:1063B0009CF80030032B0B7029D0062B27D0602BC4
:1063C00025D003210C469CF8013043709CF8023024
:1063D00083709CF8173045188BB1002322460CEBD4
:1063E000030494F803E0013300F802E0541C9CF825
:1063F0001720DBB29A42E4B2F0D821460519FFF724
:106400004BFC2946FFF744FB2044C0B238BD0121B4
:106410000C46DEE70D460C46F1E700BF82B030B512
:106420008FB004AC84E8030007A912A8C0E90023D8
:10643000FFF7BAFF0446254D23460821244807AA42
:1064400001F0D8FB2B788BB9CA2422490220224BB9
:10645000224A01910094224901F000F9FEF7F4FE6E
:1064600070B10FB0BDE8304002B07047FEF7ECFEEF
:10647000A8B92B78002BE7D0FEF7E6FE0028F0D174
:10648000CE24184902200191134B144A1449009458
:1064900001F0E4F80FB0BDE8304002B0704722468A
:1064A000BDF811109DF8100007AB12F0F7FB024683
:1064B0000028D6D0C3240C49029201910220064B39
:1064C000064A0749009401F0C9F8CAE76143002071
:1064D000A8ED0308D8ED0308B8EE0308B4ED0308EF
:1064E000CCED0308F4ED030894EB030808B5FFF7BF
:1064F0004DF9BDE8084002F0A3B900BF10B5FFF7A1
:106500001BF901F0DDFCFEF791FE002380F830302E
:10651000FEF78CFE0446FFF705FB94F830308370DD
:10652000BDE81040FFF702BB704700BF2DE9F04FF8
:1065300095B008AD12F0FF061746984685E80300AF
:1065400023D1FF274FF48D74134608214246A548F6
:1065500001F050FBA44BA54A01930320A44BA5498D
:106560000297009401F07AF84FF61C7202238DF81E
:106570004F60ADF838208DF83A30FEF7C9FF01239F
:1065800010AC0EAE8DF83A3041E0012E1C7800F0D0
:10659000C580134608214246924801F02BFB4FF478
:1065A0008D730093904B03200193904A904B914937
:1065B000029401F053F81C238DF8383002238DF833
:1065C0003A300023013E1D2C8DF84F30F6B28DF885
:1065D000394008F1010327D8BCB1013C1C2C14D868
:1065E000DFE804F0635A1310131313131313131378
:1065F000131313131313131313131313134D441300
:10660000660000230C2F00F2838110AC0EAE94E8DC
:106610000F008DE80F0096E80C0095E80300FFF7E7
:10662000FDFE15B0BDE8F08FFD2C00F010810FD9F4
:10663000FE2CA2D108237049704A09681268CDF86F
:106640003B10CDF83F2010AC0EAE8DF84F30DEE79A
:10665000612C00F0A181622CD7D1042E40F2DE80A3
:10666000032310AC0EAE8DF83A30D0E701230C2096
:1066700010AC0EAE8DF83830FEF77CFEC7E7FEF7A3
:10668000D5FD90F82A30002B00F0DF81042310ACF8
:106690000EAE8DF83A30BAE70322012310AC0EAEED
:1066A0008DF83A208DF84F30B1E7032ED8D866E741
:1066B00008F10200FFF7F2F90746FFF733FA40F25C
:1066C0006314A0F80370FFF731FA4D4A0320CDE9B7
:1066D0000127474B454A4749009400F0BFFF002F70
:1066E000BED04FF4B67C4FF00108464A404B4149BA
:1066F000CDF800C0019203203C4A00F0AFFF8DF8B6
:106700003A80FEF793FD80F83280FFF70BFAA0F88D
:10671000037010AC0EAEFFF709FA78E74FF48D76F0
:106720001346082142462F4801F064FA2E4B2F4AA7
:10673000CDE9013403202E4B2E49009600F08EFF48
:106740001C2302228DF8383000231D2C8DF839408F
:106750008DF83A208DF84F3056D8002C3FF455AFC5
:10676000013C1C2C3FF651AF01A353F824F000BFAD
:106770007F650108996601080B6601080366010838
:106780000B6601080B6601080B6601080B66010821
:106790000B6601080B6601080B6601080B66010811
:1067A0000B6601080B6601080B6601080B66010801
:1067B0000B6601080B6601080B6601080B660108F1
:1067C0000B6601080B6601080B6601080B660108E1
:1067D0000B6601087F6601086D6601080B660108FB
:1067E0003B6901080CEE030818EE0308B4ED03083A
:1067F000C4EE0308CCED0308242000202020002054
:1068000050EE030868EE0308FD2C20D03FF610AFD1
:10681000612C00F0C480622C7FF4F7AE1B78A02BB3
:1068200000F08D80A32B00F02481A42B7FF418AFFF
:10683000602144220523AB4810ACCDF83B000EAEDE
:106840008DF838108DF83F208DF84F30DFE640F29C
:106850008B16A54AA54B0192A54A0320A54900968F
:106860009A4691464FF0000800F0F8FE0123DFF849
:10687000A8B28DF838300BAF02F082F910AC0EAE32
:106880008DF84F8002E0B8F10F0F34D039460AAAD4
:106890005FFA88F002F052F968B34FF4CB730093BB
:1068A0000A9B4A46CDE90287049303205346914947
:1068B000CDF804B000F0D2FE9DF84F300A9A503364
:1068C0006B4443F8152C9DF84F3008F10108043350
:1068D000DBB20F2B8DF84F30D5D994E80F008DE83F
:1068E0000F0096E80C0095E80300FFF797FD0023E2
:1068F0008DF84F30C7E702F03BF994E80F008DE8C0
:106900000F0096E80C0095E80300FFF787FD7EE690
:106910000126D8F80510D8F80100774A0D2F03C2D8
:10692000B8F809101180754A167000F0D280032360
:1069300010AC0EAE8DF8383069E60120BAE6602260
:106940006F4F0FA938888DF83B308DF83820FFF74E
:106950009FF800220B2013468DF84F00F879B97884
:1069600060F30702387A61F3070360F30F2261F3E3
:106970001742F97810AC61F30F2379790EAE61F309
:106980001743797A61F31F62CDF84220BA7962F336
:106990001F63CDF83E303AE6102E3FF661AE1A780E
:1069A000042A7DD0FA3A042A3FF65AAE01A151F8E2
:1069B00022F000BF136A0108EB690108D9690108D8
:1069C0007F650108C969010802F086F9012310AC4E
:1069D0000EAE8DF83A301AE60122981810AC0EAEC1
:1069E0008DF83A20FFF75AF811E6012258780793FC
:1069F0008DF83A20FEF7FCFD079B424A997810ACCF
:106A00001160D978404A1B791160404A0EAE13607C
:106A1000FDE5012798F8073010AC009398F808308E
:106A20000EAE019398F8093098F80A20029398F86E
:106A30000630039298F8052098F80410B8F8020080
:106A40008DF83A7000F06AF8E1E54FF4A977304A22
:106A500003200192254B264A2649009700F0FEFDAF
:106A600001230B2010AC0EAE8DF83A30FEF782FCFD
:106A7000CDE5602104228DF83B30234B21481B6873
:106A800000688DF83D30214B8DF83C001B6810AC40
:106A90008DF83E308DF838108DF84F200EAEB6E5EB
:106AA000012100221B4F58788DF83A1038709878E1
:106AB00010AC7870D878FA70B870181DFEF7EEFF39
:106AC000034606213846BB80FFF7E6F80EAEF88095
:106AD0009DE51846FEF7E2FF10AC8DF838600EAE6B
:106AE00095E500BFA411223380EE0308C4EE03082D
:106AF000B4ED0308CCED03085823002060430020C8
:106B000068230020502300204C2300205423002021
:106B100030EE0308402B00209CEE03082DE9F04FD7
:106B20008BB09DF85040894690461E469DF858A06F
:106B300007469DF854B00994FEF7E8FF0023254D61
:106B400080F807A02B60AB80099B05F8029CAB7016
:106B500005F8018C25F8047C6E7085F803B0FEF70B
:106B6000D5FF35F8043C0380FEF7D0FF15F8023C52
:106B70008370FEF7CBFF15F8013CC370FEF7C6FF2C
:106B80006B780371FEF7C2FFAB784371FEF7BEFF6F
:106B9000EB788371FEF7BEFF4521EA7835F8043CB7
:106BA0000792AA78029306926A780B4B059201939A
:106BB00015F8012C15F8024C85F804A00320049266
:106BC0000091064B064A0749039400F047FD0BB0BD
:106BD000BDE8F08F6C230020FCEE03082CEF0308C7
:106BE000D8EE0308F0EE030870B54FF4FA62002601
:106BF000EC23144D25F8022C6E602E60AB71FEF76D
:106C000085FFAB79AC1EC371FEF780FF35F8023CFF
:106C10000380FEF77BFFA3788370FEF777FF6B7826
:106C2000C370FEF773FFEB780371FEF76FFF2B79EC
:106C30004371FEF76BFF6B798371FEF76BFF304694
:106C400070BD00BF6A23002010B5184C84B0A44664
:106C500001AB83E8070093E80700ACE80300ACF859
:106C60000020FEF753FF237AC371FEF74FFF2388FE
:106C70000380FEF74BFFA3788370FEF747FFE378AE
:106C8000C370FEF743FF63790371FEF73FFFA379FB
:106C90004371FEF73BFFE3798371FEF737FF237AF9
:106CA000C37104B0BDE81040FEF734BF6823002074
:106CB00030B50D461446014683B02022164825F013
:106CC000B0FD20222946154825F0ABFD21462022A3
:106CD000134825F0A6FD134C1348144B14492060AB
:106CE0001B1A144A1448521A144C016014492360A8
:106CF0000A6023B10122134B1A7003B030BDAA24DD
:106D0000114901200191114B114A1249009400F0E0
:106D1000A5FC03B030BD00BFEC240020C824002037
:106D2000A4240020A024002000000020C00A00208D
:106D300000200108704E0408982400209C240020A4
:106D4000942400206343002074EF030850F80308E4
:106D50004CEF030870EF03082DE9F047314D324C3A
:106D6000324B95F80080074624681B68B8F1000F85
:106D700012D02F482F4D0668D5E905050138864207
:106D80003D6043D82C4D2D682E4486423ED30129C8
:106D90003CD97860022000E0404604EB030C6245D9
:106DA00029D2234B244C1B68266803F1040E1E4491
:106DB0001368DC071CD55C1EA64519D8A64217D35C
:106DC0001F2815D833F8035C33F8059C1B4B05EAE4
:106DD000030ABAF5784F10D005F47F45B5F58E4F0C
:106DE00006D1814204D9022814D047F8204001304E
:106DF00004326245DCD3BDE8F08709EA0309B9F53E
:106E0000704FEED004326245D2D3F4E74FF0000861
:106E10000120C2E7B8F1000FE7D07B68A342E4D1BC
:106E2000E6E700BF62430020A02400209C2400204D
:106E300098240020A81C00209424002000F8FFFFC4
:106E40002DE9F0470446A6B00021802206A825F0CF
:106E5000CEFC2246202106A8FFF77EFF58B3DFF8BC
:106E600090A0814654460E4606ADDFF8888005EBBB
:106E7000800755F8042B204641461DF083FCBD4297
:106E800004F1090404F8016CF3D14FF4CF741148F4
:106E9000114A124909EBC903CDE90220CDE9043AB0
:106EA000019101200E4B0F4A0F49009400F0D6FBD0
:106EB00026B0BDE8F08740F2A1140C4901200191F1
:106EC000074B084A0849009400F0C8FB26B0BDE80B
:106ED000F08700BF20F00308EC24002028F003080E
:106EE00020F803084CEF030870EF030868F003086C
:106EF0007423002018F003082DE9F047994B8AB05D
:106F00001B78002B00F01E81974E3378002B40F049
:106F10000A810127044640F26D20944B0D460193EF
:106F2000934A3770934B94490090384600F096FB93
:106F3000B5224FF42076914B38460493904B8E49FE
:106F40000393904B009202938F4B894A01938F4B8E
:106F500000F084FB8E4B38460096854A86490193A3
:106F6000844B00F07BFB40F29E2C8A4AE4064FF0F3
:106F70000100804B80490192CDF800C07C4A4CBF93
:106F800005F1200605F1680600F068FB40F2A92C27
:106F9000814CD5F810E029686868AB68EA68D5F8D4
:106FA00014A0DFF82892C4F810E0DFF82482D5F8A6
:106FB00018E0ED6921606060A360E260C4F814A08D
:106FC000764FCDE90490CDE90281C4E906E5744924
:106FD0000793744BCDF800C0012009920693644AD0
:106FE000644B08910197644900F038FB40F2AD22F0
:106FF00040F2B125E169019709916B49012008919F
:10700000A1695C4B079169490691616905916849DD
:1070100004912169009203916649554A02915649AB
:1070200000F01CFB644A0120524B53490192009529
:107030004F4A00F013FB4FF0E022D2F8241D5F4BC3
:10704000216293F8281084F82410D2F8341DA1622C
:1070500093F8291084F82C10D2F8381D588D21632C
:10706000D2F82C1DA0861A8E9B8F92B29BB28807F5
:10707000C4E90E12236400F1C88094F83B3059062D
:1070800049D594F824308BB1DA0700F140819F078D
:1070900000F142821D0700F13182D80600F1E9813A
:1070A000990600F1D8811A0600F1CC8094F82C30B2
:1070B000A3B1DD0700F11D81980700F10C8159078C
:1070C00000F1BB811A0700F1AA81DF0600F1998166
:1070D0009D0600F18881180600F1A380A38EC3B13C
:1070E00094F83430DA0700F170819F0700F15F8176
:1070F0005D0700F14E81180700F13D81D90600F1CE
:107100002E8194F83530DA0700F11B819B0700F1DE
:107110000C8194F83B301F065CD430460AB0BDE8C1
:10712000F047FFF78DBE40F26924254A2549114BEF
:107130000191CDE9022301200D4A0F49009400F08E
:107140008DFAFEE740F267241F4A1E49094B019160
:10715000CDE902230120064A0749009400F07EFA97
:10716000FEE700BF634300206243002040D80308CD
:107170004CEF03080CF8030870EF0308A424002068
:10718000C8240020EC240020D8EF030834F80308BA
:10719000BCF00308F0F00308A81C002040F103082D
:1071A00030F1030834F103086CF1030870F10308AF
:1071B00074F1030878F103087CF1030800ED00E0A6
:1071C000B0F0030890F0030888F0030838F10308D2
:1071D0003CF10308E36B002B9FD094F83C30DD07B3
:1071E00041D4980769D4590759D41A0749D4DB0602
:1071F00093D540F24624A64A01200192A54BA64A07
:10720000A649009400F02AFA87E74FF4EE75A44AE5
:10721000012001929F4BA04AA049009500F01EFA60
:107220002BE799077FF55AAF40F21625226B9D4B4D
:107230000120CDE901329949964B974A009500F01B
:107240000DFA4BE79F073FF431AF40F2F715A26A02
:10725000954B0120CDE9013290498E4B8E4A009525
:1072600000F0FCF922E740F23A25904A894B01925E
:107270000120894A8949009500F0F0F994F83C30E2
:10728000AFE740F243258A4A824B01920120824AAD
:107290008249009500F0E2F994F83C30A7E74FF4FA
:1072A0001075844A7B4B019201207B4A7B490095F3
:1072B00000F0D4F994F83C3097E740F23D257E4A3F
:1072C000744B01920120744A7449009500F0C6F98C
:1072D00094F83C3087E740F20125784A6D4B0192E3
:1072E00001206D4A6D49009500F0B8F994F82C30F2
:1072F000E5E64FF4FF75724A664B01920120664A3B
:107300006649009500F0AAF994F82C30D4E64FF4C1
:10731000F1756C4A5F4B019201205F4A5F4900950D
:1073200000F09CF994F82430B1E640F23225664A28
:1073300001200192574B584A5849009500F08EF9A8
:10734000E7E640F22F25614A524B01920120524A52
:107350005249009500F082F994F83530D6E640F2B3
:107360002B255B4A012001924A4B4B4A4B49009521
:1073700000F074F9C5E640F22725564A454B0192C4
:107380000120454A4549009500F068F994F83430E9
:10739000B4E64FF40975504A3E4B019201203E4A33
:1073A0003E49009500F05AF994F83430A3E640F2D3
:1073B00021254A4A374B01920120374A3749009527
:1073C00000F04CF994F8343092E640F21E25444A1D
:1073D000304B01920120304A3049009500F03EF9CF
:1073E00094F8343081E64FF404753E4A294B0192FB
:1073F0000120294A2949009500F030F994F82C30F1
:1074000069E640F20A25384A224B01920120224ABD
:107410002249009500F022F994F82C3058E640F209
:107420000725324A1B4B019201201B4A1B4900953C
:1074300000F014F994F82C3047E64FF401752C4A0B
:10744000144B01920120144A1449009500F006F9EA
:1074500094F82C3036E640F2F115264A0D4B019295
:1074600001200D4A0D49009500F0F8F894F82430F9
:1074700019E640F2EB15204A064B01920120064A1C
:107480000649009500F0EAF894F8243008E600BFB9
:10749000CCF70308FCF703084CEF030870EF030870
:1074A000BCF103088CF4030820F303080CF703086D
:1074B0009CF7030870F703083CF703088CF30308F4
:1074C00058F30308E8F10308A0F603084CF6030894
:1074D000F0F50308A8F5030848F50308FCF40308D1
:1074E000B4F403084CF4030824F40308FCF3030881
:1074F000C4F30308D4F20308A0F203084FF4F475B0
:107500000C4A0D4B019201200C4A0D49009500F0E8
:10751000A5F894F82430C0E540F2E515094A064B79
:1075200001920120054A0649009500F097F894F869
:107530002430AFE568F20308FCF703084CEF0308BA
:1075400070EF03082CF2030870B51C4C94F8F0306F
:107550000BB1002070BD00F031FC0028FAD10122EF
:1075600094F8F43084F8F220F3B994F8F33013BBB4
:10757000002501210522124BA4F8F35003F1A506C2
:1075800084F8F510227018461F22002125F02FF9EB
:1075900003462133B34203F8225C03F8025CF2D1C4
:1075A000012384F8F030D4E794F8F330002BDFD1D6
:1075B00000F00EFCDCE700F009FCD9E714290020FC
:1075C00046290020034B93F8F02012B1012283F8E2
:1075D000F1207047142900200FB410B51D4C82B063
:1075E00094F8F13023B902B0BDE8104004B0704700
:1075F00094F8F23005AA0192E3B9012384F8F3303C
:10760000019B4FF48061049A13481DF0E5F8014690
:10761000B1F5806F28BF4FF480610F4800F0D0FBB8
:1076200094F8F23063B984F8F33002B0BDE810404A
:1076300004B0704700F0CAFB012384F8F430DFE7A0
:1076400000F0C6FB002384F8F43002B0BDE810401F
:1076500004B0704714290020142500202DE9F04FB4
:10766000044691B0084699460D46924625F020F909
:107670000023052C0746CDE90C33CDE90E330A93E0
:10768000ADF82C3008D9C14B1E68002E79D040F2DD
:107690003922BF49BF48B047BF4E96F8F13013B109
:1076A0003378A34202D211B0BDE8F08F284600F033
:1076B000FFF9A042F7D32846711C25F0C5F8002831
:1076C000F1D096F8F2301CAA0992002B6CD101235C
:1076D00086F8F33096F8F530002B40F0DF809846BE
:1076E000DFF8BCB2CDF81CB00121204600F04CFA06
:1076F000002840F0B3800221204600F045FA00281F
:1077000040F0B8801C21204600F03EFA00287FD1CE
:10771000E021204600F038FA002855D1C8F58061F4
:107720000798099B1B9A1DF057F88044B8F57F7F96
:1077300037D240F2FB3338EA200828BF984696F843
:1077400020303BB10023954995480BF8083025F0CF
:107750007BF878B396F8F530002B40F0B380914A6F
:107760000BEB0801404600F04DFB01468C484144BC
:1077700000F026FB96F8F23003BB002386F8F330C6
:1077800091E740F239248349874A814B0192CDE940
:1077900002133046854A864904940094FFF75EFF41
:1077A000FEE740F2FB38CAE700F010FB012386F841
:1077B000F4308FE796F8F230002BDED000F008FBB3
:1077C000002386F8F4306EE740460799794A00F0C6
:1077D00019FB20218044204600F0D6F9002840F013
:1077E0009D808021204600F0CFF900287AD12046E4
:1077F000402100F0C9F900286CD140460BEB08018C
:107800006D4A00F0FFFA80440BEB0803079385E70D
:1078100040460799694A00F0F5FA04218044204661
:1078200000F0B2F9002840F0E7800821204600F07F
:10783000ABF9002840F087801021204600F0A4F921
:10784000002840F0988040460BEB08015C4A00F0AD
:10785000D9FA80440BEB0803079359E7594B40468C
:1078600053F82420079900F0CDFA80440BEB08036D
:10787000079340E740462A46079900F0C3FA0F2FC6
:10788000804440F2AB8040460BEB08014E4A00F0CA
:10789000B9FA80440BEB0803079333E7DFF800B134
:1078A000494A5946002000F0ADFA484B0BEB000165
:1078B00053F82420804600F0A5FA80440BEB08031F
:1078C000079311E740460BEB0801414A00F09AFA92
:1078D000804444E740460BEB08014A4600F092FA28
:1078E00080448AE705211A9B3A4A0AA81CF016FF31
:1078F0000BEB080140460AAA00F084FA40218044BC
:10790000204600F041F900283FF471AF40460BEBF0
:1079100008012D4A00F076FA804468E70BEB080175
:107920004046524600F06EFA40218044204600F066
:107930002BF9002878D040460BEB0801264A00F0CE
:1079400061FA80444DE700F059FA0BEB080102465A
:10795000404600F057FA10218044204600F014F908
:1079600000283FF469AF40460BEB0801164A00F0CF
:1079700049FA804460E700F043FA0BEB0801024645
:10798000404600F03FFA80445DE700BF102500202C
:1079900030F9030888F8030814290020342900204E
:1079A0001425002038D80308A4F8030864F8030855
:1079B00080F80308D0F80308ECE50308C8F80308CA
:1079C000CCF80308C4F9030808F90308ACF9030864
:1079D000D8F80308D4F80308E0DA03082021C7F137
:1079E0000F020CA824F003FF40460BEB08010CAA81
:1079F00000F008FA804446E700F0ECF90BEB0801D0
:107A00000246404600F0FEF918218044204600F06E
:107A1000BBF800283FF409AF40460BEB08010A4AC7
:107A200000F0F0F9804400E78021204600F0ACF837
:107A300000283FF4D6AE40460BEB0801024A00F0A6
:107A4000E1F98044CDE600BF08F9030870B50528C8
:107A500004460D4686B007D90E4B1E6856B140F25B
:107A60003B120D490D48B0470D4B363443F82450B6
:107A700006B070BD40F23B1408490A4A064B019219
:107A8000CDE902133046084A084904940094FFF7F0
:107A9000E5FDFEE71025002054F9030888F80308E7
:107AA00014290020A4F8030864F8030880F80308E8
:107AB0002DE9F041064686B068B3DFF8C88098F833
:107AC000F0301BB398F8F270C7B9012388F8F3308F
:107AD0000024254DEB7F2BB129461E22304624F091
